:1000000070C000000C9401310C94283192C00000A3
:1000100090C000008EC000008CC000008AC00000AC
:1000200088C0000086C0000084C0000082C00000BC
:1000300080C000000C94942C7CC000007AC00000AA
:100040000C944F3176C000000C946E340C94A034A4
:1000500070C000006EC000006CC000006AC00000EC
:1000600068C0000066C0000005A84CCDB2D44EB9EF
:100070003836A9020C50B9918688083CA6AAAA2A4B
:10008000BE000000803F00000008000201000003E5
:100090000407000000000000000001020408102016
:1000A000408001020408102001020408102004040A
:1000B0000404040404040202020202020303030310
:1000C00003030000000023002600290000000000B8
:1000D000250028002B0000000000240027002A0033
:1000E000C53411241FBECFEFD8E0DEBFCDBF11E075
:1000F000A0E0B1E0E4E0FBE602C005900D92A83F6D
:10010000B107D9F726E0A8EFB1E001C01D92A23AED
:10011000B207E1F710E0C1E7D0E004C02197FE018B
:100120000E945135C037D107C9F70E947B2D0C942E
:10013000803566CF611102C00C94B3326130E1F3B7
:1001400062E0FACF662319F061E00C94EF3260E0D0
:10015000FCCFCF93DF93EC0170E060E06C177D077C
:100160000CF5072E000C880B990B0E94102F20E035
:1001700030E0A9010E940D2E20E030E0A9010E948C
:100180000D2E20E030E040E450E40E940D2E20E0EF
:1001900030E040E450E40E940C2E0E94DD2E6F5FA0
:1001A0007F4FDCCFDF91CF9108950F931F93CF93B3
:1001B000DF93EC018C810E941C338C018C859D8522
:1001C000C8DF88850E941C33488159816A817B8100
:1001D000019781F40130110579F44F5F5F4F6F4F44
:1001E0007F4F488359836A837B83DF91CF911F912F
:1001F0000F910895012B89F341505109610971094B
:10020000F0CF89EF91E0D1CF89E092E0CECF89E1C4
:1002100092E0CBCF89E292E0C8CF0F931F93CF93A8
:10022000DF93EC0188850E941C338C018C859D85B1
:1002300090DF8C810E941C33488159816A817B81C7
:10024000019779F4012B81F44F5F5F4F6F4F7F4F20
:10025000488359836A837B83DF91CF911F910F91EC
:1002600008950130110581F3415051096109710967
:10027000EFCF89EF91E0D1CF89E092E0CECF89E155
:1002800092E0CBCF89E292E0C8CF0F931F93CF9338
:10029000DF93D82FC62F8A01E091F80180E1E89F13
:1002A000F0011124E750FE4F8D2F90E0B0E0A0E068
:1002B00084839583A683B783862F90E0B0E0A0E087
:1002C00080879187A287B38710821182128213825E
:1002D00081E090E0A0E0B0E084879587A687B787AB
:1002E00060E08D2F0E94B33260E08C2F0E94B33209
:1002F0008091F801813089F1A8F0823009F446C07C
:10030000833009F45CC08091F80191E0980F9093DC
:10031000F801F801808390E080E0DF91CF911F9198
:100320000F91089580E0D23021F08FEFD33009F49F
:1003300081E041E050E069E371E00E94E13080E05B
:10034000C23021F08FEFC33009F481E041E050E08A
:1003500061E071E00E94E130D6CF80E0D23021F040
:100360008FEFD33009F481E041E050E06CE371E0BD
:100370000E94E13080E0C23021F08FEFC33009F4F9
:1003800081E041E050E064E071E0E4CF80E0D23011
:1003900021F08FEFD33009F481E041E050E06FE3CA
:1003A00071E00E94E13080E0C23021F08FEFC33075
:1003B00009F481E041E050E067E071E0CBCF80E0FC
:1003C000D23021F08FEFD33009F481E041E050E0EA
:1003D00062E471E00E94E13080E0C23021F08FEFF2
:1003E000C33009F481E041E050E06AE071E0B2CF4F
:1003F00090E1899FF0011124E750FE4F80819181A7
:10040000A281B381FB0180839183A283B38390E0B7
:1004100080E0089590E1899FF0011124E750FE4F9C
:10042000108211821282138290E080E0089590E0A1
:1004300080E00895CF92DF92EF92FF92CF938823CE
:1004400051F16A017B01CFEFC80F20E030E0A90134
:10045000CB01B6010E94712E87FF11C0C701B60102
:1004600090580E94E22E9B01AC016C2F70E090E04E
:1004700080E0CF91FF90EF90DF90CF90B2C0C701A6
:10048000B6010E94DD2E8C2FCF91FF90EF90DF9070
:10049000CF900C942F32CF91FF90EF90DF90CF90C0
:1004A00008950F931F938B019C0183E03695279548
:1004B000179507958A95D1F7075C1D4F462F477012
:1004C00021E030E0F90102C0EE0FFF1F4A95E2F78C
:1004D000AF01F80120812423CB010196211102C034
:1004E00090E080E01F910F9108950F931F938B016F
:1004F0009C0183E036952795179507958A95D1F746
:10050000677081E090E001C0880F6A95EAF7F80112
:10051000E75CFD4F2081452B31F480958223808359
:100520001F910F910895822BFACF2F923F924F92F5
:100530005F926F927F928F929F92AF92BF92CF9273
:10054000DF92EF92FF920F931F93CF93DF93D62EFC
:10055000C72E782E692E49015A01280161E08D2DA0
:100560000E94B332CD2DDC2D8E010F5F1F4FA801ED
:100570006D2D7C2D872D962DB8DF20E030E0A90170
:10058000C201B7010E94C02F181664F4C201B7015E
:100590000E94E22E2B01C501B4010E94E22EA201AD
:1005A000CE0123D0C801DF91CF911F910F91FF9011
:1005B000EF90DF90CF90BF90AF909F908F907F9003
:1005C0006F905F904F903F902F900895882341F057
:1005D0008150682F70E090E080E050E040E085CFEF
:1005E0000895862FB9010C942F329C01FC01EA5723
:1005F000FF4FE491E33061F140F4E13011F1E2307A
:1006000021F160E0822F0C94EF32E730C1F1E83045
:1006100009F441C0E430A9F7809180008C7F8260AA
:100620008093800090918100907E9061692B60930F
:100630008100509387004093860080918000806203
:100640001BC084B5806884BDDCCF84B58062FBCFDD
:10065000809180008C7F82608093800090918100E7
:10066000907E9061692B6093810050938700409346
:10067000860080918000806880938000C2CF809146
:10068000B00080688093B0008091B100887F682BB3
:100690006093B100B6CF8091B0008062F3CF90E05C
:1006A00080E008950F931F93009709F489C06115A6
:1006B000710509F485C00091250110912601209152
:1006C0002701309128010E3F1F4F2F4F3F4F09F058
:1006D00068C04FEF5FEFBA014093250150932601A8
:1006E00060932701709328014091250150912601C4
:1006F0006091270170912801DC011296ED91FC9127
:1007000080819181A281B3818093400390934103C2
:10071000A0934203B093430384819581A681B7815E
:1007200080933C0390933D03A0933E03B0933F031B
:1007300080859185A285B385809338039093390392
:10074000A0933A03B0933B0384859585A685B7852E
:100750008093340390933503A0933603B09337030B
:10076000109230031092310310923203109233032F
:100770000E94001185E291E190934302809342022E
:1007800090934502809344020E94EF0F009731F44A
:1007900021E030E030934503209344031F910F91F3
:1007A0000895009125011091260120912701309193
:1007B0002801DB010D931D932D933C93139794CF48
:1007C0008FEF9FEFEBCF8F929F92AF92BF92CF921E
:1007D000DF92EF92FF921F93CF93DF934B015C0167
:1007E0001091470382E090E0909345038093440387
:1007F00081149104A104B10441F480914703811153
:1008000004C080914603C1E08111C0E0C12CD12C0D
:10081000760180914703811106C0809146038111C2
:1008200002C0CC23D9F083E090E0909345038093FD
:100830004403CC2381F1CCE9DFEF111102C00E9407
:100840008A14CE01DF91CF911F91FF90EF90DF903E
:10085000CF90BF90AF909F908F9008956AE070E026
:1008600080E090E00E94BE3180E1C80E87E2D81E91
:10087000E11CF11C8FEF88169806A806B80631F027
:10088000C1E08C149D04AE04BF0408F0C0E080E019
:100890000E942310BECFD0E0C0E0CFCFCF92DF9236
:1008A000EF92FF920F931F93CF93DF938F3F9105AA
:1008B00011F008F051C020914403309145032330DA
:1008C000310539F020914403309145032130310541
:1008D00031F424E030E030934503209344036A016F
:1008E0007B01EC0182309105A8F011E0AE01C70157
:1008F000B6010E94EE0FAB01BC01CE011123F9F04D
:10090000DF91CF911F910F91FF90EF90DF90CF90EB
:100910000C94B3168C01000F111F0E5B1D4FD801F4
:100920008D919C91892B09F30E94BD160297E9F6DF
:10093000D801ED91FC91CE010995182FD7CF0E94D7
:10094000D51690E080E0DF91CF911F910F91FF903D
:10095000EF90DF90CF9008958FEF9FEFF4CF80E07E
:100960000C942310CF93DF9386E090E0909345039F
:10097000809344030E947C10EC01E2E4F2E084E006
:10098000DF011D928A95E9F70E9422141092450317
:1009900010924403CE01DF91CF91089580914603D8
:1009A000089580912F030895609325017093260187
:1009B000809327019093280190E080E008954F9262
:1009C0005F926F927F928F929F92AF92BF92CF92DF
:1009D000DF92EF92FF920F931F93CF93DF93CDB7E8
:1009E000DEB72A970FB6F894DEBF0FBECDBFDB018E
:1009F000FB01E150F04C8F01000F111F000F111F80
:100A0000F801E80FF91F4080518062807380530124
:100A100042018824B7FC83949924AA24BB248F82A2
:100A20009886A986BA8675016401F094E094D09402
:100A3000C094C11CD11CE11CF11C261737079CF582
:100A4000F901E150F04CEE0FFF1FEE0FFF1FE80F12
:100A5000F91F80809180A280B380482459246A24A1
:100A60007B24F8013496E80FF91F77FE18C08F80B9
:100A70009884A984BA84B1E08B1A9108A108B108BE
:100A8000FA0190E080E02150310933C07290629009
:100A9000529042904C145D046E047F0441F711970C
:100AA000A217B3079CF7F901621773070CF4FB0157
:100AB0008C01CA0170E060E06E177F07ECF1CF0196
:100AC000F7FF02C090E080E0FC01EE0FFF1FEE0F89
:100AD000FF1FE40FF51F82179307BCF4C192D19258
:100AE000E192F1920196F7CF81929192A192B19207
:100AF000019682179307C4F3C094D094E0948FE7D3
:100B0000F826C082D182E282F3822A960FB6F89448
:100B1000DEBF0FBECDBFDF91CF911F910F91FF9030
:100B2000EF90DF90CF90BF90AF909F908F907F908D
:100B30006F905F904F900895D8018D909D90AD90EB
:100B4000BD908D01DC018D929D92AD92BD92CD0143
:100B50006F5F7F4FB1CF2F923F924F925F926F9214
:100B60007F928F929F92AF92BF92CF92DF92EF923D
:100B7000FF920F931F93CF93DF93CDB7DEB72E97DE
:100B80000FB6F894DEBF0FBECDBF9E878D873C8722
:100B90002B871801FA0125E0F695E7952A95E1F7EC
:100BA000DB01A150B04CAA0FBB1FAA0FBB1FA80F9F
:100BB000B91FCD90DD90ED90FC90FF0CCC08DC2CA3
:100BC0007601E617F7070CF0D5C0DF01A00FB11FC3
:100BD0009B01A617B7070CF49D018A010F7111271D
:100BE000DF01AA0FBB1FAA0FBB1F01151105F1F4EE
:100BF0000D851E850A0F1B1F8B859C8550E040E0EC
:100C0000BA016E0F7F1F621773070CF05DC0D80129
:100C10008D909D90AD90BD908D01DC018D929D9247
:100C2000AD92BD92CD014F5F5F4FEACF6D847E8460
:100C30006A0E7B1E7C826B82D3014D905D906D901D
:100C40007C90AB84BC84BA82A98250E040E0A0E2F0
:100C5000B0E0CD01801B910B9E838D835301420137
:100C6000002E04C0B694A794979487940A94D2F760
:100C70004F5F5F4FDF01A40FB51FA217B30784F1C9
:100C8000D701C601261737076CF4220F331F220F36
:100C9000331FED85FE852E0F3F1FF9018081918165
:100CA000A281B3810D8004C0880F991FAA1FBB1FAA
:100CB0000A94D2F788299929AA29BB29E981FA81BE
:100CC00080839183A283B3839A01220F331F220F63
:100CD000331F6B847C84620E731E7A8269822EC0FD
:100CE000DA01AA0FBB1FAA0FBB1F6B807C80A60D69
:100CF000B71D4D905D906D907C90D301C2010D8029
:100D000004C0880F991FAA1FBB1F0A94D2F7882A14
:100D1000992AAA2ABB2AA981BA818D929D92AD9265
:100D2000BD92BA83A9839ACFE981FA81C192D19207
:100D3000E192F192FA83E9834F5F5F4F42155305C9
:100D40009CF32E960FB6F894DEBF0FBECDBFDF9199
:100D5000CF911F910F91FF90EF90DF90CF90BF90B8
:100D6000AF909F908F907F906F905F904F903F904B
:100D70002F90089550E040E0A7CF2F923F924F92DE
:100D80005F926F927F928F929F92AF92BF92CF921B
:100D9000DF92EF92FF920F931F93CF93DF93CDB724
:100DA000DEB7CB54D1090FB6F894DEBF0FBECDBF6E
:100DB00026967FAF6EAF269728965FAF4EAF2897E7
:100DC0003E8B2D8B2C96FFAEEEAE2C97FB01E150A7
:100DD000F04CEE0FFF1FEE0FFF1FE80FF91F808092
:100DE0009180A280B3808F8A988EA98EBA8EB50129
:100DF000A401442777FD4395552766277727299631
:100E00004FAF2997F901E150F04CEE0FFF1FEE0FA5
:100E1000FF1F2896AEACBFAC2897EA0DFB1DC08023
:100E2000D180E280F380CB8EDC8EED8EFE8EB7011A
:100E3000A601442777FD43955527662777272A96ED
:100E40004FAF2A97188B0F87F80130E020E02C96DF
:100E5000EEACFFAC2C972E153F050CF43FC022964C
:100E60009FAF8EAF22971A8B098B312C212C812CAE
:100E7000912C540183948D829E82AF82B8862696EF
:100E80008EAC9FAC2697281439047CF129969FAC30
:100E900029972A96AFAC2A9730E020E041E050E055
:100EA00060E070E09A10F5C1C55BDF4F0FB6F894B3
:100EB000DEBF0FBECDBFDF91CF911F910F91FF908D
:100EC000EF90DF90CF90BF90AF909F908F907F90EA
:100ED0006F905F904F903F902F90089511921192D4
:100EE000119211922F5F3F4FB2CF2296EEADFFAD20
:100EF000229781919191A191B1912296FFAFEEAF8E
:100F000022978F88988CA98CBA8CB7FE23C04D810C
:100F10005E816F81788541505109610971095A01DB
:100F20006B01A81AB90ACA0ADB0AD601C50121E079
:100F3000CD80DE80EF80F8848C159D05AE05BF0561
:100F400008F020E0822E912CB12CA12C8D829E8263
:100F5000AF82B8865D01CC24DD24A8A2B9A2CAA2C2
:100F6000DBA29C01AD01442755272CA33DA34EA332
:100F70005FA32C96EEADFFAD2C97E219F3098D8897
:100F80009E888E169F060CF4F4012896AEACBFAC7A
:100F900028972496BFAEAEAE2497C988DA88DC8A3B
:100FA000CB8A1E861D86812C912C540183948986C0
:100FB0009A86AB86BC86812C912C5401CD84DE842C
:100FC000CE16DF0604F1F7FF02C0F0E0E0E0E20D2C
:100FD000F31D2C96EEACFFAC2C97EE15FF0554F4E8
:100FE000EE0FFF1FEE0FFF1FE00FF11F80829182B7
:100FF000A282B3822FEF221A320AE989FA89349643
:10100000FA8BE98B3CCF2496AEADBFAD2497CD9043
:10101000DD90ED90FD902496BFAFAEAF24972B8D61
:101020003C8D4D8D5E8D57FF22C089859A85AB859D
:10103000BC850197A109B109AC01BD014C195D093D
:101040006E097F096A017B0181E029853A854B851C
:101050005C85C216D306E406F50608F080E0482F4A
:1010600050E070E060E049875A876B877C87B70162
:101070008827992768A779A78AA79BA7EE24FF242A
:1010800028A139A14AA15BA1C701B6010E94203560
:101090002B013C012CA13DA14EA15FA168A579A522
:1010A0008AA59BA50E9420356CA77DA78EA79FA728
:1010B000AB89BC894D915D916D917D91BC8BAB8B62
:1010C000DB01CA01880D991DAA1DBB1D89839A8366
:1010D000AB83BC8391E09F8F29813A814B815C81F6
:1010E000281539054A055B0508F01F8E2CA13DA186
:1010F0004EA15FA1C701B6010E9420356B017C01A2
:1011000089809A80AB80BC808C0C9D1CAE1CBF1C5F
:1011100089829A82AB82BC8252019924882488AA4F
:1011200099AAAAAABBAA29813A814B815C81280D80
:10113000391D4A1D5B1D2CAB3DAB4EAB5FAB8CA488
:101140009DA4AEA4BFA454019924882488AE99AE6E
:10115000AAAEBBAE280D391D4A1D5B1D2CAF3DAF9D
:101160004EAF5FAFAB89BC8914972D933D934D93E0
:101170005C93139728A139A14AA15BA168A579A521
:101180008AA59BA50E9420359F8C690D711D811D2C
:10119000911D230166247724460E571E681E791E72
:1011A0002CA53DA54EA55FA54A01AA24BB24840C0D
:1011B000951CA61CB71C81E090E0A0E0B0E049813E
:1011C0005A816B817C814C155D056E057F0518F099
:1011D00080E090E0DC01880D991DAA1DBB1D41E057
:1011E00050E060E070E088A899A8AAA8BBA8CCA8A5
:1011F000DDA8EEA8FFA8C814D904EA04FB0418F07F
:1012000040E050E0BA01840F951FA61FB71F812C44
:10121000912C54018394C8ACD9ACEAACFBAC2CAD96
:101220003DAD4EAD5FAD2C153D054E055F0518F08B
:10123000812C912C5401880E991EAA1EBB1E4D852F
:101240005E854F5F5F4F5E874D87B8CEEF85F8892B
:10125000C190D190E190F190F88BEF87DB01CA014A
:101260000197A109B1098C199D09AE09BF093497ED
:1012700080839183A283B383E1E084179507A60757
:10128000B70708F0E0E04E2F50E070E060E02F5F1D
:101290003F4F2C968EAC9FAC2C9728153905B4F295
:1012A00003CE2F923F924F925F926F927F928F92D6
:1012B0009F92AF92BF92CF92DF92EF92FF920F93E5
:1012C0001F93CF93DF9300D000D0CDB7DEB78B0153
:1012D0005C834B83FB01E150F04CEE0FFF1FEE0FE0
:1012E000FF1FE80FF91F408151816281738177FDF3
:1012F00027C04C01B12CA12CC12CD12C7601A016F9
:10130000B10664F5F40161917191819191914F0160
:101310000E940E2F4B815C810E94C62F9B01AC0165
:10132000C701B6010E940D2E6B017C012B813C810F
:10133000205E3F4F3C832B833FEFA31AB30ADFCFDE
:101340009A838983312C212C81E090E0A0E0B0E0E9
:10135000C12CD12C760120163106CCF0C701B60184
:101360000F900F900F900F90DF91CF911F910F91E1
:10137000FF90EF90DF90CF90BF90AF909F908F90B5
:101380007F906F905F904F903F902F900895E981EC
:10139000FA814190519061907190FA83E983409471
:1013A00050946094709453014201880E991EAA1EB5
:1013B000BB1EC501B4010E940E2F4B815C810E94AF
:1013C000C62F9B01AC01C701B6010E940C2E6B0118
:1013D0007C0181E084149504A604B70408F080E041
:1013E00090E0B0E0A0E02B813C81205E3F4F3C8349
:1013F0002B833FEF231A330AAECF2F923F924F92A7
:101400005F926F927F928F929F92AF92BF92CF9294
:10141000DF92EF92FF920F931F93CF93DF93CDB79D
:10142000DEB7AA970FB6F894DEBF0FBECDBF6091AE
:1014300008017091090180910A0190910B019B01B3
:10144000AC010E940D2E6B017C0180912401813042
:1014500079F50091090310910A0320E030E040E89B
:101460005EE3C701B6010E94FA2FD8012D913D918C
:101470004D915C910E94FA2F209114013091150139
:1014800040911601509117010E940D2E0E945D306F
:10149000A70196010E94FA2F2091100130911101AD
:1014A00040911201509113010E940D2E6B017C019D
:1014B000C701B60190D4811119C020E030E0A90124
:1014C000C701B6010E94712E87FD4FC020E030E0B9
:1014D000A901C701B6010E94C02FB0E0A0E0F0E86A
:1014E000EFE318163CF0F0E0E0E004C0BC2DAD2DB9
:1014F000FE2DEF2D20E030E040E85FE36B2F7A2FE8
:101500008F2F9E2F0E940D2E20E030E040E05FE301
:101510000E94FA2F11E020E030E0A9010E94712E14
:10152000811101C010E0612F86E00E94A200C70176
:10153000B60151D481111EC020E030E0A901C701DD
:10154000B6010E94712E87FD3BC220E030E0A90168
:10155000C701B6010E94C02FB0E0A0E0F0E8EFE3C1
:10156000181664F0F0E0E0E009C0B0E0A0E0F0E8B8
:10157000EFEBC0CFBC2DAD2DFE2DEF2D20E030E0E8
:1015800040E85FE36B2F7A2F8F2F9E2F0E940D2E46
:1015900020E030E040E05FE30E94FA2F11E020E01D
:1015A00030E0A9010E94712E811110E0612F87E0C7
:1015B0000E94A20065E070E080E090E00E9451028D
:1015C0008C0190936F0680936E06E894F7F820E004
:1015D00030E04FE753E4C701B6010E94712E1816A0
:1015E00034F4C12CD12C2FE7E22E23E4F22EB701E4
:1015F000A601C8010E941A02C0900C01D0900D01F2
:10160000E0900E01F0900F01A70196016091530642
:101610007091540680915506909156060E94712E45
:10162000882341F0C0925306D0925406E0925506AA
:10163000F09256068091520681111092520668E48B
:1016400076E0809157060E94F80188E0E8E1F1E039
:10165000A4E3B6E001900D928A95E1F78091200114
:1016600090912101A0912201B09123018D8F9E8F35
:10167000AF8FB8A38091480690914906A0914A0681
:10168000B0914B06898F9A8FAB8FBC8F82E0E82E8A
:10169000F12C8E010F5E1F4F21E030E0AE01475E5E
:1016A0005F4F61E070E0CE014D9667DB94E0E92E7C
:1016B000F12C0051110922E030E0AE014F5E5F4F86
:1016C00062E070E088E191E058DB04E010E024E2A1
:1016D00036E040E250E064E070E0CE0101963BDA93
:1016E00022E030E044E356E064E070E084E296E01B
:1016F00066D950E040E062E070E084E396E0D1DD3E
:101700004B015C01609108017091090180910A010F
:1017100090910B019B01AC010E940D2E6B017C018D
:1017200020E030E040E85FE2C501B4010E94FA2FFA
:101730009B01AC01C701B6010E940C2E2B013C019C
:1017400040923C0650923D0660923E0670923F06E3
:10175000209100013091010140910201509103015B
:101760000E94FA2F6DA37EA38FA398A760934006D3
:10177000709341068093420690934306E0910903DB
:10178000F0910A03FAA7E9A7C080D180E280F38034
:1017900010917006009171063090720620907306C9
:1017A000A7019601612F702F832D922D0E94C02FCB
:1017B00087FD0EC0A70196016091780670917906A9
:1017C00080917A0690917B060E94C02F87FF0EC100
:1017D000F0917806F9A3809179068AA390917A0610
:1017E0009BA3A0917B06ACA32F2F382F492F5A2FF4
:1017F000612F702F832D922D0E94712EA7019601CB
:1018000087FFE3C069A17AA18BA19CA10E94712EE0
:1018100087FDE3C08090740690907506A0907606D0
:10182000B090770619A30AA33BA22CA229A13AA142
:101830004BA15CA1C701B6010E940C2E6B017C017B
:10184000A50194016DA17EA18FA198A50E940C2EE7
:10185000A70196010E94752E6B017C012091040165
:10186000309105014091060150910701C301B20179
:101870000E94FA2FA70196010E940D2E6093440644
:1018800070934506809346069093470640909006D5
:10189000509091066090920670909306A301920179
:1018A000612F702F832D922D0E94712EE9A5FAA52C
:1018B000C080D180E280F38081119CC0C09270060C
:1018C000D0927106E0927206F0927306E4E7F6E0B9
:1018D0008DA19EA1AFA1B8A580839183A283B3837C
:1018E0004091F6025091F7026091F8027091F9026E
:1018F00090E080E00E944E044091FE025091FF0271
:10190000609100037091010381E090E00E944E0419
:101910006091F6027091F7028091F8029091F902BD
:101920006F5F7F4F8F4F9F4F6093F6027093F70268
:101930008093F8029093F9020091090310910A0331
:101940000E940E2F9B01AC016091FA027091FB0284
:101950008091FC029091FD020E94FA2FD8016D93B4
:101960007D938D939C9313978091FE029091FF023B
:10197000A0910003B09101030196A11DB11D8093B8
:10198000FE029093FF02A0930003B0930103AA9676
:101990000FB6F894DEBF0FBECDBFDF91CF911F9180
:1019A0000F91FF90EF90DF90CF90BF90AF909F90FE
:1019B0008F907F906F905F904F903F902F90089501
:1019C000B0E0A0E0F0E8EFEBD9CD612F702F832DD0
:1019D000922D0E94C02F87FD1DCF80907C06909095
:1019E0007D06A0907E06B0907F0620CFC12CD12C22
:1019F000760134CF8090780690907906A0907A0690
:101A0000B0907B06A5019401C301B2010E94712E22
:101A100081110BC0C0927806D0927906E0927A06C6
:101A2000F0927B06ECE7F6E053CFA5019401612F1D
:101A3000702F832D922D0E94712E87FFEBCF3ECF0A
:101A40008F929F92AF92BF92DF92EF92FF920F938D
:101A50001F93CF93DF9384E090E06CD1EEE5F2E04A
:101A600086E093E097838683C9E0D3E0D0939F021A
:101A7000C0939E020AEF12E0158B048BF093C9020B
:101A8000E093C802F583E48321E030E0DC012D938C
:101A90003C9386E491E0938782872BE033E039839F
:101AA000288340E050E060EC70E4409302035093E0
:101AB000030360930403709305034AE057ED63E268
:101AC0007CE3D8014D935D936D937C931397C4EEA3
:101AD000D2E081E09BEBA9E9B2E588839983AA83F0
:101AE000BB838CEB97E4AFEDB3E78093E802909370
:101AF000E902A093EA02B093EB028EEF9BECACEC10
:101B0000B2ED8093EC029093ED02A093EE02B093BD
:101B1000EF0286E796E0A6EFB7EA8093F002909393
:101B2000F102A093F202B093F302A2E5B2E0B38314
:101B3000A283E6E4F2E01196FC93EE9388E591E04F
:101B40009183808393838283958384839783868321
:101B5000918780879387828784EF92E015969C9384
:101B60008E9314971396DC93CE93129717963C930B
:101B70002E9316978091900690919106A0919206CF
:101B8000B0919306CCE4D6E08CA39DA3AEA3BFA3F3
:101B90008CA79DA7AEA7BFA71C8A812C912C5401AE
:101BA00083948D8A9E8AAF8AB88E61E086E00E9417
:101BB0009A00DD24D394D98E1C868D869E86AF86AE
:101BC000B88A61E087E00E949A00D98A1C8E19A227
:101BD0008D8E9E8EAF8EB8A2E12CF12C8701A801CC
:101BE000970165E070E080E090E00E9495029BA381
:101BF0008AA3D9A21B86188280910C0190910D01B5
:101C0000A0910E01B0910F018F839887A987BA87A1
:101C10001D8289829A82AB82BC8247E556E063E0EE
:101C200082E00E944501DD821E828B85DF91CF918B
:101C30001F910F91FF90EF90DF90BF90AF909F901A
:101C40008F900C940A0280916006811103C081E09C
:101C50008093600680915806811103C081E08093D3
:101C600058068091680681112EC081E08093680635
:101C70008091690690916A06A0916B06B0916C06FE
:101C80000197A105B105F9F480916D068823D9F07B
:101C900065E070E080E090E00E94510290936F0652
:101CA00080936E0640E050E0BA010E941A0265E09F
:101CB00070E080E090E00E94510290936F06809364
:101CC0006E060E94E60280914C06811114C081E0EC
:101CD00080934C0680914D0690914E06A0914F0640
:101CE000B09150060197A105B10529F480915106E4
:101CF00081110C941702089560E070E080E89FE77E
:101D0000089560E070E080E89FE7089560E070E08B
:101D100080E89FEF089560E070E080E89FEF08950D
:101D200060E070E080EC9FEF089560E070E080EC90
:101D30009FEF0895F5DF6093940670939506809366
:101D4000960690939706F1DF609388067093890654
:101D500080938A0690938B06CFDF609390067093F2
:101D600091068093920690939306CBDF60938C0646
:101D700070938D0680938E0690938F06C7DF6093D5
:101D800098067093990680939A0690939B06C3DFFA
:101D900060939C0670939D0680939E0690939F0689
:101DA00008950F931F938B019C0100271127207822
:101DB0003F770115110520483F4749F4AB01BC01AD
:101DC0006F77772781E0452B462B472B09F480E07E
:101DD0001F910F910895E5CF4F925F926F927F927E
:101DE0008F929F92AF92BF92CF92DF92EF92FF922B
:101DF0000F931F93F89440901F035090200360901E
:101E0000210370902203C0901303D0901403E0903C
:101E10001503F09016034130510509F0A4C09B0151
:101E2000AC01241935094609570929013A010091E5
:101E30001B0310911C0320911D0330911E034801C8
:101E40005901840C951CA61CB71C80169106A2068D
:101E5000B306A0F400911703109118032091190301
:101E600030911A030F5F1F4F2F4F3F4F00931703FF
:101E7000109318032093190330931A0380921B03C5
:101E800090921C03A0921D03B0921E0300911703B1
:101E9000109118032091190330911A0380922303A3
:101EA00090922403A0922503B09226030093270367
:101EB000109328032093290330932A0360931F0370
:101EC000709320038093210390932203A0E1B7E253
:101ED000A30192010E9457356C0D7D1D8E1D9F1D23
:101EE0006093130370931403809315039093160368
:101EF00000912501109126012091270130912801A0
:101F00000F3F1F4F2F4F3F4FF1F0009125011091D0
:101F1000260120912701309128010E3F1F4F2F4F9E
:101F20003F4F89F0C0902501D0902601E090270115
:101F3000F090280121E08C149D04AE04BF0408F445
:101F400020E020932F0378941F910F91FF90EF9042
:101F5000DF90CF90BF90AF909F908F907F906F90C9
:101F60005F904F9008954B015C0184189508A60876
:101F7000B708A3019201261B370B480B590B6415B8
:101F8000750586059705D0F082169306A406B5065A
:101F900040F420E030E0A90181149104A104B104CF
:101FA00091F4A0E1B7E20E945735A7019601261BE4
:101FB000370B480B590BCA01B901C5CF82169306DE
:101FC000A406B50670F7A0E1B7E2A50194010E944E
:101FD00057356C0D7D1D8E1D9F1DB5CFFDCECF934A
:101FE000DF9300D000D0CDB7DEB71C821B821A82EF
:101FF000198210922B0310922C0310922D03109231
:102000002E03BE016F5F7F4FCE0103960E94792C95
:1020100069817A818B819C810E94D725009761F428
:10202000BE016F5F7F4FCE0103960E94852C6981B0
:102030007A818B819C812DD50F900F900F900F90FE
:10204000DF91CF910895FF920F931F93CF93DF936A
:10205000082F60E070E0CB010E94BE31FF24F394B2
:102060000E94C224EC01892B89F010E0CE3F8FEF53
:10207000D80769F0002361F160E070E0CB010E94B5
:10208000BE3181E090E0892B59F322C011E024D5C4
:10209000EC01892B21F0CE3F8FEFD80759F71111B2
:1020A0001EC011E0229609F410E00E947324EC0196
:1020B000892B21F0CE3F8FEFD807E1F6111111C027
:1020C00011E0CE3F8FEFD80709F410E001110BC0EB
:1020D000CE01DF91CF911F910F91FF90089511E0F4
:1020E000E4CF11E0F3CF60E070E0CB010E94BE319D
:1020F0001F25812F90E0C7CFCF93DF9380912F03CF
:10210000882321F060E070E0CB014DD636D6D0E0D8
:10211000C0E0892B71F06AE070E080E090E00E94FE
:10212000BE3181E090DF29D62196C03D27E0D2075D
:1021300081F728D60E942B2610924703109246035F
:1021400010924003109241031092420310924303F5
:1021500010923C0310923D0310923E0310923F03F5
:10216000109238031092390310923A0310923B03F5
:1021700010923403109235031092360310923703F5
:1021800010923003109231031092320310923303F5
:102190004EEF5FEF6FEF7FEF4093250150932601E5
:1021A000609327017093280110922F03E3E2F3E07C
:1021B00028E0DF011D922A95E9F710921F03109283
:1021C0002003109221031092220310921B031092FD
:1021D0001C0310921D0310921E03109217031092FD
:1021E00018031092190310921A03109213031092FD
:1021F00014031092150310921603DF91CF910895E6
:1022000010925303109254031092550310925603E8
:102210001092520380915B0390915C039093510361
:102220008093500310924F0310924E0310924A0372
:1022300010924B0310924C0310924D0310925803CE
:102240001092570390E080E00895CF92DF92EF92D2
:10225000FF920F931F93CF938C01019709F055C004
:1022600020915B0330915C03809150039091510366
:1022700040915B0350915C03509351034093500392
:102280002817390781F010924F0310924E031092D5
:102290004A0310924B0310924C0310924D0310927C
:1022A00058031092570380915B0390915C03019750
:1022B00061F58091570390915803892B21F4809107
:1022C0002901811112C08091570390915803019701
:1022D000E1F480914A0390914B03A0914C03B0919B
:1022E0004D030197A105B10581F410924A031092A4
:1022F0004B0310924C0310924D031092290182E07F
:1023000090E0909358038093570380915B039091E2
:102310005C03019709F01CC18091710390917203D5
:102320008017910709F014C180916D0390916E039D
:10233000A0916F03B0917003009709F409C1209137
:102340006C0321110DC040916D0350916E0360919B
:102350006F0370917003452B462B472B09F4F8C08F
:1023600020915703309158032230310509F0F0C015
:1023700020914E032111ECC0FC01C080D180E2808D
:10238000F38080915203882309F4D3C080915E03C7
:1023900090915F03892B09F4FEC020915E03309178
:1023A0005F0381E02230310509F080E020915E0377
:1023B00030915F03C1E02130310549F020915E0387
:1023C00030915F03C1E02230310509F0C0E088237D
:1023D00009F456C0209168033091690340916A0363
:1023E00050916B03C701B6010E94C02F87FD14C036
:1023F000209168033091690340916A0350916B0307
:10240000609153037091540380915503909156034A
:102410000E94712E87FD22C02091680330916903CC
:1024200040916A0350916B03C701B6010E94C02F0F
:10243000181634F5209168033091690340916A03BE
:1024400050916B0360915303709154038091550335
:10245000909156030E94712E811112C080916003E9
:1024600090916103A0916203B0916303892B8A2B41
:102470008B2B19F481E080934F0381E080934E030E
:10248000CC2309F456C02091680330916903409130
:102490006A0350916B03C701B6010E94712E87FF3A
:1024A00014C0209168033091690340916A035091F0
:1024B0006B03609153037091540380915503909185
:1024C00056030E94C02F87FF22C0209168033091DD
:1024D000690340916A0350916B03C701B6010E94E2
:1024E000712E811126C020916803309169034091BB
:1024F0006A0350916B036091530370915403809170
:102500005503909156030E94C02F181694F48091A1
:10251000600390916103A0916203B0916303892BE2
:102520008A2B8B2B19F481E080934F0381E08093F9
:102530004E0381E090914E03911180E0809352030D
:10254000C0925303D0925403E0925503F092560385
:102550000130110509F067C180915703909158032C
:10256000892BD9F410925D0310924E0380912901BA
:10257000882379F082E090E090935803809357038A
:102580001092290120915B0330915C0381E0232BA1
:10259000E9F080E01BC081E009CF10922901809111
:1025A0005D03882349F010924F0310925803109254
:1025B000570310925D03EDCF80915B0390915C0314
:1025C000892BE1F080914E0310924E032091570326
:1025D000309158032230310509F45EC088F421158A
:1025E000310509F448C02130310509F4F3C01092D7
:1025F0004F0310924E0310925D0338C081E0E6CF86
:102600002330310509F4B1C02430310581F7409100
:102610004A0350914B0360914C0370914D03411557
:1026200051056105710561F0415051096109710958
:1026300040934A0350934B0360934C0370934D03B4
:1026400040914A0350914B0360914C0370914D03AC
:10265000452B462B472BD9F42091590330915A032F
:102660002130310509F046C010924F0310925803F3
:10267000109257030CC080912901882341F082E019
:1026800090E0909358038093570310922901109281
:10269000480380914F03CEC08823C9F38091600323
:1026A00090916103A0916203B0916303181619061B
:1026B0001A061B060CF07DC080915B0390915C03B1
:1026C000019709F076C08091600390916103A09119
:1026D0006203B091630380934A0390934B03A093EA
:1026E0004C03B0934D0383E090E0909358038093A4
:1026F0005703CDCF40916403509165036091660309
:1027000070916703452B462B472BA9F010924F037E
:102710008091640390916503A0916603B091670373
:1027200080934A0390934B03A0934C03B0934D03C3
:1027300081E090E0DACF882399F080912A0190918E
:102740002B01A0912C01B0912D0180934A0390930D
:102750004B03A0934C03B0934D0384E090E0C5CFAE
:1027600010924F0382E090E0C0CF80914A03909195
:102770004B03A0914C03B0914D030097A105B10507
:1027800059F00197A109B10980934A0390934B0333
:10279000A0934C03B0934D0380914A0390914B0357
:1027A000A0914C03B0914D03892B8A2B8B2B09F000
:1027B0006ECF80912A0190912B01A0912C01B091B4
:1027C0002D01892B8A2B8B2B09F44ECF81E080932E
:1027D0004F03B3CF40914A0350914B0360914C0398
:1027E00070914D03411551056105710561F041502E
:1027F00051096109710940934A0350934B03609357
:102800004C0370934D0340914A0350914B036091E8
:102810004C0370914D03452B462B472B09F037CFC6
:102820008111C7CF9FCF80914803882309F431CF0E
:1028300080914903CF911F910F91FF90EF90DF900E
:10284000CF900895109253031092540310925503A1
:10285000109256031092520310925803109257038D
:102860001092510310925003109272031092710350
:1028700010924F0310924E0310924A0310924B0392
:1028800010924C0310924D0310924903109248038A
:1028900010926D0310926E0310926F0310927003EA
:1028A00010926C03109268031092690310926A03ED
:1028B00010926B0388EE93E0A0E0B0E080932A01D1
:1028C00090932B01A0932C01B0932D0110926403DF
:1028D00010926503109266031092670310926003D2
:1028E00010926103109262031092630310925F03CF
:1028F00010925E0381E08093290110925D03109293
:102900005C0310925B0310925A031092590390E0FB
:1029100080E0089580915B0390915C03892B19F509
:1029200080912901882351F080915D03811106C0B7
:1029300081E08093490380934803089520915D03CB
:102940003091290181E090E0332311F090E080E0A4
:1029500030E082239323892B21F01092490381E0F8
:10296000EACF10924803089582E090E0FA01918343
:1029700080838FEF9FEF0895CF93DF93EA01009755
:1029800011F00E9451271982188290E080E0DF91B7
:10299000CF910895DB01009719F48FEF8C93089580
:1029A0002EEF2C930F968F30910508F033C0FC0169
:1029B000E452FB4E0C94513508150615041502150A
:1029C0000015FC14FE14FA14F814F614F314EF14A2
:1029D000EB14F1140A1580E311968C93089589E2A3
:1029E000FBCF82E2F9CF11961C92089583E2F4CFD7
:1029F00081E2F2CF81E1F0CF87E2EECF8AE2ECCF45
:102A000080E1EACF84E2E8CF88E2E6CF86E2E4CF55
:102A100081E3E2CF80E2E0CF80917F039091800359
:102A200008959093800380937F03089580917E039F
:102A3000089590917E03892B80937E030895982FAB
:102A4000909580917E03892380937E0308958091E1
:102A50007D03089580917B0390917C030895611517
:102A6000710559F0FB0130E020E070E060E02417D0
:102A7000350719F06115710511F0CB010895A0819A
:102A8000B181A817B90709F4BF012F5F3F4F3696F0
:102A9000EECF8091810381111CC062D268D29093E5
:102AA0007403809373030E945C1F0E946E1F9093B7
:102AB0007803809377030E94DD230E94E4239093A0
:102AC00076038093750381E08093810390E080E03A
:102AD000089584EF9FEF08958F929F92AF92BF92D7
:102AE000CF92DF92EF92FF920F931F93CF93DF93DA
:102AF000CDB7DEB72A970FB6F894DEBF0FBECDBFB5
:102B00001A86198618861F821E821D821C821B82CD
:102B10001A8219828091810307EF1FEF882309F43D
:102B20009CC08E010D5F1F4F9E012B5F3F4FAE017A
:102B3000495F5F4FBE01675F7F4F90E080E00E947A
:102B40005D258C01009721F00596029708F0DBC007
:102B500029853A852115310509F402C1ED80FE80F1
:102B60004B815C81B701640F751F8F819885861733
:102B7000970708F4F5C0E20EF31ED7019C91903C34
:102B800009F07FC04230510508F47BC011968C914A
:102B900040917F0350918003452B09F49CC0913FE5
:102BA00008F071C02CE1290F2D3008F48BC02DE204
:102BB000290F203108F489C0903C21F481508230E3
:102BC00008F483C088E3890F8B3008F481C09AEC45
:102BD000C92E94E1D92EE4EBF4E16D817E81AE0142
:102BE0004F5F5F4F89859A8509955C01C114D104B7
:102BF000A1F189809A808114910479F18B819C8163
:102C00008815990508F487C010E000E04B815C81CD
:102C100070E060E0C7010E94793501151105E9F403
:102C200049815A8169857A858D819E81680F791FD6
:102C3000C501F6010995E980FA800D811E812F8179
:102C4000388549855A856FEF7FEF81E090E00E94DB
:102C5000F9248C01892B09F056C0C8012A960FB6B9
:102C6000F894DEBF0FBECDBFDF91CF911F910F91C2
:102C7000FF90EF90DF90CF90BF90AF909F908F909C
:102C8000089580E085CF30E020E0220F331FF90166
:102C9000ED58FC4F0190F081E02D309709F497CF6B
:102CA000892F90E00995009709F491CFDC011296E5
:102CB000ED91FC9113971496CD90DC90309709F02C
:102CC0008CCF1FC021E030E0E0CF22E030E0DDCF4C
:102CD00023E030E0DACFD12CC12CECEBF4E19F3FC4
:102CE00009F07BCFE0917303F0917403309721F4E6
:102CF000C90104EF1FEF0CC08FEF90E0099500971A
:102D0000A9F604EF1FEF89859A85009709F4A5CFEE
:102D10000E945127A2CF0E9426268C0189859A8580
:102D20000E94512770E060E0C4010E94BF2598878F
:102D30008F830E94F6249E838D836F817885611531
:102D4000710559F0C8010E94B0289A87898706EF5B
:102D50001FEF892B09F058CF59CF08EF1FEF56CF3F
:102D600008EF1FEFD0CF20918103222319F020E03C
:102D70000C94731F87EF9FEF089580917F039091CC
:102D8000800308950E94E9230E944323F5D0E3E7DE
:102D9000F3E088E0DF011D928A95E9F71092810344
:102DA00090E080E008950C94A12121E040E050E003
:102DB000BA010C94731F86E090E0FA01918380833E
:102DC00090E080E0089547E050E06BE571E047CE89
:102DD000DF92EF92FF920F931F93CF93DF938A01BD
:102DE000EC01C60FD71FE0908503F0908603D980D1
:102DF0000E940E26D816190678F082E090E0F801BD
:102E0000918380838EEF9FEFDF91CF911F910F9180
:102E1000FF90EF90DF900895EF2841F482E090E07A
:102E2000F8019183808384EF9FEFEECF89818093B7
:102E3000840390E00196F8019183808390E080E024
:102E4000E3CFCF93DF93EA010E945222882321F03F
:102E50000E941B260E94532282E090E0998388837F
:102E60008BEF9FEFDF91CF910895CF93DF93EB012D
:102E700086E0FB0111928A95E9F78FEF8883D6DD12
:102E80008983E5DD8A83E6DD9D838C83DF91CF91A5
:102E90000895CF93DF93EA010E945522811109C062
:102EA00082E090E09983888385EF9FEFDF91CF9157
:102EB000089590E080E0B5DD81E090E0998388831B
:102EC00090E080E0F3CF0F931F93CF93DF93EA015D
:102ED0008C01060F171F0E94552281110BC082E042
:102EE00090E09983888385EF9FEFDF91CF911F91C9
:102EF0000F910895F8018181823038F082E090E0EE
:102F0000998388838EEF9FEFF0CF81E090E089DD99
:102F100088E090E09983888390E080E0E6CFCF93CB
:102F2000DF930097D1F4EB01FB01329686E0DF01DD
:102F30001D928A95E9F78FEF888385E089831A824D
:102F40000E940E268B830E940D269D838C8381E038
:102F50008E838F83DF91CF910895DF91CF911ACD2A
:102F600083EE96E19093830380938203089580918A
:102F70008203909183030895109283031092820339
:102F8000089580918503909186030895411105C0AD
:102F9000611571058105910561F06093850370935A
:102FA000860380938703909388034093890381E08D
:102FB000089580E00895FF920F931F93CF93DF93BE
:102FC0008A01EC01C60FD71FF9800E940E26F81661
:102FD000190668F082E090E0F801918380838EEF1B
:102FE0009FEFDF91CF911F910F91FF9008956C811A
:102FF0007D818E819F814B81C9DF811108C082E074
:1030000090E0F8019183808384EF9FEFEACF89817C
:103010008093840390E00196F8019183808390E08F
:1030200080E0DFCFCF93DF93EA01FC01E60FF71FCB
:1030300064817581868197814381A8DF811109C0F0
:1030400082E090E09983888384EF9FEFDF91CF91B6
:10305000089581E090E09983888390E080E0F6CF46
:10306000E5E8F3E04081518162817381480F511D91
:10307000611D711D40835183628373830895CF93D3
:10308000C09184034C2F50E06091850370918603BA
:1030900001960E9470358C2FE3DF10928403CF914C
:1030A0000895009799F480918503909186032FEFFE
:1030B000FB012083892B59F02091840330E02F5F9E
:1030C0003F4F2417350719F4CB01D9CF63CC0895AE
:1030D000009799F480918503909186032FEFFB016F
:1030E0002083892B59F02091840330E02F5F3F4FDC
:1030F0002417350719F4CB01C2CF4CCC089523E136
:10310000AC01249FC001259F900D1124E0918E03F6
:10311000F0918F03E80FF91F238134812250310988
:1031200081E02230310508F080E008950F931F936D
:10313000CF93DF930091900310919103D0E0C0E012
:1031400080E00C171D0749F491E0811190E0892F70
:10315000DF91CF911F910F9108958111F5CFCE018D
:10316000CEDF2196EECFA0918E03B0918F03109702
:1031700029F1209190033091910382179307F0F485
:1031800053E1589F9001599F300D1124A20FB31F96
:10319000ED91FC911197309789F012968C916817F8
:1031A00068F48BE0689FE00DF11D1124808191810E
:1031B000892B21F081E09281491708F080E0089581
:1031C0009C0143E1429FC001439F900D1124E09177
:1031D0008E03F0918F03E80FF91F8385823099F4F5
:1031E00081E090E06581768140912E0150912F0120
:1031F0006417750711F490E080E0892B21F081E0DD
:103200002230310508F080E00895EF92FF920F938D
:103210001F93CF93DF93EA01FC01E60FF71F0281B2
:103220001381E480F5804F2D6E2DC8019CDF811144
:103230000DC082E090E0998388838EEF9FEFDF914D
:10324000CF911F910F91FF90EF900895C80157DF24
:10325000882339F082E090E09983888388EF9FEF9C
:10326000EECF1093350100933401E0923601F092D5
:10327000370181E090E09983888390E080E0DFCFA0
:10328000CF92DF92EF92FF920F931F93CF93DF9332
:103290007A01EC01C60FD71FC0903401D0903501E0
:1032A0000091360110913701412F602FC6015BDF7D
:1032B000811110C082E090E0F701918380838AEF52
:1032C0009FEFDF91CF911F910F91FF90EF90DF90D3
:1032D000CF900895C60113DF882341F082E090E08B
:1032E000F7019183808388EF9FEFEBCF4C815D8165
:1032F0006E817F819A8189818F3F41F082E090E0E9
:10330000F701918380838EEF9FEFDBCFE3E1EC9DAC
:103310009001ED9D300D1124E0918E03F0918F030B
:10332000E20FF31F0190F081E02D2BE0029FE00DF2
:10333000F11D11240190F081E02D27E0129FE00D96
:10334000F11D1124808391838B8182834383548375
:10335000658376831F5F1093370181E090E0F7016A
:103360009183808390E080E0ACCFEF92FF920F9347
:103370001F93CF93DF937A018C01060F171FC09123
:103380008E03D0918F03209781F021E030E0F80187
:103390008281938140919003509191038417950706
:1033A00010F030E020E0232B71F482E090E0F70190
:1033B000918380838EEF9FEFDF91CF911F910F91CB
:1033C000FF90EF90089543E1489F9001499F300D91
:1033D0001124C20FD31F93DE882341F082E090E0D6
:1033E000F7019183808388EF9FEFE6CFF801248176
:1033F000358120383105C8F687818111D6CF4181CA
:10340000842F90E08F7E009741F082E090E0F701FA
:103410009183808386EF9FEFCFCF4F833E832D83B1
:10342000268128871986223010F421E0288721E0A0
:1034300030E0F70131832083BFCF88E090E0FA01CC
:103440009183808390E080E00895FB018FEF80837B
:1034500081E181838FEF9FEF9383828380E890E007
:1034600095838483168217820895FB018FEF8083F2
:1034700091E0918382839383848384E3858381E0D5
:1034800090E0978386830895BF92CF92DF92EF9268
:10349000FF920F931F93CF93DF93DA01FC01E60FA6
:1034A000F71F8181813081F082E090E08D939C93C1
:1034B0008FEF9FEFDF91CF911F910F91FF90EF90D2
:1034C000DF90CF90BF900895C281D381B480858171
:1034D00006811781E0908E03F0908F03E114F104D0
:1034E00039F482E090E08D939C938CEF9FEFE2CFD4
:1034F0002091900330919103C217D30738F082E0F6
:1035000090E08D939C938EEF9FEFD4CFC230D10586
:1035100038F082E090E08D939C9386EF9FEFCACFC6
:103520009B2D9D7FB1F78130A1F7B11005C001300F
:10353000110531F080E004C081E002301105D0F3C4
:10354000882339F36D01CE01DADD882341F082E072
:1035500090E0F6019183808388EF9FEFABCF83E10A
:103560008C9FF0018D9FF00D1124EE0DFF1DB38691
:1035700081E0848716870587108A178681E090E0AE
:10358000F6019183808390E080E094CF4CE050E09E
:1035900065E871E064CA8F929F92BF92CF92DF92EA
:1035A000EF92FF920F931F93CF93DF93EA01FC01F9
:1035B000E60FF71F828193810481B580E0918E032D
:1035C000F0918F03309791F482E090E099838883A3
:1035D0008CEF9FEFDF91CF911F910F91FF90EF90B4
:1035E000DF90CF90BF909F908F900895209190038F
:1035F000309191038217930738F082E090E099832D
:1036000088838EEF9FEFE6CF23E1289F6001299FFB
:10361000D00C1124EC0DFD1DE080F180E114F104CB
:1036200099F28281081748F78BE0089F80011124E6
:10363000E00EF11EF70180819181892B29F6BB20D4
:10364000E1F2F7E0BF9E40011124C4010E94062769
:10365000F70191838083E0918E03F0918F03EC0D4D
:10366000FD1D0190F081E02DE00FF11F808191811F
:10367000009739F482E090E0998388838DEF9FEF83
:10368000A9CFA40170E060E00E94793580918E039B
:1036900090918F03C80ED91EF60180819181080F89
:1036A000191FF801B28281E090E09983888390E04D
:1036B00080E090CFAF92BF92CF92DF92FF920F93B4
:1036C0001F93CF93DF93EA01FC01E60FF71F82817E
:1036D0009381F48000918E0310918F0301151105E1
:1036E00081F482E090E0998388838CEF9FEFDF91F3
:1036F000CF911F910F91FF90DF90CF90BF90AF902F
:10370000089520919003309191038217930738F028
:1037100082E090E0998388838EEF9FEFE8CF2FEFD0
:103720002F0D2C3FA8F723E1289F6001299FD00C83
:1037300011240C0D1D1DF80180819181892B89F6C2
:10374000FBE0FF9E50011124C5010E940627F801ED
:1037500091838083E0918E03F0918F03EC0DFD1D2A
:1037600080819181009739F482E090E09983888389
:103770008DEF9FEFBCCFA50170E060E00E9479352E
:10378000E0918E03F0918F03EC0DFD1DF28281E03C
:1037900090E09983888390E080E0A9CFCF92DF9278
:1037A000EF92FF920F931F93CF93DF93860F971F94
:1037B000FC010281138180918E0390918F03892BEC
:1037C00081F082E090E0FA01918380838CEF9FEF9B
:1037D000DF91CF911F910F91FF90EF90DF90CF90ED
:1037E0000895C801B0E0A0E00197A109B1098F3F99
:1037F0009F4FA105B10540F082E090E0FA0191836E
:1038000080838EEF9FEFE4CF7A0183E1809F600198
:10381000819FD00C1124C6010E940627EC0100975D
:1038200041F482E090E0F701918380838DEF9FEF78
:10383000CFCFA60170E060E00E947935D0938F036E
:10384000C0938E03109391030093900390E080E067
:103850002FEF3FEF41E061E070E08017910741F406
:1038600081E090E0F7019183808390E080E0B0CF29
:103870003A8B298B1B864C877E876D87188A1F861B
:1038800001966396EACFCF92DF92EF92FF920F9369
:103890001F93CF93DF93EC01D12CC12C10E000E0FB
:1038A000F12CE12C6A8170E006171707BCF0660F57
:1038B000771FAE014F5E5F4FC7010E947D270097C3
:1038C00021F02FEF3FEF3A8B298BDF91CF911F91A2
:1038D0000F91FF90EF90DF90CF900895E881F981EC
:1038E000EC0DFD1D438154818D859E85489F90017F
:1038F000499F300D589F300D1124C90101960115C3
:10390000110519F44F8144FD049661E070E00E94B6
:10391000BF25E816F90608F47C010F5F1F4F8BE006
:10392000C80ED11CBFCFF89420918C0330918D0329
:1039300081E02115310509F080E0232B09F078940E
:1039400008952F923F924F925F926F927F928F9243
:103950009F92AF92BF92CF92DF92EF92FF920F931E
:103960001F93CF93DF933C01660E771EF301828194
:1039700093814C01B12CA12CC0918E03D0918F0367
:10398000209769F021E030E06091900370919103FD
:103990008617970710F030E020E0232BD1F482E067
:1039A00090E0FA01918380838EEF9FEFDF91CF91BA
:1039B0001F910F91FF90EF90DF90CF90BF90AF904D
:1039C0009F908F907F906F905F904F903F902F903F
:1039D00008958092380190923901A0923A01B092F4
:1039E0003B0163E1689F9001699F300D1124C20F74
:1039F000D31FF3018181833040F082E090E0FA012F
:103A00009183808386EF9FEFD1CF2A012B813C8168
:103A1000232BF1F4288139819F8191FF2EC0232B24
:103A200009F46FC0209193039A81422F490F5527C3
:103A3000551FBA0141E050E06138710514F050E0C3
:103A400040E0452B09F45DC02A87920F90939303C1
:103A50008150823008F481C066DF882309F4D8C021
:103A6000F3018181813009F48DC008F47BC082307C
:103A700009F4C6C090E080E0ADC0232B09F441C03A
:103A8000209192039A81E22FE90FFF27FF1F41E067
:103A900050E0ED3FF10514F050E040E0452B89F196
:103AA0002A87920F90939203D3CFA081B181A20F66
:103AB000B31F11966C91060F111D0196295F3F4FA0
:103AC0008417950794F38D859E85089F1001099FA3
:103AD000300C189F300C1124C114D104D1F48F8103
:103AE00084FF17C00E940D26F5E02F0E311C21E047
:103AF0008215930508F420E0A701455F5F4F21116F
:103B00000EC082E090E0F2019183808387EF9FEF07
:103B10004DCF0E940D262FEF221A320AE8CF88815E
:103B20009981E80EF91EF70114830383FFEFCF1A82
:103B3000DF0A7A018A818C151D0409F00CF48CCF00
:103B4000E881F981EE0DFF1D428150E030E020E078
:103B500010E000E090E080E0B3CFF12CE12CD12C1C
:103B6000C12CE8CF81E090E09C838B83DFDA88234F
:103B700009F480CF81E090E00E94111580E40E945A
:103B80001F1578CF89899A89019661F083E090E0CA
:103B90009C838B8382E090E00E94111580E40E9458
:103BA000191568CF2D813E8180912E0190912F01B2
:103BB00028173907D1F46091320170913301AE01B9
:103BC0004F5E5F4F80913001909131010E946F28CC
:103BD0000097E1F2789422E030E0F2013183208313
:103BE000892B99F08DEF9FEFE1CE22E082169104B0
:103BF000A104B1045CF6CE0146DE188A1F86E8CF28
:103C000082E090E09C838B8335CF90E080E0CECE45
:103C100082E090E0F2019183808385EF9FEFC6CE32
:103C20008F929F92AF92BF92CF92DF92EF92FF92CC
:103C30000F931F93CF93DF93EA018C01060F171F99
:103C4000F8018181833098F082E090E09983888345
:103C500086EF9FEFDF91CF911F910F91FF90EF9033
:103C6000DF90CF90BF90AF909F908F9008958091FC
:103C70008E0390918F03892B61F081E090E0209179
:103C8000900330919103232B11F490E080E0892B75
:103C900039F482E090E0998388838EEF9FEFDACF4A
:103CA00042DE882309F4DEC0F8018181813009F405
:103CB00094C0E8F0823099F4209190033091910300
:103CC000E0918E03F0918F0390E080E041E050E0BE
:103CD0002817390709F0BCC029DA811117C0789478
:103CE00081E090E09983888390E080E0B3CF2091D9
:103CF000900330919103E0918E03F0918F0390E057
:103D000080E041E050E02817390741F481E090E07D
:103D10000E94111580E40E941F15E1CF6381748118
:103D2000672B11F05483438301967396ECCFE09197
:103D30008E03F0918F03E00FF11F23813481223035
:103D40003105D9F4218932892F3F3F4FB1F44581A4
:103D5000568120912E0130912F014217530761F5B2
:103D6000AF014F5E5F4F60913201709133018091DE
:103D70003001909131010E946F284FEFC41AD40A8C
:103D8000E40AF40A0D5E1F4F409190035091910395
:103D900070E060E0C416D506E606F70634F5009735
:103DA00031F27894892B09F49BCF82E090E09983DB
:103DB00088838DEF9FEF4ECF22E0C216D104E1043D
:103DC000F104DCF6CF015FDDE0918E03F0918F030B
:103DD000E00FF11F108A1786D0CF10E000E090E0CE
:103DE00080E0C12CD12C7601CFCF0097D1F610E026
:103DF00000E0812C912C540183E0E82EF12C1AC0B4
:103E0000E0918E03F0918F03E00FF11F8381948185
:103E1000029749F4F482E38282E090E00E94111557
:103E200080E40E9419158FEF881A980AA80AB80A28
:103E30000D5E1F4F8091900390919103B0E0A0E040
:103E400088169906AA06BB06DCF290E080E0A9CFAE
:103E5000638174816230710511F454834383019648
:103E6000739636CF82E090E09983888385EF9FEF49
:103E7000F1CE0097B9F48FEFFB01808320913801D8
:103E80003091390143E1429FC001439F900D1124BD
:103E9000E0918E03F0918F03E80FF91F8285FB01FB
:103EA000818308950C94CA1488E090E0FA0191830C
:103EB000808390E080E0089510928D0310928C032F
:103EC000EEE8F3E086E0DF011D928A95E9F786ECE3
:103ED0009AE190938B0380938A03089580918A03DB
:103EE00090918B0308952F923F924F925F926F9221
:103EF0007F928F929F92AF92BF92CF92DF92EF927A
:103F0000FF920F931F93CF93DF93CDB7DEB76097E8
:103F10000FB6F894DEBF0FBECDBFF894E0918C03CE
:103F2000F0918D033196F0938D03E0938C03789498
:103F3000A0918E03B0918F03BA83A983109709F4DF
:103F4000FAC1E0919003F0919103EF2B09F4F3C1D2
:103F500028874B875C876D877E879A878987B88B90
:103F6000AF87312C212CF12C512C412C80919003C6
:103F7000909191032816390610F4FF2029F1F89446
:103F800080918C0390918D03019790938D03809382
:103F90008C037894C20160960FB6F894DEBF0FBE12
:103FA000CDBFDF91CF911F910F91FF90EF90DF90E8
:103FB000CF90BF90AF909F908F907F906F905F90C9
:103FC0004F903F902F900895B10190E080E086D40B
:103FD000682EEF85F889878181FD3DC083819481BA
:103FE0000397C9F5258136813C832B8389859A8582
:103FF0002817390781F5C101E3D8782E8823A9F164
:10400000AF85B8891F968D919C915097019621E0BC
:104010001D964D915C918417950709F020E02F8340
:10402000B12CA12CEF85F88982818A151B0419F027
:1040300014F0FF20E9F0F885FF2309F46CC1AF8587
:10404000B88950961C921E921F97662021F0B101EC
:1040500090E080E045D4FFEF2F1A3F0A2F85388982
:104060002D5E3F4F388B2F8781CFB1E0BF83D8CFF4
:10407000BDD49E838D83E885EE23E9F0772009F493
:104080003CC1AF85B8891F968D919C91892B79F0A1
:10409000BBE0BA9DC001BB9D900D1124AF85B889CE
:1040A000ED91FC91E80FF91F85819681FAD6BFEF5B
:1040B000AB1ABB0AB7CF81E0772039F0EF85F889DA
:1040C00027853089232B09F080E0F82EE12CA114FC
:1040D000B10439F4AF85B8891796EC90E4FAEE2470
:1040E000E0F8BBE0BA9D6001BB9DD00C1124882391
:1040F00009F424C1AF85B889ED91FC911197EC0DBD
:10410000FD1D438154811D962D913C91429FC0011C
:10411000439F900D529F900D1124E1105DC00196B8
:104120009087878361E070E08781908528D5EF854F
:10413000F88921893289008111810C0D1D1D2F3FC5
:10414000320709F44BC0BC01C9010E94B028D80154
:1041500016969C938E931597AF85B889ED91FC9137
:104160001197EC0DFD1D058116810115110509F44E
:10417000CDC0ED81FE810E0F1F1F1A968C918A0D06
:10418000D8018C93E1102FC00F5F1F4FAF85B88906
:10419000ED91FC91EC0DFD1D12870187AF85B8896B
:1041A000ED91FC91EC0DFD1D85819681892B09F423
:1041B000A4C080912E0190912F012B813C81281762
:1041C000390709F465C0772011F001851285912C1B
:1041D000812C1A8219824AC00596A2CF17D6F801FF
:1041E00096838583B9CF8B859C85AD85BE85F80187
:1041F00081839283A383B4830B5F1F4FC7CFE0807B
:10420000F180E80CF91CD70113966D917C911497FD
:104210008C918F3F09F473C0E1E0F0E002C0EE0F33
:10422000FF1F8A95E2F7CF01092E000CAA0BBB0BEA
:10423000FB01408151816281738184239523A623F0
:10424000B72321E0892B8A2B8B2B09F420E0D8019E
:104250002C93D70111968C91080F111DE981FA81D9
:104260003196FA83E983F7E08F0E911CAF85B88908
:10427000ED91FC91EC0DFD1D828129813A8182171F
:10428000130611F00CF0BBCF772011F012870187D5
:104290003F81332391F1AF85B889ED91FC91EC0D0D
:1042A000FD1D61E070E08781908569D4AF85B88994
:1042B000ED91FC91EC0DFD1DE780F0844581568168
:1042C000E1E0F0E0662011F0F0E0E0E00D811E8119
:1042D0009C01B101882799278E1B9F0B8AD32C0143
:1042E000892B59F0EF85F88980819181C80ED91EFC
:1042F000D60115968D919C91D4D5F12CD8CEF7018D
:10430000418150E0C8010E947035A3CF86EF482E4E
:1043100055245A94CCCEEF85F889878590890196EB
:10432000908B8787258536858217930709F08DCE78
:10433000108A17868ACE512C412C21CE10E000E045
:104340002DCF2F923F924F925F926F927F928F92DA
:104350009F92AF92BF92CF92DF92EF92FF920F9314
:104360001F93CF93DF9380918E0390918F0310E082
:1043700000E0892BA9F0D7DA0AEF1FEF882381F03C
:104380002090900330909103C0918E03D0918F03C1
:10439000D12CC12C10E000E02C143D04A9F4789439
:1043A000C801DF91CF911F910F91FF90EF90DF90A7
:1043B000CF90BF90AF909F908F907F906F905F90C5
:1043C0004F903F902F900895C6010E94E0188823D7
:1043D00009F18B819C810397E9F48F859889892B5A
:1043E000C9F0B60190E080E079D221E030E0882386
:1043F00011F030E020E044245524421A530AB12C35
:10440000A12C912C812C8A818815190409F038F48B
:10441000188A1F864FEFC41AD40A6396BDCFE8816D
:10442000F981EA0DFB1D85819681892BA1F161E05F
:1044300070E087819085A3D33C01D8D28C01E881BC
:10444000F981EA0DFB1D8185928525813681200F3A
:10445000311FAC01421B530B9A0147815085421B0F
:10446000530B70E060E00E947935E881F981EA0D34
:10447000FB1DE780F084458156819301B601C2019E
:10448000B8D28C01892B39F0E881F981EA0DFB1D46
:104490008581968106D55FEF851A950A8BE0A80E77
:1044A000B11CB1CF40CA789408952F923F924F9299
:1044B0005F926F927F929F92AF92BF92CF92DF9264
:1044C000EF92FF920F931F93CF93DF9300D000D012
:1044D00000D0CDB7DEB700918E0310918F039924E1
:1044E00093940115110509F43EC0A0909003B0907B
:1044F000910319DA982E8823B1F110928F0310924C
:104500008E031092910310929003109292031092D6
:1045100093038FEF9FEFDC01809338019093390173
:10452000A0933A01B0933B01789479D31E830D8315
:10453000C12CD12C7601C501B0E0A0E089839A831B
:10454000AB83BC8322242A94322C89819A81AB814B
:10455000BC81C816D906EA06FB06F4F0C801A1D44E
:1045600080E40E941F15892D26960FB6F894DEBFB1
:104570000FBECDBFDF91CF911F910F91FF90EF90B4
:10458000DF90CF90BF90AF909F907F906F905F90A3
:104590004F903F902F900895AD81BE8115962D913B
:1045A0003C91169780912E0190912F012817390781
:1045B000D1F451968D919C91C1D5ED81FE81808180
:1045C0009181B12CA12C412C512C3201892B81F5E8
:1045D000BFEFCB1ADB0AEB0AFB0AED81FE81739673
:1045E000FE83ED83B2CFB2E0CB16D104E104F10437
:1045F00024F7ED81FE81818992898F3F980709F028
:1046000018D5AD81BE8152963C922E925197D5CF4E
:104610008A0D9B1DDC018D919C91009709F041D47E
:10462000BFEF4B1A5B0A6B0A7B0AEBE0AE0EB11CC4
:10463000AD81BE818D919C91119712964C9150E065
:1046400070E060E044165506660677060CF329D440
:10465000BFCFCF93DF93EA0128DF811109C082E049
:1046600090E09983888385EF9FEFDF91CF91089544
:1046700081E090E00E94111581E090E099838883A9
:1046800090E080E0F2CF11DF10928B0310928A034A
:10469000089542E050E06DEC71E00C942F15FF920C
:1046A0000F931F93CF93DF938A01EC01C60FD71F9F
:1046B000F980B4D20897F816190671F068F082E014
:1046C00090E0F801918380838EEF9FEFDF91CF918F
:1046D0001F910F91FF9008956C817D818E819F8144
:1046E0004B810E94C617811108C082E090E0F8015A
:1046F0009183808384EF9FEFE9CFF9800E94C117F7
:104700004F2D50E0BE01685F7F4F0E947035898158
:104710000E94301881E090E0F8019183808390E05E
:1047200080E0D4CFDF92EF92FF920F931F93CF934D
:10473000DF938A01EC01C60FD71F0E94C1177C01CD
:10474000D9806CD2DD2059F0029721E030E0D816F4
:10475000190619F010F030E020E0232B79F482E004
:1047600090E0F801918380838EEF9FEFDF91CF91EE
:104770001F910F91FF90EF90DF900895EF2841F483
:1047800082E090E0F8019183808384EF9FEFEECF89
:10479000F9800E94C1174F2D50E0BE016E5F7F4F20
:1047A0000E94703589810E94301881E090E0F80104
:1047B0009183808390E080E0D9CF89E493E2909365
:1047C00095038093940308958091940390919503A9
:1047D00008950895FC0111821082938382830895C5
:1047E000DB011D921C92DC011296ED91FC91139756
:1047F0007183608313967C936E9312970895FC01E6
:1048000080819181DB018D939C93A081B181109770
:1048100041F08D919C9191838083892B11F4F383D6
:10482000E2830895FC0180819181DB018D939C934B
:10483000892B11F473836283718360830895FC0173
:1048400011821082938382830895CF93DF9300D0E7
:10485000CDB7DEB71A821982F894BE016F5F7F4F21
:104860008BE993E0CCDF89819A81009709F019D315
:1048700089819A81892B89F7BE016F5F7F4F8FE90C
:1048800093E0BDDF89819A81009709F00AD389817D
:104890009A81892B89F778940F900F90DF91CF91AF
:1048A0000895CF93DF9300D0CDB7DEB71A82198277
:1048B000F894BE016F5F7F4F87E993E0A0DF8981A5
:1048C0009A81009709F0EDD289819A81892B89F725
:1048D00078940F900F90DF91CF91089581E0089523
:1048E00090E080E00895EF92FF920F931F93CF9393
:1048F000DF9300D0CDB7DEB71A821982809196037C
:1049000007EF1FEF8823A1F1F894BE016F5F7F4F7F
:104910008FE993E074DF789489819A81EE24E3949F
:10492000F12C892B51F4F894BE016F5F7F4F8BE916
:1049300093E065DF7894F12CE12C89819A810EEF68
:104940001FEF0097A9F0FC014281538164E070E001
:1049500004D68C01892B61F0F89469817A81C701B2
:10496000880F991F880F991F85569C4F5BDF78949D
:10497000C8010F900F90DF91CF911F910F91FF9081
:10498000EF9008950F931F93CF93DF9300D000D043
:10499000CDB7DEB71C821B821A82198280919603E2
:1049A00007EF1FEF8823C1F0AE014D5F5F4F64E05A
:1049B00070E0CE01019644D68C01892B69F4E9811F
:1049C000FA818B819C8193838283F89469817A81B7
:1049D00087E993E005DF7894C8010F900F900F905E
:1049E0000F90DF91CF911F910F91089549D70496B1
:1049F00008958F929F92AF92BF92CF92DF92EF92E3
:104A0000FF920F931F93CF93DF9300D0CDB7DEB704
:104A10001A821982BC016F5F7F4F6330710598F075
:104A2000AA24AA94BA2CC5010F900F90DF91CF91C0
:104A30001F910F91FF90EF90DF90CF90BF90AF90BC
:104A40009F908F9008954115510551F348015901E8
:104A50008A016C01CBDF8815990511F7E114F10487
:104A6000F9F28E0D9F1DA816B906D0F2809196031B
:104A70008823F1F0F894B501645071099701AE01F3
:104A80004F5F5F4FC801049670D65C01892B71F4AB
:104A900089819A81F80193838283C601880F991FC7
:104AA000880F991FB80185569C4F9ADE7894BBCF2A
:104AB00087EFA82EBB24BA94B6CFAF92BF92CF9205
:104AC000DF92EF92FF920F931F93CF93DF9300D06B
:104AD000CDB7DEB71A821982892B09F047C061155C
:104AE000710509F443C04115510509F43FC0211572
:104AF000310509F43BC001151105C1F18091960300
:104B00008823B9F179016A015B01F894BE016F5FF6
:104B10007F4F87E993E073DE789489819A810097CB
:104B200059F1DC0112966D917C91A801049636D65C
:104B30008C01E981FA81D501ED93FC938281938107
:104B40000496F6019183808351DFD7018D939C9366
:104B5000C8010F900F90DF91CF911F910F91FF909F
:104B6000EF90DF90CF90BF90AF9008950FEF1FEFC1
:104B7000EFCF07EF1FEFECCF0EEF1FEFE9CFCF9393
:104B8000DF93EC01672B71F484D68C179D0760F0DE
:104B900077D62496C80FD91F76D68C0F9D1FDF912C
:104BA000CF91089573D6F1CF90E080E0F8CF0F93C6
:104BB0001F93CF93DF932091960321112BC08B017C
:104BC000EC018BE993E006DE8FE993E003DE87E9F1
:104BD00093E000DE97D00097C1F45BD670E060E010
:104BE000CEDF4CE351E062E070E087D1009769F4DA
:104BF00080913C0190913D015ED6B801CE0193D4E5
:104C0000009719F421E020939603DF91CF911F9133
:104C10000F91089584EF9FEFF8CF38C63AC6CF932F
:104C2000DF933AD6EC01892B11F40FDE3ADECE0188
:104C3000DF91CF910895CF93DF932ED6EC01892B8E
:104C400009F403DECE01DF91CF91089580913C01FC
:104C500090913D010895CF93DF9380919603D0E02A
:104C6000C0E08823D1F02CD6EC01892BB1F4EDDD26
:104C700018DE80913C0190913D01DBD1C1D2EC0165
:104C8000892B59F48BE993E0DADD8FE993E0D7DDE6
:104C900087E993E0D4DD10929603CE01DF91CF91A6
:104CA0000895EF92FF920F931F93CF93DF93EC0140
:104CB0007A018B010F5F1F4F0E9DA0010F9D500DBC
:104CC0001E9D500D112470E060E00E94793590E047
:104CD00080E0F0E0E0E02FEFE816F90639F4DF912C
:104CE000CF911F910F91FF90EF9008951A82198232
:104CF0002883309711F0D283C1830196FE01C00F43
:104D0000D11FEACFAF92BF92CF92DF92EF92FF9284
:104D10000F931F93CF93DF938FEB94E07C012CEFE5
:104D2000E22289EDC82E81E0D82E9FEDA92E91E0D8
:104D3000B92EC6E3D5E08E01D6014D915D916D018E
:104D4000F501619171915F01D8011196FC92EE928B
:104D500015965C934E93149713965C934E9312970B
:104D600017967C936E9316979B012F5F3F4F249F5E
:104D7000C001259F900D349F900D112419969C938E
:104D80008E931897E114F10411F0C7018ADFF8013E
:104D900080859185E80EF91E065F1F4FFFEDCF1647
:104DA000F1E0DF0649F6E5EAF3E087E191E0DF01B3
:104DB0009C011D9221503040E1F71092A403109203
:104DC000A30384E595E01F8E1E8E1BA21AA219A2D2
:104DD00018A21DA21CA21FA21EA22A968C179D0714
:104DE00091F710923305109232051092350510920A
:104DF000340590E080E0DF91CF911F910F91FF90FB
:104E0000EF90DF90CF90BF90AF900895009761F141
:104E1000F8948132910580F480913805909139059C
:104E2000892B29F58091420590914305892B31F01A
:104E300021E081E090E00BC0C197A8F480914C057F
:104E400090914D05892B79F022E082E090E0EAE034
:104E5000E89FD001E99FB00D1124AA5CBA4F8D9153
:104E60009C91009741F4789490E080E0089520E0D0
:104E700090E080E0ECCFE29FF0011124EA5CFA4F71
:104E8000DC0111964D915C915183408342815381A5
:104E90004150510953834283FC012193CF017894FF
:104EA0000895009749F1DC018E91863041F4E0913C
:104EB0003405F09135053097F9F0CD01099486302D
:104EC000D8F4282F30E0F8948FEF8C938AE0829FFB
:104ED000F001839FF00D1124EA5CFA4F80819181EB
:104EE00012969C938E931197B183A08382819381B4
:104EF00001969383828378940895CF92DF92EF9204
:104F0000FF920F931F93CF93DF939C0188EA93E066
:104F10008C7F4115510509F489C02115310509F42B
:104F200085C06115710509F481C08A01AB01B90121
:104F30006D5F7F4F6C7F9B012F5F3F4F249F700100
:104F4000259FF00C349FF00C1124F894E6E3F5E073
:104F500023E030E0E901A6A1B7A1C68CD78CCD280B
:104F600009F058C0109709F03EC0C090A303D0903C
:104F7000A40324E131E02C193D092E153F0530F43E
:104F80007894CFEFDFEF86EF9FEF21C02AE02C9FD0
:104F9000F0012D9FF00D1124EA5CFA4F918380837C
:104FA000558344835383428377836683F186E08607
:104FB000009709F076DEEC0CFD1CF092A403E09261
:104FC000A3037894CF3FDC07F1F290E080E0F80192
:104FD000D183C083DF91CF911F910F91FF90EF900C
:104FE000DF90CF900895AE15BF05A0F02AE02C9F6A
:104FF000F0012D9FF00D1124EA5CFA4F918380831C
:105000005583448353834283778366830097C9F231
:1050100048DED7CF8A0F9B1F2F5F3F4F3A9626302F
:10502000310509F097CFCFEFDFEFCBCF8FEF9FEFB9
:10503000D1CF9C010397039708F04EC0F89485E008
:105040009AE0482F50E0241735079CF191E08AE060
:10505000829FF001839FF00D1124EA5CFA4F1182C8
:10506000108215821482138212821782168299236B
:10507000E1F08091A3039091A403E6E3F5E022A977
:1050800033A9232B49F422AD33AD2115310521F08D
:10509000821B930B13AE12AE3A9725E0E831F2076C
:1050A00071F79093A4038093A303789490E080E039
:1050B0000895949FF001959FF00D1124EA5CFA4F3A
:1050C00040815181452B31F440855185452B11F4A8
:1050D0008150B7CF90E0BBCF8FEF9FEF0895411580
:1050E000510549F1009739F16115710521F1F894E5
:1050F0002091320530913305232BB9F420913405EA
:1051000030913505232B89F4909333058093320534
:105110007093350560933405789426E030E090E094
:1051200080E0FA0131832083089578942FEF3FEFD8
:1051300086EF9FEFF6CF8FEF9FEF0895069769F404
:10514000F8941092330510923205109235051092A2
:105150003405789490E080E008958FEF9FEF0895F4
:105160006115710519F4F0E0E0E011C08630910599
:1051700081F4E0913205F09133053097A1F3CB0132
:1051800001960995009779F3FC0186E08193CF01A0
:1051900008959C01235031092330310520F72AE07E
:1051A000289FD001299FB00D1124AA5CBA4F2D91E0
:1051B0003C911197232BB9F216962D913C9117979C
:1051C0002617370780F2F89412962D913C91139789
:1051D0002115310529F0ED91FC911197309711F4CB
:1051E0007894C1CF4181528111965C934E932150A6
:1051F000310913963C932E93129781937894C7CFDD
:10520000ECEBF4E086E7DF011D928A95E9F7E5EA29
:10521000F3E087E191E0DF019C011D9221503040D5
:10522000E1F71092A4031092A303E6E3F5E08CE308
:10523000DF011D928A95E9F7E2E3F5E084E0DF0102
:105240001D928A95E9F790E080E00895CF93DF936F
:10525000C0913E01D0913F01CF3FDC0759F4C1D34B
:1052600090933F0180933E0197FF09C0D0933F0187
:10527000C0933E0184EF9FEFDF91CF91089590E0BE
:1052800080E0FACF8230910528F48093720590E097
:1052900080E008958FEF9FEF08954F925F926F9295
:1052A0007F92AF92BF92CF92DF92EF92FF920F93D5
:1052B0001F93CF93DF9300D0CDB7DEB71A82198248
:1052C000009709F479C06115710509F475C0209142
:1052D0003E0130913F0107EF1FEF2F3F3F4F09F491
:1052E00045C06B015C01412C512C3201F12CE12CA9
:1052F00010E000E09E012F5F3F4FA6014E195F09AD
:10530000B5016E0D7F1D80913E0190913F01C7D385
:10531000892B09F04BC089819A81009741F4E114EF
:10532000F10429F420917205222309F442C0E80E09
:10533000F91EEC14FD04D0F480E8481684E8580601
:105340008EE16806710420F560E070E0CB010E94F8
:10535000BE312AE0420E511C611C711C0A3F4FEF06
:10536000140721F0043F8FEF1807A1F4C8010F9034
:105370000F90DF91CF911F910F91FF90EF90DF90F1
:10538000CF90BF90AF907F906F905F904F900895B7
:1053900001EF1FEF81E090E0013F2FEF120711F0C6
:1053A00090E080E0892B09F4A5CFE0CF04EF1FEF58
:1053B000DDCF0AEF1FEFDACF0FEF1FEFD7CF4F92FE
:1053C0005F926F927F92AF92BF92CF92DF92EF92F5
:1053D000FF920F931F93CF93DF9300D0CDB7DEB72B
:1053E0001A821982009709F478C06115710509F4D1
:1053F00074C020913E0130913F0107EF1FEF2F3F16
:105400003F4F09F444C06B015C01412C512C320127
:10541000F12CE12C10E000E09E012F5F3F4FA60130
:105420004E195F09B5016E0D7F1D80913E0190916F
:105430003F01EBD2892B09F04AC089819A810097FC
:1054400041F4E114F10429F420917205222309F4B6
:1054500041C0E80EF91EEC14FD04C8F480E84816BB
:1054600086E9580688E96806710418F560E070E07E
:10547000CB0184D72AE0420E511C611C711C0E3FE7
:105480004FEF140721F0043F8FEF1807A1F4C80174
:105490000F900F90DF91CF911F910F91FF90EF90A0
:1054A000DF90CF90BF90AF907F906F905F904F90C4
:1054B000089502EF1FEF81E090E0023F2FEF120707
:1054C00011F090E080E0892B09F4A6CFE0CF04EF43
:1054D0001FEFDDCF0EEF1FEFDACF0FEF1FEFD7CFAC
:1054E00080913E0190913F018F3F980749F071D222
:1054F000892B49F48FEF9FEF90933F0180933E01FA
:1055000090E080E0089584EF9FEF0895FC01680F1C
:10551000791F90E080E0E617F70709F408952191DC
:10552000820F911DF8CF20917305211113C08EDEDB
:10553000009791F4109279051092780510927705F2
:1055400010927605109275051092740521E0209353
:105550007305089584EF9FEF0895AF92BF92CF92A5
:10556000DF92EF92FF920F931F93CF93DF930097F9
:1055700009F460C04630510508F45CC02091730501
:10558000C7EFDFEF222309F449C08C01060F171F74
:10559000F801C080D180C114D10409F44EC0960135
:1055A0002A5F3F4F4217530708F447C07C018091A0
:1055B00078059091790593838283B6016C5F7F4F64
:1055C0005801A60EB71EC801A1DFF50191838083A3
:1055D00064E070E0C80161DEEC01892BF9F481E040
:1055E00090E050DEB601C801049657DEEC01892B2D
:1055F00091F462E070E0C50150DEEC01892B59F4B2
:10560000C7014FDC809178059091790501969093C0
:1056100079058093780590E080E034DECE01DF915B
:10562000CF911F910F91FF90EF90DF90CF90BF909F
:10563000AF900895CFEFDFEFF1CFC9EFDFEFEECFFF
:105640006F927F928F929F92AF92BF92CF92DF9292
:10565000EF92FF920F931F93CF93DF9300D000D070
:10566000CDB7DEB7009709F47AC04115510509F4AA
:1056700076C02091730507EF1FEF222309F44DC078
:105680003A017B015C0164E070E0CE01019697DE97
:105690008C01892B09F041C009811A81011511057E
:1056A00009F45AC0480186E0880E911CB701680DC4
:1056B000791D809140019091410152DD6C0100976C
:1056C00009F450C0A70170E060E00E94793589813B
:1056D0009A81AB81BC81EC0CFD1CF7018193919305
:1056E000A193B1937F0181E090E0CCDDB801C701C7
:1056F00066DE892B31F562E070E0C701800F911FF3
:105700005EDE8C01892BE9F490E080E0BBDDF501E1
:10571000D182C082F30191828082C8010F900F90E4
:105720000F900F90DF91CF911F910F91FF90EF900D
:10573000DF90CF90BF90AF909F908F907F906F90B1
:10574000089590E080E09EDDF50111821082F30162
:1057500011821082C601A5DB09EF1FEFDECF0FEF2C
:105760001FEFDBCF06EF1FEFD8CF0097A1F0411559
:10577000510589F02115310571F0F90136966E1742
:105780007F0748F0DC012D933C93DA01ED93FC9305
:1057900090E080E008958FEF9FEF0895AF92BF9261
:1057A000CF92DF92EF92FF920F931F93CF93DF93ED
:1057B000009709F45FC04115510509F45BC06530DD
:1057C000710508F457C020917305C7EFDFEF22235E
:1057D00091F1DC01CD90DC9011971296ED91FC9146
:1057E00096012A5F3F4FC9EFDFEF2617370719F5FC
:1057F000C0917405D0917505209749F521E030E0FE
:1058000030937505209374057A018C01F093770528
:10581000E09376055601B4E0AB0EB11CB50176DE1F
:105820000A0D1B1DF801208131818217930729F58C
:10583000D701CD92DC92CE01DF91CF911F910F91D4
:10584000FF90EF90DF90CF90BF90AF9008952091A0
:105850007605309177052F5F3F4FCCEFDFEFE217F2
:10586000F30790F2CBEFDFEF2E173F0768F2D0E09F
:10587000C0E0CACFCFEFDFEFDECFC3EFDFEFDBCF8C
:1058800084E090E0089582E090E008958CEF9FEF2F
:10589000089580E290E008951092790510927805BD
:1058A0001092770510927605109275051092740586
:1058B00090E080E008959093410180934001089525
:1058C00080917305882391F00BDE009789F4109284
:1058D000790510927805109277051092760510924E
:1058E00075051092740510927305089590E080E09C
:1058F0000895009749F06115710531F0FC0111829E
:105900001082FB01118210820895F3CF40E855E226
:1059100060E070E090E080E000C0892B21F426E098
:1059200087E895E07BC708951F920F920FB60F92FC
:1059300011242F933F934F935F936F937F938F9394
:105940009F93AF93BF93EF93FF938FE89DEF909357
:10595000850080938400B6D0FF91EF91BF91AF9105
:105960009F918F917F916F915F914F913F912F9177
:105970000F900FBE0F901F9018958FE89DEF90939A
:10598000850080938400AFE6B0E08C918E7F8C938D
:10599000E0E8F0E080818C7F8083E1E8F0E08081C6
:1059A000877E808380818460808380818C7F8083F8
:1059B0008C9181608C930895EFE6F0E08081908176
:1059C0009E7F90838170089581E0089510927A05FA
:1059D000089568EE73E080E090E0D0D490E080E03D
:1059E000089526E040E052EC61E070E087E895E041
:1059F00015D787E895E048D6892B21F087E895E010
:105A00005DD6F7CF90E080E00895CF92DF92EF92DD
:105A1000FF920F931F93CF93DF936B017A01E901FC
:105A20001982188287E895E02FD6892B69F18601C3
:105A3000CC24C39482E0D82E80917A05811110C0C5
:105A400087E895E03BD60297B9F7C0927A05F8014E
:105A5000D1928F0188819981019699838883ECCFB7
:105A6000888199818E159F0578F487E895E026D680
:105A70008F3F9807A9F3F80181938F01888199815D
:105A8000019699838883ECCF90E080E0DF91CF91FD
:105A90001F910F91FF90EF90DF90CF9008950F939B
:105AA0001F93CF93DF93EA01890187E895E09AD7A6
:105AB000F801D183C08390E080E0DF91CF911F9106
:105AC0000F91089580917B0591E0980F90937B054D
:105AD000882349F021E030E030937D0520937C0558
