:100000005CC0000082C0000080C000007EC0000014
:100010007CC000007AC0000078C0000076C00000FC
:1000200074C0000072C0000070C000006EC000000C
:100030006CC000000C94F82268C0000066C000008C
:100040000C94112762C000000C94AD290C94DF2998
:100050005CC000005AC0000058C0000056C000003C
:1000600054C0000052C0000000000008000201005F
:100070000003040700000000000000000102040863
:100080001020408001020408102001020408102002
:10009000040404040404040402020202020203032E
:1000A0000303030300000000250028002B000000CC
:1000B0000000240027002A00042A11241FBECFEFCD
:1000C000D8E0DEBFCDBF11E0A0E0B1E0E4E6F5E5A9
:1000D00002C005900D92A43CB107D9F724E0A4EC2E
:1000E000B1E001C01D92AD3CB207E1F710E0CDE5F3
:1000F000D0E004C02197FE010E94812ACC35D107AF
:10010000C9F70E94F5230C94B02A7ACF8EBD000067
:100110000DB407FEFDCF8EB50895CF93C82F61E0D3
:100120000E941A2861E08C2FCF910C9456280C94D1
:10013000DF267F928F929F92AF92BF92CF92DF92F3
:10014000EF92FF920F931F93CF93DF93D82EB62E8B
:10015000C72EE42EC22F8091FC03882381F09FB725
:10016000F8948091FC03813051F58DB38093FA03AC
:100170002DB38091FB03809582238DBB9FBF80E5CB
:100180008CBD1DBC60E08D2D0E945628F12CC23024
:1001900009F43AC0C330B1F0C13009F04CC0CB2DE6
:1001A000DC2D5801C501801B910B8E159F050CF0AD
:1001B00051C08991ABDFF50181935F01F3CF90933B
:1001C000FA03DDCFCB2DDC2DB12CA12CAE14BF0456
:1001D0000CF040C088819980CA807B80249696DF8D
:1001E000882E892D93DF982E8C2D90DFC82E872D99
:1001F0008DDFF80180829182C28283830C5F1F4F62
:10020000FFEFAF1ABF0AE2CFCB2DDC2DB12CA12C12
:10021000AE14BF04FCF488819980229677DFC82E43
:10022000892D74DFF801C08281830E5F1F4FFFEFBD
:10023000AF1ABF0AEDCFCB2DDC2D5801C501801BB5
:10024000910B8E159F0534F4899160DFF501819340
:100250005F01F4CF61E08D2D0E9456288091FC0350
:10026000882351F09FB7F8942091FC038091FA0302
:10027000213081F48DBB9FBFDF91CF911F910F91F2
:10028000FF90EF90DF90CF90BF90AF909F908F90B6
:100290007F9008958FBFF0CF90E080E008950F9396
:1002A0001F93009709F483C06115710509F47FC09D
:1002B000009108011091090120910A0130910B0170
:1002C0000E3F1F4F2F4F3F4F09F062C04FEF5FEFC0
:1002D000BA01409308015093090160930A01709399
:1002E0000B01409108015091090160910A01709140
:1002F0000B01DC011296ED91FC9180819181A2812C
:10030000B38180932A0290932B02A0932C02B09386
:100310002D0284819581A681B781809326029093D6
:100320002702A0932802B093290280859185A28597
:10033000B3858093220290932302A0932402B0936A
:10034000250284859585A685B78580931E029093A6
:100350001F02A0932002B093210210921A02109261
:100360001B0210921C0210921D0290D58BE697E0A2
:100370009093C5018093C40178D4009731F421E0B3
:1003800030E030932F0220932E021F910F91089599
:10039000009108011091090120910A0130910B018F
:1003A000DB010D931D932D933C9313979ACF8FEF01
:1003B0009FEFEBCF8F929F92AF92BF92CF92DF923F
:1003C000EF92FF921F93CF93DF934B015C0110914B
:1003D000310282E090E090932F0280932E028114EC
:1003E0009104A104B10441F480913102811104C04F
:1003F00080913002C1E08111C0E0C12CD12C760186
:1004000080913102811106C080913002811102C0B9
:10041000CC23D9F083E090E090932F0280932E02BA
:10042000CC2379F1CCE9DFEF111102C00E94CF0A91
:10043000CE01DF91CF911F91FF90EF90DF90CF9091
:10044000BF90AF909F908F9008956AE070E080E039
:1004500090E00E94802780E1C80E87E2D81EE11C50
:10046000F11C8FEF88169806A806B80631F0C1E097
:100470008C149D04AE04BF0408F0C0E080E029D4D1
:10048000BFCFD0E0C0E0D0CFCF92DF92EF92FF920B
:100490001F93CF93DF938F3F910511F008F04BC06E
:1004A00020912E0230912F022330310539F0209116
:1004B0002E0230912F022130310531F424E030E05A
:1004C00030932F0220932E026A017B01EC01892BCD
:1004D00099F011E0AE01C701B601C6D3AB01BC0172
:1004E000CE011123E1F0DF91CF911F91FF90EF90AA
:1004F000DF90CF900C94F80C8091C4019091C501CD
:10050000892B39F30E94020D029719F7E091C4017B
:10051000F091C50190E080E00995182FDBCF0E9493
:100520001A0D90E080E0DF91CF911F91FF90EF9046
:10053000DF90CF9008958FEF9FEFF5CF80E0C9C394
:10054000CF93DF9386E090E090932F0280932E026A
:1005500019D4EC011092C5011092C401B8D71092C1
:100560002F0210922E02CE01DF91CF91089580913B
:1005700030020895809119020895609308017093E4
:10058000090180930A0190930B0190E080E00895A7
:10059000CF92DF92EF92FF926B017C019F7720E078
:1005A00030E040E859E50E94F52487FF2BC020E0A9
:1005B00030E040E05FE3C701B6010E94782687FD86
:1005C0000EC020E030E040E05FE3C701B6010E94CA
:1005D0007E24FF90EF90DF90CF900C94622520E076
:1005E00030E040E05FEBC701B6010E9478261816A4
:1005F00084F420E030E0A901C701B6010E947C2606
:100600006B017C01C701B601FF90EF90DF90CF90A6
:10061000089520E030E040E05FE3C701B6010E94AA
:100620007D24FF90EF90DF90CF900C94E224CF9246
:10063000DF92EF92FF920F931F93CF93DF931F925E
:10064000CDB7DEB76091040170910501809106017C
:10065000909107010E9462256B017C0103D28111F8
:1006600098C0C701B601B9D1811193C020E030E034
:1006700040E853E4C701B6010E947C256B017C0170
:1006800020E030E0A9010E94F52487FF85C0C70162
:10069000B60190580E94F92461956983C0900001C9
:1006A000D0900101E0900201F0900301A7019601B2
:1006B0006091AA047091AB048091AC049091AD0458
:1006C0000E94F524882341F0C092AA04D092AB0482
:1006D000E092AC04F092AD046091AA047091AB0476
:1006E0008091AC049091AD0453DF6B017C0120E05C
:1006F00030E040E853E40E94F52487FF52C020E038
:1007000030E0A901C701B6010E94782687FD4BC0E1
:10071000C701B6010E94F924862F02EB14E021E004
:1007200041E0BE016F5F7F4F04DD6091F001709189
:10073000F1018091F2019091F3016F5F7F4F8F4F34
:100740009F4F6093F0017093F1018093F2019093B9
:10075000F3010E9425259B01AC016091F401709189
:10076000F5018091F6019091F7010E947C2660933B
:10077000EC017093ED018093EE019093EF010F90E7
:10078000DF91CF911F910F91FF90EF90DF90CF906D
:100790000895C12CD12C7601C701B6010E94F9241D
:1007A0007CCF8FEFBACF80E0B8CFCF92DF92EF92BD
:1007B000FF9284E090E0DAD080E090E0A0E8BFEB28
:1007C0008093F8019093F901A093FA01B093FB0193
:1007D0008AE097EDA3E2BCE38093F4019093F501E6
:1007E000A093F601B093F70184E099E1A1E1B6E5A9
:1007F0008093DA019093DB01A093DC01B093DD01DB
:1008000081EA90E0A0E7BEE58093DE019093DF01EE
:10081000A093E001B093E10186E895E9A0E3BFE78A
:100820008093E2019093E301A093E401B093E5018A
:100830008AE692E2AAEEBFED8093E6019093E7018B
:10084000A093E801B093E9018AEC91E09093D9017B
:100850008093D80186EC91E09093CB018093CA01FC
:1008600085E291E09093C7018093C6019093C901FE
:100870008093C8018AEE91E09093CF018093CE01DE
:100880008AED91E09093CD018093CC018CEE91E0C4
:100890009093D1018093D0011092A4046091000143
:1008A0007091010180910201909103016093AA046B
:1008B0007093AB048093AC049093AD04C12CD12C05
:1008C0007601C394C092A504D092A604E092A70436
:1008D000F092A8045DDE6B017C0120E030E040E88E
:1008E00053E40E94F52487FF17C020E030E0A901FF
:1008F000C701B6010E94782687FD10C0C701B60166
:100900000E94F924862F09DC81E08093A904FF90DE
:10091000EF90DF90CF9008958FEFF5CF80E0F3CF89
:100920008091A404811103C081E08093A404089500
:1009300060E070E080E89FE7089560E070E080E8A4
:100940009FE7089560E070E080E89FEF089560E021
:1009500070E080E89FEF089560E070E080EC9FEF2A
:10096000089560E070E080EC9FEF0895F5DF6093FC
:10097000BF047093C0048093C1049093C204F1DF5C
:100980006093B3047093B4048093B5049093B60459
:10099000CFDF6093BB047093BC048093BD0490933D
:1009A000BE04CBDF6093B7047093B8048093B9049E
:1009B0009093BA04C7DF6093C3047093C404809318
:1009C000C5049093C604C3DF6093C7047093C80442
:1009D0008093C9049093CA040895CF92DF92EF9256
:1009E000FF92CF936B017C01AC019B016091BB0432
:1009F0007091BC048091BD049091BE040E94F524C6
:100A0000C1E0882371F0A70196016091C304709141
:100A1000C4048091C5049091C6040E94F5248111FC
:100A2000C0E08C2FCF91FF90EF90DF90CF90089592
:100A30000F931F938B019C010027112720783F778C
:100A40000115110520483F4749F4AB01BC016F7700
:100A5000772781E0452B462B472B09F480E01F9137
:100A60000F910895E5CF4F925F926F927F928F9290
:100A70009F92AF92BF92CF92DF92EF92FF920F932D
:100A80001F93F8944090090250900A0260900B0264
:100A900070900C02C090FD01D090FE01E090FF012B
:100AA000F0900002452B09F0A4C09B01AC01241971
:100AB00035094609570929013A01009105021091AB
:100AC0000602209107023091080248015901840C66
:100AD000951CA61CB71C80169106A206B306A0F4AE
:100AE0000091010210910202209103023091040250
:100AF0000F5F1F4F2F4F3F4F0093010210930202D1
:100B00002093030230930402809205029092060221
:100B1000A0920702B0920802009101021091020215
:100B2000209103023091040280920D0290920E02F5
:100B3000A0920F02B09210020093110210931202C1
:100B400020931302309314026093090270930A02F7
:100B500080930B0290930C02A0E1B7E2A3019201F3
:100B60000E94872A6C0D7D1D8E1D9F1D6093FD01C7
:100B70007093FE018093FF019093000200910801A1
:100B80001091090120910A0130910B010F3F1F4F75
:100B90002F4F3F4FF1F00091080110910901209172
:100BA0000A0130910B010E3F1F4F2F4F3F4F89F02D
:100BB000C0900801D0900901E0900A01F0900B016B
:100BC00021E08C149D04AE04BF0408F420E02093BF
:100BD000190278941F910F91FF90EF90DF90CF90C2
:100BE000BF90AF909F908F907F906F905F904F904D
:100BF00008954B015C0184189508A608B708A30165
:100C00009201261B370B480B590B64157505860599
:100C10009705D0F082169306A406B50640F420E0AE
:100C200030E0A90181149104A104B10491F4A0E180
:100C3000B7E20E94872AA7019601261B370B480BB3
:100C4000590BCA01B901C5CF82169306A406B50691
:100C500070F7A0E1B7E2A50194010E94872A6C0D0C
:100C60007D1D8E1D9F1DB5CFFECECF93DF9300D08F
:100C700000D0CDB7DEB71C821B821A821982109277
:100C80001502109216021092170210921802BE015D
:100C90006F5F7F4FCE0103960E94DB2269817A81CC
:100CA0008B819C810E940B1C009761F4BE016F5FD9
:100CB0007F4FCE0103960E94E72269817A818B8162
:100CC0009C812CD50F900F900F900F90DF91CF91BA
:100CD0000895FF920F931F93CF93DF93082F60E047
:100CE00070E0CB010E948027FF24F3940E94F61A43
:100CF000EC01892B89F010E0CE3F8FEFD80769F027
:100D0000002361F160E070E0CB010E94802781E068
:100D100090E0892B59F322C011E023D5EC01892BF7
:100D200021F0CE3F8FEFD80759F711111EC011E007
:100D3000229609F410E00E94A71AEC01892B21F0F9
:100D4000CE3F8FEFD807E1F6111111C011E0CE3F71
:100D50008FEFD80709F410E001110BC0CE01DF912D
:100D6000CF911F910F91FF90089511E0E4CF11E012
:100D7000F3CF60E070E0CB010E9480271F25812F18
:100D800090E0C7CFCF93DF9380911902882321F0A1
:100D900060E070E0CB014CD635D6D0E0C0E0892BC6
:100DA00071F06AE070E080E090E00E94802781E0CE
:100DB00090DF28D62196C03D27E0D20781F727D6BD
:100DC0000E945F1C109231021092300210922A028F
:100DD00010922B0210922C0210922D0210922602D9
:100DE00010922702109228021092290210922202D9
:100DF00010922302109224021092250210921E02D9
:100E000010921F02109220021092210210921A02D8
:100E100010921B0210921C0210921D024EEF5FEF07
:100E20006FEF7FEF409308015093090160930A012F
:100E300070930B0110921902EDE0F2E028E0DF015F
:100E40001D922A95E9F71092090210920A02109257
:100E50000B0210920C0210920502109206021092E0
:100E600007021092080210920102109202021092E0
:100E70000302109204021092FD011092FE011092E2
:100E8000FF0110920002DF91CF91089510923D0270
:100E900010923E0210923F021092400210923C02C9
:100EA000809145029091460290933B0280933A02D2
:100EB00010923902109238021092340210923502C8
:100EC00010923602109237021092420210924102A2
:100ED00090E080E00895CF92DF92EF92FF920F931F
:100EE0001F93CF938C01892B09F055C020914502A7
:100EF0003091460280913A0290913B024091450226
:100F00005091460250933B0240933A02281739070A
:100F100081F010923902109238021092340210922D
:100F2000350210923602109237021092420210924D
:100F300041028091450290914602019761F58091AE
:100F4000410290914202892B21F480910C01811180
:100F500012C080914102909142020197E1F4809188
:100F6000340290913502A0913602B0913702019778
:100F7000A105B10581F4109234021092350210924D
:100F800036021092370210920C0182E090E09093AA
:100F9000420280934102809145029091460201975E
:100FA00009F01CC180915B0290915C02801791074F
:100FB00009F014C18091570290915802A0915902F2
:100FC000B0915A02009709F409C1209156022111EB
:100FD0000DC0409157025091580260915902709192
:100FE0005A02452B462B472B09F4F8C020914102A9
:100FF000309142022230310509F0F0C020913802D0
:101000002111ECC0FC01C080D180E280F38080918E
:101010003C02882309F4D3C0809148029091490290
:10102000892B09F4FDC0209148023091490281E0EA
:101030002230310509F080E02091480230914902C8
:10104000C1E02130310549F0209148023091490238
:10105000C1E02230310509F0C0E0882309F456C010
:101060002091520230915302409154025091550206
:10107000C701B6010E94782687FD14C02091520254
:1010800030915302409154025091550260913D02BB
:1010900070913E0280913F02909140020E94F5249F
:1010A00087FD22C020915202309153024091540298
:1010B00050915502C701B6010E947826181634F5E2
:1010C00020915202309153024091540250915502A6
:1010D00060913D0270913E0280913F0290914002EA
:1010E0000E94F524811112C080914A0290914B0216
:1010F000A0914C02B0914D02892B8A2B8B2B19F4B5
:1011000081E08093390281E080933802CC2309F496
:1011100056C0209152023091530240915402509196
:101120005502C701B6010E94F52487FF14C0209123
:1011300052023091530240915402509155026091F5
:101140003D0270913E0280913F02909140020E94C8
:10115000782687FF22C0209152023091530240919D
:10116000540250915502C701B6010E94F524811125
:1011700026C0209152023091530240915402509166
:10118000550260913D0270913E0280913F02909124
:1011900040020E947826181694F480914A02909199
:1011A0004B02A0914C02B0914D02892B8A2B8B2BC4
:1011B00019F481E08093390281E08093380281E064
:1011C00090913802911180E080933C02C0923D02E0
:1011D000D0923E02E0923F02F0924002012B09F0D1
:1011E00067C18091410290914202892BD9F41092FB
:1011F00047021092380280910C01882379F082E036
:1012000090E0909342028093410210920C01209151
:1012100045023091460281E0232BE9F080E01BC0BB
:1012200081E00ACF10920C0180914702882349F097
:10123000109239021092420210924102109247021B
:10124000EDCF8091450290914602892BE1F080918B
:10125000380210923802209141023091420222302D
:10126000310509F45EC088F42115310509F448C040
:101270002130310509F4F3C010923902109238027E
:101280001092470238C081E0E6CF2330310509F4DF
:10129000B1C02430310581F74091340250913502BC
:1012A0006091360270913702411551056105710553
:1012B00061F0415051096109710940933402509322
:1012C0003502609336027093370240913402509198
:1012D00035026091360270913702452B462B472B21
:1012E000D9F420914302309144022130310509F0B4
:1012F00046C01092390210924202109241020CC074
:1013000080910C01882341F082E090E090934202AA
:101310008093410210920C011092320280913902A6
:10132000CEC08823C9F380914A0290914B02A091CC
:101330004C02B0914D02181619061A061B060CF045
:101340007DC08091450290914602019709F076C0D8
:1013500080914A0290914B02A0914C02B0914D02B3
:101360008093340290933502A0933602B0933702F3
:1013700083E090E09093420280934102CDCF409170
:101380004E0250914F026091500270915102452BD4
:10139000462B472BA9F01092390280914E02909172
:1013A0004F02A0915002B091510280933402909369
:1013B0003502A0933602B093370281E090E0DACF95
:1013C000882399F080910D0190910E01A0910F0159
:1013D000B09110018093340290933502A0933602AD
:1013E000B093370284E090E0C5CF1092390282E0DA
:1013F00090E0C0CF8091340290913502A0913602E6
:10140000B09137020097A105B10559F00197A109E4
:10141000B1098093340290933502A0933602B093C1
:1014200037028091340290913502A0913602B0913A
:101430003702892B8A2B8B2B09F06ECF80910D01FF
:1014400090910E01A0910F01B0911001892B8A2B70
:101450008B2B09F44ECF81E080933902B3CF4091BA
:101460003402509135026091360270913702411575
:1014700051056105710561F041505109610971091A
:1014800040933402509335026093360270933702D2
:1014900040913402509135026091360270913702CA
:1014A000452B462B472B09F037CF8111C7CF9FCF54
:1014B00080913202882309F431CF80913302CF9199
:1014C0001F910F91FF90EF90DF90CF9008951092B1
:1014D0003D0210923E0210923F0210924002109282
:1014E0003C02109242021092410210923B02109272
:1014F0003A0210925C0210925B0210923902109232
:101500003802109234021092350210923602109274
:101510003702109233021092320210925702109248
:1015200058021092590210925A02109256021092CA
:10153000520210925302109254021092550288EEF9
:1015400093E0A0E0B0E080930D0190930E01A09392
:101550000F01B093100110924E0210924F021092A0
:1015600050021092510210924A0210924B021092B5
:101570004C0210924D02109249021092480281E0F2
:1015800080930C011092470210924602109245027D
:10159000109244021092430290E080E008958091FE
:1015A000450290914602892B19F580910C01882300
:1015B00051F080914702811106C081E0809333028F
:1015C0008093320208952091470230910C0181E00E
:1015D00090E0332311F090E080E030E08223932309
:1015E000892B21F01092330281E0EACF109232026F
:1015F000089582E090E0FA01918380838FEF9FEF5E
:101600000895CF93DF93EA01009711F00E948A1D9D
:101610001982188290E080E0DF91CF910895DB017C
:10162000009719F48FEF8C9308952EEF2C930F965B
:101630008F30910508F033C0FC01EF5DF44F0C943E
:10164000812A4D0B4B0B490B470B450B410B430BB1
:101650003F0B3D0B3B0B380B340B300B360B4F0B5A
:1016600080E311968C93089589E2FBCF82E2F9CF53
:1016700011961C92089583E2F4CF81E2F2CF81E1CA
:10168000F0CF87E2EECF8AE2ECCF80E1EACF84E2CE
:10169000E8CF88E2E6CF86E2E4CF81E3E2CF80E2E2
:1016A000E0CF8091690290916A02089590936A0256
:1016B000809369020895809168020895909168026C
:1016C000892B809368020895982F909580916802E5
:1016D000892380936802089580916702089580911C
:1016E00065029091660208956115710559F0FB013C
:1016F00030E020E070E060E02417350719F0611554
:10170000710511F0CB010895A081B181A817B90727
:1017100009F4BF012F5F3F4F3696EECF80916B02E9
:1017200081111CC062D268D290935E0280935D02E8
:101730000E9491150E94A31590936202809361020A
:101740000E94111A0E94181A9093600280935F02FF
:1017500081E080936B0290E080E0089584EF9FEF3A
:1017600008958F929F92AF92BF92CF92DF92EF92A5
:10177000FF920F931F93CF93DF93CDB7DEB72A97D6
:101780000FB6F894DEBF0FBECDBF1A861986188635
:101790001F821E821D821C821B821A8219828091E6
:1017A0006B0207EF1FEF882309F49CC08E010D5FC9
:1017B0001F4F9E012B5F3F4FAE01495F5F4FBE0140
:1017C000675F7F4F90E080E00E94911B8C01009743
:1017D00021F00596029708F0DBC029853A8521158E
:1017E000310509F402C1ED80FE804B815C81B701B7
:1017F000640F751F8F8198858617970708F4F5C0C9
:10180000E20EF31ED7019C91903C09F07FC042305C
:10181000510508F47BC011968C914091690250915A
:101820006A02452B09F49CC0913F08F071C02CE17D
:10183000290F2D3008F48BC02DE2290F203108F438
:1018400089C0903C21F48150823008F483C088E341
:10185000890F8B3008F481C09FE0C92E9BE0D92E00
:10186000E9EFFAE06D817E81AE014F5F5F4F8985C0
:101870009A8509955C01C114D104A1F189809A80EF
:101880008114910479F18B819C818815990508F464
:1018900087C010E000E04B815C8170E060E0C70130
:1018A0000E94A92A01151105E9F449815A81698527
:1018B0007A858D819E81680F791FC501F601099592
:1018C000E980FA800D811E812F81388549855A85EE
:1018D0006FEF7FEF81E090E00E942D1B8C01892B40
:1018E00009F056C0C8012A960FB6F894DEBF0FBEA5
:1018F000CDBFDF91CF911F910F91FF90EF90DF90BF
:10190000CF90BF90AF909F908F90089580E085CF4B
:1019100030E020E0220F331FF901E35AFD4F019020
:10192000F081E02D309709F497CF892F90E0099549
:10193000009709F491CFDC011296ED91FC91139779
:101940001496CD90DC90309709F08CCF1FC021E029
:1019500030E0E0CF22E030E0DDCF23E030E0DACF4E
:10196000D12CC12CE1E0FBE09F3F09F07BCFE0915F
:101970005D02F0915E02309721F4C90104EF1FEF80
:101980000CC08FEF90E009950097A9F604EF1FEFC8
:1019900089859A85009709F4A5CF0E948A1DA2CF58
:1019A0000E945A1C8C0189859A850E948A1D70E0CC
:1019B00060E0C4010E94F31B98878F830E942A1B5A
:1019C0009E838D836F8178856115710559F0C801FB
:1019D0000E94161F9A87898706EF1FEF892B09F04F
:1019E00058CF59CF08EF1FEF56CF08EF1FEFD0CFDA
:1019F00020916B02222319F020E00C94A81587EFA8
:101A00009FEF08958091690290916A0208950E9463
:101A10001D1A0E947719F5D0EDE5F2E088E0DF01AC
:101A20001D928A95E9F710926B0290E080E008958C
:101A30000C94D61721E040E050E0BA010C94A815B0
:101A400086E090E0FA019183808390E080E0089541
:101A500047E050E068E271E047CEDF92EF92FF92FC
:101A60000F931F93CF93DF938A01EC01C60FD71F0B
:101A7000E0906F02F0907002D9800E94421CD8164C
:101A8000190678F082E090E0F801918380838EEF70
:101A90009FEFDF91CF911F910F91FF90EF90DF901B
:101AA0000895EF2841F482E090E0F801918380836B
:101AB00084EF9FEFEECF898180936E0290E00196D4
:101AC000F8019183808390E080E0E3CFCF93DF93B0
:101AD000EA010E948718882321F00E944F1C0E946F
:101AE000881882E090E0998388838BEF9FEFDF91E5
:101AF000CF910895CF93DF93EB0186E0FB01119224
:101B00008A95E9F78FEF8883D6DD8983E5DD8A83BF
:101B1000E6DD9D838C83DF91CF910895CF93DF9392
:101B2000EA010E948A18811109C082E090E099833D
:101B3000888385EF9FEFDF91CF91089590E080E05B
:101B4000B5DD81E090E09983888390E080E0F3CF79
:101B50000F931F93CF93DF93EA018C01060F171F9A
:101B60000E948A1881110BC082E090E099838883DB
:101B700085EF9FEFDF91CF911F910F910895F801AD
:101B80008181823038F082E090E0998388838EEF03
:101B90009FEFF0CF81E090E089DD88E090E09983CD
:101BA000888390E080E0E6CFCF93DF930097D1F475
:101BB000EB01FB01329686E0DF011D928A95E9F781
:101BC0008FEF888385E089831A820E94421C8B8371
:101BD0000E94411C9D838C8381E08E838F83DF91E3
:101BE000CF910895DF91CF911ACD88E29DE0909337
:101BF0006D0280936C02089580916C0290916D0249
:101C0000089510926D0210926C02089580916F02F7
:101C1000909170020895411105C06115710581050B
:101C2000910561F060936F0270937002809371026E
:101C3000909372024093730281E0089580E00895CA
:101C4000FF920F931F93CF93DF938A01EC01C60F8E
:101C5000D71FF9800E94421CF816190668F082E02E
:101C600090E0F801918380838EEF9FEFDF91CF9119
:101C70001F910F91FF9008956C817D818E819F81CE
:101C80004B81C9DF811108C082E090E0F8019183A7
:101C9000808384EF9FEFEACF898180936E0290E08A
:101CA0000196F8019183808390E080E0DFCFCF93AD
:101CB000DF93EA01FC01E60FF71F648175818681DD
:101CC00097814381A8DF811109C082E090E0998368
:101CD000888384EF9FEFDF91CF91089581E090E0BA
:101CE0009983888390E080E0F6CFEFE6F2E04081D0
:101CF000518162817381480F511D611D711D4083A7
:101D00005183628373830895CF93C0916E024C2FE9
:101D100050E060916F027091700201960E94A02ABB
:101D20008C2FE3DF10926E02CF910895009799F403
:101D300080916F02909170022FEFFB012083892B1D
:101D400059F020916E0230E02F5F3F4F2417350786
:101D500019F4CB01D9CF63CC0895009799F4809101
:101D60006F02909170022FEFFB012083892B59F0B5
:101D700020916E0230E02F5F3F4F2417350719F492
:101D8000CB01C2CF4CCC089523E1AC01249FC0010C
:101D9000259F900D1124E0917802F0917902E80FCF
:101DA000F91F238134812250310981E0223031052D
:101DB00008F080E008950F931F93CF93DF93009175
:101DC0007A0210917B02D0E0C0E080E00C171D0782
:101DD00049F491E0811190E0892FDF91CF911F911B
:101DE0000F9108958111F5CFCE01CEDF2196EECF70
:101DF000A0917802B0917902109729F120917A028E
:101E000030917B0282179307F0F453E1589F9001C1
:101E1000599F300D1124A20FB31FED91FC91119722
:101E2000309789F012968C91681768F48BE0689F60
:101E3000E00DF11D112480819181892B21F081E039
:101E40009281491708F080E008959C0143E1429F88
:101E5000C001439F900D1124E0917802F091790226
:101E6000E80FF91F8385823091F481E090E065816D
:101E7000768140911101509112016417750711F498
:101E800090E080E0892B19F081E0232B09F080E0BD
:101E90000895EF92FF920F931F93CF93DF93EA0180
:101EA000FC01E60FF71F02811381E480F5804F2DBE
:101EB0006E2DC8019DDF81110DC082E090E09983F5
:101EC00088838EEF9FEFDF91CF911F910F91FF904D
:101ED000EF900895C80158DF882339F082E090E040
:101EE0009983888388EF9FEFEECF109318010093BA
:101EF0001701E0921901F0921A0181E090E09983B4
:101F0000888390E080E0DFCFCF92DF92EF92FF9264
:101F10000F931F93CF93DF937A01EC01C60FD71F66
:101F2000C0901701D09018010091190110911A0169
:101F3000412F602FC6015CDF811110C082E090E06C
:101F4000F701918380838AEF9FEFDF91CF911F91FB
:101F50000F91FF90EF90DF90CF900895C60114DFAE
:101F6000882341F082E090E0F7019183808388EF3D
:101F70009FEFEBCF4C815D816E817F819A8189815A
:101F80008F3F41F082E090E0F701918380838EEFF4
:101F90009FEFDBCFE3E1EC9D9001ED9D300D11242F
:101FA000E0917802F0917902E20FF31F0190F08145
:101FB000E02D2BE0029FE00DF11D11240190F08136
:101FC000E02D27E0129FE00DF11D11248083918305
:101FD0008B81828343835483658376831F5F109351
:101FE0001A0181E090E0F7019183808390E080E026
:101FF000ACCFEF92FF920F931F93CF93DF937A01B1
:102000008C01060F171FC0917802D091790220979A
:1020100081F021E030E0F8018281938140917A02E1
:1020200050917B028417950710F030E020E0232BBD
:1020300071F482E090E0F701918380838EEF9FEF4F
:10204000DF91CF911F910F91FF90EF90089543E1A1
:10205000489F9001499F300D1124C20FD31F94DE79
:10206000882341F082E090E0F7019183808388EF3C
:102070009FEFE6CFF8012481358120383105C8F67D
:1020800087818111D6CF4181842F90E08F7E009788
:1020900041F082E090E0F7019183808386EF9FEF2B
:1020A000CFCF4F833E832D83268128871986223008
:1020B00010F421E0288721E030E0F701318320830C
:1020C000BFCF88E090E0FA019183808390E080E0C8
:1020D0000895FB018FEF808381E181838FEF9FEF74
:1020E0009383828380E890E09583848316821782AD
:1020F0000895FB018FEF808391E091838283938326
:10210000848384E3858381E090E0978386830895C8
:10211000DF92EF92FF920F931F93CF93DF93EA0129
:10212000FC01E60FF71F8181813071F082E090E0C1
:10213000998388838FEF9FEFDF91CF911F910F914C
:10214000FF90EF90DF90089582819381D480258164
:10215000E680F7800091780210917902011511054F
:1021600039F482E090E0998388838CEF9FEFE4CF8D
:1021700040917A0250917B028417950738F082E0F3
:1021800090E0998388838EEF9FEFD6CF892B39F02B
:1021900082E090E09983888386EF9FEFCDCF8D2DED
:1021A0008D7FB1F72130A1F781E0D11006C091E019
:1021B000E916F10431F080E004C0E2E0EE16F1042B
:1021C000D0F3882329F390E080E0DEDD882339F026
:1021D00082E090E09983888388EF9FEFADCFF8018C
:1021E000D38681E08487F686E586108A178681E0AB
:1021F00090E09983888390E080E09ECF4CE050E0AF
:1022000062E571E071CA8F929F92BF92CF92DF9286
:10221000EF92FF920F931F93CF93DF93EA01FC019C
:10222000E60FF71F828193810481B580E0917802E7
:10223000F0917902309791F482E090E0998388835D
:102240008CEF9FEFDF91CF911F910F91FF90EF9057
:10225000DF90CF90BF909F908F90089520917A0249
:1022600030917B028217930738F082E090E09983E7
:1022700088838EEF9FEFE6CF23E1289F6001299F9F
:10228000D00C1124EC0DFD1DE080F180E114F1046F
:1022900099F28281081748F78BE0089F800111248A
:1022A000E00EF11EF70180819181892B29F6BB2078
:1022B000E1F2F7E0BF9E40011124C4010E943C1DE1
:1022C000F70191838083E0917802F0917902EC0D1F
:1022D000FD1D0190F081E02DE00FF11F80819181C3
:1022E000009739F482E090E0998388838DEF9FEF27
:1022F000A9CFA40170E060E00E94A92A8091780231
:1023000090917902C80ED91EF60180819181080F43
:10231000191FF801B28281E090E09983888390E0F0
:1023200080E090CFAF92BF92CF92DF92FF920F9357
:102330001F93CF93DF93EA01FC01E60FF71F828121
:102340009381F480009178021091790201151105B2
:1023500081F482E090E0998388838CEF9FEFDF9196
:10236000CF911F910F91FF90DF90CF90BF90AF90D2
:10237000089520917A0230917B028217930738F0FA
:1023800082E090E0998388838EEF9FEFE8CF2FEF74
:102390002F0D2C3FA8F723E1289F6001299FD00C27
:1023A00011240C0D1D1DF80180819181892B89F666
:1023B000FBE0FF9E50011124C5010E943C1DF80165
:1023C00091838083E0917802F0917902EC0DFD1DFC
:1023D00080819181009739F482E090E0998388832D
:1023E0008DEF9FEFBCCFA50170E060E00E94A92AAD
:1023F000E0917802F0917902EC0DFD1DF28281E00E
:1024000090E09983888390E080E0A9CFCF92DF921B
:10241000EF92FF920F931F93CF93DF93860F971F37
:10242000FC01028113818091780290917902892BBD
:1024300081F082E090E0FA01918380838CEF9FEF3E
:10244000DF91CF911F910F91FF90EF90DF90CF9090
:102450000895C801B0E0A0E00197A109B1098F3F3C
:102460009F4FA105B10540F082E090E0FA01918311
:1024700080838EEF9FEFE4CF7A0183E1809F60013C
:10248000819FD00C1124C6010E943C1DEC010097D5
:1024900041F482E090E0F701918380838DEF9FEF1C
:1024A000CFCFA60170E060E00E94A92AD093790204
:1024B000C093780210937B0200937A0290E080E050
:1024C0002FEF3FEF41E061E070E08017910741F4AA
:1024D00081E090E0F7019183808390E080E0B0CFCD
:1024E0003A8B298B1B864C877E876D87188A1F86BF
:1024F00001966396EACFCF92DF92EF92FF920F930D
:102500001F93CF93DF93EC01D12CC12C10E000E09E
:10251000F12CE12C6A8170E006171707BCF0660FFA
:10252000771FAE014F5E5F4FC7010E94B61D009737
:1025300021F02FEF3FEF3A8B298BDF91CF911F9145
:102540000F91FF90EF90DF90CF900895E881F9818F
:10255000EC0DFD1D438154818D859E85489F900122
:10256000499F300D589F300D1124C9010196011566
:10257000110519F44F8144FD049661E070E00E945A
:10258000F31BE816F90608F47C010F5F1F4F8BE080
:10259000C80ED11CBFCFF8942091760230917702FB
:1025A00081E02115310509F080E0232B09F07894B2
:1025B00008952F923F924F925F926F927F928F92E7
:1025C0009F92AF92BF92CF92DF92EF92FF920F93C2
:1025D0001F93CF93DF933C01660E771EF301828138
:1025E00093814C01B12CA12CC0917802D091790239
:1025F000209769F021E030E060917A0270917B02CF
:102600008617970710F030E020E0232BD1F482E00A
:1026100090E0FA01918380838EEF9FEFDF91CF915D
:102620001F910F91FF90EF90DF90CF90BF90AF90F0
:102630009F908F907F906F905F904F903F902F90E2
:10264000089580921B0190921C01A0921D01B092EE
:102650001E0163E1689F9001699F300D1124C20F34
:10266000D31FF3018181833040F082E090E0FA01D2
:102670009183808386EF9FEFD1CF2A012B813C810C
:10268000232BF1F4288139819F8191FF2EC0232BC8
:1026900009F46FC020917D029A81422F490F55277E
:1026A000551FBA0141E050E06138710514F050E067
:1026B00040E0452B09F45DC02A87920F90937D027C
:1026C0008150823008F481C066DF882309F4D6C0C7
:1026D000F3018181813009F48DC008F47BC0823020
:1026E00009F4C4C090E080E0ADC0232B09F441C0E0
:1026F00020917C029A81E22FE90FFF27FF1F41E022
:1027000050E0ED3FF10514F050E040E0452B89F139
:102710002A87920F90937C02D3CFA081B181A20F20
:10272000B31F11966C91060F111D0196295F3F4F43
:102730008417950794F38D859E85089F1001099F46
:10274000300C189F300C1124C114D104D1F48F81A6
:1027500084FF17C00E94411CF5E02F0E311C21E0C0
:102760008215930508F420E0A701455F5F4F211112
:102770000EC082E090E0F2019183808387EF9FEFAB
:102780004DCF0E94411C2FEF221A320AE8CF8881D8
:102790009981E80EF91EF70114830383FFEFCF1A26
:1027A000DF0A7A018A818C151D0409F00CF48CCFA4
:1027B000E881F981EE0DFF1D428150E030E020E01C
:1027C00010E000E090E080E0B3CFF12CE12CD12CC0
:1027D000C12CE8CF81E090E09C838B83ECDA8823E6
:1027E00009F480CF81E090E00E94560B80E40E94C3
:1027F000640B78CF89899A89019661F083E090E033
:102800009C838B8382E090E00E94560B80E40E94C0
:102810005E0B68CF2D813E81809111019091120154
:1028200028173907D1F46091150170911601AE0196
:102830004F5E5F4F80911301909114010E94D51E4D
:102840000097E1F2789422E030E0F20131832083B6
:10285000892B89F08DEF9FEFE1CE89288A288B287C
:1028600069F6CE0148DE188A1F86EACF82E090E042
:102870009C838B8337CF90E080E0D0CE82E090E0E5
:10288000F2019183808385EF9FEFC8CE8F929F9254
:10289000AF92BF92CF92DF92EF92FF920F931F936E
:1028A000CF93DF93EA018C01060F171FF801818196
:1028B000833098F082E090E09983888386EF9FEFE1
:1028C000DF91CF911F910F91FF90EF90DF90CF900C
:1028D000BF90AF909F908F900895809178029091D3
:1028E0007902892B61F081E090E020917A023091A9
:1028F0007B02232B11F490E080E0892B39F482E0F5
:1029000090E0998388838EEF9FEFDACF44DE8823AF
:1029100009F4DDC0F8018181813009F493C0E8F049
:10292000823099F420917A0230917B02E091780212
:10293000F091790290E080E041E050E028173907FB
:1029400009F0BBC038DA811117C0789481E090E0BB
:102950009983888390E080E0B3CF20917A02309110
:102960007B02E0917802F091790290E080E041E012
:1029700050E02817390741F481E090E00E94560B9F
:1029800080E40E94640BE1CF63817481672B11F0B6
:102990005483438301967396ECCFE0917802F091D3
:1029A0007902E00FF11F2381348122303105D9F4FF
:1029B000218932892F3F3F4FB1F4458156812091C3
:1029C0001101309112014217530761F5AF014F5EBB
:1029D0005F4F6091150170911601809113019091E4
:1029E00014010E94D51EEFEFCE1ADE0AEE0AFE0A8F
:1029F0000D5E1F4F40917A0250917B0270E060E0C3
:102A0000C416D506E606F7062CF5009731F2789441
:102A1000892B09F49BCF82E090E0998388838DEF26
:102A20009FEF4ECFC114D104E104F104E1F6CF01D0
:102A300062DDE0917802F0917902E00FF11F108AD7
:102A40001786D1CF10E000E090E080E0C12CD12CBF
:102A50007601D0CF0097D9F610E000E0812C912CC0
:102A6000540183E0E82EF12C1AC0E0917802F09135
:102A70007902E00FF11F83819481029749F4F48277
:102A8000E38282E090E00E94560B80E40E945E0B9D
:102A9000FFEF8F1A9F0AAF0ABF0A0D5E1F4F80918A
:102AA0007A0290917B02B0E0A0E088169906AA060F
:102AB000BB06DCF290E080E0AACF638174816230D3
:102AC000710511F4548343830196739637CF82E0E6
:102AD00090E09983888385EF9FEFF2CE0097B9F459
:102AE0008FEFFB01808320911B0130911C0143E19A
:102AF000429FC001439F900D1124E0917802F09114
:102B00007902E80FF91F8285FB01818308950C94F7
:102B10000F0B88E090E0FA019183808390E080E0E1
:102B200008951092770210927602E8E7F2E086E0CC
:102B3000DF011D928A95E9F78EEF90E1909375027F
:102B400080937402089580917402909175020895A3
:102B50002F923F924F925F926F927F928F929F92AD
:102B6000AF92BF92CF92DF92EF92FF920F931F939B
:102B7000CF93DF93CDB7DEB760970FB6F894DEBF83
:102B80000FBECDBFF894E0917602F09177023196B6
:102B9000F0937702E09376027894A0917802B09156
:102BA0007902BA83A983109709F4FAC1E0917A02F5
:102BB000F0917B02EF2B09F4F3C128874B875C87E8
:102BC0006D877E879A878987B88BAF87312C212CB8
:102BD000F12C512C412C80917A0290917B02281685
:102BE000390610F4FF2029F1F89480917602909133
:102BF0007702019790937702809376027894C201CE
:102C000060960FB6F894DEBF0FBECDBFDF91CF91B7
:102C10001F910F91FF90EF90DF90CF90BF90AF90FA
:102C20009F908F907F906F905F904F903F902F90EC
:102C30000895B10190E080E085D4682EEF85F88991
:102C4000878181FD3DC0838194810397C9F52581EA
:102C500036813C832B8389859A852817390781F52E
:102C6000C101F3D8782E8823A9F1AF85B8891F96C2
:102C70008D919C915097019621E01D964D915C910C
:102C80008417950709F020E02F83B12CA12CEF8544
:102C9000F88982818A151B0419F014F0FF20E9F0ED
:102CA000F885FF2309F46CC1AF85B88950961C9252
:102CB0001E921F97662021F0B10190E080E044D47D
:102CC000FFEF2F1A3F0A2F8538892D5E3F4F388B33
:102CD0002F8781CFB1E0BF83D8CFBCD49E838D83B3
:102CE000E885EE23E9F0772009F43CC1AF85B88987
:102CF0001F968D919C91892B79F0BBE0BA9DC00104
:102D0000BB9D900D1124AF85B889ED91FC91E80F22
:102D1000F91F85819681FED6BFEFAB1ABB0AB7CFEC
:102D200081E0772039F0EF85F88927853089232BDA
:102D300009F080E0F82EE12CA114B10439F4AF853C
:102D4000B8891796EC90E4FAEE24E0F8BBE0BA9D5F
:102D50006001BB9DD00C1124882309F424C1AF85E8
:102D6000B889ED91FC911197EC0DFD1D43815481C3
:102D70001D962D913C91429FC001439F900D529F03
:102D8000900D1124E1105DC001969087878361E06A
:102D900070E08781908527D5EF85F8892189328970
:102DA000008111810C0D1D1D2F3F320709F44BC00E
:102DB000BC01C9010E94161FD80116969C938E93E0
:102DC0001597AF85B889ED91FC911197EC0DFD1D1C
:102DD000058116810115110509F4CDC0ED81FE8133
:102DE0000E0F1F1F1A968C918A0DD8018C93E1103B
:102DF0002FC00F5F1F4FAF85B889ED91FC91EC0D8F
:102E0000FD1D12870187AF85B889ED91FC91EC0D0E
:102E1000FD1D85819681892B09F4A4C08091110143
:102E2000909112012B813C812817390709F465C064
:102E3000772011F001851285912C812C1A8219823C
:102E40004AC00596A2CF18D6F80196838583B9CFDC
:102E50008B859C85AD85BE85F80181839283A38394
:102E6000B4830B5F1F4FC7CFE080F180E80CF91CE3
:102E7000D70113966D917C9114978C918F3F09F433
:102E800073C0E1E0F0E002C0EE0FFF1F8A95E2F7A9
:102E9000CF01092E000CAA0BBB0BFB014081518115
:102EA0006281738184239523A623B72321E0892B94
:102EB0008A2B8B2B09F420E0D8012C93D701119693
:102EC0008C91080F111DE981FA813196FA83E9830B
:102ED000F7E08F0E911CAF85B889ED91FC91EC0D58
:102EE000FD1D828129813A818217130611F00CF0B1
:102EF000BBCF772011F0128701873F81332391F1F7
:102F0000AF85B889ED91FC91EC0DFD1D61E070E09D
:102F10008781908568D4AF85B889ED91FC91EC0DDF
:102F2000FD1DE780F08445815681E1E0F0E06620F8
:102F300011F0F0E0E0E00D811E819C01B1018827D5
:102F400099278E1B9F0B89D32C01892B59F0EF8574
:102F5000F88980819181C80ED91ED60115968D9170
:102F60009C91D8D5F12CD8CEF701418150E0C80111
:102F70000E94A02AA3CF86EF482E55245A94CCCE87
:102F8000EF85F889878590890196908B87872585BD
:102F900036858217930709F08DCE108A17868ACE60
:102FA000512C412C21CE10E000E02DCF2F923F92EA
:102FB0004F925F926F927F928F929F92AF92BF9249
:102FC000CF92DF92EF92FF920F931F93CF93DF93F5
:102FD000809178029091790210E000E0892BA9F0AD
:102FE000DADA0AEF1FEF882381F020907A0230901E
:102FF0007B02C0917802D0917902D12CC12C10E0D3
:1030000000E02C143D04A9F47894C801DF91CF911D
:103010001F910F91FF90EF90DF90CF90BF90AF90F6
:103020009F908F907F906F905F904F903F902F90E8
:103030000895C6010E94250F882309F18B819C8188
:103040000397E9F48F859889892BC9F0B60190E040
:1030500080E078D221E030E0882311F030E020E0F9
:1030600044245524421A530AB12CA12C912C812CB2
:103070008A818815190409F038F4188A1F864FEFE1
:10308000C41AD40A6396BDCFE881F981EA0DFB1D0D
:1030900085819681892BA1F161E070E0878190851F
:1030A000A2D33C01D7D28C01E881F981EA0DFB1D46
:1030B0008185928525813681200F311FAC01421B0D
:1030C000530B9A0147815085421B530B70E060E01F
:1030D0000E94A92AE881F981EA0DFB1DE780F084AE
:1030E000458156819301B601C201B7D28C01892B6B
:1030F00039F0E881F981EA0DFB1D858196810AD5B9
:103100005FEF851A950A8BE0A80EB11CB1CF43CAB8
:10311000789408952F923F924F925F926F927F9290
:103120009F92AF92BF92CF92DF92EF92FF920F9356
:103130001F93CF93DF9300D000D000D0CDB7DEB780
:103140000091780210917902992493940115110548
:1031500009F43EC0A0907A02B0907B021CDA982E4F
:103160008823B1F1109279021092780210927B02BA
:1031700010927A0210927C0210927D028FEF9FEFE4
:10318000DC0180931B0190931C01A0931D01B0935F
:103190001E01789478D31E830D83C12CD12C760127
:1031A000C501B0E0A0E089839A83AB83BC8322246D
:1031B0002A94322C89819A81AB81BC81C816D906A8
:1031C000EA06FB06F4F0C801A5D480E40E94640B73
:1031D000892D26960FB6F894DEBF0FBECDBFDF91C6
:1031E000CF911F910F91FF90EF90DF90CF90BF9004
:1031F000AF909F907F906F905F904F903F902F90F7
:103200000895AD81BE8115962D913C9116978091C0
:1032100011019091120128173907D1F451968D911F
:103220009C91F2D5ED81FE8180819181B12CA12C00
:10323000412C512C3201892B79F5BFEFCB1ADB0AD7
:10324000EB0AFB0AED81FE817396FE83ED83B2CF1C
:10325000C114D104E104F10429F7ED81FE818189D3
:1032600092898F3F980709F02FD5AD81BE81529684
:103270003C922E925197D6CF8A0D9B1DDC018D91E9
:103280009C91009709F046D4BFEF4B1A5B0A6B0A7A
:103290007B0AEBE0AE0EB11CAD81BE818D919C919D
:1032A000119712964C9150E070E060E0441655067C
:1032B000660677060CF32ED4C0CFCF93DF93EA01D6
:1032C00029DF811109C082E090E09983888385EF2E
:1032D0009FEFDF91CF91089581E090E00E94560B1F
:1032E00081E090E09983888390E080E0F2CF12DF64
:1032F0001092750210927402089542E050E06AE95B
:1033000071E00C94740BFF920F931F93CF93DF9394
:103310008A01EC01C60FD71FF980B4D20897F816BE
:10332000190671F068F082E090E0F80191838083E3
:103330008EEF9FEFDF91CF911F910F91FF90089536
:103340006C817D818E819F814B810E940B0E81114A
:1033500008C082E090E0F8019183808384EF9FEFC2
:10336000E9CFF9800E94060E4F2D50E0BE01685F44
:103370007F4F0E94A02A89810E94750E81E090E013
:10338000F8019183808390E080E0D4CFDF92EF92C8
:10339000FF920F931F93CF93DF938A01EC01C60F27
:1033A000D71F0E94060E7C01D9806CD2DD2059F017
:1033B000029721E030E0D816190619F010F030E03D
:1033C00020E0232B79F482E090E0F8019183808360
:1033D0008EEF9FEFDF91CF911F910F91FF90EF90B4
:1033E000DF900895EF2841F482E090E0F8019183A6
:1033F000808384EF9FEFEECFF9800E94060E4F2D61
:1034000050E0BE016E5F7F4F0E94A02A89810E941A
:10341000750E81E090E0F8019183808390E080E078
:10342000D9CF8DE799E190937F0280937E02089532
:1034300080917E0290917F0208950895FC0111828F
:103440001082938382830895DB011D921C92DC011C
:103450001296ED91FC9113977183608313967C9380
:103460006E9312970895FC0180819181DB018D9309
:103470009C93A081B181109741F08D919C91918393
:103480008083892B11F4F383E2830895FC0180810A
:103490009181DB018D939C93892B11F4738362835B
:1034A000718360830895FC0111821082938382836B
:1034B0000895CF93DF9300D0CDB7DEB71A8219827B
:1034C000F894BE016F5F7F4F85E892E0CCDF898181
:1034D0009A81009709F01ED389819A81892B89F7F7
:1034E000BE016F5F7F4F89E892E0BDDF89819A81DD
:1034F000009709F00FD389819A81892B89F77894F5
:103500000F900F90DF91CF910895CF93DF9300D06C
:10351000CDB7DEB71A821982F894BE016F5F7F4F74
:1035200081E892E0A0DF89819A81009709F0F2D2C8
:1035300089819A81892B89F778940F900F90DF9178
:10354000CF91089581E0089590E080E00895EF9292
:10355000FF920F931F93CF93DF9300D0CDB7DEB7C9
:103560001A8219828091800207EF1FEF8823A1F150
:10357000F894BE016F5F7F4F89E892E074DF789422
:1035800089819A81EE24E394F12C892B51F4F894EB
:10359000BE016F5F7F4F85E892E065DF7894F12C84
:1035A000E12C89819A810EEF1FEF0097A9F0FC01B1
:1035B0004281538164E070E032D68C01892B61F046
:1035C000F89469817A81C701880F991F880F991F24
:1035D0008B579D4F5BDF7894C8010F900F90DF9160
:1035E000CF911F910F91FF90EF9008950F931F932C
:1035F000CF93DF9300D000D0CDB7DEB71C821B8203
:103600001A8219828091800207EF1FEF8823C1F090
:10361000AE014D5F5F4F64E070E0CE01019672D65F
:103620008C01892B69F4E981FA818B819C819383D8
:103630008283F89469817A8181E892E005DF789449
:10364000C8010F900F900F900F90DF91CF911F91B5
:103650000F91089577D7049608958F929F92AF9215
:10366000BF92CF92DF92EF92FF920F931F93CF936F
:10367000DF9300D0CDB7DEB71A821982BC016F5F2D
:103680007F4F6330710598F0AA24AA94BA2CC50123
:103690000F900F90DF91CF911F910F91FF90EF90BE
:1036A000DF90CF90BF90AF909F908F90089541157D
:1036B000510551F3480159018A016C01CBDF88158E
:1036C000990511F7E114F104F9F28E0D9F1DA8166A
:1036D000B906D0F2809180028823F1F0F894B50108
:1036E000645071099701AE014F5F5F4FC8010496A6
:1036F0009ED65C01892B71F489819A81F8019383AC
:103700008283C601880F991F880F991FB8018B57B4
:103710009D4F9ADE7894BBCF87EFA82EBB24BA9436
:10372000B6CFAF92BF92CF92DF92EF92FF920F93FC
:103730001F93CF93DF9300D0CDB7DEB71A821982E3
:10374000892B09F047C06115710509F443C0411583
:10375000510509F43FC02115310509F43BC001159D
:103760001105C1F1809180028823B9F179016A01C4
:103770005B01F894BE016F5F7F4F81E892E073DEDA
:10378000789489819A81009759F1DC0112966D91A4
:103790007C91A801049664D68C01E981FA81D50157
:1037A000ED93FC93828193810496F601918380834B
:1037B00051DFD7018D939C93C8010F900F90DF913B
:1037C000CF911F910F91FF90EF90DF90CF90BF901E
:1037D000AF9008950FEF1FEFEFCF07EF1FEFECCF84
:1037E0000EEF1FEFE9CFCF93DF93EC01672B71F45E
:1037F000B2D68C179D0760F0A5D62496C80FD91FA6
:10380000A4D68C0F9D1FDF91CF910895A1D6F1CF43
:1038100090E080E0F8CF0F931F93CF93DF93209138
:10382000800221112BC08B01EC0185E892E006DEBD
:1038300089E892E003DE81E892E000DE97D000970D
:10384000C1F489D670E060E0CEDF4FE151E062E084
:1038500070E08CD1009769F480911F019091200154
:103860008CD6B801CE01C1D4009719F421E0209381
:103870008002DF91CF911F910F91089584EF9FEF08
:10388000F8CF66C668C6CF93DF9368D6EC01892B64
:1038900011F40FDE3ADECE01DF91CF910895CF9380
:1038A000DF935CD6EC01892B09F403DECE01DF91B6
:1038B000CF91089580911F01909120010895CF9399
:1038C000DF9380918002D0E0C0E08823D1F05AD607
:1038D000EC01892BB1F4EDDD18DE80911F01909190
:1038E0002001F2D1F3D2EC01892B59F485E892E062
:1038F000DADD89E892E0D7DD81E892E0D4DD10924C
:103900008002CE01DF91CF910895EF92FF920F9345
:103910001F93CF93DF93EC017A018B010F5F1F4F51
:103920000E9DA0010F9D500D1E9D500D112470E0A5
:1039300060E00E94A92A90E080E0F0E0E0E02FEF54
:10394000E816F90639F4DF91CF911F910F91FF909E
:10395000EF9008951A8219822883309711F0D2834C
:10396000C1830196FE01C00FD11FEACFCF92DF9233
:10397000EF92FF920F931F93CF93DF930DE513E028
:103980000C7F86EAE82E81E0F82E9CEAC92E91E0B1
:10399000D92ECCEBD3E0D7014D915D917D01F6019D
:1039A000619171916F01198308835D834C835B83FF
:1039B0004A837F836E839B012F5F3F4F249FC0010B
:1039C000259F900D349F900D1124998788870115AC
:1039D000110511F0C80199DF88859985080F191F15
:1039E0002A96FCEAEF16F1E0FF06A9F6EFE8F2E00E
:1039F0008BECDF011D928A95E9F710928E021092EE
:103A00008D021092DB031092DA031092DF03109202
:103A1000DE031092DD031092DC031092E10310929A
:103A2000E0031092E3031092E2031092E503109278
:103A3000E4031092E9031092E8031092E703109256
:103A4000E6031092EB031092EA031092ED0310923A
:103A5000EC031092B9031092B8031092BB031092BA
:103A6000BA0390E080E0DF91CF911F910F91FF901A
:103A7000EF90DF90CF900895009799F1F8948930F6
:103A8000910550F48091BE039091BF03892B39F0CA
:103A900020E090E080E018C08132910550F48091E0
:103AA000C8039091C903892B31F021E081E090E0B7
:103AB0000BC0C197A8F48091D2039091D303892BB6
:103AC00079F022E082E090E0EAE0E89FD001E99F0F
:103AD000B00D1124A454BC4F8D919C91009721F4FA
:103AE000789490E080E00895E29FF0011124E4547E
:103AF000FC4FDC0111964D915C91518340834281D2
:103B000053814150510953834283FC012193CF01DA
:103B100078940895009749F1DC018E91853041F445
:103B2000E091BA03F091BB033097F9F0CD0109940D
:103B30008530D8F4282F30E0F8948FEF8C938AE00A
:103B4000829FF001839FF00D1124E454FC4F80818B
:103B5000918112969C938E931197B183A083828159
:103B6000938101969383828378940895CF92DF9214
:103B7000EF92FF920F931F93CF93DF939C0182E903
:103B800092E08C7F4115510509F49BC02115310548
:103B900009F497C06115710509F493C07A01AB016E
:103BA000B9016D5F7F4F6C7F9B012F5F3F4F249F5B
:103BB0008001259F100D349F100D1124F894209141
:103BC000DA033091DB03232B59F42091E203309187
:103BD000E3032115310569F12017310708F058C0BA
:103BE0002091E4033091E503232B91F42091E2032B
:103BF0003091E303820F931F2091EC033091ED038A
:103C00002115310509F441C02017310708F056C0CD
:103C10007894CFEFDFEF86EF9FEFF701D183C0837A
:103C2000DF91CF911F910F91FF90EF90DF90CF9098
:103C30000895C3E0D0E0C0908D02D0908E0228ECB1
:103C400030E02C193D092017310710F32AE02C9F92
:103C5000F0012D9FF00D1124E454FC4F91838083DB
:103C60005583448353834283778366831187008718
:103C7000009709F04ADE0C0D1D1D10938E02009373
:103C80008D02789490E080E0C8CFC4E0D0E0D3CF3C
:103C9000C3E0D0E02AE02C9FF0012D9FF00D11240D
:103CA000E454FC4F91838083558344835383428340
:103CB00077836683009729F328DEE3CFC4E0D0E062
:103CC000E9CF8FEF9FEFACCF9C010397029708F0ED
:103CD00069C0F89484E09AE0482F50E02417350733
:103CE0000CF44DC091E08AE0829FF001839FF00DBB
:103CF0001124E454FC4F1182108215821482138225
:103D00001282178216829923B1F18091E403909177
:103D1000E503892BA9F42091EC033091ED032115E3
:103D2000310571F080918D0290918E02821B930B70
:103D300090938E0280938D021092ED031092EC030B
:103D40008091DA039091DB03892BA9F42091E2039F
:103D50003091E3032115310571F080918D0290912E
:103D60008E02821B930B90938E0280938D02109291
:103D7000E3031092E203789490E080E00895949F2A
:103D8000F001959FF00D1124E454FC4F40815181C6
:103D9000452B31F440855185452B11F481509CCF42
:103DA00090E0A1CF8FEF9FEF08954115510549F1A4
:103DB000009739F16115710521F1F8942091B8034C
:103DC0003091B903232BB9F42091BA033091BB038E
:103DD000232B89F49093B9038093B8037093BB03AA
:103DE0006093BA03789425E030E090E080E0FA0137
:103DF00031832083089578942FEF3FEF86EF9FEF74
:103E0000F6CF8FEF9FEF0895059769F4F89410921D
:103E1000B9031092B8031092BB031092BA037894BE
:103E200090E080E008958FEF9FEF08956115710590
:103E300019F4F0E0E0E011C08530910581F4E091E3
:103E4000B803F091B9033097A1F3CB01019609951E
:103E5000009779F3FC0185E08193CF0108959C01DF
:103E6000235031092230310520F72AE0289FD00164
:103E7000299FB00D1124A454BC4F2D913C91119752
:103E8000232BB9F216962D913C91179726173707D9
:103E900080F2F89412962D913C91139721153105DB
:103EA00029F0ED91FC911197309711F47894C1CFDE
:103EB0004181528111965C934E93215031091396A2
:103EC0003C932E93129781937894C7CFEAE5F3E061
:103ED0008EE5DF011D928A95E9F7EFE8F2E08BECC1
:103EE000DF011D928A95E9F710928E0210928D02E1
:103EF000ECEBF3E082E3DF011D928A95E9F7E8EB52
:103F0000F3E084E0DF011D928A95E9F790E080E01C
:103F10000895CF93DF93C0912101D0912201CF3F2B
:103F2000DC0759F4C2D3909322018093210197FFBB
:103F300009C0D0932201C093210184EF9FEFDF914C
:103F4000CF91089590E080E0FACF8230910528F477
:103F50008093EE0390E080E008958FEF9FEF089547
:103F60004F925F926F927F92AF92BF92CF92DF9209
:103F7000EF92FF920F931F93CF93DF9300D0CDB7B3
:103F8000DEB71A821982009709F478C061157105AD
:103F900009F474C0209121013091220107EF1FEF35
:103FA0002F3F3F4F09F444C06B015C01412C512C61
:103FB0003201F12CE12C10E000E09E012F5F3F4F19
:103FC000A6014E195F09B5016E0D7F1D809121017B
:103FD00090912201C8D3892B09F04AC089819A8126
:103FE000009741F4E114F10429F42091EE03222317
:103FF00009F441C0E80EF91EEC14FD04C8F480E891
:10400000481684E858068EE16806710418F560E0E9
:1040100070E0CB0175D72AE0420E511C611C711C67
:104020000A3F4FEF140721F0043F8FEF1807A1F468
:10403000C8010F900F90DF91CF911F910F91FF90CA
:10404000EF90DF90CF90BF90AF907F906F905F9098
:104050004F90089501EF1FEF81E090E0013F2FEFB7
:10406000120711F090E080E0892B09F4A6CFE0CF91
:1040700004EF1FEFDDCF0AEF1FEFDACF0FEF1FEFD7
:10408000D7CF4F925F926F927F92AF92BF92CF92B3
:10409000DF92EF92FF920F931F93CF93DF9300D0A5
:1040A000CDB7DEB71A821982009709F478C061157E
:1040B000710509F474C0209121013091220107EFAC
:1040C0001FEF2F3F3F4F09F444C06B015C01412CAF
:1040D000512C3201F12CE12C10E000E09E012F5F09
:1040E0003F4FA6014E195F09B5016E0D7F1D8091EE
:1040F000210190912201EDD2892B09F04AC08981DA
:104100009A81009741F4E114F10429F42091EE031F
:10411000222309F441C0E80EF91EEC14FD04C8F492
:1041200080E8481686E9580688E96806710418F59B
:1041300060E070E0CB01E4D62AE0420E511C611C25
:10414000711C0E3F4FEF140721F0043F8FEF18074B
:10415000A1F4C8010F900F90DF91CF911F910F91A3
:10416000FF90EF90DF90CF90BF90AF907F906F90D7
:104170005F904F90089502EF1FEF81E090E0023FC3
:104180002FEF120711F090E080E0892B09F4A6CF01
:10419000E0CF04EF1FEFDDCF0EEF1FEFDACF0FEF11
:1041A0001FEFD7CF80912101909122018F3F980777
:1041B00049F073D2892B49F48FEF9FEF909322013E
:1041C0008093210190E080E0089584EF9FEF0895AF
:1041D000FC01680F791F90E080E0E617F70709F40B
:1041E00008952191820F911DF8CF2091EF032111A5
:1041F00013C08FDE009791F41092F5031092F40330
:104200001092F3031092F2031092F1031092F00354
:1042100021E02093EF03089584EF9FEF0895AF927C
:10422000BF92CF92DF92EF92FF920F931F93CF93A3
:10423000DF93009709F460C04630510508F45CC074
:104240002091EF03C7EFDFEF222309F449C08C016F
:10425000060F171FF801C080D180C114D10409F4E2
:104260004EC096012A5F3F4F4217530708F447C0DC
:104270007C018091F4039091F50393838283B601CE
:104280006C5F7F4F5801A60EB71EC801A1DFF50174
:104290009183808364E070E0C80162DEEC01892BC9
:1042A000F9F481E090E051DEB601C801049658DED1
:1042B000EC01892B91F462E070E0C50151DEEC0164
:1042C000892B59F4C70126DC8091F4039091F50302
:1042D00001969093F5038093F40390E080E035DE3F
:1042E000CE01DF91CF911F910F91FF90EF90DF9062
:1042F000CF90BF90AF900895CFEFDFEFF1CFC9EF30
:10430000DFEFEECF6F927F928F929F92AF92BF922C
:10431000CF92DF92EF92FF920F931F93CF93DF9391
:1043200000D000D0CDB7DEB7009709F47AC04115B0
:10433000510509F476C02091EF0307EF1FEF222308
:1043400009F44DC03A017B015C0164E070E0CE01EC
:10435000019697DE8C01892B09F041C009811A81F1
:104360000115110509F45AC0480186E0880E911C18
:10437000B701680D791D809123019091240156DDCC
:104380006C01009709F450C0A70170E060E00E9442
:10439000A92A89819A81AB81BC81EC0CFD1CF701B3
:1043A00081939193A193B1937F0181E090E0CDDD62
:1043B000B801C70166DE892B31F562E070E0C70104
:1043C000800F911F5EDE8C01892BE9F490E080E084
:1043D000BCDDF501D182C082F30191828082C801E7
:1043E0000F900F900F900F90DF91CF911F910F9131
:1043F000FF90EF90DF90CF90BF90AF909F908F9005
:104400007F906F90089590E080E09FDDF50111822C
:104410001082F30111821082C6017CDB09EF1FEFCD
:10442000DECF0FEF1FEFDBCF06EF1FEFD8CF0097E8
:10443000A1F04115510589F02115310571F0F901FF
:1044400036966E177F0748F0DC012D933C93DA0116
:10445000ED93FC9390E080E008958FEF9FEF089537
:10446000AF92BF92CF92DF92EF92FF920F931F9382
:10447000CF93DF93009709F45FC04115510509F40C
:104480005BC06530710508F457C02091EF03C7EF9A
:10449000DFEF222391F1DC01CD90DC901197129691
:1044A000ED91FC9196012A5F3F4FC9EFDFEF261790
:1044B000370719F5C091F003D091F103209749F522
:1044C00021E030E03093F1032093F0037A018C0176
:1044D000F093F303E093F2035601B4E0AB0EB11C8A
:1044E000B50176DE0A0D1B1DF8012081318182178E
:1044F000930729F5D701CD92DC92CE01DF91CF91C0
:104500001F910F91FF90EF90DF90CF90BF90AF90F1
:1045100008952091F2033091F3032F5F3F4FCCEFCA
:10452000DFEFE217F30790F2CBEFDFEF2E173F0735
:1045300068F2D0E0C0E0CACFCFEFDFEFDECFC3EF4D
:10454000DFEFDBCF84E090E0089582E090E0089513
:104550008CEF9FEF089580E290E008951092F503AC
:104560001092F4031092F3031092F2031092F103ED
:104570001092F00390E080E00895909324018093DE
:10458000230108958091EF03882391F00BDE0097BB
:1045900089F41092F5031092F4031092F303109231
:1045A000F2031092F1031092F0031092EF030895BA
:1045B00090E080E00895009749F06115710531F0B1
:1045C000FC0111821082FB01118210820895F3CF49
:1045D00040E855E260E070E090E080E002D00C94AA
:1045E0009700892B21F426E087E094E056C60895D1
:1045F0001F920F920FB60F9211242F933F934F9358
:104600005F936F937F938F939F93AF93BF93EF933A
:10461000FF938FE89DEF9093850080938400B6D040
:10462000FF91EF91BF91AF919F918F917F916F918A
:104630005F914F913F912F910F900FBE0F901F9060
:1046400018958FE89DEF9093850080938400AFE6E6
:10465000B0E08C918E7F8C93E0E8F0E080818C7FDD
:104660008083E1E8F0E08081877E808380818460C0
:10467000808380818C7F80838C9181608C9308956E
:10468000EFE6F0E0808190819E7F908381700895B5
:1046900081E008951092F603089568EE73E080E0DB
:1046A00090E02ED490E080E0089526E040E052ECC7
:1046B00061E070E087E094E0F0D587E094E023D5F6
:1046C000892B21F087E094E038D5F7CF90E080E0A7
:1046D0000895CF92DF92EF92FF920F931F93CF93A3
:1046E000DF936B017A01E9011982188287E094E077
:1046F0000AD5892B69F18601CC24C39482E0D82E97
:104700008091F603811110C087E094E016D50297DE
:10471000B9F7C092F603F801D1928F01888199818F
:10472000019699838883ECCF888199818E159F05A6
:1047300078F487E094E001D58F3F9807A9F3F8015A
:1047400081938F0188819981019699838883ECCF29
:1047500090E080E0DF91CF911F910F91FF90EF905B
:10476000DF90CF9008950F931F93CF93DF93EA01CB
:10477000890187E094E075D6F801D183C08390E089
:1047800080E0DF91CF911F910F910895CF92DF923A
:10479000EF92FF928091F70391E0980F9093F703C7
:1047A000882369F021E030E03093F9032093F80387
:1047B0008093F703FF90EF90DF90CF900895789467
:1047C000E0912601F0912701C28CD38CE48CF58C0A
:1047D0000E941703B701A60190E080E00E94440206
:1047E000F8948091F7038150E3CF0F931F93CF93F9
:1047F000DF931092CC041092CB04B8D3E9DEC091C1
:104800002601D0912701198218826FEF7FEFCB012B
:104810000E94BD0270E060E090E080E00E944C01E8
:10482000009709F03AC00E94D503F8947894BE012D
:104830006E5D7F4F8A819B810E944F01892B59F4C5
:104840006FEF7FEFCB010E94DA010E94B70288234D
:1048500011F081E08EA3F894F4DE0E94BA0288235E
:1048600011F080E008C00E94B7028111FACF81E008
:104870009EA19111F6CF8093CB0478940E94510BA6
:104880008C0178948091CB0481110CC00E9490041B
:104890000E94A002F89490E080E0DF91CF911F91F8
:1048A0000F9108950E949E020E94BA028823D9F0B7
:1048B00081E08093CC049091CC0481E0911180E060
:1048C0008093CB048091CC048111DADE0130110594
:1048D00029F40E94510B892B09F4DCDE0E94510B54
:1048E0008C01D6DECFCF0E94B7028111E1CF81E0EB
:1048F0009EA19111DECF80E0DCCF5058BB27AA27C4
:104900000ED0A5C196D130F09BD120F031F49F3F5D
:1049100011F41EF48BC10EF4E095E7FB58C1E92FAA
:10492000A7D180F3BA17620773078407950718F0B9
:1049300071F49EF5D6C10EF4E0950B2EBA2FA02D82
:104940000B01B90190010C01CA01A0011124FF273C
:10495000591B99F0593F50F4503E68F11A16F04037
:10496000A22F232F342F4427585FF3CF4695379536
:104970002795A795F0405395C9F77EF41F16BA0BFB
:10498000620B730B840BBAF09150A1F0FF0FBB1FA9
:10499000661F771F881FC2F70EC0BA0F621F731FF2
:1049A000841F48F4879577956795B795F7959E3F4F
:1049B00008F0B3CF9395880F08F09927EE0F9795DD
:1049C0008795089577D180F09F3740F491110EF4C8
:1049D00089C160E070E080E89FE3089526F01B162F
:1049E000611D711D811DF9C013C1CDD008F481E096
:1049F000089546D188F09F5790F0B92F9927B75165
:104A0000A0F0D1F0660F771F881F991F1AF0BA9592
:104A1000C9F712C0B13081F064D1B1E0089561C12D
:104A2000672F782F8827B85F39F0B93FCCF3869588
:104A300077956795B395D9F73EF4909580957095E5
:104A400061957F4F8F4F9F4F0895E89409C097FB62
:104A50003EF490958095709561957F4F8F4F9F4F55
:104A60009923A9F0F92F96E9BB279395F695879599
:104A700077956795B795F111F8CFFAF4BB0F11F45C
:104A800060FF1BC06F5F7F4F8F4F9F4F16C0882303
:104A900011F096E911C0772321F09EE8872F762F39
:104AA00005C0662371F096E8862F70E060E02AF07A
:104AB0009A95660F771F881FDAF7880F9695879566
:104AC00097F90895F7D080F09F3740F491110EF0D8
:104AD00009C160E070E080E89FEB089526F41B16A2
:104AE000611D711D811D79C093C0A3D018F011F014
:104AF000A7D038F49BC0F6C0E92FBAD0B0F3552345
:104B0000C9F3E7FB6217730784079507A8F199F3C8
:104B1000E92FFF2788232AF03197660F771F881F18
:104B2000DAF7952F5527442332F091505040220F49
:104B3000331F441FD2F7BB27E91BF50B621B730B16
:104B4000840BB109C1F222F4620F731F841FB11DDF
:104B500031972AF0660F771F881FBB1FEFCF915048
:104B600050405AF041F0882332F0660F771F881FBB
:104B700091505040C1F793954BC0869577956795B6
:104B80009F5FD9F7F8CF990F0008550FAA0BE0E8FF
:104B9000FEEF16161706E807F907C0F012161306FF
:104BA000E407F50798F0621B730B840B950B39F43F
:104BB0000A2661F0232B242B252B21F408950A26A5
:104BC00009F4A140A6958FEF811D811D089597F9E5
:104BD0009F6780E870E060E00895882371F4772390
:104BE00021F09850872B762F07C0662311F4992760
:104BF0000DC09051862B70E060E02AF09A95660F08
:104C0000771F881FDAF7880F9695879597F908958B
:104C10009F3F31F0915020F4879577956795B79530
:104C2000880F911D9695879597F908959FEF80ECD1
:104C3000089500240A941616170618060906089502
:104C400000240A9412161306140605060895092E68
:104C50000394000C11F4882352F0BB0F40F4BF2BD7
:104C600011F460FF04C06F5F7F4F8F4F9F4F089517
:104C700057FD9058440F551F59F05F3F71F047950D
:104C8000880F97FB991F61F09F3F79F087950895F2
:104C9000121613061406551FF2CF4695F1DF08C011
:104CA000161617061806991FF1CF8695710561052E
:104CB00008940895E5DFA0F0BEE7B91788F4BB2794
:104CC0009F3860F41616B11D672F782F8827985FDC
:104CD000F7CF869577956795B11D93959639C8F36B
:104CE0000895E894BB2766277727CB0197F90895A5
:104CF0004ADF08F48FEF08950BD0A9CF9ADF28F090
:104D00009FDF18F0952309F062CF90CF1124EACFEE
:104D1000AFDFA0F3959FD1F3950F50E0551F629F31
:104D2000F001729FBB27F00DB11D639FAA27F00D04
:104D3000B11DAA1F649F6627B00DA11D661F829F2B
:104D40002227B00DA11D621F739FB00DA11D621F10
:104D5000839FA00D611D221F749F3327A00D611D2D
:104D6000231F849F600D211D822F762F6A2F11240F
:104D70009F5750408AF0E1F088234AF0EE0FFF1F62
:104D8000BB1F661F771F881F91505040A9F79E3F99
:104D9000510570F01CCFA6CF5F3FECF3983EDCF3DB
:104DA000869577956795B795F795E7959F5FC1F7D6
:104DB000FE2B880F911D9695879597F90895CF93AF
:104DC000CFB7F8948091FD03811123C0EAE9F0E0A8
:104DD0008491E6E8F0E09491E82FF0E0EE0FFF1FF9
:104DE000E255FF4FA591B491EC91E92319F461E0EC
:104DF0008AE05CD161E08AE01DD18CB580618CBD18
:104E00008CB580648CBD61E08DE014D161E08BE0F5
:104E100011D18091FD038F5F8093FD03CFBFCF91B0
:104E200008951F920F920FB60F9211242F933F9364
:104E30008F939F93AF93BF938091FF039091000452
:104E4000A0910104B09102043091FE0323E0230FEE
:104E50002D3758F50196A11DB11D2093FE038093B7
:104E6000FF0390930004A0930104B0930204809187
:104E7000030490910404A0910504B09106040196E6
:104E8000A11DB11D8093030490930404A093050415
:104E9000B0930604BF91AF919F918F913F912F9155
:104EA0000F900FBE0F901F90189526E8230F0296C3
:104EB000A11DB11DD2CF3FB7F8948091030490910A
:104EC0000404A0910504B091060426B5A89B05C072
:104ED0002F3F19F00196A11DB11D3FBFBA2FA92F79
:104EE000982F8827BC01CD01620F711D811D911D76
:104EF00042E0660F771F881F991F4A95D1F70895E2
:104F00008F929F92AF92BF92CF92DF92EF92FF92D9
:104F10006B017C01D0DF4B015C01C114D104E104C1
:104F2000F104D9F0CBD2C7DF681979098A099B0946
:104F3000683E73408105910580F321E0C21AD108D3
:104F4000E108F10888EE880E83E0981EA11CB11CD0
:104F5000C114D104E104F10431F7FF90EF90DF9028
:104F6000CF90BF90AF909F908F900895789484B524
:104F7000826084BD84B5816084BD85B5826085BD55
:104F800085B5816085BDEEE6F0E08081816080833B
:104F9000E1E8F0E01082808182608083808181601E
:104FA0008083E0E8F0E0808181608083E1EBF0E0E5
:104FB000808184608083E0EBF0E080818160808389
:104FC000EAE7F0E080818460808380818260808372
:104FD0008081816080838081806880831092C1009D
:104FE0000895833081F028F4813099F08230A9F05F
:104FF00008958730A9F08830C9F08430B1F48091E9
:1050000080008F7D03C0809180008F778093800027
:10501000089584B58F7784BD089584B58F7DFBCFC7
:105020008091B0008F778093B00008958091B00098
:105030008F7DF9CFCF93DF9390E0FC01E458FF4FD1
:10504000249180579F4FFC0184918823C9F090E000
:10505000880F991FFC01E255FF4FA591B491FC0107
:10506000EC55FF4FC591D49161110DC09FB7F894D5
:105070008C91209582238C938881282328839FBF3D
:10508000DF91CF910895623051F49FB7F8943C912D
:10509000822F809583238C93E8812E2BEFCF8FB7BF
:1050A000F894EC912E2B2C938FBFEACF1F93CF93C4
:1050B000DF93282F30E0F901E859FF4F8491F9017F
:1050C000E458FF4FD491F901E057FF4FC491CC232E
:1050D000A1F0162F811185DFEC2FF0E0EE0FFF1FFE
:1050E000EC55FF4FA591B4918FB7F894EC91111145
:1050F00008C0D095DE23DC938FBFDF91CF911F9145
:105100000895DE2BF8CFFC01918D228D892F90E040
:10511000805C9F4F821B91098F7399270895FC0132
:10512000918D828D981731F0828DE80FF11D858D5C
:1051300090E008958FEF9FEF0895FC01918D828D8F
:10514000981761F0A28DAE0FBF2FB11D5D968C91A7
:10515000928D9F5F9F73928F90E008958FEF9FEFE6
:105160000895FC01538D448D252F30E0842F90E06D
:10517000821B930B541710F0CF9608950197089552
:10518000FC01A48DA80FB92FB11DA35ABF4F2C91BC
:10519000848D90E001968F739927848FA689B789B3
:1051A0002C93A089B1898C91837080648C93938DAA
:1051B000848D981306C00288F389E02D80818F7D4D
:1051C00080830895CF93DF93EC01888D8823B1F01D
:1051D000AA89BB89E889F9898C9185FD03C0808102
:1051E00086FD0CC00FB607FCF7CF8C9185FFF2CF80
:1051F000808185FFEDCFCE01C3DFEACFDF91CF9174
:105200000895EF92FF920F931F93CF93DF93EC01DA
:1052100081E0888F9B8D8C8D98131AC0E889F9895D
:10522000808185FF15C09FB7F894EE89FF89608360
:10523000E889F98980818370806480839FBF81E0E1
:1052400090E0DF91CF911F910F91FF90EF90089523
:10525000F62E0B8D10E00F5F1F4F0F731127E02EFE
:105260008C8D8E110BC00FB607FCFACFE889F98937
:10527000808185FFF5CFCE0183DFF2CFEB8DEC0F80
:10528000FD2FF11DE35AFF4FF0829FB7F8940B8F6B
:10529000EA89FB8980818062D0CFCF92DF92EF9242
:1052A000FF921F93CF93DF93EC016A017B01122FD2
:1052B000E889F98982E08083C11481EED806E1048F
:1052C000F10499F060E079E08DE390E0A7019601A8
:1052D000F6D0215031094109510956954795379526
:1052E0002795211580E1380790F0E889F989108227
:1052F00060E874E88EE190E0A7019601E0D02150CB
:105300003109410951095695479537952795EC85FF
:10531000FD853083EE85FF852083188EEC89FD891D
:105320001083EA89FB89808180618083EA89FB8917
:10533000808188608083EA89FB898081806880839E
:10534000EA89FB8980818F7D8083DF91CF911F91D6
:10535000FF90EF90DF90CF9008951F920F920FB6BD
:105360000F9211242F938F939F93EF93FF93E091CC
:105370001704F09118048081E0911D04F0911E043F
:1053800082FD1BC09081809120048F5F8F732091DC
:105390002104821741F0E0912004F0E0E95FFB4F27
:1053A000958F80932004FF91EF919F918F912F9182
:1053B0000F900FBE0F901F9018958081F4CF1F9211
:1053C0000F920FB60F9211242F933F934F935F9339
:1053D0006F937F938F939F93AF93BF93EF93FF93BD
:1053E00087E094E0CDDEFF91EF91BF91AF919F9167
:1053F0008F917F916F915F914F913F912F910F907E
:105400000FBE0F901F901895E7E0F4E01382128210
:1054100088EE93E0A0E0B0E084839583A683B78311
:1054200086EB91E09183808385EC90E0958784877B
:1054300084EC90E09787868780EC90E0918B808B5E
:1054400081EC90E0938B828B82EC90E0958B848B47
:1054500086EC90E0978B868B118E128E138E148EB5
:105460000895AF92BF92CF92DF92EF92FF920F9387
:105470001F93CF93DF936C017B018B01040F151FEA
:10548000EB015E01AE18BF08C017D10759F0699152
:10549000D601ED91FC910190F081E02DC6010995B6
:1054A000892B79F7C501DF91CF911F910F91FF9063
:1054B000EF90DF90CF90BF90AF9008950895A1E254
:1054C0001A2EAA1BBB1BFD010DC0AA1FBB1FEE1F7E
:1054D000FF1FA217B307E407F50720F0A21BB30BC9
:1054E000E40BF50B661F771F881F991F1A9469F745
:1054F00060957095809590959B01AC01BD01CF01A1
:105500000895EE0FFF1F0590F491E02D099409D046
:10551000A59F900DB49F900DA49F800D911D112407
:105520000895A29FB001B39FC001A39F700D811D7C
:105530001124911DB29F700D811D1124911D08959C
:10554000FB01DC0102C001900D9241505040D8F7A0
:105550000895DC0101C06D9341505040E0F708957B
:04556000F894FFCFED
:10556400000020410000803FFEFFFFFF01E8030030
:1055740000FFFF00000000FFFFFFFFFFFFFFFFFF32
:10558400FFFFFFFFFF01D601FF00A80DD40DFE00B1
:105594008E0D0F0BFD00200D7A0DFC00660D0F0B18
:1055A400F600570E0F0BF5002D0D960EF400200E8D
:1055B400AD0EDE00D9126E15DD0046140F0BDA00B5
:1055C40061106910D90089157910E200490F0F0B99
:1055D400E100840F0F0BE000F90F0F0BD6005D19EB
:1055E4000F0BD50006120F0BD40092110F0BD30032
:1055F40003110F0BC00088100F0BF000C6190F0B1E
:10560400ED0083190F0B01000100010008002000C8
:105614003000000000000129312AB128E228832843
:045624009D288F2806
:00000001FF
