:1000000005C100000C948A2C0C94B52C0C94E02CA7
:100010000C940B2D0C94362D0C94612D0C948C2D7E
:100020000C94B72D24C1000022C1000020C10000A3
:100030001EC100001CC100001AC1000018C1000050
:1000400016C1000014C1000012C1000010C1000060
:100050000EC100000CC100000AC100000C94E22D8A
:1000600006C100000C94DE310C94143200C1000073
:10007000FEC00000FCC00000FAC00000F8C0000094
:10008000F6C00000F4C00000F2C00000F0C00000A4
:100090000C946A320C94A032EAC00000E8C0000060
:1000A000E6C00000E4C00000E2C00000E0C00000C4
:1000B000DEC00000DCC00000DAC00000D8C00000D4
:1000C000D6C00000D4C000000C9476280C94F63200
:1000D0000C942C33CCC000000C9482330C94B833B5
:1000E000C6C0000000000A0B02090C0D0E08070331
:1000F00004010000000000000000000000000000FB
:1001000000000000000000000000000000000000EF
:1001100012111000000000000000000000000000AC
:100120000000000000000000000001021020200874
:100130000810204010204080020102010804020142
:1001400001020408102040808040201008040201B1
:10015000800402018040201008040201080402010A
:100160000102040810204080010204081020408091
:1001700005050505070508080808020202020A0A23
:100180000808040404040101010101010101030341
:10019000030303030303040707070C0C0C0C0C0CEC
:1001A0000C0C0202020206060606060606060B0BE9
:1001B0000B0B0B0B0B0B000020002300260029006B
:1001C0002C002F003200000100000301060109018C
:1001D00000002200250028002B002E0031003400F2
:1001E00002010000050108010B01000021002400AC
:1001F00027002A002D003000330001010000040117
:1002000007010A013D32C9325533E13311241FBEC3
:10021000CFEFD1E2DEBFCDBF00E00CBF12E0A0E027
:10022000B2E0E2E2F9E600E00BBF02C007900D92F7
:10023000A23FB107D9F729E0A2EFB2E001C01D92B9
:10024000A238B207E1F711E0C6E0D1E000E006C055
:1002500021970109802FFE010E945E34C230D10730
:1002600080E00807A9F70E9463290C948F34C8CE58
:10027000CF93DF93EC0170E060E06C177D070CF525
:10028000072E000C880B990B0E94F82A20E030E022
:10029000A9010E94F52920E030E0A9010E94F5297A
:1002A00020E030E040E450E40E94F52920E030E016
:1002B00040E450E40E94F4290E94C52A6F5F7F4FFA
:1002C000DCCFDF91CF9108950F931F93CF93DF93EE
:1002D000EC018C810E948C308C018C859D85C8DF5F
:1002E00088850E948C30488159816A817B81019781
:1002F00081F40130110579F44F5F5F4F6F4F7F4FED
:10030000488359836A837B83DF91CF911F910F913B
:100310000895012B89F34150510961097109F0CF0A
:1003200083EF92E0D1CF83E093E0CECF83E193E0FF
:10033000CBCF83E293E0C8CF0F931F93CF93DF938C
:10034000EC0188850E948C308C018C859D8590DF26
:100350008C810E948C30488159816A817B81019710
:1003600079F4012B81F44F5F5F4F6F4F7F4F4883CC
:1003700059836A837B83DF91CF911F910F910895F9
:100380000130110581F34150510961097109EFCF25
:1003900083EF92E0D1CF83E093E0CECF83E193E08F
:1003A000CBCF83E293E0C8CF0F931F93CF93DF931C
:1003B000D82FC62F8A01E091F20280E1E89FF00178
:1003C0001124ED50FD4F8D2F90E0B0E0A0E084832C
:1003D0009583A683B783862F90E0B0E0A0E0808766
:1003E0009187A287B387108211821282138281E0E3
:1003F00090E0A0E0B0E084879587A687B78760E0AB
:100400008D2F0E94233060E08C2F0E94233080913A
:10041000F202813009F43FC0A8F0823009F462C0D2
:10042000833009F486C08091F20291E0980F909396
:10043000F202F801808390E080E0DF91CF911F917C
:100440000F91089580E0D23049F081E0D33031F04F
:100450008EEE8D0F8430D8F487E18D1B41E050E0A3
:1004600068EC71E00E94102C80E0C23049F081E01D
:10047000C33031F08EEE8C0F843058F487E18C1B42
:1004800041E050E060E971E00E94102CCCCF8FEF8A
:10049000E5CF8FEFF5CF80E0D23049F081E0D33067
:1004A00031F08EEE8D0F8430C8F487E18D1B41E072
:1004B00050E06BEC71E00E94102C80E0C23049F0FB
:1004C00081E0C33031F08EEE8C0F843048F487E148
:1004D0008C1B41E050E063E971E0D6CF8FEFE7CFAE
:1004E0008FEFF7CF80E0D23049F081E0D33031F0A8
:1004F0008EEE8D0F8430C8F487E18D1B41E050E013
:100500006EEC71E00E94102C80E0C23049F081E076
:10051000C33031F08EEE8C0F843048F487E18C1BB1
:1005200041E050E066E971E0AFCF8FEFE7CF8FEFAA
:10053000F7CF80E0D23049F081E0D33031F08EEE59
:100540008D0F8430C8F487E18D1B41E050E061EDF0
:1005500071E00E94102C80E0C23049F081E0C3308D
:1005600031F08EEE8C0F843048F487E18C1B41E033
:1005700050E069E971E088CF8FEFE7CF8FEFF7CFD9
:1005800090E1899FF0011124ED50FD4F8081918110
:10059000A281B381FB0180839183A283B38390E026
:1005A00080E0089590E1899FF0011124ED50FD4F06
:1005B000108211821282138290E080E0089590E010
:1005C00080E00895CF92DF92EF92FF92CF9388233D
:1005D00051F16A017B01CFEFC80F20E030E0A901A3
:1005E000CB01B6010E94592A87FF11C0C701B6018D
:1005F00090580E94CA2A9B01AC016C2F70E090E0D9
:1006000080E0CF91FF90EF90DF90CF90B2C0C70114
:10061000B6010E94C52A8C2FCF91FF90EF90DF90FA
:10062000CF900C94E92ECF91FF90EF90DF90CF9078
:1006300008950F931F938B019C0183E036952795B6
:10064000179507958A95D1F70D5C1C4F462F47707B
:1006500021E030E0F90102C0EE0FFF1F4A95E2F7FA
:10066000AF01F80120812423CB010196211102C0A2
:1006700090E080E01F910F9108950F931F938B01DD
:100680009C0183E036952795179507958A95D1F7B4
:10069000677081E090E001C0880F6A95EAF7F80181
:1006A000ED5CFC4F2081452B31F4809582238083C3
:1006B0001F910F910895822BFACF2F923F924F9264
:1006C0005F926F927F928F929F92AF92BF92CF92E2
:1006D000DF92EF92FF920F931F93CF93DF93D62E6B
:1006E000C72E782E692E49015A01280161E08D2D0F
:1006F0000E942330CD2DDC2D8E010F5F1F4FA801EE
:100700006D2D7C2D872D962DB8DF20E030E0A901DE
:10071000C201B7010E94A82B181664F4C201B701E8
:100720000E94CA2A2B01C501B4010E94CA2AA20153
:10073000CE0123D0C801DF91CF911F910F91FF907F
:10074000EF90DF90CF90BF90AF909F908F907F9071
:100750006F905F904F903F902F900895882341F0C5
:100760008150682F70E090E080E050E040E085CF5D
:100770000895862FB9010C94E92E9C01FC01EC51DF
:10078000FF4FE491E150E231E0F4F0E08827E453D8
:10079000FC4F8F4F0C945E34DE03E503E803FF0348
:1007A0001404E103290435043904500465047A046F
:1007B0009104A604E103BB04D204E70484B5806875
:1007C00084BD60E0822F0C945F3084B58062F8CFE6
:1007D000809180008C7F8260809380008091810076
:1007E000807E8061682B60938100509387004093E6
:1007F000860080918000806880938000E2CF8091A5
:1008000080008C7F82608093800080918100807E58
:100810008061682B6093810050938700409386002D
:10082000809180008062E8CF809180008C7F826020
:100830008093800080918100807E8061682B60932E
:1008400081005093870040938600809180008860EB
:10085000D3CF8091B00080688093B0008091B100C8
:10086000887F682B6093B100ACCF8091B00080622C
:10087000F3CF809190008C7F826080939000809174
:100880009100807E8061682B609391005093970067
:10089000409396008091900080688093900091CF63
:1008A000809190008C7F8260809390008091910075
:1008B000807E8061682B60939100509397004093F5
:1008C0009600809190008062E8CF809190008C7FAC
:1008D00082608093900080919100807E8061682B7F
:1008E0006093910050939700409396008091900000
:1008F0008860D3CF8091A0008C7F82608093A0001D
:100900008091A100807E8061682B6093A10050934C
:10091000A7004093A6008091A00080688093A0006B
:1009200050CF8091A0008C7F82608093A000809146
:10093000A100807E8061682B6093A1005093A70086
:100940004093A6008091A0008062E8CF8091A00033
:100950008C7F82608093A0008091A100807E806166
:10096000682B6093A1005093A7004093A60080914C
:10097000A0008860D3CF809120018C7F826080931B
:10098000200180912101807E8061682B609321018C
:100990005093270140932601809120018068809325
:1009A00020010FCF809120018C7F826080932001F5
:1009B00080912101807E8061682B6093210150939A
:1009C000270140932601809120018062E8CF809129
:1009D00020018C7F82608093200180912101807EA4
:1009E0008061682B60932101509327014093260179
:1009F000809120018860D3CF90E080E008950F932C
:100A00001F93009709F487C06115710509F483C02D
:100A100000911402109115022091160230911702D4
:100A20000E3F1F4F2F4F3F4F09F066C04FEF5FEF54
:100A3000BA0140931402509315026093160270930A
:100A400017024091140250911502609116027091A4
:100A50001702DC011296ED91FC9180819181A281B7
:100A6000B3818093380490933904A0933A04B093EF
:100A70003B0484819581A681B7818093340490934F
:100A80003504A0933604B093370480859185A28500
:100A9000B3858093300490933104A0933204B093D3
:100AA000330484859585A685B78580932C0490931F
:100AB0002D04A0932E04B0932F04109228041092BA
:100AC000290410922A0410922B045CD787EE9CE034
:100AD00090933D0380933C0390933F0380933E03A8
:100AE00040D6009731F421E030E030933D0420936C
:100AF0003C041F910F91089500911402109115026A
:100B00002091160230911702DB010D931D932D9356
:100B10003C93139796CF8FEF9FEFEBCF8F929F92DF
:100B2000AF92BF92CF92DF92EF92FF921F93CF933B
:100B3000DF934B015C0110913F0482E090E09093C1
:100B40003D0480933C0481149104A104B10441F458
:100B500080913F04811104C080913E04C1E0811165
:100B6000C0E0C12CD12C760180913F04811106C0D8
:100B700080913E04811102C0CC23D9F083E090E043
:100B800090933D0480933C04CC2379F1CCE9DFEFD2
:100B9000111102C00E944C10CE01DF91CF911F9124
:100BA000FF90EF90DF90CF90BF90AF909F908F908D
:100BB00008956AE070E080E090E00E94512E80E1AC
:100BC000C80E87E2D81EE11CF11C8FEF881698062C
:100BD000A806B80631F0C1E08C149D04AE04BF0431
:100BE00008F0C0E080E0F1D5BFCFD0E0C0E0D0CFCA
:100BF000CF92DF92EF92FF920F931F93CF93DF93E9
:100C00008F3F910511F008F050C020913C043091C5
:100C10003D042330310539F020913C0430913D04EE
:100C20002130310531F424E030E030933D0420934D
:100C30003C046A017B01EC0182309105A0F011E0D7
:100C4000AE01C701B6018CD5AB01BC01CE011123A9
:100C5000F9F0DF91CF911F910F91FF90EF90DF900E
:100C6000CF900C9475128C01000F111F045C1C4F67
:100C7000D8018D919C91892B11F30E947F120297CC
:100C8000F1F6D801ED91FC91CE011995182FD8CF2E
:100C90000E94971290E080E0DF91CF911F910F9119
:100CA000FF90EF90DF90CF9008958FEF9FEFF4CFFC
:100CB00080E08BC5CF93DF9386E090E090933D0476
:100CC00080933C04DBD5EC01ECE3F3E084E0DF014E
:100CD0001D928A95E9F70E94E40F10923D0410924C
:100CE0003C04CE01DF91CF91089580913E04089598
:100CF00080912704089560931402709315028093E5
:100D000016029093170290E080E008952F923F9290
:100D10004F925F926F927F928F929F92AF92BF920B
:100D2000CF92DF92EF92FF920F931F93CF93DF93B7
:100D3000CDB7DEB72F970FB6F894DEBF0FBECDBF8D
:100D4000C0900802D0900902E0900A02F0900B02D5
:100D5000A701960160912B0970912C0980912D09B2
:100D600090912E090E94592A882341F0C0922B09A4
:100D7000D0922C09E0922D09F0922E0980912A0937
:100D8000811110922A09BE016F5F7F4F80912F0958
:100D9000F7DB69817A818B819C810E94F82A2091FE
:100DA00010023091110240911202509113020E94E0
:100DB000AC2B9B01AC012093580930935909409307
:100DC0005A0950935B0960910C0270910D02809159
:100DD0000E0290910F020E94F4294B015C01809257
:100DE0005C0990925D09A0925E09B0925F09209122
:100DF00000023091010240910202509103020E94D0
:100E0000AC2B6C877D878E879F876093600970937A
:100E100061098093620990936309E0910104F09164
:100E20000204C080D180E280F380109140090091DB
:100E300041093090420920904309A7019601612F92
:100E4000702F832D922D0E94A82B87FD0EC0A70125
:100E50009601609148097091490980914A099091E1
:100E60004B090E94A82B87FF79C1809148098D8387
:100E7000909149099987A0914A09AA87B0914B0995
:100E8000BB879C01AD01612F702F832D922D0E9495
:100E9000592AA701960187FF50C16D8179858A85FE
:100EA0009B850E94592A87FD50C14090440950906B
:100EB000450960904609709047091D8309873A8665
:100EC0002B862D8139854A855B85C701B6010E9435
:100ED000F4296B017C01A30192016C857D858E85CF
:100EE0009F850E94F429A70196010E945D2A6B014B
:100EF0007C0120910402309105024091060250913C
:100F00000702C501B4010E94AC2BA70196010E9403
:100F1000F52960936409709365098093660990933D
:100F2000670920E030E04EE753E40E94AC2B23E356
:100F300033E347EB51E40E945D2A6B017C0120E022
:100F400030E0A9010E94A82B812C912C5401181685
:100F500084F020E030E0A901C701B6010E94592ABF
:100F600087FF00C146015701E894B7F8C12CD12C86
:100F7000760168E070E080E090E05BDB8C019093AC
:100F80003F0980933E0920E030E04FE753E4C5017C
:100F9000B4010E94592A181634F4812C912C9FE731
:100FA000A92E93E4B92EB501A401C8010BDB69E0B9
:100FB00070E080E090E03DDB8C01909337098093F6
:100FC000360920E030E04FE753E4C701B6010E9444
:100FD000592A181634F4C12CD12C8FE7E82E83E45B
:100FE000F82EB701A601C801EDDA80914009909171
:100FF0004109A0914209B09143098D839E83AF833B
:10100000B887409070095090710960907209709093
:101010007309A3019201BC01CD010E94592AE091FC
:101020000104F09102048111A3C080819181A28109
:10103000B3818093400990934109A0934209B093F2
:101040004309E4E4F9E08091600990916109A0917D
:101050006209B091630980839183A283B383409135
:10106000EE035091EF036091F0037091F10390E073
:1010700080E0BEDD4091F6035091F7036091F803E4
:101080007091F90381E090E0B3DD6091EE0370911F
:10109000EF038091F0039091F1036F5F7F4F8F4FCB
:1010A0009F4F6093EE037093EF038093F003909350
:1010B000F10300910104109102040E94F62A9B01A1
:1010C000AC016091F2037091F3038091F40390916D
:1010D000F5030E94AC2BD8016D937D938D939C9367
:1010E00013978091F6039091F703A091F803B091C4
:1010F000F9030196A11DB11D8093F6039093F703A8
:10110000A093F803B093F9032F960FB6F894DEBFBF
:101110000FBECDBFDF91CF911F910F91FF90EF9048
:10112000DF90CF90BF90AF909F908F907F906F9007
:101130005F904F903F902F900895612F702F832DD7
:10114000922D0E94A82B87FDB0CE40904C09509064
:101150004D0960904E0970904F09B3CEC12CD12C2F
:101160007601C7CE812C912C54017501640101CF09
:101170008090480990904909A0904A09B0904B0985
:10118000C080D180E280F380A5019401C301B20147
:101190000E94592A81110BC0C0924809D092490976
:1011A000E0924A09F0924B09ECE4F9E04CCFA5013A
:1011B00094016D817E818F8198850E94592A87FFD5
:1011C000EBCFC0924009D0924109E0924209F092DF
:1011D000430937CF8F929F92AF92BF92DF92EF92E7
:1011E000FF920F931F93CF93DF9384E090E07FD122
:1011F000E6E5F3E08EEF93E097838683C1E0D4E0E9
:10120000D0939703C093960302EF13E0158B048BE2
:10121000F093C103E093C003F583E48321E030E061
:10122000DC012D933C9381E492E09387828723E055
:1012300034E03983288340E050E060EA70E4409372
:10124000FA035093FB036093FC037093FD034AE0A1
:1012500057ED63E27CE3D8014D935D936D937C93EE
:101260001397CCEDD3E08AEC90E7A9E0B4EB888348
:101270009983AA83BB838EE996E3A5E6B5E38093C1
:10128000E0039093E103A093E203B093E3038BEABE
:101290009FEAA3E1BDE48093E4039093E503A09368
:1012A000E603B093E7038AEF94E9AFE8B1EB8093EC
:1012B000E8039093E903A093EA03B093EB03AAE455
:1012C000B3E0B383A283E0E4F3E01196FC93EE93E2
:1012D00083E592E0918380839383828395838483E3
:1012E00097838683918780878CEE93E015969C93F5
:1012F0008E9314971396DC93CE93129717963C9384
:101300002E9316978091700990917109A09172099E
:10131000B0917309C4E2D9E08C8F9D8FAE8FBF8FDF
:101320008CA39DA3AEA3BFA31B8618828091080245
:1013300090910902A0910A02B0910B028F839887C5
:10134000A987BA871D82812C912C540183948982AC
:101350009A82AB82BC824FE259E063E082E024D8FB
:10136000DD24D394DD821E828B851CD91C8A198EC4
:101370008D8A9E8AAF8AB88EE12CF12C8701A80154
:10138000970168E070E080E090E097D99B8F8A8FAA
:10139000D98E1C86198A8D869E86AF86B88AA8014A
:1013A000970169E070E080E090E087D99B8B8A8BA1
:1013B000D98ADF91CF911F910F91FF90EF90DF902D
:1013C000BF90AF909F908F900895809124098111D4
:1013D00013C081E08093240980912509909126090A
:1013E000A0912709B09128090197A105B10521F421
:1013F000809129098111E3D88091380981112AC08F
:1014000081E0809338098091390990913A09A0913F
:101410003B09B0913C090197A105B105D9F4809130
:101420003D098823B9F068E070E080E090E001D9E0
:1014300090933F0980933E0940E050E0BA01C2D842
:1014400068E070E080E090E0F4D890933F098093EA
:101450003E0984D98091300981112AC081E08093AE
:1014600030098091310990913209A0913309B091EE
:1014700034090197A105B105D9F480913509882374
:10148000B9F069E070E080E090E0D3D8909337093C
:101490008093360940E050E0BA0194D869E070E0EA
:1014A00080E090E0C6D8909337098093360956C9FA
:1014B000089560E070E080E89FE7089560E070E0E4
:1014C00080E89FE7089560E070E080E89FEF08956E
:1014D00060E070E080E89FEF089560E070E080ECED
:1014E0009FEF089560E070E080EC9FEF0895F5DFD6
:1014F00060937409709375098093760990937709C6
:10150000F1DF609368097093690980936A09909389
:101510006B09CFDF60937009709371098093720932
:1015200090937309CBDF60936C0970936D0980937E
:101530006E0990936F09C7DF6093780970937909FA
:1015400080937A0990937B09C3DF60937C09709341
:101550007D0980937E0990937F0908954F925F9251
:101560006F927F928F929F92AF92BF92CF92DF92B3
:10157000EF92FF920F931F93F894409017045090AE
:1015800018046090190470901A04C0900B04D09055
:101590000C04E0900D04F0900E044130510509F068
:1015A000A4C09B01AC01241935094609570929013A
:1015B0003A01009113041091140420911504309104
:1015C000160448015901840C951CA61CB71C8016F2
:1015D0009106A206B306A0F400910F041091100426
:1015E00020911104309112040F5F1F4F2F4F3F4F76
:1015F00000930F04109310042093110430931204ED
:101600008092130490921404A0921504B0921604D0
:1016100000910F04109110042091110430911204D4
:1016200080921B0490921C04A0921D04B0921E0490
:1016300000931F041093200420932104309322046C
:1016400060931704709318048093190490931A04FC
:10165000A0E1B7E2A30192010E9466346C0D7D1DEA
:101660008E1D9F1D60930B0470930C0480930D04DA
:1016700090930E040091140210911502209116020D
:10168000309117020F3F1F4F2F4F3F4FF1F0009146
:1016900014021091150220911602309117020E3F8C
:1016A0001F4F2F4F3F4F89F0C0901402D09015026A
:1016B000E0901602F090170221E08C149D04AE0415
:1016C000BF0408F420E02093270478941F910F9121
:1016D000FF90EF90DF90CF90BF90AF909F908F9052
:1016E0007F906F905F904F9008954B015C0184183C
:1016F0009508A608B708A3019201261B370B480BD3
:10170000590B6415750586059705D0F0821693066A
:10171000A406B50640F420E030E0A901811491044C
:10172000A104B10491F4A0E1B7E20E946634A701DC
:101730009601261B370B480B590BCA01B901C5CFBF
:1017400082169306A406B50670F7A0E1B7E2A501DC
:1017500094010E9466346C0D7D1D8E1D9F1DB5CFBA
:10176000FDCECF93DF9300D01F92CDB7DEB71C82A2
:101770001B821A8219821092230410922404109260
:10178000250410922604BE016F5F7F4FCE010396A1
:101790000E94442869817A818B819C810E949F21CB
:1017A000009761F4BE016F5F7F4FCE0103960E94E8
:1017B000502869817A818B819C812FD50F900F9061
:1017C0000F900F90DF91CF910895FF920F931F9389
:1017D000CF93DF93082F60E070E0CB010E94512E81
:1017E000FF24F3940E948820EC01892B89F010E0FB
:1017F000CE3F8FEFD80769F0002361F160E070E021
:10180000CB010E94512E81E090E0892B59F322C038
:1018100011E026D5EC01892B21F0CE3F8FEFD807C0
:1018200059F711111EC011E0229609F410E00E9430
:101830003820EC01892B21F0CE3F8FEFD807E1F65D
:10184000111111C011E0CE3F8FEFD80709F410E05D
:1018500001110BC0CE01DF91CF911F910F91FF902D
:10186000089511E0E4CF11E0F3CF60E070E0CB0128
:101870000E94512E1F25812F90E0C7CFCF93DF9379
:1018800080912704882321F060E070E0CB014DD6E1
:1018900036D6D0E0C0E0892B71F06AE070E080E0DD
:1018A00090E00E94512E81E090DF29D62196C03D24
:1018B00027E0D20781F728D60E94F32110923F0437
:1018C00010923E04109238041092390410923A0497
:1018D00010923B0410923404109235041092360496
:1018E0001092370410923004109231041092320496
:1018F0001092330410922C0410922D0410922E0496
:1019000010922F04109228041092290410922A0495
:1019100010922B044EEF5FEF6FEF7FEF40931402B6
:1019200050931502609316027093170210922704C9
:10193000EBE1F4E028E0DF011D922A95E9F710922F
:101940001704109218041092190410921A0410929D
:10195000130410921404109215041092160410929D
:101960000F0410921004109211041092120410929D
:101970000B0410920C0410920D0410920E04DF91CF
:10198000CF91089510924B0410924C0410924D0484
:1019900010924E0410924A04809153049091540482
:1019A000909349048093480410924704109246048F
:1019B0001092420410924304109244041092450481
:1019C0001092500410924F0490E080E00895CF925E
:1019D000DF92EF92FF920F931F93CF938C010197A9
:1019E00009F055C02091530430915404809148046B
:1019F00090914904409153045091540450934904E8
:101A0000409348042817390781F010924704109238
:101A1000460410924204109243041092440410921F
:101A200045041092500410924F04809153049091F9
:101A30005404019761F580914F0490915004892BD3
:101A400021F480911802811112C080914F0490916D
:101A500050040197E1F48091420490914304A091D5
:101A60004404B09145040197A105B10581F4109299
:101A700042041092430410924404109245041092C0
:101A8000180282E090E09093500480934F0480917C
:101A9000530490915404019709F01CC1809169048A
:101AA00090916A048017910709F014C18091650430
:101AB00090916604A0916704B0916804009709F4BE
:101AC00009C12091640421110DC040916504509119
:101AD00066046091670470916804452B462B472B80
:101AE00009F4F8C020914F043091500422303105A0
:101AF00009F0F0C0209146042111ECC0FC01C08027
:101B0000D180E280F38080914A04882309F4D3C015
:101B10008091560490915704892B09F4FEC02091BE
:101B200056043091570481E02230310509F080E0FD
:101B30002091560430915704C1E02130310549F01D
:101B40002091560430915704C1E02230310509F04C
:101B5000C0E0882309F456C02091600430916104EC
:101B60004091620450916304C701B6010E94A82B02
:101B700087FD14C02091600430916104409162049B
:101B80005091630460914B0470914C0480914D041A
:101B900090914E040E94592A87FD22C02091600432
:101BA000309161044091620450916304C701B60111
:101BB0000E94A82B181634F520916004309161041E
:101BC000409162045091630460914B0470914C0405
:101BD00080914D0490914E040E94592A811112C0A7
:101BE0008091580490915904A0915A04B0915B04DB
:101BF000892B8A2B8B2B19F481E08093470481E099
:101C000080934604CC2309F456C02091600430919F
:101C100061044091620450916304C701B6010E94BF
:101C2000592A87FF14C020916004309161044091CB
:101C300062045091630460914B0470914C04809154
:101C40004D0490914E040E94A82B87FF22C0209142
:101C50006004309161044091620450916304C701B3
:101C6000B6010E94592A811126C02091600430914A
:101C70006104409162045091630460914B0470913F
:101C80004C0480914D0490914E040E94A82B18168C
:101C900094F48091580490915904A0915A04B09101
:101CA0005B04892B8A2B8B2B19F481E080934704EA
:101CB00081E08093460481E090914604911180E098
:101CC00080934A04C0924B04D0924C04E0924D049D
:101CD000F0924E040130110509F067C180914F0464
:101CE00090915004892BD9F4109255041092460417
:101CF00080911802882379F082E090E0909350045C
:101D000080934F0410921802209153043091540490
:101D100081E0232BE9F080E01BC081E009CF109225
:101D2000180280915504882349F0109247041092BC
:101D3000500410924F0410925504EDCF809153043B
:101D400090915404892BE1F080914604109246044E
:101D500020914F04309150042230310509F45EC0C7
:101D600088F42115310509F448C02130310509F402
:101D7000F3C010924704109246041092550438C0E4
:101D800081E0E6CF2330310509F4B1C024303105BC
:101D900081F7409142045091430460914404709152
:101DA0004504411551056105710561F04150510926
:101DB00061097109409342045093430460934404C1
:101DC000709345044091420450914304609144044F
:101DD00070914504452B462B472BD9F42091510493
:101DE000309152042130310509F046C01092470469
:101DF0001092500410924F040CC080911802882356
:101E000041F082E090E09093500480934F04109250
:101E100018021092400480914704CEC08823C9F371
:101E20008091580490915904A0915A04B0915B0498
:101E3000181619061A061B060CF07DC08091530473
:101E400090915404019709F076C0809158049091C4
:101E50005904A0915A04B0915B048093420490937A
:101E60004304A0934404B093450483E090E090932E
:101E7000500480934F04CDCF40915C0450915D0499
:101E800060915E0470915F04452B462B472BA9F0AF
:101E90001092470480915C0490915D04A0915E04CF
:101EA000B0915F048093420490934304A093440450
:101EB000B093450481E090E0DACF882399F08091D7
:101EC000190290911A02A0911B02B0911C028093FA
:101ED000420490934304A0934404B093450484E0E7
:101EE00090E0C5CF1092470482E090E0C0CF80918F
:101EF000420490914304A0914404B091450400979A
:101F0000A105B10559F00197A109B10980934204D7
:101F100090934304A0934404B093450480914204F9
:101F200090914304A0914404B0914504892B8A2BDD
:101F30008B2B09F06ECF8091190290911A02A0911B
:101F40001B02B0911C02892B8A2B8B2B09F44ECFDC
:101F500081E080934704B3CF409142045091430401
:101F60006091440470914504411551056105710566
:101F700061F0415051096109710940934204509345
:101F8000430460934404709345044091420450918B
:101F900043046091440470914504452B462B472B24
:101FA00009F037CF8111C7CF9FCF8091400488239C
:101FB00009F431CF80914104CF911F910F91FF908F
:101FC000EF90DF90CF90089510924B0410924C0444
:101FD00010924D0410924E0410924A041092500434
:101FE00010924F04109249041092480410926A040F
:101FF0001092690410924704109246041092420411
:10200000109243041092440410924504109241042B
:1020100010924004109265041092660410926704B6
:10202000109268041092640410926004109261048B
:10203000109262041092630488EE93E0A0E0B0E096
:102040008093190290931A02A0931B02B0931C0272
:1020500010925C0410925D0410925E0410925F0472
:10206000109258041092590410925A0410925B0472
:10207000109257041092560481E080931802109237
:10208000550410925404109253041092520410926A
:10209000510490E080E0089580915304909154049D
:1020A000892B19F580911802882351F080915504ED
:1020B000811106C081E0809341048093400408951B
:1020C000209155043091180281E090E0332311F003
:1020D00090E080E030E082239323892B21F010925E
:1020E000410481E0EACF10924004089582E090E03C
:1020F000FA01918380838FEF9FEF0895CF93DF9351
:10210000EA01009711F00E9419231982188290E0C9
:1021100080E0DF91CF910895DB01009719F48FEFF4
:102120008C9308952EEF2C93FC013F96EF30F10530
:1021300008F034C08827E056FF4E8F4F0C945E3471
:10214000CC10CA10C810C610C410C010C210BE10E7
:10215000BC10BA10B710B310AF10B510CE1080E39A
:1021600011968C93089589E2FBCF82E2F9CF119604
:102170001C92089583E2F4CF81E2F2CF81E1F0CFA7
:1021800087E2EECF8AE2ECCF80E1EACF84E2E8CFCB
:1021900088E2E6CF86E2E4CF81E3E2CF80E2E0CFDF
:1021A00080917704909178040895909378048093B7
:1021B0007704089580917604089590917604892B90
:1021C000809376040895982F9095809176048923C2
:1021D0008093760408958091750408958091730426
:1021E0009091740408956115710559F0FB0130E078
:1021F00020E070E060E02417350719F061157105E3
:1022000011F0CB010895A081B181A817B90709F495
:10221000BF012F5F3F4F3696EECF80917904811139
:102220001CC060D266D290936C0480936B040E94B1
:10223000201B0E94321B9093700480936F040E94B5
:10224000A01F0E94A71F90936E0480936D0481E0ED
:102250008093790490E080E0089584EF9FEF0895E3
:102260008F929F92AF92BF92CF92DF92EF92FF92A6
:102270000F931F93CF93DF9300D000D000D01F9215
:10228000CDB7DEB71A86198618861F821E821D8278
:102290001C821B821A8219828091790407EF1FEF3A
:1022A000882309F49CC08E010D5F1F4F9E012B5F98
:1022B0003F4FAE01495F5F4FBE01675F7F4F90E0C8
:1022C00080E00E9424218C01009721F0059602975E
:1022D00008F0DBC029853A852115310509F402C1D2
:1022E000ED80FE804B815C81B701640F751F8F818B
:1022F00098858617970708F4F5C0E20EF31ED701FC
:102300009C91903C09F07FC04230510508F47BC09D
:1023100011968C914091770450917804452B09F4E3
:102320009CC0913F08F071C02CE1290F2D3008F4BA
:102330008BC02DE2290F203108F489C0903C21F494
:102340008150823008F483C088E3890F8B3008F411
:1023500081C09CE8C92E90E1D92EE6E7F0E16D81BD
:102360007E81AE014F5F5F4F89859A8519955C012B
:10237000C114D104A1F189809A808114910479F16A
:102380008B819C818815990508F487C010E000E0D6
:102390004B815C8170E060E0C7010E9488340115C8
:1023A0001105E9F449815A8169857A858D819E817B
:1023B000680F791FC501F6011995E980FA800D8132
:1023C0001E812F81388549855A856FEF7FEF81E027
:1023D00090E00E94BF208C01892B09F056C0C801F3
:1023E0002A960FB6F894DEBF0FBECDBFDF91CF9116
:1023F0001F910F91FF90EF90DF90CF90BF90AF9023
:102400009F908F90089580E085CF30E020E0220FEC
:10241000331FF901E559FB4F0190F081E02D309712
:1024200009F497CF892F90E01995009709F491CF7F
:10243000DC011296ED91FC9113971496CD90DC90EF
:10244000309709F08CCF1FC021E030E0E0CF22E0D0
:1024500030E0DDCF23E030E0DACFD12CC12CEEE745
:10246000F0E19F3F09F07BCFE0916B04F0916C04A9
:10247000309721F4C90104EF1FEF0CC08FEF90E0FB
:1024800019950097A9F604EF1FEF89859A850097A3
:1024900009F4A5CF0E941923A2CF0E94EE218C013E
:1024A00089859A850E94192370E060E0C4010E942A
:1024B000872198878F830E94BC209E838D836F81A4
:1024C00078856115710559F0C8010E9478249A87B2
:1024D000898706EF1FEF892B09F058CF59CF08EFF6
:1024E0001FEF56CF08EF1FEFD0CF209179042223A2
:1024F00019F020E00C94371B87EF9FEF089580912F
:1025000077049091780408950E94AC1F0E94061FE2
:10251000F5D0EBE6F4E088E0DF011D928A95E9F75B
:102520001092790490E080E008950C94651D21E0FC
:1025300040E050E0BA010C94371B86E090E0FA01CD
:102540009183808390E080E0089547E050E066E565
:1025500072E049CEDF92EF92FF920F931F93CF93D9
:10256000DF938A01EC01C60FD71FE0907D04F09045
:102570007E04D9800E94D621D816190678F082E010
:1025800090E0F801918380838EEF9FEFDF91CF91F0
:102590001F910F91FF90EF90DF900895EF2841F485
:1025A00082E090E0F8019183808384EF9FEFEECF8B
:1025B000898180937C0490E00196F8019183808367
:1025C00090E080E0E3CFCF93DF93EA010E94161EF4
:1025D000882321F00E94E3210E94171E82E090E0F0
:1025E000998388838BEF9FEFDF91CF910895CF93ED
:1025F000DF93EB0186E0FB0111928A95E9F78FEFFB
:102600008883D8DD8983E7DD8A83E8DD9D838C8339
:10261000DF91CF910895CF93DF93EA010E94191EB5
:10262000811109C082E090E09983888385EF9FEF54
:10263000DF91CF91089590E080E0B7DD81E090E0F8
:102640009983888390E080E0F3CF0F931F93CF931B
:10265000DF93EA018C01060F171F0E94191E8111DA
:102660000BC082E090E09983888385EF9FEFDF9134
:10267000CF911F910F910895F8018181823038F038
:1026800082E090E0998388838EEF9FEFF0CF81E026
:1026900090E08BDD88E090E09983888390E080E093
:1026A000E6CFCF93DF930097D1F4EB01FB01329695
:1026B00086E0DF011D928A95E9F78FEF888385E038
:1026C00089831A820E94D6218B830E94D5219D8303
:1026D0008C8381E08E838F83DF91CF910895DF918A
:1026E000CF911ACD85EA92E190937B0480937A048E
:1026F000089580917A0490917B04089510927B0450
:1027000010927A04089580917D0490917E0408953A
:10271000411105C0611571058105910561F0609356
:102720007D0470937E0480937F0490938004409393
:10273000810481E0089580E00895FF920F931F9334
:10274000CF93DF938A01EC01C60FD71FF9800E9457
:10275000D621F816190668F082E090E0F80191831E
:1027600080838EEF9FEFDF91CF911F910F91FF90AC
:1027700008956C817D818E819F814B81C9DF81119C
:1027800008C082E090E0F8019183808384EF9FEF9E
:10279000EACF898180937C0490E00196F8019183CF
:1027A000808390E080E0DFCFCF93DF93EA01FC01EC
:1027B000E60FF71F64817581868197814381A8DFC9
:1027C000811109C082E090E09983888384EF9FEFB4
:1027D000DF91CF91089581E090E09983888390E024
:1027E00080E0F6CFEDE7F4E04081518162817381B2
:1027F000480F511D611D711D408351836283738396
:102800000895CF93C0917C044C2F50E060917D04DB
:1028100070917E0401960E947F348C2FE3DF10922A
:102820007C04CF910895009799F480917D04909154
:102830007E042FEFFB012083892B59F020917C042B
:1028400030E02F5F3F4F2417350719F4CB01D9CF64
:1028500063CC0895009799F480917D0490917E0453
:102860002FEFFB012083892B59F020917C0430E06D
:102870002F5F3F4F2417350719F4CB01C2CF4CCC43
:10288000089523E1AC01249FC001259F900D1124E0
:10289000E0918604F0918704E80FF91F23813481C9
:1028A0002250310981E02230310508F080E008959E
:1028B0000F931F93CF93DF930091880410918904A5
:1028C000D0E0C0E080E00C171D0749F491E08111D1
:1028D00090E0892FDF91CF911F910F910895811181
:1028E000F5CFCE01CEDF2196EECFA0918604B09138
:1028F0008704109729F12091880430918904821768
:102900009307F0F453E1589F9001599F300D112423
:10291000A20FB31FED91FC911197309789F0129699
:102920008C91681768F48BE0689FE00DF11D11240D
:1029300080819181892B21F081E09281491708F0F3
:1029400080E008959C0143E1429FC001439F900DA8
:102950001124E0918604F0918704E80FF91F838524
:10296000823099F481E090E06581768140911D028A
:1029700050911E026417750711F490E080E0892BD6
:1029800021F081E02230310508F080E00895EF92D7
:10299000FF920F931F93CF93DF93EA01FC01E60FA1
:1029A000F71F02811381E480F5804F2D6E2DC80141
:1029B0009CDF81110DC082E090E0998388838EEFC7
:1029C0009FEFDF91CF911F910F91FF90EF900895AE
:1029D000C80157DF882339F082E090E0998388832B
:1029E00088EF9FEFEECF1093240200932302E09232
:1029F0002502F092260281E090E09983888390E09E
:102A000080E0DFCFCF92DF92EF92FF920F931F9380
:102A1000CF93DF937A01EC01C60FD71FC09023023A
:102A2000D09024020091250210912602412F602FA0
:102A3000C6015BDF811110C082E090E0F701918355
:102A400080838AEF9FEFDF91CF911F910F91FF90CD
:102A5000EF90DF90CF900895C60113DF882341F0F7
:102A600082E090E0F7019183808388EF9FEFEBCFC6
:102A70004C815D816E817F819A8189818F3F41F098
:102A800082E090E0F701918380838EEF9FEFDBCFB0
:102A9000E3E1EC9D9001ED9D300D1124E091860461
:102AA000F0918704E20FF31F0190F081E02D2BE0FD
:102AB000029FE00DF11D11240190F081E02D27E02F
:102AC000129FE00DF11D1124808391838B818283FD
:102AD00043835483658376831F5F1093260281E0CE
:102AE00090E0F7019183808390E080E0ACCFEF929B
:102AF000FF920F931F93CF93DF937A018C01060F00
:102B0000171FC0918604D0918704209781F021E09F
:102B100030E0F801828193814091880450918904CA
:102B20008417950710F030E020E0232B71F482E049
:102B300090E0F701918380838EEF9FEFDF91CF913B
:102B40001F910F91FF90EF90089543E1489F9001EE
:102B5000499F300D1124C20FD31F93DE882341F00B
:102B600082E090E0F7019183808388EF9FEFE6CFCA
:102B7000F8012481358120383105C8F6878181111B
:102B8000D6CF4181842F90E08F7E009741F082E084
:102B900090E0F7019183808386EF9FEFCFCF4F8343
:102BA0003E832D83268128871986223010F421E068
:102BB000288721E030E0F70131832083BFCF88E010
:102BC00090E0FA019183808390E080E00895FB011A
:102BD0008FEF808381E181838FEF9FEF93838283E7
:102BE00080E890E095838483168217820895FB0124
:102BF0008FEF808391E0918382839383848384E346
:102C0000858381E090E0978386830895BF92CF9279
:102C1000DF92EF92FF920F931F93CF93DF93DA012E
:102C2000FC01E60FF71F8181813081F082E090E0A6
:102C30008D939C938FEF9FEFDF91CF911F910F9119
:102C4000FF90EF90DF90CF90BF900895C281D38125
:102C5000B480858106811781E0908604F090870416
:102C6000E114F10439F482E090E08D939C938CEFB1
:102C70009FEFE2CF2091880430918904C217D307D7
:102C800038F082E090E08D939C938EEF9FEFD4CF4D
:102C9000C230D10538F082E090E08D939C9386EFAE
:102CA0009FEFCACF9B2D9D7FB1F78130A1F7B11067
:102CB00005C00130110531F080E004C081E0023030
:102CC0001105D0F3882339F36D01CE01DADD8823B5
:102CD00041F082E090E0F6019183808388EF9FEFDE
:102CE000ABCF83E18C9FF0018D9FF00D1124EE0D91
:102CF000FF1DB38681E0848716870587108A1786B3
:102D000081E090E0F6019183808390E080E094CFB1
:102D10004CE050E060E872E066CA8F929F92BF92EA
:102D2000CF92DF92EF92FF920F931F93CF93DF9397
:102D3000EA01FC01E60FF71F828193810481B580CF
:102D4000E0918604F0918704309791F482E090E05E
:102D5000998388838CEF9FEFDF91CF911F910F9123
:102D6000FF90EF90DF90CF90BF909F908F9008954D
:102D700020918804309189048217930738F082E00B
:102D800090E0998388838EEF9FEFE6CF23E1289F21
:102D90006001299FD00C1124EC0DFD1DE080F18015
:102DA000E114F10499F28281081748F78BE0089F3B
:102DB00080011124E00EF11EF70180819181892BA1
:102DC00029F6BB20E1F2F7E0BF9E40011124C401C7
:102DD0000E94CE22F70191838083E0918604F091D6
:102DE0008704EC0DFD1D0190F081E02DE00FF11F37
:102DF00080819181009739F482E090E09983888303
:102E00008DEF9FEFA9CFA40170E060E00E948834AD
:102E10008091860490918704C80ED91EF6018081A6
:102E20009181080F191FF801B28281E090E0998327
:102E3000888390E080E090CFAF92BF92CF92DF92F4
:102E4000FF920F931F93CF93DF93EA01FC01E60FEC
:102E5000F71F82819381F48000918604109187048A
:102E60000115110581F482E090E0998388838CEF4D
:102E70009FEFDF91CF911F910F91FF90DF90CF9047
:102E8000BF90AF90089520918804309189048217F3
:102E9000930738F082E090E0998388838EEF9FEF6C
:102EA000E8CF2FEF2F0D2C3FA8F723E1289F6001DB
:102EB000299FD00C11240C0D1D1DF80180819181DA
:102EC000892B89F6FBE0FF9E50011124C5010E9469
:102ED000CE22F80191838083E0918604F0918704EB
:102EE000EC0DFD1D80819181009739F482E090E026
:102EF000998388838DEF9FEFBCCFA50170E060E0E0
:102F00000E948834E0918604F0918704EC0DFD1D49
:102F1000F28281E090E09983888390E080E0A9CFFD
:102F2000CF92DF92EF92FF920F931F93CF93DF9395
:102F3000860F971FFC010281138180918604909176
:102F40008704892B81F082E090E0FA0191838083ED
:102F50008CEF9FEFDF91CF911F910F91FF90EF903A
:102F6000DF90CF900895C801B0E0A0E00197A109DB
:102F7000B1098F3F9F4FA105B10540F082E090E07D
:102F8000FA01918380838EEF9FEFE4CF7A0183E192
:102F9000809F6001819FD00C1124C6010E94CE2227
:102FA000EC01009741F482E090E0F7019183808387
:102FB0008DEF9FEFCFCFA60170E060E00E948834D4
:102FC000D0938704C09386041093890400938804E7
:102FD00090E080E02FEF3FEF41E061E070E080178C
:102FE000910741F481E090E0F7019183808390E0C4
:102FF00080E0B0CF3A8B298B1B864C877E876D870C
:10300000188A1F8601966396EACFCF92DF92EF92DD
:10301000FF920F931F93CF93DF93EC01D12CC12C20
:1030200010E000E0F12CE12C6A816017110609F034
:10303000CCF483E0689FB0011124AE014F5E5F4F76
:10304000C7010E944523009721F02FEF3FEF3A8BF5
:10305000298BDF91CF911F910F91FF90EF90DF901F
:10306000CF900895E881F981EC0DFD1D43815481D5
:103070008D859E85489F9001499F300D589F300D4A
:103080001124C90101960115110519F44F8144FD60
:10309000049661E070E00E948721E816F90608F4C2
:1030A0007C010F5F1F4F8BE0C80ED11CBDCFF89481
:1030B000209184043091850481E02115310509F0C7
:1030C00080E0232B09F0789408952F923F924F923D
:1030D0005F926F927F928F929F92AF92BF92CF92A8
:1030E000DF92EF92FF920F931F93CF93DF933C01F8
:1030F000660E771EF301828193814C01B12CA12CC5
:10310000C0918604D0918704209769F021E030E0D7
:1031100060918804709189048617970710F030E059
:1031200020E0232BD1F482E090E0FA0191838083A8
:103130008EEF9FEFDF91CF911F910F91FF90EF9056
:10314000DF90CF90BF90AF909F908F907F906F90C7
:103150005F904F903F902F90089580922702909219
:103160002802A0922902B0922A0263E1689F90018E
:10317000699F300D1124C20FD31FF3018181833069
:1031800040F082E090E0FA019183808386EF9FEF28
:10319000D1CF2A012B813C81232BF1F42881398165
:1031A0009F8191FF2EC0232B09F46FC020918B04C7
:1031B0009A81422F490F5527551FBA0141E050E02F
:1031C0006138710514F050E040E0452B09F45DC012
:1031D0002A87920F90938B048150823008F481C02B
:1031E00066DF882309F4D8C0F3018181813009F4B6
:1031F0008DC008F47BC0823009F4C6C090E080E046
:10320000ADC0232B09F441C020918A049A81E22F9A
:10321000E90FFF27FF1F41E050E0ED3FF10514F0FB
:1032200050E040E0452B89F12A87920F90938A0461
:10323000D3CFA081B181A20FB31F11966C91060F5D
:10324000111D0196295F3F4F8417950794F38D85D3
:103250009E85089F1001099F300C189F300C112487
:10326000C114D104D1F48F8184FF17C00E94D521ED
:10327000F5E02F0E311C21E08215930508F420E0C3
:10328000A701455F5F4F21110EC082E090E0F2017F
:103290009183808387EF9FEF4DCF0E94D5212FEF41
:1032A000221A320AE8CF88819981E80EF91EF701C7
:1032B00014830383FFEFCF1ADF0A7A018A818C150A
:1032C0001D0409F00CF48CCFE881F981EE0DFF1D8F
:1032D000428150E030E020E010E000E090E080E04B
:1032E000B3CFF12CE12CD12CC12CE8CF81E090E0C0
:1032F0009C838B83DDDA882309F480CF81E090E022
:103300000E94D51080E40E94E31078CF89899A89C1
:10331000019661F083E090E09C838B8382E090E0F3
:103320000E94D51080E40E94DD1068CF2D813E817F
:1033300080911D0290911E0228173907D1F46091E7
:10334000210270912202AE014F5E5F4F80911F02F9
:10335000909120020E9437240097E1F2789422E0B5
:1033600030E0F20131832083892B99F08DEF9FEFBC
:10337000E1CE22E082169104A104B1045CF6CE01F4
:1033800044DE188A1F86E8CF82E090E09C838B831E
:1033900035CF90E080E0CECE82E090E0F2019183E4
:1033A000808385EF9FEFC6CE8F929F92AF92BF92A0
:1033B000CF92DF92EF92FF920F931F93CF93DF9301
:1033C000EA018C01060F171FF8018181833098F004
:1033D00082E090E09983888386EF9FEFDF91CF9121
:1033E0001F910F91FF90EF90DF90CF90BF90AF9023
:1033F0009F908F9008958091860490918704892BE7
:1034000061F081E090E02091880430918904232BC1
:1034100011F490E080E0892B39F482E090E0998308
:1034200088838EEF9FEFDACF42DE882309F4DEC077
:10343000F8018181813009F494C0E8F0823099F478
:103440002091880430918904E0918604F0918704EA
:1034500090E080E041E050E02817390709F0BCC057
:1034600027DA811117C0789481E090E099838883EE
:1034700090E080E0B3CF2091880430918904E091FE
:103480008604F091870490E080E041E050E0281746
:10349000390741F481E090E00E94D51080E40E9459
:1034A000E310E1CF63817481672B11F05483438370
:1034B00001967396ECCFE0918604F0918704E00FBB
:1034C000F11F2381348122303105D9F421893289D9
:1034D0002F3F3F4FB1F44581568120911D0230911D
:1034E0001E024217530761F5AF014F5E5F4F6091B7
:1034F00021027091220280911F02909120020E946D
:1035000037244FEFC41AD40AE40AF40A0D5E1F4FA1
:10351000409188045091890470E060E0C416D5069B
:10352000E606F70634F5009731F27894892B09F412
:103530009BCF82E090E0998388838DEF9FEF4ECF01
:1035400022E0C216D104E104F104DCF6CF015DDD16
:10355000E0918604F0918704E00FF11F108A17862E
:10356000D0CF10E000E090E080E0C12CD12C7601BB
:10357000CFCF0097D1F610E000E0812C912C5401C0
:1035800083E0E82EF12C1AC0E0918604F0918704C4
:10359000E00FF11F83819481029749F4F482E38262
:1035A00082E090E00E94D51080E40E94DD108FEF51
:1035B000881A980AA80AB80A0D5E1F4F80918804DD
:1035C00090918904B0E0A0E088169906AA06BB068F
:1035D000DCF290E080E0A9CF6381748162307105F4
:1035E00011F4548343830196739636CF82E090E0C2
:1035F0009983888385EF9FEFF1CE0097B9F48FEF21
:10360000FB018083209127023091280243E1429FF1
:10361000C001439F900D1124E0918604F09187042E
:10362000E80FF91F8285FB01818308950C948C10AB
:1036300088E090E0FA019183808390E080E0089533
:103640001092850410928404E6E8F4E086E0DF013D
:103650001D928A95E9F788E896E190938304809318
:1036600082040895809182049091830408952F929A
:103670003F924F925F926F927F928F929F92AF9202
:10368000BF92CF92DF92EF92FF920F931F93CF934F
:10369000DF93CDB7DEB760970FB6F894DEBF0FBEED
:1036A000CDBFF894E0918404F09185043196F093B5
:1036B0008504E09384047894A0918604B0918704F3
:1036C000BA83A983109709F4FAC1E0918804F091B4
:1036D0008904EF2B09F4F3C128874B875C876D873A
:1036E0007E879A878987B88BAF87312C212CF12C64
:1036F000512C412C80918804909189042816390618
:1037000010F4FF2029F1F8948091840490918504AD
:10371000019790938504809384047894C201609605
:103720000FB6F894DEBF0FBECDBFDF91CF911F91D2
:103730000F91FF90EF90DF90CF90BF90AF909F9050
:103740008F907F906F905F904F903F902F90089553
:10375000B10190E080E087D4682EEF85F8898781F9
:1037600081FD3DC0838194810397C9F52581368110
:103770003C832B8389859A852817390781F5C101F8
:10378000E1D8782E8823A9F1AF85B8891F968D914D
:103790009C915097019621E01D964D915C91841764
:1037A000950709F020E02F83B12CA12CEF85F88933
:1037B00082818A151B0419F014F0FF20E9F0F885C6
:1037C000FF2309F46CC1AF85B88950961C921E92F4
:1037D0001F97662021F0B10190E080E046D4FFEF12
:1037E0002F1A3F0A2F8538892D5E3F4F388B2F8740
:1037F00081CFB1E0BF83D8CFBFD49E838D83E885CE
:10380000EE23E9F0772009F43CC1AF85B8891F9613
:103810008D919C91892B79F0BBE0BA9DC001BB9D35
:10382000900D1124AF85B889ED91FC91E80FF91F37
:1038300085819681FED6BFEFAB1ABB0AB7CF81E078
:10384000772039F0EF85F88927853089232B09F017
:1038500080E0F82EE12CA114B10439F4AF85B889C9
:103860001796EC90E4FAEE24E0F8BBE0BA9D600114
:10387000BB9DD00C1124882309F424C1AF85B889DD
:10388000ED91FC911197EC0DFD1D438154811D9626
:103890002D913C91429FC001439F900D529F900DEE
:1038A0001124E1105DC001969087878361E070E08C
:1038B000878190852CD5EF85F8892189328900810F
:1038C00011810C0D1D1D2F3F320709F44BC0BC01A7
:1038D000C9010E947824D80116969C938E9315975F
:1038E000AF85B889ED91FC911197EC0DFD1D058117
:1038F00016810115110509F4CDC0ED81FE810E0F71
:103900001F1F1A968C918A0DD8018C93E1102FC03D
:103910000F5F1F4FAF85B889ED91FC91EC0DFD1D38
:1039200012870187AF85B889ED91FC91EC0DFD1DE3
:1039300085819681892B09F4A4C080911D02909104
:103940001E022B813C812817390709F465C07720B6
:1039500011F001851285912C812C1A8219824AC09E
:103960000596A2CF1BD6F80196838583B9CF8B85A8
:103970009C85AD85BE85F80181839283A383B48342
:103980000B5F1F4FC7CFE080F180E80CF91CD70117
:1039900013966D917C9114978C918F3F09F473C0AD
:1039A000E1E0F0E002C0EE0FFF1F8A95E2F7CF01E1
:1039B000092E000CAA0BBB0BFB01408151816281D7
:1039C000738184239523A623B72321E0892B8A2B97
:1039D0008B2B09F420E0D8012C93D70111968C9100
:1039E000080F111DE981FA813196FA83E983F7E026
:1039F0008F0E911CAF85B889ED91FC91EC0DFD1DEA
:103A0000828129813A818217130611F00CF0BBCF15
:103A1000772011F0128701873F81332391F1AF8521
:103A2000B889ED91FC91EC0DFD1D61E070E087819E
:103A300090856DD4AF85B889ED91FC91EC0DFD1D9D
:103A4000E780F08445815681E1E0F0E0662011F0E6
:103A5000F0E0E0E00D811E819C01B10188279927EB
:103A60008E1B9F0B8CD32C01892B59F0EF85F88985
:103A700080819181C80ED91ED60115968D919C9199
:103A8000D8D5F12CD8CEF701418150E0C8010E9471
:103A90007F34A3CF86EF482E55245A94CCCEEF85A1
:103AA000F889878590890196908B8787258536854B
:103AB0008217930709F08DCE108A17868ACE512C73
:103AC000412C21CE10E000E02DCF2F923F924F925B
:103AD0005F926F927F928F929F92AF92BF92CF929E
:103AE000DF92EF92FF920F931F93CF93DF9380911A
:103AF00086049091870410E000E0892BA9F0D7DAC2
:103B00000AEF1FEF882381F0209088043090890409
:103B1000C0918604D0918704D12CC12C10E000E024
:103B20002C143D04A9F47894C801DF91CF911F9122
:103B30000F91FF90EF90DF90CF90BF90AF909F904C
:103B40008F907F906F905F904F903F902F9008954F
:103B5000C6010E94A214882309F18B819C810397DE
:103B6000E9F48F859889892BC9F0B60190E080E04F
:103B70007AD221E030E0882311F030E020E04424C4
:103B80005524421A530AB12CA12C912C812C8A81E4
:103B90008815190409F038F4188A1F864FEFC41AE3
:103BA000D40A6396BDCFE881F981EA0DFB1D8581BA
:103BB0009681892BA1F161E070E087819085A7D380
:103BC0003C01DAD28C01E881F981EA0DFB1D818587
:103BD000928525813681200F311FAC01421B530B8A
:103BE0009A0147815085421B530B70E060E00E94B0
:103BF0008834E881F981EA0DFB1DE780F084458176
:103C000056819301B601C201BAD28C01892B39F0D9
:103C1000E881F981EA0DFB1D858196810AD55FEF68
:103C2000851A950A8BE0A80EB11CB1CF40CA7894D2
:103C300008952F923F924F925F926F927F929F9240
:103C4000AF92BF92CF92DF92EF92FF920F931F93AA
:103C5000CF93DF9300D000D0CDB7DEB700918604BC
:103C600010918704992493940115110509F43EC01D
:103C7000A0908804B09089041ADA982E8823B1F1B4
:103C8000109287041092860410928904109288047E
:103C900010928A0410928B048FEF9FEFDC018093C7
:103CA000270290932802A0932902B0932A027894C5
:103CB0007ED31E830D83C12CD12C7601C501B0E0CB
:103CC000A0E089839A83AB83BC8322242A94322C7C
:103CD00089819A81AB81BC81C816D906EA06FB06A8
:103CE000F4F0C801A6D480E40E94E310892D269642
:103CF0000FB6F894DEBF0FBECDBFDF91CF911F91FD
:103D00000F91FF90EF90DF90CF90BF90AF909F907A
:103D10007F906F905F904F903F902F900895AD816E
:103D2000BE8115962D913C91169780911D02909120
:103D30001E0228173907D1F451968D919C91C6D552
:103D4000ED81FE8180819181B12CA12C412C512CDF
:103D50003201892B81F5BFEFCB1ADB0AEB0AFB0A94
:103D6000ED81FE817396FE83ED83B2CFB2E0CB1678
:103D7000D104E104F10424F7ED81FE818189928967
:103D80008F3F980709F01DD5AD81BE8152963C92B8
:103D90002E925197D5CF8A0D9B1DDC018D919C9160
:103DA000009709F046D4BFEF4B1A5B0A6B0A7B0AF7
:103DB000EBE0AE0EB11CAD81BE818D919C9111974F
:103DC00012964C9150E070E060E04416550666068D
:103DD00077060CF32ED4BFCFCF93DF93EA0129DF10
:103DE000811109C082E090E09983888385EF9FEF7D
:103DF000DF91CF91089581E090E00E94D51081E09D
:103E000090E09983888390E080E0F2CF12DF1092F7
:103E1000830410928204089542E050E068EC72E05E
:103E20000C94F310FF920F931F93CF93DF938A01AB
:103E3000EC01C60FD71FF980B9D20897F8161906FA
:103E400071F068F082E090E0F801918380838EEF5A
:103E50009FEFDF91CF911F910F91FF9008956C819B
:103E60007D818E819F814B810E948813811108C0C2
:103E700082E090E0F8019183808384EF9FEFE9CFA7
:103E8000F9800E9483134F2D50E0BE01685F7F4F81
:103E90000E947F3489810E94F21381E090E0F80152
:103EA0009183808390E080E0D4CFDF92EF92FF9205
:103EB0000F931F93CF93DF938A01EC01C60FD71F97
:103EC0000E9483137C01D98071D2DD2059F00297C2
:103ED00021E030E0D816190619F010F030E020E0AB
:103EE000232B79F482E090E0F801918380838EEFB8
:103EF0009FEFDF91CF911F910F91FF90EF90DF9097
:103F00000895EF2841F482E090E0F80191838083E6
:103F100084EF9FEFEECFF9800E9483134F2D50E086
:103F2000BE016E5F7F4F0E947F3489810E94F21331
:103F300081E090E0F8019183808390E080E0D9CF28
:103F40008CE09FE190938D0480938C040895809180
:103F50008C0490918D0408950895FC0111821082C3
:103F6000938382830895DB011D921C92DC011296DB
:103F7000ED91FC9113977183608313967C936E93FC
:103F800012970895FC0180819181DB018D939C93B0
:103F9000A081B181109741F08D919C919183808394
:103FA000892B11F4F383E2830895FC0180819181D0
:103FB000DB018D939C93892B11F47383628371834E
:103FC00060830895FC011182108293838283089597
:103FD000CF93DF931F921F92CDB7DEB71A8219825B
:103FE000F894BE016F5F7F4F83E994E0CBDF898156
:103FF0009A81009709F01DD389819A81892B89F7CD
:10400000BE016F5F7F4F87E994E0BCDF89819A81B1
:10401000009709F00ED389819A81892B89F77894CA
:104020000F900F90DF91CF910895CF93DF931F9260
:104030001F92CDB7DEB71A821982F894BE016F5F66
:104040007F4F8FE894E09EDF89819A81009709F085
:10405000F0D289819A81892B89F778940F900F90FB
:10406000DF91CF91089581E0089590E080E0089578
:10407000EF92FF920F931F93CF93DF931F921F92A4
:10408000CDB7DEB71A82198280918E0407EF1FEF39
:104090008823A1F1F894BE016F5F7F4F87E994E018
:1040A00071DF789489819A81EE24E394F12C892B35
:1040B00051F4F894BE016F5F7F4F83E994E062DFB3
:1040C0007894F12CE12C89819A810EEF1FEF0097F3
:1040D000A9F0FC014281538164E070E009D68C01B3
:1040E000892B61F0F89469817A81C701880F991F43
:1040F000880F991F8D569B4F58DF7894C8010F90F9
:104100000F90DF91CF911F910F91FF90EF90089545
:104110000F931F93CF93DF9300D01F92CDB7DEB7DD
:104120001C821B821A82198280918E0407EF1FEF76
:104130008823C1F0AE014D5F5F4F64E070E0CE01B7
:10414000019649D68C01892B69F4E981FA818B812A
:104150009C8193838283F89469817A818FE894E0CB
:1041600002DF7894C8010F900F900F900F90DF91AD
:10417000CF911F910F9108954ED7049608958F9275
:104180009F92AF92BF92CF92DF92EF92FF920F93E6
:104190001F93CF93DF931F921F92CDB7DEB71A8282
:1041A0001982BC016F5F7F4F6330710598F0AA24BC
:1041B000AA94BA2CC5010F900F90DF91CF911F9157
:1041C0000F91FF90EF90DF90CF90BF90AF909F90B6
:1041D0008F9008954115510551F3480159018A0105
:1041E0006C01CADF8815990511F7E114F104F9F2A1
:1041F0008E0D9F1DA816B906D0F280918E048823DB
:10420000F1F0F894B501645071099701AE014F5F68
:104210005F4FC801049674D65C01892B71F48981C3
:104220009A81F80193838283C601880F991F880FB2
:10423000991FB8018D569B4F96DE7894BBCF87EFC0
:10424000A82EBB24BA94B6CFAF92BF92CF92DF9282
:10425000EF92FF920F931F93CF93DF931F921F92C2
:10426000CDB7DEB71A821982892B09F047C06115D4
:10427000710509F443C04115510509F43FC02115EA
:10428000310509F43BC001151105C1F180918E047F
:104290008823B9F179016A015B01F894BE016F5F6F
:1042A0007F4F8FE894E06EDE789489819A81009741
:1042B00059F1DC0112966D917C91A801049639D6D2
:1042C0008C01E981FA81D501ED93FC938281938180
:1042D0000496F601918380834FDFD7018D939C93E1
:1042E000C8010F900F90DF91CF911F910F91FF9018
:1042F000EF90DF90CF90BF90AF9008950FEF1FEF3A
:10430000EFCF07EF1FEFECCF0EEF1FEFE9CFCF930B
:10431000DF93EC01672B71F487D68C179D0760F053
:104320007AD62496C80FD91F79D68C0F9D1FDF919E
:10433000CF91089576D6F1CF90E080E0F8CF0F933B
:104340001F93CF93DF9320918E0421112BC08B01FB
:10435000EC0183E994E001DE87E994E0FEDD8FE87B
:1043600094E0FBDD97D00097C1F45ED670E060E08A
:10437000CEDF4BE252E062E070E087D1009769F453
:1043800080912B0290912C0261D6B801CE0196D477
:10439000009719F421E020938E04DF91CF911F91B3
:1043A0000F91089584EF9FEFF8CF3BC63DC6CF93A2
:1043B000DF933DD6EC01892B11F40ADE36DECE0107
:1043C000DF91CF910895CF93DF9331D6EC01892B04
:1043D00009F4FEDDCE01DF91CF91089580912B028B
:1043E00090912C020895CF93DF9380918E04D0E0BA
:1043F000C0E08823D1F02FD6EC01892BB1F4E8DDA1
:1044000014DE80912B0290912C02DBD1C1D2EC0101
:10441000892B59F483E994E0D5DD87E994E0D2DD76
:104420008FE894E0CFDD10928E04CE01DF91CF9122
:104430000895EF92FF920F931F93CF93DF93EC01B8
:104440007A018B010F5F1F4F0E9DA0010F9D500D34
:104450001E9D500D112470E060E00E94883490E0B1
:1044600080E0F0E0E0E02FEFE816F90639F4DF91A4
:10447000CF911F910F91FF90EF9008951A821982AA
:104480002883309711F0D283C1830196FE01C00FBB
:10449000D11FEACFAF92BF92CF92DF92EF92FF92FD
:1044A0000F931F93CF93DF9388EE95E07C012CEF61
:1044B000E22284EDC82E82E0D82E9AEDA92E92E059
:1044C000B92ECFE5D6E08E01D6014D915D916D01FB
:1044D000F501619171915F01D8011196FC92EE9204
:1044E00015965C934E93149713965C934E93129784
:1044F00017967C936E9316979B012F5F3F4F249FD7
:10450000C001259F900D349F900D112419969C9306
:104510008E931897E114F10411F0C7018ADFF801B6
:1045200080859185E80EF91E065F1F4FFAEDCF16C4
:10453000F2E0DF0649F6EDE9F4E088E491E0DF011E
:104540009C011D9221503040E1F710929C04109282
:104550009B048DE796E01F8E1E8E1BA21AA219A245
:1045600018A21DA21CA21FA21EA22A968C179D078C
:1045700091F710925C0610925B0610925E06109204
:104580005D0690E080E0DF91CF911F910F91FF9049
:10459000EF90DF90CF90BF90AF900895009761F1BA
:1045A000F8948132910580F48091610690916206C1
:1045B000892B29F580916B0690916C06892B31F03F
:1045C00021E081E090E00BC0C197A8F480917506CE
:1045D00090917606892B79F022E082E090E0EAE083
:1045E000E89FD001E99FB00D1124A15AB94F8D91D8
:1045F0009C91009741F4789490E080E0089520E049
:1046000090E080E0ECCFE29FF0011124E15AF94FF5
:10461000DC0111964D915C9151834083428153811D
:104620004150510953834283FC012193CF01789477
:104630000895009749F1DC018E91863041F4E091B4
:104640005D06F0915E063097F9F0CD011994863041
:10465000D8F4282F30E0F8948FEF8C938AE0829F73
:10466000F001839FF00D1124E15AF94F808191816F
:1046700012969C938E931197B183A083828193812C
:1046800001969383828378940895CF92DF92EF927C
:10469000FF920F931F93CF93DF939C0180EA94E0E6
:1046A0008C7F4115510509F489C02115310509F4A4
:1046B00085C06115710509F481C08A01AB01B9019A
:1046C0006D5F7F4F6C7F9B012F5F3F4F249F700179
:1046D000259FF00C349FF00C1124F894EFE5F6E0E0
:1046E00023E030E0E901A6A1B7A1C68CD78CCD2884
:1046F00009F058C0109709F03EC0C0909B04D090BC
:104700009C0425E431E02C193D092E153F0530F4B9
:104710007894CFEFDFEF86EF9FEF21C02AE02C9F48
:10472000F0012D9FF00D1124E15AF94F9183808300
:10473000558344835383428377836683F186E0867F
:10474000009709F076DEEC0CFD1CF0929C04E092E0
:104750009B047894CF3FDC07F1F290E080E0F80111
:10476000D183C083DF91CF911F910F91FF90EF9084
:10477000DF90CF900895AE15BF05A0F02AE02C9FE2
:10478000F0012D9FF00D1124E15AF94F91838083A0
:104790005583448353834283778366830097C9F2AA
:1047A00048DED7CF8A0F9B1F2F5F3F4F3A962630A8
:1047B000310509F097CFCFEFDFEFCBCF8FEF9FEF32
:1047C000D1CF9C010397039708F04EC0F89485E081
:1047D0009AE0482F50E0241735079CF191E08AE0D9
:1047E000829FF001839FF00D1124E15AF94F11824D
:1047F00010821582148213821282178216829923E4
:10480000E1F080919B0490919C04EFE5F6E022A9F1
:1048100033A9232B49F422AD33AD2115310521F005
:10482000821B930B13AE12AE3A9726E0E134F207E7
:1048300071F790939C0480939B04789490E080E0BF
:104840000895949FF001959FF00D1124E15AF94FBE
:1048500040815181452B31F440855185452B11F420
:104860008150B7CF90E0BBCF8FEF9FEF08954115F8
:10487000510549F1009739F16115710521F1F8945D
:1048800020915B0630915C06232BB9F420915D06E4
:1048900030915E06232B89F490935C0680935B062F
:1048A00070935E0660935D06789426E030E090E0B9
:1048B00080E0FA0131832083089578942FEF3FEF51
:1048C00086EF9FEFF6CF8FEF9FEF0895069769F47D
:1048D000F89410925C0610925B0610925E0610929D
:1048E0005D06789490E080E008958FEF9FEF089543
:1048F0006115710519F4F0E0E0E011C08630910512
:1049000081F4E0915B06F0915C063097A1F3CB0156
:1049100001961995009779F3FC0186E08193CF0108
:1049200008959C01235031092330310520F72AE0F6
:10493000289FD001299FB00D1124A15AB94F2D9164
:104940003C911197232BB9F216962D913C91179714
:104950002617370780F2F89412962D913C91139701
:104960002115310529F0ED91FC911197309711F443
:104970007894C1CF4181528111965C934E9321501E
:10498000310913963C932E93129781937894C7CF55
:10499000E5EEF5E086E7DF011D928A95E9F7EDE99E
:1049A000F4E088E491E0DF019C011D922150304049
:1049B000E1F710929C0410929B04EFE5F6E08CE383
:1049C000DF011D928A95E9F7EBE5F6E084E0DF016F
:1049D0001D928A95E9F790E080E00895CF93DF93E8
:1049E000C0912D02D0912E02CF3FDC0759F4DFD3C6
:1049F00090932E0280932D0297FF09C0D0932E0230
:104A0000C0932D0284EF9FEFDF91CF91089590E046
:104A100080E0FACF8230910528F480939B0690E0E5
:104A200080E008958FEF9FEF08954F925F926F920D
:104A30007F92AF92BF92CF92DF92EF92FF920F934D
:104A40001F93CF93DF931F921F92CDB7DEB71A82C9
:104A50001982009709F479C06115710509F475C0D0
:104A600020912D0230912E0207EF1FEF2F3F3F4F75
:104A700009F445C06B015C01412C512C3201F12C31
:104A8000E12C10E000E09E012F5F3F4FA6014E1980
:104A90005F09B5016E0D7F1D80912D0290912E0250
:104AA000E5D3892B09F04BC089819A81009741F4A5
:104AB000E114F10429F420919B06222309F442C059
:104AC000E80EF91EEC14FD04D0F480E8481684E8E2
:104AD00058068EE16806710420F560E070E0CB01B5
:104AE0000E94512E2AE0420E511C611C711C0A3F8B
:104AF0004FEF140721F0043F8FEF1807A1F4C8010E
:104B00000F900F90DF91CF911F910F91FF90EF9039
:104B1000DF90CF90BF90AF907F906F905F904F905D
:104B2000089501EF1FEF81E090E0013F2FEF1207A2
:104B300011F090E080E0892B09F4A5CFE0CF04EFDD
:104B40001FEFDDCF0AEF1FEFDACF0FEF1FEFD7CF49
:104B50004F925F926F927F92AF92BF92CF92DF920D
:104B6000EF92FF920F931F93CF93DF931F921F92A9
:104B7000CDB7DEB71A821982009709F479C06115A2
:104B8000710509F475C020912D0230912E0207EFB6
:104B90001FEF2F3F3F4F09F445C06B015C01412CD3
:104BA000512C3201F12CE12C10E000E09E012F5F2E
:104BB0003F4FA6014E195F09B5016E0D7F1D809113
:104BC0002D0290912E0208D3892B09F04BC08981C8
:104BD0009A81009741F4E114F10429F420919B0695
:104BE000222309F442C0E80EF91EEC14FD04D0F4AF
:104BF00080E8481686E9580688E96806710420F5B9
:104C000060E070E0CB010E94512E2AE0420E511C60
:104C1000611C711C0E3F4FEF140721F0043F8FEF12
:104C20001807A1F4C8010F900F90DF91CF911F9149
:104C30000F91FF90EF90DF90CF90BF90AF907F905B
:104C40006F905F904F90089502EF1FEF81E090E02A
:104C5000023F2FEF120711F090E080E0892B09F45A
:104C6000A5CFE0CF04EF1FEFDDCF0EEF1FEFDACFC0
:104C70000FEF1FEFD7CF80912D0290912E028F3F23
:104C8000980749F08CD2892B49F48FEF9FEF9093CE
:104C90002E0280932D0290E080E0089584EF9FEF34
:104CA0000895FC01680F791F90E080E0E617F70790
:104CB00009F408952191820F911DF8CF20919C064F
:104CC000211113C08BDE009791F41092A20610926E
:104CD000A1061092A00610929F0610929E061092B6
:104CE0009D0621E020939C06089584EF9FEF089590
:104CF000AF92BF92CF92DF92EF92FF920F931F93EA
:104D0000CF93DF93009709F460C04630510508F453
:104D10005CC020919C06C7EFDFEF222309F449C055
:104D20008C01060F171FF801C080D180C114D10477
:104D300009F44EC096012A5F3F4F4217530708F40B
:104D400047C07C018091A1069091A2069383828343
:104D5000B6016C5F7F4F5801A60EB71EC801A1DFD8
:104D6000F5019183808364E070E0C8015EDEEC01B0
:104D7000892BF9F481E090E04DDEB601C80104967C
:104D800054DEEC01892B91F462E070E0C5014DDE48
:104D9000EC01892B59F4C7014CDC8091A10690915C
:104DA000A20601969093A2068093A10690E080E06F
:104DB00031DECE01DF91CF911F910F91FF90EF90E7
:104DC000DF90CF90BF90AF900895CFEFDFEFF1CF9E
:104DD000C9EFDFEFEECF6F927F928F929F92AF92EB
:104DE000BF92CF92DF92EF92FF920F931F93CF93D8
:104DF000DF9300D01F92CDB7DEB7009709F47AC0D9
:104E00004115510509F476C020919C0607EF1FEF6C
:104E1000222309F44DC03A017B015C0164E070E09B
:104E2000CE01019695DE8C01892B09F041C00981E4
:104E30001A810115110509F45AC0480186E0880E4F
:104E4000911CB701680D791D80912F02909130025D
:104E50004FDD6C01009709F450C0A70170E060E0DD
:104E60000E94883489819A81AB81BC81EC0CFD1C45
:104E7000F70181939193A193B1937F0181E090E039
:104E8000C9DDB801C70164DE892B31F562E070E04D
:104E9000C701800F911F5CDE8C01892BE9F490E043
:104EA00080E0B8DDF501D182C082F3019182808279
:104EB000C8010F900F900F900F90DF91CF911F912D
:104EC0000F91FF90EF90DF90CF90BF90AF909F90A9
:104ED0008F907F906F90089590E080E09BDDF501CA
:104EE00011821082F30111821082C601A2DB09EF48
:104EF0001FEFDECF0FEF1FEFDBCF06EF1FEFD8CF97
:104F00000097A1F04115510589F02115310571F087
:104F1000F90136966E177F0748F0DC012D933C931C
:104F2000DA01ED93FC9390E080E008958FEF9FEF1E
:104F30000895AF92BF92CF92DF92EF92FF920F93BC
:104F40001F93CF93DF93009709F45FC0411551057C
:104F500009F45BC06530710508F457C020919C06C8
:104F6000C7EFDFEF222391F1DC01CD90DC901197A8
:104F70001296ED91FC9196012A5F3F4FC9EFDFEF4A
:104F80002617370719F5C0919D06D0919E062097E8
:104F900049F521E030E030939E0620939D067A018A
:104FA0008C01F093A006E0939F065601B4E0AB0E8F
:104FB000B11CB50176DE0A0D1B1DF801208131817F
:104FC0008217930729F5D701CD92DC92CE01DF91AC
:104FD000CF911F910F91FF90EF90DF90CF90BF90F6
:104FE000AF90089520919F063091A0062F5F3F4F0C
:104FF000CCEFDFEFE217F30790F2CBEFDFEF2E17E6
:105000003F0768F2D0E0C0E0CACFCFEFDFEFDECFDE
:10501000C3EFDFEFDBCF84E090E0089582E090E023
:1050200008958CEF9FEF089580E290E0089510922C
:10503000A2061092A1061092A00610929F0610924E
:105040009E0610929D0690E080E0089590933002B5
:1050500080932F02089580919C06882391F00BDEA7
:10506000009789F41092A2061092A1061092A00651
:1050700010929F0610929E0610929D0610929C061A
:10508000089590E080E00895009749F0611571055A
:1050900031F0FC0111821082FB011182108208950F
:1050A000F3CF40E855E260E070E090E080E000C0BF
:1050B0008130910579F01CF4892B39F00895823004
:1050C000910561F0039771F0089526E080EB96E07A
:1050D0000C947E3126E08DE497E0FACF26E08AEE4C
:1050E00097E0F6CF26E087E898E0F2CF1F920F9284
:1050F0000FB60F9211240BB60F922F933F934F933D
:105100005F936F937F938F939F93AF93BF93EF932F
:10511000FF938FE89DEF9093250180932401BAD0EF
:10512000FF91EF91BF91AF919F918F917F916F917F
:105130005F914F913F912F910F900BBE0F900FBE3B
:105140000F901F9018958FE89DEF90932501809305
:105150002401A3E7B0E08C918E7F8C93E0E2F1E034
:1051600080818C7F8083E1E2F1E08081877E808393
:1051700080818460808380818C7F80838C9181603A
:105180008C930895E3E7F0E0808190819E7F908387
:105190008170089581E008951092A306089568EE45
:1051A00073E080E090E07DD590E080E0089526E017
:1051B00040E052EC61E070E080EB96E00E947E31CE
:1051C00080EB96E0D1D7892B21F080EB96E0E6D7F3
:1051D000F7CF90E080E00895CF92DF92EF92FF92B8
:1051E0000F931F93CF93DF936B017A01E90119822B
:1051F000188280EB96E0B8D7892B69F18601CC2420
:10520000C39482E0D82E8091A306811110C080EB58
:1052100096E0C4D70297B9F7C092A306F801D192DD
:105220008F0188819981019699838883ECCF888149
:1052300099818E159F0578F480EB96E0AFD78F3F6C
:105240009807A9F3F80181938F01888199810196CC
:1052500099838883ECCF90E080E0DF91CF911F911C
:105260000F91FF90EF90DF90CF9008950F931F93D1
:10527000CF93DF93EA01890180EB96E00E940E3420
:10528000F801D183C08390E080E0DF91CF911F913E
:105290000F9108958091A40691E0980F9093A40631
:1052A000882349F021E030E03093A6062093A5063C
:1052B0008093A406089578940E948606F8948091BD
:1052C000A4068150F5CF0F931F93CF93DF931092D5
:1052D0008109109280091BD5E4DEC0915402D0915F
:1052E00055021982188264EF71E080E090E00E941C
:1052F0007B0670E060E090E080E00E94FC04009794
:1053000009F042C00E94EA08F8947894BE016C55F6
:105310007F4F8A819B810E94FF04892B71F46FEF7C
:105320007FEFCB010E948E050E947506882329F02D
:1053300081E0FE01E655FF4F8083F89404DF0E9470
:105340007806882311F080E00BC00E947506811159
:10535000FACF81E0FE01E655FF4F90819111F3CF26
:105360008093800978940E94D0108C017894C6555F
:10537000DF4F8091800981110CC00E94E5090E94D5
:105380005A06F89490E080E0DF91CF911F910F9141
:1053900008950E9458060E9478068823D9F081E07B
:1053A000809381099091810981E0911180E080933F
:1053B0008009809181098111E5DE0130110529F410
:1053C0000E94D010892B09F4E7DE0E94D0108C01D6
:1053D000E1DECFCF0E9475068111E1CF81E0988197
:1053E0009111DECF80E0DCCF5058BB27AA270ED02A
:1053F00075C166D130F06BD120F031F49F3F11F4CC
:105400001EF45BC10EF4E095E7FB51C1E92F77D1A3
:1054100080F3BA17620773078407950718F071F4D1
:105420009EF58FC10EF4E0950B2EBA2FA02D0B0127
:10543000B90190010C01CA01A0011124FF27591BD9
:1054400099F0593F50F4503E68F11A16F040A22FDF
:10545000232F342F4427585FF3CF46953795279550
:10546000A795F0405395C9F77EF41F16BA0B620B4F
:10547000730B840BBAF09150A1F0FF0FBB1F661F96
:10548000771F881FC2F70EC0BA0F621F731F841FD9
:1054900048F4879577956795B795F7959E3F08F0FF
:1054A000B3CF9395880F08F09927EE0F97958795BE
:1054B0000895D9D008F481E008950CD00FC107D128
:1054C00040F0FED030F021F45F3F19F0F0C05111F0
:1054D00039C1F3C014D198F39923C9F35523B1F31B
:1054E000951B550BBB27AA2762177307840738F053
:1054F0009F5F5F4F220F331F441FAA1FA9F333D0B2
:105500000E2E3AF0E0E830D091505040E695001C65
:10551000CAF729D0FE2F27D0660F771F881FBB1F21
:10552000261737074807AB07B0E809F0BB0B802DFB
:10553000BF01FF2793585F4F2AF09E3F510568F047
:10554000B6C000C15F3FECF3983EDCF386957795DB
:105550006795B795F7959F5FC9F7880F911D969549
:10556000879597F90895E1E0660F771F881FBB1FA5
:10557000621773078407BA0720F0621B730B840B52
:10558000BA0BEE1F88F7E095089504D06894B11126
:10559000D9C00895BCD088F09F5790F0B92F9927B3
:1055A000B751A0F0D1F0660F771F881F991F1AF02E
:1055B000BA95C9F712C0B13081F0C3D0B1E00895F7
:1055C000C0C0672F782F8827B85F39F0B93FCCF378
:1055D000869577956795B395D9F73EF49095809524
:1055E000709561957F4F8F4F9F4F0895E89409C044
:1055F00097FB3EF490958095709561957F4F8F4F06
:105600009F4F9923A9F0F92F96E9BB279395F6951B
:10561000879577956795B795F111F8CFFAF4BB0F99
:1056200011F460FF1BC06F5F7F4F8F4F9F4F16C0FD
:10563000882311F096E911C0772321F09EE8872F87
:10564000762F05C0662371F096E8862F70E060E043
:105650002AF09A95660F771F881FDAF7880F9695BC
:10566000879597F90895990F0008550FAA0BE0E860
:10567000FEEF16161706E807F907C0F01216130614
:10568000E407F50798F0621B730B840B950B39F454
:105690000A2661F0232B242B252B21F408950A26BA
:1056A00009F4A140A6958FEF811D811D089597F9FA
:1056B0009F6780E870E060E008959FEF80EC0895B8
:1056C00000240A94161617061806090608950024E1
:1056D0000A9412161306140605060895092E03945B
:1056E000000C11F4882352F0BB0F40F4BF2B11F4CF
:1056F00060FF04C06F5F7F4F8F4F9F4F089557FD2E
:105700009058440F551F59F05F3F71F04795880F2F
:1057100097FB991F61F09F3F79F0879508951216C6
:1057200013061406551FF2CF4695F1DF08C0161672
:1057300017061806991FF1CF869571056105089423
:105740000895E894BB2766277727CB0197F908953A
:105750008ADF08F48FEF08950BD0C0CFB1DF28F0B7
:10576000B6DF18F0952309F0A2CFA7CF1124EACF16
:10577000C6DFA0F3959FD1F3950F50E0551F629FB0
:10578000F001729FBB27F00DB11D639FAA27F00D9A
:10579000B11DAA1F649F6627B00DA11D661F829FC1
:1057A0002227B00DA11D621F739FB00DA11D621FA6
:1057B000839FA00D611D221F749F3327A00D611DC3
:1057C000231F849F600D211D822F762F6A2F1124A5
:1057D0009F5750408AF0E1F088234AF0EE0FFF1FF8
:1057E000BB1F661F771F881F91505040A9F79E3F2F
:1057F000510570F05CCFA6CF5F3FECF3983EDCF331
:10580000869577956795B795F795E7959F5FC1F76B
:10581000FE2B880F911D9695879597F90895089509
:10582000883008F076C0E82FF0E0EE0FFF1FEF5C45
:10583000FD4F718360838150873008F03DC0E82FB1
:10584000F0E08827E95DF34D8F4F0C945E34642CB3
:105850002E2C362C422C4F2C702C7D2C80916900E4
:105860008C7F482B40936900E89A089580916900E5
:10587000837F440F551F440F551F482B40936900E9
:10588000E99A0895809169008F7C74E0440F551F58
:105890007A95E1F7482B40936900EA9A0895809140
:1058A00069008F7366E0440F551F6A95E1F7482B36
:1058B00040936900EB9A089580916A008C7F482B91
:1058C00040936A00EC9A089580916A00837F440FA8
:1058D000551F440F551F482B40936A00ED9A0895B9
:1058E00080916A008F7C24E0440F551F2A95E1F7D0
:1058F000482B40936A00EE9A089580916A008F7356
:1059000096E0440F551F9A95E1F7482B40936A00A3
:10591000EF9A08951F920F920FB60F9211240BB6B3
:105920000F922F933F934F935F936F937F938F9338
:105930009F93AF93BF93EF93FF93E0913502F09164
:1059400036021995FF91EF91BF91AF919F918F9181
:105950007F916F915F914F913F912F910F900BBE6F
:105960000F900FBE0F901F9018951F920F920FB6B9
:105970000F9211240BB60F922F933F934F935F9387
:105980006F937F938F939F93AF93BF93EF93FF9307
:10599000E0913702F09138021995FF91EF91BF9194
:1059A000AF919F918F917F916F915F914F913F91B7
:1059B0002F910F900BBE0F900FBE0F901F90189558
:1059C0001F920F920FB60F9211240BB60F922F93C6
:1059D0003F934F935F936F937F938F939F93AF9377
:1059E000BF93EF93FF93E0913902F0913A0219953A
:1059F000FF91EF91BF91AF919F918F917F916F91A7
:105A00005F914F913F912F910F900BBE0F900FBE62
:105A10000F901F9018951F920F920FB60F9211249E
:105A20000BB60F922F933F934F935F936F937F9398
:105A30008F939F93AF93BF93EF93FF93E0913B02BC
:105A4000F0913C021995FF91EF91BF91AF919F9119
:105A50008F917F916F915F914F913F912F910F9017
:105A60000BBE0F900FBE0F901F9018951F920F92B4
:105A70000FB60F9211240BB60F922F933F934F93B3
:105A80005F936F937F938F939F93AF93BF93EF93A6
:105A9000FF93E0913102F09132021995FF91EF915D
:105AA000BF91AF919F918F917F916F915F914F9136
:105AB0003F912F910F900BBE0F900FBE0F901F9034
:105AC00018951F920F920FB60F9211240BB60F92DA
:105AD0002F933F934F935F936F937F938F939F93F6
