:1000000061C000000C94D9260C94002783C0000026
:1000100081C000007FC000007DC000007BC00000E8
:1000200079C0000077C0000075C0000073C00000F8
:1000300071C000000C943A236DC000006BC000003A
:100040000C94272767C000000C94462A0C94782A49
:1000500061C000005FC000005DC000005BC0000028
:1000600059C0000057C00000000000080002010055
:100070000003040700000000000000000102040863
:100080001020408001020408102001020408102002
:10009000040404040404040402020202020203032E
:1000A00003030303000000002300260029000000D2
:1000B0000000250028002B0000000000240027007D
:1000C0002A009D2A11241FBECFEFD8E0DEBFCDBF8E
:1000D00011E0A0E0B1E0E6E9F6E502C005900D927E
:1000E000A43EB107D9F725E0A4EEB1E001C01D920E
:1000F000A03EB207E1F710E0C2E6D0E004C02197CD
:10010000FE010E941A2BC136D107C9F70E94212493
:100110000C94492B75CF611102C00C948B2861306F
:10012000E1F362E0FACF662319F061E00C94C7288E
:1001300060E0FCCFCF92DF92EF92FF92CF938823C3
:1001400051F16A017B01CFEFC80F20E030E0A90137
:10015000CB01B6010E94022587FF11C0C701B6017D
:1001600090580E9473259B01AC016C2F70E090E0C9
:1001700080E0CF91FF90EF90DF90CF90B2C0C701A9
:10018000B6010E946E258C2FCF91FF90EF90DF90EB
:10019000CF900C940728CF91FF90EF90DF90CF90F5
:1001A00008950F931F938B019C0183E0369527954B
:1001B000179507958A95D1F70C511E4F462F47701A
:1001C00021E030E0F90102C0EE0FFF1F4A95E2F78F
:1001D000AF01F80120812423CB010196211102C037
:1001E00090E080E01F910F9108950F931F938B0172
:1001F0009C0183E036952795179507958A95D1F749
:10020000677081E090E001C0880F6A95EAF7F80115
:10021000EC51FE4F2081452B31F480958223808361
:100220001F910F910895822BFACF2F923F924F92F8
:100230005F926F927F928F929F92AF92BF92CF9276
:10024000DF92EF92FF920F931F93CF93DF93D62EFF
:10025000C72E782E692E49015A01280161E08D2DA3
:100260000E948B28CD2DDC2D8E010F5F1F4FA80122
:100270006D2D7C2D872D962DB8DF20E030E0A90173
:10028000C201B7010E945126181664F4C201B701D9
:100290000E9473252B01C501B4010E947325A201A0
:1002A000CE0123D0C801DF91CF911F910F91FF9014
:1002B000EF90DF90CF90BF90AF909F908F907F9006
:1002C0006F905F904F903F902F900895882341F05A
:1002D0008150682F70E090E080E050E040E085CFF2
:1002E0000895862FB9010C9407289C01FC01E85958
:1002F000FF4FE491E33061F140F4E13011F1E2307D
:1003000021F160E0822F0C94C728E730C1F1E8307A
:1003100009F441C0E430A9F7809180008C7F8260AD
:100320008093800090918100907E9061692B609312
:100330008100509387004093860080918000806206
:100340001BC084B5806884BDDCCF84B58062FBCFE0
:10035000809180008C7F82608093800090918100EA
:10036000907E9061692B6093810050938700409349
:10037000860080918000806880938000C2CF809149
:10038000B00080688093B0008091B100887F682BB6
:100390006093B100B6CF8091B0008062F3CF90E05F
:1003A00080E008950F931F93009709F487C06115AB
:1003B000710509F483C00091140110911501209179
:1003C0001601309117010E3F1F4F2F4F3F4F09F07D
:1003D00066C04FEF5FEFBA014093140150931501CF
:1003E000609316017093170140911401509115010B
:1003F0006091160170911701DC011296ED91FC914C
:1004000080819181A281B3818093E5029093E6027D
:10041000A093E702B093E80284819581A681B78119
:100420008093E1029093E202A093E302B093E4028E
:1004300080859185A285B3858093DD029093DE024D
:10044000A093DF02B093E00284859585A685B785E9
:100450008093D9029093DA02A093DB02B093DC027E
:100460001092D5021092D6021092D7021092D802A2
:1004700029D787E899E09093EE018093ED0190935E
:10048000F0018093EF011DD6009731F421E030E0B8
:100490003093EA022093E9021F910F910895009191
:1004A0001401109115012091160130911701DB0103
:1004B0000D931D932D933C93139796CF8FEF9FEF42
:1004C000EBCF8F929F92AF92BF92CF92DF92EF923B
:1004D000FF921F93CF93DF934B015C011091EC02CD
:1004E00082E090E09093EA028093E9028114910403
:1004F000A104B10441F48091EC02811104C0809107
:10050000EB02C1E08111C0E0C12CD12C76018091B9
:10051000EC02811106C08091EB02811102C0CC2354
:10052000D9F083E090E09093EA028093E902CC2333
:1005300079F1CCE9DFEF111102C00E94EC0CCE0181
:10054000DF91CF911F91FF90EF90DF90CF90BF9000
:10055000AF909F908F9008956AE070E080E090E007
:100560000E94962780E1C80E87E2D81EE11CF11C8C
:100570008FEF88169806A806B80631F0C1E08C14F3
:100580009D04AE04BF0408F0C0E080E0C6D5BFCF34
:10059000D0E0C0E0D0CFCF92DF92EF92FF920F93E6
:1005A0001F93CF93DF938F3F910511F008F045C063
:1005B0002091E9023091EA022330310539F020918F
:1005C000E9023091EA022130310531F424E030E0D3
:1005D0003093EA022093E9026A017B01EC01823048
:1005E0009105B0F011E0AE01C701B60169D5AB01CC
:1005F000BC0190E080E0112311F1CE01DF91CF9199
:100600001F910F91FF90EF90DF90CF900C94010F0E
:100610008C01000F111F03511E4FD8018D919C9129
:10062000892B01F30E94080F0297E1F6D801ED91A2
:10063000FC91CE010995182FD6CF8FEF9FEFDF9158
:10064000CF911F910F91FF90EF90DF90CF90089581
:1006500080E063C5CF93DF9386E090E09093EA0259
:100660008093E902B3D5EC01EDEEF1E084E0DF0127
:100670001D928A95E9F70E94840C1092EA0210926A
:10068000E902CE01DF91CF9108958091EB020895A8
:100690008091D402089560931401709315018093A2
:1006A00016019093170190E080E008952F923F92F9
:1006B0004F925F926F927F928F929F92AF92BF9272
:1006C000CF92DF92EF92FF920F931F93CF93DF931E
:1006D000CDB7DEB72B970FB6F894DEBF0FBECDBFF8
:1006E00062EA75E08EE895E00E94202360918E0515
:1006F00070918F0580919005909191050E94A125A0
:100700006B017C012091B6053091B7054091B80589
:100710005091B9050E949D244B015C0120E030E41A
:100720004CE157E40E94512618160CF0C2C020E09C
:1007300030E040E85FE36091BA057091BB058091BD
:10074000BC059091BD050E949D246093BA057093ED
:10075000BB058093BC059093BD0520E030E040E8E8
:100760005FE46091BA057091BB058091BC059091E2
:10077000BD050E945526A70196010E949E244B01AB
:100780005C01209108013091090140910A015091CA
:100790000B016BED7FE089EC90E40E9406259B0144
:1007A000AC01C501B4010E94552620910C01309185
:1007B0000D0140910E0150910F010E9406259B01F1
:1007C000AC0120938A0530938B0540938C055093A0
:1007D0008D05C092B605D092B705E092B805F092AB
:1007E000B9056091100170911101809112019091F1
:1007F00013010E949D242B013C01209100013091A6
:10080000010140910201509103010E9455266E831F
:100810007F83888799876093860570938705809387
:10082000880590938905E091B202F091B302C080EF
:10083000D180E280F3803090A6052090A70520911A
:10084000A80529833091A9053D830091AE058091CB
:10085000AF058A879091B0059B871091B105A701DC
:100860009601632D722D89819D810E945126202F32
:100870003A854B85512F87FD35C0C701B6010E94CF
:10088000022518160CF07AC1202F3A854B85512F7E
:10089000632D722D89819D810E94022587FD2AC0CA
:1008A0008090B2059090B305A090B405B090B505C6
:1008B00038C020E030E44CE157ECC501B4010E949F
:1008C000022587FF4ACF20E030E040E85FE36091F7
:1008D000BA057091BB058091BC059091BD050E9441
:1008E0009E2433CF632D722D89819D810E94022524
:1008F00087FF37C1202F3A854B85512FC701B6019D
:100900000E945126181664F28090AA059090AB05BB
:10091000A090AC05B090AD05032D2A86A981AB87C8
:100920001D81202F3A854B85512FC701B6010E94AA
:100930009D246B017C01A50194016E817F818885D6
:1009400099850E949D24A70196010E9406256B01AE
:100950007C012091040130910501409106015091E4
:100960000701C301B2010E945526A70196010E940A
:100970009E2420E030E04EE753E40E94552623E316
:1009800033E347EB51E40E9406256B017C0120E034
:1009900030E0A9010E94512660E0181684F020E0A2
:1009A00030E0A901C701B6010E940225E894F7F8DA
:1009B00061E087FD04C060E0C12CD12C760185E0A8
:1009C000B2DB66E070E080E090E0EBDB9A83898345
:1009D0009093A1058093A00520E030E04FE753E419
:1009E000C701B6010E940225181634F4C12CD12C7F
:1009F0008FE7E82E83E4F82EB701A60189819A815A
:100A000099DB62EA75E08EE895E00E942E238091E2
:100A1000A6059091A705A091A805B091A905898385
:100A20009A83AB83BC834090CE055090CF056090F5
:100A3000D0057090D105A3019201BC01CD010E94A7
:100A40000225E091B202F091B30281119BC0808136
:100A50009181A281B3818093A6059093A705A0936D
:100A6000A805B093A905EAEAF5E080918605909182
:100A70008705A0918805B091890580839183A28321
:100A8000B38340919F025091A0026091A1027091A6
:100A9000A20290E080E07FDD4091A7025091A80281
:100AA0006091A9027091AA0281E090E074DD6091EA
:100AB0009F027091A0028091A1029091A2026F5FAB
:100AC0007F4F8F4F9F4F60939F027093A002809340
:100AD000A1029093A202A091B202B091B302BA8394
:100AE000A9830E949F259B01AC016091A302709194
:100AF000A4028091A5029091A6020E945526E98148
:100B0000FA8160837183828393838091A70290919D
:100B1000A802A091A902B091AA020196A11DB11D3F
:100B20008093A7029093A802A093A902B093AA026F
:100B30002B960FB6F894DEBF0FBECDBFDF91CF91DD
:100B40001F910F91FF90EF90DF90CF90BF90AF90EB
:100B50009F908F907F906F905F904F903F902F90DD
:100B600008958090AA059090AB05A090AC05B09038
:100B7000AD05032D2A86B981BB87D2CEC12CD12CDD
:100B80007601E7CE8090AE059090AF05A090B005BD
:100B9000B090B105C080D180E280F380A5019401BE
:100BA000C301B2010E94022581110BC0C092AE05A3
:100BB000D092AF05E092B005F092B105E2EBF5E01E
:100BC00054CFA501940169817A818B819C810E9417
:100BD000022587FFEBCFC092A605D092A705E09231
:100BE000A805F092A9053FCF8F929F92AF92BF9236
:100BF000DF92EF92FF920F931F93CF93DF9384E0E6
:100C000090E025D1E7E0F2E08FEA92E097838683D7
:100C1000C2EBD2E0D0934802C093470203EA12E04D
:100C2000158B048BF0937202E0937102F583E483D9
:100C300021E030E0DC012D933C9389E391E0938740
:100C4000828724EB32E03983288340E050E060E87B
:100C50007FEB4093AB025093AC026093AD02709374
:100C6000AE024AE057ED63E27CE3D8014D935D9319
:100C70006D937C931397CDE8D2E084E997EBADE2D6
:100C8000B4EA88839983AA83BB838DE190E2ABE6C3
:100C9000B6EB8093910290939202A0939302B0934B
:100CA000940283EC9AE8DC0180939502909396027B
:100CB000A0939702B09398028FE89AE1A8E1BDEC67
:100CC0008093990290939A02A0939B02B0939C0206
:100CD000ABEFB1E0B383A283E1EFF1E01196FC93B7
:100CE000EE938BE491E09183808393838283958359
:100CF000848397838683918780878DE992E0159618
:100D00009C938E9314971396DC93CE931297179619
:100D10003C932E93169782EA95E00E940A23C2E93B
:100D2000D5E0188A198A1A8A1B8A8091CE0590917B
:100D3000CF05A091D005B091D1058C8B9D8BAE8B4A
:100D4000BF8B8C8F9D8FAE8FBF8F1882812C912C83
:100D50005401839489829A82AB82BC8261E085E0EF
:100D6000DAD9DD24D394DD8218861D8689869A8699
:100D7000AB86BC86E12CF12C8701A801970166E0C7
:100D800070E080E090E051DA9F878E87DD86DF910A
:100D9000CF911F910F91FF90EF90DF90BF90AF9098
:100DA0009F908F90089580919205811103C081E0FA
:100DB0008093920580919A0581112AC081E08093E9
:100DC0009A0580919B0590919C05A0919D05B091FD
:100DD0009E050197A105B105D9F480919F0588234F
:100DE000B9F066E070E080E090E0DBD99093A10577
:100DF0008093A00540E050E0BA019CD966E070E025
:100E000080E090E0CED99093A1058093A0055ECAC2
:100E1000089560E070E080E89FE7089560E070E08A
:100E200080E89FE7089560E070E080E89FEF089514
:100E300060E070E080E89FEF089560E070E080EC93
:100E40009FEF089560E070E080EC9FEF0895F5DF7C
:100E50006093D2057093D3058093D4059093D50504
:100E6000F1DF6093C6057093C7058093C805909322
:100E7000C905CFDF6093CE057093CF058093D00571
:100E80009093D105CBDF6093CA057093CB05809317
:100E9000CC059093CD05C7DF6093D6057093D70539
:100EA0008093D8059093D905C3DF6093DA057093DA
:100EB000DB058093DC059093DD0508954F925F92EA
:100EC0006F927F928F929F92AF92BF92CF92DF925A
:100ED000EF92FF920F931F93F8944090C8025090A6
:100EE000C9026090CA027090CB02C090BC02D09040
:100EF000BD02E090BE02F090BF024130510509F002
:100F0000A4C09B01AC0124193509460957092901E0
:100F10003A010091C4021091C5022091C60230919D
:100F2000C70248015901840C951CA61CB71C8016E9
:100F30009106A206B306A0F40091C0021091C1026E
:100F40002091C2023091C3020F5F1F4F2F4F3F4FBE
:100F50000093C0021093C1022093C2023093C302D7
:100F60008092C4029092C502A092C602B092C702BB
:100F70000091C0021091C1022091C2023091C302BF
:100F80008092CC029092CD02A092CE02B092CF027B
:100F90000093D0021093D1022093D2023093D30257
:100FA0006093C8027093C9028093CA029093CB02E7
:100FB000A0E1B7E2A30192010E94202B6C0D7D1DE0
:100FC0008E1D9F1D6093BC027093BD028093BE0274
:100FD0009093BF0200911401109115012091160108
:100FE000309117010F3F1F4F2F4F3F4FF1F00091EE
:100FF00014011091150120911601309117010E3F37
:101000001F4F2F4F3F4F89F0C0901401D090150112
:10101000E0901601F090170121E08C149D04AE04BD
:10102000BF0408F420E02093D40278941F910F911C
:10103000FF90EF90DF90CF90BF90AF909F908F90F8
:101040007F906F905F904F9008954B015C018418E2
:101050009508A608B708A3019201261B370B480B79
:10106000590B6415750586059705D0F08216930611
:10107000A406B50640F420E030E0A90181149104F3
:10108000A104B10491F4A0E1B7E20E94202BA701D2
:101090009601261B370B480B590BCA01B901C5CF66
:1010A00082169306A406B50670F7A0E1B7E2A50183
:1010B00094010E94202B6C0D7D1D8E1D9F1DB5CFB0
:1010C000FDCECF93DF9300D000D0CDB7DEB71C822A
:1010D0001B821A821982BE016F5F7F4FCE01039679
:1010E0000E949B2269817A818B819C810E94E91BED
:1010F000009761F4BE016F5F7F4FCE0103960E949F
:10110000A72269817A818B819C8125D50F900F90D0
:101110000F900F90DF91CF910895FF920F931F933F
:10112000CF93DF93082F60E070E0CB010E949627F9
:10113000FF24F3940E94D41AEC01892B89F010E06B
:10114000CE3F8FEFD80769F0002361F160E070E0D7
:10115000CB010E94962781E090E0892B59F322C0B1
:1011600011E01CD5EC01892B21F0CE3F8FEFD80781
:1011700059F711111EC011E0229609F410E00E94E7
:10118000851AEC01892B21F0CE3F8FEFD807E1F6CD
:10119000111111C011E0CE3F8FEFD80709F410E014
:1011A00001110BC0CE01DF91CF911F910F91FF90E4
:1011B000089511E0E4CF11E0F3CF60E070E0CB01DF
:1011C0000E9496271F25812F90E0C7CFCF93DF93F2
:1011D0001FD6D0E0C0E0892B71F06AE070E080E0BB
:1011E00090E00E94962781E098DF12D62196C03DBC
:1011F00027E0D20781F711D60E943D1C1092EC0225
:101200001092EB021092E5021092E6021092E702B1
:101210001092E8021092E1021092E2021092E302B0
:101220001092E4021092DD021092DE021092DF02B0
:101230001092E0021092D9021092DA021092DB02B0
:101240001092DC021092D5021092D6021092D702B0
:101250001092D8024EEF5FEF6FEF7FEF40931401D3
:101260005093150160931601709317011092D402E8
:10127000ECECF2E028E0DF011D922A95E9F71092EC
:10128000C8021092C9021092CA021092CB021092A8
:10129000C4021092C5021092C6021092C7021092A8
:1012A000C0021092C1021092C2021092C3021092A8
:1012B000BC021092BD021092BE021092BF02DF91DA
:1012C000CF9108951092F8021092F9021092FA024A
:1012D0001092FB021092F70280910003909101039B
:1012E0009093F6028093F5021092F4021092F302AA
:1012F0001092EF021092F0021092F1021092F2029C
:101300001092FD021092FC0290E080E00895CF92CE
:10131000DF92EF92FF920F931F93CF938C0101976F
:1013200009F055C020910003309101038091F5022E
:101330009091F60240910003509101035093F60200
:101340004093F5022817390781F01092F4021092A9
:10135000F3021092EF021092F0021092F10210923A
:10136000F2021092FD021092FC0280910003909113
:101370000103019761F58091FC029091FD02892B98
:1013800021F480911801811112C08091FC0290918A
:10139000FD020197E1F48091EF029091F002A0919B
:1013A000F102B091F2020197A105B10581F410920A
:1013B000EF021092F0021092F1021092F2021092DB
:1013C000180182E090E09093FD028093FC028091EE
:1013D000000390910103019709F01CC1809116034D
:1013E000909117038017910709F014C1809112039F
:1013F00090911303A0911403B0911503009709F481
:1014000009C12091110321110DC040911203509187
:1014100013036091140370911503452B462B472B42
:1014200009F4F8C02091FC023091FD022230310510
:1014300009F0F0C02091F3022111ECC0FC01C08042
:10144000D180E280F3808091F702882309F4D3C031
:101450008091030390910403892B09F4FEC020912D
:1014600003033091040381E02230310509F080E06C
:101470002091030330910403C1E02130310549F08C
:101480002091030330910403C1E02230310509F0BB
:10149000C0E0882309F456C020910D0330910E035B
:1014A00040910F0350911003C701B6010E945126CD
:1014B00087FD14C020910D0330910E0340910F035E
:1014C000509110036091F8027091F9028091FA0234
:1014D0009091FB020E94022587FD22C020910D03FE
:1014E00030910E0340910F0350911003C701B601D4
:1014F0000E945126181634F520910D0330910E03E9
:1015000040910F03509110036091F8027091F9021D
:101510008091FA029091FB020E940225811112C073
:101520008091050390910603A0910703B0910803F1
:10153000892B8A2B8B2B19F481E08093F40281E0B4
:101540008093F302CC2309F456C020910D0330910F
:101550000E0340910F0350911003C701B6010E9482
:10156000022587FF14C020910D0330910E03409196
:101570000F03509110036091F8027091F90280916D
:10158000FA029091FB020E94512687FF22C020910F
:101590000D0330910E0340910F0350911003C701CA
:1015A000B6010E940225811126C020910D033091C1
:1015B0000E0340910F03509110036091F802709157
:1015C000F9028091FA029091FB020E9451261816AE
:1015D00094F48091050390910603A0910703B091C4
:1015E0000803892B8A2B8B2B19F481E08093F4025A
:1015F00081E08093F30281E09091F302911180E009
:101600008093F702C092F802D092F902E092FA02B7
:10161000F092FB020130110509F067C18091FC02D4
:101620009091FD02892BD9F4109202031092F302DB
:1016300080911801882379F082E090E09093FD0278
:101640008093FC0210921801209100033091010355
:1016500081E0232BE9F080E01BC081E009CF1092EC
:10166000180180910203882349F01092F40210922D
:10167000FD021092FC0210920203EDCF8091000354
:1016800090910103892BE1F08091F3021092F30213
:101690002091FC023091FD022230310509F45EC038
:1016A00088F42115310509F448C02130310509F4C9
:1016B000F3C01092F4021092F3021092020338C0A9
:1016C00081E0E6CF2330310509F4B1C02430310583
:1016D00081F74091EF025091F0026091F102709118
:1016E000F202411551056105710561F04150510942
:1016F000610971094093EF025093F0026093F10287
:101700007093F2024091EF025091F0026091F10269
:101710007091F202452B462B472BD9F42091FE0203
:101720003091FF022130310509F046C01092F402D9
:101730001092FD021092FC020CC0809118018823C7
:1017400041F082E090E09093FD028093FC021092C1
:1017500018011092ED028091F402CEC08823C9F3E3
:101760008091050390910603A0910703B0910803AF
:10177000181619061A061B060CF07DC0809100038E
:1017800090910103019709F076C080910503909133
:101790000603A0910703B09108038093EF02909392
:1017A000F002A093F102B093F20283E090E09093F4
:1017B000FD028093FC02CDCF4091090350910A03B2
:1017C00060910B0370910C03452B462B472BA9F01E
:1017D0001092F4028091090390910A03A0910B03E7
:1017E000B0910C038093EF029093F002A093F1026A
:1017F000B093F20281E090E0DACF882399F08091F3
:10180000190190911A01A0911B01B0911C018093C4
:10181000EF029093F002A093F102B093F20284E001
:1018200090E0C5CF1092F40282E090E0C0CF8091AA
:10183000EF029091F002A091F102B091F2020097B4
:10184000A105B10559F00197A109B1098093EF02F3
:101850009093F002A093F102B093F2028091EF0214
:101860009091F002A091F102B091F202892B8A2BA3
:101870008B2B09F06ECF8091190190911A01A091E4
:101880001B01B0911C01892B8A2B8B2B09F44ECFA5
:1018900081E08093F402B3CF4091EF025091F002C7
:1018A0006091F1027091F2024115510561057105D7
:1018B00061F041505109610971094093EF02509361
:1018C000F0026093F1027093F2024091EF025091A6
:1018D000F0026091F1027091F202452B462B472BEA
:1018E00009F037CF8111C7CF9FCF8091ED028823B8
:1018F00009F431CF8091EE02CF911F910F91FF90AB
:10190000EF90DF90CF9008951092F8021092F902B4
:101910001092FA021092FB021092F7021092FD024E
:101920001092FC021092F6021092F5021092170328
:10193000109216031092F4021092F3021092EF022A
:101940001092F0021092F1021092F2021092EE0246
:101950001092ED02109212031092130310921403CE
:10196000109215031092110310920D0310920E03A2
:1019700010920F031092100388EE93E0A0E0B0E005
:101980008093190190931A01A0931B01B0931C013D
:101990001092090310920A0310920B0310920C0389
:1019A0001092050310920603109207031092080389
:1019B000109204031092030381E0809318011092A7
:1019C000020310920103109200031092FF02109282
:1019D000FE0290E080E00895809100039091010361
:1019E000892B19F580911801882351F08091020309
:1019F000811106C081E08093EE028093ED0208958C
:101A0000209102033091180181E090E0332311F01E
:101A100090E080E030E082239323892B21F0109224
:101A2000EE0281E0EACF1092ED02089582E090E0AC
:101A3000FA01918380838FEF9FEF0895CF93DF9317
:101A4000EA01009711F00E944F1D1982188290E060
:101A500080E0DF91CF910895DB01009719F48FEFBB
:101A60008C9308952EEF2C930F968F30910508F0EC
:101A700033C0FC01E25CF24F0C941A2B6A0D680D26
:101A8000660D640D620D5E0D600D5C0D5A0D580DF6
:101A9000550D510D4D0D530D6C0D80E311968C932A
:101AA000089589E2FBCF82E2F9CF11961C92089546
:101AB00083E2F4CF81E2F2CF81E1F0CF87E2EECF93
:101AC0008AE2ECCF80E1EACF84E2E8CF88E2E6CF99
:101AD00086E2E4CF81E3E2CF80E2E0CF809124038D
:101AE00090912503089590932503809324030895EE
:101AF00080912303089590912303892B80932303DE
:101B00000895982F90958091230389238093230330
:101B100008958091220308958091200390912103DC
:101B200008956115710559F0FB0130E020E070E087
:101B300060E02417350719F06115710511F0CB012C
:101B40000895A081B181A817B90709F4BF012F5FDB
:101B50003F4F3696EECF8091260381111CC043D2B1
:101B600049D290931903809318030E94C8160E94CB
:101B7000DA1690931D0380931C030E94EF190E94B4
:101B8000F61990931B0380931A0381E08093260338
:101B900090E080E0089584EF9FEF08958F929F92E8
:101BA000AF92BF92CF92DF92EF92FF920F931F936B
:101BB000CF93DF93CDB7DEB72A970FB6F894DEBF89
:101BC0000FBECDBF1A86198618861F821E821D82FF
:101BD0001C821B821A8219828091260307EF1FEF55
:101BE000882309F48BC08E010D5F1F4F9E012B5F70
:101BF0003F4FAE01495F5F4FBE01675F7F4F90E08F
:101C000080E00E946F1B8C01009721F005960297DF
:101C100008F0C7C089859A85009709F4EFC0ED8068
:101C2000FE802B813C812E0D3F1D4F815885421730
:101C3000530708F4E3C0E80EF91ED7014C91209138
:101C4000240330912503232B09F494C0413F08F06D
:101C500069C08CE1840F8D3008F483C08DE2840F5D
:101C6000803108F481C088E3840F8B3008F47FC092
:101C70009CE2C92E9DE0D92EE6E1FDE06D817E81DA
:101C8000AE014F5F5F4F89859A8509955C01C1144C
:101C9000D104A1F189809A808114910479F18B811A
:101CA0009C818815990508F484C010E000E04B8100
:101CB0005C8170E060E0C7010E94422B01151105B4
:101CC000E9F449815A8169857A858D819E81680F01
:101CD000791FC501F6010995E980FA800D811E8101
:101CE0002F81388549855A856FEF7FEF81E090E03D
:101CF0000E940B1B8C01892B09F053C0C8012A9646
:101D00000FB6F894DEBF0FBECDBFDF91CF911F910C
:101D10000F91FF90EF90DF90CF90BF90AF909F908A
:101D20008F90089530E020E0220F331FF901E85E24
:101D3000FC4F0190F081E02D309709F499CF842F6A
:101D400090E00995009709F493CFDC011296ED918C
:101D5000FC9113971496CD90DC90309709F08ECFBC
:101D60001EC021E030E0E0CF22E030E0DDCF23E014
:101D700030E0DACFD12CC12CEEE1FDE04F3F09F08D
:101D80007DCFE0911803F0911903309719F404EF17
:101D90001FEF0CC08FEF90E009950097B1F604EFAC
:101DA0001FEF89859A85009709F4A8CF0E944F1DDF
:101DB000A5CF0E94381C8C0189859A850E944F1DF1
:101DC00070E060E0C4010E94D11B98878F830E945D
:101DD000081B9E838D836F8178856115710559F08D
:101DE000C8010E94D31E9A87898706EF1FEF892BAF
:101DF00009F05BCF5CCF08EF1FEF59CF08EF1FEF63
:101E0000D0CF209126032111DAC787EF9FEF0895E5
:101E1000809124039091250308950E94FB190E944C
:101E20005519EDD0E8E1F3E088E0DF011D928A95D5
:101E3000E9F71092260390E080E0089586E090E0B4
:101E4000FA019183808390E080E0089547E050E0BC
:101E50006EE471E066CEDF92EF92FF920F931F93D4
:101E6000CF93DF938A01EC01C60FD71FE0902A03BE
:101E7000F0902B03D9800E94201CD816190678F008
:101E800082E090E0F801918380838EEF9FEFDF91F5
:101E9000CF911F910F91FF90EF90DF900895EF2861
:101EA00041F482E090E0F8019183808384EF9FEF1A
:101EB000EECF89818093290390E00196F801918308
:101EC000808390E080E0E3CFCF93DF93EA010E942C
:101ED0006718882321F00E942D1C0E94681882E058
:101EE00090E0998388838BEF9FEFDF91CF910895E6
:101EF000CF93DF93EB0186E0FB0111928A95E9F71E
:101F00008FEF8883F5DD898304DE8A8305DE9D8378
:101F10008C83DF91CF910895CF93DF93EA010E94E4
:101F20006A18811109C082E090E09983888385EF67
:101F30009FEFDF91CF91089590E080E0D4DD81E0C4
:101F400090E09983888390E080E0F3CF0F931F9314
:101F5000CF93DF93EA018C01060F171F0E946A18C6
:101F600081110BC082E090E09983888385EF9FEF19
:101F7000DF91CF911F910F910895F80181818230F7
:101F800038F082E090E0998388838EEF9FEFF0CF66
:101F900081E090E0A8DD88E090E09983888390E07C
:101FA00080E0E6CFCF93DF930097D1F4EB01FB0104
:101FB000329686E0DF011D928A95E9F78FEF8883DC
:101FC00085E089831A820E94201C8B830E941F1C3B
:101FD0009D838C8381E08E838F83DF91CF910895E1
:101FE000DF91CF9139CD86E29FE0909328038093D3
:101FF0002703089580912703909128030895109254
:10200000280310922703089580912A0390912B03AF
:102010000895411105C0611571058105910561F0B3
:1020200060932A0370932B0380932C0390932D03CA
:1020300040932E0381E0089580E00895FF920F936E
:102040001F93CF93DF938A01EC01C60FD71FF9804E
:102050000E94201CF816190668F082E090E0F80152
:10206000918380838EEF9FEFDF91CF911F910F912E
:10207000FF9008956C817D818E819F814B81C9DFA6
:10208000811108C082E090E0F8019183808384EFA1
:102090009FEFEACF89818093290390E00196F801B0
:1020A0009183808390E080E0DFCFCF93DF93EA01DC
:1020B000FC01E60FF71F648175818681978143815A
:1020C000A8DF811109C082E090E09983888384EFC2
:1020D0009FEFDF91CF91089581E090E0998388830D
:1020E00090E080E0F6CFEAE2F3E040815181628146
:1020F0007381480F511D611D711D4083518362839F
:1021000073830895CF93C09129034C2F50E06091C1
:102110002A0370912B0301960E94392B8C2FE3DF49
:1021200010922903CF910895009799F480912A0382
:1021300090912B032FEFFB012083892B59F02091E5
:10214000290330E02F5F3F4F2417350719F4CB01E7
:10215000D9CF82CC0895009799F480912A03909169
:102160002B032FEFFB012083892B59F020912903AA
:1021700030E02F5F3F4F2417350719F4CB01C2CF52
:102180006BCC08952DE0AC01249FC001259F900DDC
:102190001124E0913303F0913403E80FF91F2381F8
:1021A00034812250310981E02230310508F080E08D
:1021B00008950F931F93CF93DF93009135031091F0
:1021C0003603D0E0C0E080E00C171D0749F491E031
:1021D000811190E0892FDF91CF911F910F91089588
:1021E0008111F5CFCE01CEDF2196EECFA091330342
:1021F000B0913403109729F12091350330913603C3
:1022000082179307F0F45DE0589F9001599F300DBD
:102210001124A20FB31FED91FC911197309789F013
:1022200012968C91681768F485E0689FE00DF11DA7
:10223000112480819181892B21F081E092814917BD
:1022400008F080E00895EF92FF920F931F93CF93D1
:10225000DF93EA01FC01E60FF71F02811381E4809E
:10226000F5804F2D6E2DC801C1DF81110DC082E0B8
:1022700090E0998388838EEF9FEFDF91CF911F913C
:102280000F91FF90EF900895C8017CDF882339F00B
:1022900082E090E09983888388EF9FEFEECF1093E0
:1022A000240100932301E0922501F092260181E0B0
:1022B00090E09983888390E080E0DFCFCF92DF9237
:1022C000EF92FF920F931F93CF93DF937A01EC016C
:1022D000C60FD71FC0902301D09024010091250183
:1022E00010912601412F602FC60180DF811110C09F
:1022F00082E090E0F701918380838AEF9FEFDF9186
:10230000CF911F910F91FF90EF90DF90CF900895A4
:10231000C60138DF882341F082E090E0F701918325
:10232000808388EF9FEFEBCF4C815D816E817F8151
:102330009A8189818F3F41F082E090E0F70191839B
:1023400080838EEF9FEFDBCFEDE0EC9D9001ED9D64
:10235000300D1124E0913303F0913403E20FF31FA9
:102360000190F081E02D25E0029FE00DF11D112488
:102370000190F081E02D27E0129FE00DF11D112466
:10238000808391838B8182834383548365837683A7
:102390001F5F1093260181E090E0F7019183808315
:1023A00090E080E0ACCFEF92FF920F931F93CF931A
:1023B000DF937A018C01060F171FC0913303D09170
:1023C0003403209781F021E030E0F801828193818D
:1023D00040913503509136038417950710F030E093
:1023E00020E0232B71F482E090E0F7019183808359
:1023F0008EEF9FEFDF91CF911F910F91FF90EF90A4
:1024000008954DE0489F9001499F300D1124C20F5F
:10241000D31FB8DE882341F082E090E0F70191837A
:10242000808388EF9FEFE6CFF80124813581203843
:102430003105C8F687818111D6CF4181842F90E084
:102440008F7E009741F082E090E0F70191838083D6
:1024500086EF9FEFCFCF4F833E832D832681288742
:102460001986223010F421E0288721E030E0F701BE
:1024700031832083BFCF88E090E0FA01918380838D
:1024800090E080E00895FB018FEF808381E18183FC
:102490008FEF9FEF9383828380E890E0958384831E
:1024A000168217820895FB018FEF808391E091835C
:1024B00082839383848384E3858381E090E09783A0
:1024C000868308954BE050E068E771E02ACB8F9255
:1024D0009F92BF92CF92DF92EF92FF920F931F9342
:1024E000CF93DF93EA01FC01E60FF71F828193810E
:1024F0000481B580E0913303F0913403309791F477
:1025000082E090E0998388838CEF9FEFDF91CF91F9
:102510001F910F91FF90EF90DF90CF90BF909F9011
:102520008F900895209135033091360382179307D9
:1025300038F082E090E0998388838EEF9FEFE6CFBA
:102540002DE0289F6001299FD00C1124EC0DFD1D6A
:10255000E080F180E114F10499F28281081748F7D4
:1025600085E0089F80011124E00EF11EF7018081B3
:102570009181892B29F6BB20E1F2F7E0BF9E400153
:102580001124C4010E94041DF70191838083E0910E
:102590003303F0913403EC0DFD1D0190F081E02D2B
:1025A000E00FF11F80819181009739F482E090E083
:1025B000998388838DEF9FEFA9CFA40170E060E03D
:1025C0000E94422B8091330390913403C80ED91E90
:1025D000F60180819181080F191FF801B28281E014
:1025E00090E09983888390E080E090CFAF92BF9293
:1025F000CF92DF92FF920F931F93CF93DF93EA0165
:10260000FC01E60FF71F82819381F4800091330370
:10261000109134030115110581F482E090E0998353
:1026200088838CEF9FEFDF91CF911F910F91FF90E7
:10263000DF90CF90BF90AF900895209135033091F7
:1026400036038217930738F082E090E099838883FD
:102650008EEF9FEFE8CF2FEF2F0D2C3FA8F72DE047
:10266000289F6001299FD00C11240C0D1D1DF8011D
:1026700080819181892B89F6F5E0FF9E500111241C
:10268000C5010E94041DF80191838083E09133030A
:10269000F0913403EC0DFD1D80819181009739F498
:1026A00082E090E0998388838DEF9FEFBCCFA501F6
:1026B00070E060E00E94422BE0913303F09134031C
:1026C000EC0DFD1DF28281E090E09983888390E01B
:1026D00080E0A9CFCF92DF92EF92FF920F931F93EA
:1026E000CF93DF93860F971FFC01028113818091A6
:1026F000330390913403892B81F082E090E0FA015A
:10270000918380838CEF9FEFDF91CF911F910F9189
:10271000FF90EF90DF90CF900895C801B0E0A0E067
:102720000197A109B1098F3F9F4FA105B10540F065
:1027300082E090E0FA01918380838EEF9FEFE4CFF7
:102740007A018DE0809F6001819FD00C1124C60129
:102750000E94041DEC01009741F482E090E0F70133
:10276000918380838DEF9FEFCFCFA60170E060E073
:102770000E94422BD0933403C0933303109336034B
:102780000093350390E080E02FEF3FEF8017910733
:1027900041F481E090E0F7019183808390E080E054
:1027A000B3CF3C872B8701962D96F0CFCF92DF9247
:1027B000EF92FF920F931F93CF93DF93EC01D12CF5
:1027C000C12C10E000E0F12CE12C8A818017110669
:1027D00009F0BCF4AE01455F5F4F63E070E0C701F4
:1027E0000E947B1D009721F02FEF3FEF3C872B8746
:1027F000DF91CF911F910F91FF90EF90DF90CF90DD
:102800000895E881F981EC0DFD1D23813481C90112
:1028100001960115110519F44F8144FD049661E0FC
:1028200070E0BFD7E816F90608F47C010F5F1F4F70
:1028300085E0C80ED11CC9CFF894209131033091A6
:10284000320381E02115310509F080E0232B09F0E6
:10285000789408954F925F926F927F928F929F9299
:10286000AF92BF92CF92DF92EF92FF920F931F939E
:10287000CF93DF933C01660E771EF3018281938133
:102880004C01B12CA12CC0913303D091340320977B
:1028900069F021E030E060913503709136038617CE
:1028A000970710F030E020E0232BC1F482E090E0A5
:1028B000FA01918380838EEF9FEFDF91CF911F917B
:1028C0000F91FF90EF90DF90CF90BF90AF909F90CF
:1028D0008F907F906F905F904F9008958092270126
:1028E00090922801A0922901B0922A016DE0689F80
:1028F0009001699F300D1124C20FD31FF301818114
:10290000833040F082E090E0FA019183808386EF8B
:102910009FEFD3CF2A012B813C81232BF1F4288117
:1029200039819F8191FF2EC0232B09F464C020912F
:1029300038039A81422F490F5527551FBA0141E0AC
:1029400050E06138710514F050E040E0452B09F487
:1029500052C02A87920F909338038150823008F436
:1029600076C06ADF882309F4C7C0F3018181813012
:1029700009F480C008F470C0823009F4B5C090E05A
:1029800080E090C0232BB9F1209137039A81E22F88
:10299000E90FFF27FF1F41E050E0ED3FF10514F084
:1029A00050E040E0452B39F12A87920F909337038E
:1029B000D4CFA081B181A20FB31F11966C91060FE5
:1029C000111D0196295F3F4F8417950794F3C11499
:1029D000D104C9F48F8184FF16C031D721E0A8014A
:1029E0004B5F5F4F8417950708F420E0A7014B5F0A
:1029F0005F4F21110EC082E090E0F201918380834D
:102A000087EF9FEF5ACF1BD721E0A8014F5F5F4FA1
:102A1000E9CF88819981E80EF91EF70114830383B9
:102A2000FFEFCF1ADF0A7A018A818C151D0409F0A5
:102A30000CF497CFE881F981EE0DFF1D428150E043
:102A400030E020E010E000E090E080E0BDCFF12C2D
:102A5000E12CD12CC12CE8CF81E090E09C838B83CA
:102A6000A8DB882309F48BCF81E090E03CD880E498
:102A700048D885CF8B859C85019651F083E090E006
:102A80009C838B8382E090E02ED880E434D877CF8B
:102A900022E082169104A104B1047CF4CE0186DE0A
:102AA000009761F3789422E030E0F20131832083D3
:102AB000892BF9F08DEF9FEF00CF2D813E81809122
:102AC0001D0190911E0128173907C1F6609121015F
:102AD00070912201AE01455F5F4F80911F0190917F
:102AE00020010E94921EDCCF82E090E09C838B83C9
:102AF00046CF90E080E0E1CE82E090E0F201918369
:102B0000808385EF9FEFD9CE8F929F92AF92BF9235
:102B1000CF92DF92EF92FF920F931F93CF93DF93A9
:102B2000EA018C01060F171FF8018181833098F0AC
:102B300082E090E09983888386EF9FEFDF91CF91C9
:102B40001F910F91FF90EF90DF90CF90BF90AF90CB
:102B50009F908F9008958091330390913403892B37
:102B600061F081E090E02091350330913603232B12
:102B700011F490E080E0892B39F482E090E09983B1
:102B800088838EEF9FEFDACF57DE882309F4D6C013
:102B9000F8018181813009F48CC0E8F0823099F429
:102BA0002091350330913603E0913303F0913403E3
:102BB00090E080E041E050E02817390709F0B4C008
:102BC000F8DA811117C0789481E090E099838883C6
:102BD00090E080E0B3CF2091350330913603E0914F
:102BE0003303F091340390E080E041E050E0281797
:102BF000390741F481E090E00E94730D80E40E9467
:102C0000810DE1CF63817481672B11F0548343837D
:102C100001963D96ECCFE0913303F0913403E00F41
:102C2000F11F238134812230310569F423853485F5
:102C30002F3F3F4F41F422E0C216D104E104F104DA
:102C40000CF5CF01B3DD4FEFC41AD40AE40AF40A3D
:102C5000035F1F4F409135035091360370E060E0F1
:102C6000C416D506E606F70664F50097A1F2789437
:102C7000892B09F4A9CF82E090E0998388838DEFB6
:102C80009FEF5CCF4581568120911D0130911E013F
:102C900042175307C1F6AF01455F5F4F60912101B5
:102CA0007091220180911F01909120010E94921E3B
:102CB000CACF10E000E090E080E0C12CD12C76017A
:102CC000C9CF0097A1F610E000E0812C912C5401AF
:102CD00083E0E82EF12C1AC0E0913303F091340325
:102CE000E00FF11F83819481029749F4F482E3821B
:102CF00082E090E00E94730D80E40E947B0D8FEFD4
:102D0000881A980AA80AB80A035F1F4F80913503F2
:102D100090913603B0E0A0E088169906AA06BB069B
:102D2000DCF290E080E0A3CF6381748162307105B2
:102D300011F45483438301963D963ECF82E090E0A8
:102D40009983888385EF9FEFF9CE0097B9F48FEFD1
:102D5000FB01808320912701309128014DE0429FA3
:102D6000C001439F900D1124E0913303F09134038F
:102D7000E80FF91F8285FB01818308950C942C0DC7
:102D800088E090E0FA019183808390E080E00895EC
:102D90001092320310923103E3E3F3E086E0DF01A7
:102DA0001D928A95E9F782E692E190933003809331
:102DB0002F03089580912F039091300308952F924F
:102DC0003F924F925F926F927F928F929F92AF92BB
:102DD000BF92CF92DF92EF92FF920F931F93CF9308
:102DE000DF93CDB7DEB762970FB6F894DEBF0FBEA4
:102DF000CDBFF89420913103309132032F5F3F4FC4
:102E0000309332032093310378942091330330912F
:102E100034033B832A83232B09F456C120913503C5
:102E200030913603232B09F44FC14D875E876F879E
:102E3000788B9C878B878A819B819A8B898BD12CFD
:102E4000C12C198210E000E0809135039091360387
:102E5000C816D90618F43981332329F1F8948091E2
:102E600031039091320301979093320380933103A1
:102E70007894C80162960FB6F894DEBF0FBECDBF3E
:102E8000DF91CF911F910F91FF90EF90DF90CF9046
:102E9000BF90AF909F908F907F906F905F904F907A
:102EA0003F902F900895B60190E080E029D3888765
:102EB000A989BA8917968C91179781FD8DC01396B1
:102EC0008D919C911497039709F086C01596ED910A
:102ED000FC91FF83EE832B853C85E217F30709F015
:102EE0007BC0712C612C512C412C63C091D39A87EB
:102EF000898710E04114510431F4A989BA891796E1
:102F00001C9112951170A989BA89ED91FC91E60D79
:102F1000F71D23803480111169C0BFEF2B1A3B0AC3
:102F200061E070E0C1013DD45C01A989BA891B96BA
:102F30008D919C918F3F980709F45CC0B50133D700
:102F40004C01009709F4BBC0E985FA85E80FF91F29
:102F5000A989BA891A968C91840D808311114DC06C
:102F60008F010F5F1F4F80911D0190911E01AE8157
:102F7000BF81A817B90709F09DC081E090E0B8852E
:102F8000BB2311F090E080E0710109851A8595015D
:102F9000A401B6019195819591093DD38C01892BAE
:102FA00011F0C4017CD58FEF481A580A95E0690EDC
:102FB000711CA989BA8912968C918415150429F07F
:102FC00024F0B981BB2309F491CFE885EE2321F0E9
:102FD000B60190E080E096D2FFEFCF1ADF0A298990
:102FE0003A89235F3F4F3A8B298B2ECFE5E02E0E97
:102FF000311C96CFC50108D5A3CF8D859E85AF85A1
:10300000B88981839283A383B4838F010B5F1F4FA1
:10301000AACFE080F180EC81FD81EE0EFF1ED7018A
:1030200013966D917C9114978C918F3FE1F1E1E0C3
:10303000F0E002C0EE0FFF1F8A95E2F7CF01092EE4
:10304000000CAA0BBB0BFB01408151816281738193
:1030500084239523A623B72321E0892B8A2B8B2B4E
:1030600009F420E0D8012C93D70111968C91080F18
:10307000111DEA81FB813196FB83EA832C813D811E
:10308000295F3F4F3D832C83A989BA89ED91FC913B
:10309000E60DF71D82812A813B818217130611F00C
:1030A0000CF0B7CF6ACFF701418150E0C8010E9410
:1030B000392BDACF1D821C821B821A82E5CF31E0C8
:1030C000398306EF1FEF6FCF10E000E0C7CEB4CB1F
:1030D000789408952F923F924F925F926F927F92D1
:1030E0009F92AF92BF92CF92DF92EF92FF920F9397
:1030F0001F93CF93DF9300D000D000D0CDB7DEB7C1
:103100000091330310913403992493940115110510
:1031100009F43EC0A0903503B09036038DDB982EA5
:103120008823B1F1109234031092330310923603C6
:103130001092350310923703109238038FEF9FEFF0
:10314000DC018093270190932801A0932901B0937B
:103150002A01789476D31E830D83C12CD12C76015D
:10316000C501B0E0A0E089839A83AB83BC832224AD
:103170002A94322C89819A81AB81BC81C816D906E8
:10318000EA06FB06F4F0C8018AD480E40E94810DAF
:10319000892D26960FB6F894DEBF0FBECDBFDF9106
:1031A000CF911F910F91FF90EF90DF90CF90BF9044
:1031B000AF909F907F906F905F904F903F902F9037
:1031C0000895AD81BE8192E0C916D104E104F104F5
:1031D0000CF51B968D919C918F3F980709F023D594
:1031E000ED81FE8134862386ED81FE81808191818F
:1031F000B12CA12C412C512C3201892B59F5BFEF58
:10320000CB1ADB0AEB0AFB0AED81FE813D96FE83B9
:10321000ED83B0CF15962D913C91169780911D01AD
:1032200090911E0128173907F9F61B968D919C91F4
:10323000A8D5DACF8A0D9B1DDC018D919C9100975A
:1032400009F02DD4BFEF4B1A5B0A6B0A7B0AE5E04D
:10325000AE0EB11CAD81BE818D919C9111971296DD
:103260004C9150E070E060E0441655066606770623
:103270000CF315D4C4CFCF93DF93EA012BDF811178
:1032800009C082E090E09983888385EF9FEFDF910A
:10329000CF91089581E090E00E94730D81E090E06D
:1032A0009983888390E080E0F2CF14DF109230039E
:1032B00010922F03089542E050E06AEB71E00C9405
:1032C000910DFF920F931F93CF93DF938A01EC012F
:1032D000C60FD71FF980B4D20897F816190671F0F7
:1032E00068F082E090E0F801918380838EEF9FEF99
:1032F000DF91CF911F910F91FF9008956C817D8197
:103300008E819F814B810E940910811108C082E04B
:1033100090E0F8019183808384EF9FEFE9CFF980FB
:103320000E9404104F2D50E0BE01685F7F4F0E9445
:10333000392B89810E94731081E090E0F80191831C
:10334000808390E080E0D4CFDF92EF92FF920F93E2
:103350001F93CF93DF938A01EC01C60FD71F0E9402
:1033600004107C01D9806CD2DD2059F0029721E055
:1033700030E0D816190619F010F030E020E0232BC9
:1033800079F482E090E0F801918380838EEF9FEFE3
:10339000DF91CF911F910F91FF90EF90DF900895F3
:1033A000EF2841F482E090E0F8019183808384EF7C
:1033B0009FEFEECFF9800E9404104F2D50E0BE0128
:1033C0006E5F7F4F0E94392B89810E94731081E0CC
:1033D00090E0F8019183808390E080E0D9CF8BE585
:1033E00099E190933A0380933903089580913903CA
:1033F00090913A0308950895FC01118210829383FD
:1034000082830895DB011D921C92DC011296ED91DE
:10341000FC9113977183608313967C936E9312973C
:103420000895FC0180819181DB018D939C93A081A3
:10343000B181109741F08D919C9191838083892B6C
:1034400011F4F383E2830895FC0180819181DB0113
:103450008D939C93892B11F47383628371836083B2
:103460000895FC0111821082938382830895CF9383
:10347000DF9300D0CDB7DEB71A821982F894BE016F
:103480006F5F7F4F80E493E0CCDF89819A81009762
:1034900009F005D389819A81892B89F7BE016F5F75
:1034A0007F4F84E493E0BDDF89819A81009709F022
:1034B000F6D289819A81892B89F778940F900F90A1
:1034C000DF91CF910895CF93DF9300D0CDB7DEB7D2
:1034D0001A821982F894BE016F5F7F4F8CE393E0EC
:1034E000A0DF89819A81009709F0D9D289819A81D8
:1034F000892B89F778940F900F90DF91CF910895E1
:1035000081E0089590E080E00895EF92FF920F939C
:103510001F93CF93DF9300D0CDB7DEB71A82198205
:1035200080913B0307EF1FEF8823A1F1F894BE01C0
:103530006F5F7F4F84E493E074DF789489819A8190
:10354000EE24E394F12C892B51F4F894BE016F5FC3
:103550007F4F80E493E065DF7894F12CE12C898142
:103560009A810EEF1FEF0097A9F0FC014281538171
:1035700064E070E014D68C01892B61F0F8946981C5
:103580007A81C701880F991F880F991F805C9C4F13
:103590005BDF7894C8010F900F90DF91CF911F915E
:1035A0000F91FF90EF9008950F931F93CF93DF93A8
:1035B00000D000D0CDB7DEB71C821B821A821982E0
:1035C00080913B0307EF1FEF8823C1F0AE014D5FF1
:1035D0005F4F64E070E0CE01019654D68C01892BD8
:1035E00069F4E981FA818B819C8193838283F894C9
:1035F00069817A818CE393E005DF7894C8010F90AC
:103600000F900F900F90DF91CF911F910F91089520
:1036100059D7049608958F929F92AF92BF92CF92FE
:10362000DF92EF92FF920F931F93CF93DF9300D01F
:10363000CDB7DEB71A821982BC016F5F7F4F63304E
:10364000710598F0AA24AA94BA2CC5010F900F9086
:10365000DF91CF911F910F91FF90EF90DF90CF906E
:10366000BF90AF909F908F9008954115510551F3F1
:10367000480159018A016C01CBDF8815990511F7C2
:10368000E114F104F9F28E0D9F1DA816B906D0F2CF
:1036900080913B038823F1F0F894B50164507109DF
:1036A0009701AE014F5F5F4FC801049680D65C0161
:1036B000892B71F489819A81F80193838283C601F1
:1036C000880F991F880F991FB801805C9C4F9ADE64
:1036D0007894BBCF87EFA82EBB24BA94B6CFAF9215
:1036E000BF92CF92DF92EF92FF920F931F93CF93EF
:1036F000DF9300D0CDB7DEB71A821982892B09F08B
:1037000047C06115710509F443C04115510509F41D
:103710003FC02115310509F43BC001151105C1F168
:1037200080913B038823B9F179016A015B01F89428
:10373000BE016F5F7F4F8CE393E073DE78948981E5
:103740009A81009759F1DC0112966D917C91A80144
:10375000049646D68C01E981FA81D501ED93FC935C
:10376000828193810496F6019183808351DFD70192
:103770008D939C93C8010F900F90DF91CF911F9173
:103780000F91FF90EF90DF90CF90BF90AF90089592
:103790000FEF1FEFEFCF07EF1FEFECCF0EEF1FEF95
:1037A000E9CFCF93DF93EC01672B71F494D68C179C
:1037B0009D0760F087D62496C80FD91F86D68C0F38
:1037C0009D1FDF91CF91089583D6F1CF90E080E0E7
:1037D000F8CF0F931F93CF93DF9320913B032111D9
:1037E0002BC08B01EC0180E493E006DE84E493E0DF
:1037F00003DE8CE393E000DE86D00097C1F46BD645
:1038000070E060E0CEDF4BE251E062E070E073D147
:10381000009769F480912B0190912C016ED6B8012C
:10382000CE01A3D4009719F421E020933B03DF914C
:10383000CF911F910F91089584EF9FEFF8CF48C665
:103840004AC6CF93DF934AD6EC01892B11F40FDEE1
:103850003ADECE01DF91CF910895CF93DF933ED62C
:10386000EC01892B09F403DECE01DF91CF9108959D
:1038700080912B0190912C010895CF93DF9380913B
:103880003B03D0E0C0E08823D1F03CD6EC01892B8B
:10389000B1F4EDDD18DE80912B0190912C01C3D1A4
:1038A000D2D2EC01892B59F480E493E0DADD84E490
:1038B00093E0D7DD8CE393E0D4DD10923B03CE019F
:1038C000DF91CF910895CF93DF930097A1F4DF911B
:1038D000CF910895EC011A821982A883309711F0D4
:1038E000928381832F5F3F4FFC01860F971F421702
:1038F000530781F7ECCF30E020E0F0E0E0E0AFEFFD
:103900006F5F7F4FF4CFAF92BF92CF92DF92EF9273
:10391000FF920F931F93CF93DF938DE494E07C018C
:103920002CEFE22286ECC82E81E0D82E9CECA92E4A
:1039300091E0B92EC4E9D4E08E01D6014D915D919C
:103940006D01F501619171915F01D8011196FC92B1
:10395000EE9215965C934E93149713965C934E9348
:10396000129717967C936E9316979B012F5F3F4F8C
:10397000249FC001259F900D349F900D112419960E
:103980009C938E931897C7019EDFF80180859185DF
:10399000E80EF91E065F1F4FFCECCF16F1E0DF06C4
:1039A00061F6EAE4F3E080E091E0DF019C011D9222
:1039B00021503040E1F7109249031092480382EB06
:1039C00094E01F8E1E8E1BA21AA219A218A21DA27D
:1039D0001CA21FA21EA22A968C179D0791F7109277
:1039E000910410929004109293041092920490E02B
:1039F00080E0DF91CF911F910F91FF90EF90DF90CA
:103A0000CF90BF90AF900895009761F1F894813105
:103A1000910580F48091960490919704892B29F563
:103A20008091A0049091A104892B31F021E081E0E4
:103A300090E00BC08197A8F48091AA049091AB0408
:103A4000892B79F022E082E090E0EAE0E89FD00163
:103A5000E99FB00D1124AC56BB4F8D919C910097FE
:103A600041F4789490E080E0089520E090E080E0D8
:103A7000ECCFE29FF0011124EC56FB4FDC011196D4
:103A80004D915C9151834083428153814150510952
:103A900053834283FC012193CF01789408950097CA
:103AA00049F1DC018E91863041F4E0919204F0916D
:103AB00093043097F9F0CD0109948630D8F4282F7B
:103AC00030E0F8948FEF8C938AE0829FF001839F1F
:103AD000F00D1124EC56FB4F8081918112969C933E
:103AE0008E931197B183A0838281938101969383F2
:103AF000828378940895CF92DF92EF92FF920F9392
:103B00001F93CF93DF939C018DE493E08C7F41154D
:103B1000510509F485C02115310509F481C06115ED
:103B2000710509F47DC08A01AB01B9016D5F7F4F5A
:103B30006C7F9B012F5F3F4F249F7001259FF00CEE
:103B4000349FF00C1124F894E4E9F4E023E030E031
:103B5000E901A6A1B7A1C68CD78CCD2809F054C025
:103B6000109709F03CC0C0904803D09049032DEF56
:103B700030E02C193D092E153F0530F47894CFEF35
:103B8000DFEF86EF9FEF1FC02AE02C9FF0012D9FF3
:103B9000F00D1124EC56FB4F9183808355834483B1
:103BA0005383428377836683F186E0868CDEEC0C58
:103BB000FD1CF0924903E09248037894CF3FDC0764
:103BC00001F390E080E0F801D183C083DF91CF91D1
:103BD0001F910F91FF90EF90DF90CF900895AE1559
:103BE000BF0590F02AE02C9FF0012D9FF00D1124CD
:103BF000EC56FB4F918380835583448353834283E8
:103C00007783668360DED9CF8A0F9B1F2F5F3F4F7C
:103C10003A962630310509F09BCFCFEFDFEFCDCFBD
:103C20008FEF9FEFD3CFFF920F931F93CF93DF932D
:103C30009C01235031092330310508F070C0EC019C
:103C4000F89485E09AE09C9FD0019D9FB00D1124CF
:103C5000A456BB4F082F10E0909FF001919FF00DEC
:103C60001124EC56FB4F20813181C017D10714F18C
:103C7000FF24F394232B41F52AE0209FF001219F9C
:103C8000F00D1124EC56FB4F8091480390914903AD
:103C900040855185841B950B90934903809348037D
:103CA0002C9FF0012D9FF00D1124EC56FB4F118637
:103CB00010861CC0232B39F42D913C911197232B96
:103CC000A9F48150C7CFF12C8AE08C9FF0018D9F21
:103CD000F00D1124EC56FB4F4085518570E060E0FB
:103CE000808191810E94422BF110C6CF8AE08C9F87
:103CF000F0018D9FF00D1124EC56FB4F11821082C4
:103D0000158214821382128217821682789490E0B0
:103D100080E0DF91CF911F910F91FF9008958FEF79
:103D20009FEFF7CF4115510549F1009739F1611522
:103D3000710521F1F8942091900430919104232B86
:103D4000B9F42091920430919304232B89F4909339
:103D500091048093900470939304609392047894F8
:103D600026E030E090E080E0FA013183208308957E
:103D700078942FEF3FEF86EF9FEFF6CF8FEF9FEF17
:103D80000895069769F4F8941092910410929004A3
:103D90001092930410929204789490E080E0089539
:103DA0008FEF9FEF08956115710519F4F0E0E0E0E1
:103DB00011C08630910581F4E0919004F091910456
:103DC0003097A1F3CB0101960995009779F3FC0197
:103DD00086E08193CF0108959C012350310923305F
:103DE000310520F72AE0289FD001299FB00D11242A
:103DF000AC56BB4F2D913C911197232BB9F21696DF
:103E00002D913C9117972617370780F2F894129658
:103E10002D913C9113972115310529F0ED91FC91DD
:103E20001197309711F47894C1CF41815281119646
:103E30005C934E932150310913963C932E93129725
:103E400081937894C7CFEAE4F4E086E4DF011D9221
:103E50008A95E9F7EAE4F3E080E091E0DF019C0174
:103E60001D9221503040E1F710924903109248030F
:103E7000E4E9F4E08CE3DF011D928A95E9F7E0E9DB
:103E8000F4E084E0DF011D928A95E9F790E080E09C
:103E90000895CF93DF93C0912D01D0912E01CF3F94
:103EA000DC0759F444D490932E0180932D0197FFA1
:103EB00009C0D0932E01C0932D0184EF9FEFDF91B5
:103EC000CF91089590E080E0FACF8230910528F4F8
:103ED0008093D00490E080E008958FEF9FEF0895E5
:103EE0004F925F926F927F92AF92BF92CF92DF928A
:103EF000EF92FF920F931F93CF93DF9300D0CDB734
:103F0000DEB71A821982009709F478C0611571052D
:103F100009F474C020912D0130912E0107EF1FEF9D
:103F20002F3F3F4F09F444C06B015C01412C512CE1
:103F30003201F12CE12C10E000E09E012F5F3F4F99
:103F4000A6014E195F09B5016E0D7F1D80912D01EF
:103F500090912E014AD4892B09F04AC089819A8117
:103F6000009741F4E114F10429F42091D0042223B4
:103F700009F441C0E80EF91EEC14FD04C8F480E811
:103F8000481684E858068EE16806710418F560E06A
:103F900070E0CB01CBD72AE0420E511C611C711C92
:103FA0000A3F4FEF140721F0043F8FEF1807A1F4E9
:103FB000C8010F900F90DF91CF911F910F91FF904B
:103FC000EF90DF90CF90BF90AF907F906F905F9019
:103FD0004F90089501EF1FEF81E090E0013F2FEF38
:103FE000120711F090E080E0892B09F4A6CFE0CF12
:103FF00004EF1FEFDDCF0AEF1FEFDACF0FEF1FEF58
:10400000D7CF4F925F926F927F92AF92BF92CF9233
:10401000DF92EF92FF920F931F93CF93DF9300D025
:10402000CDB7DEB71A821982009709F478C06115FE
:10403000710509F474C020912D0130912E0107EF14
:104040001FEF2F3F3F4F09F444C06B015C01412C2F
:10405000512C3201F12CE12C10E000E09E012F5F89
:104060003F4FA6014E195F09B5016E0D7F1D80916E
:104070002D0190912E016FD3892B09F04AC08981BF
:104080009A81009741F4E114F10429F42091D004BD
:10409000222309F441C0E80EF91EEC14FD04C8F413
:1040A00080E8481686E9580688E96806710418F51C
:1040B00060E070E0CB013AD72AE0420E511C611C4F
:1040C000711C0E3F4FEF140721F0043F8FEF1807CC
:1040D000A1F4C8010F900F90DF91CF911F910F9124
:1040E000FF90EF90DF90CF90BF90AF907F906F9058
:1040F0005F904F90089502EF1FEF81E090E0023F44
:104100002FEF120711F090E080E0892B09F4A6CF81
:10411000E0CF04EF1FEFDDCF0EEF1FEFDACF0FEF91
:104120001FEFD7CF80912D0190912E018F3F9807DF
:1041300049F0F5D2892B49F48FEF9FEF90932E0130
:1041400080932D0190E080E0089584EF9FEF089523
:10415000FC01680F791F90E080E0E617F70709F48B
:1041600008952191820F911DF8CF2091D104211142
:1041700013C08FDE009791F41092D7041092D604EA
:104180001092D5041092D4041092D3041092D20449
:1041900021E02093D104089584EF9FEF0895AF921A
:1041A000BF92CF92DF92EF92FF920F931F93CF9324
:1041B000DF93009709F460C04630510508F45CC0F5
:1041C0002091D104C7EFDFEF222309F449C08C010D
:1041D000060F171FF801C080D180C114D10409F463
:1041E0004EC096012A5F3F4F4217530708F447C05D
:1041F0007C018091D6049091D70493838283B60189
:104200006C5F7F4F5801A60EB71EC801A1DFF501F4
:104210009183808364E070E0C80162DEEC01892B49
:10422000F9F481E090E051DEB601C801049658DE51
:10423000EC01892B91F462E070E0C50151DEEC01E4
:10424000892B59F4C7012BDC8091D6049091D704B7
:1042500001969093D7048093D60490E080E035DEF9
:10426000CE01DF91CF911F910F91FF90EF90DF90E2
:10427000CF90BF90AF900895CFEFDFEFF1CFC9EFB0
:10428000DFEFEECF6F927F928F929F92AF92BF92AD
:10429000CF92DF92EF92FF920F931F93CF93DF9312
:1042A00000D000D0CDB7DEB7009709F47AC0411531
:1042B000510509F476C02091D10407EF1FEF2223A6
:1042C00009F44DC03A017B015C0164E070E0CE016D
:1042D000019697DE8C01892B09F041C009811A8172
:1042E0000115110509F45AC0480186E0880E911C99
:1042F000B701680D791D80912F019091300153DD38
:104300006C01009709F450C0A70170E060E00E94C2
:10431000422B89819A81AB81BC81EC0CFD1CF70199
:1043200081939193A193B1937F0181E090E0CDDDE2
:10433000B801C70166DE892B31F562E070E0C70184
:10434000800F911F5EDE8C01892BE9F490E080E004
:10435000BCDDF501D182C082F30191828082C80167
:104360000F900F900F900F90DF91CF911F910F91B1
:10437000FF90EF90DF90CF90BF90AF909F908F9085
:104380007F906F90089590E080E09FDDF5011182AD
:104390001082F30111821082C60181DB09EF1FEF49
:1043A000DECF0FEF1FEFDBCF06EF1FEFD8CF009769
:1043B000A1F04115510589F02115310571F0F90180
:1043C00036966E177F0748F0DC012D933C93DA0197
:1043D000ED93FC9390E080E008958FEF9FEF0895B8
:1043E000AF92BF92CF92DF92EF92FF920F931F9303
:1043F000CF93DF93009709F45FC04115510509F48D
:104400005BC06530710508F457C02091D104C7EF37
:10441000DFEF222391F1DC01CD90DC901197129611
:10442000ED91FC9196012A5F3F4FC9EFDFEF261710
:10443000370719F5C091D204D091D304209749F5DC
:1044400021E030E03093D3042093D2047A018C0130
:10445000F093D504E093D4045601B4E0AB0EB11C44
:10446000B50176DE0A0D1B1DF8012081318182170E
:10447000930729F5D701CD92DC92CE01DF91CF9140
:104480001F910F91FF90EF90DF90CF90BF90AF9072
:1044900008952091D4043091D5042F5F3F4FCCEF85
:1044A000DFEFE217F30790F2CBEFDFEF2E173F07B6
:1044B00068F2D0E0C0E0CACFCFEFDFEFDECFC3EFCE
:1044C000DFEFDBCF84E090E0089582E090E0089594
:1044D0008CEF9FEF089580E290E008951092D7044A
:1044E0001092D6041092D5041092D4041092D304E2
:1044F0001092D20490E080E0089590933001809370
:104500002F0108958091D104882391F00BDE00974C
:1045100089F41092D7041092D6041092D504109208
:10452000D4041092D3041092D2041092D1040895AE
:1045300090E080E00895009749F06115710531F031
:10454000FC0111821082FB01118210820895F3CFC9
:104550008091340149D6019791F48091330144D67A
:104560004091D8045091D9046091DA047091DB0431
:10457000892B91F44F5F5F4F6F4F7F4F11C0809138
:10458000330132D64091D8045091D9046091DA04B5
:104590007091DB04892B71F7415051096109710950
:1045A0004093D8045093D9046093DA047093DB04E9
:1045B00008958091330118D6019791F480913401C8
:1045C00013D64091D8045091D9046091DA047091C7
:1045D000DB04892B91F4415051096109710911C023
:1045E0008091340101D64091D8045091D904609152
:1045F000DA047091DB04892B71F74F5F5F4F6F4FC7
:104600007F4F4093D8045093D9046093DA04709399
:10461000DB04089562E0809134017DD562E08091F1
:10462000330179D541E050E068EA72E280913201CD
:10463000A0D341E050E069ED72E28091310199C36D
:104640004091D8045091D9046091DA047091DB0450
:10465000FC0140835183628373830895089540E889
:1046600055E260E070E090E080E000C026E089EE76
:1046700094E0ACC61F920F920FB60F9211242F93A5
:104680003F934F935F936F937F938F939F93AF93DA
:10469000BF93EF93FF938FE89DEF909385008093F6
:1046A0008400B6D0FF91EF91BF91AF919F918F9110
:1046B0007F916F915F914F913F912F910F900FBE1E
:1046C0000F901F9018958FE89DEF90938500809331
:1046D0008400AFE6B0E08C918E7F8C93E0E8F0E050
:1046E00080818C7F8083E1E8F0E08081877E808319
:1046F00080818460808380818C7F80838C918160C5
:104700008C930895EFE6F0E0808190819E7F908306
:104710008170089581E008951092DC04089568EE98
:1047200073E080E090E002D490E080E0089526E01D
:1047300040E050E16EE070E089EE94E047D689EE0B
:1047400094E07AD5892B21F089EE94E08FD5F7CFCC
:1047500090E080E00895CF92DF92EF92FF920F9366
:104760001F93CF93DF936B017A01E90119821882BD
:1047700089EE94E061D5892B69F18601CC24C3943C
:1047800082E0D82E8091DC04811110C089EE94E083
:104790006DD50297B9F7C092DC04F801D1928F0170
:1047A00088819981019699838883ECCF888199814A
:1047B0008E159F0578F489EE94E058D58F3F9807C1
:1047C000A9F3F80181938F018881998101969983DA
:1047D0008883ECCF90E080E0DF91CF911F910F9123
:1047E000FF90EF90DF90CF9008950F931F93CF939A
:1047F000DF93EA01890189EE94E0CCD6F801D183F8
:10480000C08390E080E0DF91CF911F910F910895D8
:104810008091DD0491E0980F9093DD04882349F0A6
:1048200021E030E03093DF042093DE048093DD0448
:10483000089578940E945603F8948091DD04815085
:10484000F5CFCF93DF931092DF051092DE05A4D34E
:1048500006DFC0914C01D0914D01198218826FEF93
:104860007FEFCB010E944B0370E060E090E080E0BE
:104870000E94CF01009709F037C00E94F405F89418
:104880007894BE016C557F4F8A819B810E94D20132
:10489000892B69F46FEF7FEFCB010E9461020E94C8
:1048A0004503882321F0C655DF4F81E08883F894C3
:1048B0000ADF0E944803811104C00E94450391E071
:1048C000811190E09093DE0578940E946E0DEC01CA
:1048D00078948091DE0581110AC00E94D3060E945F
:1048E0002A03F89490E080E0DF91CF9108950E9430
:1048F00028030E94480391E0811106C00E944503ED
:1049000091E0811101C090E09093DF059091DF0567
:1049100081E0911180E08093DE058091DF058111B7
:10492000F1DE219729F40E946E0D892B09F4F4DE43
:104930000E946E0DEC01EEDECCCF5058BB27AA27AB
:104940000ED075C166D130F06BD120F031F49F3FAD
:1049500011F41EF45BC10EF4E095E7FB51C1E92FA1
:1049600077D180F3BA17620773078407950718F0A9
:1049700071F49EF58FC10EF4E0950B2EBA2FA02D89
:104980000B01B90190010C01CA01A0011124FF27FC
:10499000591B99F0593F50F4503E68F11A16F040F7
:1049A000A22F232F342F4427585FF3CF46953795F6
:1049B0002795A795F0405395C9F77EF41F16BA0BBB
:1049C000620B730B840BBAF09150A1F0FF0FBB1F69
:1049D000661F771F881FC2F70EC0BA0F621F731FB2
:1049E000841F48F4879577956795B795F7959E3F0F
:1049F00008F0B3CF9395880F08F09927EE0F97959D
:104A000087950895D9D008F481E008950CD00FC19E
:104A100007D140F0FED030F021F45F3F19F0F0C034
:104A2000511139C1F3C014D198F39923C9F3552317
:104A3000B1F3951B550BBB27AA2762177307840791
:104A400038F09F5F5F4F220F331F441FAA1FA9F347
:104A500033D00E2E3AF0E0E830D091505040E69539
:104A6000001CCAF729D0FE2F27D0660F771F881F9A
:104A7000BB1F261737074807AB07B0E809F0BB0B89
:104A8000802DBF01FF2793585F4F2AF09E3F5105AD
:104A900068F0B6C000C15F3FECF3983EDCF386954A
:104AA00077956795B795F7959F5FC9F7880F911D23
:104AB0009695879597F90895E1E0660F771F881F0F
:104AC000BB1F621773078407BA0720F0621B730BC2
:104AD000840BBA0BEE1F88F7E095089504D0689414
:104AE000B111D9C00895BCD088F09F5790F0B92F6C
:104AF0009927B751A0F0D1F0660F771F881F991F33
:104B00001AF0BA95C9F712C0B13081F0C3D0B1E044
:104B10000895C0C0672F782F8827B85F39F0B93F54
:104B2000CCF3869577956795B395D9F73EF4909534
:104B30008095709561957F4F8F4F9F4F0895E894B2
:104B400009C097FB3EF490958095709561957F4FD5
:104B50008F4F9F4F9923A9F0F92F96E9BB27939583
:104B6000F695879577956795B795F111F8CFFAF493
:104B7000BB0F11F460FF1BC06F5F7F4F8F4F9F4FC4
:104B800016C0882311F096E911C0772321F09EE822
:104B9000872F762F05C0662371F096E8862F70E088
:104BA00060E02AF09A95660F771F881FDAF7880F62
:104BB0009695879597F90895990F0008550FAA0BB8
:104BC000E0E8FEEF16161706E807F907C0F0121620
:104BD0001306E407F50798F0621B730B840B950B23
:104BE00039F40A2661F0232B242B252B21F4089578
:104BF0000A2609F4A140A6958FEF811D811D089515
:104C000097F99F6780E870E060E008959FEF80EC7F
:104C1000089500240A941616170618060906089522
:104C200000240A9412161306140605060895092E88
:104C30000394000C11F4882352F0BB0F40F4BF2BF7
:104C400011F460FF04C06F5F7F4F8F4F9F4F089537
:104C500057FD9058440F551F59F05F3F71F047952D
:104C6000880F97FB991F61F09F3F79F08795089512
:104C7000121613061406551FF2CF4695F1DF08C031
:104C8000161617061806991FF1CF8695710561054E
:104C900008940895E894BB2766277727CB0197F9F6
:104CA00008958ADF08F48FEF08950BD0C0CFB1DFED
:104CB00028F0B6DF18F0952309F0A2CFA7CF112472
:104CC000EACFC6DFA0F3959FD1F3950F50E0551FB3
:104CD000629FF001729FBB27F00DB11D639FAA2751
:104CE000F00DB11DAA1F649F6627B00DA11D661FA0
:104CF000829F2227B00DA11D621F739FB00DA11DC1
:104D0000621F839FA00D611D221F749F3327A00D7A
:104D1000611D231F849F600D211D822F762F6A2F16
:104D200011249F5750408AF0E1F088234AF0EE0F9B
:104D3000FF1FBB1F661F771F881F91505040A9F7A8
:104D40009E3F510570F05CCFA6CF5F3FECF3983EDD
:104D5000DCF3869577956795B795F795E7959F5F0F
:104D6000C1F7FE2B880F911D9695879597F90895A9
:104D700008958230E8F4E82FF0E0EE0FFF1FEB5CBF
:104D8000FE4F71836083813041F0809169008C7F98
:104D9000482B40936900E89A089580916900837FC9
:104DA000440F551F440F551F482B40936900E99A43
:104DB00008951F920F920FB60F9211242F933F93D5
:104DC0004F935F936F937F938F939F93AF93BF9313
:104DD000EF93FF93E0913501F09136010995FF9132
:104DE000EF91BF91AF919F918F917F916F915F9163
:104DF0004F913F912F910F900FBE0F901F901895DC
:104E00001F920F920FB60F9211242F933F934F933F
:104E10005F936F937F938F939F93AF93BF93EF9322
:104E2000FF93E0913701F09138010995FF91EF91DF
:104E3000BF91AF919F918F917F916F915F914F91B2
:104E40003F912F910F900FBE0F901F9018951F92BA
:104E50000F920FB60F9211242F933F938F939F932E
:104E6000AF93BF938091E1049091E204A091E30499
:104E7000B091E4043091E00423E0230F2D3758F57E
:104E80000196A11DB11D2093E0048093E10490934D
:104E9000E204A093E304B093E4048091E5049091CC
:104EA000E604A091E704B091E8040196A11DB11DAC
:104EB0008093E5049093E604A093E704B093E8049C
:104EC000BF91AF919F918F913F912F910F900FBE06
:104ED0000F901F90189526E8230F0296A11DB11D73
:104EE000D2CF3FB7F8948091E5049091E604A09169
:104EF000E704B091E80426B5A89B05C02F3F19F040
:104F00000196A11DB11D3FBFBA2FA92F982F882749
:104F1000BC01CD01620F711D811D911D42E0660F24
:104F2000771F881F991F4A95D1F708958F929F92F6
:104F3000AF92BF92CF92DF92EF92FF926B017C0112
:104F4000D0DF4B015C01C114D104E104F104D9F0BC
:104F50004ED3C7DF681979098A099B09683E7340F7
:104F60008105910580F321E0C21AD108E108F1081A
:104F700088EE880E83E0981EA11CB11CC114D104D8
:104F8000E104F10431F7FF90EF90DF90CF90BF90F4
:104F9000AF909F908F900895789484B5826084BD7F
:104FA00084B5816084BD85B5826085BD85B581602D
:104FB00085BDEEE6F0E0808181608083E1E8F0E08D
:104FC0001082808182608083808181608083E0E8BC
:104FD000F0E0808181608083E1EBF0E0808184609B
:104FE0008083E0EBF0E0808181608083EAE7F0E09D
:104FF0008081846080838081826080838081816001
:1050000080838081806880831092C10008951F93FF
:10501000CF93DF93182FEB0161E07DD0209731F41F
:1050200060E0812FDF91CF911F91B1C0CF3FD105BB
:1050300011F461E0F6CFE12FF0E0E859FF4FE49181
:10504000E33031F140F4E130B1F0E230E1F0C0386A
:10505000D1057CF7E5CFE73029F1E83059F1E430AC
:10506000B1F780918000806280938000D0938B00A4
:10507000C0938A0004C084B5806884BDC7BDDF9139
:10508000CF911F91089584B5806284BDC8BDF7CFCC
:1050900080918000806880938000D0938900C093C5
:1050A0008800EDCF8091B00080688093B000C093FD
:1050B000B300E5CF8091B00080628093B000C093D0
:1050C000B400DDCF833081F028F4813099F0823054
:1050D000A9F008958730A9F08830C9F08430B1F480
:1050E000809180008F7D03C0809180008F778093B6
:1050F0008000089584B58F7784BD089584B58F7D31
:10510000FBCF8091B0008F778093B000089580919D
:10511000B0008F7DF9CFCF93DF9390E0FC01E4588E
:10512000FF4F249180579F4FFC0184918823C9F041
:1051300090E0880F991FFC01E854FF4FA591B491AE
:10514000FC01E255FF4FC591D49161110DC09FB78D
:10515000F8948C91209582238C938881282328832E
:105160009FBFDF91CF910895623051F49FB7F894BB
:105170003C91822F809583238C93E8812E2BEFCF57
:105180008FB7F894EC912E2B2C938FBFEACF1F93FF
:10519000CF93DF93282F30E0F901E859FF4F849136
:1051A000F901E458FF4FD491F901E057FF4FC49142
:1051B000CC23A1F0162F811185DFEC2FF0E0EE0F4C
:1051C000FF1FE255FF4FA591B4918FB7F894EC9172
:1051D000111108C0D095DE23DC938FBFDF91CF91F2
:1051E0001F910895DE2BF8CFCF93DF93282F30E067
:1051F000F901E859FF4F8491F901E458FF4FD49128
:10520000F901E057FF4FC491CC2399F081115ADF87
:10521000EC2FF0E0EE0FFF1FEC55FF4FA591B4917E
:10522000EC91ED2381E090E009F480E0DF91CF91F3
:10523000089580E090E0FACFFC01918D228D892FB6
:1052400090E0805C9F4F821B91098F73992708958E
:10525000FC01918D828D981731F0828DE80FF11D40
:10526000858D90E008958FEF9FEF0895FC01918D5B
:10527000828D981761F0A28DAE0FBF2FB11D5D9684
:105280008C91928D9F5F9F73928F90E008958FEF26
:105290009FEF0895FC01538D448D252F30E0842F1E
:1052A00090E0821B930B541710F0CF96089501974E
:1052B0000895FC01A48DA80FB92FB11DA35ABF4FAB
:1052C0002C91848D90E001968F739927848FA68905
:1052D000B7892C93A089B1898C91837080648C9359
:1052E000938D848D981306C00288F389E02D808108
:1052F0008F7D80830895CF93DF93EC01888D882381
:10530000B1F0AA89BB89E889F9898C9185FD03C030
:10531000808186FD0CC00FB607FCF7CF8C9185FF0E
:10532000F2CF808185FFEDCFCE01C3DFEACFDF91E1
:10533000CF910895EF92FF920F931F93CF93DF9336
:10534000EC0181E0888F9B8D8C8D98131AC0E889C1
:10535000F989808185FF15C09FB7F894EE89FF8990
:105360006083E889F98980818370806480839FBF2E
:1053700081E090E0DF91CF911F910F91FF90EF902E
:105380000895F62E0B8D10E00F5F1F4F0F7311273E
:10539000E02E8C8D8E110BC00FB607FCFACFE8897A
:1053A000F989808185FFF5CFCE0183DFF2CFEB8DC8
:1053B000EC0FFD2FF11DE35AFF4FF0829FB7F894D9
:1053C0000B8FEA89FB8980818062D0CFCF92DF92F8
:1053D000EF92FF921F93CF93DF93EC016A017B0161
:1053E000122FE889F98982E08083C11481EED80602
:1053F000E104F10499F060E079E08DE390E0A70129
:105400009601F6D021503109410951095695479529
:1054100037952795211580E1380790F0E889F989BB
:10542000108260E874E88EE190E0A7019601E0D078
:1054300021503109410951095695479537952795CE
:10544000EC85FD853083EE85FF852083188EEC8901
:10545000FD891083EA89FB89808180618083EA89E4
:10546000FB89808188608083EA89FB8980818068EC
:105470008083EA89FB8980818F7D8083DF91CF9152
:105480001F91FF90EF90DF90CF9008951F920F92A1
:105490000FB60F9211242F938F939F93EF93FF9347
:1054A000E091F904F091FA048081E091FF04F09119
:1054B000000582FD1BC09081809102058F5F8F7374
:1054C00020910305821741F0E0910205F0E0E751D9
:1054D000FB4F958F80930205FF91EF919F918F91E4
:1054E0002F910F900FBE0F901F9018958081F4CFD1
:1054F0001F920F920FB60F9211242F933F934F9349
:105500005F936F937F938F939F93AF93BF93EF932B
:10551000FF9389EE94E0CDDEFF91EF91BF91AF91C3
:105520009F918F917F916F915F914F913F912F91BB
:105530000F900FBE0F901F901895E9EEF4E01382C4
:10554000128288EE93E0A0E0B0E084839583A68386
:10555000B78386ED91E09183808385EC90E0958719
:10556000848784EC90E09787868780EC90E0918B2D
:10557000808B81EC90E0938B828B82EC90E0958B1A
:10558000848B86EC90E0978B868B118E128E138E17
:10559000148E0895AF92BF92CF92DF92EF92FF9256
:1055A0000F931F93CF93DF936C017B018B01040F4B
:1055B000151FEB015E01AE18BF08C017D10759F0E7
:1055C0006991D601ED91FC910190F081E02DC60129
:1055D0000995892B79F7C501DF91CF911F910F9123
:1055E000FF90EF90DF90CF90BF90AF900895089517
:1055F000A1E21A2EAA1BBB1BFD010DC0AA1FBB1FD7
:10560000EE1FFF1FA217B307E407F50720F0A21B48
:10561000B30BE40BF50B661F771F881F991F1A94B5
:1056200069F760957095809590959B01AC01BD01DF
:10563000CF010895EE0FFF1F0590F491E02D09941E
:1056400009D0A59F900DB49F900DA49F800D911D32
:1056500011240895A29FB001B39FC001A39F700DB4
:10566000811D1124911DB29F700D811D1124911D6A
:105670000895FB01DC0102C001900D9241505040A1
:10568000D8F70895DC0101C06D9341505040E0F718
:065690000895F894FFCF1D
:105696009830A4BC80E9EB3F0000484300009042EC
:1056A60000002041FEFFFFFF01E8030000FFFF00AE
:1056B600000000FFFFFFFFFFFFFFFFFFFFFFFFFFF1
:1056C600FF03020302B826B8264669786564537458
:1056D6006570446973637265746500010702FF00B3
:1056E600A60FD20FFE008C0F2C0DFD001E0F780F9B
:1056F600FC00640F2C0DF60055102C0DF5002B0F39
:105706009410F4001E10AB10DE002A14A516DD005E
:1057160084152C0DDA003B124312D900C016531221
:10572600E20023112C0DE1005E112C0DE000D311D7
:105736002C0DD6003B192C0DD5006A132C0DD40068
:10574600F6122C0DD30067122C0DF000A4192C0DA7
:10575600ED0061192C0D0100010001001000100080
:105766002000000000009A29CA2A4A297B291C2900
:04577600362928297F
:00000001FF
