:1000000006C100000C94CD3A0C94F83A0C94233BB2
:100010000C944E3B0C94793B0C94A43B0C94CF3B3A
:100020000C94FA3B25C1000023C1000021C100004F
:100030001FC100001DC100001BC1000019C100004C
:1000400017C1000015C1000013C1000011C100005C
:100050000FC100000DC100000BC100000C94253C35
:1000600007C100000C9421400C94574001C10000CE
:10007000FFC00000FDC00000FBC00000F9C0000090
:10008000F7C00000F5C00000F3C00000F1C00000A0
:100090000C94AD400C94E340EBC000000C9431395B
:1000A000E7C00000E5C00000E3C00000E1C00000C0
:1000B000DFC00000DDC00000DBC00000D9C00000D0
:1000C000D7C00000D5C000000C94B2300C94394168
:1000D0000C946F41CDC000000C94C5410C94FB41C1
:1000E000C7C0000000000A0B02090C0D0E08070330
:1000F00004010000000000000000000000000000FB
:1001000000000000000000000000000000000000EF
:1001100012111000000000000000000000000000AC
:100120000000000000000000000001021020200874
:100130000810204010204080020102010804020142
:1001400001020408102040808040201008040201B1
:10015000800402018040201008040201080402010A
:100160000102040810204080010204081020408091
:1001700005050505070508080808020202020A0A23
:100180000808040404040101010101010101030341
:10019000030303030303040707070C0C0C0C0C0CEC
:1001A0000C0C0202020206060606060606060B0BE9
:1001B0000B0B0B0B0B0B000020002300260029006B
:1001C0002C002F003200000100000301060109018C
:1001D00000002200250028002B002E0031003400F2
:1001E00002010000050108010B01000021002400AC
:1001F00027002A002D003000330001010000040117
:1002000007010A019C3680400C4198412442112488
:100210001FBECFEFD1E2DEBFCDBF00E00CBF13E0C9
:10022000A0E0B2E0E0ECF5E800E00BBF02C0079010
:100230000D92A233B107D9F72BE0A2E3B3E001C0DE
:100240001D92A936B207E1F711E0C7E0D1E000E066
:1002500006C021970109802FFE010E94A142C230F1
:10026000D10780E00807A9F70E9402320C94DE4211
:10027000C7CECF92DF92EF92FF926B017C01C11447
:10028000D104E104F10469F480910002811109C0F4
:1002900080910202909103020E940D3681E08093CA
:1002A0000002C601880F991F880F991F80509E4F2A
:1002B000FF90EF90DF90CF900895009781F0FC01C0
:1002C0002181211104C040EA56E861E070E0FC01A0
:1002D000828193810E941C3690E080E0089588E03E
:1002E00090E008954F925F926F927F928F929F92CB
:1002F000AF92BF92CF92DF92EF92FF920F931F9334
:10030000CF93DF930097C9F1280139017A01EC01FD
:10031000402F8A819B810E949A368A819B81DC01D1
:10032000ED91FC910084F185E02D1995892B01F167
:100330006701812C912C54018A819B81DC01ED9114
:10034000FC910084F185E02D1995892B91F184149D
:100350009504A604B70469F18A819B81DC01ED91C3
:10036000FC910284F385E02D19958F3F9807C1F425
:1003700084E0F70111928A95E9F788E090E0DF9137
:10038000CF911F910F91FF90EF90DF90CF90BF9092
:10039000AF909F908F907F906F905F904F90089557
:1003A000FFEF8F1A9F0AAF0ABF0AD6018D936D0126
:1003B000C3CF90E080E0E3CF8F929F92AF92BF9245
:1003C000CF92DF92EF920F931F93CF93DF9300971B
:1003D000F1F06A01EC018A819B810E941F368A81BB
:1003E0009B81DC01ED91FC910280F381E02DA8015D
:1003F000B60119958A819B8160E0E11001C061E03E
:100400000E942936882389F08250823088F088E063
:1004100090E0DF91CF911F910F91EF90DF90CF90FF
:10042000BF90AF909F908F90089590E080E0F1CFC3
:1004300084E090E0EECF0895CF93DF93EC0170E07D
:1004400060E06C177D070CF5072E000C880B990BEC
:100450000E94983320E030E0A9010E94953220E00C
:1004600030E0A9010E94953220E030E040E450E401
:100470000E94953220E030E040E450E40E94943243
:100480000E9465336F5F7F4FDCCFDF91CF9108957E
:100490000F931F93CF93DF93EC018C810E94CF3E8B
:1004A0008C018C859D85C8DF88850E94CF3E488160
:1004B00059816A817B81019781F40130110579F4BA
:1004C0004F5F5F4F6F4F7F4F488359836A837B83B2
:1004D000DF91CF911F910F910895012B89F3415026
:1004E000510961097109F0CF83E393E0D1CF83E42F
:1004F00093E0CECF83E593E0CBCF83E693E0C8CF04
:100500000F931F93CF93DF93EC0188850E94CF3E1A
:100510008C018C859D8590DF8C810E94CF3E488127
:1005200059816A817B81019779F4012B81F44F5FB6
:100530005F4F6F4F7F4F488359836A837B83DF917F
:10054000CF911F910F9108950130110581F3415012
:10055000510961097109EFCF83E393E0D1CF83E4BF
:1005600093E0CECF83E593E0CBCF83E693E0C8CF93
:100570000F931F93CF93DF93D82FC62F8A01E0915B
:10058000320380E1E89FF0011124ED5CFC4F8D2FD8
:1005900090E0B0E0A0E084839583A683B783862FA4
:1005A00090E0B0E0A0E080879187A287B3871082B7
:1005B00011821282138281E090E0A0E0B0E0848793
:1005C0009587A687B78760E08D2F0E94663E60E022
:1005D0008C2F0E94663E80913203813009F43FC027
:1005E000A8F0823009F462C0833009F486C080919B
:1005F000320391E0980F90933203F801808390E0EA
:1006000080E0DF91CF911F910F91089580E0D2306B
:1006100049F081E0D33031F08EEE8D0F8430D8F484
:1006200087E18D1B41E050E06CEA72E00E94533A92
:1006300080E0C23049F081E0C33031F08EEE8C0FA3
:10064000843058F487E18C1B41E050E064E772E0AD
:100650000E94533ACCCF8FEFE5CF8FEFF5CF80E0FC
:10066000D23049F081E0D33031F08EEE8D0F8430FE
:10067000C8F487E18D1B41E050E06FEA72E00E9410
:10068000533A80E0C23049F081E0C33031F08EEE61
:100690008C0F843048F487E18C1B41E050E067E721
:1006A00072E0D6CF8FEFE7CF8FEFF7CF80E0D23079
:1006B00049F081E0D33031F08EEE8D0F8430C8F4F4
:1006C00087E18D1B41E050E062EB72E00E94533AFB
:1006D00080E0C23049F081E0C33031F08EEE8C0F03
:1006E000843048F487E18C1B41E050E06AE772E017
:1006F000AFCF8FEFE7CF8FEFF7CF80E0D23049F069
:1007000081E0D33031F08EEE8D0F8430C8F487E174
:100710008D1B41E050E065EB72E00E94533A80E0AF
:10072000C23049F081E0C33031F08EEE8C0F84305E
:1007300048F487E18C1B41E050E06DE772E088CF20
:100740008FEFE7CF8FEFF7CF90E1899FF001112472
:10075000ED5CFC4F80819181A281B381FB0180839C
:100760009183A283B38390E080E0089590E1899F14
:10077000F0011124ED5CFC4F108211821282138271
:1007800090E080E0089590E080E00895CF92DF92BD
:10079000EF92FF92CF93882351F16A017B01CFEF53
:1007A000C80F20E030E0A901CB01B6010E94F93268
:1007B00087FF11C0C701B60190580E946A339B01A0
:1007C000AC016C2F70E090E080E0CF91FF90EF9053
:1007D000DF90CF90B2C0C701B6010E9465338C2F65
:1007E000CF91FF90EF90DF90CF900C942C3DCF9164
:1007F000FF90EF90DF90CF9008950F931F938B01A0
:100800009C0183E036952795179507958A95D1F732
:100810000D581C4F462F477021E030E0F90102C00F
:10082000EE0FFF1F4A95E2F7AF01F8012081242364
:10083000CB010196211102C090E080E01F910F9141
:1008400008950F931F938B019C0183E036952795A4
:10085000179507958A95D1F7677081E090E001C000
:10086000880F6A95EAF7F801ED58FC4F2081452B77
:1008700031F48095822380831F910F910895822BFC
:10088000FACF2F923F924F925F926F927F928F9208
:100890009F92AF92BF92CF92DF92EF92FF920F930F
:1008A0001F93CF93DF93D62EC72E782E692E490142
:1008B0005A01280161E08D2D0E94663ECD2DDC2D70
:1008C0008E010F5F1F4FA8016D2D7C2D872D962D5A
:1008D000B8DF20E030E0A901C201B7010E94E9348D
:1008E000181664F4C201B7010E946A332B01C501D6
:1008F000B4010E946A33A201CE0123D0C801DF9166
:10090000CF911F910F91FF90EF90DF90CF90BF900C
:10091000AF909F908F907F906F905F904F903F909F
:100920002F900895882341F08150682F70E090E067
:1009300080E050E040E085CF0895862FB9010C9407
:100940002C3D9C01FC01EC51FF4FE491E150E23160
:10095000E0F4F0E08827E055FB4F8F4F0C94A14264
:10096000C204C904CC04E304F804C5040D05190548
:100970001D05340549055E0575058A05C5049F05F5
:10098000B605CB0584B5806884BD60E0822F0C94E9
:10099000A23E84B58062F8CF809180008C7F826017
:1009A0008093800080918100807E8061682B6093BD
:1009B000810050938700409386008091800080687A
:1009C00080938000E2CF809180008C7F8260809352
:1009D000800080918100807E8061682B609381001F
:1009E0005093870040938600809180008062E8CF1A
:1009F000809180008C7F8260809380008091810054
:100A0000807E8061682B60938100509387004093C3
:100A10008600809180008860D3CF8091B00080688C
:100A20008093B0008091B100887F682B6093B10003
:100A3000ACCF8091B0008062F3CF809190008C7F2A
:100A400082608093900080919100807E8061682B0D
:100A5000609391005093970040939600809190008E
:100A600080688093900091CF809190008C7F82600D
:100A70008093900080919100807E8061682B6093CC
:100A8000910050939700409396008091900080626F
:100A9000E8CF809190008C7F82608093900080915D
:100AA0009100807E8061682B609391005093970045
:100AB00040939600809190008860D3CF8091A000F1
:100AC0008C7F82608093A0008091A100807E8061F5
:100AD000682B6093A1005093A7004093A6008091DB
:100AE000A00080688093A00050CF8091A0008C7FF0
:100AF00082608093A0008091A100807E8061682B3D
:100B00006093A1005093A7004093A6008091A0009D
:100B10008062E8CF8091A0008C7F82608093A000EB
:100B20008091A100807E8061682B6093A10050932A
:100B3000A7004093A6008091A0008860D3CF809149
:100B400020018C7F82608093200180912101807E32
:100B50008061682B60932101509327014093260107
:100B6000809120018068809320010FCF8091200127
:100B70008C7F82608093200180912101807E806142
:100B8000682B6093210150932701409326018091A7
:100B900020018062E8CF809120018C7F8260809369
:100BA000200180912101807E8061682B609321016A
:100BB0005093270140932601809120018860D3CF74
:100BC00090E080E008950F931F93009709F48DC083
:100BD0006115710509F489C000914E0210914F0210
:100BE00020915002309151020E3F1F4F2F4F3F4F27
:100BF00009F06CC04FEF5FEFBA0140934E02509383
:100C00004F02609350027093510240914E025091F6
:100C10004F026091500270915102DC011296ED91E9
:100C2000FC9180819181A281B3818093BF049093D4
:100C3000C004A093C104B093C20484819581A681AD
:100C4000B7818093BB049093BC04A093BD04B09380
:100C5000BE0480859185A285B3858093B704909367
:100C6000B804A093B904B093BA0484859585A68589
:100C7000B7858093B3049093B404A093B504B09364
:100C8000B6041092AF041092B0041092B104109206
:100C9000B2040E94FA148FE195E190937D03809352
:100CA0007C0390937F0380937E03909381038093D2
:100CB00080030E94E913009731F421E030E0309383
:100CC000C4042093C3041F910F91089500914E0214
:100CD00010914F022091500230915102DB010D938F
:100CE0001D932D933C93139790CF8FEF9FEFEBCFF6
:100CF0008F929F92AF92BF92CF92DF92EF92FF922C
:100D00001F93CF93DF934B015C011091C60482E0E7
:100D100090E09093C4048093C30481149104A104CF
:100D2000B10441F48091C604811104C08091C504CE
:100D3000C1E08111C0E0C12CD12C76018091C604A4
:100D4000811106C08091C504811102C0CC23D9F065
:100D500083E090E09093C4048093C304CC2381F19A
:100D6000CCE9DFEF111102C00E948418CE01DF919F
:100D7000CF911F91FF90EF90DF90CF90BF90AF90F9
:100D80009F908F9008956AE070E080E090E00E946C
:100D9000943C80E1C80E87E2D81EE11CF11C8FEF65
:100DA00088169806A806B80631F0C1E08C149D0498
:100DB000AE04BF0408F0C0E080E00E941D14BECF66
:100DC000D0E0C0E0CFCFCF92DF92EF92FF920F93AF
:100DD0001F93CF93DF938F3F910511F008F051C01F
:100DE0002091C3043091C4042330310539F020919F
:100DF000C3043091C4042130310531F424E030E0E3
:100E00003093C4042093C3046A017B01EC01833056
:100E10009105A8F011E0AE01C701B6010E94E813E8
:100E2000AB01BC01CE011123F9F0DF91CF911F91ED
:100E30000F91FF90EF90DF90CF900C94AD1A8C0142
:100E4000000F111F04581C4FD8018D919C91892BC4
:100E500009F30E94B71A0297E9F6D801ED91FC91C7
:100E6000CE011995182FD7CF0E94CF1A90E080E0BD
:100E7000DF91CF911F910F91FF90EF90DF90CF9076
:100E800008958FEF9FEFF4CF80E00C941D14CF9363
:100E9000DF9386E090E09093C4048093C3040E94A3
:100EA0007614EC01ECE7F3E086E0DF011D928A9511
:100EB000E9F70E941C181092C4041092C304CE01DA
:100EC000DF91CF9108958091C50408958091AE047B
:100ED000089560934E0270934F0280935002909356
:100EE000510290E080E00895FC0191E08091780447
:100EF000811190E0928308951F93CF93DF93EC01CB
:100F000080E090E5A3ECB8E48C879D87AE87BF872F
:100F10001F821E82188211E0188B1D8281E090E0F2
:100F2000A0E0B0E089839A83AB83BC8350E040E0CB
:100F300060E070E0CB019DD99F838E8340EA56E844
:100F400061E070E0488759876A877B87B6D91D833F
:100F5000DF91CF911F910895CF92EF920F931F933E
:100F6000CF93DF9300D0CDB7DEB7FB0125E0298317
:100F70009A838B83C12CE12C03E010E020E030E069
:100F8000AE014F5F5F4F60E470E08681978114DAB5
:100F90000F900F900F90DF91CF911F910F91EF90D5
:100FA000CF900895FC018081811110C081E0808381
:100FB00081819281A381B4810197A105B10531F4AA
:100FC0008581882319F08681978135CA0895E0913B
:100FD0002E04F0912F04A6E1BBE096964D915D9111
:100FE0006D917C919997408351836283738392962C
:100FF0008D919D910D90BC91A02D84839583A683A6
:10100000B78308952F923F924F925F926F927F9293
:101010008F929F92AF92BF92CF92DF92EF92FF9208
:101020000F931F93CF93DF93CDB7DEB76A970FB6B9
:10103000F894DEBF0FBECDBF80917D0490917E04F9
:101040008130910509F06CC160915704709158048A
:101050008091590490915A046F5F7F4F8F4F9F4F3B
:101060000E94963320915B0430915C0440915D04B2
:1010700050915E040E94ED346093B2037093B30309
:101080008093B4039093B503809178048F5F843686
:1010900008F043C180937804C0902802D0902902C0
:1010A000E0902A02F0902B02A70196016091A70A16
:1010B0007091A80A8091A90A9091AA0A0E94F93217
:1010C000882341F0C092A70AD092A80AE092A90A08
:1010D000F092AA0A8091A60A81111092A60ABE0176
:1010E0006F5F7F4F8091AB0A2FDB69817A818B81A3
:1010F0009C810E94983320913402309135024091B6
:101100003602509137020E94ED341B012C012092CF
:101110001C0B30921D0B40921E0B50921F0BE09146
:101120008004F0918104C080D180E280F3806090DF
:10113000CC0A7090CD0A8090CE0A9090CF0AA70179
:101140009601B301C4010E94E93487FD00C1A701E3
:1011500096016091D40A7091D50A8091D60A909137
:10116000D70A0E94E93487FDF2C01092200B10923A
:10117000210B1092220B1092230B80917D049091F1
:101180007E049E8B8D8B8091100290911102A09114
:101190001202B09113028F8B988FA98FBA8F809112
:1011A0000C0290910D02A0910E02B0910F028D835E
:1011B0009E83AF83B88780911C0290911D02A091FD
:1011C0001E02B0911F028D879E87AF87B88B8091DA
:1011D000080290910902A0910A02B0910B02898B3A
:1011E0009A8BAB8BBC8B80913C0290913D02A0917D
:1011F0003E02B0913F0289879A87AB87BC87AD8951
:10120000BE89119709F050C08090040290900502A9
:10121000A0900602B09007022F89388D498D5A8D13
:10122000C501B4010E94ED342D813E814F81588566
:101230000E94FD322D813E814F8158850E9495325A
:101240002B013C012D853E854F855889C501B40190
:101250000E94ED349B01AC01C301B2010E949532A2
:101260004B015C01209118023091190240911A0241
:1012700050911B0269897A898B899C890E94ED347F
:101280009B01AC01C501B4010E94953229853A85C4
:101290004B855C850E94ED346093240B7093250B85
:1012A0008093260B9093270B5090DC0A4090DD0A28
:1012B0003090DE0A2090DF0A6090E40A7090E50A20
:1012C0000091E60A1091E70AA7019601652D742D99
:1012D000832D922D0E94E9349301A80187FD83C0DC
:1012E000C701B6010E94F932812C912C54011816C5
:1012F0000CF0ACC09301A801652D742D832D922DA7
:101300000E94F93287FD77C08090E80A9090E90A40
:10131000A090EA0AB090EB0A83C010927804BCCE89
:10132000892B09F0B9CEE091E203F091E30301903B
:10133000F081E02D80819181A281B381E0918004D0
:10134000F091810480839183A283B383A5CEA09082
:10135000D40AB090D50A0091D60A1091D70A950107
:10136000A801B301C4010E94F932A701960187FFC9
:101370002BC0B501C8010E94F93287FD2BC0209116
:10138000D00A3091D10A4091D20A5091D30A530128
:101390008401C201B1010E9494322B013C019501EC
:1013A000A801C701B6010E9494329B01AC01C301A0
:1013B000B2010E94FD326093200B7093210B809349
:1013C000220B9093230BD9CEB301C4010E94E934C0
:1013D00087FDD5CF2091D80A3091D90A4091DA0AF9
:1013E0005091DB0AD6CF652D742D832D922D0E944E
:1013F000F93287FF09C09301A801C701B6010E9415
:10140000E93418160CF480CF8090E00A9090E10A3D
:10141000A090E20AB090E30A652C742C032D122DE3
:101420009301A801C701B6010E9494326B017C01AF
:10143000A501940169857A858B859C850E949432EB
:10144000A70196010E94FD324B015C01ED89FE89E6
:10145000319781F48091400B9091410BA091420B08
:10146000B091430B8093280B9093290BA0932A0BE8
:10147000B0932B0B4090200B5090210B6090220BCF
:101480007090230BA301920169857A858B859C85D9
:101490000E94943260932C0B70932D0B80932E0B33
:1014A00090932F0B20912002309121024091220233
:1014B000509123020E94ED342091280B3091290B8A
:1014C00040912A0B50912B0B0E9494326B017C01AE
:1014D000C092300BD092310BE092320BF092330B72
:1014E00029893A894B895C896F89788D898D9A8D94
:1014F0000E94ED342D813E814F8158850E94FD323E
:1015000069877A878B879C8729893A894B895C8987
:101510006D857E858F8598890E94ED349B01AC0195
:1015200069857A858B859C850E949532A5019401F9
:101530000E94ED344B015C012091240B3091250B6E
:101540004091260B5091270B6091840A7091850A77
:101550008091860A9091870A0E9495329B01AC0186
:10156000C501B4010E9495324B015C012D853E8579
:101570004F855889C701B6010E94ED342091880A31
:101580003091890A40918A0A50918B0A0E949532C3
:101590009B01AC01C501B4010E9495326B017C0135
:1015A0002D813E814F815885C301B2010E94ED34E7
:1015B0009B01AC01C701B6010E9494326093340BC9
:1015C0007093350B8093360B9093370B20E030E00F
:1015D0004EE753E40E94ED3423E333E347EB51E459
:1015E0000E94FD326B017C0120E030E0A9010E94E5
:1015F000E934812C912C5401181684F020E030E05D
:10160000A901C701B6010E94F93287FFF0C1460166
:101610005701E894B7F8C12CD12C760168E070E04E
:1016200080E090E0EAD88C019093CB0A8093CA0ABC
:1016300020E030E04FE753E4C501B4010E94F932E5
:10164000181634F4812C912C9FE7A92E93E4B92E1F
:10165000B501A401C8019AD869E070E080E090E08B
:10166000CCD88C019093C30A8093C20A20E030E06A
:101670004FE753E4C701B6010E94F932181634F45B
:10168000C12CD12C8FE7E82E83E4F82EB701A601F8
:10169000C8017CD800917D0410917E04C09018028E
:1016A000D0901902E0901A02F0901B02A701960157
:1016B0006091300B7091310B8091320B9091330B14
:1016C0000E94ED346093380B7093390B80933A0B82
:1016D00090933B0B0130110509F063C02091040287
:1016E000309105024091060250910702C701B601F0
:1016F0000E94ED3420913C0230913D0240913E0227
:1017000050913F020E94ED344B015C012091140284
:10171000309115024091160250911702C701B6018F
:101720000E94ED349B01AC01C501B4010E949532C9
:1017300060933C0B70933D0B80933E0B90933F0B5B
:101740006091440270914502809146029091470257
:101750000E94D3336B017C0138D781114EC1C70180
:10176000B601EED6811149C120E030E040E857E4EF
:10177000C701B6010E94ED336B017C0120E030E02F
:10178000A9010E94F93287FF3BC1C701B6019058F9
:101790000E946A3388279927861B970B65E07BE0B8
:1017A000DBDB80917D0490917E04019709F077C086
:1017B0008091CC0A9091CD0AA091CE0AB091CF0A27
:1017C0008D839E83AF83B887C090570BD090580B02
:1017D000E090590BF0905A0B009180041091810415
:1017E000D8018D909D90AD90BC90A70196016D8120
:1017F0007E818F8198850E94F932811107C1809284
:10180000CC0A9092CD0AA092CE0AB092CF0AE0ED17
:10181000FAE080911C0B90911D0BA0911E0BB091D2
:101820001F0B80839183A283B3838091DC0A909104
:10183000DD0AA091DE0AB091DF0A8D839E83AF831B
:10184000B8879C01AD01C701B6010E94F932D801E9
:101850008D909D90AD90BC908111FEC08092DC0A6D
:101860009092DD0AA092DE0AB092DF0AE0EEFAE082
:1018700080913C0290913D02A0913E02B0913F02C6
:1018800080839183A283B38340915704509158047D
:101890006091590470915A0481E090E094DAC0900C
:1018A0007D04D0907E04B1E0CB16D10409F024C1B0
:1018B0008090B2039090B303A090B403B090B503AE
:1018C000E091B603F091B70340805180628073804D
:1018D000E091E603F091E70300811181E091AA0312
:1018E000F091AB03E080F180E091A803F091A903AF
:1018F00011821082E091E003F091E103F182E08235
:1019000066DBE091E203F091E3030190F081E02DCA
:1019100080829182A282B382F7012081318142814B
:101920005381C301B2010E94ED349B01AC01D80187
:101930006D917D918D919C910E949532F80160830B
:10194000718382839383D70114962D913D914D919C
:101950005C911797C301B2010E94ED349B01AC0169
:10196000F80164817581868197810E949532D80142
:1019700014966D937D938D939C931797E091A80394
:10198000F091A903D182C0828091570490915804AC
:10199000A0915904B0915A040196A11DB11D8093E4
:1019A000570490935804A0935904B0935A0440915B
:1019B000B2035091B3036091B4037091B503E09109
:1019C0008004F0918104408351836283738320916A
:1019D0006B04222309F466C0213009F467C021E0BA
:1019E00030916D04332309F45EC020E05CC0812C8B
:1019F000912C54017501640111CEC12CD12C7601BA
:101A0000C701B6010E946A33CB01C8CE4090D40A08
:101A10005090D50A6090D60A7090D70AA30192011F
:101A2000C701B6010E94F93281110BC08092D40A1D
:101A30009092D50AA092D60AB092D70AE8EDFAE0C1
:101A4000E8CEA30192016D817E818F8198850E94ED
:101A5000F93287FFEBCFD3CE4090E40A5090E50AED
:101A60006090E60A7090E70AA3019201C701B601EF
:101A70000E94F93281110BC08092E40A9092E50A2B
:101A8000A092E60AB092E70AE8EEFAE0F1CEA301EE
:101A900092016D817E818F8198850E94F93287FF46
:101AA000EBCFDCCE21E020936C0402C010926C04DA
:101AB00020916C0434E0239FF0011124E259FB4F84
:101AC00080839183A283B38320936D048FEF8093EF
:101AD0006C0480915F0490916004A0916104B091C6
:101AE00062040196A11DB11D80935F049093600470
:101AF000A0936104B09362046A960FB6F894DEBFB7
:101B00000FBECDBFDF91CF911F910F91FF90EF904E
:101B1000DF90CF90BF90AF909F908F907F906F900D
:101B20005F904F903F902F900895CF92DF92EF9269
:101B3000FF920F931F93CF93DF9300D0CDB7DEB703
:101B4000C0902402D0902502E0902602F090270257
:101B5000A701960160919C0A70919D0A80919E0A4E
:101B600090919F0A0E94F932882341F0C0929C0A0A
:101B7000D0929D0AE0929E0AF0929F0A84E08B83A5
:101B8000C12CEE24E39401E010E020E030E0AE014F
:101B90004D5F5F4F60E470E08091920A9091930AEC
:101BA0000E94DC018B8320E030E0811114C0CC2442
:101BB000C394E12C02E010E020E030E0AE014F5F82
:101BC0005F4F60E470E08091920A9091930A0E94C6
:101BD00072012A813981A0914C02B0914D020E947C
:101BE000A9420E94983320E030E040E056E30E9492
:101BF000ED34209148023091490240914A025091BF
:101C00004B020E94ED3420910C0230910D02409164
:101C10000E0250910F020E94ED346093400B7093BE
:101C2000410B8093420B9093430B809163049091FE
:101C30006404A0916504B09166040196A11DB11DD4
:101C40008093630490936404A0936504B093660446
:101C50000F900F900F90DF91CF911F910F91FF90F8
:101C6000EF90DF90CF9008954F925F926F927F92A6
:101C70008F929F92AF92BF92CF92DF92EF92FF929C
:101C80000F931F93CF9384E090E023D482EA93E0F4
:101C90002DE734E03093A9032093A80320E834E033
:101CA0003093E3032093E2032BE534E03093B70352
:101CB0002093B6032EE234E03093E1032093E00357
:101CC00028E234E03093E7032093E6032FE434E086
:101CD0003093E5032093E40321E534E03093E903F6
:101CE0002093E8032AE234E03093EB032093EA03E5
:101CF0002CE234E03093ED032093EC0390930D0439
:101D000080930C049093A7038093A60381E090E056
:101D100090937E0480937D0485E394E090933E0449
:101D200080933D0484E89AE09093290480932804EA
:101D30008DE394E09093AB038093AA031092230465
:101D40008BE792E09093AD038093AC0322E834E0FC
:101D5000309381042093800480E090E0A0EAB0E416
:101D60008093790490937A04A0937B04B0937C04CD
:101D70008FE692E1A3E8BAE380935B0490935C045E
:101D8000A0935D04B0935E0481E994E6A0EEB5EE05
:101D900080933F0490934004A0934104B093420485
:101DA00080EC99EFA1E7B2E380934304909344045D
:101DB000A0934504B09346048BE993EFACECB0E7F5
:101DC0008093470490934804A0934904B0934A0435
:101DD0008CE798E8A3EDB8E780934B0490934C040C
:101DE000A0934D04B0934E0486E993E09093A5032D
:101DF0008093A40382E893E09093970380939603E3
:101E000080E892E09093830380938203909385030C
:101E10008093840390938703809386039093890330
:101E20008093880390938B0380938A0390938D0310
:101E300080938C0390938F0380938E0390939103F0
:101E400080939003909393038093920390939503D0
:101E50008093940385E594E090939B0380939A0389
:101E60008FE394E0909399038093980330939D03BC
:101E700020939C038FEF80936B0480936C041092EB
:101E80006D048091570B9091580BA091590BB09114
:101E90005A0B8093CC0A9093CD0AA093CE0AB093AC
:101EA000CF0A8093D40A9093D50AA093D60AB09310
:101EB000D70A409138025091390260913A027091EC
:101EC0003B024093840A5093850A6093860A70937C
:101ED000870A8093DC0A9093DD0AA093DE0AB09310
:101EE000DF0A8093E40A9093E50AA093E60AB09390
:101EF000E70A8091400290914102A0914202B09184
:101F000043028093880A9093890AA0938A0AB09327
:101F10008B0A80E090E5A3ECB8E48093B80A909334
:101F2000B90AA093BA0AB093BB0A1092B30A1092EE
:101F3000B20A1092AC0A1092B10A812C912C540171
:101F400083948092AD0A9092AE0AA092AF0AB092AA
:101F5000B00A10921B0B10921A0B1092160B1092D3
:101F6000170B1092180B1092190B50E040E060E034
:101F700070E0CB010E9439019093B30A8093B20ABA
:101F800020EA422E26E8522E66246394712C409259
:101F9000B40A5092B50A6092B60A7092B70A40929B
:101FA000480B5092490B60924A0B70924B0B40EADF
:101FB00056E861E070E00E945D01C1E0C093B10AA3
:101FC00084EF9AE00E947C071092AB0A1092A00A5C
:101FD0008091280290912902A0912A02B0912B02AF
:101FE0008093A70A9093A80AA093A90AB093AA0A7B
:101FF0001092A50A8092A10A9092A20AA092A30A26
:10200000B092A40A4BEA5AE063E082E00E94B80270
:10201000C093A50A1092A60A8091AB0A0E94B6034B
:102020001092C40A1092C90A8092C50A9092C60AF8
:10203000A092C70AB092C80AE12CF12C8701A8012E
:10204000970168E070E080E090E00E944104909386
:10205000CB0A8093CA0AC093C90A1092BC0A109294
:10206000C10A8092BD0A9092BE0AA092BF0AB092A5
:10207000C00AA801970169E070E080E090E00E944A
:1020800041049093C30A8093C20AC093C10A85E0B9
:102090009BE00E947C0780E090E5A3ECB8E480938D
:1020A000980A9093990AA0939A0AB0939B0A109267
:1020B000930A1092920A10928C0A809124029091B5
:1020C0002502A0912602B091270280939C0A90934A
:1020D0009D0AA0939E0AB0939F0A1092910A809243
:1020E0008D0A90928E0AA0928F0AB092900A109256
:1020F0001B0B10921A0B1092160B1092170B1092CA
:10210000180B1092190B50E040E060E070E0CB013A
:102110000E9439019093930A8093920A4092940A04
:102120005092950A6092960A7092970A4092480BD4
:102130005092490B60924A0B70924B0B40EA56E862
:1021400061E070E00E945D01C093910A60912C02F1
:1021500070912D0280912E0290912F020E94D33314
:102160006093440B7093450B8093460B9093470B01
:102170002CD2882309F482C01092440B1092450B94
:102180001092460B1092470BC090440BD090450B19
:10219000E090460BF090470B20E030E0A901C7012A
:1021A000B6010E94F93287FF8BC0C701B601905873
:1021B0000E946A3371956195710910924C0B70936E
:1021C0004D0B60934E0BC12CE12C03E010E020E09E
:1021D00030E04CE45BE060E470E08091B20A909102
:1021E000B30A0E94DC01609130027091310280914B
:1021F0003202909133020E94D3336093440B709368
:10220000450B8093460B9093470BDFD1882309F44D
:102210005CC01092440B1092450B1092460B10922A
:10222000470BC090440BD090450BE090460BF090CC
:10223000470B20E030E0A901C701B6010E94F93246
:1022400087FF65C0C701B60190580E946A3388278E
:102250009927861B970B64EF7AE0CF911F910F911E
:10226000FF90EF90DF90CF90BF90AF909F908F90B6
:102270007F906F905F904F900C94AC076091440BEF
:102280007091450B8091460B9091470B59D181116C
:1022900073CF6091440B7091450B8091460B9091E8
:1022A000470B20E030E040E857E40E94ED336093B4
:1022B000440B7093450B8093460B9093470B64CF70
:1022C000C701B6010E946A3378CF6091440B7091C8
:1022D000450B8091460B9091470B32D1811199CFDC
:1022E0006091440B7091450B8091460B9091470B88
:1022F00020E030E040E857E40E94ED336093440B67
:102300007093450B8093460B9093470B8ACFC70180
:10231000B6010E946A33CB019ECF8091A00A811141
:1023200014C081E08093A00A8091A10A9091A20A32
:10233000A091A30AB091A40A0197A105B10529F4BF
:102340008091A50A81110E94C3038091C40A811162
:102350002EC081E08093C40A8091C50A9091C60A7C
:10236000A091C70AB091C80A0197A105B105F9F477
:102370008091C90A8823D9F068E070E080E090E09D
:102380000E94FD039093CB0A8093CA0A40E050E07C
:10239000BA010E94C60368E070E080E090E00E940D
:1023A000FD039093CB0A8093CA0A0E949204809105
:1023B000BC0A81112EC081E08093BC0A8091BD0AC5
:1023C0009091BE0AA091BF0AB091C00A0197A105E1
:1023D000B105F9F48091C10A8823D9F069E070E071
:1023E00080E090E00E94FD039093C30A8093C20AAC
:1023F00040E050E0BA010E94C60369E070E080E06E
:1024000090E00E94FD039093C30A8093C20A0E9449
:10241000920485E09BE00E94D20780918C0A811192
:1024200019C081E080938C0A80918D0A90918E0A68
:10243000A0918F0AB091900A0197A105B10551F4BE
:102440008091910A882331F08091920A9091930AA9
:102450000E941B028091AC0A811119C081E0809317
:10246000AC0A8091AD0A9091AE0AA091AF0AB091EA
:10247000B00A0197A105B10551F48091B10A8823F2
:1024800031F08091B20A9091B30A0E941B0284EF4E
:102490009AE00C94D20760E070E080E89FE708952E
:1024A00060E070E080E89FE7089560E070E080E819
:1024B0009FEF089560E070E080E89FEF089560E08E
:1024C00070E080EC9FEF089560E070E080EC9FEF9B
:1024D0000895F5DF60935B0B70935C0B80935D0B4D
:1024E00090935E0BF1DF60934F0B7093500B8093D2
:1024F000510B9093520BCFDF6093570B7093580B97
:102500008093590B90935A0BCBDF6093530B7093CE
:10251000540B8093550B9093560BC7DF60935F0B62
:102520007093600B8093610B9093620BC3DF609399
:10253000630B7093640B8093650B9093660B089507
:10254000CF92DF92EF92FF92CF936B017C01AC01AF
:102550009B016091570B7091580B8091590B909192
:102560005A0B0E94F932C1E0882371F0A70196014D
:1025700060915F0B7091600B8091610B9091620B89
:102580000E94F9328111C0E08C2FCF91FF90EF9023
:10259000DF90CF9008950F931F938B019C0100272C
:1025A000112720783F770115110520483F4749F44E
:1025B000AB01BC016F77772781E0452B462B472B7A
:1025C00009F480E01F910F910895E5CF4F925F923B
:1025D0006F927F928F929F92AF92BF92CF92DF9233
:1025E000EF92FF920F931F93F89440909E045090A7
:1025F0009F046090A0047090A104C0909204D090B9
:102600009304E0909404F09095044130510509F052
:10261000A4C09B01AC0124193509460957092901B9
:102620003A0100919A0410919B0420919C043091EE
:102630009D0448015901840C951CA61CB71C8016EA
:102640009106A206B306A0F4009196041091970497
:1026500020919804309199040F5F1F4F2F4F3F4FE7
:102660000093960410939704209398043093990450
:1026700080929A0490929B04A0929C04B0929D0434
:102680000091960410919704209198043091990438
:102690008092A2049092A304A092A404B092A504F4
:1026A0000093A6041093A7042093A8043093A904D0
:1026B00060939E0470939F048093A0049093A10460
:1026C000A8EEB3E0A30192010E94C4426C0D7D1DEF
:1026D0008E1D9F1D609392047093930480939404C5
:1026E0009093950400914E0210914F022091500258
:1026F000309151020F3F1F4F2F4F3F4FF1F000918C
:102700004E0210914F0220915002309151020E3F23
:102710001F4F2F4F3F4F89F0C0904E02D0904F0275
:10272000E0905002F090510221E08C149D04AE0420
:10273000BF0408F420E02093AE0478941F910F9119
:10274000FF90EF90DF90CF90BF90AF909F908F90D1
:102750007F906F905F904F9008954B015C018418BB
:102760009508A608B708A3019201261B370B480B52
:10277000590B6415750586059705D0F082169306EA
:10278000A406B50640F420E030E0A90181149104CC
:10279000A104B10491F4A8EEB3E00E94C442A701E1
:1027A0009601261B370B480B590BCA01B901C5CF3F
:1027B00082169306A406B50670F7A8EEB3E0A5014D
:1027C00094010E94C4426C0D7D1D8E1D9F1DB5CFCE
:1027D000FDCECF93DF9300D01F92CDB7DEB71C8222
:1027E0001B821A8219821092AA041092AB041092D2
:1027F000AC041092AD04BE016F5F7F4FCE01039613
:102800000E94803069817A818B819C810E94D729C6
:10281000009761F4BE016F5F7F4FCE0103960E9467
:102820008C3069817A818B819C812FD50F900F909C
:102830000F900F90DF91CF910895FF920F931F9308
:10284000CF93DF93082F60E070E0CB010E94943CAF
:10285000FF24F3940E94C028EC01892B89F010E03A
:10286000CE3F8FEFD80769F0002361F160E070E0A0
:10287000CB010E94943C81E090E0892B59F322C067
:1028800011E026D5EC01892B21F0CE3F8FEFD80740
:1028900059F711111EC011E0229609F410E00E94B0
:1028A0007028EC01892B21F0CE3F8FEFD807E1F69D
:1028B000111111C011E0CE3F8FEFD80709F410E0DD
:1028C00001110BC0CE01DF91CF911F910F91FF90AD
:1028D000089511E0E4CF11E0F3CF60E070E0CB01A8
:1028E0000E94943C1F25812F90E0C7CFCF93DF93A8
:1028F0008091AE04882321F060E070E0CB014DD6DA
:1029000036D6D0E0C0E0892B71F06AE070E080E05C
:1029100090E00E94943C81E090DF29D62196C03D52
:1029200027E0D20781F728D60E942B2A1092C604EE
:102930001092C5041092BF041092C0041092C104FA
:102940001092C2041092BB041092BC041092BD04F9
:102950001092BE041092B7041092B8041092B904F9
:102960001092BA041092B3041092B4041092B504F9
:102970001092B6041092AF041092B0041092B104F9
:102980001092B2044EEF5FEF6FEF7FEF40934E0275
:1029900050934F0260935002709351021092AE0414
:1029A000E2EAF4E028E0DF011D922A95E9F71092AF
:1029B0009E0410929F041092A0041092A104109201
:1029C0009A0410929B0410929C0410929D04109201
:1029D0009604109297041092980410929904109201
:1029E0009204109293041092940410929504DF9133
:1029F000CF9108951092D2041092D3041092D4046F
:102A00001092D5041092D1048091DA049091DB04E5
:102A10009093D0048093CF041092CE041092CD04F2
:102A20001092C9041092CA041092CB041092CC04E4
:102A30001092D7041092D60490E080E00895CF92CF
:102A4000DF92EF92FF920F931F93CF938C01019728
:102A500009F055C02091DA043091DB048091CF0455
:102A60009091D0044091DA045091DB045093D0044B
:102A70004093CF042817390781F01092CE041092AA
:102A8000CD041092C9041092CA041092CB04109283
:102A9000CC041092D7041092D6048091DA0490915D
:102AA000DB04019761F58091D6049091D704892BBE
:102AB00021F480915202811112C08091D60490912C
:102AC000D7040197E1F48091C9049091CA04A091C0
:102AD000CB04B091CC040197A105B10581F410920B
:102AE000C9041092CA041092CB041092CC04109224
:102AF000520282E090E09093D7048093D6048091B4
:102B0000DA049091DB04019709F01CC18091F00474
:102B10009091F1048017910709F014C18091EC04A1
:102B20009091ED04A091EE04B091EF04009709F4A8
:102B300009C12091EB0421110DC04091EC0450918A
:102B4000ED046091EE047091EF04452B462B472B6A
:102B500009F4F8C02091D6043091D7042230310511
:102B600009F0F0C02091CD042111ECC0FC01C0801F
:102B7000D180E280F3808091D104882309F4D3C00E
:102B80008091DD049091DE04892B09F4FEC0209130
:102B9000DD043091DE0481E02230310509F080E06F
:102BA0002091DD043091DE04C1E02130310549F08F
:102BB0002091DD043091DE04C1E02230310509F0BE
:102BC000C0E0882309F456C02091E7043091E8045E
:102BD0004091E9045091EA04C701B6010E94E9342A
:102BE00087FD14C02091E7043091E8044091E90486
:102BF0005091EA046091D2047091D3048091D4047E
:102C00009091D5040E94F93287FD22C02091E704FB
:102C10003091E8044091E9045091EA04C701B601FB
:102C20000E94E934181634F52091E7043091E80445
:102C30004091E9045091EA046091D2047091D30468
:102C40008091D4049091D5040E94F932811112C070
:102C50008091DF049091E004A091E104B091E2043E
:102C6000892B8A2B8B2B19F481E08093CE0481E091
:102C70008093CD04CC2309F456C02091E704309111
:102C8000E8044091E9045091EA04C701B6010E94AA
:102C9000F93287FF14C02091E7043091E804409195
:102CA000E9045091EA046091D2047091D3048091B8
:102CB000D4049091D5040E94E93487FF22C020916A
:102CC000E7043091E8044091E9045091EA04C70117
:102CD000B6010E94F932811126C02091E70430919B
:102CE000E8044091E9045091EA046091D2047091A3
:102CF000D3048091D4049091D5040E94E93418162D
:102D000094F48091DF049091E004A091E104B091EB
:102D1000E204892B8A2B8B2B19F481E08093CE045B
:102D200081E08093CD0481E09091CD04911180E009
:102D30008093D104C092D204D092D304E092D40400
:102D4000F092D5040130110509F067C18091D604D5
:102D50009091D704892BD9F41092DC041092CD0401
:102D600080915202882379F082E090E09093D7041A
:102D70008093D604109252022091DA043091DB0441
:102D800081E0232BE9F080E01BC081E009CF1092A5
:102D900052028091DC04882349F01092CE041092F4
:102DA000D7041092D6041092DC04EDCF8091DA049F
:102DB0009091DB04892BE1F08091CD041092CD0439
:102DC0002091D6043091D7042230310509F45EC039
:102DD00088F42115310509F448C02130310509F482
:102DE000F3C01092CE041092CD041092DC0438C0CF
:102DF00081E0E6CF2330310509F4B1C0243031053C
:102E000081F74091C9045091CA046091CB0470913C
:102E1000CC04411551056105710561F0415051091E
:102E2000610971094093C9045093CA046093CB04AB
:102E30007093CC044091C9045091CA046091CB04B2
:102E40007091CC04452B462B472BD9F42091D80404
:102E50003091D9042130310509F046C01092CE04DA
:102E60001092D7041092D6040CC08091520288238D
:102E700041F082E090E09093D7048093D6041092C2
:102E800052021092C7048091CE04CEC08823C9F3A9
:102E90008091DF049091E004A091E104B091E204FC
:102EA000181619061A061B060CF07DC08091DA046C
:102EB0009091DB04019709F076C08091DF04909136
:102EC000E004A091E104B091E2048093C9049093DE
:102ED000CA04A093CB04B093CC0483E090E0909319
:102EE000D7048093D604CDCF4091E3045091E404FD
:102EF0006091E5047091E604452B462B472BA9F021
:102F00001092CE048091E3049091E404A091E50432
:102F1000B091E6048093C9049093CA04A093CB04B3
:102F2000B093CC0481E090E0DACF882399F08091CF
:102F3000530290915402A0915502B0915602809391
:102F4000C9049093CA04A093CB04B093CC0484E04A
:102F500090E0C5CF1092CE0482E090E0C0CF809187
:102F6000C9049091CA04A091CB04B091CC040097FD
:102F7000A105B10559F00197A109B1098093C904D0
:102F80009093CA04A093CB04B093CC048091C9045D
:102F90009091CA04A091CB04B091CC04892B8A2BC8
:102FA0008B2B09F06ECF8091530290915402A09127
:102FB0005502B0915602892B8A2B8B2B09F44ECFE8
:102FC00081E08093CE04B3CF4091C9045091CA04EC
:102FD0006091CB047091CC044115510561057105D8
:102FE00061F041505109610971094093C90450933E
:102FF000CA046093CB047093CC044091C9045091EF
:10300000CA046091CB047091CC04452B462B472B0E
:1030100009F037CF8111C7CF9FCF8091C704882394
:1030200009F431CF8091C804CF911F910F91FF9087
:10303000EF90DF90CF9008951092D2041092D304B5
:103040001092D4041092D5041092D1041092D70497
:103050001092D6041092D0041092CF041092F10472
:103060001092F0041092CE041092CD041092C90474
:103070001092CA041092CB041092CC041092C8048F
:103080001092C7041092EC041092ED041092EE041A
:103090001092EF041092EB041092E7041092E804EF
:1030A0001092E9041092EA0488EE93E0A0E0B0E008
:1030B0008093530290935402A0935502B09356020A
:1030C0001092E3041092E4041092E5041092E604D6
:1030D0001092DF041092E0041092E1041092E204D6
:1030E0001092DE041092DD0481E08093520210926F
:1030F000DC041092DB041092DA041092D9041092CE
:10310000D80490E080E008958091DA049091DB0487
:10311000892B19F580915202882351F08091DC04AB
:10312000811106C081E08093C8048093C70408958C
:103130002091DC043091520281E090E0332311F0C1
:1031400090E080E030E082239323892B21F01092DD
:10315000C80481E0EACF1092C704089582E090E0AD
:10316000FA01918380838FEF9FEF0895CF93DF93D0
:10317000EA01009711F00E94512B1982188290E009
:1031800080E0DF91CF910895DB01009719F48FEF74
:103190008C9308952EEF2C93FC013F96EF30F105B0
:1031A00008F034C08827E852F74E8F4F0C94A142A4
:1031B000041902190019FE18FC18F818FA18F61864
:1031C000F418F218EF18EB18E718ED18061980E359
:1031D00011968C93089589E2FBCF82E2F9CF119684
:1031E0001C92089583E2F4CF81E2F2CF81E1F0CF27
:1031F00087E2EECF8AE2ECCF80E1EACF84E2E8CF4B
:1032000088E2E6CF86E2E4CF81E3E2CF80E2E0CF5E
:103210008091FE049091FF0408959093FF048093A1
:10322000FE0408958091FD0408959091FD04892B7A
:103230008093FD040895982F90958091FD04892333
:103240008093FD0408958091FC0408958091FA0410
:103250009091FB0408956115710559F0FB0130E070
:1032600020E070E060E02417350719F06115710562
:1032700011F0CB010895A081B181A817B90709F415
:10328000BF012F5F3F4F3696EECF80910005811131
:103290001CC060D266D29093F3048093F2040E9423
:1032A00058230E946A239093F7048093F6040E94A7
:1032B000D8270E94DF279093F5048093F40481E0DF
:1032C0008093000590E080E0089584EF9FEF0895DB
:1032D0008F929F92AF92BF92CF92DF92EF92FF9226
:1032E0000F931F93CF93DF9300D000D000D01F9295
:1032F000CDB7DEB71A86198618861F821E821D82F8
:103300001C821B821A8219828091000507EF1FEF31
:10331000882309F49CC08E010D5F1F4F9E012B5F17
:103320003F4FAE01495F5F4FBE01675F7F4F90E047
:1033300080E00E945C298C01009721F0059602979D
:1033400008F0DBC029853A852115310509F402C151
:10335000ED80FE804B815C81B701640F751F8F810A
:1033600098858617970708F4F5C0E20EF31ED7017B
:103370009C91903C09F07FC04230510508F47BC01D
:1033800011968C914091FE045091FF04452B09F455
:103390009CC0913F08F071C02CE1290F2D3008F43A
:1033A0008BC02DE2290F203108F489C0903C21F414
:1033B0008150823008F483C088E3890F8B3008F491
:1033C00081C094ECC92E98E1D92EEEEAF8E16D8126
:1033D0007E81AE014F5F5F4F89859A8519955C01AB
:1033E000C114D104A1F189809A808114910479F1EA
:1033F0008B819C818815990508F487C010E000E056
:103400004B815C8170E060E0C7010E94D7420115EA
:103410001105E9F449815A8169857A858D819E81FA
:10342000680F791FC501F6011995E980FA800D81B1
:103430001E812F81388549855A856FEF7FEF81E0A6
:1034400090E00E94F7288C01892B09F056C0C80132
:103450002A960FB6F894DEBF0FBECDBFDF91CF9195
:103460001F910F91FF90EF90DF90CF90BF90AF90A2
:103470009F908F90089580E085CF30E020E0220F6C
:10348000331FF901EE50FB4F0190F081E02D309792
:1034900009F497CF892F90E01995009709F491CFFF
:1034A000DC011296ED91FC9113971496CD90DC906F
:1034B000309709F08CCF1FC021E030E0E0CF22E050
:1034C00030E0DDCF23E030E0DACFD12CC12CE6EBC9
:1034D000F8E19F3F09F07BCFE091F204F091F30413
:1034E000309721F4C90104EF1FEF0CC08FEF90E07B
:1034F00019950097A9F604EF1FEF89859A85009723
:1035000009F4A5CF0E94512BA2CF0E94262A8C013C
:1035100089859A850E94512B70E060E0C4010E9469
:10352000BF2998878F830E94F4289E838D836F81A3
:1035300078856115710559F0C8010E94B42C9A87ED
:10354000898706EF1FEF892B09F058CF59CF08EF75
:103550001FEF56CF08EF1FEFD0CF20910005222399
:1035600019F020E00C946F2387EF9FEF089580916E
:10357000FE049091FF0408950E94E4270E943E27D4
:10358000F5D0E2EFF4E088E0DF011D928A95E9F7DB
:103590001092000590E080E008950C949D2521E0B4
:1035A00040E050E0BA010C946F2386E090E0FA010D
:1035B0009183808390E080E0089547E050E063E8E5
:1035C00072E049CEDF92EF92FF920F931F93CF9359
:1035D000DF938A01EC01C60FD71FE0900405F0903D
:1035E0000505D9800E940E2AD816190678F082E0C7
:1035F00090E0F801918380838EEF9FEFDF91CF9170
:103600001F910F91FF90EF90DF900895EF2841F404
:1036100082E090E0F8019183808384EF9FEFEECF0A
:1036200089818093030590E00196F801918380835E
:1036300090E080E0E3CFCF93DF93EA010E944E2633
:10364000882321F00E941B2A0E944F2682E090E0EE
:10365000998388838BEF9FEFDF91CF910895CF936C
:10366000DF93EB0186E0FB0111928A95E9F78FEF7A
:103670008883D8DD8983E7DD8A83E8DD9D838C83B9
:10368000DF91CF910895CF93DF93EA010E945126F5
:10369000811109C082E090E09983888385EF9FEFD4
:1036A000DF91CF91089590E080E0B7DD81E090E078
:1036B0009983888390E080E0F3CF0F931F93CF939B
:1036C000DF93EA018C01060F171F0E94512681111A
:1036D0000BC082E090E09983888385EF9FEFDF91B4
:1036E000CF911F910F910895F8018181823038F0B8
:1036F00082E090E0998388838EEF9FEFF0CF81E0A6
:1037000090E08BDD88E090E09983888390E080E012
:10371000E6CFCF93DF930097D1F4EB01FB01329614
:1037200086E0DF011D928A95E9F78FEF888385E0B7
:1037300089831A820E940E2A8B830E940D2A9D8300
:103740008C8381E08E838F83DF91CF910895DF9109
:10375000CF911ACD8DED9AE19093020580930105EA
:103760000895809101059091020508951092020537
:103770001092010508958091040590910505089522
:10378000411105C0611571058105910561F06093D6
:1037900004057093050580930605909307054093F3
:1037A000080581E0089580E00895FF920F931F932C
:1037B000CF93DF938A01EC01C60FD71FF9800E94D7
:1037C0000E2AF816190668F082E090E0F80191835D
:1037D00080838EEF9FEFDF91CF911F910F91FF902C
:1037E00008956C817D818E819F814B81C9DF81111C
:1037F00008C082E090E0F8019183808384EF9FEF1E
:10380000EACF89818093030590E00196F8019183C6
:10381000808390E080E0DFCFCF93DF93EA01FC016B
:10382000E60FF71F64817581868197814381A8DF48
:10383000811109C082E090E09983888384EF9FEF33
:10384000DF91CF91089581E090E09983888390E0A3
:1038500080E0F6CFE4E0F5E0408151816281738140
:10386000480F511D611D711D408351836283738315
:103870000895CF93C09103054C2F50E0609104054B
:103880007091050501960E94CE428C2FE3DF1092C5
:103890000305CF910895009799F4809104059091C4
:1038A00005052FEFFB012083892B59F0209103059B
:1038B00030E02F5F3F4F2417350719F4CB01D9CFE4
:1038C00063CC0895009799F48091040590910505C3
:1038D0002FEFFB012083892B59F02091030530E065
:1038E0002F5F3F4F2417350719F4CB01C2CF4CCCC3
:1038F000089523E1AC01249FC001259F900D112460
:10390000E0910D05F0910E05E80FF91F2381348138
:103910002250310981E02230310508F080E008951D
:103920000F931F93CF93DF9300910F051091100514
:10393000D0E0C0E080E00C171D0749F491E0811150
:1039400090E0892FDF91CF911F910F910895811100
:10395000F5CFCE01CEDF2196EECFA0910D05B0912F
:103960000E05109729F120910F053091100582174F
:103970009307F0F453E1589F9001599F300D1124A3
:10398000A20FB31FED91FC911197309789F0129619
:103990008C91681768F48BE0689FE00DF11D11248D
:1039A00080819181892B21F081E09281491708F073
:1039B00080E008959C0143E1429FC001439F900D28
:1039C0001124E0910D05F0910E05E80FF91F838594
:1039D000823099F481E090E06581768140915702D0
:1039E000509158026417750711F490E080E0892B1C
:1039F00021F081E02330310508F080E00895EF9256
:103A0000FF920F931F93CF93DF93EA01FC01E60F20
:103A1000F71F02811381E480F5804F2D6E2DC801C0
:103A20009CDF81110DC082E090E0998388838EEF46
:103A30009FEFDF91CF911F910F91FF90EF9008952D
:103A4000C80157DF882339F082E090E099838883AA
:103A500088EF9FEFEECF10935E0200935D02E0923D
:103A60005F02F092600281E090E09983888390E0A9
:103A700080E0DFCFCF92DF92EF92FF920F931F9300
:103A8000CF93DF937A01EC01C60FD71FC0905D0280
:103A9000D0905E0200915F0210916002412F602F72
:103AA000C6015BDF811110C082E090E0F7019183D5
:103AB00080838AEF9FEFDF91CF911F910F91FF904D
:103AC000EF90DF90CF900895C60113DF882341F077
:103AD00082E090E0F7019183808388EF9FEFEBCF46
:103AE0004C815D816E817F819A8189818F3F41F018
:103AF00082E090E0F701918380838EEF9FEFDBCF30
:103B0000E3E1EC9D9001ED9D300D1124E0910D0558
:103B1000F0910E05E20FF31F0190F081E02D2BE0F4
:103B2000029FE00DF11D11240190F081E02D27E0AE
:103B3000129FE00DF11D1124808391838B8182837C
:103B400043835483658376831F5F1093600281E013
:103B500090E0F7019183808390E080E0ACCFEF921A
:103B6000FF920F931F93CF93DF937A018C01060F7F
:103B7000171FC0910D05D0910E05209781F021E00F
:103B800030E0F8018281938140910F05509110053A
:103B90008417950710F030E020E0232B71F482E0C9
:103BA00090E0F701918380838EEF9FEFDF91CF91BB
:103BB0001F910F91FF90EF90089543E1489F90016E
:103BC000499F300D1124C20FD31F93DE882341F08B
:103BD00082E090E0F7019183808388EF9FEFE6CF4A
:103BE000F8012481358120383105C8F6878181119B
:103BF000D6CF4181842F90E08F7E009741F082E004
:103C000090E0F7019183808386EF9FEFCFCF4F83C2
:103C10003E832D83268128871986223010F421E0E7
:103C2000288721E030E0F70131832083BFCF88E08F
:103C300090E0FA019183808390E080E00895FB0199
:103C40008FEF808381E181838FEF9FEF9383828366
:103C500080E890E095838483168217820895FB01A3
:103C60008FEF808391E0918382839383848384E3C5
:103C7000858381E090E0978386830895BF92CF92F9
:103C8000DF92EF92FF920F931F93CF93DF93DA01AE
:103C9000FC01E60FF71F8181813081F082E090E026
:103CA0008D939C938FEF9FEFDF91CF911F910F9199
:103CB000FF90EF90DF90CF90BF900895C281D381A5
:103CC000B480858106811781E0900D05F0900E0586
:103CD000E114F10439F482E090E08D939C938CEF31
:103CE0009FEFE2CF20910F0530911005C217D30747
:103CF00038F082E090E08D939C938EEF9FEFD4CFCD
:103D0000C330D10538F082E090E08D939C9386EF2C
:103D10009FEFCACF9B2D9D7FB1F78130A1F7B110E6
:103D200005C00130110531F080E004C081E00230AF
:103D30001105D0F3882339F36D01CE01DADD882334
:103D400041F082E090E0F6019183808388EF9FEF5D
:103D5000ABCF83E18C9FF0018D9FF00D1124EE0D10
:103D6000FF1DB38681E0848716870587108A178632
:103D700081E090E0F6019183808390E080E094CF31
:103D80004CE050E06DEA72E066CA8F929F92BF925B
:103D9000CF92DF92EF92FF920F931F93CF93DF9317
:103DA000EA01FC01E60FF71F828193810481B5804F
:103DB000E0910D05F0910E05309791F482E090E0CE
:103DC000998388838CEF9FEFDF91CF911F910F91A3
:103DD000FF90EF90DF90CF90BF909F908F900895CD
:103DE00020910F05309110058217930738F082E07B
:103DF00090E0998388838EEF9FEFE6CF23E1289FA1
:103E00006001299FD00C1124EC0DFD1DE080F18094
:103E1000E114F10499F28281081748F78BE0089FBA
:103E200080011124E00EF11EF70180819181892B20
:103E300029F6BB20E1F2F7E0BF9E40011124C40146
:103E40000E94062BF70191838083E0910D05F0918C
:103E50000E05EC0DFD1D0190F081E02DE00FF11F2E
:103E600080819181009739F482E090E09983888382
:103E70008DEF9FEFA9CFA40170E060E00E94D742D0
:103E800080910D0590910E05C80ED91EF601808116
:103E90009181080F191FF801B28281E090E09983A7
:103EA000888390E080E090CFAF92BF92CF92DF9274
:103EB000FF920F931F93CF93DF93EA01FC01E60F6C
:103EC000F71F82819381F48000910D0510910E05FA
:103ED0000115110581F482E090E0998388838CEFCD
:103EE0009FEFDF91CF911F910F91FF90DF90CF90C7
:103EF000BF90AF90089520910F0530911005821763
:103F0000930738F082E090E0998388838EEF9FEFEB
:103F1000E8CF2FEF2F0D2C3FA8F723E1289F60015A
:103F2000299FD00C11240C0D1D1DF8018081918159
:103F3000892B89F6FBE0FF9E50011124C5010E94E8
:103F4000062BF80191838083E0910D05F0910E0519
:103F5000EC0DFD1D80819181009739F482E090E0A5
:103F6000998388838DEF9FEFBCCFA50170E060E05F
:103F70000E94D742E0910D05F0910E05EC0DFD1D5C
:103F8000F28281E090E09983888390E080E0A9CF7D
:103F9000CF92DF92EF92FF920F931F93CF93DF9315
:103FA000860F971FFC010281138180910D0590916E
:103FB0000E05892B81F082E090E0FA0191838083E5
:103FC0008CEF9FEFDF91CF911F910F91FF90EF90BA
:103FD000DF90CF900895C801B0E0A0E00197A1095B
:103FE000B1098F3F9F4FA105B10540F082E090E0FD
:103FF000FA01918380838EEF9FEFE4CF7A0183E112
:10400000809F6001819FD00C1124C6010E94062B65
:10401000EC01009741F482E090E0F7019183808306
:104020008DEF9FEFCFCFA60170E060E00E94D742F6
:10403000D0930E05C0930D051093100500930F0546
:1040400090E080E02FEF3FEF41E061E070E080170B
:10405000910741F481E090E0F7019183808390E043
:1040600080E0B0CF3A8B298B1B864C877E876D878B
:10407000188A1F8601966396EACFCF92DF92EF925D
:10408000FF920F931F93CF93DF93EC01D12CC12CA0
:1040900010E000E0F12CE12C6A816017110609F0B4
:1040A000CCF483E0689FB0011124AE014F5E5F4FF6
:1040B000C7010E947D2B009721F02FEF3FEF3A8B35
:1040C000298BDF91CF911F910F91FF90EF90DF909F
:1040D000CF900895E881F981EC0DFD1D4381548155
:1040E0008D859E85489F9001499F300D589F300DCA
:1040F0001124C90101960115110519F44F8144FDE0
:10410000049661E070E00E94BF29E816F90608F401
:104110007C010F5F1F4F8BE0C80ED11CBDCFF89400
:1041200020910B0530910C0581E02115310509F036
:1041300080E0232B09F0789408952F923F924F92BC
:104140005F926F927F928F929F92AF92BF92CF9227
:10415000DF92EF92FF920F931F93CF93DF933C0177
:10416000660E771EF301828193814C01B12CA12C44
:10417000C0910D05D0910E05209769F021E030E047
:1041800060910F05709110058617970710F030E0C9
:1041900020E0232BD1F482E090E0FA019183808328
:1041A0008EEF9FEFDF91CF911F910F91FF90EF90D6
:1041B000DF90CF90BF90AF909F908F907F906F9047
:1041C0005F904F903F902F9008958092610290925F
:1041D0006202A0926302B092640263E1689F900160
:1041E000699F300D1124C20FD31FF30181818330E9
:1041F00040F082E090E0FA019183808386EF9FEFA8
:10420000D1CF2A012B813C81232BF1F428813981E4
:104210009F8191FF2EC0232B09F46FC020911205BE
:104220009A81422F490F5527551FBA0141E050E0AE
:104230006138710514F050E040E0452B09F45DC091
:104240002A87920F909312058150823008F481C022
:1042500066DF882309F4D8C0F3018181813009F435
:104260008DC008F47BC0823009F4C6C090E080E0C5
:10427000ADC0232B09F441C0209111059A81E22F92
:10428000E90FFF27FF1F41E050E0ED3FF10514F07B
:1042900050E040E0452B89F12A87920F9093110559
:1042A000D3CFA081B181A20FB31F11966C91060FDD
:1042B000111D0196295F3F4F8417950794F38D8553
:1042C0009E85089F1001099F300C189F300C112407
:1042D000C114D104D1F48F8184FF17C00E940D2A2C
:1042E000F5E02F0E311C21E08215930508F420E043
:1042F000A701455F5F4F21110EC082E090E0F201FF
:104300009183808387EF9FEF4DCF0E940D2A2FEF7F
:10431000221A320AE8CF88819981E80EF91EF70146
:1043200014830383FFEFCF1ADF0A7A018A818C1589
:104330001D0409F00CF48CCFE881F981EE0DFF1D0E
:10434000428150E030E020E010E000E090E080E0CA
:10435000B3CFF12CE12CD12CC12CE8CF81E090E03F
:104360009C838B83DDDA882309F480CF81E090E0A1
:104370000E940D1980E40E941B1978CF89899A89BF
:10438000019661F083E090E09C838B8382E090E073
:104390000E940D1980E40E94151968CF2D813E817D
:1043A000809157029091580228173907D1F46091F3
:1043B0005B0270915C02AE014F5E5F4F80915902CB
:1043C00090915A020E94732C0097E1F2789422E0B7
:1043D00030E0F20131832083892B99F08DEF9FEF3C
:1043E000E1CE23E082169104A104B1045CF6CE0173
:1043F00044DE188A1F86E8CF82E090E09C838B839E
:1044000035CF90E080E0CECE82E090E0F201918363
:10441000808385EF9FEFC6CE8F929F92AF92BF921F
:10442000CF92DF92EF92FF920F931F93CF93DF9380
:10443000EA018C01060F171FF8018181833098F083
:1044400082E090E09983888386EF9FEFDF91CF91A0
:104450001F910F91FF90EF90DF90CF90BF90AF90A2
:104460009F908F90089580910D0590910E05892B56
:1044700061F081E090E020910F0530911005232B31
:1044800011F490E080E0892B39F482E090E0998388
:1044900088838EEF9FEFDACF42DE882309F4DEC0F7
:1044A000F8018181813009F494C0E8F0823099F4F8
:1044B00020910F0530911005E0910D05F0910E054A
:1044C00090E080E041E050E02817390709F0BCC0D7
:1044D00027DA811117C0789481E090E0998388836E
:1044E00090E080E0B3CF20910F0530911005E0916E
:1044F0000D05F0910E0590E080E041E050E02817B6
:10450000390741F481E090E00E940D1980E40E9497
:104510001B19E1CF63817481672B11F054834383AE
:1045200001967396ECCFE0910D05F0910E05E00F2A
:10453000F11F2381348122303105D9F42189328958
:104540002F3F3F4FB1F44581568120915702309162
:1045500058024217530761F5AF014F5E5F4F6091FC
:104560005B0270915C028091590290915A020E9404
:10457000732C4FEFC41AD40AE40AF40A0D5E1F4FDD
:1045800040910F055091100570E060E0C416D5060B
:10459000E606F70634F5009731F27894892B09F492
:1045A0009BCF82E090E0998388838DEF9FEF4ECF81
:1045B00023E0C216D104E104F104DCF6CF015DDD95
:1045C000E0910D05F0910E05E00FF11F108A17869E
:1045D000D0CF10E000E090E080E0C12CD12C76013B
:1045E000CFCF0097D1F610E000E0812C912C540140
:1045F00083E0E82EF12C1AC0E0910D05F0910E0534
:10460000E00FF11F83819481029749F4F482E382E1
:1046100082E090E00E940D1980E40E9415198FEF4E
:10462000881A980AA80AB80A0D5E1F4F80910F05D4
:1046300090911005B0E0A0E088169906AA06BB0686
:10464000DCF290E080E0A9CF638174816230710573
:1046500011F4548343830196739636CF82E090E041
:104660009983888385EF9FEFF1CE0097B9F48FEFA0
:10467000FB018083209161023091620243E1429FFD
:10468000C001439F900D1124E0910D05F0910E059E
:10469000E80FF91F8285FB01818308950C94C418EB
:1046A00088E090E0FA019183808390E080E00895B3
:1046B00010920C0510920B05EDE0F5E086E0DF01AD
:1046C0001D928A95E9F780EC9EE190930A0580930C
:1046D000090508958091090590910A0508952F9282
:1046E0003F924F925F926F927F928F929F92AF9282
:1046F000BF92CF92DF92EF92FF920F931F93CF93CF
:10470000DF93CDB7DEB760970FB6F894DEBF0FBE6C
:10471000CDBFF894E0910B05F0910C053196F09324
:104720000C05E0930B057894A0910D05B0910E0552
:10473000BA83A983109709F4FAC1E0910F05F091AB
:104740001005EF2B09F4F3C128874B875C876D8731
:104750007E879A878987B88BAF87312C212CF12CE3
:10476000512C412C80910F05909110052816390687
:1047700010F4FF2029F1F89480910B0590910C051D
:10478000019790930C0580930B057894C201609675
:104790000FB6F894DEBF0FBECDBFDF91CF911F9152
:1047A0000F91FF90EF90DF90CF90BF90AF909F90D0
:1047B0008F907F906F905F904F903F902F900895D3
:1047C000B10190E080E087D4682EEF85F889878179
:1047D00081FD3DC0838194810397C9F52581368190
:1047E0003C832B8389859A852817390781F5C10178
:1047F000E1D8782E8823A9F1AF85B8891F968D91CD
:104800009C915097019621E01D964D915C918417E3
:10481000950709F020E02F83B12CA12CEF85F889B2
:1048200082818A151B0419F014F0FF20E9F0F88545
:10483000FF2309F46CC1AF85B88950961C921E9273
:104840001F97662021F0B10190E080E046D4FFEF91
:104850002F1A3F0A2F8538892D5E3F4F388B2F87BF
:1048600081CFB1E0BF83D8CFBFD49E838D83E8854D
:10487000EE23E9F0772009F43CC1AF85B8891F9693
:104880008D919C91892B79F0BBE0BA9DC001BB9DB5
:10489000900D1124AF85B889ED91FC91E80FF91FB7
:1048A00085819681FED6BFEFAB1ABB0AB7CF81E0F8
:1048B000772039F0EF85F88927853089232B09F097
:1048C00080E0F82EE12CA114B10439F4AF85B88949
:1048D0001796EC90E4FAEE24E0F8BBE0BA9D600194
:1048E000BB9DD00C1124882309F424C1AF85B8895D
:1048F000ED91FC911197EC0DFD1D438154811D96A6
:104900002D913C91429FC001439F900D529F900D6D
:104910001124E1105DC001969087878361E070E00B
:10492000878190852CD5EF85F8892189328900818E
:1049300011810C0D1D1D2F3F320709F44BC0BC0126
:10494000C9010E94B42CD80116969C938E9315979A
:10495000AF85B889ED91FC911197EC0DFD1D058196
:1049600016810115110509F4CDC0ED81FE810E0FF0
:104970001F1F1A968C918A0DD8018C93E1102FC0BD
:104980000F5F1F4FAF85B889ED91FC91EC0DFD1DB8
:1049900012870187AF85B889ED91FC91EC0DFD1D63
:1049A00085819681892B09F4A4C08091570290914A
:1049B00058022B813C812817390709F465C07720FC
:1049C00011F001851285912C812C1A8219824AC01E
:1049D0000596A2CF1BD6F80196838583B9CF8B8528
:1049E0009C85AD85BE85F80181839283A383B483C2
:1049F0000B5F1F4FC7CFE080F180E80CF91CD70197
:104A000013966D917C9114978C918F3F09F473C02C
:104A1000E1E0F0E002C0EE0FFF1F8A95E2F7CF0160
:104A2000092E000CAA0BBB0BFB0140815181628156
:104A3000738184239523A623B72321E0892B8A2B16
:104A40008B2B09F420E0D8012C93D70111968C917F
:104A5000080F111DE981FA813196FA83E983F7E0A5
:104A60008F0E911CAF85B889ED91FC91EC0DFD1D69
:104A7000828129813A818217130611F00CF0BBCF95
:104A8000772011F0128701873F81332391F1AF85A1
:104A9000B889ED91FC91EC0DFD1D61E070E087811E
:104AA00090856DD4AF85B889ED91FC91EC0DFD1D1D
:104AB000E780F08445815681E1E0F0E0662011F066
:104AC000F0E0E0E00D811E819C01B101882799276B
:104AD0008E1B9F0B8CD32C01892B59F0EF85F88905
:104AE00080819181C80ED91ED60115968D919C9119
:104AF000D8D5F12CD8CEF701418150E0C8010E94F1
:104B0000CE42A3CF86EF482E55245A94CCCEEF85C3
:104B1000F889878590890196908B878725853685CA
:104B20008217930709F08DCE108A17868ACE512CF2
:104B3000412C21CE10E000E02DCF2F923F924F92DA
:104B40005F926F927F928F929F92AF92BF92CF921D
:104B5000DF92EF92FF920F931F93CF93DF93809199
:104B60000D0590910E0510E000E0892BA9F0D7DA31
:104B70000AEF1FEF882381F020900F053090100579
:104B8000C0910D05D0910E05D12CC12C10E000E094
:104B90002C143D04A9F47894C801DF91CF911F91A2
:104BA0000F91FF90EF90DF90CF90BF90AF909F90CC
:104BB0008F907F906F905F904F903F902F900895CF
:104BC000C6010E94DA1C882309F18B819C8103971E
:104BD000E9F48F859889892BC9F0B60190E080E0CF
:104BE0007AD221E030E0882311F030E020E0442444
:104BF0005524421A530AB12CA12C912C812C8A8164
:104C00008815190409F038F4188A1F864FEFC41A62
:104C1000D40A6396BDCFE881F981EA0DFB1D858139
:104C20009681892BA1F161E070E087819085A7D3FF
:104C30003C01DAD28C01E881F981EA0DFB1D818506
:104C4000928525813681200F311FAC01421B530B09
:104C50009A0147815085421B530B70E060E00E942F
:104C6000D742E881F981EA0DFB1DE780F084458198
:104C700056819301B601C201BAD28C01892B39F059
:104C8000E881F981EA0DFB1D858196810AD55FEFE8
:104C9000851A950A8BE0A80EB11CB1CF40CA789452
:104CA00008952F923F924F925F926F927F929F92C0
:104CB000AF92BF92CF92DF92EF92FF920F931F932A
:104CC000CF93DF9300D000D0CDB7DEB700910D05B4
:104CD00010910E05992493940115110509F43EC015
:104CE000A0900F05B09010051ADA982E8823B1F124
:104CF00010920E0510920D051092100510920F05DE
:104D000010921105109212058FEF9FEFDC01809336
:104D1000610290936202A0936302B093640278945C
:104D20007ED31E830D83C12CD12C7601C501B0E04A
:104D3000A0E089839A83AB83BC8322242A94322CFB
:104D400089819A81AB81BC81C816D906EA06FB0627
:104D5000F4F0C801A6D480E40E941B19892D269680
:104D60000FB6F894DEBF0FBECDBFDF91CF911F917C
:104D70000F91FF90EF90DF90CF90BF90AF909F90FA
:104D80007F906F905F904F903F902F900895AD81EE
:104D9000BE8115962D913C91169780915702909166
:104DA000580228173907D1F451968D919C91CAD594
:104DB000ED81FE8180819181B12CA12C412C512C5F
:104DC0003201892B81F5BFEFCB1ADB0AEB0AFB0A14
:104DD000ED81FE817396FE83ED83B2CFB3E0CB16F7
:104DE000D104E104F10424F7ED81FE8181899289E7
:104DF0008F3F980709F01DD5AD81BE8152963C9238
:104E00002E925197D5CF8A0D9B1DDC018D919C91DF
:104E1000009709F046D4BFEF4B1A5B0A6B0A7B0A76
:104E2000EBE0AE0EB11CAD81BE818D919C911197CE
:104E300012964C9150E070E060E04416550666060C
:104E400077060CF32ED4BFCFCF93DF93EA0129DF8F
:104E5000811109C082E090E09983888385EF9FEFFC
:104E6000DF91CF91089581E090E00E940D1981E0DB
:104E700090E09983888390E080E0F2CF12DF109277
:104E80000A0510920905089542E050E065EF72E0CE
:104E90000C942B19FF920F931F93CF93DF938A01EA
:104EA000EC01C60FD71FF980B9D20897F81619067A
:104EB00071F068F082E090E0F801918380838EEFDA
:104EC0009FEFDF91CF911F910F91FF9008956C811B
:104ED0007D818E819F814B810E94C01B811108C002
:104EE00082E090E0F8019183808384EF9FEFE9CF27
:104EF000F9800E94BB1B4F2D50E0BE01685F7F4FC1
:104F00000E94CE4289810E942A1C81E090E0F80133
:104F10009183808390E080E0D4CFDF92EF92FF9284
:104F20000F931F93CF93DF938A01EC01C60FD71F16
:104F30000E94BB1B7C01D98071D2DD2059F0029701
:104F400021E030E0D816190619F010F030E020E02A
:104F5000232B79F482E090E0F801918380838EEF37
:104F60009FEFDF91CF911F910F91FF90EF90DF9016
:104F70000895EF2841F482E090E0F8019183808366
:104F800084EF9FEFEECFF9800E94BB1B4F2D50E0C6
:104F9000BE016E5F7F4F0E94CE4289810E942A1C13
:104FA00081E090E0F8019183808390E080E0D9CFA8
:104FB00084E497E2909314058093130508958091FB
:104FC00013059091140508950895FC011182108233
:104FD000938382830895DB011D921C92DC0112965B
:104FE000ED91FC9113977183608313967C936E937C
:104FF00012970895FC0180819181DB018D939C9330
:10500000A081B181109741F08D919C919183808313
:10501000892B11F4F383E2830895FC01808191814F
:10502000DB018D939C93892B11F4738362837183CD
:1050300060830895FC011182108293838283089516
:10504000CF93DF931F921F92CDB7DEB71A821982DA
:10505000F894BE016F5F7F4F8AE195E0CBDF8981D5
:105060009A81009709F01DD389819A81892B89F74C
:10507000BE016F5F7F4F8EE195E0BCDF89819A8131
:10508000009709F00ED389819A81892B89F778944A
:105090000F900F90DF91CF910895CF93DF931F92E0
:1050A0001F92CDB7DEB71A821982F894BE016F5FE6
:1050B0007F4F86E195E09EDF89819A81009709F014
:1050C000F0D289819A81892B89F778940F900F907B
:1050D000DF91CF91089581E0089590E080E00895F8
:1050E000EF92FF920F931F93CF93DF931F921F9224
:1050F000CDB7DEB71A8219828091150507EF1FEF31
:105100008823A1F1F894BE016F5F7F4F8EE195E097
:1051100071DF789489819A81EE24E394F12C892BB4
:1051200051F4F894BE016F5F7F4F8AE195E062DF32
:105130007894F12CE12C89819A810EEF1FEF009772
:10514000A9F0FC014281538164E070E00DD68C012E
:10515000892B61F0F89469817A81C701880F991FC2
:10516000880F991F865E9A4F58DF7894C8010F9078
:105170000F90DF91CF911F910F91FF90EF900895C5
:105180000F931F93CF93DF9300D01F92CDB7DEB75D
:105190001C821B821A8219828091150507EF1FEF6E
:1051A0008823C1F0AE014D5F5F4F64E070E0CE0137
:1051B00001964DD68C01892B69F4E981FA818B81A6
:1051C0009C8193838283F89469817A8186E195E05A
:1051D00002DF7894C8010F900F900F900F90DF912D
:1051E000CF911F910F91089552D7049608958F92F1
:1051F0009F92AF92BF92CF92DF92EF92FF920F9366
:105200001F93CF93DF931F921F92CDB7DEB71A8201
:105210001982BC016F5F7F4F6330710598F0AA243B
:10522000AA94BA2CC5010F900F90DF91CF911F91D6
:105230000F91FF90EF90DF90CF90BF90AF909F9035
:105240008F9008954115510551F3480159018A0184
:105250006C01CADF8815990511F7E114F104F9F220
:105260008E0D9F1DA816B906D0F2809115058823D2
:10527000F1F0F894B501645071099701AE014F5FE8
:105280005F4FC801049678D65C01892B71F489813F
:105290009A81F80193838283C601880F991F880F32
:1052A000991FB801865E9A4F96DE7894BBCF87EF40
:1052B000A82EBB24BA94B6CFAF92BF92CF92DF9202
:1052C000EF92FF920F931F93CF93DF931F921F9242
:1052D000CDB7DEB71A821982892B09F047C0611554
:1052E000710509F443C04115510509F43FC021156A
:1052F000310509F43BC001151105C1F18091150577
:105300008823B9F179016A015B01F894BE016F5FEE
:105310007F4F86E195E06EDE789489819A810097CF
:1053200059F1DC0112966D917C91A80104963DD64D
:105330008C01E981FA81D501ED93FC9382819381FF
:105340000496F601918380834FDFD7018D939C9360
:10535000C8010F900F90DF91CF911F910F91FF9097
:10536000EF90DF90CF90BF90AF9008950FEF1FEFB9
:10537000EFCF07EF1FEFECCF0EEF1FEFE9CFCF938B
:10538000DF93EC01672B71F48BD68C179D0760F0CF
:105390007ED62496C80FD91F7DD68C0F9D1FDF9116
:1053A000CF9108957AD6F1CF90E080E0F8CF0F93B7
:1053B0001F93CF93DF932091150521112BC08B01F3
:1053C000EC018AE195E001DE8EE195E0FEDD86E10B
:1053D00095E0FBDD97D00097C1F462D670E060E005
:1053E000CEDF45E652E062E070E087D1009769F4D5
:1053F000809165029091660265D6B801CE019AD47B
:10540000009719F421E020931505DF91CF911F91AA
:105410000F91089584EF9FEFF8CF3FC641C6CF9319
:10542000DF9341D6EC01892B11F40ADE36DECE0182
:10543000DF91CF910895CF93DF9335D6EC01892B7F
:1054400009F4FEDDCE01DF91CF91089580916502D0
:10545000909166020895CF93DF9380911505D0E077
:10546000C0E08823D1F033D6EC01892BB1F4E8DD1C
:1054700014DE8091650290916602DBD1C5D2EC0109
:10548000892B59F48AE195E0D5DD8EE195E0D2DDF6
:1054900086E195E0CFDD10921505CE01DF91CF9129
:1054A0000895EF92FF920F931F93CF93DF93EC0138
:1054B0007A018B010F5F1F4F0E9DA0010F9D500DB4
:1054C0001E9D500D112470E060E00E94D74290E0D4
:1054D00080E0F0E0E0E02FEFE816F90639F4DF9124
:1054E000CF911F910F91FF90EF9008951A8219822A
:1054F0002883309711F0D283C1830196FE01C00F3B
:10550000D11FEACFAF92BF92CF92DF92EF92FF927C
:105510000F931F93CF93DF938FE696E07C012CEFE0
:10552000E22281E0C82E83E0D82E97E0A92E93E0F6
:10553000B92EC6EED6E08E01D6014D915D916D017A
:10554000F501619171915F01D8011196FC92EE9283
:1055500015965C934E93149713965C934E93129703
:1055600017967C936E9316979B012F5F3F4F249F56
:10557000C001259F900D349F900D112419969C9386
:105580008E931897E114F10411F0C7018ADFF80136
:1055900080859185E80EF91E065F1F4FF7E0CF1654
:1055A000F3E0DF0649F6E4E2F5E088E491E0DF01AC
:1055B0009C011D9221503040E1F71092230510927A
:1055C00022058EE097E01F8E1E8E1BA21AA219A242
:1055D00018A21DA21CA21FA21EA22A968C179D070C
:1055E00091F71092E3061092E2061092E5061092EF
:1055F000E40690E080E0DF91CF911F910F91FF9042
:10560000EF90DF90CF90BF90AF900895009761F139
:10561000F8948132910580F48091E8069091E90632
:10562000892B29F58091F2069091F306892B31F0B0
:1056300021E081E090E00BC0C197A8F48091FC06C6
:105640009091FD06892B79F022E082E090E0EAE07B
:10565000E89FD001E99FB00D1124AA51B94F8D9157
:105660009C91009741F4789490E080E0089520E0C8
:1056700090E080E0ECCFE29FF0011124EA51F94F75
:10568000DC0111964D915C9151834083428153819D
:105690004150510953834283FC012193CF017894F7
:1056A0000895009749F1DC018E91873041F4E09133
:1056B000E406F091E5063097F9F0CD0119948730B2
:1056C000D8F4282F30E0F8948FEF8C938AE0829FF3
:1056D000F001839FF00D1124EA51F94F80819181EF
:1056E00012969C938E931197B183A08382819381AC
:1056F00001969383828378940895CF92DF92EF92FC
:10570000FF920F931F93CF93DF939C0187E295E065
:105710008C7F4115510509F489C02115310509F423
:1057200085C06115710509F481C08A01AB01B90119
:105730006D5F7F4F6C7F9B012F5F3F4F249F7001F8
:10574000259FF00C349FF00C1124F894E6EEF6E05F
:1057500023E030E0E901A6A1B7A1C68CD78CCD2803
:1057600009F058C0109709F03EC0C0902205D090B3
:10577000230525E431E02C193D092E153F0530F4B1
:105780007894CFEFDFEF86EF9FEF21C02AE02C9FC8
:10579000F0012D9FF00D1124EA51F94F9183808380
:1057A000558344835383428377836683F186E086FF
:1057B000009709F076DEEC0CFD1CF0922305E092D8
:1057C00022057894CF3FDC07F1F290E080E0F80109
:1057D000D183C083DF91CF911F910F91FF90EF9004
:1057E000DF90CF900895AE15BF05A0F02AE02C9F62
:1057F000F0012D9FF00D1124EA51F94F9183808320
:105800005583448353834283778366830097C9F229
:1058100048DED7CF8A0F9B1F2F5F3F4F3A96273026
:10582000310509F097CFCFEFDFEFCBCF8FEF9FEFB1
:10583000D1CF9C010397049708F052C0F89486E0FA
:105840009AE0482F50E024173507BCF191E08AE038
:10585000829FF001839FF00D1124EA51F94F1182CC
:105860001082158214821382128217821682992363
:1058700001F18091220590912305E6EEF6E024AD3A
:1058800035AD232B69F4DF01AC5BBF4F2D913C910B
:1058900011972115310521F0821B930B1D921C924B
:1058A0003A9726E0EE3BF20751F790932305809359
:1058B0002205789490E080E00895949FF001959FF0
:1058C000F00D1124EA51F94F40815181452B31F4FB
:1058D00040855185452B11F48150B3CF90E0B7CF6F
:1058E0008FEF9FEF08954115510549F1009739F168
:1058F0006115710521F1F8942091E2063091E306DB
:10590000232BB9F42091E4063091E506232B89F48A
:105910009093E3068093E2067093E5066093E406B5
:10592000789427E030E090E080E0FA013183208332
:10593000089578942FEF3FEF86EF9FEFF6CF8FEF2C
:105940009FEF0895079769F4F8941092E306109278
:10595000E2061092E5061092E406789490E080E06A
:1059600008958FEF9FEF08956115710519F4F0E028
:10597000E0E011C08730910581F4E091E206F091FA
:10598000E3063097A1F3CB0101961995009779F3BF
:10599000FC0187E08193CF0108959C0123503109D8
:1059A0002430310520F72AE0289FD001299FB00D2F
:1059B0001124AA51B94F2D913C911197232BB9F283
:1059C00016962D913C9117972617370780F2F89479
:1059D00012962D913C9113972115310529F0ED91E7
:1059E000FC911197309711F47894C1CF4181528185
:1059F00011965C934E932150310913963C932E934C
:105A0000129781937894C7CFECE6F6E086E7DF0142
:105A10001D928A95E9F7E4E2F5E088E491E0DF0180
:105A20009C011D9221503040E1F710922305109205
:105A30002205E6EEF6E086E4DF011D928A95E9F79D
:105A4000E2EEF6E084E0DF011D928A95E9F790E04E
:105A500080E00895CF93DF93C0916702D0916802F0
:105A6000CF3FDC0759F4E0D390936802809367023C
:105A700097FF09C0D0936802C093670284EF9FEF3D
:105A8000DF91CF91089590E080E0FACF82309105C8
:105A900028F480932C0790E080E008958FEF9FEF2B
:105AA00008954F925F926F927F92AF92BF92CF9282
:105AB000DF92EF92FF920F931F93CF93DF931F928A
:105AC0001F92CDB7DEB71A821982009709F479C008
:105AD0006115710509F475C0209167023091680263
