:1000000015C100000C9468430C9493430C94BE43B8
:100010000C94E9430C9414440C943F440C946A44AB
:100020000C94954434C1000032C1000030C100007E
:100030002EC100002CC100002AC1000028C1000010
:1000400026C1000024C1000022C1000020C1000020
:100050001EC100001CC100001AC100000C94C04465
:1000600016C100000C94C8480C94FE4810C1000052
:100070000EC100000CC100000AC1000008C1000050
:1000800006C1000004C1000002C1000000C1000060
:100090000C9454490C948A49FAC000000C94CC4149
:1000A000F6C00000F4C00000F2C00000F0C0000084
:1000B000EEC00000ECC00000EAC00000E8C0000094
:1000C000E6C00000E4C000000C94C6380C94E0497F
:1000D0000C94164ADCC000000C946C4A0C94A24AA2
:1000E000D6C0000005A84CCDB2D44EB93836A9020E
:1000F0000C50B9918688083CA6AAAA2ABE00000026
:10010000803F00000A0B02090C0D0E0807030401D2
:1001100000000000000000000000000000000000DF
:1001200000000000000000000000000000001211AC
:1001300010000000000000000000000000000000AF
:10014000000000000000000001021020200808103C
:100150002040102040800201020108040201010237
:100160000408102040808040201008040201800410
:10017000020180402010080402010804020101026B
:10018000040810204080010204081020408005056A
:100190000505070508080808020202020A0A0808FD
:1001A000040404040101010101010101030303032B
:1001B00003030303040707070C0C0C0C0C0C0C0CBA
:1001C0000202020206060606060606060B0B0B0BCB
:1001D0000B0B0B0B000020002300260029002C0035
:1001E0002F00320000010000030106010901000098
:1001F0002200250028002B002E00310034000201CF
:100200000000050108010B01000021002400270067
:100210002A002D0030003300010100000401070115
:100220000A01373F2749B3493F4ACB4A11241FBE31
:10023000CFEFD1E2DEBFCDBF00E00CBF13E0A0E006
:10024000B2E0EEE0F7E900E00BBF02C007900D92CC
:10025000A638B107D9F72EE0A6E8B3E001C01D9299
:10026000AA39B207E1F711E0C6E1D1E000E006C02B
:1002700021970109802FFE010E94484BC131D1070F
:1002800080E00807A9F70E94293A0C94854BB8CE64
:10029000CF92DF92EF92FF926B017C01C114D104E7
:1002A000E104F10469F480910002811109C0809198
:1002B0000202909103020E94A83E81E08093000216
:1002C000C601880F991F880F991F80509E4FFF907D
:1002D000EF90DF90CF900895009781F0FC0121818D
:1002E000211104C040EA56E861E070E0FC0182811F
:1002F00093810E94B73E90E080E0089588E090E00E
:1003000008954F925F926F927F928F929F92AF92D9
:10031000BF92CF92DF92EF92FF920F931F93CF93F2
:10032000DF930097C9F1280139017A01EC01402FD0
:100330008A819B810E94353F8A819B81DC01ED91FE
:10034000FC910084F185E02D1995892B01F167015D
:10035000812C912C54018A819B81DC01ED91FC91CF
:100360000084F185E02D1995892B91F18414950471
:10037000A604B70469F18A819B81DC01ED91FC91AF
:100380000284F385E02D19958F3F9807C1F484E02E
:10039000F70111928A95E9F788E090E0DF91CF911B
:1003A0001F910F91FF90EF90DF90CF90BF90AF9093
:1003B0009F908F907F906F905F904F900895FFEF88
:1003C0008F1A9F0AAF0ABF0AD6018D936D01C3CF62
:1003D00090E080E0E3CF8F929F92AF92BF92CF9256
:1003E000DF92EF920F931F93CF93DF930097F1F07B
:1003F0006A01EC018A819B810E94BA3E8A819B81BD
:10040000DC01ED91FC910280F381E02DA801B601A1
:1004100019958A819B8160E0E11001C061E00E9432
:10042000C43E882389F08250823088F088E090E0D2
:10043000DF91CF911F910F91EF90DF90CF90BF9000
:10044000AF909F908F90089590E080E0F1CF84E08E
:1004500090E0EECF08958130910579F01CF4892B5E
:1004600039F008958230910561F0039771F0089595
:1004700026E08CEA99E00C94684826E089E49AE04A
:10048000FACF26E086EE9AE0F6CF26E083E89BE0FE
:10049000F2CF8F929F92AF92BF92CF92DF92EF9264
:1004A000FF926B017C010E940A454B015C010E9496
:1004B0000A45681979098A099B09C616D706E8060C
:1004C000F906A8F7FF90EF90DF90CF90BF90AF9024
:1004D0009F908F900895CF93DF93EC0170E060E0E0
:1004E0006C177D070CF5072E000C880B990B0E94EA
:1004F000BE3B20E030E0A9010E94BB3A20E030E0A2
:10050000A9010E94BB3A20E030E040E450E40E94A0
:10051000BB3A20E030E040E450E40E94BA3A0E9446
:100520008B3B6F5F7F4FDCCFDF91CF9108950F93AF
:100530001F93CF93DF93EC018C810E9476478C014F
:100540008C859D85C8DF88850E94764748815981C2
:100550006A817B81019781F40130110579F44F5F45
:100560005F4F6F4F7F4F488359836A837B83DF914F
:10057000CF911F910F910895012B89F3415051099B
:1005800061097109F0CF87E893E0D1CF87E993E063
:10059000CECF87EA93E0CBCF87EB93E0C8CF0F9322
:1005A0001F93CF93DF93EC0188850E9476478C01DF
:1005B0008C859D8590DF8C810E947647488159818A
:1005C0006A817B81019779F4012B81F44F5F5F4F42
:1005D0006F4F7F4F488359836A837B83DF91CF912D
:1005E0001F910F9108950130110581F34150510978
:1005F00061097109EFCF87E893E0D1CF87E993E0F4
:10060000CECF87EA93E0CBCF87EB93E0C8CF0F93B1
:100610001F93CF93DF93D82FC62F8A01E0918603D3
:1006200080E1E89FF0011124E957FC4F8D2F90E005
:10063000B0E0A0E084839583A683B783862F90E003
:10064000B0E0A0E080879187A287B38710821182F3
:100650001282138281E090E0A0E0B0E08487958769
:10066000A687B78760E08D2F0E940D4760E08C2F32
:100670000E940D4780918603813009F43FC0A8F0A5
:10068000823009F462C0833009F486C08091860309
:1006900091E0980F90938603F801808390E080E0CA
:1006A000DF91CF911F910F91089580E0D23049F0F2
:1006B00081E0D33031F08EEE8D0F8430D8F487E1B5
:1006C0008D1B41E050E06BEF72E00E94EE4280E053
:1006D000C23049F081E0C33031F08EEE8C0F8430AF
:1006E00058F487E18C1B41E050E063EC72E00E941B
:1006F000EE42CCCF8FEFE5CF8FEFF5CF80E0D23059
:1007000049F081E0D33031F08EEE8D0F8430C8F4A3
:1007100087E18D1B41E050E06EEF72E00E94EE42F7
:1007200080E0C23049F081E0C33031F08EEE8C0FB2
:10073000843048F487E18C1B41E050E066EC72E0C5
:10074000D6CF8FEFE7CF8FEFF7CF80E0D23049F0F1
:1007500081E0D33031F08EEE8D0F8430C8F487E124
:100760008D1B41E050E061E073E00E94EE4280E0CA
:10077000C23049F081E0C33031F08EEE8C0F84300E
:1007800048F487E18C1B41E050E069EC72E0AFCFA8
:100790008FEFE7CF8FEFF7CF80E0D23049F081E0E5
:1007A000D33031F08EEE8D0F8430C8F487E18D1B8D
:1007B00041E050E064E073E00E94EE4280E0C2302D
:1007C00049F081E0C33031F08EEE8C0F843048F474
:1007D00087E18C1B41E050E06CEC72E088CF8FEF3A
:1007E000E7CF8FEFF7CF90E1899FF0011124E95710
:1007F000FC4F80819181A281B381FB018083918331
:10080000A283B38390E080E0089590E1899FF00196
:100810001124E957FC4F108211821282138290E05A
:1008200080E0089590E080E00895CF92DF92EF920B
:10083000FF92CF93882351F16A017B01CFEFC80F5C
:1008400020E030E0A901CB01B6010E941F3B87FFE9
:1008500011C0C701B60190580E94903B9B01AC01AA
:100860006C2F70E090E080E0CF91FF90EF90DF90F0
:10087000CF90B2C0C701B6010E948B3B8C2FCF91A5
:10088000FF90EF90DF90CF900C94D345CF91FF90E5
:10089000EF90DF90CF9008950F931F938B019C01F1
:1008A00083E036952795179507958A95D1F70953D3
:1008B0001C4F462F477021E030E0F90102C0EE0FD7
:1008C000FF1F4A95E2F7AF01F80120812423CB01F5
:1008D0000196211102C090E080E01F910F910895D0
:1008E0000F931F938B019C0183E0369527951795F5
:1008F00007958A95D1F7677081E090E001C0880F75
:100900006A95EAF7F801E953FC4F2081452B31F451
:100910008095822380831F910F910895822BFACFB7
:100920002F923F924F925F926F927F928F929F92FF
:10093000AF92BF92CF92DF92EF92FF920F931F93ED
:10094000CF93DF93D62EC72E782E692E49015A01F8
:10095000280161E08D2D0E940D47CD2DDC2D8E01EB
:100960000F5F1F4FA8016D2D7C2D872D962DB8DFB1
:1009700020E030E0A901C201B7010E940F3D181626
:1009800064F4C201B7010E94903B2B01C501B40180
:100990000E94903BA201CE0123D0C801DF91CF91EC
:1009A0001F910F91FF90EF90DF90CF90BF90AF908D
:1009B0009F908F907F906F905F904F903F902F907F
:1009C0000895882341F08150682F70E090E080E026
:1009D00050E040E085CF0895862FB9010C94D345AF
:1009E0009C01FC01EE5FFE4FE491E150E231E0F446
:1009F000F0E08827E150FB4F8F4F0C94484B1105D6
:100A000018051B053205470514055C0568056C05CE
:100A100083059805AD05C405D9051405EE05050641
:100A20001A0684B5806884BD60E0822F0C94494723
:100A300084B58062F8CF809180008C7F8260809343
:100A4000800080918100807E8061682B60938100AE
:100A50005093870040938600809180008068809347
:100A60008000E2CF809180008C7F82608093800044
:100A700080918100807E8061682B6093810050931B
:100A8000870040938600809180008062E8CF80914B
:100A900080008C7F82608093800080918100807EC6
:100AA0008061682B6093810050938700409386009B
:100AB000809180008860D3CF8091B000806880935F
:100AC000B0008091B100887F682B6093B100ACCFFB
:100AD0008091B0008062F3CF809190008C7F826023
:100AE0008093900080919100807E8061682B60935C
:100AF00091005093970040939600809190008068F9
:100B00008093900091CF809190008C7F8260809341
:100B1000900080919100807E8061682B60939100AD
:100B20005093970040939600809190008062E8CFA8
:100B3000809190008C7F82608093900080919100E2
:100B4000807E8061682B6093910050939700409362
:100B50009600809190008860D3CF8091A0008C7F18
:100B600082608093A0008091A100807E8061682BCC
:100B70006093A1005093A7004093A6008091A0002D
:100B800080688093A00050CF8091A0008C7F82600D
:100B90008093A0008091A100807E8061682B60938B
:100BA000A1005093A7004093A6008091A00080620E
:100BB000E8CF8091A0008C7F82608093A00080911C
:100BC000A100807E8061682B6093A1005093A700F4
:100BD0004093A6008091A0008860D3CF809120012F
:100BE0008C7F82608093200180912101807E8061D2
:100BF000682B609321015093270140932601809137
:100C000020018068809320010FCF809120018C7F8C
:100C100082608093200180912101807E8061682B19
:100C20006093210150932701409326018091200178
:100C30008062E8CF809120018C7F826080932001C8
:100C400080912101807E8061682B60932101509307
:100C5000270140932601809120018860D3CF90E046
:100C600080E008950F931F93009709F48DC06115DC
:100C7000710509F489C00091460210914702209144
:100C80004802309149020E3F1F4F2F4F3F4F09F04E
:100C90006CC04FEF5FEFBA0140934602509347029A
:100CA0006093480270934902409146025091470276
:100CB0006091480270914902DC011296ED91FC911D
:100CC00080819181A281B3818093FA049093FB0487
:100CD000A093FC04B093FD0484819581A681B78123
:100CE0008093F6049093F704A093F804B093F9046A
:100CF00080859185A285B3858093F2049093F30457
:100D0000A093F404B093F50484859585A685B785F2
:100D10008093EE049093EF04A093F004B093F10459
:100D20001092EA041092EB041092EC041092ED047D
:100D30000E94271D8CE49DE19093D1038093D00302
:100D40009093D3038093D2039093D5038093D403DD
:100D50000E94161C009731F421E030E03093FF042C
:100D60002093FE041F910F91089500914602109167
:100D700047022091480230914902DB010D931D93F7
:100D80002D933C93139790CF8FEF9FEFEBCF8F92E4
:100D90009F92AF92BF92CF92DF92EF92FF921F93FA
:100DA000CF93DF934B015C011091010582E090E04D
:100DB0009093FF048093FE0481149104A104B10474
:100DC00041F480910105811104C080910005C1E0CA
:100DD0008111C0E0C12CD12C7601809101058111D7
:100DE00006C080910005811102C0CC23D9F083E0B8
:100DF00090E09093FF048093FE04CC2381F1CCE932
:100E0000DFEF111102C00E94B120CE01DF91CF911E
:100E10001F91FF90EF90DF90CF90BF90AF909F9089
:100E20008F9008956AE070E080E090E00E943B457A
:100E300080E1C80E87E2D81EE11CF11C8FEF8816F6
:100E40009806A806B80631F0C1E08C149D04AE04E3
:100E5000BF0408F0C0E080E00E944A1CBECFD0E092
:100E6000C0E0CFCFCF92DF92EF92FF920F931F930C
:100E7000CF93DF938F3F910511F008F051C020917F
:100E8000FE043091FF042330310539F02091FE0437
:100E90003091FF042130310531F424E030E030930B
:100EA000FF042093FE046A017B01EC01833091056D
:100EB000A8F011E0AE01C701B6010E94151CAB01FC
:100EC000BC01CE011123F9F0DF91CF911F910F9159
:100ED000FF90EF90DF90CF900C94DA228C01000FFE
:100EE000111F00531C4FD8018D919C91892B09F340
:100EF0000E94E4220297E9F6D801ED91FC91CE011F
:100F00001995182FD7CF0E94FC2290E080E0DF9146
:100F1000CF911F910F91FF90EF90DF90CF900895A8
:100F20008FEF9FEFF4CF80E00C944A1CCF93DF93B8
:100F300086E090E09093FF048093FE040E94A31C3F
:100F4000EC01E0EDF3E086E0DF011D928A95E9F720
:100F50000E9449201092FF041092FE04CE01DF91FE
:100F6000CF9108958091000508958091E904089536
:100F7000609346027093470280934802909349021F
:100F800090E080E00895FC0191E08091B30481112C
:100F900090E0928308951F93CF93DF93EC0180E05C
:100FA00090E5A3ECB8E48C879D87AE87BF871F824E
:100FB0001E82188211E0188B1D8281E090E0A0E073
:100FC000B0E089839A83AB83BC8350E040E060E06B
:100FD00070E0CB015DD99F838E8340EA56E861E0E3
:100FE00070E0488759876A877B8776D91D83DF91B0
:100FF000CF911F910895CF92EF920F931F93CF93AC
:10100000DF9300D0CDB7DEB7FB0125E029839A83BB
:101010008B83C12CE12C03E010E020E030E0AE0136
:101020004F5F5F4F60E470E086819781D4D90F9065
:101030000F900F90DF91CF911F910F91EF90CF9074
:101040000895FC018081811110C081E0808381813D
:101050009281A381B4810197A105B10531F4858105
:10106000882319F086819781F5C908952F923F92C0
:101070004F925F926F927F928F929F92AF92BF92A8
:10108000CF92DF92EF92FF920F931F93CF93DF9354
:10109000CDB7DEB7EB970FB6F894DEBF0FBECDBF6E
:1010A0008091B3048F5F8A3008F00EC78093B30439
:1010B00080917A0C90917B0CA0917C0CB0917D0C6E
:1010C0008093D80D9093D90DA093DA0DB093DB0DDA
:1010D00080917E0C90917F0CA091800CB091810C3E
:1010E0008093DC0D9093DD0DA093DE0DB093DF0DAA
:1010F0008091820C9091830CA091840CB091850C0E
:101100008093E00D9093E10DA093E20DB093E30D79
:101110008091860C9091870CA091880CB091890CDD
:101120008093E40D9093E50DA093E60DB093E70D49
:10113000C0901402D0901502E0901602F0901702B1
:10114000A70196016091550C7091560C8091570C37
:101150009091580C0E941F3B882341F0C092550C7F
:10116000D092560CE092570CF092580C8091540C8F
:1011700081111092540CBE01615F7F4F8091590C18
:1011800032DB6F85788989899A890E94BE3B2091DC
:1011900028023091290240912A0250912B020E948C
:1011A000133D6E8B7F8B888F998F6093400E709369
:1011B000410E8093420E9093430E0091BB04109118
:1011C000BC04D801CD90DD90ED90FC9080908A0C0D
:1011D00090908B0CA0908C0CB0908D0CA50194017C
:1011E000C701B6010E941F3B18160CF470C620916F
:1011F000920C3091930C4091940C5091950CC70136
:10120000B6010E941F3B18160CF461C61092480EDE
:101210001092490E10924A0E10924B0EF801208146
:101220003181428153816091340270913502809105
:101230003602909137020E94133D2091380230917E
:10124000390240913A0250913B020E94BB3A0E94FF
:10125000763D20912C0230912D0240912E0250912A
:101260002F020E94133D20913002309131024091B3
:101270003202509133020E94BB3A6E8F7F8F88A357
:1012800099A36093440E7093450E8093460E9093FD
:10129000470E81E08B878F831C8618861D861986F2
:1012A0001E861A862AEA3CE03FA32EA35E013BE09D
:1012B000A30EB11C4AEE842E4CE0942E0AEA1CE0E8
:1012C000C12CD12C7601BD8AAC8AD5017D905D01FF
:1012D00020E030E0A901F801648175818681978161
:1012E0000E94133DD8012D913D914D915C910E943A
:1012F000BB3A1B012C0120E030E0A901F801608518
:101300007185828593850E94133D9B01AC01C201CA
:10131000B1010E94BB3A1B012C0120E030E0A90181
:10132000D8011C966D917D918D919C911F970E9483
:10133000133D9B01AC01C201B1010E94BB3A1B01EC
:101340002C01672D770C770B880B990B0E94BE3B05
:101350009B01AC01C201B1010E94133D9B01AC0194
:10136000C701B6010E94BB3A6B017C01005F1F4FB1
:101370008016910609F0A9CF20912A0D30912B0DEE
:1013800040912C0D50912D0D0E94BB3A2B013C0138
:1013900040924C0E50924D0E60924E0E70924F0E37
:1013A0001092500E1092510E1092520E1092530E37
:1013B000EAE9FCE0FFA7EEA728EF3DE03BA72AA75C
:1013C000CE0107969B8F8A8F9F8B8E8B3BA32AA380
:1013D0008F01C12CD12C760120E030E0A901F80169
:1013E00060A171A182A193A10E94133DD8015096E2
:1013F0002D913D914D915C9153970E94BB3A4B01C9
:101400005C0120E030E0A901F80160A971A982A97E
:1014100093A90E94133D9B01AC01C501B4010E9438
:10142000BB3A4B015C01F801E05CFF4F20E030E08B
:10143000A90160817181828193810E94133D9B018A
:10144000AC01C501B4010E94BB3AA30192010E9404
:10145000233BAAA1BBA16D937D938D939D93BBA3C9
:10146000AAA3EE89FF896191FF8BEE8B062E000CFB
:10147000770B880B990B0E94BE3BF80120813181CC
:10148000428153810C5F1F4F0E94133D9B01AC01B1
:10149000C701B6010E94BB3A6B017C012C893D89D2
:1014A0008E899F892817390709F096CFC092500E70
:1014B000D092510EE092520EF092530E20E030E0A6
:1014C000A9016E8D7F8D88A199A10E94133DA7016E
:1014D00096010E94BB3A9B01AC016091480E70914D
:1014E000490E80914A0E90914B0E0E94BA3A4B01E0
:1014F0005C018092480E9092490EA0924A0EB092E2
:101500004B0E8091F80D9091F90DA091FA0DB091CC
:10151000FB0D8E8F9F8FA8A3B9A38091FC0D909196
:10152000FD0DA091FE0DB091FF0D8AA39BA3ACA36E
:10153000BDA38091000E9091010EA091020EB0917A
:10154000030E88AB99ABAAABBBAB8091040E909114
:10155000050EA091060EB091070E8CAB9DABAEAB05
:10156000BFAB08E51DE03AE9232E3CE0332EAA8DFF
:10157000BB8DFD90BB8FAA8FF1014190519061907E
:1015800071901F01AAA5BBA52D913D914D915D9133
:10159000BBA7AAA76F01B4E0CB1AD108C501B4015B
:1015A0000E94133DA30192010E94BB3AF6016083A1
:1015B0007183828393836F2DFF0C770B880B990BBC
:1015C0000E94BE3B6B017C01AC019B016E8D7F8D47
:1015D00088A199A10E94133DD8016D937D938D93AD
:1015E0009C9313972AA13BA14CA15DA1C701B60111
:1015F0000E94133DF801648375838683978328A92D
:1016000039A94AA95BA9C701B6010E94133DD801B7
:1016100018966D937D938D939C931B972CA93DA950
:101620004EA95FA9C701B6010E94133DF801648766
:10163000758786879787005F1F4F2E893F898A8D20
:101640009B8D2817390709F092CF60919A0C709101
:101650009B0C80919C0C90919D0C0E94121BC09041
:101660009A0CD0909B0CE0909C0CF0909D0C8823E1
:1016700009F489C4C092480ED092490EE0924A0EF5
:10168000F0924B0E80919E0C90919F0CA091A00C1B
:10169000B091A10C8E8B9F8BA88FB98F4C015D01EF
:1016A000B7FAB094B7F8B0948091440E9091450E7B
:1016B000A091460EB091470E8E8F9F8FA8A3B9A31D
:1016C0008091A20C9091A30CA091A40CB091A50CB8
:1016D0008A8F9B8FAC8FBD8F8091A60C9091A70CA9
:1016E000A091A80CB091A90C8AA39BA3ACA3BDA305
:1016F000A7019601C501B4010E94133D2B013C01D5
:101700002A8D3B8D4C8D5D8D6E8D7F8D88A199A12D
:101710000E94133D9B01AC01C301B2010E94BB3A80
:101720002B013C012091480E3091490E40914A0E08
:1017300050914B0E6AA17BA18CA19DA10E94133DEB
:101740009B01AC01C301B2010E94BA3A2AE037ED15
:1017500043E25CE30E94133DA70196010E94BB3A5D
:101760006093E80D7093E90D8093EA0D9093EB0D73
:101770008E899F89A88DB98D8093EC0D9093ED0D86
:10178000A093EE0DB093EF0D8A8D9B8DAC8DBD8D2A
:101790008093F00D9093F10DA093F20DB093F30DA3
:1017A0008AA19BA1ACA1BDA18093F40D9093F50DEE
:1017B000A093F60DB093F70D08E51DE01F8A1E8A71
:1017C000D80150968D919D910D90BC91A02D8AA32A
:1017D0009BA3ACA3BDA3D8018D919D910D90BC910D
:1017E000A02D8AA79BA7ACA7BDA7D80190968D91E5
:1017F0009D910D90BC91A02D88AB99ABAAABBBABD2
:10180000D801D0968D919D910D90BC91A02D8CAB5F
:101810009DABAEABBFAB2AEA222E2CE0322E1B8E44
:101820001A8E8A8D9B8D805C9F4FD801A80FB91F9F
:10183000B9AFA8AFEE89FF89E20DF31DFBAFEAAFA8
:10184000D10114962D913D914D915C9117976AA10C
:101850007BA18CA19DA10E94133D2B013C01F101B4
:1018600020813181428153816AA57BA58CA59DA5EC
:101870000E94133D9B01AC01C301B2010E94BB3A1F
:101880002B013C01D10118962D913D914D915C9118
:101890001B9768A979A98AA99BA90E94133D9B015E
:1018A000AC01C301B2010E94BB3A2B013C01F10122
:1018B00024853585468557856CA97DA98EA99FA964
:1018C0000E94133D9B01AC01C301B2010E94BB3ACF
:1018D0009B01AC01AAADBBAD6D917D918D919C91A9
:1018E0000E94BA3AE8ADF9AD608371838283938335
:1018F000F0E12F0E311C2A8D3B8D205F3F4F3B8F37
:101900002A8F2034310509F08CCF0C5F1F4F8E8950
:101910009F8904969F8B8E8B409709F051CFE8E901
:10192000FDE0FF8BEE8B00E21EE028ED3DE08AEA51
:101930009CE04191519161917191DC014D935D93D6
:101940006D937D93CD01D8011D928D012E173F0718
:1019500081F72AE037ED43E25CE3C501B4010E9460
:10196000133D20E030E040E85FE30E94BB3A609323
:10197000580D7093590D80935A0D90935B0D6091A3
:10198000210E062E000C770B880B990B0E94BE3B94
:1019900060935C0D70935D0D80935E0D90935F0D71
:1019A0006091220E062E000C770B880B990B0E947B
:1019B000BE3B6093600D7093610D8093620D9093B8
:1019C000630D6091230E062E000C770B880B990B8C
:1019D0000E94BE3B6093640D7093650D8093660D0D
:1019E0009093670DC701B60190582AE037ED43E2A6
:1019F0005CE30E94133D4B015C016091240E062EB6
:101A0000000C770B880B990B0E94BE3B9B01AC012D
:101A1000C501B4010E94BB3A6093680D7093690DD3
:101A200080936A0D90936B0D812C912C90E8A92ED8
:101A30009FE3B92E80926C0D90926D0DA0926E0D69
:101A4000B0926F0D6091260E062E000C770B880B5E
:101A5000990B0E94BE3B6093700D7093710D809343
:101A6000720D9093730D6091270E062E000C770B6C
:101A7000880B990B0E94BE3B6093740D7093750D9B
:101A80008093760D9093770D6091280E062E000CB2
:101A9000770B880B990B0E94BE3B2B013C012AE07F
:101AA00037ED43E25CE36E8D7F8D88A199A10E94A2
:101AB000133D9B01AC01C301B2010E94BB3A60938C
:101AC000780D7093790D80937A0D90937B0D6091D2
:101AD000290E062E000C770B880B990B0E94BE3B3B
:101AE00060937C0D70937D0D80937E0D90937F0DA0
:101AF0008092800D9092810DA092820DB092830D04
:101B000060912B0E062E000C770B880B990B0E9410
:101B1000BE3B6093840D7093850D8093860D9093EA
:101B2000870DC701B6010E94121BC0909A0CD0907D
:101B30009B0CE0909C0CF0909D0C882309F44BC208
:101B4000C092480ED092490EE0924A0EF0924B0E8F
:101B50006091480E7091490E80914A0E90914B0E03
:101B600090582AE037ED43E25CE30E94133D6B019D
:101B70007C0160912C0E062E000C770B880B990BC4
:101B80000E94BE3B9B01AC01C701B6010E94BB3A5B
:101B90006093880D7093890D80938A0D90938B0DBF
:101BA00060912D0E062E000C770B880B990B0E946E
:101BB000BE3B60938C0D70938D0D80938E0D909332
:101BC0008F0D60912E0E062E000C770B880B990B53
:101BD0000E94BE3B6093900D7093910D8093920D87
:101BE0009093930D80E090E0A0E8BFE38093940D84
:101BF0009093950DA093960DB093970D10E000E093
:101C0000AEA1BFA1CD90DD90ED90FC9013971496FE
:101C10008D919D910D90BC91A02D8A8F9B8FAC8F43
:101C2000BD8FAEA1BFA118968D919D910D90BC91D5
:101C3000A02D8E8F9F8FA8A3B9A3AEA1BFA11C9684
:101C40008D919D910D90BC91A02D8AA39BA3ACA3D7
:101C5000BDA388E5282E8DE0382EF10141905190EA
:101C6000619071901F019F01200F311F3BA72AA790
:101C700024853585468557856A8D7B8D8C8D9D8D18
:101C80000E94133D4B015C01A3019201C701B60103
:101C90000E94133D20E030E0A9010E94BB3A9B0165
:101CA000AC01C501B4010E94BB3A4B015C01D101FA
:101CB0005C962D913D914D915C915F976E8D7F8DDE
:101CC00088A199A10E94133D9B01AC01C501B401FB
:101CD0000E94BB3A4B015C01F10124A535A546A544
:101CE00057A56AA17BA18CA19DA10E94133D9B01D8
:101CF000AC01C501B4010E94BB3AAAA5BBA5DC9604
:101D00006D937D938D939C93DF97E8E6FDE0E2155C
:101D1000F30509F0A2CF2EA13FA1205F3F4F3FA3C3
:101D20002EA3005F1F4F0034110509F069CFAE8963
:101D3000BF8950968D909D90AD90BC905397FD01BA
:101D400081919191A191B191FF8BEE8B8EA39FA375
:101D5000A8A7B9A7848D958DA68DB78D8A8F9B8FE7
:101D6000AC8FBD8F84A595A5A6A5B7A58E8F9F8F97
:101D7000A8A3B9A3EEA4FFA4B0E1EB0EF11C08E503
:101D80001DE068010C5F1F4FF601208931894289EF
:101D90005389C501B4010E94133D2B013C01D601BA
:101DA0002D913D914D915C916EA17FA188A599A542
:101DB0000E94133D9B01AC01C301B2010E94BB3ADA
:101DC0002B013C01F801248D358D468D578D6A8D90
:101DD0007B8D8C8D9D8D0E94133D9B01AC01C301B9
:101DE000B2010E94BB3A2B013C01D8019C962D9177
:101DF0003D914D915C919F976E8D7F8D88A199A1AA
:101E00000E94133D9B01AC01C301B2010E94BB3A89
:101E1000F701E05CFF4F20813181428153810E94B4
:101E2000BB3AF7016083718382839383F0E1EF0E05
:101E3000F11C2016310609F0A4CFEE89FF89E45B7E
:101E4000FF4F80819181A281B381EEA5FFA581938F
:101E50009193A193B193FFA7EEA728EA3DE08E8965
:101E60009F892817390709F062CF20E030E040EC65
:101E700051E46091440E7091450E8091460E909110
:101E8000470E0E94233B20E030E04EE753E40E94DF
:101E9000133D6B017C0120E030E0A9010E940F3D61
:101EA00018160CF0C0C0C092440ED092450EE092BD
:101EB000460EF092470E1092480E1092490E109264
:101EC0004A0E10924B0ECAC01092B304F1C8809211
:101ED000440E9092450EA092460EB092470E40904E
:101EE000920C5090930C6090940C7090950CA30100
:101EF0009201C501B4010E941F3B87FF39C0A301B5
:101F00009201C701B6010E940F3D1816CCF5409210
:101F1000440E5092450E6092460E7092470EE6E9CE
:101F2000FCE020813181428153816E897F89888DD7
:101F3000998D0E94BA3A4B015C012091440E309178
:101F4000450E4091460E5091470EC701B6010E94C2
:101F5000BA3A9B01AC01C501B4010E94233B6093D6
:101F6000480E7093490E80934A0E90934B0E56C9BB
:101F7000A5019401C701B6010E941F3B18163CF64B
:101F8000EEE8FCE0CECF20E030E0A901C701B601C9
:101F90000E941F3B87FF0DC080E090E0A0E8BFEBF0
:101FA0008093480E9093490EA0934A0EB0934B0E27
:101FB00069CB20E030E0A901C701B6010E940F3DC6
:101FC00018162CF480E090E0A0E8BFE3E9CF80E0B1
:101FD00090E0DC01E5CF20E030E0A901C701B601C7
:101FE0000E941F3B87FF0DC080E090E0A0E8BFEBA0
:101FF0008093480E9093490EA0934A0EB0934B0ED7
:10200000A7CD20E030E0A901C701B6010E940F3D35
:1020100018162CF480E090E0A0E8BFE3E9CF80E060
:1020200090E0DC01E5CF20E030E0A901C701B60176
:102030000E941F3B1092440E1092450E1092460EC5
:102040001092470E87FF37CFE894F7F8C092480EFA
:10205000D092490EE0924A0EF0924B0E68E070E08A
:1020600080E090E00E944C048C019093790C809366
:10207000780C20E030E04FE753E46091440E70911B
:10208000450E8091460E9091470E0E941F3B1816F8
:1020900064F480E090E0AFE7B3E48093440E909363
:1020A000450EA093460EB093470E4091440E5091BA
:1020B000450E6091460E7091470EC8010E941504AE
:1020C00069E070E080E090E00E944C048C01909305
:1020D000710C8093700C20E030E04FE753E4609186
:1020E000480E7091490E80914A0E90914B0E0E94BD
:1020F0001F3B181664F480E090E0AFE7B3E48093F0
:10210000480E9093490EA0934A0EB0934B0E409107
:10211000480E5091490E60914A0E70914B0EC801C5
:102120000E941504C0900402D0900502E0900602BF
:10213000F0900702A70196016091260C7091270C80
:102140008091280C9091290C0E941F3B882341F01C
:10215000C092260CD092270CE092280CF092290C09
:1021600088E08B8BC12CEE24E39401E010E020E0AA
:1021700030E0AE014D5E5F4F68E270E08091300C60
:102180009091310C0E94EB018111D2C1CC24C394F7
:10219000E12C06E010E020E030E0AE014F5F5F4F41
:1021A00068E270E08091300C9091310C0E948101C6
:1021B00086E0FE013196A8E5BEE001900D928A9579
:1021C000E1F78AE18B8BC12CEE24E39401E010E06F
:1021D00020E030E0AE014D5E5F4F68E270E080913C
:1021E000300C9091310C0E94EB018111AEC1CC24D6
:1021F000C394E12C06E010E020E030E0AE014F5F38
:102200005F4F68E270E08091300C9091310C0E9439
:10221000810186E0FE013196AEE5BEE001900D92AF
:102220008A95E1F76091580E7091590E072E000CB7
:10223000880B990B0E94BE3B20E030E048EC52E452
:102240000E94233B6093080E7093090E80930A0E40
:1022500090930B0E60915E0E70915F0E072E000C36
:10226000880B990B0E94BE3B20E030E040E85DE324
:102270000E94133D6093140E7093150E8093160EFA
:102280009093170E60915A0E70915B0E072E000C02
:10229000880B990B0E94BE3B20E030E048EC52E4F2
:1022A0000E94233B60930C0E70930D0E80930E0ED4
:1022B00090930F0E6091600E7091610E072E000CCE
:1022C000880B990B0E94BE3B20E030E040E85DE3C4
:1022D0000E94133D6093180E7093190E80931A0E8E
:1022E00090931B0E60915C0E70915D0E072E000C9A
:1022F000880B990B0E94BE3B20E030E048EC52E492
:102300000E94233B6093100E7093110E8093120E67
:102310009093130E6091620E7091630E072E000C65
:10232000880B990B0E94BE3B20E030E040E85DE363
:102330000E94133D60931C0E70931D0E80931E0E21
:1023400090931F0E60913C0270913D0280913E027D
:1023500090913F020E94F93B6093480E7093490EA2
:1023600080934A0E90934B0E0E94121B882309F40F
:10237000F9C01092480E1092490E10924A0E109217
:102380004B0EC090480ED090490EE0904A0EF0904F
:102390004B0E20E030E0A901C701B6010E941F3BAF
:1023A00087FF03C1C701B60190580E94903B882760
:1023B0009927861B970B90937C0E80937B0E67E486
:1023C0007DE00E94FB078091E80D9091E90DA091BE
:1023D000EA0DB091EB0D80937A0C90937B0CA09357
:1023E0007C0CB0937D0C8091EC0D9091ED0DA09143
:1023F000EE0DB091EF0D80937E0C90937F0CA09327
:10240000800CB093810C8091F00D9091F10DA09112
:10241000F20DB091F30D8093820C9093830CA093F6
:10242000840CB093850C8091F40D9091F50DA091E2
:10243000F60DB091F70D8093860C9093870CA093C6
:10244000880CB093890C80918A0C90918B0CA09190
:102450008C0CB0918D0C8E8B9F8BA88FB98F409078
:10246000880E5090890E60908A0E70908B0EA3019A
:102470009201BC01CD010E941F3B0091BB04109151
:10248000BC04811198C0F80180819181A281B3813F
:1024900080938A0C90938B0CA0938C0CB0938D0C32
:1024A000EEE8FCE08091400E9091410EA091420E2A
:1024B000B091430E80839183A283B383C090920432
:1024C000D0909304E0909404F0909504BFEFCB1A61
:1024D000DB0AEB0AFB0AC0929204D0929304E092CA
:1024E0009404F0929504C701B6010E94BC3B9B0185
:1024F000AC0160919604709197048091980490913A
:1025000099040E94133DF801608371838283938351
:102510008091A604882309F481C0813009F482C027
:1025200081E09091A804992309F479C080E077C0F4
:102530001092590E1092580E10925B0E10925A0E75
:1025400010925D0E10925C0E3CCE10925F0E1092B7
:102550005E0E1092610E1092600E1092630E109239
:10256000620E60CE6091480E7091490E80914A0EC5
:1025700090914B0E0E94CD1A8111FBCE6091480EB6
:102580007091490E80914A0E90914B0E20E030E000
:1025900040E857E40E94133C6093480E7093490E44
:1025A00080934A0E90934B0EECCEC701B6010E9469
:1025B000903BCB0100CF8090920C9090930CA09018
:1025C000940CB090950CD801CD90DD90ED90FC90DE
:1025D000A5019401C301B2010E941F3B81110BC0F0
:1025E000C092920CD092930CE092940CF092950CC5
:1025F000E6E9FCE057CFA50194016E897F89888DBB
:10260000998D0E941F3B87FFEBCFC0928A0CD0921E
:102610008B0CE0928C0CF0928D0C42CF81E0809379
:10262000A70402C01092A7048091A70424E0829F0F
:10263000F0011124E755FB4FC082D182E282F38280
:102640008093A8048FEF8093A70480919A049091BF
:102650009B04A0919C04B0919D040196A11DB11D05
:1026600080939A0490939B04A0939C04B0939D0440
:10267000EB960FB6F894DEBF0FBECDBFDF91CF91C2
:102680001F910F91FF90EF90DF90CF90BF90AF9090
:102690009F908F907F906F905F904F903F902F9082
:1026A0000895CF92DF92EF92FF920F931F93CF93F3
:1026B000DF9300D0CDB7DEB7C0900802D0900902FA
:1026C000E0900A02F0900B02A701960160914A0C7B
:1026D00070914B0C80914C0C90914D0C0E941F3BC3
:1026E000882341F0C0924A0CD0924B0CE0924C0CE3
:1026F000F0924D0C84E08B83C12CEE24E39401E036
:1027000010E020E030E0AE014D5F5F4F60E470E02C
:102710008091400C9091410C0E94EB018B8320E052
:1027200030E0811114C0CC24C394E12C02E010E00D
:1027300020E030E0AE014F5F5F4F60E470E08091D9
:10274000400C9091410C0E9481012A813981A09115
:102750004402B09145020E94504B0E94BE3B20E0D3
:1027600030E040E056E30E94133D2091400230915A
:10277000410240914202509143020E94133D6093F6
:102780003C0E70933D0E80933E0E90933F0E8091D1
:102790009E0490919F04A091A004B091A104019681
:1027A000A11DB11D80939E0490939F04A093A0044B
:1027B000B093A1040F900F900F90DF91CF911F91D4
:1027C0000F91FF90EF90DF90CF9008954F925F921E
:1027D0006F927F928F929F92AF92BF92CF92DF9231
:1027E000EF92FF920F931F93CF93DF9384E090E0DB
:1027F0009DD68AEF93E028EB34E0309301042093D8
:1028000000042BEB34E030933B0420933A0426E998
:1028100034E030930F0420930E049093650480936A
:1028200064049093FF038093FE0381E090E0909313
:10283000B9048093B80483E792E0909305048093F1
:1028400004042DEB34E03093BC042093BB0480E0FF
:1028500090E0A0E8BFEB8093B4049093B504A093FC
:10286000B604B093B7048AE097EDA3E2BCE380938B
:10287000960490939704A0939804B093990487EBDF
:1028800091ECAFEEB1EC8093800490938104A0931F
:102890008204B093830482E99AEAA0EBB8E98093BA
:1028A000840490938504A0938604B09387048CE5F8
:1028B00092E0A6E2BAE78093880490938904A093FB
:1028C0008A04B0938B0485E792E9A3E8B7E8809384
:1028D0008C0490938D04A0938E04B0938F048EEE9D
:1028E00093E09093FD038093FC0386ED93E0909337
:1028F000EF038093EE0385ED92E09093D7038093EE
:10290000D6039093D9038093D8039093DB038093ED
:10291000DA039093DD038093DC039093DF038093CD
:10292000DE039093E1038093E0039093E3038093AD
:10293000E2039093E5038093E4039093E70380938D
:10294000E6039093E9038093E8039093EB0380936D
:10295000EA039093ED038093EC0380E994E0909375
:10296000F3038093F20380E894E09093F103809363
:10297000F0033093F5032093F4038FEF8093A604C4
:102980008093A7041092A8048091880E9091890EDC
:10299000A0918A0EB0918B0E80938A0C90938B0C31
:1029A000A0938C0CB0938D0C8093920C9093930C0D
:1029B000A093940CB093950C8091180290911902F9
:1029C000A0911A02B0911B0280937A0C90937B0C19
:1029D000A0937C0CB0937D0C80E090E0A0E0B0E48C
:1029E00080939A0C90939B0CA0939C0CB0939D0C9D
:1029F00080911C0290911D02A0911E02B0911F02B5
:102A000080937E0C90937F0CA093800CB093810CEC
:102A100080E090E0A0E5B1E480939E0C90939F0C41
:102A2000A093A00CB093A10C809120029091210260
:102A3000A0912202B09123028093820C9093830C88
:102A4000A093840CB093850C80E090E0A8ECB1E4F6
:102A50008093A20C9093A30CA093A40CB093A50C0C
:102A60008091240290912502A0912602B091270224
:102A70008093860C9093870CA093880CB093890C5C
:102A800080E090E0A0E8BFE38093A60C9093A70CB1
:102A9000A093A80CB093A90C35ECE32E32E0F32EF2
:102AA000CAEADCE005E812E0FCE0CA3EDF0709F014
:102AB000A5C380E190E09093780E8093770E8AE032
:102AC00097EDA3EABCE380932A0D90932B0DA0937E
:102AD0002C0DB0932D0D80E090E5A3ECB8E480932D
:102AE000660C9093670CA093680CB093690C1092DD
:102AF000610C1092600C10925A0C10925F0C812C99
:102B0000912C5401839480925B0C90925C0CA09267
:102B10005D0CB0925E0C1092350E1092340E109235
:102B2000300E1092310E1092320E1092330E50E091
:102B300040E060E070E0CB010E9448019093610C9E
:102B40008093600C20EA422E26E8522E662463947D
:102B5000712C4092620C5092630C6092640C7092E3
:102B6000650C4092640E5092650E6092660E7092F3
:102B7000670E40EA56E861E070E00E946C01C1E037
:102B8000C0935F0C86E39DE00E94CB071092590C26
:102B900010924E0C8091140290911502A091160291
:102BA000B09117028093550C9093560CA093570C3C
:102BB000B093580C1092530C80924F0C9092500C82
:102BC000A092510CB092520C49E55CE063E082E0C7
:102BD0000E940703C093530C1092540C8091590C1F
:102BE0000E9405041092720C1092770C8092730C64
:102BF0009092740CA092750CB092760CE12CF12C92
:102C00008701A801970168E070E080E090E00E94F1
:102C100090049093790C8093780CC093770C109269
:102C20006A0C10926F0C80926B0C90926C0CA092BC
:102C30006D0CB0926E0CA801970169E070E080E025
:102C400090E00E9490049093710C8093700CC0935C
:102C50006F0C80E090E5A3ECB8E48093360C909381
:102C6000370CA093380CB093390C10922C0C1092A6
:102C70002D0C10922E0C10922F0C1092310C1092E1
:102C8000300C10922B0C1092200C80910402909129
:102C90000502A0910602B09107028093260C909342
:102CA000270CA093280CB093290C1092250C80922D
:102CB000210C9092220CA092230CB092240C109222
:102CC0003B0E10923A0E1092360E1092370E109262
:102CD000380E1092390E50E040E060E070E0CB0119
:102CE0000E9448019093310C8093300C4092320C3A
:102CF0005092330C6092340C7092350C4092680EF6
:102D00005092690E60926A0E70926B0E40EA56E81D
:102D100061E070E00E946C0168E572E080E090E0A4
:102D20000E94490210927F0E10927E0EC12CEE245A
:102D3000E39401E010E020E030E04EE75EE068E27E
:102D400070E08091300C9091310C0E94EB018093E7
:102D50007F0E811172C2CC24C394E12C01E010E0FB
:102D600020E030E04FE75EE068E270E08091300CF8
:102D70009091310C0E94810180917F0E80937D0E95
:102D800080917D0E91E0803A09F090E090932A0CBA
:102D9000803A09F024C110927D0E1092740E8DE3DA
:102DA0008093730E8091730E9091740E9093760EB3
:102DB0008093750EC12CE12C02E010E020E030E0A1
:102DC00045E75EE068E270E08091300C9091310C54
:102DD0000E94EB0169E170E080E090E00E9449020E
:102DE00080E280937D0E8093740E8FE38093730E48
:102DF0008091730E9091740E9093760E8093750E61
:102E000002E010E020E030E045E75EE068E270E0DC
:102E10008091300C9091310C0E94EB0110927F0E4A
:102E200010927E0EEE24E39401E010E020E030E00A
:102E30004EE75EE068E270E08091300C9091310CDA
:102E40000E94EB0180937F0E811106C2CC24C394B3
:102E5000E12C01E010E020E030E04FE75EE068E2C6
:102E600070E08091300C9091310C0E948101809132
:102E70007F0E80937D0E81E090917D0E903A09F057
:102E800080E080932A0C80912A0C882309F4D8C111
:102E900062E370E080E090E00E94490210927D0EB3
:102EA0001092740E8EE38093730E8091730E909146
:102EB000740E9093760E8093750EC12CE12C02E077
:102EC00010E020E030E045E75EE068E270E08091ED
:102ED000300C9091310C0E94EB0110927D0E1092FB
:102EE000740E8FE38093730E8091730E9091740E25
:102EF0009093760E8093750E02E010E020E030E0B3
:102F000045E75EE068E270E08091300C9091310C12
:102F10000E94EB0110927D0E1092740E87E0809358
:102F2000730E8091730E9091740E9093760E809331
:102F3000750E02E010E020E030E045E75EE068E278
:102F400070E08091300C9091310C0E94EB016AE0AE
:102F500070E080E090E00E94490280E880937D0E5E
:102F60008093740E8BE38093730E8091730E909117
:102F7000740E9093760E8093750E02E010E020E0C0
:102F800030E045E75EE068E270E08091300C9091BF
:102F9000310C0E94EB018CE080937D0E8093740EC7
:102FA0008DE38093730E8091730E9091740E9093C5
:102FB000760E8093750E02E010E020E030E045E7E9
:102FC0005EE068E270E08091300C9091310C0E94DC
:102FD000EB0169E170E080E090E00E944902C1E00D
:102FE000C093250C87E49DE00E94CB0780E090E52C
:102FF000A3ECB8E48093460C9093470CA093480C44
:10300000B093490C1092410C1092400C10923A0C63
:103010008091080290910902A0910A02B0910B02DE
:1030200080934A0C90934B0CA0934C0CB0934D0C96
:1030300010923F0C81E090E0A0E0B0E080933B0C68
:1030400090933C0CA0933D0CB0933E0C1092350E27
:103050001092340E1092300E1092310E1092320EE9
:103060001092330E50E040E060E070E0CB010E942F
:1030700048019093410C8093400C40EA56E861E08F
:1030800070E04093420C5093430C6093440C709357
:10309000450C4093640E5093650E6093660E7093DA
:1030A000670E0E946C01C0933F0C60910C027091FE
:1030B0000D0280910E0290910F020E94F93B6093E5
:1030C000540E7093550E8093560E9093570EAAD2BD
:1030D000882309F4C4C01092540E1092550E109219
:1030E000560E1092570EC090540ED090550EE09090
:1030F000560EF090570E20E030E0A901C701B6014E
:103100000E941F3B87FFCDC0C701B60190580E94A7
:10311000903B7195619571097093710E6093720E79
:103120007093770E6093780E70936F0E6093700EAD
:1031300010926C0E70936D0E60936E0EC12CE12C8C
:1031400003E010E020E030E04CE65EE060E470E098
:103150008091600C9091610C0E94EB0160911002D3
:103160007091110280911202909113020E94F93B1A
:103170006093540E7093550E8093560E9093570E95
:1031800051D2882309F492C01092540E1092550E19
:103190001092560E1092570EC090540ED090550EAD
:1031A000E090560EF090570E20E030E0A901C701E4
:1031B000B6010E941F3B87FF9BC0C701B601905814
:1031C0000E94903B88279927861B970B90937A0E35
:1031D0008093790E66E37DE0DF91CF911F910F918F
:1031E000FF90EF90DF90CF90BF90AF909F908F9027
:1031F0007F906F905F904F900C94FB07D7016D917B
:103200007D01062E000C770B880B990B0E94BE3BAC
:103210006993799389939993F8016191719181915F
:1032200091918F012AE037ED43E25CE30E94133D68
:103230006CAF7DAF8EAF9FAF37CC10927D0EA0CD1F
:103240006AE070E080E090E00E94490210927F0EF8
:1032500010927E0EC12CE6CD10927D0E0CCE6091A8
:10326000540E7091550E8091560E9091570E95D137
:10327000811131CF6091540E7091550E8091560E90
:103280009091570E20E030E040E857E40E94133C54
:103290006093540E7093550E8093560E9093570E74
:1032A00022CFC701B6010E94903B36CF6091540EE9
:1032B0007091550E8091560E9091570E6ED18111DE
:1032C00063CF6091540E7091550E8091560E90917F
:1032D000570E20E030E040E857E40E94133C609332
:1032E000540E7093550E8093560E9093570E54CFF4
:1032F000C701B6010E94903BCB0168CF80914E0C74
:10330000811114C081E080934E0C80914F0C9091FC
:10331000500CA091510CB091520C0197A105B10530
:1033200029F48091530C81110E9412048091720C37
:1033300081112EC081E08093720C8091730C90916A
:10334000740CA091750CB091760C0197A105B10594
:10335000F9F48091770C8823D9F068E070E080E080
:1033600090E00E944C049093790C8093780C40E09C
:1033700050E0BA010E94150468E070E080E090E03F
:103380000E944C049093790C8093780C0E94E10485
:1033900080916A0C81112EC081E080936A0C80912B
:1033A0006B0C90916C0CA0916D0CB0916E0C019710
:1033B000A105B105F9F480916F0C8823D9F069E07B
:1033C00070E080E090E00E944C049093710C809338
:1033D000700C40E050E0BA010E94150469E070E012
:1033E00080E090E00E944C049093710C8093700CEC
:1033F0000E94E1048091200C811119C081E080932A
:10340000200C8091210C9091220CA091230CB09162
:10341000240C0197A105B10551F48091250C882356
:1034200031F08091300C9091310C0E942A028091F1
:103430002B0C81111BC081E080932B0C80912C0CF4
:1034400090912D0CA0912E0CB0912F0C0197A105FD
:10345000B10561F482E090E0A0E0B0E080932C0C34
:1034600090932D0CA0932E0CB0932F0C87E49DE02D
:103470000E94210880913A0C811119C081E080934B
:103480003A0C80913B0C90913C0CA0913D0CB0917A
:103490003E0C0197A105B10551F480913F0C8823A2
:1034A00031F08091400C9091410C0E942A02809151
:1034B0005A0C811119C081E080935A0C80915B0CE9
:1034C00090915C0CA0915D0CB0915E0C0197A105F0
:1034D000B10551F480915F0C882331F08091600C2C
:1034E0009091610C0E942A0286E39DE00C942108D1
:1034F00060E070E080E89FE7089560E070E080E8B9
:103500009FE7089560E070E080E89FEF089560E035
:1035100070E080E89FEF089560E070E080EC9FEF3E
:10352000089560E070E080EC9FEF0895F5DF609310
:103530008C0E70938D0E80938E0E90938F0EF1DF14
:103540006093800E7093810E8093820E9093830E11
:10355000CFDF6093880E7093890E80938A0E9093CC
:103560008B0ECBDF6093840E7093850E8093860E56
:103570009093870EC7DF6093900E7093910E8093A7
:10358000920E9093930EC3DF6093940E7093950EFA
:103590008093960E9093970E0895CF92DF92EF92BC
:1035A000FF92CF936B017C01AC019B016091880E6F
:1035B0007091890E80918A0E90918B0E0E941F3B14
:1035C000C1E0882371F0A70196016091900E70917F
:1035D000910E8091920E9091930E0E941F3B81114B
:1035E000C0E08C2FCF91FF90EF90DF90CF900895A7
:1035F0000F931F938B019C010027112720783F77A1
:103600000115110520483F4749F4AB01BC016F7714
:10361000772781E0452B462B472B09F480E01F914B
:103620000F910895E5CF4F925F926F927F928F92A4
:103630009F92AF92BF92CF92DF92EF92FF920F9341
:103640001F93F8944090D9045090DA046090DB0402
:103650007090DC04C090CD04D090CE04E090CF04F4
:10366000F090D0044130510509F0A4C09B01AC0199
:10367000241935094609570929013A010091D50451
:103680001091D6042091D7043091D80448015901F3
:10369000840C951CA61CB71C80169106A206B306C6
:1036A000A0F40091D1041091D2042091D304309160
:1036B000D4040F5F1F4F2F4F3F4F0093D10410933F
:1036C000D2042093D3043093D4048092D5049092F2
:1036D000D604A092D704B092D8040091D1041091DE
:1036E000D2042091D3043091D4048092DD049092CE
:1036F000DE04A092DF04B092E0040093E104109392
:10370000E2042093E3043093E4046093D9047093BB
:10371000DA048093DB049093DC04A0E1B7E2A30118
:1037200092010E946B4B6C0D7D1D8E1D9F1D609341
:10373000CD047093CE048093CF049093D004009175
:1037400046021091470220914802309149020F3FF2
:103750001F4F2F4F3F4FF1F000914602109147024B
:1037600020914802309149020E3F1F4F2F4F3F4F8B
:1037700089F0C0904602D0904702E0904802F09055
:10378000490221E08C149D04AE04BF0408F420E03B
:103790002093E90478941F910F91FF90EF90DF90B0
:1037A000CF90BF90AF909F908F907F906F905F90E1
:1037B0004F9008954B015C0184189508A608B7083E
:1037C000A3019201261B370B480B590B6415750595
:1037D00086059705D0F082169306A406B50640F438
:1037E00020E030E0A90181149104A104B10491F416
:1037F000A0E1B7E20E946B4BA7019601261B370B95
:10380000480B590BCA01B901C5CF82169306A4060D
:10381000B50670F7A0E1B7E2A50194010E946B4BD9
:103820006C0D7D1D8E1D9F1DB5CFFDCECF93DF93FB
:1038300000D01F92CDB7DEB71C821B821A8219827C
:103840001092E5041092E6041092E7041092E80446
:10385000BE016F5F7F4FCE0103960E94B138698130
:103860007A818B819C810E940432009761F4BE01B1
:103870006F5F7F4FCE0103960E94BD3869817A81C8
:103880008B819C812FD50F900F900F900F90DF911F
:10389000CF910895FF920F931F93CF93DF93082F3B
:1038A00060E070E0CB010E943B45FF24F3940E944E
:1038B000ED30EC01892B89F010E0CE3F8FEFD80777
:1038C00069F0002361F160E070E0CB010E943B45AC
:1038D00081E090E0892B59F322C011E026D5EC015C
:1038E000892B21F0CE3F8FEFD80759F711111EC059
:1038F00011E0229609F410E00E949D30EC01892B22
:1039000021F0CE3F8FEFD807E1F6111111C011E081
:10391000CE3F8FEFD80709F410E001110BC0CE01A4
:10392000DF91CF911F910F91FF90089511E0E4CFA7
:1039300011E0F3CF60E070E0CB010E943B451F2512
:10394000812F90E0C7CFCF93DF938091E904882344
:1039500021F060E070E0CB014DD636D6D0E0C0E07B
:10396000892B71F06AE070E080E090E00E943B45B6
:1039700081E090DF29D62196C03D27E0D20781F76C
:1039800028D60E945832109201051092000510921C
:10399000FA041092FB041092FC041092FD041092A1
:1039A000F6041092F7041092F8041092F9041092A1
:1039B000F2041092F3041092F4041092F5041092A1
:1039C000EE041092EF041092F0041092F1041092A1
:1039D000EA041092EB041092EC041092ED044EEF06
:1039E0005FEF6FEF7FEF4093460250934702609383
:1039F0004802709349021092E904EDEDF4E028E0EA
:103A0000DF011D922A95E9F71092D9041092DA0489
:103A10001092DB041092DC041092D5041092D604AC
:103A20001092D7041092D8041092D1041092D204AC
:103A30001092D3041092D4041092CD041092CE04AC
:103A40001092CF041092D004DF91CF91089510927C
:103A50000D0510920E0510920F0510921005109290
:103A60000C05809115059091160590930B05809398
:103A70000A0510920905109208051092040510928B
:103A80000505109206051092070510921205109276
:103A9000110590E080E00895CF92DF92EF92FF92BF
:103AA0000F931F93CF938C01019709F055C020917C
:103AB00015053091160580910A0590910B054091EE
:103AC00015055091160550930B0540930A052817CC
:103AD000390781F01092090510920805109204052B
:103AE0001092050510920605109207051092120516
:103AF000109211058091150590911605019761F5B9
:103B00008091110590911205892B21F480914A0230
:103B1000811112C080911105909112050197E1F475
:103B20008091040590910505A0910605B0910705C7
:103B30000197A105B10581F41092040510920505C5
:103B4000109206051092070510924A0282E090E05A
:103B5000909312058093110580911505909116059B
:103B6000019709F01CC180912B0590912C058017BD
:103B7000910709F014C18091270590912805A09123
:103B80002905B0912A05009709F409C1209126055D
:103B900021110DC0409127055091280560912905FC
:103BA00070912A05452B462B472B09F4F8C020912C
:103BB0001105309112052230310509F0F0C0209135
:103BC00008052111ECC0FC01C080D180E280F380A7
:103BD00080910C05882309F4D3C080911805909139
:103BE0001905892B09F4FEC020911805309119059B
:103BF00081E02230310509F080E0209118053091F4
:103C00001905C1E02130310549F0209118053091A6
:103C10001905C1E02230310509F0C0E0882309F41C
:103C200056C02091220530912305409124055091E2
:103C30002505C701B6010E940F3D87FD14C02091E4
:103C4000220530912305409124055091250560916E
:103C50000D0570910E0580910F05909110050E9441
:103C60001F3B87FD22C02091220530912305409102
:103C7000240550912505C701B6010E940F3D181675
:103C800034F520912205309123054091240550916F
:103C9000250560910D0570910E0580910F0590919D
:103CA00010050E941F3B811112C080911A0590914E
:103CB0001B05A0911C05B0911D05892B8A2B8B2B10
:103CC00019F481E08093090581E080930805CC23F5
:103CD00009F456C020912205309123054091240516
:103CE00050912505C701B6010E941F3B87FF14C0F4
:103CF00020912205309123054091240550912505FE
:103D000060910D0570910E0580910F059091100541
:103D10000E940F3D87FF22C020912205309123058C
:103D20004091240550912505C701B6010E941F3B13
:103D3000811126C020912205309123054091240550
:103D40005091250560910D0570910E0580910F052C
:103D5000909110050E940F3D181694F480911A0559
:103D600090911B05A0911C05B0911D05892B8A2BF4
:103D70008B2B19F481E08093090581E0809308057D
:103D800081E090910805911180E080930C05C0922C
:103D90000D05D0920E05E0920F05F092100501304E
:103DA000110509F067C18091110590911205892BC9
:103DB000D9F4109217051092080580914A028823C1
:103DC00079F082E090E090931205809311051092B3
:103DD0004A02209115053091160581E0232BE9F068
:103DE00080E01BC081E009CF10924A028091170544
:103DF000882349F0109209051092120510921105BE
:103E000010921705EDCF8091150590911605892B1D
:103E1000E1F080910805109208052091110530917C
:103E200012052230310509F45EC088F421153105F0
:103E300009F448C02130310509F4F3C01092090596
:103E4000109208051092170538C081E0E6CF2330A4
:103E5000310509F4B1C02430310581F740910405E2
:103E600050910505609106057091070541155105B2
:103E70006105710561F04150510961097109409373
:103E8000040550930505609306057093070540915E
:103E90000405509105056091060570910705452BB5
:103EA000462B472BD9F4209113053091140521306E
:103EB000310509F046C010920905109212051092C2
:103EC00011050CC080914A02882341F082E090E005
:103ED000909312058093110510924A0210920205E8
:103EE00080910905CEC08823C9F380911A0590916D
:103EF0001B05A0911C05B0911D05181619061A0680
:103F00001B060CF07DC08091150590911605019758
:103F100009F076C080911A0590911B05A0911C05AF
:103F2000B0911D058093040590930505A0930605A7
:103F3000B093070583E090E09093120580931105FC
:103F4000CDCF40911E0550911F05609120057091C5
:103F50002105452B462B472BA9F01092090580918E
:103F60001E0590911F05A0912005B0912105809319
:103F7000040590930505A0930605B093070581E01D
:103F800090E0DACF882399F080914B0290914C0217
:103F9000A0914D02B0914E028093040590930505C7
:103FA000A0930605B093070584E090E0C5CF10927A
:103FB000090582E090E0C0CF80910405909105054D
:103FC000A0910605B09107050097A105B10559F02C
:103FD0000197A109B1098093040590930505A09369
:103FE0000605B09307058091040590910505A09101
:103FF0000605B0910705892B8A2B8B2B09F06ECF14
:1040000080914B0290914C02A0914D02B0914E02D2
:10401000892B8A2B8B2B09F44ECF81E080930905E5
:10402000B3CF40910405509105056091060570914C
:104030000705411551056105710561F041505109B0
:1040400061097109409304055093050560930605C5
:104050007093070540910405509105056091060590
:1040600070910705452B462B472B09F037CF81115F
:10407000C7CF9FCF80910205882309F431CF80916B
:104080000305CF911F910F91FF90EF90DF90CF909C
:10409000089510920D0510920E0510920F051092C2
:1040A000100510920C051092120510921105109235
:1040B0000B0510920A0510922C0510922B051092F8
:1040C000090510920805109204051092050510923A
:1040D0000605109207051092030510920205109232
:1040E0002705109228051092290510922A05109292
:1040F0002605109222051092230510922405109295
:10410000250588EE93E0A0E0B0E080934B02909309
:104110004C02A0934D02B0934E0210921E051092D5
:104120001F05109220051092210510921A05109279
:104130001B0510921C0510921D0510921905109276
:10414000180581E080934A02109217051092160517
:1041500010921505109214051092130590E080E05E
:1041600008958091150590911605892B19F5809178
:104170004A02882351F080911705811106C081E021
:1041800080930305809302050895209117053091CF
:104190004A0281E090E0332311F090E080E030E0CB
:1041A00082239323892B21F01092030581E0EACF2B
:1041B00010920205089582E090E0FA0191838083D5
:1041C0008FEF9FEF0895CF93DF93EA01009711F0EF
:1041D0000E9482331982188290E080E0DF91CF91B3
:1041E0000895DB01009719F48FEF8C9308952EEF5B
:1041F0002C93FC013F96EF30F10508F034C088277E
:10420000EB5FFE4D8F4F0C94484B31212F212D2118
:104210002B21292125212721232121211F211C2177
:10422000182114211A21332180E311968C930895CB
:1042300089E2FBCF82E2F9CF11961C92089583E2C6
:10424000F4CF81E2F2CF81E1F0CF87E2EECF8AE2D4
:10425000ECCF80E1EACF84E2E8CF88E2E6CF86E2E5
:10426000E4CF81E3E2CF80E2E0CF80913905909105
:104270003A05089590933A05809339050895809101
:104280003805089590913805892B80933805089555
:10429000982F90958091380589238093380508954B
:1042A00080913705089580913505909136050895E0
:1042B0006115710559F0FB0130E020E070E060E02D
:1042C0002417350719F06115710511F0CB01089518
:1042D000A081B181A817B90709F4BF012F5F3F4F33
:1042E0003696EECF80913B0581111CC060D266D21C
:1042F00090932E0580932D050E94852B0E94972B6D
:1043000090933205809331050E9405300E940C3055
:104310009093300580932F0581E080933B0590E0DA
:1043200080E0089584EF9FEF08958F929F92AF925F
:10433000BF92CF92DF92EF92FF920F931F93CF9392
:10434000DF9300D000D000D01F92CDB7DEB71A8621
:10435000198618861F821E821D821C821B821A8269
:10436000198280913B0507EF1FEF882309F49CC059
:104370008E010D5F1F4F9E012B5F3F4FAE01495FC6
:104380005F4FBE01675F7F4F90E080E00E94893100
:104390008C01009721F00596029708F0DBC0298573
:1043A0003A852115310509F402C1ED80FE804B816B
:1043B0005C81B701640F751F8F81988586179707F9
:1043C00008F4F5C0E20EF31ED7019C91903C09F071
:1043D0007FC04230510508F47BC011968C9140910A
:1043E000390550913A05452B09F49CC0913F08F0DE
:1043F00071C02CE1290F2D3008F48BC02DE2290F5C
:10440000203108F489C0903C21F48150823008F4B6
:1044100083C088E3890F8B3008F481C091EFC92EE7
:1044200090E2D92EEBEDF0E26D817E81AE014F5F1F
:104430005F4F89859A8519955C01C114D104A1F15A
:1044400089809A808114910479F18B819C818815EF
:10445000990508F487C010E000E04B815C8170E0B2
:1044600060E0C7010E947E4B01151105E9F4498106
:104470005A8169857A858D819E81680F791FC50172
:10448000F6011995E980FA800D811E812F8138850A
:1044900049855A856FEF7FEF81E090E00E942431DB
:1044A0008C01892B09F056C0C8012A960FB6F894E2
:1044B000DEBF0FBECDBFDF91CF911F910F91FF9057
:1044C000EF90DF90CF90BF90AF909F908F90089526
:1044D00080E085CF30E020E0220F331FF901E35D5B
:1044E000FA4F0190F081E02D309709F497CF892F92
:1044F00090E01995009709F491CFDC011296ED91A7
:10450000FC9113971496CD90DC90309709F08CCFE6
:104510001FC021E030E0E0CF22E030E0DDCF23E03B
:1045200030E0DACFD12CC12CE3EEF0E29F3F09F06E
:104530007BCFE0912D05F0912E05309721F4C90134
:1045400004EF1FEF0CC08FEF90E019950097A9F6CC
:1045500004EF1FEF89859A85009709F4A5CF0E9483
:104560008233A2CF0E9453328C0189859A850E94A2
:10457000823370E060E0C4010E94EC3198878F8341
:104580000E9421319E838D836F817885611571052D
:1045900059F0C8010E94E5349A87898706EF1FEF1A
:1045A000892B09F058CF59CF08EF1FEF56CF08EFEE
:1045B0001FEFD0CF20913B05222319F020E00C946F
:1045C0009C2B87EF9FEF08958091390590913A05D4
:1045D00008950E9411300E946B2FF5D0EDE2F5E0B6
:1045E00088E0DF011D928A95E9F710923B0590E083
:1045F00080E008950C94CA2D21E040E050E0BA011B
:104600000C949C2B86E090E0FA019183808390E0EB
:1046100080E0089547E050E068ED72E049CEDF9217
:10462000EF92FF920F931F93CF93DF938A01EC01D8
:10463000C60FD71FE0903F05F0904005D9800E943B
:104640003B32D816190678F082E090E0F8019183A9
:1046500080838EEF9FEFDF91CF911F910F91FF909D
:10466000EF90DF900895EF2841F482E090E0F801A8
:104670009183808384EF9FEFEECF898180933E0505
:1046800090E00196F8019183808390E080E0E3CF91
:10469000CF93DF93EA010E947B2E882321F00E94B2
:1046A00048320E947C2E82E090E0998388838BEFD1
:1046B0009FEFDF91CF910895CF93DF93EB0186E0D9
:1046C000FB0111928A95E9F78FEF8883D8DD898302
:1046D000E7DD8A83E8DD9D838C83DF91CF910895A8
:1046E000CF93DF93EA010E947E2E811109C082E000
:1046F00090E09983888385EF9FEFDF91CF910895B4
:1047000090E080E0B7DD81E090E09983888390E0DD
:1047100080E0F3CF0F931F93CF93DF93EA018C01D7
:10472000060F171F0E947E2E81110BC082E090E0C1
:104730009983888385EF9FEFDF91CF911F910F9130
:104740000895F8018181823038F082E090E0998309
:1047500088838EEF9FEFF0CF81E090E08BDD88E0E3
:1047600090E09983888390E080E0E6CFCF93DF9359
:104770000097D1F4EB01FB01329686E0DF011D9238
:104780008A95E9F78FEF888385E089831A820E94F2
:104790003B328B830E943A329D838C8381E08E83EF
:1047A0008F83DF91CF910895DF91CF911ACD8AE069
:1047B00093E290933D0580933C05089580913C05DC
:1047C00090913D05089510923D0510923C05089585
:1047D00080913F05909140050895411105C06115F4
:1047E00071058105910561F060933F057093400567
:1047F00080934105909342054093430581E00895DD
:1048000080E00895FF920F931F93CF93DF938A0167
:10481000EC01C60FD71FF9800E943B32F81619062B
:1048200068F082E090E0F801918380838EEF9FEF43
:10483000DF91CF911F910F91FF9008956C817D8141
:104840008E819F814B81C9DF811108C082E090E099
:10485000F8019183808384EF9FEFEACF8981809371
:104860003E0590E00196F8019183808390E080E01E
:10487000DFCFCF93DF93EA01FC01E60FF71F6481DE
:104880007581868197814381A8DF811109C082E00B
:1048900090E09983888384EF9FEFDF91CF91089513
:1048A00081E090E09983888390E080E0F6CFEFE3A9
:1048B000F5E04081518162817381480F511D611D76
:1048C000711D40835183628373830895CF93C09198
:1048D0003E054C2F50E060913F05709140050196D8
:1048E0000E94754B8C2FE3DF10923E05CF91089507
:1048F000009799F480913F05909140052FEFFB01BF
:104900002083892B59F020913E0530E02F5F3F4FE7
:104910002417350719F4CB01D9CF63CC089500973C
:1049200099F480913F05909140052FEFFB01208382
:10493000892B59F020913E0530E02F5F3F4F24171F
:10494000350719F4CB01C2CF4CCC089523E1AC015B
:10495000249FC001259F900D1124E0914805F091FE
:104960004905E80FF91F238134812250310981E084
:104970002230310508F080E008950F931F93CF9304
:10498000DF9300914A0510914B05D0E0C0E080E034
:104990000C171D0749F491E0811190E0892FDF91F8
:1049A000CF911F910F9108958111F5CFCE01CEDFE8
:1049B0002196EECFA0914805B0914905109729F1B5
:1049C00020914A0530914B0582179307F0F453E18B
:1049D000589F9001599F300D1124A20FB31FED91E4
:1049E000FC911197309789F012968C91681768F4B2
:1049F0008BE0689FE00DF11D112480819181892B4E
:104A000021F081E09281491708F080E008959C012F
:104A100043E1429FC001439F900D1124E09148055E
:104A2000F0914905E80FF91F8385823099F481E000
:104A300090E06581768140914F0250915002641759
:104A4000750711F490E080E0892B21F081E023309C
:104A5000310508F080E00895EF92FF920F931F93C5
:104A6000CF93DF93EA01FC01E60FF71F0281138168
:104A7000E480F5804F2D6E2DC8019CDF81110DC0A3
:104A800082E090E0998388838EEF9FEFDF91CF9152
:104A90001F910F91FF90EF900895C80157DF882371
:104AA00039F082E090E09983888388EF9FEFEECF22
:104AB0001093560200935502E0925702F09258026A
:104AC00081E090E09983888390E080E0DFCFCF920F
:104AD000DF92EF92FF920F931F93CF93DF937A01B0
:104AE000EC01C60FD71FC0905502D090560200911E
:104AF000570210915802412F602FC6015BDF8111D0
:104B000010C082E090E0F701918380838AEF9FEFED
:104B1000DF91CF911F910F91FF90EF90DF90CF9099
:104B20000895C60113DF882341F082E090E0F70189
:104B30009183808388EF9FEFEBCF4C815D816E8105
:104B40007F819A8189818F3F41F082E090E0F70177
:104B5000918380838EEF9FEFDBCFE3E1EC9D9001AB
:104B6000ED9D300D1124E0914805F0914905E20FCB
:104B7000F31F0190F081E02D2BE0029FE00DF11D6D
:104B800011240190F081E02D27E0129FE00DF11D2E
:104B90001124808391838B81828343835483658333
:104BA00076831F5F1093580281E090E0F7019183B4
:104BB000808390E080E0ACCFEF92FF920F931F9341
:104BC000CF93DF937A018C01060F171FC091480520
:104BD000D0914905209781F021E030E0F8018281F1
:104BE000938140914A0550914B058417950710F029
:104BF00030E020E0232B71F482E090E0F701918314
:104C000080838EEF9FEFDF91CF911F910F91FF90E7
:104C1000EF90089543E1489F9001499F300D112482
:104C2000C20FD31F93DE882341F082E090E0F701AA
:104C30009183808388EF9FEFE6CFF801248135814F
:104C400020383105C8F687818111D6CF4181842F64
:104C500090E08F7E009741F082E090E0F701918331
:104C6000808386EF9FEFCFCF4F833E832D832681B6
:104C700028871986223010F421E0288721E030E0CF
:104C8000F70131832083BFCF88E090E0FA01918360
:104C9000808390E080E00895FB018FEF808381E1C5
:104CA00081838FEF9FEF9383828380E890E09583E9
:104CB0008483168217820895FB018FEF808391E031
:104CC000918382839383848384E3858381E090E06E
:104CD000978386830895BF92CF92DF92EF92FF92DF
:104CE0000F931F93CF93DF93DA01FC01E60FF71FB9
:104CF0008181813081F082E090E08D939C938FEFF1
:104D00009FEFDF91CF911F910F91FF90EF90DF9078
:104D1000CF90BF900895C281D381B48085810681F0
:104D20001781E0904805F0904905E114F10439F449
:104D300082E090E08D939C938CEF9FEFE2CF2091E7
:104D40004A0530914B05C217D30738F082E090E056
:104D50008D939C938EEF9FEFD4CFC330D10538F065
:104D600082E090E08D939C9386EF9FEFCACF9B2DBE
:104D70009D7FB1F78130A1F7B11005C00130110559
:104D800031F080E004C081E002301105D0F38823C7
:104D900039F36D01CE01DADD882341F082E090E045
:104DA000F6019183808388EF9FEFABCF83E18C9FE7
:104DB000F0018D9FF00D1124EE0DFF1DB38681E0F3
:104DC000848716870587108A178681E090E0F601B0
:104DD0009183808390E080E094CF4CE050E062E0EB
:104DE00073E066CA8F929F92BF92CF92DF92EF924A
:104DF000FF920F931F93CF93DF93EA01FC01E60F1D
:104E0000F71F828193810481B580E0914805F0917C
:104E10004905309791F482E090E0998388838CEF84
:104E20009FEFDF91CF911F910F91FF90EF90DF9057
:104E3000CF90BF909F908F90089520914A05309118
:104E40004B058217930738F082E090E099838883BE
:104E50008EEF9FEFE6CF23E1289F6001299FD00CC2
:104E60001124EC0DFD1DE080F180E114F10499F2B4
:104E70008281081748F78BE0089F80011124E00E1B
:104E8000F11EF70180819181892B29F6BB20E1F287
:104E9000F7E0BF9E40011124C4010E943333F701A3
:104EA00091838083E0914805F0914905EC0DFD1D4B
:104EB0000190F081E02DE00FF11F8081918100973A
:104EC00039F482E090E0998388838DEF9FEFA9CF3A
:104ED000A40170E060E00E947E4B809148059091B3
:104EE0004905C80ED91EF60180819181080F191F4E
:104EF000F801B28281E090E09983888390E080E0BD
:104F000090CFAF92BF92CF92DF92FF920F931F93F9
:104F1000CF93DF93EA01FC01E60FF71F82819381B3
:104F2000F48000914805109149050115110581F49F
:104F300082E090E0998388838CEF9FEFDF91CF919F
:104F40001F910F91FF90DF90CF90BF90AF90089589
:104F500020914A0530914B058217930738F082E083
:104F600090E0998388838EEF9FEFE8CF2FEF2F0D8E
:104F70002C3FA8F723E1289F6001299FD00C112422
:104F80000C0D1D1DF80180819181892B89F6FBE0B4
:104F9000FF9E50011124C5010E943333F801918313
:104FA0008083E0914805F0914905EC0DFD1D80815D
:104FB0009181009739F482E090E0998388838DEFA6
:104FC0009FEFBCCFA50170E060E00E947E4BE091B6
:104FD0004805F0914905EC0DFD1DF28281E090E05D
:104FE0009983888390E080E0A9CFCF92DF92EF92FF
:104FF000FF920F931F93CF93DF93860F971FFC01B0
:10500000028113818091480590914905892B81F097
:1050100082E090E0FA01918380838CEF9FEFDF9133
:10502000CF911F910F91FF90EF90DF90CF90089557
:10503000C801B0E0A0E00197A109B1098F3F9F4FDF
:10504000A105B10540F082E090E0FA0191838083F0
:105050008EEF9FEFE4CF7A0183E1809F6001819F13
:10506000D00C1124C6010E943333EC01009741F4A7
:1050700082E090E0F701918380838DEF9FEFCFCFA7
:10508000A60170E060E00E947E4BD0934905C0937A
:10509000480510934B0500934A0590E080E02FEF00
:1050A0003FEF41E061E070E08017910741F481E05B
:1050B00090E0F7019183808390E080E0B0CF3A8B5D
:1050C000298B1B864C877E876D87188A1F860196E1
:1050D0006396EACFCF92DF92EF92FF920F931F93E6
:1050E000CF93DF93EC01D12CC12C10E000E0F12C28
:1050F000E12C6A816017110609F0CCF483E0689F07
:10510000B0011124AE014F5E5F4FC7010E94AE3364
:10511000009721F02FEF3FEF3A8B298BDF91CF9152
:105120001F910F91FF90EF90DF90CF900895E8814D
:10513000F981EC0DFD1D438154818D859E85489F2D
:105140009001499F300D589F300D1124C9010196DF
:105150000115110519F44F8144FD049661E070E0DA
:105160000E94EC31E816F90608F47C010F5F1F4F2E
:105170008BE0C80ED11CBDCFF8942091460530912C
:10518000470581E02115310509F080E0232B09F066
:10519000789408952F923F924F925F926F927F92F0
:1051A0008F929F92AF92BF92CF92DF92EF92FF9237
:1051B0000F931F93CF93DF933C01660E771EF3018D
:1051C000828193814C01B12CA12CC0914805D091D2
:1051D0004905209769F021E030E060914A0570911F
:1051E0004B058617970710F030E020E0232BD1F411
:1051F00082E090E0FA01918380838EEF9FEFDF9150
:10520000CF911F910F91FF90EF90DF90CF90BF90C3
:10521000AF909F908F907F906F905F904F903F9056
:105220002F9008958092590290925A02A0925B02A8
:10523000B0925C0263E1689F9001699F300D112478
:10524000C20FD31FF3018181833040F082E090E0F0
:10525000FA019183808386EF9FEFD1CF2A012B81C2
:105260003C81232BF1F4288139819F8191FF2EC04D
:10527000232B09F46FC020914D059A81422F490FCD
:105280005527551FBA0141E050E06138710514F00F
:1052900050E040E0452B09F45DC02A87920F9093BF
:1052A0004D058150823008F481C066DF882309F4FF
:1052B000D8C0F3018181813009F48DC008F47BC02E
:1052C000823009F4C6C090E080E0ADC0232B09F421
:1052D00041C020914C059A81E22FE90FFF27FF1F63
:1052E00041E050E0ED3FF10514F050E040E0452B87
:1052F00089F12A87920F90934C05D3CFA081B18179
:10530000A20FB31F11966C91060F111D0196295F14
:105310003F4F8417950794F38D859E85089F100154
:10532000099F300C189F300C1124C114D104D1F402
:105330008F8184FF17C00E943A32F5E02F0E311C96
:1053400021E08215930508F420E0A701455F5F4F37
:1053500021110EC082E090E0F2019183808387EFFB
:105360009FEF4DCF0E943A322FEF221A320AE8CF38
:1053700088819981E80EF91EF70114830383FFEFFA
:10538000CF1ADF0A7A018A818C151D0409F00CF40A
:105390008CCFE881F981EE0DFF1D428150E030E0B5
:1053A00020E010E000E090E080E0B3CFF12CE12CB1
:1053B000D12CC12CE8CF81E090E09C838B83DDDA97
:1053C000882309F480CF81E090E00E943A2180E4B4
:1053D0000E94482178CF89899A89019661F083E0FB
:1053E00090E09C838B8382E090E00E943A2180E4ED
:1053F0000E94422168CF2D813E8180914F02909181
:10540000500228173907D1F4609153027091540269
:10541000AE014F5E5F4F80915102909152020E9407
:10542000A4340097E1F2789422E030E0F201318375
:105430002083892B99F08DEF9FEFE1CE23E0821638
:105440009104A104B1045CF6CE0144DE188A1F86E3
:10545000E8CF82E090E09C838B8335CF90E080E0C2
:10546000CECE82E090E0F2019183808385EF9FEFC2
:10547000C6CE8F929F92AF92BF92CF92DF92EF9261
:10548000FF920F931F93CF93DF93EA018C01060FD6
:10549000171FF8018181833098F082E090E09983B2
:1054A000888386EF9FEFDF91CF911F910F91FF903F
:1054B000EF90DF90CF90BF90AF909F908F90089526
:1054C0008091480590914905892B61F081E090E039
:1054D00020914A0530914B05232B11F490E080E098
:1054E000892B39F482E090E0998388838EEF9FEFD7
:1054F000DACF42DE882309F4DEC0F80181818130F1
:1055000009F494C0E8F0823099F420914A05309172
:105510004B05E0914805F091490590E080E041E0BD
:1055200050E02817390709F0BCC027DA811117C0ED
:10553000789481E090E09983888390E080E0B3CF15
:1055400020914A0530914B05E0914805F0914905BD
:1055500090E080E041E050E02817390741F481E015
:1055600090E00E943A2180E40E944821E1CF6381CB
:105570007481672B11F05483438301967396ECCFAB
:10558000E0914805F0914905E00FF11F2381348136
:1055900022303105D9F4218932892F3F3F4FB1F4B0
:1055A0004581568120914F02309150024217530796
:1055B00061F5AF014F5E5F4F6091530270915402ED
:1055C00080915102909152020E94A4344FEFC41A6C
:1055D000D40AE40AF40A0D5E1F4F40914A05509127
:1055E0004B0570E060E0C416D506E606F70634F514
:1055F000009731F27894892B09F49BCF82E090E0F8
:10560000998388838DEF9FEF4ECF23E0C216D1049C
:10561000E104F104DCF6CF015DDDE0914805F09195
:105620004905E00FF11F108A1786D0CF10E000E087
:1056300090E080E0C12CD12C7601CFCF0097D1F63D
:1056400010E000E0812C912C540183E0E82EF12C35
:105650001AC0E0914805F0914905E00FF11F8381E0
:105660009481029749F4F482E38282E090E00E9400
:105670003A2180E40E9442218FEF881A980AA80AF2
:10568000B80A0D5E1F4F80914A0590914B05B0E01E
:10569000A0E088169906AA06BB06DCF290E080E03E
:1056A000A9CF638174816230710511F454834383FF
:1056B0000196739636CF82E090E09983888385EFD8
:1056C0009FEFF1CE0097B9F48FEFFB01808320911B
:1056D000590230915A0243E1429FC001439F900D0D
:1056E0001124E0914805F0914905E80FF91F8285E2
:1056F000FB01818308950C94F12088E090E0FA0189
:105700009183808390E080E0089510924705109285
:105710004605E8E4F5E086E0DF011D928A95E9F7A9
:105720008DEE96E29093450580934405089580910F
:1057300044059091450508952F923F924F925F92B4
:105740006F927F928F929F92AF92BF92CF92DF9291
:10575000EF92FF920F931F93CF93DF93CDB7DEB7F6
:1057600060970FB6F894DEBF0FBECDBFF894E091FE
:105770004605F09147053196F0934705E0934605BD
:105780007894A0914805B0914905BA83A9831097F0
:1057900009F4FAC1E0914A05F0914B05EF2B09F4A9
:1057A000F3C128874B875C876D877E879A878987B7
:1057B000B88BAF87312C212CF12C512C412C8091AE
:1057C0004A0590914B052816390610F4FF2029F15F
:1057D000F89480914605909147050197909347056D
:1057E000809346057894C20160960FB6F894DEBFA8
:1057F0000FBECDBFDF91CF911F910F91FF90EF9022
:10580000DF90CF90BF90AF909F908F907F906F90E0
:105810005F904F903F902F900895B10190E080E00D
:1058200087D4682EEF85F889878181FD3DC083810B
:1058300094810397C9F5258136813C832B83898523
:105840009A852817390781F5C101E1D8782E882378
:10585000A9F1AF85B8891F968D919C9150970196BB
:1058600021E01D964D915C918417950709F020E089
:105870002F83B12CA12CEF85F88982818A151B0416
:1058800019F014F0FF20E9F0F885FF2309F46CC14A
:10589000AF85B88950961C921E921F97662021F002
:1058A000B10190E080E046D4FFEF2F1A3F0A2F8528
:1058B00038892D5E3F4F388B2F8781CFB1E0BF8372
:1058C000D8CFBFD49E838D83E885EE23E9F077207F
:1058D00009F43CC1AF85B8891F968D919C91892BA5
:1058E00079F0BBE0BA9DC001BB9D900D1124AF853E
:1058F000B889ED91FC91E80FF91F8581968102D757
:10590000BFEFAB1ABB0AB7CF81E0772039F0EF8544
:10591000F88927853089232B09F080E0F82EE12CC7
:10592000A114B10439F4AF85B8891796EC90E4FA64
:10593000EE24E0F8BBE0BA9D6001BB9DD00C1124C1
:10594000882309F424C1AF85B889ED91FC911197A2
:10595000EC0DFD1D438154811D962D913C91429F7C
:10596000C001439F900D529F900D1124E1105DC026
:1059700001969087878361E070E0878190852CD5C0
:10598000EF85F88921893289008111810C0D1D1D57
:105990002F3F320709F44BC0BC01C9010E94E53416
:1059A000D80116969C938E931597AF85B889ED9183
:1059B000FC911197EC0DFD1D058116810115110556
:1059C00009F4CDC0ED81FE810E0F1F1F1A968C9138
:1059D0008A0DD8018C93E1102FC00F5F1F4FAF8548
:1059E000B889ED91FC91EC0DFD1D12870187AF8503
:1059F000B889ED91FC91EC0DFD1D85819681892B77
:105A000009F4A4C080914F02909150022B813C81F7
:105A10002817390709F465C0772011F00185128530
:105A2000912C812C1A8219824AC00596A2CF1BD6CE
:105A3000F80196838583B9CF8B859C85AD85BE851E
:105A4000F80181839283A383B4830B5F1F4FC7CF79
:105A5000E080F180E80CF91CD70113966D917C91E0
:105A600014978C918F3F09F473C0E1E0F0E002C01D
:105A7000EE0FFF1F8A95E2F7CF01092E000CAA0B4B
:105A8000BB0BFB014081518162817381842395238B
:105A9000A623B72321E0892B8A2B8B2B09F420E046
:105AA000D8012C93D70111968C91080F111DE98113
:105AB000FA813196FA83E983F7E08F0E911CAF8566
:105AC000B889ED91FC91EC0DFD1D828129813A810F
:105AD0008217130611F00CF0BBCF772011F012875C
