:1000000008C1000037C1000035C1000033C1000045
:1000100031C100002FC100002DC100002BC1000024
:1000200029C1000027C1000025C1000023C1000034
:1000300021C100001FC100001DC100001BC1000044
:1000400019C1000017C1000015C1000013C1000054
:1000500011C100000FC100000DC100000C94283533
:1000600009C100000C94FC380C94323903C1000023
:1000700001C10000FFC00000FDC00000FBC0000087
:10008000F9C00000F7C00000F5C00000F3C0000098
:100090000C9488390C94BE39EDC000000C940734E0
:1000A000E9C00000E7C00000E5C00000E3C00000B8
:1000B000E1C00000DFC00000DDC00000DBC00000C8
:1000C000D9C00000D7C000000C94002B0C94143A47
:1000D0000C944A3ACFC000000C94A03A0C94D63A43
:1000E000C9C0000005A84CCDB2D44EB93836A9021B
:1000F0000C50B9918688083CA6AAAA2ABE00000026
:10010000803F00000A0B02090C0D0E0807030401D2
:1001100000000000000000000000000000000000DF
:1001200000000000000000000000000000001211AC
:1001300010000000000000000000000000000000AF
:10014000000000000000000001021020200808103C
:100150002040102040800201020108040201010237
:100160000408102040808040201008040201800410
:10017000020180402010080402010804020101026B
:10018000040810204080010204081020408005056A
:100190000505070508080808020202020A0A0808FD
:1001A000040404040101010101010101030303032B
:1001B00003030303040707070C0C0C0C0C0C0C0CBA
:1001C0000202020206060606060606060B0B0B0BCB
:1001D0000B0B0B0B00002200250028002B002E002B
:1001E0003100340002010000050108010B0100008C
:1001F0002100240027002A002D00300033000101D7
:100200000000040107010A0172315B39E739733AD2
:10021000FF3A11241FBECFEFD1E2DEBFCDBF00E019
:100220000CBF13E0A0E0B2E0E6E7F7E700E00BBFA9
:1002300002C007900D92A63AB107D9F72CE0A6EAC2
:10024000B3E001C01D92A234B207E1F711E0C9E0AA
:10025000D1E000E006C021970109802FFE010E9435
:100260007C3BC430D10780E00807A9F70E94632CCB
:100270000C94B93BC5CECF92DF92EF92FF926B0107
:100280007C01C114D104E104F10469F480910002FD
:10029000811109C080910202909103020E94E33013
:1002A00081E080930002C601880F991F880F991F73
:1002B00080509E4FFF90EF90DF90CF900895009771
:1002C00081F0FC012181211104C040EA56E861E07F
:1002D00070E0FC01828193810E94F23090E080E026
:1002E000089588E090E008954F925F926F927F9218
:1002F0008F929F92AF92BF92CF92DF92EF92FF9236
:100300000F931F93CF93DF930097C9F12801390111
:100310007A01EC01402F8A819B810E9470318A8191
:100320009B81DC01ED91FC910084F185E02D199514
:10033000892B01F16701812C912C54018A819B81C9
:10034000DC01ED91FC910084F185E02D1995892B5C
:1003500091F184149504A604B70469F18A819B8104
:10036000DC01ED91FC910284F385E02D19958F3F1E
:100370009807C1F484E0F70111928A95E9F788E0C3
:1003800090E0DF91CF911F910F91FF90EF90DF9060
:10039000CF90BF90AF909F908F907F906F905F9025
:1003A0004F900895FFEF8F1A9F0AAF0ABF0AD60138
:1003B0008D936D01C3CF90E080E0E3CF8F929F9249
:1003C000AF92BF92CF92DF92EF920F931F93CF9392
:1003D000DF930097F1F06A01EC018A819B810E9412
:1003E000F5308A819B81DC01ED91FC910280F381E3
:1003F000E02DA801B60119958A819B8160E0E1108A
:1004000001C061E00E94FF30882389F08250823071
:1004100088F088E090E0DF91CF911F910F91EF90ED
:10042000DF90CF90BF90AF909F908F90089590E015
:1004300080E0F1CF84E090E0EECF0895CF92DF929C
:10044000EF92FF92CF93882351F16A017B01CFEFA6
:10045000C80F20E030E0A901CB01B6010E945A2D5F
:1004600087FF11C0C701B60190580E94CB2D9B0198
:10047000AC016C2F70E090E080E0CF91FF90EF90A6
:10048000DF90CF90B2C0C701B6010E94C62D8C2F5D
:10049000CF91FF90EF90DF90CF900C942F36CF91BB
:1004A000FF90EF90DF90CF9008950F931F938B01F3
:1004B0009C0183E036952795179507958A95D1F786
:1004C0000A551C4F462F477021E030E0F90102C069
:1004D000EE0FFF1F4A95E2F7AF01F80120812423B8
:1004E000CB010196211102C090E080E01F910F9195
:1004F00008950F931F938B019C0183E036952795F8
:10050000179507958A95D1F7677081E090E001C053
:10051000880F6A95EAF7F801EA55FC4F2081452BD0
:1005200031F48095822380831F910F910895822B4F
:10053000FACF2F923F924F925F926F927F928F925B
:100540009F92AF92BF92CF92DF92EF92FF920F9362
:100550001F93CF93DF93D62EC72E782E692E490195
:100560005A01280161E08D2D0E946937CD2DDC2DC7
:100570008E010F5F1F4FA8016D2D7C2D872D962DAD
:10058000B8DF20E030E0A901C201B7010E944A2F84
:10059000181664F4C201B7010E94CB2D2B01C501CE
:1005A000B4010E94CB2DA201CE0123D0C801DF915E
:1005B000CF911F910F91FF90EF90DF90CF90BF9060
:1005C000AF909F908F907F906F905F904F903F90F3
:1005D0002F900895882341F08150682F70E090E0BB
:1005E00080E050E040E085CF0895862FB9010C945B
:1005F0002F369C01FC01EE5FFE4FE491E150E231A9
:10060000E0F4F0E08827E85FFC4F8F4F0C947C3BD0
:100610001A03210324033B0350031D0365037103E5
:1006200075038C03A103B603CD03E2031D03F70397
:100630000E04230484B5806884BD60E0822F0C948E
:10064000A53784B58062F8CF809180008C7F82606E
:100650008093800080918100807E8061682B609310
:1006600081005093870040938600809180008068CD
:1006700080938000E2CF809180008C7F82608093A5
:10068000800080918100807E8061682B6093810072
:100690005093870040938600809180008062E8CF6D
:1006A000809180008C7F82608093800080918100A7
:1006B000807E8061682B6093810050938700409317
:1006C0008600809180008860D3CF8091B0008068E0
:1006D0008093B0008091B100887F682B6093B10057
:1006E000ACCF8091B0008062F3CF809190008C7F7E
:1006F00082608093900080919100807E8061682B61
:1007000060939100509397004093960080919000E1
:1007100080688093900091CF809190008C7F826060
:100720008093900080919100807E8061682B60931F
:1007300091005093970040939600809190008062C2
:10074000E8CF809190008C7F8260809390008091B0
:100750009100807E8061682B609391005093970098
:1007600040939600809190008860D3CF8091A00044
:100770008C7F82608093A0008091A100807E806148
:10078000682B6093A1005093A7004093A60080912E
:10079000A00080688093A00050CF8091A0008C7F43
:1007A00082608093A0008091A100807E8061682B90
:1007B0006093A1005093A7004093A6008091A000F1
:1007C0008062E8CF8091A0008C7F82608093A0003F
:1007D0008091A100807E8061682B6093A10050937E
:1007E000A7004093A6008091A0008860D3CF80919D
:1007F00020018C7F82608093200180912101807E86
:100800008061682B6093210150932701409326015A
:10081000809120018068809320010FCF809120017A
:100820008C7F82608093200180912101807E806195
:10083000682B6093210150932701409326018091FA
:1008400020018062E8CF809120018C7F82608093BC
:10085000200180912101807E8061682B60932101BD
:100860005093270140932601809120018860D3CFC7
:1008700090E080E008950F931F93009709F48DC0D6
:100880006115710509F489C000912A0210912B02AB
:1008900020912C0230912D020E3F1F4F2F4F3F4FC2
:1008A00009F06CC04FEF5FEFBA0140932A025093FA
:1008B0002B0260932C0270932D0240912A025091DA
:1008C0002B0260912C0270912D02DC011296ED91A9
:1008D000FC9180819181A281B3818093D504909312
:1008E000D604A093D704B093D80484819581A681BF
:1008F000B7818093D1049093D204A093D304B09392
:10090000D40480859185A285B3858093CD0490938E
:10091000CE04A093CF04B093D00484859585A6859A
:10092000B7858093C9049093CA04A093CB04B09375
:10093000CC041092C5041092C6041092C704109201
:10094000C8040E94450F8AE69FE09093B00380930D
:10095000AF039093B2038093B1039093B403809359
:10096000B3030E94340E009731F421E030E030935D
:10097000DA042093D9041F910F91089500912A025F
:1009800010912B0220912C0230912D02DB010D934E
:100990001D932D933C93139790CF8FEF9FEFEBCF49
:1009A0008F929F92AF92BF92CF92DF92EF92FF927F
:1009B0001F93CF93DF934B015C011091DC0482E025
:1009C00090E09093DA048093D90481149104A104F7
:1009D000B10441F48091DC04811104C08091DB04F6
:1009E000C1E08111C0E0C12CD12C76018091DC04E2
:1009F000811106C08091DB04811102C0CC23D9F0A3
:100A000083E090E09093DA048093D904CC2381F1C1
:100A1000CCE9DFEF111102C00E94CF12CE01DF91AD
:100A2000CF911F91FF90EF90DF90CF90BF90AF904C
:100A30009F908F9008956AE070E080E090E00E94BF
:100A4000973580E1C80E87E2D81EE11CF11C8FEFBC
:100A500088169806A806B80631F0C1E08C149D04EB
:100A6000AE04BF0408F0C0E080E00E94680EBECF74
:100A7000D0E0C0E0CFCFCF92DF92EF92FF920F9302
:100A80001F93CF93DF938F3F910511F008F051C072
:100A90002091D9043091DA042330310539F02091C6
:100AA000D9043091DA042130310531F424E030E00A
:100AB0003093DA042093D9046A017B01EC0183307E
:100AC0009105A8F011E0AE01C701B6010E94330EF6
:100AD000AB01BC01CE011123F9F0DF91CF911F9141
:100AE0000F91FF90EF90DF90CF900C94F8148C0151
:100AF000000F111F01551C4FD8018D919C91892B1E
:100B000009F30E9402150297E9F6D801ED91FC91D4
:100B1000CE011995182FD7CF0E941A1590E080E0CA
:100B2000DF91CF911F910F91FF90EF90DF90CF90C9
:100B300008958FEF9FEFF4CF80E00C94680ECF9371
:100B4000DF9386E090E09093DA048093D9040E94CA
:100B5000C10EEC01EFEAF3E086E0DF011D928A9519
:100B6000E9F70E9467121092DA041092D904CE01BC
:100B7000DF91CF9108958091DB0408958091C404A2
:100B8000089560932A0270932B0280932C02909315
:100B90002D0290E080E00895FC0191E080918E04A8
:100BA000811190E0928308951F93CF93DF93EC011E
:100BB00080E090E5A3ECB8E48C879D87AE87BF8783
:100BC0001F821E82188211E0188B1D8281E090E046
:100BD000A0E0B0E089839A83AB83BC8350E040E01F
:100BE00060E070E0CB0147DB9F838E8340EA56E8EC
:100BF00061E070E0488759876A877B8760DB1D83E7
:100C0000DF91CF911F910895CF92EF920F931F9391
:100C1000CF93DF9300D0CDB7DEB7FB0125E029836A
:100C20009A838B83C12CE12C03E010E020E030E0BC
:100C3000AE014F5F5F4F60E470E086819781BEDB5D
:100C40000F900F900F90DF91CF911F910F91EF9028
:100C5000CF900895FC018081811110C081E08083D4
:100C600081819281A381B4810197A105B10531F4FD
:100C70008581882319F086819781DFCB08958F9233
:100C80009F92AF92BF92CF92DF92EF92FF92CF935B
:100C9000DF9380918E048F5F8A3008F003C18093C8
:100CA0008E04609110027091110280911202909155
:100CB00013020E94342E6B017C01D2D68111F5C043
:100CC000C701B60188D68111F0C020E030E040E8CD
:100CD00057E4C701B6010E944E2E6B017C0120E053
:100CE00030E0A9010E945A2D87FFE2C0C701B6017A
:100CF00090580E94CB2D88279927861B970B67E178
:100D00007CE082DFE0919604F091970420911C0230
:100D100030911D0240911E0250911F02608171812D
:100D2000828193810E944E2F2091200230912102D6
:100D300040912202509123020E94F62C0E94B12F72
:100D40002091140230911502409116025091170221
:100D50000E944E2F209118023091190240911A02E0
:100D600050911B020E94F62C20E030E04EE753E445
:100D70000E944E2F23E333E347EB51E40E945E2DA4
:100D80006B017C0120E030E0A9010E944A2F812CF8
:100D9000912C5401181684F020E030E0A901C7011D
:100DA000B6010E945A2D87FF89C046015701E89479
:100DB000B7F8C12CD12C760168E070E080E090E0BB
:100DC00074DBEC019093000C8093FF0B20E030E08B
:100DD0004FE753E4C501B4010E945A2D181634F4AC
:100DE000812C912C9FE7A92E93E4B92EB501A40183
:100DF000CE0124DB69E070E080E090E056DB5C012E
:100E00009093F80B8093F70B20E030E04FE753E42A
:100E1000C701B6010E945A2D181634F4C12CD12CEA
:100E20008FE7E82E83E4F82EB701A601C50106DBA3
:100E3000C0906D04D0906E04E0906F04F090700448
:100E40008FEFC81AD80AE80AF80AC0926D04D09247
:100E50006E04E0926F04F0927004C0919604D091F9
:100E60009704C701B6010E94F72D9B01AC01609168
:100E700071047091720480917304909174040E94C3
:100E80004E2F688379838A839B8380918104882392
:100E9000D9F08130E9F081E0909183049923A9F0A1
:100EA00080E013C010928E04FCCEC12CD12C7601B0
:100EB000C701B6010E94CB2DCB0121CF812C912CF3
:100EC00054017501640178CF81E08093820402C0EF
:100ED000109282048091820494E0899FF001112491
:100EE000EC57FB4FC082D182E282F382809383046D
:100EF0008FEF809382048091750490917604A09185
:100F00007704B09178040196A11DB11D80937504FA
:100F100090937604A0937704B0937804DF91CF91F7
:100F2000FF90EF90DF90CF90BF90AF909F908F9009
:100F300008954F925F926F927F928F929F92AF929D
:100F4000BF92CF92DF92EF92FF920F931F93CF93B6
:100F5000DF9300D0CDB7DEB7C0900402D090050279
:100F6000E0900602F0900702A70196016091DD0B68
:100F70007091DE0B8091DF0B9091E00B0E945A2D57
:100F8000882341F0C092DD0BD092DE0BE092DF0BA4
:100F9000F092E00B84E08B83C12CEE24E39401E01B
:100FA00010E020E030E0AE014D5F5F4F60E470E0A4
:100FB0008091D30B9091D40B01DA8B8320E030E049
:100FC000811113C0CC24C394E12C02E010E020E096
:100FD00030E0AE014F5F5F4F60E470E08091D30B73
:100FE0009091D40B81D92A813981A0912802B091A6
:100FF00029020E94843B0E94F92D20E030E040E06D
:1010000056E30E944E2F20912402309125024091F8
:101010002602509127020E944E2F6093480A709337
:10102000490A80934A0A90934B0AE0908B0AF09009
:101030008C0AF70181809280A380B48097012056AA
:101040003F4F69018701085F1F4F8A9489288A28CA
:101050008B28B9F0812C912C540183948182928247
:10106000A382B48221E02583F60180809180A28052
:10107000B380F80181929192A192B192CE16DF06CF
:10108000C9F7812C912C5401F80140805180628075
:10109000738061937193819391938F01E856FF4F11
:1010A00020813181428153810E944E2F9B01AC01EE
:1010B000C501B4010E94F62C4B015C01C201D301B1
:1010C000BC01CD01C016D106F9F6F701E45CFE4F74
:1010D00020813181428153810E944E2FA5019401CC
:1010E0000E94F62C60934C0A70934D0A80934E0A2E
:1010F00090934F0A8091790490917A04A0917B0497
:10110000B0917C040196A11DB11D80937904909348
:101110007A04A0937B04B0937C040F900F900F90FF
:10112000DF91CF911F910F91FF90EF90DF90CF90C3
:10113000BF90AF909F908F907F906F905F904F90F7
:1011400008954F925F926F927F928F929F92AF928B
:10115000BF92CF92DF92EF92FF920F931F93CF93A4
:1011600084E090E001D485ED93E023E934E030930E
:10117000DC032093DB0326E934E03093160420934C
:10118000150421E734E03093EA032093E9039093B8
:10119000400480933F049093DA038093D90381E065
:1011A00090E0909394048093930487E492E090936A
:1011B000E0038093DF0328E934E030939704209321
:1011C000960480E090E0A0E2B1E480938F049093D5
:1011D0009004A0939104B09392048AE097EDA3E267
:1011E000BCE38093710490937204A0937304B09352
:1011F000740487EA9CE8A4ECBAE780935B049093BC
:101200005C04A0935D04B0935E0487EF9AE5A6E1C9
:10121000B0E680935F0490936004A0936104B09360
:10122000620486EE97EEA6E7BCED8093630490938C
:101230006404A0936504B093660482E09FE2A9ED84
:10124000BDEE8093670490936804A0936904B09303
:101250006A0489EC93E09093D8038093D70385EBDD
:1012600093E09093CA038093C90385EF92E0909333
:10127000B6038093B5039093B8038093B70390931C
:10128000BA038093B9039093BC038093BB039093FC
:10129000BE038093BD039093C0038093BF039093DC
:1012A000C2038093C1039093C4038093C3039093BC
:1012B000C6038093C5039093C8038093C7038BE64E
:1012C00094E09093CE038093CD038BE594E09093CC
:1012D000CC038093CB033093D0032093CF038FEFC5
:1012E00080938104809382041092830480E090E5CF
:1012F000A3ECB8E48093ED0B9093EE0BA093EF0B6F
:10130000B093F00B1092E80B1092E70B1092E10BE8
:101310001092E60B812C912C540183948092E20B65
:101320009092E30BA092E40BB092E50B1092470A67
:101330001092460A1092420A1092430A1092440AEE
:101340001092450A50E040E060E070E0CB010E945E
:101350003B019093E80B8093E70B20EA422E26E8AE
:10136000522E66246394712C4092E90B5092EA0B42
:101370006092EB0B7092EC0B4092540A5092550A1B
:101380006092560A7092570A40EA56E861E070E0AF
:101390000E945F01C1E0C093E60B86E09CE004DCA4
:1013A00087E19CE001DC1092F90B1092FE0B809219
:1013B000FA0B9092FB0BA092FC0BB092FD0BE12C70
:1013C000F12C8701A801970168E070E080E090E0CF
:1013D000B0D89093000C8093FF0BC093FE0B10923B
:1013E000F10B1092F60B8092F20B9092F30BA092FD
:1013F000F40BB092F50BA801970169E070E080E072
:1014000090E097D89093F80B8093F70BC093F60B6E
:1014100080E090E5A3ECB8E48093D90B9093DA0BCD
:10142000A093DB0BB093DC0B1092D40B1092D30B78
:101430001092CD0B8091040290910502A0910602BA
:10144000B09107028093DD0B9093DE0BA093DF0B2E
:10145000B093E00B1092D20B8092CE0B9092CF0BF8
:10146000A092D00BB092D10B1092470A1092460A6C
:101470001092420A1092430A1092440A1092450AAE
:1014800050E040E060E070E0CB010E943B019093AF
:10149000D40B8093D30B4092D50B5092D60B609215
:1014A000D70B7092D80B4092540A5092550A609212
:1014B000560A7092570A40EA56E861E070E00E94CE
:1014C0005F01C093D20B1092610A8092620A9092DF
:1014D000630AA092640AB092650A10928E0A109272
:1014E0008F0A1092900A1092910AE0922D0BF092BE
:1014F0002E0B00932F0B1093300BE9E5F2E0A1E3E4
:10150000BBE092E0E53FF90709F0BFC087E290E059
:101510009093600A80935F0A10928D0A8DE89AE09A
:1015200090938C0A80938B0A81E090E0A0E0B0E079
:101530008093870A9093880AA093890AB0938A0AB5
:101540008093660A609108027091090280910A02F4
:1015500090910B020E94342E6093500A7093510AAE
:101560008093520A9093530A7BD2882309F496C041
:101570001092500A1092510A1092520A1092530A75
:10158000C090500AD090510AE090520AF090530A4D
:1015900020E030E0A901C701B6010E945A2D87FF63
:1015A0009FC0C701B60190580E94CB2D71956195DF
:1015B000710970935D0A60935E0A70935F0A60938D
:1015C000600A70935B0A60935C0A1092580A7093E9
:1015D000590A60935A0AC12CE12C03E010E020E084
:1015E00030E048E55AE060E470E08091E70B9091CC
:1015F000E80B0E94DE0160910C0270910D02809157
:101600000E0290910F020E94342E6093500A709344
:10161000510A8093520A9093530A22D2882309F4E4
:1016200064C01092500A1092510A1092520A1092FD
:10163000530AC090500AD090510AE090520AF0909C
:10164000530A20E030E0A901C701B6010E945A2DDB
:1016500087FF6DC0C701B60190580E94CB2D882727
:101660009927861B970B66E07CE0CF911F910F9125
:10167000FF90EF90DF90CF90BF90AF909F908F90B2
:101680007F906F905F904F90BFCA4191519161914F
:1016900071914D935D936D937D9333CF6091500A1B
:1016A0007091510A8091520A9091530A94D18111FC
:1016B0005FCF6091500A7091510A8091520A9091C7
:1016C000530A20E030E040E857E40E944E2E609339
:1016D000500A7093510A8093520A9093530A50CF44
:1016E000C701B6010E94CB2D64CF6091500A709162
:1016F000510A8091520A9091530A6DD1811191CF74
:101700006091500A7091510A8091520A9091530A47
:1017100020E030E040E857E40E944E2E6093500AEB
:101720007093510A8093520A9093530A82CFC70153
:10173000B6010E94CB2DCB0196CF87E19CE08ADADF
:101740008091F90B81112EC081E08093F90B80917B
:10175000FA0B9091FB0BA091FC0BB091FD0B019744
:10176000A105B105F9F48091FE0B8823D9F068E05A
:1017700070E080E090E00E9455029093000C80930E
:10178000FF0B40E050E0BA010E941E0268E070E0EA
:1017900080E090E00E9455029093000C8093FF0B34
:1017A0000E94EA028091F10B81112EC081E08093AA
:1017B000F10B8091F20B9091F30BA091F40BB0918F
:1017C000F50B0197A105B105F9F48091F60B88237B
:1017D000D9F069E070E080E090E00E9455029093BB
:1017E000F80B8093F70B40E050E0BA010E941E0214
:1017F00069E070E080E090E00E9455029093F80B61
:101800008093F70B0E94EA028091CD0B811119C0E1
:1018100081E08093CD0B8091CE0B9091CF0BA09166
:10182000D00BB091D10B0197A105B10551F4809176
:10183000D20B882331F08091D30B9091D40B0E946E
:101840001D028091610A811132C081E08093610A9A
:101850008091620A9091630AA091640AB091650A2E
:101860000197A105B10519F58091660A8823F9F061
:10187000E0918B0AF0918C0A81819281A381B481DD
:101880000197A105B10541F482E090E0A0E0B0E04D
:1018900081839283A383B4838FEF9FEFDC018093D6
:1018A000870A9093880AA093890AB0938A0A809144
:1018B0008D0A81111BC081E080938D0A80918E0A70
:1018C00090918F0AA091900AB091910A0197A10579
:1018D000B10561F482E090E0A0E0B0E080938E0A70
:1018E00090938F0AA093900AB093910A8091E10B94
:1018F000811119C081E08093E10B8091E20B9091FE
:10190000E30BA091E40BB091E50B0197A105B105A4
:1019100051F48091E60B882331F08091E70B909190
:10192000E80B0E941D0286E09CE094C960E070E034
:1019300080E89FE7089560E070E080E89FE7089501
:1019400060E070E080E89FEF089560E070E080E87C
:101950009FEF089560E070E080EC9FEF089560E0F5
:1019600070E080EC9FEF0895F5DF6093340C709386
:10197000350C8093360C9093370CF1DF6093280C74
:101980007093290C80932A0C90932B0CCFDF6093DB
:10199000300C7093310C8093320C9093330CCBDF6E
:1019A00060932C0C70932D0C80932E0C90932F0C25
:1019B000C7DF6093380C7093390C80933A0C909386
:1019C0003B0CC3DF60933C0C70933D0C80933E0C4A
:1019D00090933F0C0895CF92DF92EF92FF92CF93B6
:1019E0006B017C01AC019B016091300C7091310C5A
:1019F0008091320C9091330C0E945A2DC1E08823C3
:101A000071F0A70196016091380C7091390C8091AA
:101A10003A0C90913B0C0E945A2D8111C0E08C2F02
:101A2000CF91FF90EF90DF90CF9008950F931F9389
:101A30008B019C010027112720783F7701151105A4
:101A400020483F4749F4AB01BC016F77772781E01D
:101A5000452B462B472B09F480E01F910F910895E9
:101A6000E5CF4F925F926F927F928F929F92AF924B
:101A7000BF92CF92DF92EF92FF920F931F93F89451
:101A80004090B4045090B5046090B6047090B704D0
:101A9000C090A804D090A904E090AA04F090AB04F0
:101AA0004130510509F0A4C09B01AC01241935094E
:101AB0004609570929013A010091B0041091B10477
:101AC0002091B2043091B30448015901840C951C53
:101AD000A61CB71C80169106A206B306A0F40091BE
:101AE000AC041091AD042091AE043091AF040F5FAF
:101AF0001F4F2F4F3F4F0093AC041093AD04209322
:101B0000AE043093AF048092B0049092B104A092DE
:101B1000B204B092B3040091AC041091AD042091D2
:101B2000AE043091AF048092B8049092B904A092B0
:101B3000BA04B092BB040093BC041093BD0420937C
:101B4000BE043093BF046093B4047093B5048093D3
:101B5000B6049093B704A0E1B7E2A30192010E94FA
:101B60009F3B6C0D7D1D8E1D9F1D6093A80470937F
:101B7000A9048093AA049093AB0400912A021091C7
:101B80002B0220912C0230912D020F3F1F4F2F4F1F
:101B90003F4FF1F000912A0210912B0220912C026C
:101BA00030912D020E3F1F4F2F4F3F4F89F0C090B5
:101BB0002A02D0902B02E0902C02F0902D0221E01E
:101BC0008C149D04AE04BF0408F420E02093C404E8
:101BD00078941F910F91FF90EF90DF90CF90BF907E
:101BE000AF909F908F907F906F905F904F900895EF
:101BF0004B015C0184189508A608B708A30192015F
:101C0000261B370B480B590B641575058605970580
:101C1000D0F082169306A406B50640F420E030E02A
:101C2000A90181149104A104B10491F4A0E1B7E2E7
:101C30000E949F3BA7019601261B370B480B590BAF
:101C4000CA01B901C5CF82169306A406B50670F77E
:101C5000A0E1B7E2A50194010E949F3B6C0D7D1DA0
:101C60008E1D9F1DB5CFFDCECF93DF9300D01F9269
:101C7000CDB7DEB71C821B821A8219821092C00473
:101C80001092C1041092C2041092C304BE016F5F8F
:101C90007F4FCE0103960E94CE2A69817A818B8183
:101CA0009C810E942224009761F4BE016F5F7F4FE8
:101CB000CE0103960E94DA2A69817A818B819C8108
:101CC0002FD50F900F900F900F90DF91CF91089527
:101CD000FF920F931F93CF93DF93082F60E070E084
:101CE000CB010E949735FF24F3940E940B23EC0153
:101CF000892B89F010E0CE3F8FEFD80769F00023E1
:101D000061F160E070E0CB010E94973581E090E0E6
:101D1000892B59F322C011E026D5EC01892B21F043
:101D2000CE3F8FEFD80759F711111EC011E0229650
:101D300009F410E00E94BB22EC01892B21F0CE3F78
:101D40008FEFD807E1F6111111C011E0CE3F8FEFF0
:101D5000D80709F410E001110BC0CE01DF91CF913B
:101D60001F910F91FF90089511E0E4CF11E0F3CFA0
:101D700060E070E0CB010E9497351F25812F90E035
:101D8000C7CFCF93DF938091C404882321F060E014
:101D900070E0CB014DD636D6D0E0C0E0892B71F093
:101DA0006AE070E080E090E00E94973581E090DF8B
:101DB00029D62196C03D27E0D20781F728D60E9478
:101DC00076241092DC041092DB041092D504109259
:101DD000D6041092D7041092D8041092D104109215
:101DE000D2041092D3041092D4041092CD04109215
:101DF000CE041092CF041092D0041092C904109215
:101E0000CA041092CB041092CC041092C504109214
:101E1000C6041092C7041092C8044EEF5FEF6FEF34
:101E20007FEF40932A0250932B0260932C02709311
:101E30002D021092C404E8EBF4E028E0DF011D92CB
:101E40002A95E9F71092B4041092B5041092B604E2
:101E50001092B7041092B0041092B1041092B20420
:101E60001092B3041092AC041092AD041092AE0420
:101E70001092AF041092A8041092A9041092AA0420
:101E80001092AB04DF91CF9108951092E804109264
:101E9000E9041092EA041092EB041092E704809196
:101EA000F0049091F1049093E6048093E50410927D
:101EB000E4041092E3041092DF041092E004109204
:101EC000E1041092E2041092ED041092EC0490E010
:101ED00080E00895CF92DF92EF92FF920F931F93CD
:101EE000CF938C01019709F055C02091F0043091F7
:101EF000F1048091E5049091E6044091F004509142
:101F0000F1045093E6044093E5042817390781F063
:101F10001092E4041092E3041092DF041092E004A3
:101F20001092E1041092E2041092ED041092EC047D
:101F30008091F0049091F104019761F58091EC0497
:101F40009091ED04892B21F480912E02811112C011
:101F50008091EC049091ED040197E1F48091DF040D
:101F60009091E004A091E104B091E2040197A105F1
:101F7000B10581F41092DF041092E0041092E104A4
:101F80001092E20410922E0282E090E09093ED0411
:101F90008093EC048091F0049091F104019709F092
:101FA0001CC180910605909107058017910709F0E3
:101FB00014C18091020590910305A0910405B09190
:101FC0000505009709F409C12091010521110DC0F3
:101FD000409102055091030560910405709105053B
:101FE000452B462B472B09F4F8C02091EC04309187
:101FF000ED042230310509F0F0C02091E3042111F5
:10200000ECC0FC01C080D180E280F3808091E704C5
:10201000882309F4D3C08091F3049091F404892BB0
:1020200009F4FEC02091F3043091F40481E02230E1
:10203000310509F080E02091F3043091F404C1E00F
:102040002130310549F02091F3043091F404C1E0CE
:102050002230310509F0C0E0882309F456C02091F0
:10206000FD043091FE044091FF0450910005C7012A
:10207000B6010E944A2F87FD14C02091FD043091C3
:10208000FE044091FF04509100056091E8047091B6
:10209000E9048091EA049091EB040E945A2D87FD97
:1020A00022C02091FD043091FE044091FF04509124
:1020B0000005C701B6010E944A2F181634F5209179
:1020C000FD043091FE044091FF04509100056091A1
:1020D000E8047091E9048091EA049091EB040E9475
:1020E0005A2D811112C08091F5049091F604A091AF
:1020F000F704B091F804892B8A2B8B2B19F481E01B
:102100008093E40481E08093E304CC2309F456C077
:102110002091FD043091FE044091FF045091000590
:10212000C701B6010E945A2D87FF14C02091FD04FB
:102130003091FE044091FF04509100056091E80445
:102140007091E9048091EA049091EB040E944A2F77
:1021500087FF22C02091FD043091FE044091FF04CE
:1021600050910005C701B6010E945A2D811126C069
:102170002091FD043091FE044091FF045091000530
:102180006091E8047091E9048091EA049091EB0475
:102190000E944A2F181694F48091F5049091F60449
:1021A000A091F704B091F804892B8A2B8B2B19F49A
:1021B00081E08093E40481E08093E30481E09091E6
:1021C000E304911180E08093E704C092E804D09288
:1021D000E904E092EA04F092EB040130110509F001
:1021E00067C18091EC049091ED04892BD9F4109291
:1021F000F2041092E30480912E02882379F082E0A9
:1022000090E09093ED048093EC0410922E022091C4
:10221000F0043091F10481E0232BE9F080E01BC051
:1022200081E009CF10922E028091F204882349F0B8
:102230001092E4041092ED041092EC041092F20457
:10224000EDCF8091F0049091F104892BE1F0809121
:10225000E3041092E3042091EC043091ED04223069
:10226000310509F45EC088F42115310509F448C030
:102270002130310509F4F3C01092E4041092E30414
:102280001092F20438C081E0E6CF2330310509F422
:10229000B1C02430310581F74091DF045091E00452
:1022A0006091E1047091E2044115510561057105E9
:1022B00061F041505109610971094093DF04509365
:1022C000E0046093E1047093E2044091DF045091D4
:1022D000E0046091E1047091E204452B462B472B0A
:1022E000D9F42091EE043091EF042130310509F04A
:1022F00046C01092E4041092ED041092EC040CC05D
:1023000080912E02882341F082E090E09093ED04CA
:102310008093EC0410922E021092DD048091E4046C
:10232000CEC08823C9F38091F5049091F604A09162
:10233000F704B091F804181619061A061B060CF0DB
:102340007DC08091F0049091F104019709F076C06E
:102350008091F5049091F604A091F704B091F804EF
:102360008093DF049093E004A093E104B093E2042F
:1023700083E090E09093ED048093EC04CDCF409106
:10238000F9045091FA046091FB047091FC04452B10
:10239000462B472BA9F01092E4048091F904909108
:1023A000FA04A091FB04B091FC048093DF049093A5
:1023B000E004A093E104B093E20481E090E0DACF7E
:1023C000882399F080912F0290913002A0913102E0
:1023D000B09132028093DF049093E004A093E10473
:1023E000B093E20484E090E0C5CF1092E40482E070
:1023F00090E0C0CF8091DF049091E004A091E104CF
:10240000B091E2040097A105B10559F00197A10927
:10241000B1098093DF049093E004A093E104B093AA
:10242000E2048091DF049091E004A091E104B09176
:10243000E204892B8A2B8B2B09F06ECF80912F021F
:1024400090913002A0913102B0913202892B8A2BF7
:102450008B2B09F44ECF81E08093E404B3CF4091FD
:10246000DF045091E0046091E1047091E2044115B1
:1024700051056105710561F041505109610971090A
:102480004093DF045093E0046093E1047093E2040E
:102490004091DF045091E0046091E1047091E20406
:1024A000452B462B472B09F037CF8111C7CF9FCF44
:1024B0008091DD04882309F431CF8091DE04CF912F
:1024C0001F910F91FF90EF90DF90CF9008951092A1
:1024D000E8041092E9041092EA041092EB041092BE
:1024E000E7041092ED041092EC041092E6041092AE
:1024F000E50410920705109206051092E40410926C
:10250000E3041092DF041092E0041092E1041092B0
:10251000E2041092DE041092DD0410920205109283
:102520000305109204051092050510920105109202
:10253000FD041092FE041092FF041092000588EE34
:1025400093E0A0E0B0E080932F0290933002A0933C
:102550003102B09332021092F9041092FA041092F0
:10256000FB041092FC041092F5041092F6041092F1
:10257000F7041092F8041092F4041092F30481E02E
:1025800080932E021092F2041092F1041092F00443
:102590001092EF041092EE0490E080E00895809194
:1025A000F0049091F104892B19F580912E02882373
:1025B00051F08091F204811106C081E08093DE0425
:1025C0008093DD0408952091F20430912E0281E081
:1025D00090E0332311F090E080E030E082239323F9
:1025E000892B21F01092DE0481E0EACF1092DD0405
:1025F000089582E090E0FA01918380838FEF9FEF4E
:102600000895CF93DF93EA01009711F00E949F2570
:102610001982188290E080E0DF91CF910895DB016C
:10262000009719F48FEF8C9308952EEF2C93FC01F3
:102630003F96EF30F10508F034C08827ED5DFC4E81
:102640008F4F0C947C3B4F134D134B13491347137F
:102650004313451341133F133D133A1336133213FB
:102660003813511380E311968C93089589E2FBCFC0
:1026700082E2F9CF11961C92089583E2F4CF81E2B1
:10268000F2CF81E1F0CF87E2EECF8AE2ECCF80E1BA
:10269000EACF84E2E8CF88E2E6CF86E2E4CF81E3C6
:1026A000E2CF80E2E0CF8091140590911505089566
:1026B000909315058093140508958091130508954E
:1026C00090911305892B809313050895982F909569
:1026D0008091130589238093130508958091120535
:1026E0000895809110059091110508956115710567
:1026F00059F0FB0130E020E070E060E0241735077E
:1027000019F06115710511F0CB010895A081B18117
:10271000A817B90709F4BF012F5F3F4F3696EECFD8
:102720008091160581111CC060D266D29093090574
:10273000809308050E94A31D0E94B51D90930D056E
:1027400080930C050E9423220E942A2290930B055D
:1027500080930A0581E08093160590E080E008955B
:1027600084EF9FEF08958F929F92AF92BF92CF9286
:10277000DF92EF92FF920F931F93CF93DF9300D0DE
:1027800000D000D01F92CDB7DEB71A861986188602
:102790001F821E821D821C821B821A8219828091D6
:1027A000160507EF1FEF882309F49CC08E010D5F0B
:1027B0001F4F9E012B5F3F4FAE01495F5F4FBE0130
:1027C000675F7F4F90E080E00E94A7238C01009715
:1027D00021F00596029708F0DBC029853A8521157E
:1027E000310509F402C1ED80FE804B815C81B701A7
:1027F000640F751F8F8198858617970708F4F5C0B9
:10280000E20EF31ED7019C91903C09F07FC042304C
:10281000510508F47BC011968C914091140550919C
:102820001505452B09F49CC0913F08F071C02CE1BF
:10283000290F2D3008F48BC02DE2290F203108F428
:1028400089C0903C21F48150823008F483C088E331
:10285000890F8B3008F481C09FE0C92E93E1D92EF7
:10286000E9EFF2E16D817E81AE014F5F5F4F8985B7
:102870009A8519955C01C114D104A1F189809A80CF
:102880008114910479F18B819C818815990508F454
:1028900087C010E000E04B815C8170E060E0C70120
:1028A0000E94B23B01151105E9F449815A816985FD
:1028B0007A858D819E81680F791FC501F601199572
:1028C000E980FA800D811E812F81388549855A85DE
:1028D0006FEF7FEF81E090E00E9442238C01892B13
:1028E00009F056C0C8012A960FB6F894DEBF0FBE95
:1028F000CDBFDF91CF911F910F91FF90EF90DF90AF
:10290000CF90BF90AF909F908F90089580E085CF3B
:1029100030E020E0220F331FF901E85FFA4F019009
:10292000F081E02D309709F497CF892F90E0199529
:10293000009709F491CFDC011296ED91FC91139769
:102940001496CD90DC90309709F08CCF1FC021E019
:1029500030E0E0CF22E030E0DDCF23E030E0DACF3E
:10296000D12CC12CE1E0F3E19F3F09F07BCFE09156
:102970000805F0910905309721F4C90104EF1FEF14
:102980000CC08FEF90E019950097A9F604EF1FEFA8
:1029900089859A85009709F4A5CF0E949F25A2CF2B
:1029A0000E9471248C0189859A850E949F2570E080
:1029B00060E0C4010E940A2498878F830E943F230D
:1029C0009E838D836F8178856115710559F0C801EB
:1029D0000E9402279A87898706EF1FEF892B09F04B
:1029E00058CF59CF08EF1FEF56CF08EF1FEFD0CFCA
:1029F00020911605222319F020E00C94BA1D87EFD0
:102A00009FEF0895809114059091150508950E94F7
:102A10002F220E948921F5D0E8E0F5E088E0DF016F
:102A20001D928A95E9F71092160590E080E00895CE
:102A30000C94E81F21E040E050E0BA010C94BA1D6C
:102A400086E090E0FA019183808390E080E0089531
:102A500047E050E068EF72E049CEDF92EF92FF92DC
:102A60000F931F93CF93DF938A01EC01C60FD71FFB
:102A7000E0901A05F0901B05D9800E945924D816C1
:102A8000190678F082E090E0F801918380838EEF60
:102A90009FEFDF91CF911F910F91FF90EF90DF900B
:102AA0000895EF2841F482E090E0F801918380835B
:102AB00084EF9FEFEECF89818093190590E0019616
:102AC000F8019183808390E080E0E3CFCF93DF93A0
:102AD000EA010E949920882321F00E9466240E9426
:102AE0009A2082E090E0998388838BEF9FEFDF91BB
:102AF000CF910895CF93DF93EB0186E0FB01119214
:102B00008A95E9F78FEF8883D8DD8983E7DD8A83AB
:102B1000E8DD9D838C83DF91CF910895CF93DF9380
:102B2000EA010E949C20811109C082E090E0998313
:102B3000888385EF9FEFDF91CF91089590E080E04B
:102B4000B7DD81E090E09983888390E080E0F3CF67
:102B50000F931F93CF93DF93EA018C01060F171F8A
:102B60000E949C2081110BC082E090E099838883B1
:102B700085EF9FEFDF91CF911F910F910895F8019D
:102B80008181823038F082E090E0998388838EEFF3
:102B90009FEFF0CF81E090E08BDD88E090E09983BB
:102BA000888390E080E0E6CFCF93DF930097D1F465
:102BB000EB01FB01329686E0DF011D928A95E9F771
:102BC0008FEF888385E089831A820E9459248B8342
:102BD0000E9458249D838C8381E08E838F83DF91B4
:102BE000CF910895DF91CF911ACD88E295E190932E
:102BF0001805809317050895809117059091180581
:102C000008951092180510921705089580911A05DD
:102C100090911B050895411105C06115710581054D
:102C2000910561F060931A0570931B0580931C0554
:102C300090931D0540931E0581E0089580E008955E
:102C4000FF920F931F93CF93DF938A01EC01C60F7E
:102C5000D71FF9800E945924F816190668F082E0FF
:102C600090E0F801918380838EEF9FEFDF91CF9109
:102C70001F910F91FF9008956C817D818E819F81BE
:102C80004B81C9DF811108C082E090E0F801918397
:102C9000808384EF9FEFEACF89818093190590E0CC
:102CA0000196F8019183808390E080E0DFCFCF939D
:102CB000DF93EA01FC01E60FF71F648175818681CD
:102CC00097814381A8DF811109C082E090E0998358
:102CD000888384EF9FEFDF91CF91089581E090E0AA
:102CE0009983888390E080E0F6CFEAE1F5E04081C7
:102CF000518162817381480F511D611D711D408397
:102D00005183628373830895CF93C09119054C2F2B
:102D100050E060911A0570911B0501960E94A93B35
:102D20008C2FE3DF10921905CF910895009799F445
:102D300080911A0590911B052FEFFB012083892BB1
:102D400059F02091190530E02F5F3F4F24173507C8
:102D500019F4CB01D9CF63CC0895009799F48091F1
:102D60001A0590911B052FEFFB012083892B59F049
:102D70002091190530E02F5F3F4F2417350719F4D4
:102D8000CB01C2CF4CCC089523E1AC01249FC001FC
:102D9000259F900D1124E0912305F0912405E80F63
:102DA000F91F238134812250310981E0223031051D
:102DB00008F080E008950F931F93CF93DF93009165
:102DC000250510912605D0E0C0E080E00C171D0716
:102DD00049F491E0811190E0892FDF91CF911F910B
:102DE0000F9108958111F5CFCE01CEDF2196EECF60
:102DF000A0912305B0912405109729F12091250574
:102E00003091260582179307F0F453E1589F900103
:102E1000599F300D1124A20FB31FED91FC91119712
:102E2000309789F012968C91681768F48BE0689F50
:102E3000E00DF11D112480819181892B21F081E029
:102E40009281491708F080E008959C0143E1429F78
:102E5000C001439F900D1124E0912305F0912405BA
:102E6000E80FF91F8385823099F481E090E0658155
:102E7000768140913302509134026417750711F442
:102E800090E080E0892B21F081E02330310508F0CB
:102E900080E00895EF92FF920F931F93CF93DF93FB
:102EA000EA01FC01E60FF71F02811381E480F5803F
:102EB0004F2D6E2DC8019CDF81110DC082E090E086
:102EC000998388838EEF9FEFDF91CF911F910F91B0
:102ED000FF90EF900895C80157DF882339F082E012
:102EE00090E09983888388EF9FEFEECF10933A02AA
:102EF00000933902E0923B02F0923C0281E090E0C4
:102F00009983888390E080E0DFCFCF92DF92EF92C9
:102F1000FF920F931F93CF93DF937A01EC01C60FBB
:102F2000D71FC0903902D0903A0200913B02109115
:102F30003C02412F602FC6015BDF811110C082E08F
:102F400090E0F701918380838AEF9FEFDF91CF912B
:102F50001F910F91FF90EF90DF90CF900895C601E1
:102F600013DF882341F082E090E0F70191838083B2
:102F700088EF9FEFEBCF4C815D816E817F819A81DD
:102F800089818F3F41F082E090E0F7019183808357
:102F90008EEF9FEFDBCFE3E1EC9D9001ED9D300DD7
:102FA0001124E0912305F0912405E20FF31F019015
:102FB000F081E02D2BE0029FE00DF11D1124019026
:102FC000F081E02D27E0129FE00DF11D1124808398
:102FD00091838B81828343835483658376831F5FD0
:102FE00010933C0281E090E0F7019183808390E0B0
:102FF00080E0ACCFEF92FF920F931F93CF93DF93BC
:103000007A018C01060F171FC0912305D09124056A
:10301000209781F021E030E0F80182819381409196
:103020002505509126058417950710F030E020E023
:10303000232B71F482E090E0F701918380838EEF7F
:103040009FEFDF91CF911F910F91FF90EF90089527
:1030500043E1489F9001499F300D1124C20FD31FB7
:1030600093DE882341F082E090E0F7019183808332
:1030700088EF9FEFE6CFF8012481358120383105B4
:10308000C8F687818111D6CF4181842F90E08F7E51
:10309000009741F082E090E0F7019183808386EF12
:1030A0009FEFCFCF4F833E832D83268128871986BC
:1030B000223010F421E0288721E030E0F70131834D
:1030C0002083BFCF88E090E0FA019183808390E075
:1030D00080E00895FB018FEF808381E181838FEF92
:1030E0009FEF9383828380E890E0958384831682A8
:1030F00017820895FB018FEF808391E09183828393
:103100009383848384E3858381E090E0978386833F
:103110000895BF92CF92DF92EF92FF920F931F9389
:10312000CF93DF93DA01FC01E60FF71F8181813035
:1031300081F082E090E08D939C938FEF9FEFDF9181
:10314000CF911F910F91FF90EF90DF90CF90BF90A4
:103150000895C281D381B480858106811781E09072
:103160002305F0902405E114F10439F482E090E0A5
:103170008D939C938CEF9FEFE2CF209125053091AA
:103180002605C217D30738F082E090E08D939C9318
:103190008EEF9FEFD4CFC330D10538F082E090E0BE
:1031A0008D939C9386EF9FEFCACF9B2D9D7FB1F7A8
:1031B0008130A1F7B11005C00130110531F080E078
:1031C00004C081E002301105D0F3882339F36D018A
:1031D000CE01DADD882341F082E090E0F6019183B0
:1031E000808388EF9FEFABCF83E18C9FF0018D9FB1
:1031F000F00D1124EE0DFF1DB38681E08487168744
:103200000587108A178681E090E0F601918380831C
:1032100090E080E094CF4CE050E062E273E066CA58
:103220008F929F92BF92CF92DF92EF92FF920F9375
:103230001F93CF93DF93EA01FC01E60FF71F828112
:1032400093810481B580E0912305F09124053097A6
:1032500091F482E090E0998388838CEF9FEFDF9177
:10326000CF911F910F91FF90EF90DF90CF90BF9083
:103270009F908F9008952091250530912605821703
:10328000930738F082E090E0998388838EEF9FEF78
:10329000E6CF23E1289F6001299FD00C1124EC0D7B
:1032A000FD1DE080F180E114F10499F2828108179C
:1032B00048F78BE0089F80011124E00EF11EF70112
:1032C00080819181892B29F6BB20E1F2F7E0BF9E36
:1032D00040011124C4010E945125F701918380838C
:1032E000E0912305F0912405EC0DFD1D0190F08186
:1032F000E02DE00FF11F80819181009739F482E089
:1033000090E0998388838DEF9FEFA9CFA40170E0AF
:1033100060E00E94B23B8091230590912405C80E85
:10332000D91EF60180819181080F191FF801B28220
:1033300081E090E09983888390E080E090CFAF9225
:10334000BF92CF92DF92FF920F931F93CF93DF93A1
:10335000EA01FC01E60FF71F82819381F48000915E
:103360002305109124050115110581F482E090E0F8
:10337000998388838CEF9FEFDF91CF911F910F91FD
:10338000FF90DF90CF90BF90AF90089520912505DA
:10339000309126058217930738F082E090E09983F8
:1033A00088838EEF9FEFE8CF2FEF2F0D2C3FA8F7EC
:1033B00023E1289F6001299FD00C11240C0D1D1DB5
:1033C000F80180819181892B89F6FBE0FF9E5001F5
:1033D0001124C5010E945125F80191838083E09159
:1033E0002305F0912405EC0DFD1D8081918100974E
:1033F00039F482E090E0998388838DEF9FEFBCCF12
:10340000A50170E060E00E94B23BE0912305F091DD
:103410002405EC0DFD1DF28281E090E09983888304
:1034200090E080E0A9CFCF92DF92EF92FF920F93CE
:103430001F93CF93DF93860F971FFC0102811381A7
:103440008091230590912405892B81F082E090E002
:10345000FA01918380838CEF9FEFDF91CF911F91D1
:103460000F91FF90EF90DF90CF900895C801B0E0EA
:10347000A0E00197A109B1098F3F9F4FA105B105B8
:1034800040F082E090E0FA01918380838EEF9FEF1D
:10349000E4CF7A0183E1809F6001819FD00C1124E9
:1034A000C6010E945125EC01009741F482E090E0B2
:1034B000F701918380838DEF9FEFCFCFA60170E05E
:1034C00060E00E94B23BD0932405C0932305109383
:1034D00026050093250590E080E02FEF3FEF41E0C7
:1034E00061E070E08017910741F481E090E0F7011E
:1034F0009183808390E080E0B0CF3A8B298B1B864C
:103500004C877E876D87188A1F8601966396EACF5F
:10351000CF92DF92EF92FF920F931F93CF93DF939F
:10352000EC01D12CC12C10E000E0F12CE12C6A81DF
:103530006017110609F0CCF483E0689FB0011124F4
:10354000AE014F5E5F4FC7010E94CB25009721F06F
:103550002FEF3FEF3A8B298BDF91CF911F910F9186
:10356000FF90EF90DF90CF900895E881F981EC0D06
:10357000FD1D438154818D859E85489F9001499F03
:10358000300D589F300D1124C90101960115110508
:1035900019F44F8144FD049661E070E00E940A2412
:1035A000E816F90608F47C010F5F1F4F8BE0C80E88
:1035B000D11CBDCFF894209121053091220581E0E6
:1035C0002115310509F080E0232B09F07894089546
:1035D0002F923F924F925F926F927F928F929F9223
:1035E000AF92BF92CF92DF92EF92FF920F931F9311
:1035F000CF93DF933C01660E771EF30182819381A6
:103600004C01B12CA12CC0912305D0912405209709
:1036100069F021E030E0609125057091260586175C
:10362000970710F030E020E0232BD1F482E090E007
:10363000FA01918380838EEF9FEFDF91CF911F91ED
:103640000F91FF90EF90DF90CF90BF90AF909F9041
:103650008F907F906F905F904F903F902F90089544
:1036600080923D0290923E02A0923F02B0924002B0
:1036700063E1689F9001699F300D1124C20FD31F31
:10368000F3018181833040F082E090E0FA01918380
:10369000808386EF9FEFD1CF2A012B813C81232BA2
:1036A000F1F4288139819F8191FF2EC0232B09F4E9
:1036B0006FC0209128059A81422F490F5527551F29
:1036C000BA0141E050E06138710514F050E040E08B
:1036D000452B09F45DC02A87920F909328058150ED
:1036E000823008F481C066DF882309F4D8C0F30172
:1036F0008181813009F48DC008F47BC0823009F4E7
:10370000C6C090E080E0ADC0232B09F441C02091F9
:1037100027059A81E22FE90FFF27FF1F41E050E0C4
:10372000ED3FF10514F050E040E0452B89F12A8788
:10373000920F90932705D3CFA081B181A20FB31F21
:1037400011966C91060F111D0196295F3F4F84174A
:10375000950794F38D859E85089F1001099F300C75
:10376000189F300C1124C114D104D1F48F8184FF2F
:1037700017C00E945824F5E02F0E311C21E082155D
:10378000930508F420E0A701455F5F4F21110EC0AB
:1037900082E090E0F2019183808387EF9FEF4DCF2D
:1037A0000E9458242FEF221A320AE8CF888199818B
:1037B000E80EF91EF70114830383FFEFCF1ADF0A27
:1037C0007A018A818C151D0409F00CF48CCFE881F4
:1037D000F981EE0DFF1D428150E030E020E010E065
:1037E00000E090E080E0B3CFF12CE12CD12CC12C93
:1037F000E8CF81E090E09C838B83DDDA882309F4B5
:1038000080CF81E090E00E94581380E40E9466130C
:1038100078CF89899A89019661F083E090E09C8352
:103820008B8382E090E00E94581380E40E94601332
:1038300068CF2D813E818091330290913402281708
:103840003907D1F46091370270913802AE014F5EB2
:103850005F4F80913502909136020E94C1260097F9
:10386000E1F2789422E030E0F20131832083892B69
:1038700099F08DEF9FEFE1CE23E082169104A10431
:10388000B1045CF6CE0144DE188A1F86E8CF82E0E0
:1038900090E09C838B8335CF90E080E0CECE82E0B9
:1038A00090E0F2019183808385EF9FEFC6CE8F92E7
:1038B0009F92AF92BF92CF92DF92EF92FF920F93BF
:1038C0001F93CF93DF93EA018C01060F171FF801B6
:1038D0008181833098F082E090E09983888386EF3D
:1038E0009FEFDF91CF911F910F91FF90EF90DF90AD
:1038F000CF90BF90AF909F908F90089580912305B7
:1039000090912405892B61F081E090E020912505BC
:1039100030912605232B11F490E080E0892B39F4B7
:1039200082E090E0998388838EEF9FEFDACF42DECA
:10393000882309F4DEC0F8018181813009F494C044
:10394000E8F0823099F42091250530912605E09128
:103950002305F091240590E080E041E050E0281735
:10396000390709F0BCC027DA811117C0789481E0CB
:1039700090E09983888390E080E0B3CF2091250583
:1039800030912605E0912305F091240590E080E038
:1039900041E050E02817390741F481E090E00E94AF
:1039A000581380E40E946613E1CF63817481672B12
:1039B00011F05483438301967396ECCFE091230575
:1039C000F0912405E00FF11F23813481223031056D
:1039D000D9F4218932892F3F3F4FB1F44581568177
:1039E00020913302309134024217530761F5AF0141
:1039F0004F5E5F4F609137027091380280913502BF
:103A0000909136020E94C1264FEFC41AD40AE40AEC
:103A1000F40A0D5E1F4F409125055091260570E078
:103A200060E0C416D506E606F70634F5009731F2D5
:103A30007894892B09F49BCF82E090E09983888366
:103A40008DEF9FEF4ECF23E0C216D104E104F104C5
:103A5000DCF6CF015DDDE0912305F0912405E00F58
:103A6000F11F108A1786D0CF10E000E090E080E0D0
:103A7000C12CD12C7601CFCF0097D1F610E000E019
:103A8000812C912C540183E0E82EF12C1AC0E09196
:103A90002305F0912405E00FF11F838194810297A3
:103AA00049F4F482E38282E090E00E94581380E4BB
:103AB0000E9460138FEF881A980AA80AB80A0D5E50
:103AC0001F4F8091250590912605B0E0A0E0881653
:103AD0009906AA06BB06DCF290E080E0A9CF6381DC
:103AE00074816230710511F4548343830196739697
:103AF00036CF82E090E09983888385EF9FEFF1CE07
:103B00000097B9F48FEFFB01808320913D02309143
:103B10003E0243E1429FC001439F900D1124E0917A
:103B20002305F0912405E80FF91F8285FB018183AD
:103B300008950C940F1388E090E0FA01918380833C
:103B400090E080E008951092220510922105E3E2B2
:103B5000F5E086E0DF011D928A95E9F78BE099E1B7
:103B60009093200580931F05089580911F059091E3
:103B7000200508952F923F924F925F926F927F920D
:103B80008F929F92AF92BF92CF92DF92EF92FF926D
:103B90000F931F93CF93DF93CDB7DEB760970FB628
:103BA000F894DEBF0FBECDBFF894E0912105F091EF
:103BB00022053196F0932205E09321057894A09197
:103BC0002305B0912405BA83A983109709F4FAC19B
:103BD000E0912505F0912605EF2B09F4F3C1288724
:103BE0004B875C876D877E879A878987B88BAF877D
:103BF000312C212CF12C512C412C809125059091B8
:103C000026052816390610F4FF2029F1F894809132
:103C1000210590912205019790932205809321051B
:103C20007894C20160960FB6F894DEBF0FBECDBF88
:103C3000DF91CF911F910F91FF90EF90DF90CF9088
:103C4000BF90AF909F908F907F906F905F904F90BC
:103C50003F902F900895B10190E080E087D4682EC6
:103C6000EF85F889878181FD3DC083819481039729
:103C7000C9F5258136813C832B8389859A85281750
:103C8000390781F5C101E1D8782E8823A9F1AF85E4
:103C9000B8891F968D919C915097019621E01D96B1
:103CA0004D915C918417950709F020E02F83B12C8A
:103CB000A12CEF85F88982818A151B0419F014F074
:103CC000FF20E9F0F885FF2309F46CC1AF85B889BE
:103CD00050961C921E921F97662021F0B10190E031
:103CE00080E046D4FFEF2F1A3F0A2F8538892D5EDA
:103CF0003F4F388B2F8781CFB1E0BF83D8CFBFD460
:103D00009E838D83E885EE23E9F0772009F43CC19A
:103D1000AF85B8891F968D919C91892B79F0BBE076
:103D2000BA9DC001BB9D900D1124AF85B889ED915E
:103D3000FC91E80FF91F8581968101D7BFEFAB1A7F
:103D4000BB0AB7CF81E0772039F0EF85F889278566
:103D50003089232B09F080E0F82EE12CA114B10466
:103D600039F4AF85B8891796EC90E4FAEE24E0F8C0
:103D7000BBE0BA9D6001BB9DD00C1124882309F4DF
:103D800024C1AF85B889ED91FC911197EC0DFD1D13
:103D9000438154811D962D913C91429FC001439FC8
:103DA000900D529F900D1124E1105DC001969087F7
:103DB000878361E070E0878190852CD5EF85F88955
:103DC00021893289008111810C0D1D1D2F3F320781
:103DD00009F44BC0BC01C9010E940227D801169604
:103DE0009C938E931597AF85B889ED91FC911197AF
:103DF000EC0DFD1D058116810115110509F4CDC0DD
:103E0000ED81FE810E0F1F1F1A968C918A0DD8012D
:103E10008C93E1102FC00F5F1F4FAF85B889ED91D4
:103E2000FC91EC0DFD1D12870187AF85B889ED91DE
:103E3000FC91EC0DFD1D85819681892B09F4A4C0B0
:103E400080913302909134022B813C8128173907ED
:103E500009F465C0772011F001851285912C812C21
:103E60001A8219824AC00596A2CF1BD6F801968302
:103E70008583B9CF8B859C85AD85BE85F80181830F
:103E80009283A383B4830B5F1F4FC7CFE080F18081
:103E9000E80CF91CD70113966D917C9114978C91C5
:103EA0008F3F09F473C0E1E0F0E002C0EE0FFF1FA6
:103EB0008A95E2F7CF01092E000CAA0BBB0BFB0180
:103EC000408151816281738184239523A623B72386
:103ED00021E0892B8A2B8B2B09F420E0D8012C932D
:103EE000D70111968C91080F111DE981FA81319645
:103EF000FA83E983F7E08F0E911CAF85B889ED91C5
:103F0000FC91EC0DFD1D828129813A8182171306F7
:103F100011F00CF0BBCF772011F0128701873F81A1
:103F2000332391F1AF85B889ED91FC91EC0DFD1D26
:103F300061E070E0878190856DD4AF85B889ED919F
:103F4000FC91EC0DFD1DE780F08445815681E1E098
:103F5000F0E0662011F0F0E0E0E00D811E819C01B0
:103F6000B101882799278E1B9F0B8CD32C01892B9D
:103F700059F0EF85F88980819181C80ED91ED6014C
:103F800015968D919C91DBD5F12CD8CEF70141810E
:103F900050E0C8010E94A93BA3CF86EF482E5524CC
:103FA0005A94CCCEEF85F889878590890196908BBD
:103FB0008787258536858217930709F08DCE108A6D
:103FC00017868ACE512C412C21CE10E000E02DCF57
:103FD0002F923F924F925F926F927F928F929F9219
:103FE000AF92BF92CF92DF92EF92FF920F931F9307
:103FF000CF93DF93809123059091240510E000E09A
:10400000892BA9F0D7DA0AEF1FEF882381F02090DF
:10401000250530902605C0912305D0912405D12C8B
:10402000C12C10E000E02C143D04A9F47894C801E0
:10403000DF91CF911F910F91FF90EF90DF90CF9084
:10404000BF90AF909F908F907F906F905F904F90B8
:104050003F902F900895C6010E942517882309F1EB
:104060008B819C810397E9F48F859889892BC9F00E
:10407000B60190E080E07AD221E030E0882311F0B0
:1040800030E020E044245524421A530AB12CA12CDC
:10409000912C812C8A818815190409F038F4188A2A
:1040A0001F864FEFC41AD40A6396BDCFE881F98109
:1040B000EA0DFB1D85819681892BA1F161E070E0FD
:1040C00087819085A7D33C01DAD28C01E881F98100
:1040D000EA0DFB1D8185928525813681200F311FD8
:1040E000AC01421B530B9A0147815085421B530B75
:1040F00070E060E00E94B23BE881F981EA0DFB1DAF
:10410000E780F084458156819301B601C201BAD29D
:104110008C01892B39F0E881F981EA0DFB1D85813D
:1041200096810DD55FEF851A950A8BE0A80EB11C1C
:10413000B1CF40CA789408952F923F924F925F92E8
:104140006F927F929F92AF92BF92CF92DF92EF9247
:10415000FF920F931F93CF93DF9300D000D0CDB782
:10416000DEB700912305109124059924939401153D
:10417000110509F43EC0A0902505B09026051ADA75
:10418000982E8823B1F110922405109223051092E5
:1041900026051092250510922705109228058FEF0D
:1041A0009FEFDC0180933D0290933E02A0933F027B
:1041B000B093400278947ED31E830D83C12CD12C02
:1041C0007601C501B0E0A0E089839A83AB83BC830C
:1041D00022242A94322C89819A81AB81BC81C81611
:1041E000D906EA06FB06F4F0C801A9D480E40E94CF
:1041F0006613892D26960FB6F894DEBF0FBECDBF8D
:10420000DF91CF911F910F91FF90EF90DF90CF90B2
:10421000BF90AF909F907F906F905F904F903F9036
:104220002F900895AD81BE8115962D913C911697E2
:10423000809133029091340228173907D1F45196B6
:104240008D919C91CDD5ED81FE8180819181B12CA4
:10425000A12C412C512C3201892B81F5BFEFCB1AB7
:10426000DB0AEB0AFB0AED81FE817396FE83ED8388
:10427000B2CFB3E0CB16D104E104F10424F7ED8111
:10428000FE81818992898F3F980709F020D5AD8101
:10429000BE8152963C922E925197D5CF8A0D9B1D8E
:1042A000DC018D919C91009709F049D4BFEF4B1A26
:1042B0005B0A6B0A7B0AEBE0AE0EB11CAD81BE81DE
:1042C0008D919C91119712964C9150E070E060E0B6
:1042D00044165506660677060CF331D4BFCFCF934C
:1042E000DF93EA0129DF811109C082E090E0998320
:1042F000888385EF9FEFDF91CF91089581E090E073
:104300000E94581381E090E09983888390E080E0D8
:10431000F2CF12DF1092200510921F05089542E09F
:1043200050E06AE673E00C947613FF920F931F93AC
:10433000CF93DF938A01EC01C60FD71FF980B9D262
:104340000897F816190671F068F082E090E0F8011D
:10435000918380838EEF9FEFDF91CF911F910F911B
:10436000FF9008956C817D818E819F814B810E9499
:104370000B16811108C082E090E0F80191838083E0
:1043800084EF9FEFE9CFF9800E9406164F2D50E091
:10439000BE01685F7F4F0E94A93B89810E9475160C
:1043A00081E090E0F8019183808390E080E0D4CFB9
:1043B000DF92EF92FF920F931F93CF93DF938A01C7
:1043C000EC01C60FD71F0E9406167C01D98071D25E
:1043D000DD2059F0029721E030E0D816190619F0D7
:1043E00010F030E020E0232B79F482E090E0F80137
:1043F000918380838EEF9FEFDF91CF911F910F917B
:10440000FF90EF90DF900895EF2841F482E090E074
:10441000F8019183808384EF9FEFEECFF9800E94B3
:1044200006164F2D50E0BE016E5F7F4F0E94A93BE4
:1044300089810E94751681E090E0F8019183808364
:1044400090E080E0D9CF8FE891E290932A058093A5
:10445000290508958091290590912A0508950895C8
:10446000FC0111821082938382830895DB011D92E7
:104470001C92DC011296ED91FC911397718360837D
:1044800013967C936E9312970895FC01808191811D
:10449000DB018D939C93A081B181109741F08D91A8
:1044A0009C9191838083892B11F4F383E283089597
:1044B000FC0180819181DB018D939C93892B11F408
:1044C00073836283718360830895FC01118210827B
:1044D000938382830895CF93DF931F921F92CDB76A
:1044E000DEB71A821982F894BE016F5F7F4F80E3B6
:1044F00095E0CBDF89819A81009709F020D38981EB
:104500009A81892B89F7BE016F5F7F4F84E395E025
:10451000BCDF89819A81009709F011D389819A8142
:10452000892B89F778940F900F90DF91CF910895A0
:10453000CF93DF931F921F92CDB7DEB71A821982F5
:10454000F894BE016F5F7F4F8CE295E09EDF89811A
:104550009A81009709F0F3D289819A81892B89F792
:1045600078940F900F90DF91CF91089581E0089596
:1045700090E080E00895EF92FF920F931F93CF9306
:10458000DF931F921F92CDB7DEB71A8219828091F6
:104590002B0507EF1FEF8823A1F1F894BE016F5F91
:1045A0007F4F84E395E071DF789489819A81EE24CE
:1045B000E394F12C892B51F4F894BE016F5F7F4F87
:1045C00080E395E062DF7894F12CE12C89819A8177
:1045D0000EEF1FEF0097A9F0FC014281538164E0C8
:1045E00070E010D68C01892B61F0F89469817A8192
:1045F000C701880F991F880F991F805D9A4F58DF58
:104600007894C8010F900F90DF91CF911F910F9177
:10461000FF90EF9008950F931F93CF93DF9300D0F7
:104620001F92CDB7DEB71C821B821A82198280913D
:104630002B0507EF1FEF8823C1F0AE014D5F5F4FE1
:1046400064E070E0CE01019650D68C01892B69F4AC
:10465000E981FA818B819C8193838283F8946981BB
:104660007A818CE295E002DF7894C8010F900F9078
:104670000F900F90DF91CF911F910F91089555D713
:10468000049608958F929F92AF92BF92CF92DF923D
:10469000EF92FF920F931F93CF93DF931F921F927E
:1046A000CDB7DEB71A821982BC016F5F7F4F6330CE
:1046B000710598F0AA24AA94BA2CC5010F900F9006
:1046C000DF91CF911F910F91FF90EF90DF90CF90EE
:1046D000BF90AF909F908F9008954115510551F371
:1046E000480159018A016C01CADF8815990511F743
:1046F000E114F104F9F28E0D9F1DA816B906D0F24F
:1047000080912B058823F1F0F894B501645071096C
:104710009701AE014F5F5F4FC80104967BD65C01E5
:10472000892B71F489819A81F80193838283C60170
:10473000880F991F880F991FB801805D9A4F96DEE8
:104740007894BBCF87EFA82EBB24BA94B6CFAF9294
:10475000BF92CF92DF92EF92FF920F931F93CF936E
:10476000DF931F921F92CDB7DEB71A821982892B71
:1047700009F047C06115710509F443C041155105A1
:1047800009F43FC02115310509F43BC0011511059D
:10479000C1F180912B058823B9F179016A015B0190
:1047A000F894BE016F5F7F4F8CE295E06EDE7894E7
:1047B00089819A81009759F1DC0112966D917C9163
:1047C000A801049640D68C01E981FA81D501ED93C8
:1047D000FC93828193810496F601918380834FDF5D
:1047E000D7018D939C93C8010F900F90DF91CF91CB
:1047F0001F910F91FF90EF90DF90CF90BF90AF90FF
:1048000008950FEF1FEFEFCF07EF1FEFECCF0EEF85
:104810001FEFE9CFCF93DF93EC01672B71F48ED6B6
:104820008C179D0760F081D62496C80FD91F80D6BB
:104830008C0F9D1FDF91CF9108957DD6F1CF90E031
:1048400080E0F8CF0F931F93CF93DF9320912B0538
:1048500021112BC08B01EC0180E395E001DE84E3A4
:1048600095E0FEDD8CE295E0FBDD97D00097C1F48A
:1048700065D670E060E0CEDF41E452E062E070E0D7
:104880008AD1009769F4809141029091420268D6E2
:10489000B801CE019DD4009719F421E020932B0597
:1048A000DF91CF911F910F91089584EF9FEFF8CF83
:1048B00042C644C6CF93DF9344D6EC01892B11F452
:1048C0000ADE36DECE01DF91CF910895CF93DF93DC
:1048D00038D6EC01892B09F4FEDDCE01DF91CF91B2
:1048E000089580914102909142020895CF93DF9301
:1048F00080912B05D0E0C0E08823D1F036D6EC01C2
:10490000892BB1F4E8DD14DE8091410290914202DE
:10491000DED1C8D2EC01892B59F480E395E0D5DDD6
:1049200084E395E0D2DD8CE295E0CFDD10922B059B
:10493000CE01DF91CF910895EF92FF920F931F93D5
:10494000CF93DF93EC017A018B010F5F1F4F0E9D18
:10495000A0010F9D500D1E9D500D112470E060E0D0
:104960000E94B23B90E080E0F0E0E0E02FEFE8163C
:10497000F90639F4DF91CF911F910F91FF90EF90DD
:1049800008951A8219822883309711F0D283C18347
:104990000196FE01C00FD11FEACFAF92BF92CF9216
:1049A000DF92EF92FF920F931F93CF93DF938DE3EC
:1049B00096E07C012CEFE22286E7C82E83E0D82E19
:1049C0009CE7A92E93E0B92EC4EAD6E08E01D60169
:1049D0004D915D916D01F501619171915F01D8017A
:1049E0001196FC92EE9215965C934E931497139643
:1049F0005C934E93129717967C936E9316979B0138
:104A00002F5F3F4F249FC001259F900D349F900D35
:104A1000112419969C938E931897E114F10411F0C8
:104A2000C7018ADFF80180859185E80EF91E065FCF
:104A30001F4FFCE7CF16F3E0DF0649F6EAE3F5E0A7
:104A400080E091E0DF019C011D9221503040E1F7B0
:104A500010923905109238058CEC96E01F8E1E8E50
:104A60001BA21AA219A218A21DA21CA21FA21EA25A
:104A70002A968C179D0791F71092A1061092A00616
:104A80001092A3061092A20690E080E0DF91CF91F1
:104A90001F910F91FF90EF90DF90CF90BF90AF905C
:104AA0000895009799F1F8948131910550F480911F
:104AB000A6069091A706892B39F020E090E080E0CF
:104AC00018C08132910550F48091B0069091B106E2
:104AD000892B31F021E081E090E00BC0C197A8F470
:104AE0008091BA069091BB06892B79F022E082E092
:104AF00090E0EAE0E89FD001E99FB00D1124AC55A9
:104B0000B94F8D919C91009721F4789490E080E0CA
:104B10000895E29FF0011124EC55F94FDC01119644
:104B20004D915C91518340834281538141505109A1
:104B300053834283FC012193CF0178940895009719
:104B400049F1DC018E91873041F4E091A206F091A9
:104B5000A3063097F9F0CD0119948730D8F4282FA7
:104B600030E0F8948FEF8C938AE0829FF001839F6E
:104B7000F00D1124EC55F94F8081918112969C9390
:104B80008E931197B183A083828193810196938341
:104B9000828378940895CF92DF92EF92FF920F93E1
:104BA0001F93CF93DF939C018DE395E08C7F41159C
:104BB000510509F489C02115310509F485C0611535
:104BC000710509F481C08A01AB01B9016D5F7F4FA6
:104BD0006C7F9B012F5F3F4F249F7001259FF00C3E
:104BE000349FF00C1124F894E4EAF6E023E030E07E
:104BF000E901A6A1B7A1C68CD78CCD2809F058C071
:104C0000109709F03EC0C0903805D09039052DEFBF
:104C100030E02C193D092E153F0530F47894CFEF84
:104C2000DFEF86EF9FEF21C02AE02C9FF0012D9F40
:104C3000F00D1124EC55F94F918380835583448303
:104C40005383428377836683F186E086009709F079
:104C500073DEEC0CFD1CF0923905E0923805789477
:104C6000CF3FDC07F1F290E080E0F801D183C08310
:104C7000DF91CF911F910F91FF90EF90DF90CF9038
:104C80000895AE15BF05A0F02AE02C9FF0012D9FDE
:104C9000F00D1124EC55F94F9183808355834483A3
:104CA00053834283778366830097C9F245DED7CF6B
:104CB0008A0F9B1F2F5F3F4F3A962730310509F02F
:104CC00097CFCFEFDFEFCBCF8FEF9FEFD1CF9C010F
:104CD0000397049708F052C0F89486E09AE0482FB2
:104CE00050E024173507BCF191E08AE0829FF00183
:104CF000839FF00D1124EC55F94F1182108215821B
:104D000014821382128217821682992301F18091F4
:104D1000380590913905E4EAF6E024AD35AD232B52
:104D200069F4DF01AC5BBF4F2D913C9111972115C8
:104D3000310521F0821B930B1D921C923A9726E0BD
:104D4000EC37F20751F79093390580933805789442
:104D500090E080E00895949FF001959FF00D11245C
:104D6000EC55F94F40815181452B31F440855185F7
:104D7000452B11F48150B3CF90E0B7CF8FEF9FEF69
:104D800008954115510549F1009739F161157105F3
:104D900021F1F8942091A0063091A106232BB9F4BB
:104DA0002091A2063091A306232B89F49093A106AB
:104DB0008093A0067093A3066093A206789427E0E0
:104DC00030E090E080E0FA01318320830895789408
:104DD0002FEF3FEF86EF9FEFF6CF8FEF9FEF089516
:104DE000079769F4F8941092A1061092A006109209
:104DF000A3061092A206789490E080E008958FEFC9
:104E00009FEF08956115710519F4F0E0E0E011C01D
:104E10008730910581F4E091A006F091A1063097CA
:104E2000A1F3CB0101961995009779F3FC0187E076
:104E30008193CF0108959C0123503109243031051D
:104E400020F72AE0289FD001299FB00D1124AC55EE
:104E5000B94F2D913C911197232BB9F216962D91B4
:104E60003C9117972617370780F2F89412962D91E8
:104E70003C9113972115310529F0ED91FC91119783
:104E8000309711F47894C1CF4181528111965C938F
:104E90004E932150310913963C932E931297819390
:104EA0007894C7CFEAE3F6E086E6DF011D928A95A3
:104EB000E9F7EAE3F5E080E091E0DF019C011D9273
:104EC00021503040E1F71092390510923805E4EA9C
:104ED000F6E086E4DF011D928A95E9F7E0EAF6E064
:104EE00084E0DF011D928A95E9F790E080E0089563
:104EF000CF93DF93C0914302D0914402CF3FDC07B0
:104F000059F4E0D3909344028093430297FF09C081
:104F1000D0934402C093430284EF9FEFDF91CF917F
:104F2000089590E080E0FACF8230910528F48093D4
:104F3000EA0690E080E008958FEF9FEF08954F928A
:104F40005F926F927F92AF92BF92CF92DF92EF9279
:104F5000FF920F931F93CF93DF931F921F92CDB7B2
:104F6000DEB71A821982009709F479C061157105BC
:104F700009F475C0209143023091440207EF1FEFFE
:104F80002F3F3F4F09F445C06B015C01412C512C70
:104F90003201F12CE12C10E000E09E012F5F3F4F29
:104FA000A6014E195F09B5016E0D7F1D8091430268
:104FB00090914402EBD3892B09F04BC089819A81EF
:104FC000009741F4E114F10429F42091EA06222328
:104FD00009F442C0E80EF91EEC14FD04D0F480E898
:104FE000481684E858068EE16806710420F560E0F2
:104FF00070E0CB010E9497352AE0420E511C611CE3
:10500000711C0A3F4FEF140721F0043F8FEF180780
:10501000A1F4C8010F900F90DF91CF911F910F91D4
:10502000FF90EF90DF90CF90BF90AF907F906F9008
:105030005F904F90089501EF1FEF81E090E0013FF6
:105040002FEF120711F090E080E0892B09F4A5CF33
:10505000E0CF04EF1FEFDDCF0AEF1FEFDACF0FEF46
:105060001FEFD7CF4F925F926F927F92AF92BF9216
:10507000CF92DF92EF92FF920F931F93CF93DF9324
:105080001F921F92CDB7DEB71A821982009709F4DA
:1050900079C06115710509F475C020914302309102
:1050A000440207EF1FEF2F3F3F4F09F445C06B014C
:1050B0005C01412C512C3201F12CE12C10E000E07C
:1050C0009E012F5F3F4FA6014E195F09B5016E0D7E
:1050D0007F1D80914302909144020BD3892B09F0EC
:1050E0004BC089819A81009741F4E114F10429F4BD
:1050F0002091EA06222309F442C0E80EF91EEC14BE
:10510000FD04D0F480E8481686E9580688E9680668
:10511000710420F560E070E0CB010E9497352AE031
:10512000420E511C611C711C0E3F4FEF140721F001
:10513000043F8FEF1807A1F4C8010F900F90DF9183
:10514000CF911F910F91FF90EF90DF90CF90BF9084
:10515000AF907F906F905F904F90089502EF1FEF98
:1051600081E090E0023F2FEF120711F090E080E025
:10517000892B09F4A5CFE0CF04EF1FEFDDCF0EEFB1
:105180001FEFDACF0FEF1FEFD7CF8091430290913F
:1051900044028F3F980749F08CD2892B49F48FEF56
:1051A0009FEF909344028093430290E080E0089543
:1051B00084EF9FEF0895FC01680F791F90E080E075
:1051C000E617F70709F408952191820F911DF8CF92
:1051D0002091EB06211113C08BDE009791F4109201
:1051E000F1061092F0061092EF061092EE06109261
:1051F000ED061092EC0621E02093EB06089584EF73
:105200009FEF0895AF92BF92CF92DF92EF92FF92FD
:105210000F931F93CF93DF93009709F460C046303C
:10522000510508F45CC02091EB06C7EFDFEF2223A5
:1052300009F449C08C01060F171FF801C080D18006
:10524000C114D10409F44EC096012A5F3F4F4217A2
:10525000530708F447C07C018091F0069091F10655
:1052600093838283B6016C5F7F4F5801A60EB71EF1
:10527000C801A1DFF5019183808364E070E0C8017B
:105280005EDEEC01892BF9F481E090E04DDEB601A1
:10529000C801049654DEEC01892B91F462E070E0C1
:1052A000C5014DDEEC01892B59F4C70148DC809122
:1052B000F0069091F10601969093F1068093F00626
:1052C00090E080E031DECE01DF91CF911F910F9110
:1052D000FF90EF90DF90CF90BF90AF900895CFEF09
:1052E000DFEFF1CFC9EFDFEFEECF6F927F928F92BA
:1052F0009F92AF92BF92CF92DF92EF92FF920F9365
:105300001F93CF93DF9300D01F92CDB7DEB70097E6
:1053100009F47AC04115510509F476C02091EB06D5
:1053200007EF1FEF222309F44DC03A017B015C0116
:1053300064E070E0CE01019695DE8C01892B09F0C6
:1053400041C009811A810115110509F45AC04801AB
:1053500086E0880E911CB701680D791D8091450289
:10536000909146024FDD6C01009709F450C0A701EF
:1053700070E060E00E94B23B89819A81AB81BC8180
:10538000EC0CFD1CF70181939193A193B1937F01E4
:1053900081E090E0C9DDB801C70164DE892B31F5F9
:1053A00062E070E0C701800F911F5CDE8C01892BE9
:1053B000E9F490E080E0B8DDF501D182C082F3012C
:1053C00091828082C8010F900F900F900F90DF9113
:1053D000CF911F910F91FF90EF90DF90CF90BF90F2
:1053E000AF909F908F907F906F90089590E080E0B5
:1053F0009BDDF50111821082F30111821082C6013A
:105400009EDB09EF1FEFDECF0FEF1FEFDBCF06EFC5
:105410001FEFD8CF0097A1F04115510589F0211554
:10542000310571F0F90136966E177F0748F0DC01FF
:105430002D933C93DA01ED93FC9390E080E0089586
:105440008FEF9FEF0895AF92BF92CF92DF92EF92CE
:10545000FF920F931F93CF93DF93009709F45FC0E0
:105460004115510509F45BC06530710508F457C05A
:105470002091EB06C7EFDFEF222391F1DC01CD9005
:10548000DC9011971296ED91FC9196012A5F3F4FA7
:10549000C9EFDFEF2617370719F5C091EC06D09159
:1054A000ED06209749F521E030E03093ED0620939A
:1054B000EC067A018C01F093EF06E093EE065601BC
:1054C000B4E0AB0EB11CB50176DE0A0D1B1DF80170
:1054D000208131818217930729F5D701CD92DC9283
:1054E000CE01DF91CF911F910F91FF90EF90DF9050
:1054F000CF90BF90AF9008952091EE063091EF06C7
:105500002F5F3F4FCCEFDFEFE217F30790F2CBEFC7
:10551000DFEF2E173F0768F2D0E0C0E0CACFCFEF31
:10552000DFEFDECFC3EFDFEFDBCF84E090E0089565
:1055300082E090E008958CEF9FEF089580E290E084
:1055400008951092F1061092F0061092EF06109254
:10555000EE061092ED061092EC0690E080E00895C1
:10556000909346028093450208958091EB0688232C
:1055700091F00BDE009789F41092F1061092F0067C
:105580001092EF061092EE061092ED061092EC06C5
:105590001092EB06089590E080E00895009749F09E
:1055A0006115710531F0FC0111821082FB0111823D
:1055B00010820895F3CF40E855E260E070E090E09B
:1055C00080E000C08130910579F01CF4892B39F01E
:1055D00008958230910561F0039771F0089526E0F7
:1055E0008EEC97E00C949C3826E08BE698E0FACF9E
:1055F00026E088E099E0F6CF26E085EA99E0F2CF50
:105600001F920F920FB60F9211240BB60F922F9389
:105610003F934F935F936F937F938F939F93AF933A
:10562000BF93EF93FF938FE89DEF909325018093B5
:105630002401C0D0FF91EF91BF91AF919F918F91C5
:105640007F916F915F914F913F912F910F900BBE82
:105650000F900FBE0F901F9018958FE89DEF9093BD
:10566000250180932401A3E7B0E08C918E7F8C9379
:10567000E0E2F1E080818C7F8083E1E2F1E08081F3
:10568000877E808380818460808380818C7F80831B
:105690008C9181608C930895E3E7F0E080819081A4
:1056A0009E7F90838170089581E008951092F206A4
:1056B000089568EE73E080E090E00E94973590E0F6
:1056C00080E0089526E040E052EC61E070E08EEC6E
:1056D00097E00E949C388EEC97E00E94D237892B8D
:1056E00029F08EEC97E00E94EC37F5CF90E080E057
:1056F0000895CF92DF92EF92FF920F931F93CF9373
:10570000DF936B017A01E901198218828EEC97E030
:105710000E94D237892B79F18601CC24C39482E090
:10572000D82E8091F206811111C08EEC97E00E9474
:10573000EC370297B1F7C092F206F801D1928F01CF
:1057400088819981019699838883EBCF888199819B
:105750008E159F0580F48EEC97E00E94EC378F3F0A
:105760009807A1F3F80181938F01888199810196AF
:1057700099838883EBCF90E080E0DF91CF911F91F8
:105780000F91FF90EF90DF90CF9008950F931F93AC
:10579000CF93DF93EA0189018EEC97E00E942C3BC6
:1057A000F801D183C08390E080E0DF91CF911F9119
:1057B0000F910895CF92DF92EF92FF920F931F9374
:1057C000CF93DF9300D0CDB7DEB78091F60691E09E
:1057D000980F9093F6068823A1F021E030E03093F3
:1057E000FA062093F9068093F6060F900F900F901B
:1057F000DF91CF911F910F91FF90EF90DF90CF90AD
:105800000895CE0101960E94CC0578940091F6028D
:105810001091F702F801E856FF4FC080D180E28076
:10582000F3800E943F06B701A60181E090E00E944C
:105830003B05F8948091F60681508093F6068B81A3
:10584000882389F08091F50691E0980F9093F506F2
:10585000882349F021E030E03093FA062093F906DE
:105860008093F506C2CF8091F506882309F4BDCF59
:105870008091F7068111B9CF8091F8068F5F8093F0
:10588000F8067894F801EC55FF4F20813181428170
:105890005381AAE0B0E00E949F3B6B017C010E9413
:1058A0009907B701A60182E090E00E943B05F894B9
:1058B0008091F50681508093F5068091F80681501D
:1058C0008093F80692CF0F931F93CF93DF9310929C
:1058D000410C1092400C0E94CD356DDEC091F60255
:1058E000D091F7021982188268EE73E080E090E0B0
:1058F0000E94C10570E060E090E080E00E94380402
:10590000009709F042C00E94A108F8947894BE0163
:1059100066547F4F8A819B810E943B04892B71F4DE
:105920006FEF7FEFCB010E94D0040E94BB0588235C
:1059300029F081E0FE01E054FF4F8083F8948DDE72
:105940000E94BE05882311F080E00BC00E94BB05B9
:105950008111FACF81E0FE01E054FF4F9081911157
:10596000F3CF8093400C78940E9453138C01789469
:10597000C054DF4F8091400C81110CC00E949D0BE0
:105980000E949F05F89490E080E0DF91CF911F91F5
:105990000F9108950E949C050E94BE058823D9F0AE
:1059A00081E08093410C9091410C81E0911180E065
:1059B0008093400C8091410C81116EDE0130110505
:1059C00029F40E945313892B09F470DE0E945313AB
:1059D0008C016ADECFCF0E94BB058111E1CF81E04F
:1059E00098819111DECF80E0DCCF5058BB27AA27E9
:1059F0000ED0FFC1F0D130F0F5D120F031F49F3F4F
:105A000011F41EF4E5C10EF4E095E7FBB2C1E92FF5
:105A100001D280F3BA17620773078407950718F05D
:105A200071F49EF530C20EF4E0950B2EBA2FA02D26
:105A30000B01B90190010C01CA01A0011124FF273B
:105A4000591B99F0593F50F4503E68F11A16F04036
:105A5000A22F232F342F4427585FF3CF4695379535
:105A60002795A795F0405395C9F77EF41F16BA0BFA
:105A7000620B730B840BBAF09150A1F0FF0FBB1FA8
:105A8000661F771F881FC2F70EC0BA0F621F731FF1
:105A9000841F48F4879577956795B795F7959E3F4E
:105AA00008F0B3CF9395880F08F09927EE0F9795DC
:105AB000879508953AD108F481E008950CD099C1F2
:105AC00091D140F088D130F021F45F3F19F051C1FD
:105AD0005111DAC17DC19ED198F39923C9F35523A1
