:1000000015C100000C94A6360C94D1360C94FC3625
:100010000C9427370C9452370C947D370C94A837E6
:100020000C94D33734C1000032C1000030C100004D
:100030002EC100002CC100002AC1000028C1000010
:1000400026C1000024C1000022C1000020C1000020
:100050001EC100001CC100001AC100000C94FE3734
:1000600016C100000C94FA3B0C94303C10C1000007
:100070000EC100000CC100000AC1000008C1000050
:1000800006C1000004C1000002C1000000C1000060
:100090000C94863C0C94BC3CFAC000000C940A35CD
:1000A000F6C00000F4C00000F2C00000F0C0000084
:1000B000EEC00000ECC00000EAC00000E8C0000094
:1000C000E6C00000E4C000000C94042C0C94123D27
:1000D0000C94483DDCC000000C949E3D0C94D43D33
:1000E000D6C0000005A84CCDB2D44EB93836A9020E
:1000F0000C50B9918688083CA6AAAA2ABE00000026
:10010000803F00000A0B02090C0D0E0807030401D2
:1001100000000000000000000000000000000000DF
:1001200000000000000000000000000000001211AC
:1001300010000000000000000000000000000000AF
:10014000000000000000000001021020200808103C
:100150002040102040800201020108040201010237
:100160000408102040808040201008040201800410
:10017000020180402010080402010804020101026B
:10018000040810204080010204081020408005056A
:100190000505070508080808020202020A0A0808FD
:1001A000040404040101010101010101030303032B
:1001B00003030303040707070C0C0C0C0C0C0C0CBA
:1001C0000202020206060606060606060B0B0B0BCB
:1001D0000B0B0B0B000020002300260029002C0035
:1001E0002F00320000010000030106010901000098
:1001F0002200250028002B002E00310034000201CF
:100200000000050108010B01000021002400270067
:100210002A002D0030003300010100000401070115
:100220000A017532593CE53C713DFD3D11241FBE6C
:10023000CFEFD1E2DEBFCDBF00E00CBF13E0A0E006
:10024000B2E0E2E7FDE700E00BBF02C007900D92CD
:10025000A632B107D9F72BE0A6E2B3E001C01D92A8
:10026000A139B207E1F711E0C6E1D1E000E006C034
:1002700021970109802FFE010E947A3EC131D107EA
:1002800080E00807A9F70E94672D0C94B73EB8CE0E
:10029000CF92DF92EF92FF926B017C01C114D104E7
:1002A000E104F10469F480910002811109C0809198
:1002B0000202909103020E94E63181E080930002E5
:1002C000C601880F991F880F991F80509E4FFF907D
:1002D000EF90DF90CF900895009781F0FC0121818D
:1002E000211104C040EA56E861E070E0FC0182811F
:1002F00093810E94F53190E080E0089588E090E0DD
:1003000008954F925F926F927F928F929F92AF92D9
:10031000BF92CF92DF92EF92FF920F931F93CF93F2
:10032000DF930097C9F1280139017A01EC01402FD0
:100330008A819B810E9473328A819B81DC01ED91CD
:10034000FC910084F185E02D1995892B01F167015D
:10035000812C912C54018A819B81DC01ED91FC91CF
:100360000084F185E02D1995892B91F18414950471
:10037000A604B70469F18A819B81DC01ED91FC91AF
:100380000284F385E02D19958F3F9807C1F484E02E
:10039000F70111928A95E9F788E090E0DF91CF911B
:1003A0001F910F91FF90EF90DF90CF90BF90AF9093
:1003B0009F908F907F906F905F904F900895FFEF88
:1003C0008F1A9F0AAF0ABF0AD6018D936D01C3CF62
:1003D00090E080E0E3CF8F929F92AF92BF92CF9256
:1003E000DF92EF920F931F93CF93DF930097F1F07B
:1003F0006A01EC018A819B810E94F8318A819B818C
:10040000DC01ED91FC910280F381E02DA801B601A1
:1004100019958A819B8160E0E11001C061E00E9432
:100420000232882389F08250823088F088E090E0A0
:10043000DF91CF911F910F91EF90DF90CF90BF9000
:10044000AF909F908F90089590E080E0F1CF84E08E
:1004500090E0EECF0895611102C00C943F3A6130F4
:10046000E1F362E0FACF662319F061E00C947B3A85
:1004700060E0FCCFCF93DF93EC0170E060E06C179D
:100480007D070CF5072E000C880B990B0E94FC2EA3
:1004900020E030E0A9010E94F92D20E030E0A90120
:1004A0000E94F92D20E030E040E450E40E94F92D54
:1004B00020E030E040E450E40E94F82D0E94C92E74
:1004C0006F5F7F4FDCCFDF91CF9108950F931F9324
:1004D000CF93DF93EC018C810E94A83A8C018C852C
:1004E0009D85C8DF88850E94A83A488159816A8124
:1004F0007B81019781F40130110579F44F5F5F4FE3
:100500006F4F7F4F488359836A837B83DF91CF91FD
:100510001F910F910895012B89F3415051096109F1
:100520007109F0CF87E293E0D1CF87E393E0CECF9C
:1005300087E493E0CBCF87E593E0C8CF0F931F9379
:10054000CF93DF93EC0188850E94A83A8C018C85BB
:100550009D8590DF8C810E94A83A488159816A81EB
:100560007B81019779F4012B81F44F5F5F4F6F4FCF
:100570007F4F488359836A837B83DF91CF911F919B
:100580000F9108950130110581F34150510961091E
:100590007109EFCF87E293E0D1CF87E393E0CECF2D
:1005A00087E493E0CBCF87E593E0C8CF0F931F9309
:1005B000CF93DF93D82FC62F8A01E091260380E1E5
:1005C000E89FF0011124E95DFC4F8D2F90E0B0E031
:1005D000A0E084839583A683B783862F90E0B0E064
:1005E000A0E080879187A287B38710821182128250
:1005F000138281E090E0A0E0B0E084879587A68731
:10060000B78760E08D2F0E943F3A60E08C2F0E94F8
:100610003F3A80912603813009F43FC0A8F0823030
:1006200009F462C0833009F486C08091260391E00A
:10063000980F90932603F801808390E080E0DF918B
:10064000CF911F910F91089580E0D23049F081E061
:10065000D33031F08EEE8D0F8430D8F487E18D1BCE
:1006600041E050E06AEC72E00E942C3680E0C2303B
:1006700049F081E0C33031F08EEE8C0F843058F4B5
:1006800087E18C1B41E050E062E972E00E942C3669
:10069000CCCF8FEFE5CF8FEFF5CF80E0D23049F0B0
:1006A00081E0D33031F08EEE8D0F8430C8F487E1D5
:1006B0008D1B41E050E06DEC72E00E942C3680E032
:1006C000C23049F081E0C33031F08EEE8C0F8430BF
:1006D00048F487E18C1B41E050E065E972E0D6CF39
:1006E0008FEFE7CF8FEFF7CF80E0D23049F081E096
:1006F000D33031F08EEE8D0F8430C8F487E18D1B3E
:1007000041E050E060ED72E00E942C3680E0C230A3
:1007100049F081E0C33031F08EEE8C0F843048F424
:1007200087E18C1B41E050E068E972E0AFCF8FEFCA
:10073000E7CF8FEFF7CF80E0D23049F081E0D330C0
:1007400031F08EEE8D0F8430C8F487E18D1B41E0CF
:1007500050E063ED72E00E942C3680E0C23049F038
:1007600081E0C33031F08EEE8C0F843048F487E1A5
:100770008C1B41E050E06BE972E088CF8FEFE7CF50
:100780008FEFF7CF90E1899FF0011124E95DFC4FD5
:1007900080819181A281B381FB0180839183A283B7
:1007A000B38390E080E0089590E1899FF0011124E7
:1007B000E95DFC4F108211821282138290E080E08A
:1007C000089590E080E00895CF92DF92EF92FF923B
:1007D000CF93882351F16A017B01CFEFC80F20E04E
:1007E00030E0A901CB01B6010E945D2E87FF11C048
:1007F000C701B60190580E94CE2E9B01AC016C2F10
:1008000070E090E080E0CF91FF90EF90DF90CF908C
:10081000B2C0C701B6010E94C92E8C2FCF91FF90A4
:10082000EF90DF90CF900C940539CF91FF90EF902F
:10083000DF90CF9008950F931F938B019C0183E06D
:1008400036952795179507958A95D1F709591C4F25
:10085000462F477021E030E0F90102C0EE0FFF1F84
:100860004A95E2F7AF01F80120812423CB010196DC
:10087000211102C090E080E01F910F9108950F9325
:100880001F938B019C0183E036952795179507955B
:100890008A95D1F7677081E090E001C0880F6A9572
:1008A000EAF7F801E959FC4F2081452B31F4809596
:1008B000822380831F910F910895822BFACF2F926C
:1008C0003F924F925F926F927F928F929F92AF92E0
:1008D000BF92CF92DF92EF92FF920F931F93CF932D
:1008E000DF93D62EC72E782E692E49015A01280192
:1008F00061E08D2D0E943F3ACD2DDC2D8E010F5FE2
:100900001F4FA8016D2D7C2D872D962DB8DF20E07F
:1009100030E0A901C201B7010E944D30181664F4FD
:10092000C201B7010E94CE2E2B01C501B4010E9465
:10093000CE2EA201CE0123D0C801DF91CF911F910D
:100940000F91FF90EF90DF90CF90BF90AF909F906E
:100950008F907F906F905F904F903F902F90089571
:10096000882341F08150682F70E090E080E050E0F3
:1009700040E085CF0895862FB9010C9405399C017C
:10098000FC01EE5FFE4FE491E150E231E0F4F0E073
:100990008827E253FB4F8F4F0C947A3EE004E70424
:1009A000EA0401051605E3042B0537053B0552054E
:1009B00067057C059305A805E304BD05D405E90595
:1009C00084B5806884BD60E0822F0C947B3A84B546
:1009D0008062F8CF809180008C7F8260809380005D
:1009E00080918100807E8061682B609381005093AC
:1009F000870040938600809180008068809380000B
:100A0000E2CF809180008C7F826080938000809113
:100A10008100807E8061682B609381005093870005
:100A200040938600809180008062E8CF80918000B2
:100A30008C7F82608093800080918100807E8061C5
:100A4000682B6093810050938700409386008091CB
:100A500080008860D3CF8091B00080688093B00020
:100A60008091B100887F682B6093B100ACCF8091FA
:100A7000B0008062F3CF809190008C7F8260809381
:100A8000900080919100807E8061682B609391003E
:100A900050939700409396008091900080688093D7
:100AA000900091CF809190008C7F82608093900025
:100AB00080919100807E8061682B609391005093BB
:100AC000970040939600809190008062E8CF8091DB
:100AD00090008C7F82608093900080919100807E56
:100AE0008061682B6093910050939700409396002B
:100AF000809190008860D3CF8091A0008C7F82602D
:100B00008093A0008091A100807E8061682B60931B
:100B1000A1005093A7004093A6008091A000806898
:100B20008093A00050CF8091A0008C7F8260809342
:100B3000A0008091A100807E8061682B6093A1005D
:100B40005093A7004093A6008091A0008062E8CF58
:100B50008091A0008C7F82608093A0008091A10092
:100B6000807E8061682B6093A1005093A700409322
:100B7000A6008091A0008860D3CF809120018C7F57
:100B800082608093200180912101807E8061682BAA
:100B90006093210150932701409326018091200109
:100BA0008068809320010FCF809120018C7F82602C
:100BB0008093200180912101807E8061682B609369
:100BC00021015093270140932601809120018062EA
:100BD000E8CF809120018C7F8260809320018091FA
:100BE0002101807E8061682B609321015093270151
:100BF00040932601809120018860D3CF90E080E06F
:100C000008950F931F93009709F48DC06115710526
:100C100009F489C000913602109137022091380200
:100C2000309139020E3F1F4F2F4F3F4F09F06CC0DC
:100C30004FEF5FEFBA014093360250933702609353
:100C40003802709339024091360250913702609118
:100C5000380270913902DC011296ED91FC9180818D
:100C60009181A281B3818093980490939904A09379
:100C70009A04B0939B0484819581A681B781809367
:100C8000940490939504A0939604B0939704808560
:100C90009185A285B3858093900490939104A0934D
:100CA0009204B093930484859585A685B785809337
:100CB0008C0490938D04A0938E04B0938F041092B3
:100CC00088041092890410928A0410928B040E9466
:100CD00048108DE690E19093710380937003909398
:100CE00073038093720390937503809374030E943F
:100CF000370F009731F421E030E030939D042093CA
:100D00009C041F910F9108950091360210913702B3
:100D10002091380230913902DB010D931D932D9300
:100D20003C93139790CF8FEF9FEFEBCF8F929F92D3
:100D3000AF92BF92CF92DF92EF92FF921F93CF9329
:100D4000DF934B015C0110919F0482E090E090934F
:100D50009D0480939C0481149104A104B10441F486
:100D600080919F04811104C080919E04C1E0811193
:100D7000C0E0C12CD12C760180919F04811106C066
:100D800080919E04811102C0CC23D9F083E090E0D1
:100D900090939D0480939C04CC2381F1CCE9DFEFF8
:100DA000111102C00E94D213CE01DF91CF911F9189
:100DB000FF90EF90DF90CF90BF90AF909F908F907B
:100DC00008956AE070E080E090E00E946D3880E174
:100DD000C80E87E2D81EE11CF11C8FEF881698061A
:100DE000A806B80631F0C1E08C149D04AE04BF041F
:100DF00008F0C0E080E00E946B0FBECFD0E0C0E002
:100E0000CFCFCF92DF92EF92FF920F931F93CF93AA
:100E1000DF938F3F910511F008F051C020919C04A1
:100E200030919D042330310539F020919C0430919C
:100E30009D042130310531F424E030E030939D04ED
:100E400020939C046A017B01EC0183309105A8F09A
:100E500011E0AE01C701B6010E94360FAB01BC0123
:100E6000CE011123F9F0DF91CF911F910F91FF90E7
:100E7000EF90DF90CF900C94FB158C01000F111FA9
:100E800000591C4FD8018D919C91892B09F30E9428
:100E900005160297E9F6D801ED91FC91CE0119955E
:100EA000182FD7CF0E941D1690E080E0DF91CF91E0
:100EB0001F910F91FF90EF90DF90CF9008958FEFEB
:100EC0009FEFF4CF80E00C946B0FCF93DF9386E01D
:100ED00090E090939D0480939C040E94C40FEC01C9
:100EE000E0E7F3E086E0DF011D928A95E9F70E94D2
:100EF0006A1310929D0410929C04CE01DF91CF9151
:100F0000089580919E0408958091870408956093C8
:100F1000360270933702809338029093390290E042
:100F200080E00895FC0191E080915104811190E0EE
:100F3000928308951F93CF93DF93EC0180E090E5B7
:100F4000A3ECB8E48C879D87AE87BF871F821E8283
:100F5000188211E0188B1D8281E090E0A0E0B0E0E3
:100F600089839A83AB83BC8350E040E060E070E00B
:100F7000CB018ED99F838E8340EA56E861E070E012
:100F8000488759876A877B87A7D91D83DF91CF91CF
:100F90001F910895CF92EF920F931F93CF93DF93FA
:100FA00000D0CDB7DEB7FB0125E029839A838B8380
:100FB000C12CE12C03E010E020E030E0AE014F5FF7
:100FC0005F4F60E470E08681978105DA0F900F90A3
:100FD0000F90DF91CF911F910F91EF90CF900895D7
:100FE000FC018081811110C081E080838181928128
:100FF000A381B4810197A105B10531F485818823CE
:1010000019F08681978126CA0895CF92DF92EF92D8
:10101000FF920F931F93CF93DF9300D01F92CDB712
:10102000DEB7809151048F5F843608F037C180931A
:1010300051046091140270911502809116029091F2
:1010400017020E94372F6B017C010DD6811129C137
:10105000C701B601C3D5811124C120E030E040E8CA
:1010600057E4C701B6010E94512F6B017C0120E0BB
:1010700030E0A9010E945D2E87FF16C1C701B601AD
:1010800090580E94CE2E88279927861B970B6DE4D7
:101090007BE080DFC0901002D0901102E09012023D
:1010A000F0901302A70196016091090B70910A0B51
:1010B00080910B0B90910C0B0E945D2E882341F0C8
:1010C000C092090BD0920A0BE0920B0BF0920C0B22
:1010D0008091080B81111092080BBE016F5F7F4F4A
:1010E00080910D0B4FDB69817A818B819C810E94FD
:1010F000FC2E209118023091190240911A02509151
:101100001B020E94513020911C0230911D0240911F
:101110001E0250911F020E9451306093640B709325
:10112000650B8093660B9093670BE0915904F091E7
:101130005A04209128023091290240912A025091AC
:101140002B0260817181828193810E9451302091B4
:101150002C0230912D0240912E0250912F020E94BC
:10116000F92D0E94B430209120023091210240914B
:101170002202509123020E9451302091240230918A
:10118000250240912602509127020E94F92D20E06D
:1011900030E04EE753E40E94513020E030E040E47C
:1011A00051E40E94612E6B017C0120E030E0A90136
:1011B0000E944D3010E061E0181694F020E030E01D
:1011C000A901C701B6010E945D2EE894F7F811E06D
:1011D00060E087FD05C010E060E0C12CD12C7601F5
:1011E00085E041D9612F87E03ED964E070E080E07E
:1011F00090E021DB8C019093350B8093340B20E041
:1012000030E04FE753E4C701B6010E945D2E181687
:1012100034F4C12CD12C8FE7E82E83E4F82EB701EB
:10122000A601C801D1DAC0903004D0903104E0901A
:101230003204F09033048FEFC81AD80AE80AF80A8B
:10124000C0923004D0923104E0923204F092330420
:101250000091590410915A04C701B6010E94FA2E58
:101260009B01AC0160913404709135048091360487
:10127000909137040E945130F8016083718382831A
:101280009383809144048823A9F08130B9F081E0F0
:1012900090914604992379F080E00DC0109251049A
:1012A000C8CEC12CD12C7601C701B6010E94CE2E2A
:1012B000CB01EDCE81E08093450402C0109245043D
:1012C0008091450494E0899FF0011124E95BFB4F74
:1012D000C082D182E282F382809346048FEF8093B2
:1012E00045048091380490913904A0913A04B0915A
:1012F0003B040196A11DB11D8093380490933904DD
:10130000A0933A04B0933B040F900F900F900F906E
:10131000DF91CF911F910F91FF90EF90DF90CF90D1
:101320000895CF92DF92EF92FF920F931F93CF9386
:10133000DF9300D0CDB7DEB7C0900402D090050295
:10134000E0900602F0900702A70196016091FE0A64
:101350007091FF0A8091000B9091010B0E945D2E0D
:10136000882341F0C092FE0AD092FF0AE092000B5F
:10137000F092010B84E08B83C12CEE24E39401E016
:1013800010E020E030E0AE014D5F5F4F60E470E0C0
:101390008091F40A9091F50A1ED88B8320E030E00A
:1013A000811114C0CC24C394E12C02E010E020E0B1
:1013B00030E0AE014F5F5F4F60E470E08091F40A6F
:1013C0009091F50A0E9481012A813981A09134020D
:1013D000B09135020E94823E0E94FC2E20E030E057
:1013E00040E056E30E9451302091300230913102AA
:1013F00040913202509133020E9451306093680B49
:101400007093690B80936A0B90936B0B80913C04F3
:1014100090913D04A0913E04B0913F040196A11D1E
:10142000B11D80933C0490933D04A0933E04B0937F
:101430003F040F900F900F90DF91CF911F910F916C
:10144000FF90EF90DF90CF9008954F925F926F9250
:101450007F928F929F92AF92BF92CF92EF92FF9224
:101460000F931F93CF9384E090E081D388E993E0BA
:1014700026E534E030939F0320939E0329E534E072
:101480003093D9032093D80324E334E03093AD03A1
:101490002093AC03909303048093020490939D03E4
:1014A00080939C0381E090E09093570480935604CE
:1014B00083E692E09093A3038093A2032BE534E0AC
:1014C00030935A042093590480E090E0A0E8BFEBE9
:1014D0008093520490935304A0935404B093550402
:1014E0008FE692E1A3E8BAE3809334049093350445
:1014F000A0933604B093370488EA99EBA8EEBDEDCB
:1015000080931E0490931F04A0932004B0932104A1
:1015100081ED9FEBA6E6B0E2809322049093230432
:10152000A0932404B09325048BE99BE5ADE7B4E7D1
:101530008093260490932704A0932804B093290451
:1015400088E19FE4A6E2B2E980932A0490932B04F9
:10155000A0932C04B0932D048CE893E090939B030C
:1015600080939A0386E793E090938D0380938C0396
:1015700085E792E0909377038093760390937903C5
:101580008093780390937B0380937A0390937D03F9
:1015900080937C0390937F0380937E0390938103D9
:1015A00080938003909383038093820390938503B9
:1015B0008093840390938703809386039093890399
:1015C0008093880390938B0380938A038EE294E048
:1015D00090939103809390038EE194E090938F0316
:1015E00080938E0330939303209392038FEF809325
:1015F0004404809345041092460480E090E5A3ECF7
:10160000B8E480931A0B90931B0BA0931C0BB09320
:101610001D0B1092150B1092140B10920E0B1092C2
:10162000130B812C912C5401839480920F0B909278
:10163000100BA092110BB092120B1092630B109230
:10164000620B10925E0B10925F0B1092600B109267
:10165000610B50E040E060E070E0CB010E94480187
:101660009093150B8093140B20EA422E26E8522EFD
:1016700066246394712C4092160B5092170B609263
:10168000180B7092190B4092700B5092710B609274
:10169000720B7092730B40EA56E861E070E00E94B2
:1016A0006C01C1E0C093130B8CE39BE043DC8DE441
:1016B0009BE040DC10920D0B1092020B8091100207
:1016C00090911102A0911202B09113028093090B24
:1016D00090930A0BA0930B0BB0930C0B1092070B7B
:1016E0008092030B9092040BA092050BB092060B14
:1016F0004DE05BE063E082E00E94D602C093070BFE
:101700001092080B80910D0B4FD81092260B8092EF
:10171000270B9092280BA092290BB0922A0B61E024
:1017200085E00E942B02C0932B0B10921E0B80921F
:101730001F0B9092200BA092210BB092220B61E024
:1017400087E00E942B02C093230B10922E0B109265
:10175000330B80922F0B9092300BA092310BB092F2
:10176000320BE12CF12C8701A801970164E070E0B5
:1017700080E090E0A4D89093350B8093340BC09315
:10178000330B80E090E5A3ECB8E48093FA0A9093E1
:10179000FB0AA093FC0AB093FD0A1092F50A10927E
:1017A000F40A1092EE0A8091040290910502A09131
:1017B0000602B09107028093FE0A9093FF0AA0935D
:1017C000000BB093010B1092F30A8092EF0A9092F3
:1017D000F00AA092F10AB092F20A1092630B1092F2
:1017E000620B10925E0B10925F0B1092600B1092C6
:1017F000610B50E040E060E070E0CB010E944801E6
:101800009093F50A8093F40A4092F60A5092F70AF0
:101810006092F80A7092F90A4092700B5092710B24
:101820006092720B7092730B40EA56E861E070E0D0
:101830000E946C01C093F30A609108027091090242
:1018400080910A0290910B020E94372F60936C0BDB
:1018500070936D0B80936E0B90936F0B04D2882363
:1018600009F480C010926C0B10926D0B10926E0BED
:1018700010926F0B80906C0B90906D0BA0906E0B84
:10188000B0906F0B20E030E0A901C501B4010E94C7
:101890005D2E87FF89C0C501B40190580E94CE2EED
:1018A0007195619571091092740B7093750B60932B
:1018B000760BC12CE12C03E010E020E030E044E79F
:1018C0005BE060E470E08091140B9091150B0E9436
:1018D000EB0160910C0270910D0280910E029091CB
:1018E0000F020E94372F60936C0B70936D0B8093E7
:1018F0006E0B90936F0BB7D1882309F45AC01092E6
:101900006C0B10926D0B10926E0B10926F0B8090FF
:101910006C0B90906D0BA0906E0BB0906F0B20E055
:1019200030E0A901C501B4010E945D2E87FF63C0AC
:10193000C501B40190580E94CE2E88279927861B96
:10194000970B6CE37BE0CF911F910F91FF90EF908D
:10195000CF90BF90AF909F908F907F906F905F904F
:101960004F9018CB60916C0B70916D0B80916E0B4A
:1019700090916F0B33D1811175CF60916C0B709189
:101980006D0B80916E0B90916F0B20E030E040E882
:1019900057E40E94512F60936C0B70936D0B8093F2
:1019A0006E0B90936F0B66CFC501B4010E94CE2ED3
:1019B0007ACF60916C0B70916D0B80916E0B909152
:1019C0006F0B0CD181119BCF60916C0B70916D0BE3
:1019D00080916E0B90916F0B20E030E040E857E46F
:1019E0000E94512F60936C0B70936D0B80936E0B64
:1019F00090936F0B8CCFC501B4010E94CE2ECB010A
:101A0000A0CF8DE49BE0ECDA8091020B811114C031
:101A100081E08093020B8091030B9091040BA091C5
:101A2000050BB091060B0197A105B10529F4809132
:101A3000070B81110E94E1038091260B811103C0E5
:101A400081E08093260B80911E0B811103C081E001
:101A500080931E0B80912E0B81112EC081E080930C
:101A60002E0B80912F0B9091300BA091310BB091E8
:101A7000320B0197A105B105F9F48091330B88234E
:101A8000D9F064E070E080E090E00E941B04909345
:101A9000350B8093340B40E050E0BA010E94E40320
:101AA00064E070E080E090E00E941B049093350BAE
:101AB0008093340B0E94B0048091EE0A811119C00A
:101AC00081E08093EE0A8091EF0A9091F00AA09154
:101AD000F10AB091F20A0197A105B10551F4809184
:101AE000F30A882331F08091F40A9091F50A0E945C
:101AF0002A0280910E0B811119C081E080930E0B98
:101B000080910F0B9091100BA091110BB091120BC3
:101B10000197A105B10551F48091130B882331F091
:101B20008091140B9091150B0E942A028CE39BE08C
:101B300057CA60E070E080E89FE7089560E070E0D9
:101B400080E89FE7089560E070E080E89FEF0895E7
:101B500060E070E080E89FEF089560E070E080EC66
:101B60009FEF089560E070E080EC9FEF0895F5DF4F
:101B70006093830B7093840B8093850B9093860BFB
:101B8000F1DF6093770B7093780B8093790B9093D0
:101B90007A0BCFDF60937F0B7093800B8093810B68
:101BA0009093820BCBDF60937B0B70937C0B8093C5
:101BB0007D0B90937E0BC7DF6093870B7093880B30
:101BC0008093890B90938A0BC3DF60938B0B709388
:101BD0008C0B80938D0B90938E0B0895CF92DF9298
:101BE000EF92FF92CF936B017C01AC019B0160915E
:101BF0007F0B7091800B8091810B9091820B0E94E2
:101C00005D2EC1E0882371F0A70196016091870BDA
:101C10007091880B8091890B90918A0B0E945D2EA8
:101C20008111C0E08C2FCF91FF90EF90DF90CF908B
:101C300008950F931F938B019C0100271127207893
:101C40003F770115110520483F4749F4AB01BC011E
:101C50006F77772781E0452B462B472B09F480E0EF
:101C60001F910F910895E5CF4F925F926F927F92EF
:101C70008F929F92AF92BF92CF92DF92EF92FF929C
:101C80000F931F93F89440907704509078046090DD
:101C9000790470907A04C0906B04D0906C04E0904A
:101CA0006D04F0906E044130510509F0A4C09B0111
:101CB000AC01241935094609570929013A01009157
:101CC00073041091740420917504309176044801D6
:101CD0005901840C951CA61CB71C80169106A206FF
:101CE000B306A0F400916F04109170042091710468
:101CF000309172040F5F1F4F2F4F3F4F00936F04BF
:101D000010937004209371043093720480927304D2
:101D100090927404A0927504B092760400916F04BE
:101D200010917004209171043091720480927B04B0
:101D300090927C04A0927D04B0927E0400937F0474
:101D4000109380042093810430938204609377047D
:101D5000709378048093790490937A04A8EEB3E0AA
:101D6000A30192010E949D3E6C0D7D1D8E1D9F1D45
:101D700060936B0470936C0480936D0490936E0475
:101D800000913602109137022091380230913902C9
:101D90000F3F1F4F2F4F3F4FF1F000913602109130
:101DA000370220913802309139020E3F1F4F2F4FDA
:101DB0003F4F89F0C0903602D0903702E090380251
:101DC000F090390221E08C149D04AE04BF0408F4A5
:101DD00020E02093870478941F910F91FF90EF905B
:101DE000DF90CF90BF90AF909F908F907F906F903B
:101DF0005F904F9008954B015C0184189508A608E8
:101E0000B708A3019201261B370B480B590B641529
:101E1000750586059705D0F082169306A406B506CB
:101E200040F420E030E0A90181149104A104B10440
:101E300091F4A8EEB3E00E949D3EA7019601261BF7
:101E4000370B480B590BCA01B901C5CF821693064F
:101E5000A406B50670F7A8EEB3E0A50194010E94B0
:101E60009D3E6C0D7D1D8E1D9F1DB5CFFDCECF936C
:101E7000DF9300D01F92CDB7DEB71C821B821A827F
:101E80001982109283041092840410928504109297
:101E90008604BE016F5F7F4FCE0103960E94D22B56
:101EA00069817A818B819C810E942525009761F44C
:101EB000BE016F5F7F4FCE0103960E94DE2B6981CA
:101EC0007A818B819C812FD50F900F900F900F906E
:101ED000DF91CF910895FF920F931F93CF93DF93DC
:101EE000082F60E070E0CB010E946D38FF24F3946E
:101EF0000E940E24EC01892B89F010E0CE3F8FEF79
:101F0000D80769F0002361F160E070E0CB010E9426
:101F10006D3881E090E0892B59F322C011E026D57D
:101F2000EC01892B21F0CE3F8FEFD80759F7111123
:101F30001EC011E0229609F410E00E94BE23EC01BD
:101F4000892B21F0CE3F8FEFD807E1F6111111C098
:101F500011E0CE3F8FEFD80709F410E001110BC05C
:101F6000CE01DF91CF911F910F91FF90089511E065
:101F7000E4CF11E0F3CF60E070E0CB010E946D3858
:101F80001F25812F90E0C7CFCF93DF9380918704E7
:101F9000882321F060E070E0CB014DD636D6D0E04A
:101FA000C0E0892B71F06AE070E080E090E00E9470
:101FB0006D3881E090DF29D62196C03D27E0D20719
:101FC00081F728D60E94792510929F0410929E04D2
:101FD000109298041092990410929A0410929B0403
:101FE0001092940410929504109296041092970403
:101FF0001092900410929104109292041092930403
:1020000010928C0410928D0410928E0410928F0402
:10201000109288041092890410928A0410928B0402
:102020004EEF5FEF6FEF7FEF409336025093370232
:10203000609338027093390210928704EBE7F4E062
:1020400028E0DF011D922A95E9F71092770410929B
:1020500078041092790410927A041092730410920A
:102060007404109275041092760410926F0410920A
:102070007004109271041092720410926B0410920A
:102080006C0410926D0410926E04DF91CF9108954C
:102090001092AB041092AC041092AD041092AE04F6
:1020A0001092AA048091B3049091B4049093A9046F
:1020B0008093A8041092A7041092A6041092A20480
:1020C0001092A3041092A4041092A5041092B004DC
:1020D0001092AF0490E080E00895CF92DF92EF92EB
:1020E000FF920F931F93CF938C01019709F055C076
:1020F0002091B3043091B4048091A8049091A90474
:102100004091B3045091B4045093A9044093A8049F
:102110002817390781F01092A7041092A604109294
:10212000A2041092A3041092A4041092A504109289
:10213000B0041092AF048091B3049091B40401975D
:1021400061F58091AF049091B004892B21F48091C6
:102150003A02811112C08091AF049091B0040197AE
:10216000E1F48091A2049091A304A091A404B09101
:10217000A5040197A105B10581F41092A204109263
:10218000A3041092A4041092A50410923A0282E0D3
:1021900090E09093B0048093AF048091B304909149
:1021A000B404019709F01CC18091C9049091CA043C
:1021B0008017910709F014C18091C5049091C6045D
:1021C000A091C704B091C804009709F409C12091F7
:1021D000C40421110DC04091C5045091C604609102
:1021E000C7047091C804452B462B472B09F4F8C04F
:1021F0002091AF043091B0042230310509F0F0C0D5
:102200002091A6042111ECC0FC01C080D180E280A5
:10221000F3808091AA04882309F4D3C08091B60486
:102220009091B704892B09F4FEC02091B604309137
:10223000B70481E02230310509F080E02091B60436
:102240003091B704C1E02130310549F02091B60446
:102250003091B704C1E02230310509F0C0E0882395
:1022600009F456C02091C0043091C1044091C204C9
:102270005091C304C701B6010E944D3087FD14C0C0
:102280002091C0043091C1044091C2045091C30414
:102290006091AB047091AC048091AD049091AE0458
:1022A0000E945D2E87FD22C02091C0043091C104A0
:1022B0004091C2045091C304C701B6010E944D3041
:1022C000181634F52091C0043091C1044091C20425
:1022D0005091C3046091AB047091AC048091AD0443
:1022E0009091AE040E945D2E811112C08091B804BD
:1022F0009091B904A091BA04B091BB04892B8A2BA8
:102300008B2B19F481E08093A70481E08093A604CD
:10231000CC2309F456C02091C0043091C1044091EF
:10232000C2045091C304C701B6010E945D2E87FF0D
:1023300014C02091C0043091C1044091C204509156
:10234000C3046091AB047091AC048091AD04909192
:10235000AE040E944D3087FF22C02091C00430910E
:10236000C1044091C2045091C304C701B6010E9448
:102370005D2E811126C02091C0043091C10440918E
:10238000C2045091C3046091AB047091AC0480917D
:10239000AD049091AE040E944D30181694F48091D3
:1023A000B8049091B904A091BA04B091BB04892BF0
:1023B0008A2B8B2B19F481E08093A70481E0809312
:1023C000A60481E09091A604911180E08093AA0474
:1023D000C092AB04D092AC04E092AD04F092AE0493
:1023E0000130110509F067C18091AF049091B004EC
:1023F000892BD9F41092B5041092A60480913A0268
:10240000882379F082E090E09093B0048093AF0449
:1024100010923A022091B3043091B40481E0232B4E
:10242000E9F080E01BC081E009CF10923A02809170
:10243000B504882349F01092A7041092B0041092BA
:10244000AF041092B504EDCF8091B3049091B40421
:10245000892BE1F08091A6041092A6042091AF048C
:102460003091B0042230310509F45EC088F42115A2
:10247000310509F448C02130310509F4F3C0109248
:10248000A7041092A6041092B50438C081E0E6CFEC
:102490002330310509F4B1C02430310581F7409172
:1024A000A2045091A3046091A4047091A504411565
:1024B00051056105710561F04150510961097109CA
:1024C0004093A2045093A3046093A4047093A504C2
:1024D0004091A2045091A3046091A4047091A504BA
:1024E000452B462B472BD9F42091B1043091B204EF
:1024F0002130310509F046C01092A7041092B004B3
:102500001092AF040CC080913A02882341F082E01F
:1025100090E09093B0048093AF0410923A0210922E
:10252000A0048091A704CEC08823C9F38091B80489
:102530009091B904A091BA04B091BB041816190681
:102540001A061B060CF07DC08091B3049091B40470
:10255000019709F076C08091B8049091B904A091D8
:10256000BA04B091BB048093A2049093A304A093F7
:10257000A404B093A50483E090E09093B00480930A
:10258000AF04CDCF4091BC045091BD046091BE0416
:102590007091BF04452B462B472BA9F01092A7043E
:1025A0008091BC049091BD04A091BE04B091BF0481
:1025B0008093A2049093A304A093A404B093A504D1
:1025C00081E090E0DACF882399F080913B029091EE
:1025D0003C02A0913D02B0913E028093A2049093F0
:1025E000A304A093A404B093A50484E090E0C5CF15
:1025F0001092A70482E090E0C0CF8091A204909155
:10260000A304A091A404B091A5040097A105B1056D
:1026100059F00197A109B1098093A2049093A304F2
:10262000A093A404B093A5048091A2049091A30464
:10263000A091A404B091A504892B8A2B8B2B09F0BF
:102640006ECF80913B0290913C02A0913D02B091EF
:102650003E02892B8A2B8B2B09F44ECF81E080938D
:10266000A704B3CF4091A2045091A3046091A404A5
:102670007091A504411551056105710561F0415046
:102680005109610971094093A2045093A304609316
:10269000A4047093A5044091A2045091A3046091F6
:1026A000A4047091A504452B462B472B09F037CF86
:1026B0008111C7CF9FCF8091A004882309F431CF27
:1026C0008091A104CF911F910F91FF90EF90DF9027
:1026D000CF9008951092AB041092AC041092AD0408
:1026E0001092AE041092AA041092B0041092AF049B
:1026F0001092A9041092A8041092CA041092C9045E
:102700001092A7041092A6041092A2041092A3049F
:102710001092A4041092A5041092A1041092A00497
:102720001092C5041092C6041092C7041092C804F7
:102730001092C4041092C0041092C1041092C204FA
:102740001092C30488EE93E0A0E0B0E080933B02D7
:1027500090933C02A0933D02B0933E021092BC04C1
:102760001092BD041092BE041092BF041092B804DF
:102770001092B9041092BA041092BB041092B704DC
:102780001092B60481E080933A021092B504109240
:10279000B4041092B3041092B2041092B10490E009
:1027A00080E008958091B3049091B404892B19F5C9
:1027B00080913A02882351F08091B504811106C0BE
:1027C00081E08093A1048093A00408952091B50432
:1027D00030913A0281E090E0332311F090E080E004
:1027E00030E082239323892B21F01092A10481E011
:1027F000EACF1092A004089582E090E0FA0191835C
:1028000080838FEF9FEF0895CF93DF93EA010097C6
:1028100011F00E94A3261982188290E080E0DF91D7
:10282000CF910895DB01009719F48FEF8C930895F1
:102830002EEF2C93FC013F96EF30F10508F034C0E9
:102840008827EA5DFB4E8F4F0C947A3E5214501449
:102850004E144C144A1446144814441442144014A0
:102860003D14391435143B14541480E311968C93A1
:10287000089589E2FBCF82E2F9CF11961C92089568
:1028800083E2F4CF81E2F2CF81E1F0CF87E2EECFB5
:102890008AE2ECCF80E1EACF84E2E8CF88E2E6CFBB
:1028A00086E2E4CF81E3E2CF80E2E0CF8091D704FB
:1028B0009091D80408959093D8048093D7040895F4
:1028C0008091D60408959091D604892B8093D604E4
:1028D0000895982F90958091D60489238093D604EB
:1028E00008958091D50408958091D3049091D404E3
:1028F00008956115710559F0FB0130E020E070E0AA
:1029000060E02417350719F06115710511F0CB014E
:102910000895A081B181A817B90709F4BF012F5FFD
:102920003F4F3696EECF8091D90481111CC060D202
:1029300066D29093CC048093CB040E94A61E0E9482
:10294000B81E9093D0048093CF040E9426230E9447
:102950002D239093CE048093CD0481E08093D904FD
:1029600090E080E0089584EF9FEF08958F929F920A
:10297000AF92BF92CF92DF92EF92FF920F931F938D
:10298000CF93DF9300D000D000D01F92CDB7DEB739
:102990001A86198618861F821E821D821C821B823F
:1029A0001A8219828091D90407EF1FEF882309F456
:1029B0009CC08E010D5F1F4F9E012B5F3F4FAE01EC
:1029C000495F5F4FBE01675F7F4F90E080E00E94EC
:1029D000AA248C01009721F00596029708F0DBC02D
:1029E00029853A852115310509F402C1ED80FE8063
:1029F0004B815C81B701640F751F8F8198858617A5
:102A0000970708F4F5C0E20EF31ED7019C91903CA5
:102A100009F07FC04230510508F47BC011968C91BB
:102A20004091D7045091D804452B09F49CC0913FA4
:102A300008F071C02CE1290F2D3008F48BC02DE275
:102A4000290F203108F489C0903C21F48150823054
:102A500008F483C088E3890F8B3008F481C092E1C9
:102A6000C92E94E1D92EECEFF3E16D817E81AE01A8
:102A70004F5F5F4F89859A8519955C01C114D10418
:102A8000A1F189809A808114910479F18B819C81D4
:102A90008815990508F487C010E000E04B815C813F
:102AA00070E060E0C7010E94B03E01151105E9F435
:102AB00049815A8169857A858D819E81680F791F48
:102AC000C501F6011995E980FA800D811E812F81DB
:102AD000388549855A856FEF7FEF81E090E00E944D
:102AE00045248C01892B09F056C0C8012A960FB6DF
:102AF000F894DEBF0FBECDBFDF91CF911F910F9134
:102B0000FF90EF90DF90CF90BF90AF909F908F900D
:102B1000089580E085CF30E020E0220F331FF901D7
:102B2000E553FB4F0190F081E02D309709F497CFEA
:102B3000892F90E01995009709F491CFDC01129646
:102B4000ED91FC9113971496CD90DC90309709F09D
:102B50008CCF1FC021E030E0E0CF22E030E0DDCFBD
:102B600023E030E0DACFD12CC12CE4E0F4E19F3F48
:102B700009F07BCFE091CB04F091CC04309721F4A5
:102B8000C90104EF1FEF0CC08FEF90E0199500977B
:102B9000A9F604EF1FEF89859A85009709F4A5CF60
:102BA0000E94A326A2CF0E9474258C0189859A8554
:102BB0000E94A32670E060E0C4010E940D25988762
:102BC0008F830E9442249E838D836F817885611557
:102BD000710559F0C8010E9406289A87898706EF77
:102BE0001FEF892B09F058CF59CF08EF1FEF56CFB1
:102BF00008EF1FEFD0CF2091D904222319F020E055
:102C00000C94BD1E87EF9FEF08958091D70490919B
:102C1000D80408950E9432230E948C22F5D0EBEC58
:102C2000F4E088E0DF011D928A95E9F71092D9045B
:102C300090E080E008950C94EB2021E040E050E02B
:102C4000BA010C94BD1E86E090E0FA019183808366
:102C500090E080E0089547E050E068E772E049CEF8
:102C6000DF92EF92FF920F931F93CF93DF938A012E
:102C7000EC01C60FD71FE090DD04F090DE04D98090
:102C80000E945C25D816190678F082E090E0F801E1
:102C9000918380838EEF9FEFDF91CF911F910F91F2
:102CA000FF90EF90DF900895EF2841F482E090E0EC
:102CB000F8019183808384EF9FEFEECF8981809329
:102CC000DC0490E00196F8019183808390E080E03D
:102CD000E3CFCF93DF93EA010E949C21882321F068
:102CE0000E9469250E949D2182E090E0998388835B
:102CF0008BEF9FEFDF91CF910895CF93DF93EB019F
:102D000086E0FB0111928A95E9F78FEF8883D8DD81
:102D10008983E7DD8A83E8DD9D838C83DF91CF9112
:102D20000895CF93DF93EA010E949F21811109C08A
:102D300082E090E09983888385EF9FEFDF91CF91C8
:102D4000089590E080E0B7DD81E090E0998388838A
:102D500090E080E0F3CF0F931F93CF93DF93EA01CE
:102D60008C01060F171F0E949F2181110BC082E06A
:102D700090E09983888385EF9FEFDF91CF911F913A
:102D80000F910895F8018181823038F082E090E05F
:102D9000998388838EEF9FEFF0CF81E090E08BDD09
:102DA00088E090E09983888390E080E0E6CFCF933D
:102DB000DF930097D1F4EB01FB01329686E0DF014F
:102DC0001D928A95E9F78FEF888385E089831A82BF
:102DD0000E945C258B830E945B259D838C8381E010
:102DE0008E838F83DF91CF910895DF91CF911ACD9C
:102DF0008BE296E19093DB048093DA04089580914E
:102E0000DA049091DB0408951092DB041092DA0446
:102E100008958091DD049091DE040895411105C06C
:102E2000611571058105910561F06093DD04709372
:102E3000DE048093DF049093E0044093E10481E09A
:102E4000089580E00895FF920F931F93CF93DF932F
:102E50008A01EC01C60FD71FF9800E945C25F81685
:102E6000190668F082E090E0F801918380838EEF8C
:102E70009FEFDF91CF911F910F91FF9008956C818B
:102E80007D818E819F814B81C9DF811108C082E0E5
:102E900090E0F8019183808384EF9FEFEACF8981EE
:102EA0008093DC0490E00196F8019183808390E0A8
:102EB00080E0DFCFCF93DF93EA01FC01E60FF71F3D
:102EC00064817581868197814381A8DF811109C062
:102ED00082E090E09983888384EF9FEFDF91CF9128
:102EE000089581E090E09983888390E080E0F6CFB8
:102EF000EDEDF4E04081518162817381480F511DF5
:102F0000611D711D40835183628373830895CF9344
:102F1000C091DC044C2F50E06091DD047091DE0420
:102F200001960E94A73E8C2FE3DF1092DC04CF9124
:102F30000895009799F48091DD049091DE042FEFBD
:102F4000FB012083892B59F02091DC0430E02F5FB6
:102F50003F4F2417350719F4CB01D9CF63CC08951F
:102F6000009799F48091DD049091DE042FEFFB012E
:102F70002083892B59F02091DC0430E02F5F3F4FF4
:102F80002417350719F4CB01C2CF4CCC089523E1A7
:102F9000AC01249FC001259F900D1124E091E6040F
:102FA000F091E704E80FF91F2381348122503109A1
:102FB00081E02230310508F080E008950F931F93DF
:102FC000CF93DF930091E8041091E904D0E0C0E0D2
:102FD00080E00C171D0749F491E0811190E0892FE2
:102FE000DF91CF911F910F9108958111F5CFCE01FF
:102FF000CEDF2196EECFA091E604B091E7041097C2
:1030000029F12091E8043091E90482179307F0F444
:1030100053E1589F9001599F300D1124A20FB31F07
:10302000ED91FC911197309789F012968C91681769
:1030300068F48BE0689FE00DF11D1124808191817F
:10304000892B21F081E09281491708F080E00895F2
:103050009C0143E1429FC001439F900D1124E091E8
:10306000E604F091E704E80FF91F8385823099F4B4
:1030700081E090E06581768140913F02509140026D
:103080006417750711F490E080E0892B21F081E04E
:103090002330310508F080E00895EF92FF920F93FE
:1030A0001F93CF93DF93EA01FC01E60FF71F028124
:1030B0001381E480F5804F2D6E2DC8019CDF8111B6
:1030C0000DC082E090E0998388838EEF9FEFDF91BF
:1030D000CF911F910F91FF90EF900895C80157DF96
:1030E000882339F082E090E09983888388EF9FEF0E
:1030F000EECF1093460200934502E0924702F09211
:10310000480281E090E09983888390E080E0DFCFFF
:10311000CF92DF92EF92FF920F931F93CF93DF93A3
:103120007A01EC01C60FD71FC0904502D09046022D
:103130000091470210914802412F602FC6015BDFCA
:10314000811110C082E090E0F701918380838AEFC3
:103150009FEFDF91CF911F910F91FF90EF90DF9044
:10316000CF900895C60113DF882341F082E090E0FC
:10317000F7019183808388EF9FEFEBCF4C815D81D6
:103180006E817F819A8189818F3F41F082E090E05A
:10319000F701918380838EEF9FEFDBCFE3E1EC9D1E
:1031A0009001ED9D300D1124E091E604F091E704CB
:1031B000E20FF31F0190F081E02D2BE0029FE00D64
:1031C000F11D11240190F081E02D27E0129FE00D08
:1031D000F11D1124808391838B81828343835483E7
:1031E000658376831F5F1093480281E090E0F701CA
:1031F0009183808390E080E0ACCFEF92FF920F93B9
:103200001F93CF93DF937A018C01060F171FC09194
:10321000E604D091E704209781F021E030E0F80146
:10322000828193814091E8045091E90484179507C5
:1032300010F030E020E0232B71F482E090E0F70101
:10324000918380838EEF9FEFDF91CF911F910F913C
:10325000FF90EF90089543E1489F9001499F300D02
:103260001124C20FD31F93DE882341F082E090E047
:10327000F7019183808388EF9FEFE6CFF8012481E7
:10328000358120383105C8F687818111D6CF41813B
:10329000842F90E08F7E009741F082E090E0F7016C
:1032A0009183808386EF9FEFCFCF4F833E832D8323
:1032B000268128871986223010F421E0288721E012
:1032C00030E0F70131832083BFCF88E090E0FA013E
:1032D0009183808390E080E00895FB018FEF8083ED
:1032E00081E181838FEF9FEF9383828380E890E079
:1032F00095838483168217820895FB018FEF808364
:1033000091E0918382839383848384E3858381E046
:1033100090E0978386830895BF92CF92DF92EF92D9
:10332000FF920F931F93CF93DF93DA01FC01E60F17
:10333000F71F8181813081F082E090E08D939C9332
:103340008FEF9FEFDF91CF911F910F91FF90EF9043
:10335000DF90CF90BF900895C281D381B4808581E2
:1033600006811781E090E604F090E704E114F1048F
:1033700039F482E090E08D939C938CEF9FEFE2CF45
:103380002091E8043091E904C217D30738F082E0B5
:1033900090E08D939C938EEF9FEFD4CFC330D105F7
:1033A00038F082E090E08D939C9386EF9FEFCACF38
:1033B0009B2D9D7FB1F78130A1F7B11005C0013081
:1033C000110531F080E004C081E002301105D0F336
:1033D000882339F36D01CE01DADD882341F082E0E4
:1033E00090E0F6019183808388EF9FEFABCF83E17C
:1033F0008C9FF0018D9FF00D1124EE0DFF1DB38603
:1034000081E0848716870587108A178681E090E01F
:10341000F6019183808390E080E094CF4CE050E00F
:1034200062EA72E066CA8F929F92BF92CF92DF9259
:10343000EF92FF920F931F93CF93DF93EA01FC016A
:10344000E60FF71F828193810481B580E091E60445
:10345000F091E704309791F482E090E099838883BB
:103460008CEF9FEFDF91CF911F910F91FF90EF9025
:10347000DF90CF90BF909F908F9008952091E804A7
:103480003091E9048217930738F082E090E0998345
:1034900088838EEF9FEFE6CF23E1289F6001299F6D
:1034A000D00C1124EC0DFD1DE080F180E114F1043D
:1034B00099F28281081748F78BE0089F8001112458
:1034C000E00EF11EF70180819181892B29F6BB2046
:1034D000E1F2F7E0BF9E40011124C4010E9454268E
:1034E000F70191838083E091E604F091E704EC0D0D
:1034F000FD1D0190F081E02DE00FF11F8081918191
:10350000009739F482E090E0998388838DEF9FEFF4
:10351000A9CFA40170E060E00E94B03E8091E60473
:103520009091E704C80ED91EF60180819181080FA1
:10353000191FF801B28281E090E09983888390E0BE
:1035400080E090CFAF92BF92CF92DF92FF920F9325
:103550001F93CF93DF93EA01FC01E60FF71F8281EF
:103560009381F4800091E6041091E70401151105A0
:1035700081F482E090E0998388838CEF9FEFDF9164
:10358000CF911F910F91FF90DF90CF90BF90AF90A0
:1035900008952091E8043091E9048217930738F0E8
:1035A00082E090E0998388838EEF9FEFE8CF2FEF42
:1035B0002F0D2C3FA8F723E1289F6001299FD00CF5
:1035C00011240C0D1D1DF80180819181892B89F634
:1035D000FBE0FF9E50011124C5010E945426F80112
:1035E00091838083E091E604F091E704EC0DFD1DEA
:1035F00080819181009739F482E090E099838883FB
:103600008DEF9FEFBCCFA50170E060E00E94B03E5F
:10361000E091E604F091E704EC0DFD1DF28281E0FB
:1036200090E09983888390E080E0A9CFCF92DF92E9
:10363000EF92FF920F931F93CF93DF93860F971F05
:10364000FC01028113818091E6049091E704892BAB
:1036500081F082E090E0FA01918380838CEF9FEF0C
:10366000DF91CF911F910F91FF90EF90DF90CF905E
:103670000895C801B0E0A0E00197A109B1098F3F0A
:103680009F4FA105B10540F082E090E0FA019183DF
:1036900080838EEF9FEFE4CF7A0183E1809F60010A
:1036A000819FD00C1124C6010E945426EC01009782
:1036B00041F482E090E0F701918380838DEF9FEFEA
:1036C000CFCFA60170E060E00E94B03ED093E70447
:1036D000C093E6041093E9040093E80490E080E0CE
:1036E0002FEF3FEF41E061E070E08017910741F478
:1036F00081E090E0F7019183808390E080E0B0CF9B
:103700003A8B298B1B864C877E876D87188A1F868C
:1037100001966396EACFCF92DF92EF92FF920F93DA
:103720001F93CF93DF93EC01D12CC12C10E000E06C
:10373000F12CE12C6A816017110609F0CCF483E0CA
:10374000689FB0011124AE014F5E5F4FC7010E9418
:10375000CF26009721F02FEF3FEF3A8B298BDF9197
:10376000CF911F910F91FF90EF90DF90CF90089530
:10377000E881F981EC0DFD1D438154818D859E8585
:10378000489F9001499F300D589F300D1124C90169
:1037900001960115110519F44F8144FD049661E06D
:1037A00070E00E940D25E816F90608F47C010F5F11
:1037B0001F4F8BE0C80ED11CBDCFF8942091E404BC
:1037C0003091E50481E02115310509F080E0232BDB
:1037D00009F0789408952F923F924F925F926F92E2
:1037E0007F928F929F92AF92BF92CF92DF92EF9291
:1037F000FF920F931F93CF93DF933C01660E771ECA
:10380000F301828193814C01B12CA12CC091E6047B
:10381000D091E704209769F021E030E06091E8045E
:103820007091E9048617970710F030E020E0232B11
:10383000D1F482E090E0FA01918380838EEF9FEFD4
:10384000DF91CF911F910F91FF90EF90DF90CF907C
:10385000BF90AF909F908F907F906F905F904F90B0
:103860003F902F9008958092490290924A02A09230
:103870004B02B0924C0263E1689F9001699F300D4A
:103880001124C20FD31FF3018181833040F082E005
:1038900090E0FA019183808386EF9FEFD1CF2A01D8
:1038A0002B813C81232BF1F4288139819F8191FF69
:1038B0002EC0232B09F46FC02091EB049A81422F74
:1038C000490F5527551FBA0141E050E06138710595
:1038D00014F050E040E0452B09F45DC02A87920FB8
:1038E0009093EB048150823008F481C066DF882316
:1038F00009F4D8C0F3018181813009F48DC008F446
:103900007BC0823009F4C6C090E080E0ADC0232BBC
:1039100009F441C02091EA049A81E22FE90FFF27C0
:10392000FF1F41E050E0ED3FF10514F050E040E0B2
:10393000452B89F12A87920F9093EA04D3CFA08177
:10394000B181A20FB31F11966C91060F111D019644
:10395000295F3F4F8417950794F38D859E85089FB7
:103960001001099F300C189F300C1124C114D10490
:10397000D1F48F8184FF17C00E945B25F5E02F0EE4
:10398000311C21E08215930508F420E0A701455F72
:103990005F4F21110EC082E090E0F201918380839D
:1039A00087EF9FEF4DCF0E945B252FEF221A320A3F
:1039B000E8CF88819981E80EF91EF701148303830B
:1039C000FFEFCF1ADF0A7A018A818C151D0409F0F6
:1039D0000CF48CCFE881F981EE0DFF1D428150E09F
:1039E00030E020E010E000E090E080E0B3CFF12C88
:1039F000E12CD12CC12CE8CF81E090E09C838B831B
:103A0000DDDA882309F480CF81E090E00E945B1426
:103A100080E40E94691478CF89899A89019661F0BF
:103A200083E090E09C838B8382E090E00E945B14B3
:103A300080E40E94631468CF2D813E8180913F0213
:103A40009091400228173907D1F460914302709198
:103A50004402AE014F5E5F4F80914102909142025D
:103A60000E94C5270097E1F2789422E030E0F2014D
:103A700031832083892B99F08DEF9FEFE1CE23E0F6
:103A800082169104A104B1045CF6CE0144DE188ACA
:103A90001F86E8CF82E090E09C838B8335CF90E057
:103AA00080E0CECE82E090E0F2019183808385EFCA
:103AB0009FEFC6CE8F929F92AF92BF92CF92DF922E
:103AC000EF92FF920F931F93CF93DF93EA018C0144
:103AD000060F171FF8018181833098F082E090E093
:103AE0009983888386EF9FEFDF91CF911F910F918C
:103AF000FF90EF90DF90CF90BF90AF909F908F900E
:103B000008958091E6049091E704892B61F081E0AB
:103B100090E02091E8043091E904232B11F490E027
:103B200080E0892B39F482E090E0998388838EEFDE
:103B30009FEFDACF42DE882309F4DEC0F8018181ED
:103B4000813009F494C0E8F0823099F42091E804BF
:103B50003091E904E091E604F091E70490E080E020
:103B600041E050E02817390709F0BCC027DA81117D
:103B700017C0789481E090E09983888390E080E09A
:103B8000B3CF2091E8043091E904E091E604F0918C
:103B9000E70490E080E041E050E02817390741F465
:103BA00081E090E00E945B1480E40E946914E1CF00
:103BB00063817481672B11F054834383019673965C
:103BC000ECCFE091E604F091E704E00FF11F2381D0
:103BD000348122303105D9F4218932892F3F3F4F7A
:103BE000B1F44581568120913F0230914002421745
:103BF000530761F5AF014F5E5F4F609143027091D3
:103C0000440280914102909142020E94C5274FEFE9
:103C1000C41AD40AE40AF40A0D5E1F4F4091E80466
:103C20005091E90470E060E0C416D506E606F70698
:103C300034F5009731F27894892B09F49BCF82E018
:103C400090E0998388838DEF9FEF4ECF23E0C216DB
:103C5000D104E104F104DCF6CF015DDDE091E6047E
:103C6000F091E704E00FF11F108A1786D0CF10E023
:103C700000E090E080E0C12CD12C7601CFCF0097FE
:103C8000D1F610E000E0812C912C540183E0E82E65
:103C9000F12C1AC0E091E604F091E704E00FF11F67
:103CA00083819481029749F4F482E38282E090E078
:103CB0000E945B1480E40E9463148FEF881A980AB4
:103CC000A80AB80A0D5E1F4F8091E8049091E9049C
:103CD000B0E0A0E088169906AA06BB06DCF290E0E8
:103CE00080E0A9CF638174816230710511F454833F
:103CF00043830196739636CF82E090E09983888360
:103D000085EF9FEFF1CE0097B9F48FEFFB01808331
:103D10002091490230914A0243E1429FC001439FF2
:103D2000900D1124E091E604F091E704E80FF91FEB
:103D30008285FB01818308950C94121488E090E041
:103D4000FA019183808390E080E008951092E50469
:103D50001092E404E6EEF4E086E0DF011D928A951D
:103D6000E9F78EE09AE19093E3048093E2040895EA
:103D70008091E2049091E30408952F923F924F9234
:103D80005F926F927F928F929F92AF92BF92CF92EB
:103D9000DF92EF92FF920F931F93CF93DF93CDB7F4
:103DA000DEB760970FB6F894DEBF0FBECDBFF894B4
:103DB000E091E404F091E5043196F093E504E0939A
:103DC000E4047894A091E604B091E704BA83A9834F
:103DD000109709F4FAC1E091E804F091E904EF2B9F
:103DE00009F4F3C128874B875C876D877E879A87A4
:103DF0008987B88BAF87312C212CF12C512C412C89
:103E00008091E8049091E9042816390610F4FF2007
:103E100029F1F8948091E4049091E504019790933E
:103E2000E5048093E4047894C20160960FB6F89498
:103E3000DEBF0FBECDBFDF91CF911F910F91FF90DD
:103E4000EF90DF90CF90BF90AF909F908F907F903A
:103E50006F905F904F903F902F900895B10190E048
:103E600080E087D4682EEF85F889878181FD3DC089
:103E7000838194810397C9F5258136813C832B8307
:103E800089859A852817390781F5C101E1D8782EEF
:103E90008823A9F1AF85B8891F968D919C91509781
:103EA000019621E01D964D915C918417950709F0CC
:103EB00020E02F83B12CA12CEF85F88982818A150F
:103EC0001B0419F014F0FF20E9F0F885FF2309F432
:103ED0006CC1AF85B88950961C921E921F976620C0
:103EE00021F0B10190E080E046D4FFEF2F1A3F0AA5
:103EF0002F8538892D5E3F4F388B2F8781CFB1E0DA
:103F0000BF83D8CFBFD49E838D83E885EE23E9F0AD
:103F1000772009F43CC1AF85B8891F968D919C919B
:103F2000892B79F0BBE0BA9DC001BB9D900D112497
:103F3000AF85B889ED91FC91E80FF91F85819681D5
:103F400002D7BFEFAB1ABB0AB7CF81E0772039F0B9
:103F5000EF85F88927853089232B09F080E0F82E3A
:103F6000E12CA114B10439F4AF85B8891796EC900F
:103F7000E4FAEE24E0F8BBE0BA9D6001BB9DD00CF2
:103F80001124882309F424C1AF85B889ED91FC91EF
:103F90001197EC0DFD1D438154811D962D913C918F
:103FA000429FC001439F900D529F900D1124E1103C
:103FB0005DC001969087878361E070E0878190857E
:103FC0002CD5EF85F88921893289008111810C0D6A
:103FD0001D1D2F3F320709F44BC0BC01C9010E94CF
:103FE0000628D80116969C938E931597AF85B889AD
:103FF000ED91FC911197EC0DFD1D058116810115C8
:10400000110509F4CDC0ED81FE810E0F1F1F1A9618
:104010008C918A0DD8018C93E1102FC00F5F1F4F38
:10402000AF85B889ED91FC91EC0DFD1D12870187DC
:10403000AF85B889ED91FC91EC0DFD1D85819681D0
:10404000892B09F4A4C080913F02909140022B81FA
:104050003C812817390709F465C0772011F00185E4
:104060001285912C812C1A8219824AC00596A2CF02
:104070001BD6F80196838583B9CF8B859C85AD854A
:10408000BE85F80181839283A383B4830B5F1F4FA6
:10409000C7CFE080F180E80CF91CD70113966D9131
:1040A0007C9114978C918F3F09F473C0E1E0F0E0AC
:1040B00002C0EE0FFF1F8A95E2F7CF01092E000C18
:1040C000AA0BBB0BFB014081518162817381842368
:1040D0009523A623B72321E0892B8A2B8B2B09F468
:1040E00020E0D8012C93D70111968C91080F111D57
:1040F000E981FA813196FA83E983F7E08F0E911C0A
:10410000AF85B889ED91FC91EC0DFD1D828129816F
:104110003A818217130611F00CF0BBCF772011F013
:10412000128701873F81332391F1AF85B889ED91E3
:10413000FC91EC0DFD1D61E070E0878190856DD4F0
:10414000AF85B889ED91FC91EC0DFD1DE780F08401
:1041500045815681E1E0F0E0662011F0F0E0E0E01A
:104160000D811E819C01B101882799278E1B9F0B11
:104170008CD32C01892B59F0EF85F88980819181AE
:10418000C80ED91ED60115968D919C91DCD5F12CC7
:10419000D8CEF701418150E0C8010E94A73EA3CFCD
:1041A00086EF482E55245A94CCCEEF85F889878522
:1041B00090890196908B878725853685821793078E
:1041C00009F08DCE108A17868ACE512C412C21CE33
:1041D00010E000E02DCF2F923F924F925F926F92AE
:1041E0007F928F929F92AF92BF92CF92DF92EF9287
:1041F000FF920F931F93CF93DF938091E6049091EA
:10420000E70410E000E0892BA9F0D7DA0AEF1FEFEE
:10421000882381F02090E8043090E904C091E604FE
:10422000D091E704D12CC12C10E000E02C143D0407
:10423000A9F47894C801DF91CF911F910F91FF905D
:10424000EF90DF90CF90BF90AF909F908F907F9036
:104250006F905F904F903F902F900895C6010E94FD
:104260002818882309F18B819C810397E9F48F85B5
:104270009889892BC9F0B60190E080E07AD221E0DC
:1042800030E0882311F030E020E044245524421A25
:10429000530AB12CA12C912C812C8A8188151904E8
:1042A00009F038F4188A1F864FEFC41AD40A6396AF
:1042B000BDCFE881F981EA0DFB1D85819681892BAF
:1042C000A1F161E070E087819085A7D33C01DAD24B
:1042D0008C01E881F981EA0DFB1D8185928525819C
:1042E0003681200F311FAC01421B530B9A014781CD
:1042F0005085421B530B70E060E00E94B03EE881A5
:10430000F981EA0DFB1DE780F08445815681930118
:10431000B601C201BAD28C01892B39F0E881F9814A
:10432000EA0DFB1D858196810ED55FEF851A950AF2
:104330008BE0A80EB11CB1CF40CA789408952F929B
:104340003F924F925F926F927F929F92AF92BF92F5
:10435000CF92DF92EF92FF920F931F93CF93DF9351
:1043600000D000D0CDB7DEB70091E6041091E7048D
:10437000992493940115110509F43EC0A090E80416
:10438000B090E9041ADA982E8823B1F11092E7046C
:104390001092E6041092E9041092E8041092EA04E4
:1043A0001092EB048FEF9FEFDC0180934902909312
:1043B0004A02A0934B02B0934C0278947ED31E83A2
:1043C0000D83C12CD12C7601C501B0E0A0E089831A
:1043D0009A83AB83BC8322242A94322C89819A81CC
:1043E000AB81BC81C816D906EA06FB06F4F0C80109
:1043F000AAD480E40E946914892D26960FB6F894F9
:10440000DEBF0FBECDBFDF91CF911F910F91FF9007
:10441000EF90DF90CF90BF90AF909F907F906F9084
:104420005F904F903F902F900895AD81BE8115967B
:104430002D913C91169780913F0290914002281750
:104440003907D1F451968D919C91CED5ED81FE81A5
:1044500080819181B12CA12C412C512C3201892BCE
:1044600081F5BFEFCB1ADB0AEB0AFB0AED81FE8177
:104470007396FE83ED83B2CFB3E0CB16D104E10493
:10448000F10424F7ED81FE81818992898F3F98079D
:1044900009F021D5AD81BE8152963C922E92519762
:1044A000D5CF8A0D9B1DDC018D919C91009709F061
:1044B0004AD4BFEF4B1A5B0A6B0A7B0AEBE0AE0EE5
:1044C000B11CAD81BE818D919C91119712964C913A
:1044D00050E070E060E044165506660677060CF37F
:1044E00032D4BFCFCF93DF93EA0129DF811109C016
:1044F00082E090E09983888385EF9FEFDF91CF91F1
:10450000089581E090E00E945B1481E090E099833F
:10451000888390E080E0F2CF12DF1092E3041092E3
:10452000E204089542E050E06AEE72E00C947914DF
:10453000FF920F931F93CF93DF938A01EC01C60F75
:10454000D71FF980B9D20897F816190671F068F0EC
:1045500082E090E0F801918380838EEF9FEFDF91FE
:10456000CF911F910F91FF9008956C817D818E8175
:104570009F814B810E940E17811108C082E090E05C
:10458000F8019183808384EF9FEFE9CFF9800E9447
:1045900009174F2D50E0BE01685F7F4F0E94A73E74
:1045A00089810E94781781E090E0F80191838083EF
:1045B00090E080E0D4CFDF92EF92FF920F931F93B1
:1045C000CF93DF938A01EC01C60FD71F0E94091712
:1045D0007C01D98071D2DD2059F0029721E030E0D2
:1045E000D816190619F010F030E020E0232B79F4EA
:1045F00082E090E0F801918380838EEF9FEFDF915E
:10460000CF911F910F91FF90EF90DF900895EF28C9
:1046100041F482E090E0F8019183808384EF9FEF82
:10462000EECFF9800E9409174F2D50E0BE016E5F5A
:104630007F4F0E94A73E89810E94781781E090E019
:10464000F8019183808390E080E0D9CF82E992E203
:104650009093ED048093EC0408958091EC04909184
:10466000ED0408950895FC011182108293838283E2
:104670000895DB011D921C92DC011296ED91FC91D4
:1046800013977183608313967C936E9312970895AA
:10469000FC0180819181DB018D939C93A081B1818C
:1046A000109741F08D919C9191838083892B11F417
:1046B000F383E2830895FC0180819181DB018D9376
:1046C0009C93892B11F473836283718360830895B3
:1046D000FC0111821082938382830895CF93DF932C
:1046E0001F921F92CDB7DEB71A821982F894BE01CD
:1046F0006F5F7F4F83EF94E0CBDF89819A810097D2
:1047000009F021D389819A81892B89F7BE016F5FD6
:104710007F4F87EF94E0BCDF89819A81009709F091
:1047200012D389819A81892B89F778940F900F9001
:10473000DF91CF910895CF93DF931F921F92CDB752
:10474000DEB71A821982F894BE016F5F7F4F8FEE39
:1047500094E09EDF89819A81009709F0F4D28981E3
:104760009A81892B89F778940F900F90DF91CF91E0
:10477000089581E0089590E080E00895EF92FF921F
:104780000F931F93CF93DF931F921F92CDB7DEB786
:104790001A8219828091EE0407EF1FEF8823A1F19E
:1047A000F894BE016F5F7F4F87EF94E071DF7894DC
:1047B00089819A81EE24E394F12C892B51F4F894A9
:1047C000BE016F5F7F4F83EF94E062DF7894F12C3E
:1047D000E12C89819A810EEF1FEF0097A9F0FC016F
:1047E0004281538164E070E011D68C01892B61F025
:1047F000F89469817A81C701880F991F880F991FE2
:104800008D509B4F58DF7894C8010F900F90DF9127
:10481000CF911F910F91FF90EF9008950F931F93E9
:10482000CF93DF9300D01F92CDB7DEB71C821B82DF
:104830001A8219828091EE0407EF1FEF8823C1F0DE
:10484000AE014D5F5F4F64E070E0CE01019651D63E
:104850008C01892B69F4E981FA818B819C81938396
:104860008283F89469817A818FEE94E002DF7894F4
:10487000C8010F900F900F900F90DF91CF911F9173
:104880000F91089556D7049608958F929F92AF92F4
:10489000BF92CF92DF92EF92FF920F931F93CF932D
:1048A000DF931F921F92CDB7DEB71A821982BC0127
:1048B0006F5F7F4F6330710598F0AA24AA94BA2CD9
:1048C000C5010F900F90DF91CF911F910F91FF9035
:1048D000EF90DF90CF90BF90AF909F908F90089512
:1048E0004115510551F3480159018A016C01CADF94
:1048F0008815990511F7E114F104F9F28E0D9F1D49
:10490000A816B906D0F28091EE048823F1F0F8944D
:10491000B501645071099701AE014F5F5F4FC80147
:1049200004967CD65C01892B71F489819A81F80107
:1049300093838283C601880F991F880F991FB8013E
:104940008D509B4F96DE7894BBCF87EFA82EBB246B
:10495000BA94B6CFAF92BF92CF92DF92EF92FF920E
:104960000F931F93CF93DF931F921F92CDB7DEB7A4
:104970001A821982892B09F047C06115710509F463
:1049800043C04115510509F43FC02115310509F413
:104990003BC001151105C1F18091EE048823B9F1E6
:1049A00079016A015B01F894BE016F5F7F4F8FEE62
:1049B00094E06EDE789489819A81009759F1DC0148
:1049C00012966D917C91A801049641D68C01E981E3
:1049D000FA81D501ED93FC93828193810496F601CF
:1049E000918380834FDFD7018D939C93C8010F90F3
:1049F0000F90DF91CF911F910F91FF90EF90DF907B
:104A0000CF90BF90AF9008950FEF1FEFEFCF07EF5C
:104A10001FEFECCF0EEF1FEFE9CFCF93DF93EC0149
:104A2000672B71F48FD68C179D0760F082D6249681
:104A3000C80FD91F81D68C0F9D1FDF91CF9108958C
:104A40007ED6F1CF90E080E0F8CF0F931F93CF9305
:104A5000DF932091EE0421112BC08B01EC0183EF39
:104A600094E001DE87EF94E0FEDD8FEE94E0FBDD65
:104A700097D00097C1F466D670E060E0CEDF4DE4D9
:104A800052E062E070E08BD1009769F480914D02B2
:104A900090914E0269D6B801CE019ED4009719F4C8
:104AA00021E02093EE04DF91CF911F910F910895A3
:104AB00084EF9FEFF8CF43C645C6CF93DF9345D62B
:104AC000EC01892B11F40ADE36DECE01DF91CF91A5
:104AD0000895CF93DF9339D6EC01892B09F4FEDDDD
:104AE000CE01DF91CF91089580914D0290914E02B9
:104AF0000895CF93DF938091EE04D0E0C0E0882347
:104B0000D1F037D6EC01892BB1F4E8DD14DE8091C9
:104B10004D0290914E02DFD1C9D2EC01892B59F49C
:104B200083EF94E0D5DD87EF94E0D2DD8FEE94E063
:104B3000CFDD1092EE04CE01DF91CF910895EF9278
:104B4000FF920F931F93CF93DF93EC017A018B01B8
:104B50000F5F1F4F0E9DA0010F9D500D1E9D500D0C
:104B6000112470E060E00E94B03E90E080E0F0E050
:104B7000E0E02FEFE816F90639F4DF91CF911F91AD
:104B80000F91FF90EF9008951A8219822883309731
:104B900011F0D283C1830196FE01C00FD11FEACF6D
:104BA000AF92BF92CF92DF92EF92FF920F931F933B
:104BB000CF93DF9387E896E07C012CEFE22286EF2B
:104BC000C82E82E0D82E9CEFA92E92E0B92EC0E527
:104BD000D7E08E01D6014D915D916D01F501619196
:104BE00071915F01D8011196FC92EE9215965C933B
:104BF0004E93149713965C934E93129717967C934B
:104C00006E9316979B012F5F3F4F249FC001259FF6
:104C1000900D349F900D112419969C938E931897A4
:104C2000E114F10411F0C7018ADFF8018085918554
:104C3000E80EF91E065F1F4FFCEFCF16F2E0DF060D
:104C400049F6EDEFF4E087E891E0DF019C011D9269
:104C500021503040E1F71092FC041092FB0488E7E9
:104C600097E01F8E1E8E1BA21AA219A218A21DA2C7
:104C70001CA21FA21EA22A968C179D0791F71092C4
:104C80004D0710924C0710924F0710924E0790E07C
:104C900080E0DF91CF911F910F91FF90EF90DF9017
:104CA000CF90BF90AF9008950097A1F1F894813113
:104CB000910550F48091520790915307892B39F058
:104CC00020E090E080E019C08133910550F480919C
:104CD0005C0790915D07892B39F021E081E090E03D
:104CE0000CC081349105A8F4809166079091670704
:104CF000892B79F022E082E090E0EAE0E89FD001A1
:104D0000E99FB00D1124A05BB84F8D919C91009745
:104D100021F4789490E080E00895E29FF00111245E
:104D2000E05BF84FDC0111964D915C91518340831B
:104D3000428153814150510953834283FC012193A5
:104D4000CF0178940895009749F1DC018E91873066
:104D500041F4E0914E07F0914F073097F9F0CD0103
:104D600019948730D8F4282F30E0F8948FEF8C9383
:104D70008AE0829FF001839FF00D1124E05BF84FE1
:104D80008081918112969C938E931197B183A08319
:104D90008281938101969383828378940895CF9240
:104DA000DF92EF92FF920F931F93CF93DF939C01BB
:104DB00080E095E08C7F4115510509F489C02115EB
:104DC000310509F485C06115710509F481C08A01B6
:104DD000AB01B9016D5F7F4F6C7F9B012F5F3F4F30
:104DE000249F7001259FF00C349FF00C1124F8943F
:104DF000E0E5F7E023E030E0E901A6A1B7A1C68C29
:104E0000D78CCD2809F058C0109709F03EC0C0904B
:104E1000FB04D090FC0424E831E02C193D092E1548
:104E20003F0530F47894CFEFDFEF86EF9FEF21C09E
:104E30002AE02C9FF0012D9FF00D1124E05BF84F2C
:104E4000918380835583448353834283778366832E
:104E5000F186E086009709F072DEEC0CFD1CF09202
:104E6000FC04E092FB047894CF3FDC07F1F290E081
:104E700080E0F801D183C083DF91CF911F910F9122
:104E8000FF90EF90DF90CF900895AE15BF05A0F092
:104E90002AE02C9FF0012D9FF00D1124E05BF84FCC
:104EA00091838083558344835383428377836683CE
:104EB0000097C9F244DED7CF8A0F9B1F2F5F3F4F69
:104EC0003A962730310509F097CFCFEFDFEFCBCF00
:104ED0008FEF9FEFD1CF9C010397049708F052C04A
:104EE000F89486E09AE0482F50E024173507BCF18B
:104EF00091E08AE0829FF001839FF00D1124E05B36
:104F0000F84F118210821582148213821282178246
:104F10001682992301F18091FB049091FC04E0E555
:104F2000F7E024AD35AD232B69F4DF01AC5BBF4F57
:104F30002D913C9111972115310521F0821B930B86
:104F40001D921C923A9727E0E832F20751F79093AE
:104F5000FC048093FB04789490E080E00895949F93
:104F6000F001959FF00D1124E05BF84F40815181D5
:104F7000452B31F440855185452B11F48150B3CF39
:104F800090E0B7CF8FEF9FEF08954115510549F19C
:104F9000009739F16115710521F1F89420914C07C2
:104FA00030914D07232BB9F420914E0730914F07D4
:104FB000232B89F490934D0780934C0770934F07F0
:104FC00060934E07789427E030E090E080E0FA01AB
:104FD00031832083089578942FEF3FEF86EF9FEF82
:104FE000F6CF8FEF9FEF0895079769F4F89410922A
:104FF0004D0710924C0710924F0710924E0778946D
:1050000090E080E008958FEF9FEF0895611571059E
:1050100019F4F0E0E0E011C08730910581F4E091EF
:105020004C07F0914D073097A1F3CB0101961995EC
:10503000009779F3FC0187E08193CF0108959C01EB
:10504000235031092430310520F72AE0289FD00170
:10505000299FB00D1124A05BB84F2D913C91119761
:10506000232BB9F216962D913C91179726173707E7
:1050700080F2F89412962D913C91139721153105E9
:1050800029F0ED91FC911197309711F47894C1CFEC
:105090004181528111965C934E93215031091396B0
:1050A0003C932E93129781937894C7CFE4E8F6E06F
:1050B00088ECDF011D928A95E9F7EDEFF4E087E8CF
:1050C00091E0DF019C011D9221503040E1F71092E8
:1050D000FC041092FB04E0E5F7E086E4DF011D929A
:1050E0008A95E9F7ECE4F7E084E0DF011D928A9508
:1050F000E9F790E080E00895CF93DF93C0914F02ED
:10510000D0915002CF3FDC0759F4E0D39093500286
:1051100080934F0297FF09C0D0935002C0934F0273
:1051200084EF9FEFDF91CF91089590E080E0FACF78
:105130008230910528F48093960790E080E00895EE
:105140008FEF9FEF08954F925F926F927F92AF9291
:10515000BF92CF92DF92EF92FF920F931F93CF9364
:10516000DF931F921F92CDB7DEB71A821982009784
:1051700009F479C06115710509F475C020914F02D9
:105180003091500207EF1FEF2F3F3F4F09F445C00A
:105190006B015C01412C512C3201F12CE12C10E00F
:1051A00000E09E012F5F3F4FA6014E195F09B50138
:1051B0006E0D7F1D80914F0290915002EBD3892B91
:1051C00009F04BC089819A81009741F4E114F10400
:1051D00029F420919607222309F442C0E80EF91E13
:1051E000EC14FD04D0F480E8481684E858068EE1FB
:1051F0006806710420F560E070E0CB010E946D3814
:105200002AE0420E511C611C711C0A3F4FEF14072B
:1052100021F0043F8FEF1807A1F4C8010F900F9001
:10522000DF91CF911F910F91FF90EF90DF90CF9082
:10523000BF90AF907F906F905F904F90089501EF77
:105240001FEF81E090E0013F2FEF120711F090E097
:1052500080E0892B09F4A5CFE0CF04EF1FEFDDCF6D
:105260000AEF1FEFDACF0FEF1FEFD7CF4F925F920A
:105270006F927F92AF92BF92CF92DF92EF92FF92A6
:105280000F931F93CF93DF931F921F92CDB7DEB77B
:105290001A821982009709F479C06115710509F421
:1052A00075C020914F023091500207EF1FEF2F3F42
:1052B0003F4F09F445C06B015C01412C512C320178
:1052C000F12CE12C10E000E09E012F5F3F4FA60182
:1052D0004E195F09B5016E0D7F1D80914F029091AF
:1052E00050020BD3892B09F04BC089819A8100971A
:1052F00041F4E114F10429F420919607222309F4E2
:1053000042C0E80EF91EEC14FD04D0F480E8481603
:1053100086E9580688E96806710420F560E070E0C7
:10532000CB010E946D382AE0420E511C611C711C99
:105330000E3F4FEF140721F0043F8FEF1807A1F441
:10534000C8010F900F90DF91CF911F910F91FF90A7
:10535000EF90DF90CF90BF90AF907F906F905F9075
:105360004F90089502EF1FEF81E090E0023F2FEF92
:10537000120711F090E080E0892B09F4A5CFE0CF6F
:1053800004EF1FEFDDCF0EEF1FEFDACF0FEF1FEFB0
:10539000D7CF80914F02909150028F3F980749F0EC
:1053A0008CD2892B49F48FEF9FEF9093500280931A
:1053B0004F0290E080E0089584EF9FEF0895FC0194
:1053C000680F791F90E080E0E617F70709F4089569
:1053D0002191820F911DF8CF20919707211113C0C1
:1053E0008BDE009791F410929D0710929C0710920B
:1053F0009B0710929A07109299071092980721E044
:1054000020939707089584EF9FEF0895AF92BF927E
:10541000CF92DF92EF92FF920F931F93CF93DF9380
:10542000009709F460C04630510508F45CC0209133
:105430009707C7EFDFEF222309F449C08C01060F5D
:10544000171FF801C080D180C114D10409F44EC0E7
:1054500096012A5F3F4F4217530708F447C07C016B
:1054600080919C0790919D0793838283B6016C5F26
:105470007F4F5801A60EB71EC801A1DFF501918329
:10548000808364E070E0C8015EDEEC01892BF9F4F2
:1054900081E090E04DDEB601C801049654DEEC01D7
:1054A000892B91F462E070E0C5014DDEEC01892B9F
:1054B00059F4C70148DC80919C0790919D070196A3
:1054C00090939D0780939C0790E080E031DECE01B1
:1054D000DF91CF911F910F91FF90EF90DF90CF90D0
:1054E000BF90AF900895CFEFDFEFF1CFC9EFDFEFBF
:1054F000EECF6F927F928F929F92AF92BF92CF9298
:10550000DF92EF92FF920F931F93CF93DF9300D020
:105510001F92CDB7DEB7009709F47AC04115510547
:1055200009F476C02091970707EF1FEF222309F4B3
:105530004DC03A017B015C0164E070E0CE01019650
:1055400095DE8C01892B09F041C009811A81011572
:10555000110509F45AC0480186E0880E911CB70174
:10556000680D791D80915102909152024FDD6C01BE
:10557000009709F450C0A70170E060E00E94B03EBF
:1055800089819A81AB81BC81EC0CFD1CF701819370
:105590009193A193B1937F0181E090E0C9DDB801BF
:1055A000C70164DE892B31F562E070E0C701800F2E
:1055B000911F5CDE8C01892BE9F490E080E0B8DD7E
:1055C000F501D182C082F30191828082C8010F90DF
:1055D0000F900F900F90DF91CF911F910F91FF903F
:1055E000EF90DF90CF90BF90AF909F908F907F9083
:1055F0006F90089590E080E09BDDF50111821082AC
:10560000F30111821082C6019EDB09EF1FEFDECF8E
:105610000FEF1FEFDBCF06EF1FEFD8CF0097A1F002
:105620004115510589F02115310571F0F9013696C2
:105630006E177F0748F0DC012D933C93DA01ED9360
:10564000FC9390E080E008958FEF9FEF0895AF9274
:10565000BF92CF92DF92EF92FF920F931F93CF935F
:10566000DF93009709F45FC04115510509F45BC051
:105670006530710508F457C020919707C7EFDFEF39
:10568000222391F1DC01CD90DC9011971296ED91DF
:10569000FC9196012A5F3F4FC9EFDFEF26173707CE
:1056A00019F5C0919807D0919907209749F521E005
:1056B00030E030939907209398077A018C01F0939A
:1056C0009B07E0939A075601B4E0AB0EB11CB501FD
:1056D00076DE0A0D1B1DF8012081318182179307A8
:1056E00029F5D701CD92DC92CE01DF91CF911F91A8
:1056F0000F91FF90EF90DF90CF90BF90AF90089503
:1057000020919A0730919B072F5F3F4FCCEFDFEF3F
:10571000E217F30790F2CBEFDFEF2E173F0768F2A7
:10572000D0E0C0E0CACFCFEFDFEFDECFC3EFDFEFD7
:10573000DBCF84E090E0089582E090E008958CEF64
:105740009FEF089580E290E0089510929D071092D7
:105750009C0710929B0710929A071092990710923B
:10576000980790E080E00895909352028093510250
:10577000089580919707882391F00BDE009789F4B4
:1057800010929D0710929C0710929B0710929A0707
:10579000109299071092980710929707089590E039
:1057A00080E00895009749F06115710531F0FC0122
:1057B00011821082FB01118210820895F3CF40E81C
:1057C00055E260E070E090E080E000C0813091053B
:1057D00079F01CF4892B39F008958230910561F03D
:1057E000039771F0089526E08AE798E00C949A3BBD
:1057F00026E087E199E0FACF26E084EB99E0F6CF46
:1058000026E081E59AE0F2CF1F920F920FB60F9239
:1058100011240BB60F922F933F934F935F936F9387
:105820007F938F939F93AF93BF93EF93FF9386E004
:105830009FEF9093250180932401C0D0FF91EF91B9
:10584000BF91AF919F918F917F916F915F914F9198
:105850003F912F910F900BBE0F900FBE0F901F9096
:10586000189586E09FEF9093250180932401A3E78C
:10587000B0E08C918E7F8C93E0E2F1E080818C7FB0
:105880008083E1E2F1E08081877E80838081836094
:10589000808380818B7F80838C9181608C9308953D
:1058A000E3E7F0E0808190819E7F9083817008958E
:1058B00081E0089510929E07089568EE73E080E0FD
:1058C00090E00E946D3890E080E0089526E040E08E
:1058D00052EC61E070E08AE798E00E949A3B8AE728
:1058E00098E00E94D03A892B29F08AE798E00E943C
:1058F000EA3AF5CF90E080E00895CF92DF92EF9200
:10590000FF920F931F93CF93DF936B017A01E9010D
:10591000198218828AE798E00E94D03A892B79F19F
:105920008601CC24C39482E0D82E80919E078111F9
:1059300011C08AE798E00E94EA3A0297B1F7C09254
:105940009E07F801D1928F018881998101969983F0
:105950008883EBCF888199818E159F0580F48AE733
:1059600098E00E94EA3A8F3F9807A1F3F8018193EB
:105970008F0188819981019699838883EBCF90E08C
:1059800080E0DF91CF911F910F91FF90EF90DF901A
:10599000CF9008950F931F93CF93DF93EA0189016E
:1059A0008AE798E00E942A3EF801D183C08390E004
:1059B00080E0DF91CF911F910F910895CF92DF92F8
:1059C000EF92FF920F931F93CF93DF9300D0CDB749
:1059D000DEB78091A20791E0980F9093A2078823E9
:1059E000A1F021E030E03093A6072093A507809333
:1059F000A2070F900F900F90DF91CF911F910F9101
:105A0000FF90EF90DF90CF900895CE0101960E9415
:105A1000920778940091760210917702F801E85687
:105A2000FF4FC080D180E280F3800E940508B7015B
:105A3000A60181E090E00E940107F8948091A207FE
:105A400081508093A2078B81882389F08091A107E0
:105A500091E0980F9093A107882349F021E030E06E
:105A60003093A6072093A5078093A107C2CF80910A
:105A7000A107882309F4BDCF8091A3078111B9CF75
:105A80008091A4078F5F8093A4077894F801EC5568
:105A9000FF4F2081318142815381A4E6B0E00E9412
:105AA0009D3E6B017C010E949109B701A60182E035
:105AB00090E00E940107F8948091A10781508093A3
:105AC000A1078091A40781508093A40792CF0F93E0
:105AD0001F93CF93DF931092900B10928F0B0E9425
