:1000000015C100000C94D3410C94FE410C9429427C
:100010000C9454420C947F420C94AA420C94D54206
:100020000C94004334C1000032C1000030C1000014
:100030002EC100002CC100002AC1000028C1000010
:1000400026C1000024C1000022C1000020C1000020
:100050001EC100001CC100001AC100000C942B43FB
:1000600016C100000C9427470C945D4710C1000096
:100070000EC100000CC100000AC1000008C1000050
:1000800006C1000004C1000002C1000000C1000060
:100090000C94B3470C94E947FAC000000C94374025
:1000A000F6C00000F4C00000F2C00000F0C0000084
:1000B000EEC00000ECC00000EAC00000E8C0000094
:1000C000E6C00000E4C000000C94A0370C943F4848
:1000D0000C947548DCC000000C94CB480C9401498A
:1000E000D6C0000005A84CCDB2D44EB93836A9020E
:1000F0000C50B9918688083CA6AAAA2ABE00000026
:10010000803F00000A0B02090C0D0E0807030401D2
:1001100000000000000000000000000000000000DF
:1001200000000000000000000000000000001211AC
:1001300010000000000000000000000000000000AF
:10014000000000000000000001021020200808103C
:100150002040102040800201020108040201010237
:100160000408102040808040201008040201800410
:10017000020180402010080402010804020101026B
:10018000040810204080010204081020408005056A
:100190000505070508080808020202020A0A0808FD
:1001A000040404040101010101010101030303032B
:1001B00003030303040707070C0C0C0C0C0C0C0CBA
:1001C0000202020206060606060606060B0B0B0BCB
:1001D0000B0B0B0B000020002300260029002C0035
:1001E0002F00320000010000030106010901000098
:1001F0002200250028002B002E00310034000201CF
:100200000000050108010B01000021002400270067
:100210002A002D0030003300010100000401070115
:100220000A01A23D864712489E482A4911241FBE52
:10023000CFEFD1E2DEBFCDBF00E00CBF13E0A0E006
:10024000B2E0ECECF3E900E00BBF02C007900D92C6
:10025000A23DB107D9F72EE0A2EDB3E001C01D9297
:10026000AE33B207E1F711E0C6E1D1E000E006C02D
:1002700021970109802FFE010E94A749C131D107B2
:1002800080E00807A9F70E9493380C94E449B8CE9F
:10029000CF92DF92EF92FF926B017C01C114D104E7
:1002A000E104F10469F480910002811109C0809198
:1002B0000202909103020E94133D81E080930002AC
:1002C000C601880F991F880F991F80509E4FFF907D
:1002D000EF90DF90CF900895009781F0FC0121818D
:1002E000211104C040EA56E861E070E0FC0182811F
:1002F00093810E94223D90E080E0089588E090E0A4
:1003000008954F925F926F927F928F929F92AF92D9
:10031000BF92CF92DF92EF92FF920F931F93CF93F2
:10032000DF930097C9F1280139017A01EC01402FD0
:100330008A819B810E94A03D8A819B81DC01ED9195
:10034000FC910084F185E02D1995892B01F167015D
:10035000812C912C54018A819B81DC01ED91FC91CF
:100360000084F185E02D1995892B91F18414950471
:10037000A604B70469F18A819B81DC01ED91FC91AF
:100380000284F385E02D19958F3F9807C1F484E02E
:10039000F70111928A95E9F788E090E0DF91CF911B
:1003A0001F910F91FF90EF90DF90CF90BF90AF9093
:1003B0009F908F907F906F905F904F900895FFEF88
:1003C0008F1A9F0AAF0ABF0AD6018D936D01C3CF62
:1003D00090E080E0E3CF8F929F92AF92BF92CF9256
:1003E000DF92EF920F931F93CF93DF930097F1F07B
:1003F0006A01EC018A819B810E94253D8A819B8153
:10040000DC01ED91FC910280F381E02DA801B601A1
:1004100019958A819B8160E0E11001C061E00E9432
:100420002F3D882389F08250823088F088E090E068
:10043000DF91CF911F910F91EF90DF90CF90BF9000
:10044000AF909F908F90089590E080E0F1CF84E08E
:1004500090E0EECF0895611102C00C946C456130BC
:10046000E1F362E0FACF662319F061E00C94A8454D
:1004700060E0FCCFCF93DF93EC0170E060E06C179D
:100480007D070CF5072E000C880B990B0E94293A6A
:1004900020E030E0A9010E94263920E030E0A901E7
:1004A0000E94263920E030E040E450E40E942639E2
:1004B00020E030E040E450E40E9425390E94F63903
:1004C0006F5F7F4FDCCFDF91CF9108950F931F9324
:1004D000CF93DF93EC018C810E94D5458C018C85F4
:1004E0009D85C8DF88850E94D545488159816A81EC
:1004F0007B81019781F40130110579F44F5F5F4FE3
:100500006F4F7F4F488359836A837B83DF91CF91FD
:100510001F910F910895012B89F3415051096109F1
:100520007109F0CF83ED93E0D1CF83EE93E0CECF8E
:1005300083EF93E0CBCF83E094E0C8CF0F931F937A
:10054000CF93DF93EC0188850E94D5458C018C8583
:100550009D8590DF8C810E94D545488159816A81B3
:100560007B81019779F4012B81F44F5F5F4F6F4FCF
:100570007F4F488359836A837B83DF91CF911F919B
:100580000F9108950130110581F34150510961091E
:100590007109EFCF83ED93E0D1CF83EE93E0CECF1F
:1005A00083EF93E0CBCF83E094E0C8CF0F931F930A
:1005B000CF93DF93D82FC62F8A01E091D20380E139
:1005C000E89FF0011124ED52FC4F8D2F90E0B0E038
:1005D000A0E084839583A683B783862F90E0B0E064
:1005E000A0E080879187A287B38710821182128250
:1005F000138281E090E0A0E0B0E084879587A68731
:10060000B78760E08D2F0E946C4560E08C2F0E94C0
:100610006C458091D203813009F43FC0A8F082304C
:1006200009F462C0833009F486C08091D20391E05E
:10063000980F9093D203F801808390E080E0DF91DF
:10064000CF911F910F91089580E0D23049F081E061
:10065000D33031F08EEE8D0F8430D8F487E18D1BCE
:1006600041E050E06AEC72E00E94594180E0C23003
:1006700049F081E0C33031F08EEE8C0F843058F4B5
:1006800087E18C1B41E050E062E972E00E94594131
:10069000CCCF8FEFE5CF8FEFF5CF80E0D23049F0B0
:1006A00081E0D33031F08EEE8D0F8430C8F487E1D5
:1006B0008D1B41E050E06DEC72E00E94594180E0FA
:1006C000C23049F081E0C33031F08EEE8C0F8430BF
:1006D00048F487E18C1B41E050E065E972E0D6CF39
:1006E0008FEFE7CF8FEFF7CF80E0D23049F081E096
:1006F000D33031F08EEE8D0F8430C8F487E18D1B3E
:1007000041E050E060ED72E00E94594180E0C2306B
:1007100049F081E0C33031F08EEE8C0F843048F424
:1007200087E18C1B41E050E068E972E0AFCF8FEFCA
:10073000E7CF8FEFF7CF80E0D23049F081E0D330C0
:1007400031F08EEE8D0F8430C8F487E18D1B41E0CF
:1007500050E063ED72E00E94594180E0C23049F000
:1007600081E0C33031F08EEE8C0F843048F487E1A5
:100770008C1B41E050E06BE972E088CF8FEFE7CF50
:100780008FEFF7CF90E1899FF0011124ED52FC4FDC
:1007900080819181A281B381FB0180839183A283B7
:1007A000B38390E080E0089590E1899FF0011124E7
:1007B000ED52FC4F108211821282138290E080E091
:1007C000089590E080E00895CF92DF92EF92FF923B
:1007D000CF93882351F16A017B01CFEFC80F20E04E
:1007E00030E0A901CB01B6010E948A3987FF11C010
:1007F000C701B60190580E94FB399B01AC016C2FD8
:1008000070E090E080E0CF91FF90EF90DF90CF908C
:10081000B2C0C701B6010E94F6398C2FCF91FF906C
:10082000EF90DF90CF900C943244CF91FF90EF90F7
:10083000DF90CF9008950F931F938B019C0183E06D
:1008400036952795179507958A95D1F70D5E1B4F1D
:10085000462F477021E030E0F90102C0EE0FFF1F84
:100860004A95E2F7AF01F80120812423CB010196DC
:10087000211102C090E080E01F910F9108950F9325
:100880001F938B019C0183E036952795179507955B
:100890008A95D1F7677081E090E001C0880F6A9572
:1008A000EAF7F801ED5EFB4F2081452B31F480958E
:1008B000822380831F910F910895822BFACF2F926C
:1008C0003F924F925F926F927F928F929F92AF92E0
:1008D000BF92CF92DF92EF92FF920F931F93CF932D
:1008E000DF93D62EC72E782E692E49015A01280192
:1008F00061E08D2D0E946C45CD2DDC2D8E010F5FAA
:100900001F4FA8016D2D7C2D872D962DB8DF20E07F
:1009100030E0A901C201B7010E947A3B181664F4C5
:10092000C201B7010E94FB392B01C501B4010E942D
:10093000FB39A201CE0123D0C801DF91CF911F91D5
:100940000F91FF90EF90DF90CF90BF90AF909F906E
:100950008F907F906F905F904F903F902F90089571
:10096000882341F08150682F70E090E080E050E0F3
:1009700040E085CF0895862FB9010C9432449C0144
:10098000FC01EE5FFE4FE491E150E231E0F4F0E073
:100990008827E253FB4F8F4F0C94A749E004E704EC
:1009A000EA0401051605E3042B0537053B0552054E
:1009B00067057C059305A805E304BD05D405E90595
:1009C00084B5806884BD60E0822F0C94A84584B50E
:1009D0008062F8CF809180008C7F8260809380005D
:1009E00080918100807E8061682B609381005093AC
:1009F000870040938600809180008068809380000B
:100A0000E2CF809180008C7F826080938000809113
:100A10008100807E8061682B609381005093870005
:100A200040938600809180008062E8CF80918000B2
:100A30008C7F82608093800080918100807E8061C5
:100A4000682B6093810050938700409386008091CB
:100A500080008860D3CF8091B00080688093B00020
:100A60008091B100887F682B6093B100ACCF8091FA
:100A7000B0008062F3CF809190008C7F8260809381
:100A8000900080919100807E8061682B609391003E
:100A900050939700409396008091900080688093D7
:100AA000900091CF809190008C7F82608093900025
:100AB00080919100807E8061682B609391005093BB
:100AC000970040939600809190008062E8CF8091DB
:100AD00090008C7F82608093900080919100807E56
:100AE0008061682B6093910050939700409396002B
:100AF000809190008860D3CF8091A0008C7F82602D
:100B00008093A0008091A100807E8061682B60931B
:100B1000A1005093A7004093A6008091A000806898
:100B20008093A00050CF8091A0008C7F8260809342
:100B3000A0008091A100807E8061682B6093A1005D
:100B40005093A7004093A6008091A0008062E8CF58
:100B50008091A0008C7F82608093A0008091A10092
:100B6000807E8061682B6093A1005093A700409322
:100B7000A6008091A0008860D3CF809120018C7F57
:100B800082608093200180912101807E8061682BAA
:100B90006093210150932701409326018091200109
:100BA0008068809320010FCF809120018C7F82602C
:100BB0008093200180912101807E8061682B609369
:100BC00021015093270140932601809120018062EA
:100BD000E8CF809120018C7F8260809320018091FA
:100BE0002101807E8061682B609321015093270151
:100BF00040932601809120018860D3CF90E080E06F
:100C000008950F931F93009709F489C0611571052A
:100C100009F485C000919E0210919F022091A002CC
:100C20003091A1020E3F1F4F2F4F3F4F09F068C078
:100C30004FEF5FEFBA0140939E0250939F02609383
:100C4000A0027093A10240919E0250919F02609178
:100C5000A0027091A102DC011296ED91FC918081BD
:100C60009181A281B38180933F0590934005A09329
:100C70004105B093420584819581A681B781809317
:100C80003B0590933C05A0933D05B0933E058085C0
:100C90009185A285B3858093370590933805A093FD
:100CA0003905B0933A0584859585A685B7858093E7
:100CB000330590933405A0933505B0933605109213
:100CC0002F051092300510923105109232050E94C6
:100CD000E81B8DE09CE190931D0480931C0490938D
:100CE0001F0480931E040E94D71A009731F421E05C
:100CF00030E030934405209343051F910F910895F0
:100D000000919E0210919F022091A0023091A102B9
:100D1000DB010D931D932D933C93139794CF8FEF8D
:100D20009FEFEBCF8F929F92AF92BF92CF92DF92C5
:100D3000EF92FF921F93CF93DF934B015C011091D1
:100D4000460582E090E0909344058093430581142A
:100D50009104A104B10441F480914605811104C0BD
:100D600080914505C1E08111C0E0C12CD12C7601F4
:100D700080914605811106C080914505811102C010
:100D8000CC23D9F083E090E0909344058093430511
:100D9000CC2381F1CCE9DFEF111102C00E94721F58
:100DA000CE01DF91CF911F91FF90EF90DF90CF9018
:100DB000BF90AF909F908F9008956AE070E080E0C0
:100DC00090E00E949A4380E1C80E87E2D81EE11CA1
:100DD000F11C8FEF88169806A806B80631F0C1E01E
:100DE0008C149D04AE04BF0408F0C0E080E00E94B3
:100DF0000B1BBECFD0E0C0E0CFCFCF92DF92EF92FF
:100E0000FF920F931F93CF93DF938F3F910511F0C4
:100E100008F051C02091430530914405233031053D
:100E200039F020914305309144052130310531F4EA
:100E300024E030E030934405209343056A017B01B0
:100E4000EC0182309105A8F011E0AE01C701B601B6
:100E50000E94D61AAB01BC01CE011123F9F0DF913B
:100E6000CF911F910F91FF90EF90DF90CF900C9456
:100E70009B218C01000F111F045E1B4FD8018D9127
:100E80009C91892B09F30E94A5210297E9F6D801CC
:100E9000ED91FC91CE011995182FD7CF0E94BD215D
:100EA00090E080E0DF91CF911F910F91FF90EF9044
:100EB000DF90CF9008958FEF9FEFF4CF80E00C94F8
:100EC0000B1BCF93DF9386E090E0909344058093D3
:100ED00043050E94641BEC01ECE1F4E084E0DF01D7
:100EE0001D928A95E9F70E940A1F109244051092FC
:100EF0004305CE01DF91CF91089580914505089576
:100F000080912E05089560939E0270939F028093B6
:100F1000A0029093A10290E080E008951F93CF93E8
:100F2000DF93EC0180E090E5A3ECB8E48C879D872B
:100F3000AE87BF871F821E82188211E0188B1D8228
:100F400081E090E0A0E0B0E089839A83AB83BC832A
:100F500050E040E060E070E0CB019AD99F838E833F
:100F600040EA56E861E070E0488759876A877B87E6
:100F7000B3D91D83DF91CF911F910895CF92EF9246
:100F80000F931F93CF93DF9300D0CDB7DEB7FB0154
:100F900025E029839A838B83C12CE12C03E010E0A8
:100FA00020E030E0AE014F5F5F4F60E470E086818B
:100FB000978111DA0F900F900F90DF91CF911F91D1
:100FC0000F91EF90CF900895FC018081811110C0A6
:100FD00081E0808381819281A381B4810197A10501
:100FE000B10531F48581882319F08681978132CA51
:100FF00008952F923F924F925F926F927F928F92BD
:101000009F92AF92BF92CF92DF92EF92FF920F9397
:101010001F93CF93DF93CDB7DEB7ED970FB6F8945C
:10102000DEBF0FBECDBFC0901002D0901102E09085
:101030001202F0901302A70196016091A80B709123
:10104000A90B8091AA0B9091AB0B0E948A3988233F
:1010500041F0C092A80BD092A90BE092AA0BF0929B
:10106000AB0B8091A70B81111092A70BBE01675F9C
:101070007F4F8091AC0B86DB69857A858B859C855B
:101080000E94293A209164023091650240916602E3
:10109000509167020E947E3B209168023091690264
:1010A00040916A0250916B020E947E3B688B798B63
:1010B0008A8B9B8B6093610D7093620D8093630D9F
:1010C0009093640D0091040510910505D801CD9011
:1010D000DD90ED90FC90C092DD0DD092DE0DE0929F
:1010E000DF0DF092E00D80903D0C90903E0CA090B2
:1010F0003F0CB090400CA5019401C701B6010E94BD
:101100008A39181614F40C94BD132091450C3091B3
:10111000460C4091470C5091480CC701B6010E9403
:101120008A39181614F40C94BD131092D90D10922C
:10113000DA0D1092DB0D1092DC0DF8012081318167
:1011400042815381609174027091750280917602A0
:10115000909177020E947E3B209178023091790233
:1011600040917A0250917B020E9426390E94E13B15
:1011700020916C0230916D0240916E0250916F028D
:101180000E947E3B20917002309171024091720268
:10119000509173020E9426396093DD0D7093DE0D2D
:1011A0008093DF0D9093E00D6091150C7091160CFB
:1011B0008091170C9091180C6093D50D7093D60DFB
:1011C0008093D70D9093D80D0E94D31981111FC021
:1011D000C090D50DD090D60DE090D70DF090D80DE1
:1011E00020E030E0A901C701B6010E948A3987FDDD
:1011F00002C00C941A1480E090E0A0E8BFEB80934A
:10120000D50D9093D60DA093D70DB093D80D8091A6
:10121000190C90911A0CA0911B0CB0911C0C888B8E
:10122000998BAA8BBB8B4C015D01B7FAB094B7F8D0
:10123000B094C090150CD090160CE090170CF09064
:10124000180C8091DD0D9091DE0DA091DF0DB09115
:10125000E00D888F998FAA8FBB8F80911D0C909184
:101260001E0CA0911F0CB091200C8C8F9D8FAE8F07
:10127000BF8F8091210C9091220CA091230CB091F2
:10128000240C8C8B9D8BAE8BBF8BA7019601C50167
:10129000B4010E947E3B2B013C012C8D3D8D4E8D77
:1012A0005F8D688D798D8A8D9B8D0E947E3B9B0121
:1012B000AC01C301B2010E9426392B013C012091EF
:1012C000D50D3091D60D4091D70D5091D80D6C8928
:1012D0007D898E899F890E947E3B9B01AC01C30161
:1012E000B2010E9425392AE037ED43E25CE30E9417
:1012F0007E3BA70196010E94263960936D0D709385
:101300006E0D80936F0D9093700D88899989AA89CD
:10131000BB898093710D9093720DA093730DB09360
:10132000740D8C8D9D8DAE8DBF8D8093750D9093BA
:10133000760DA093770DB093780D8C899D89AE8939
:10134000BF898093790D90937A0DA0937B0DB09314
:101350007C0DEBECFCE080E4DF011D928A95E9F75F
:10136000C092D50DD092D60DE092D70DF092D80D47
:101370002AE037ED43E25CE3C501B4010E947E3B05
:1013800020E030E040E85FE30E94263960938B0C58
:1013900070938C0C80938D0C90938E0C10928F0C0C
:1013A0001092900C1092910C1092920C1092930C3F
:1013B0001092940C1092950C1092960C1092970C1F
:1013C0001092980C1092990C10929A0CC701B601C9
:1013D00090582AE037ED43E25CE30E947E3B20E038
:1013E00030E0A9010E94263960939B0C70939C0CFD
:1013F00080939D0C90939E0C812C912C40E8A42E00
:101400004FE3B42E80929F0C9092A00CA092A10C5E
:10141000B092A20C1092A30C1092A40C1092A50CE6
:101420001092A60C1092A70C1092A80C1092A90C66
:101430001092AA0C2AE037ED43E25CE3688D798DC7
:101440008A8D9B8D0E947E3B20E030E0A9010E94A6
:1014500026396093AB0C7093AC0C8093AD0C9093D9
:10146000AE0C1092AF0C1092B00C1092B10C109206
:10147000B20C8092B30C9092B40CA092B50CB092C6
:10148000B60C1092B70C1092B80C1092B90C1092C6
:10149000BA0CC701B6010E94D31981111FC0C090B8
:1014A000D50DD090D60DE090D70DF090D80D20E05E
:1014B00030E0A901C701B6010E948A3987FD02C048
:1014C0000C942E1480E090E0A0E8BFEB8093D50D43
:1014D0009093D60DA093D70DB093D80D6091D50DF4
:1014E0007091D60D8091D70D9091D80D90582AE02B
:1014F00037ED43E25CE30E947E3B2091FB0C309190
:10150000FC0C4091FD0C5091FE0C0E94263960931A
:10151000BB0C7093BC0C8093BD0C9093BE0C80915F
:10152000FF0C9091000DA091010DB091020D8093E0
:10153000BF0C9093C00CA093C10CB093C20C8091CF
:10154000030D9091040DA091050DB091060D8093AF
:10155000C30C9093C40CA093C50CB093C60C80E050
:1015600090E0A0E8BFE38093C70C9093C80CA093D1
:10157000C90CB093CA0CEBE8FCE0FD8FEC8F2EEDAC
:1015800032E039A728A7CE0105969DA38CA3DE01E2
:101590001196B98FA88FE2EEF2E0FD8BEC8B2BE079
:1015A0003DE0398B288BB9A3A8A39DA78CA73BE866
:1015B000C32E3CE0D32ED6018D919D910D90BC9110
:1015C000A02D88AB99ABAAABBBABD60150968D9141
:1015D0009D910D90BC91A02D8CAB9DABAEABBFABE4
:1015E000D60190968D919D910D90BC91A02D88AFC4
:1015F00099AFAAAFBBAFF60180A891A8A2A8B3A8E3
:1016000005ED1BE0F12CE12C170130E8230E311C15
:101610002C0C3D1CD8012D913D914D915C9168A9F8
:1016200079A98AA99BA90E947E3B20E030E0A9010C
:101630000E9426392B013C01F80124813581468125
:1016400057816CA97DA98EA99FA90E947E3B9B0111
:10165000AC01C301B2010E9426392B013C01D80123
:1016600018962D913D914D915C911B9768AD79AD88
:101670008AAD9BAD0E947E3B9B01AC01C301B201D0
:101680000E9426392B013C01F801248535854685C9
:101690005785C501B4010E947E3B9B01AC01C3018B
:1016A000B2010E942639D1016D937D938D939C9355
:1016B0001397005F1F4FB0E1EB0EF11CE0E4EE1654
:1016C000F10409F0A1CFA889B98950968D919D9117
:1016D0000D90BC91A02D88AB99ABAAABBBABE889B0
:1016E000F98981919191A191B191F98BE88B8CABA2
:1016F0009DABAEABBFAB848D958DA68DB78D88AFFE
:1017000099AFAAAFBBAF44A455A466A477A42BE8B5
:10171000222E2CE0322E10E000E07101B4E02B0EFE
:10172000311CC801805C9F4FF601E80FF91FFDAF27
:10173000ECAFD70150962D913D914D915C9153970F
:1017400068A979A98AA99BA90E947E3B4B015C01EB
:10175000F70120813181428153816CA97DA98EA935
:101760009FA90E947E3B9B01AC01C501B4010E9470
:1017700026394B015C01D1015C962D913D914D9133
:101780005C915F9768AD79AD8AAD9BAD0E947E3B61
:101790009B01AC01C501B4010E9426394B015C01DB
:1017A000F10124A535A546A557A5C301B2010E94A4
:1017B0007E3B9B01AC01C501B4010E942639EC8936
:1017C000FD89E00FF11F20813181428153810E9408
:1017D0002639ACADBDAD6D937D938D939C931397DE
:1017E000005F1F4F0034110509F097CFE8A5F9A558
:1017F0008191F9A7E8A7ACA5BDA58D93BDA7ACA71E
:10180000E8A1F9A18193F9A3E8A3F4E0CF0ED11CDC
:101810002C893D892C5F3F4F3D8B2C8B8BE99CE0C5
:101820008C159D0509F0C7CE1092D50D1092D60DDE
:101830001092D70D1092D80D6A81062E000C770BEE
:10184000880B990B0E94293A6C8B7D8B8E8B9F8B1A
:101850006981062E000C770B880B990B0E94293AA0
:101860004B015C016B81062E000C770B880B990BEA
:101870000E94293A68A379A38AA39BA36C81062EB0
:10188000000C770B880B990B0E94293A6CA77DA757
:101890008EA79FA79BE0292E9DE0392E2BEC3CE0E4
:1018A000398B288B412C512C3201ACA1BDA11D914B
:1018B000BDA3ACA3E889F98924813581468157818C
:1018C0006C897D898E899F890E947E3B6B017C019A
:1018D000A889B9892D913D914D915C91C501B401C3
:1018E0000E947E3B9B01AC01C701B6010E942639D4
:1018F0006B017C01E889F989208531854285538512
:1019000068A179A18AA19BA10E947E3B9B01AC01A9
:10191000C701B6010E9426396B017C01A889B989EB
:101920001C962D913D914D915C911F976CA57DA5C5
:101930008EA59FA50E947E3B9B01AC01C701B6010D
:101940000E9426396B017C01612F110F770B880BE8
:10195000990B0E94293A9B01AC01C701B6010E9474
:101960007E3B9B01AC01C301B2010E9426392B01D1
:101970003C01E889F9897096F98BE88B2E163F06B1
:1019800009F093CF4092D50D5092D60D6092D70DAD
:101990007092D80D1092E10D1092E20D1092E30DAD
:1019A0001092E40D6E81062E000C770B880B990BBC
:1019B0000E94293A6CA77DA78EA79FA76D81062E4E
:1019C000000C770B880B990B0E94293A68A779A71E
:1019D0008AA79BA76F81062E000C770B880B990BAB
:1019E0000E94293A68AB79AB8AAB9BAB6885062E1F
:1019F000000C770B880B990B0E94293A6CAB7DABDE
:101A00008EAB9FAB2BE43DE03DA32CA3888D998D3D
:101A1000049699AF88AF8901A88DB98DBD8BAC8B29
:101A20008BEC282E8CE0382EC12CD12C760139A2DB
:101A300028A2B4E02B0E311CE8A1F9A1208931893C
:101A4000428953896CA57DA58EA59FA50E947E3BEA
:101A50004B015C01A8A1B9A12D913D914D915C91E3
:101A600068A579A58AA59BA50E947E3B9B01AC0138
:101A7000C501B4010E9426394B015C01F101248D9E
:101A8000358D468D578D68A979A98AA99BA90E9491
:101A90007E3B9B01AC01C501B4010E9426394B017C
:101AA0005C01D1019C962D913D914D915C919F9748
:101AB0006CA97DA98EA99FA90E947E3B9B01AC01C8
:101AC000C501B4010E9426394B015C012AE037EDC3
:101AD00043E25CE3C301B2010E9426399B01AC01E1
:101AE000C501B4010E948E39F8016193719381930D
:101AF00091938F01AC89BD896D91BD8BAC8B062E06
:101B0000000C770B880B990B0E94293AF801268D5F
:101B1000378D40A151A10E947E3B9B01AC01C701C2
:101B2000B6010E9426396B017C0128AD39AD8C8944
:101B30009D892817390709F07ACFC092E10DD0921C
:101B4000E20DE092E30DF092E40D20E030E0A90117
:101B50006091DD0D7091DE0D8091DF0D9091E00DB3
:101B60000E947E3BA70196010E9426399B01AC0191
:101B70006091D90D7091DA0D8091DB0D9091DC0DA3
:101B80000E9425394B015C018092D50D9092D60DB3
:101B9000A092D70DB092D80D40904B0D50904C0DA7
:101BA00060904D0D70904E0D80914F0D9091500DA5
:101BB000A091510DB091520D88A399A3AAA3BBA3E4
:101BC0008091530D9091540DA091550DB091560DEB
:101BD0008CA79DA7AEA7BFA78091570D9091580DD8
:101BE000A091590DB0915A0D88A799A7AAA7BBA794
:101BF0000BE81CE0A88DB98DDD90B98FA88FECA003
:101C0000FDA0F7013496FDA3ECA3D7012D913D91E2
:101C10004D915C91C501B4010E947E3BF70122A168
:101C200033A144A155A10E942639ACA1BDA15E9665
:101C30006D937D938D939C9391976D2DDD0C770B18
:101C4000880B990B0E94293A6B017C01AC019B0126
:101C5000C301B2010E947E3BF801608371838283DD
:101C6000938328A139A14AA15BA1C701B6010E94B3
:101C70007E3BD80114966D937D938D939C9317971B
:101C80002CA53DA54EA55FA5C701B6010E947E3BD0
:101C9000F801608771878287938728A539A54AA5AF
:101CA0005BA5C701B6010E947E3BD8011C966D93CF
:101CB0007D938D939C931F97005F1F4FEC89FD8947
:101CC000288D398DE217F30709F094CFF12CE12C20
:101CD000AC8DBD8D50968D909D90AD90BC905397DE
:101CE000FD0181919191A191B191FD8FEC8F888F30
:101CF000998FAA8FBB8F848D958DA68DB78D8C8B78
:101D00009D8BAE8BBF8B84A595A5A6A5B7A58CA3EF
:101D10009DA3AEA3BFA30BEC1CE06801CE0CDF1C9F
:101D2000160132EB230E311CD80114962D913D91F2
:101D30004D915C911797C501B4010E947E3B2B0128
:101D40003C01F8012081318142815381688D798D78
:101D50008A8D9B8D0E947E3B9B01AC01C301B20129
:101D60000E9426392B013C01D80118962D913D91F6
:101D70004D915C911B976C897D898E899F890E940A
:101D80007E3B9B01AC01C301B2010E9426392B01AD
:101D90003C01F80124853585468557856CA17DA1D8
:101DA0008EA19FA10E947E3B9B01AC01C301B201A9
:101DB0000E9426399B01AC01D6016D917D918D91D8
:101DC0009C910E942539F101608371838283938302
:101DD000005F1F4F288939892017310709F09DCFEF
:101DE00034E0E30EF11C80E1E816F10409F070CF55
:101DF000C0900402D0900502E0900602F090070225
:101E0000A701960160919D0B70919E0B80919F0B95
:101E10009091A00B0E948A39882341F0C0929D0BBB
:101E2000D0929E0BE0929F0BF092A00B84E08F87E4
:101E3000C12CEE24E39401E010E020E030E0AE019C
:101E4000415F5F4F60E470E08091930B9091940B41
:101E50000E94EB018F8720E030E0811114C0CC2478
:101E6000C394E12C02E010E020E030E0AE01435FDB
:101E70005F4F60E470E08091930B9091940B0E940F
:101E800081012E853D85A0919C02B0919D020E940A
:101E9000AF490E94293A20E030E040E056E30E943A
:101EA0007E3B6093650D7093660D8093670D9093F4
:101EB000680D2091840230918502409186025091F4
:101EC00087020E947E3B6CA37DA38EA39FA3609399
:101ED000690D70936A0D80936B0D90936C0D9B014F
:101EE000AC016091D90D7091DA0D8091DB0D90916C
:101EF000DC0D0E948E39688B798B8A8B9B8B60936B
:101F0000D90D7093DA0D8093DB0D9093DC0D8091E9
:101F1000310C9091320CA091330CB091340C888F1D
:101F2000998FAA8FBB8F80912D0C90912E0CA09130
:101F30002F0CB091300C8C8F9D8FAE8FBF8F288D62
:101F4000398D4A8D5B8D688979898A899B890E9440
:101F50007E3B2C8D3D8D4E8D5F8D0E9426396B0111
:101F60007C01C092E10DD092E20DE092E30DF0927F
:101F7000E40D8091390C90913A0CA0913B0CB091FA
:101F80003C0C8CA79DA7AEA7BFA79C01AD0168899B
:101F900079898A899B890E947E3B68A779A78AA74D
:101FA0009BA78091350C9091360CA091370CB09185
:101FB000380C8C8B9D8BAE8BBF8B28A539A54AA581
:101FC0005BA5BC01CD010E9426394B015C018092CA
:101FD000E90D9092EA0DA092EB0DB092EC0DAC01E0
:101FE0009B01688979898A899B890E947E3BA70128
:101FF00096010E94263920E030E040E85FE30E942D
:1020000026392B013C012C893D894E895F896889DD
:1020100079898A899B890E947E3B2C8D3D8D4E8DCE
:102020005F8D0E942639A30192010E948E3968A318
:1020300079A38AA39BA36093E50D7093E60D80932B
:10204000E70D9093E80D28A539A54AA55BA5688DF5
:10205000798D8A8D9B8D0E942639A30192010E9461
:102060008E392B013C0128A139A14AA15BA1C701EE
:10207000B6010E947E3B9B01AC016C8D7D8D8E8DE7
:102080009F8D0E9425396C8F7D8F8E8F9F8F6093DF
:10209000C50D7093C60D8093C70D9093C80DA30115
:1020A0009201C701B6010E947E3B9B01AC01688D85
:1020B000798D8A8D9B8D0E94253968A779A78AA77B
:1020C0009BA76093C90D7093CA0D8093CB0D90931D
:1020D000CC0D28A139A14AA15BA1C501B4010E9480
:1020E0007E3B9B01AC016C897D898E899F890E9412
:1020F00025396C8B7D8B8E8B9F8B6093CD0D709370
:10210000CE0D8093CF0D9093D00DA3019201C50108
:10211000B4010E947E3B9B01AC016CA57DA58EA500
:102120009FA50E94253968A379A38AA39BA36093E6
:10213000D10D7093D20D8093D30D9093D40D8091D7
:10214000DD0D9091DE0DA091DF0DB091E00D888F37
:10215000998FAA8FBB8F4090290C50902A0C6090C9
:102160002B0C70902C0CC090250CD090260CE0907D
:10217000270CF090280C2CA13DA14EA15FA1BC0121
:10218000CD010E948E394B015C01A3019201688947
:1021900079898A899B890E947E3BA70196010E94CA
:1021A00026399B01AC01C501B4010E9425394B01C0
:1021B0005C018092D50D9092D60DA092D70DB09271
:1021C000D80D2C893D894E895F89688979898A89EA
:1021D0009B890E947E3B2C8D3D8D4E8D5F8D0E9494
:1021E0002639A50194010E947E3BA70196010E9419
:1021F00026396B017C01C092BD0DD092BE0DE092DC
:10220000BF0DF092C00D28A139A14AA15BA1688938
:1022100079898A899B890E947E3B28A539A54AA590
:102220005BA50E942639A50194010E947E3BA30173
:1022300092010E9426394B015C018092C10D90925F
:10224000C20DA092C30DB092C40DC092F10DD092F8
:10225000F20DE092F30DF092F40D8092F50D909254
:10226000F60DA092F70DB092F80D8091710D90913E
:10227000720DA091730DB091740D888B998BAA8B00
:10228000BB8B8093F90D9093FA0DA093FB0DB09347
:10229000FC0D2091750D3091760D4091770D509188
:1022A000780D2093FD0D3093FE0D4093FF0D50935C
:1022B000000E8091790D90917A0DA0917B0DB091D7
:1022C0007C0D8C8F9D8FAE8FBF8F8093010E90936E
:1022D000020EA093030EB093040EC092090ED0928A
:1022E0000A0EE0920B0EF0920C0E80920D0E909260
:1022F0000E0EA0920F0EB092100EC701B6010E94F2
:102300007E3B9B01AC01C501B4010E948E392B01BB
:102310003C014092190E50921A0E60921B0E709260
:102320001C0EAC019B016C8D7D8D8E8D9F8D0E944E
:102330007E3B6093110E7093120E8093130E909358
:10234000140E288939894A895B89C701B6010E9420
:102350007E3BA30192010E947E3B2B013C01A50123
:102360009401C501B4010E947E3B9B01AC01C301F5
:10237000B2010E942539A70196010E948E3960930F
:10238000150E7093160E8093170E9093180E809171
:102390006D0D90916E0DA0916F0DB091700D8093A9
:1023A000050E9093060EA093070EB093080E20E042
:1023B00030E04EE753E4688D798D8A8D9B8D0E94C5
:1023C0007E3B20E030E040E451E40E948E396B0116
:1023D0007C0120E030E0A9010E947A3B18160CF045
:1023E00051C2C092DD0DD092DE0DE092DF0DF09271
:1023F000E00D10E061E085E00E943302612F87E08C
:102400000E94330264E070E080E090E00E941B04D0
:102410008C019093D40B8093D30B20E030E04FE7F6
:1024200053E46091DD0D7091DE0D8091DF0D909190
:10243000E00D0E948A39181664F480E090E0AFE75E
:10244000B3E48093DD0D9093DE0DA093DF0DB09388
:10245000E00D4091DD0D5091DE0D6091DF0D70912A
:10246000E00DC8010E94E403609198027091990206
:1024700080919A0290919B020E94643A6093DD0DD4
:102480007093DE0D8093DF0D9093E00D8CD7882341
:1024900009F418C21092DD0D1092DE0D1092DF0DBE
:1024A0001092E00DC090DD0DD090DE0DE090DF0DBC
:1024B000F090E00D20E030E0A901C701B6010E94D4
:1024C0008A3987FF21C2C701B60190580E94FB39A3
:1024D00088279927861B970B6AE77CE00E94BE0736
:1024E00080E4EDE7FDE0A5EDBBE001900D928A955B
:1024F000E1F780916D0D90916E0DA0916F0DB091EF
:10250000700D8093150C9093160CA093170CB0933C
:10251000180C8091710D9091720DA091730DB09176
:10252000740D8093190C90931A0CA0931B0CB0930C
:102530001C0C8091750D9091760DA091770DB09146
:10254000780D80931D0C90931E0CA0931F0CB093DC
:10255000200C8091790D90917A0DA0917B0DB09116
:102560007C0D8093210C9093220CA093230CB093AC
:10257000240C80913D0C90913E0CA0913F0CB091A9
:10258000400C888B998BAA8BBB8B40902C0E509063
:102590002D0E60902E0E70902F0EA3019201BC01A3
:1025A000CD010E948A39E0910405F0910505811161
:1025B000B1C180819181A281B38180933D0C9093C0
:1025C0003E0CA0933F0CB093400CE1E4FCE0809102
:1025D000610D9091620DA091630DB091640D8083A7
:1025E0009183A283B3838091BD0D9091BE0DA09184
:1025F000BF0DB091C00D8093250C9093260CA09335
:10260000270CB093280C8091C10D9091C20DA09120
:10261000C30DB091C40D8093290C90932A0CA09304
:102620002B0CB0932C0C8091C50D9091C60DA091F0
:10263000C70DB091C80D80932D0C90932E0CA093D4
:102640002F0CB093300C8091C90D9091CA0DA091C0
:10265000CB0DB091CC0D8093310C9093320CA093A4
:10266000330CB093340C8091CD0D9091CE0DA09190
:10267000CF0DB091D00D8093350C9093360CA09374
:10268000370CB093380C8091D10D9091D20DA09160
:10269000D30DB091D40D8093390C90933A0CA09344
:1026A0003B0CB0933C0C4091E2045091E3046091E8
:1026B000E4047091E50490E080E00E94FD06409102
:1026C000EA045091EB046091EC047091ED0481E018
:1026D00090E00E94FD06C090E204D090E304E090F8
:1026E000E404F090E5049FEFC91AD90AE90AF90A4F
:1026F000C092E204D092E304E092E404F092E50494
:102700000091040510910505C701B6010E94273A02
:102710009B01AC016091E6047091E7048091E804AC
:102720009091E9040E947E3BD8016D937D938D9337
:102730009C9313978091EA049091EB04A091EC0490
:10274000B091ED040196A11DB11D8093EA04909310
:10275000EB04A093EC04B093ED048091F204882381
:1027600009F40AC1813009F40BC181E09091F404AD
:10277000992309F402C180E000C18092D50D9092A6
:10278000D60DA092D70DB092D80D4090450C509028
:10279000460C6090470C7090480CA3019201C50153
:1027A000B4010E948A3987FF3AC0A3019201C70190
:1027B000B6010E947A3B1816D4F54092D50D50927E
:1027C000D60D6092D70D7092D80DE9E4FCE020811F
:1027D000318142815381688979898A899B890E94E4
:1027E00025394B015C012091D50D3091D60D4091DA
:1027F000D70D5091D80DC701B6010E9425399B0114
:10280000AC01C501B4010E948E396093D90D70935B
:10281000DA0D8093DB0D9093DC0D0C949D08A501DF
:102820009401C701B6010E948A39181634F6E1E412
:10283000FCE0CDCF20E030E0A901C701B6010E9445
:102840007A3B181634F480E090E0A0E8BFE30C94E3
:10285000FF0880E090E0DC010C94FF0820E030E00D
:10286000A901C701B6010E947A3B181634F480E032
:1028700090E0A0E8BFE30C94660A80E090E0DC0101
:102880000C94660A20E030E0A901C701B6010E945D
:102890008A3987FF0DC0E894F7F8C092DD0DD09219
:1028A000DE0DE092DF0DF092E00D11E060E0A3CDCF
:1028B0001092DD0D1092DE0D1092DF0D1092E00DE2
:1028C00010E0F4CF6091DD0D7091DE0D8091DF0D91
:1028D0009091E00D23D58111DDCD6091DD0D7091DA
:1028E000DE0D8091DF0D9091E00D20E030E040E8BA
:1028F00057E40E947E3A6093DD0D7093DE0D809365
:10290000DF0D9093E00DCECDC701B6010E94FB39DB
:10291000CB01E2CD8090450C9090460CA090470CE6
:10292000B090480CC080D180E280F380A501940172
:10293000C301B2010E948A3981110BC0C092450CBB
:10294000D092460CE092470CF092480CE9E4FCE08F
:102950003ECEA5019401688979898A899B890E9464
:102960008A3987FFEBCFC0923D0CD0923E0CE092AB
:102970003F0CF092400C29CE81E08093F30402C01A
:102980001092F3048091F304B4E08B9FF0011124C2
:10299000EB50FB4FC082D182E282F3828093F40439
:1029A0008FEF8093F304ED960FB6F894DEBF0FBE61
:1029B000CDBFDF91CF911F910F91FF90EF90DF90EE
:1029C000CF90BF90AF909F908F907F906F905F90CF
:1029D0004F903F902F9008954F925F926F927F9209
:1029E0008F929F92AF92BF92CF92DF92EF92FF921F
:1029F0000F931F93CF9384E090E059D48AE494E03E
:102A000021E035E0309351042093500424E035E078
:102A100030938B0420938A0426EE34E030935F04D5
:102A200020935E049093B5048093B40490934F0474
:102A300080934E0481E090E090930205809301051D
:102A40008BEC92E0909355048093540426E035E09B
:102A5000309305052093040580E090E0A0EFB2E4F8
:102A60008093FD049093FE04A093FF04B0930005AF
:102A70008AE097EDA3E2BCE38093E6049093E70439
:102A8000A093E804B093E90481E894E2A0EBB9EFE5
:102A90008093D0049093D104A093D204B093D30434
:102AA00083ED99EAAEE4B2E08093D4049093D50428
:102AB000A093D604B093D7048BE598E2A3E7BFE8D0
:102AC0008093D8049093D904A093DA04B093DB04E4
:102AD0008BE699E4A2EFB6E48093DC049093DD04E6
:102AE000A093DE04B093DF048EE394E090934D0452
:102AF00080934C0480E294E090933F0480933E04E2
:102B00008DED92E090932104809320049093230410
:102B100080932204909325048093240490932704A7
:102B200080932604909329048093280490932B0487
:102B300080932A0490932D0480932C0490932F0467
:102B400080932E0490933104809330049093330447
:102B50008093320490933504809334049093370427
:102B600080933604909339048093380490933B0407
:102B700080933A0490933D0480933C0480EE94E06B
:102B8000909343048093420480ED94E09093410439
:102B90008093400430934504209344048FEF809346
:102BA000F2048093F3041092F40480E4E4E1F2E090
:102BB000A5EDBBE001900D928A95E1F7809154025A
:102BC00090915502A0915602B09157028093150C36
:102BD0009093160CA093170CB093180C8091580288
:102BE00090915902A0915A02B0915B028093190C06
:102BF00090931A0CA0931B0CB0931C0C80915C0258
:102C000090915D02A0915E02B0915F0280931D0CD5
:102C100090931E0CA0931F0CB093200C8091600227
:102C200090916102A0916202B09163028093210CA5
:102C30009093220CA093230CB093240C80912C0E23
:102C400090912D0EA0912E0EB0912F0E80933D0CE1
:102C500090933E0CA0933F0CB093400C8093450C96
:102C60009093460CA093470CB093480C80917C0243
:102C700090917D02A0917E02B0917F028093250CFD
:102C80009093260CA093270CB093280C809180027F
:102C900090918102A0918202B09183028093290CCD
:102CA00090932A0CA0932B0CB0932C0C809188024B
:102CB00090918902A0918A02B0918B0280932D0C91
:102CC00090932E0CA0932F0CB093300C80918C021B
:102CD00090918D02A0918E02B0918F028093310C61
:102CE0009093320CA093330CB093340C80919002EB
:102CF00090919102A0919202B09193028093350C31
:102D00009093360CA093370CB093380C80919402BA
:102D100090919502A0919602B09197028093390C00
:102D200090933A0CA0933B0CB0933C0C412C80E563
:102D3000582E83EC682E88E4782E4092B90B50927E
:102D4000BA0B6092BB0B7092BC0B1092B40B10923A
:102D5000B30B1092AD0B1092B20BC12CD12C76019B
:102D6000C394C092AE0BD092AF0BE092B00BF09236
:102D7000B10B1092600D10925F0D10925B0D1092CE
:102D80005C0D10925D0D10925E0D50E040E060E031
:102D900070E0CB010E9448019093B40B8093B30B79
:102DA00020EA822E26E8922EAA24A394B12C8092A7
:102DB000B50B9092B60BA092B70BB092B80B809265
:102DC0001D0E90921E0EA0921F0EB092200E40EA91
:102DD00056E861E070E00E946C01C1E0C093B20B64
:102DE00089E69CE00E948E071092AC0B1092A10B1A
:102DF0008091100290911102A0911202B0911302E1
:102E00008093A80B9093A90BA093AA0BB093AB0B44
:102E10001092A60BC092A20BD092A30BE092A40B2F
:102E2000F092A50B4CEA5BE063E082E00E94D602E0
:102E3000C093A60B1092A70B8091AC0B0E94D403F9
:102E40004092990B50929A0B60929B0B70929C0B44
:102E50001092940B1092930B10928D0B80910402A0
:102E600090910502A0910602B091070280939D0BFC
:102E700090939E0BA0939F0BB093A00B1092920B7C
:102E8000C0928E0BD0928F0BE092900BF092910B30
:102E90001092600D10925F0D10925B0D10925C0D00
:102EA00010925D0D10925E0D50E040E060E070E029
:102EB000CB010E9448019093940B8093930B8092D6
:102EC000950B9092960BA092970BB092980B8092D4
:102ED0001D0E90921E0EA0921F0EB092200E40EA80
:102EE00056E861E070E00E946C01C093920B109272
:102EF000C50BC092C60BD092C70BE092C80BF092E4
:102F0000C90B61E085E00E942B02C093CA0B1092AE
:102F1000BD0BC092BE0BD092BF0BE092C00BF092E3
:102F2000C10B61E087E00E942B02C093C20B10929C
:102F3000CD0B1092D20BC092CE0BD092CF0BE09261
:102F4000D00BF092D10BE12CF12C8701A801970155
:102F500064E070E080E090E00E945F049093D40B06
:102F60008093D30BC093D20B8AE79CE00E948E071C
:102F7000609108027091090280910A0290910B02FF
:102F80000E94643A6093ED0D7093EE0D8093EF0D07
:102F90009093F00D08D2882309F482C01092ED0DB1
:102FA0001092EE0D1092EF0D1092F00DC090ED0DFD
:102FB000D090EE0DE090EF0DF090F00D20E030E0BD
:102FC000A901C701B6010E948A3987FF8BC0C701DA
:102FD000B60190580E94FB39719561957109109264
:102FE000210E7093220E6093230EC12CE12C03E07E
:102FF00010E020E030E041E25EE060E470E08091CB
:10300000B30B9091B40B0E94EB0160910C02709194
:103010000D0280910E0290910F020E94643A60931B
:10302000ED0D7093EE0D8093EF0D9093F00DBBD1ED
:10303000882309F45CC01092ED0D1092EE0D1092F1
:10304000EF0D1092F00DC090ED0DD090EE0DE090D0
:10305000EF0DF090F00D20E030E0A901C701B601BE
:103060000E948A3987FF65C0C701B60190580E9447
:10307000FB3988279927861B970B69E67CE0CF915F
:103080001F910F91FF90EF90DF90CF90BF90AF9086
:103090009F908F907F906F905F904F900C94BE07A1
:1030A0006091ED0D7091EE0D8091EF0D9091F00D0E
:1030B00035D1811173CF6091ED0D7091EE0D80913E
:1030C000EF0D9091F00D20E030E040E857E40E94D1
:1030D0007E3A6093ED0D7093EE0D8093EF0D90931B
:1030E000F00D64CFC701B6010E94FB3978CF609123
:1030F000ED0D7091EE0D8091EF0D9091F00D0ED1D0
:10310000811199CF6091ED0D7091EE0D8091EF0DD1
:103110009091F00D20E030E040E857E40E947E3AC4
:103120006093ED0D7093EE0D8093EF0D9093F00D85
:103130008ACFC701B6010E94FB39CB019ECF809197
:10314000A10B811114C081E08093A10B8091A20B8F
:103150009091A30BA091A40BB091A50B0197A10591
:10316000B10529F48091A60B81110E94E1038091A1
:103170008D0B811119C081E080938D0B80918E0B96
:1031800090918F0BA091900BB091910B0197A1059D
:10319000B10551F48091920B882331F08091930B0B
:1031A0009091940B0E942A028091C50B811103C05B
:1031B00081E08093C50B8091BD0B811103C081E03C
:1031C0008093BD0B8091CD0B81112EC081E0809347
:1031D000CD0B8091CE0B9091CF0BA091D00BB091E5
:1031E000D10B0197A105B105F9F48091D20B882389
:1031F000D9F064E070E080E090E00E941B049093BE
:10320000D40B8093D30B40E050E0BA010E94E4035A
:1032100064E070E080E090E00E941B049093D40B87
:103220008093D30B0E94B0048AE79CE00E94E407DD
:103230008091AD0B811119C081E08093AD0B80911D
:10324000AE0B9091AF0BA091B00BB091B10B019769
:10325000A105B10551F48091B20B882331F0809122
:10326000B30B9091B40B0E942A0289E69CE00C9467
:10327000E40760E070E080E89FE7089560E070E0B8
:1032800080E89FE7089560E070E080E89FEF089590
:1032900060E070E080E89FEF089560E070E080EC0F
:1032A0009FEF089560E070E080EC9FEF0895F5DFF8
:1032B0006093300E7093310E8093320E9093330EE4
:1032C000F1DF6093240E7093250E8093260E909369
:1032D000270ECFDF60932C0E70932D0E80932E0E51
:1032E00090932F0ECBDF6093280E7093290E80935E
:1032F0002A0E90932B0EC7DF6093340E7093350E19
:103300008093360E9093370EC3DF6093380E709320
:10331000390E80933A0E90933B0E0895CF92DF9230
:10332000EF92FF92CF936B017C01AC019B01609106
:103330002C0E70912D0E80912E0E90912F0E0E94CA
:103340008A39C1E0882371F0A70196016091340E9B
:103350007091350E8091360E9091370E0E948A3909
:103360008111C0E08C2FCF91FF90EF90DF90CF9034
:1033700008950F931F938B019C010027112720783C
:103380003F770115110520483F4749F4AB01BC01C7
:103390006F77772781E0452B462B472B09F480E098
:1033A0001F910F910895E5CF4F925F926F927F9298
:1033B0008F929F92AF92BF92CF92DF92EF92FF9245
:1033C0000F931F93F89440901E0550901F05609036
:1033D000200570902105C0901205D0901305E09053
:1033E0001405F09015054130510509F0A4C09B016A
:1033F000AC01241935094609570929013A01009100
:103400001A0510911B0520911C0530911D054801DE
:103410005901840C951CA61CB71C80169106A206A7
:10342000B306A0F400911605109117052091180518
:10343000309119050F5F1F4F2F4F3F4F0093160517
:1034400010931705209318053093190580921A05DB
:1034500090921B05A0921C05B0921D0500911605C7
:1034600010911705209118053091190580922205B9
:1034700090922305A0922405B0922505009326057D
:1034800010932705209328053093290560931E0586
:1034900070931F058093200590932105A0E1B7E26A
:1034A000A30192010E94CA496C0D7D1D8E1D9F1DB6
:1034B000609312057093130580931405909315057E
:1034C00000919E0210919F022091A0023091A102D2
:1034D0000F3F1F4F2F4F3F4FF1F000919E02109171
:1034E0009F022091A0023091A1020E3F1F4F2F4F4B
:1034F0003F4F89F0C0909E02D0909F02E090A002C2
:10350000F090A10221E08C149D04AE04BF0408F4E5
:1035100020E020932E0578941F910F91FF90EF905B
:10352000DF90CF90BF90AF909F908F907F906F90E3
:103530005F904F9008954B015C0184189508A60890
:10354000B708A3019201261B370B480B590B6415D2
:10355000750586059705D0F082169306A406B50674
:1035600040F420E030E0A90181149104A104B104E9
:1035700091F4A0E1B7E20E94CA49A7019601261B77
:10358000370B480B590BCA01B901C5CF82169306F8
:10359000A406B50670F7A0E1B7E2A50194010E9468
:1035A000CA496C0D7D1D8E1D9F1DB5CFFDCECF93DD
:1035B000DF9300D01F92CDB7DEB71C821B821A8228
:1035C000198210922A0510922B0510922C05109248
:1035D0002D05BE016F5F7F4FCE0103960E946E37AF
:1035E00069817A818B819C810E94C530009761F44A
:1035F000BE016F5F7F4FCE0103960E947A376981CB
:103600007A818B819C812FD50F900F900F900F9016
:10361000DF91CF910895FF920F931F93CF93DF9384
:10362000082F60E070E0CB010E949A43FF24F394DE
:103630000E94AE2FEC01892B89F010E0CE3F8FEF76
:10364000D80769F0002361F160E070E0CB010E94CF
:103650009A4381E090E0892B59F322C011E026D5EE
:10366000EC01892B21F0CE3F8FEFD80759F71111CC
:103670001EC011E0229609F410E00E945E2FEC01BA
:10368000892B21F0CE3F8FEFD807E1F6111111C041
:1036900011E0CE3F8FEFD80709F410E001110BC005
:1036A000CE01DF91CF911F910F91FF90089511E00E
:1036B000E4CF11E0F3CF60E070E0CB010E949A43C9
:1036C0001F25812F90E0C7CFCF93DF9380912E05E8
:1036D000882321F060E070E0CB014DD636D6D0E0F3
:1036E000C0E0892B71F06AE070E080E090E00E9419
:1036F0009A4381E090DF29D62196C03D27E0D2078A
:1037000081F728D60E94193110924605109245057E
:1037100010923F051092400510924105109242050B
:1037200010923B0510923C0510923D0510923E050B
:1037300010923705109238051092390510923A050B
:10374000109233051092340510923505109236050B
:1037500010922F051092300510923105109232050B
:103760004EEF5FEF6FEF7FEF40939E0250939F020B
:103770006093A0027093A10210922E05E2E2F5E0A0
:1037800028E0DF011D922A95E9F710921E0510929C
:103790001F05109220051092210510921A05109213
:1037A0001B0510921C0510921D0510921605109213
:1037B0001705109218051092190510921205109213
:1037C00013051092140510921505DF91CF910895FD
:1037D00010925205109253051092540510925505FF
:1037E0001092510580915A0590915B059093500578
:1037F00080934F0510924E0510924D051092490589
:1038000010924A0510924B0510924C0510925705E4
:103810001092560590E080E00895CF92DF92EF92EB
:10382000FF920F931F93CF938C01019709F055C01E
:1038300020915A0530915B0580914F05909150057C
:1038400040915A0550915B055093500540934F05A8
:103850002817390781F010924E0510924D051092ED
:10386000490510924A0510924B0510924C05109292
:1038700057051092560580915A0590915B05019766
:1038800061F58091560590915705892B21F480911F
:10389000A202811112C0809156059091570501979F
:1038A000E1F48091490590914A05A0914B05B091B2
:1038B0004C050197A105B10581F4109249051092BC
:1038C0004A0510924B0510924C051092A20282E01C
:1038D00090E0909357058093560580915A059091FA
:1038E0005B05019709F01CC18091700590917105ED
:1038F0008017910709F014C180916C0590916D05B6
:10390000A0916E05B0916F05009709F409C120914F
:103910006B0521110DC040916C0550916D056091B2
:103920006E0570916F05452B462B472B09F4F8C0A7
:1039300020915605309157052230310509F0F0C02D
:1039400020914D052111ECC0FC01C080D180E280A6
:10395000F38080915105882309F4D3C080915D05DF
:1039600090915E05892B09F4FEC020915D05309190
:103970005E0581E02230310509F080E020915D058F
:1039800030915E05C1E02130310549F020915D059F
:1039900030915E05C1E02230310509F0C0E0882396
:1039A00009F456C02091670530916805409169057A
:1039B00050916A05C701B6010E947A3B87FD14C089
:1039C00020916705309168054091690550916A051D
:1039D0006091520570915305809154059091550561
:1039E0000E948A3987FD22C02091670530916805C1
:1039F0004091690550916A05C701B6010E947A3B62
:103A0000181634F5209167053091680540916905D5
:103A100050916A056091520570915305809154054B
:103A2000909155050E948A39811112C080915F05DD
:103A300090916005A0916105B0916205892B8A2B58
:103A40008B2B19F481E080934E0581E080934D0526
:103A5000CC2309F456C02091670530916805409148
:103A6000690550916A05C701B6010E948A3987FF2E
:103A700014C0209167053091680540916905509107
:103A80006A0560915205709153058091540590919B
:103A900055050E947A3B87FF22C02091670530912F
:103AA00068054091690550916A05C701B6010E94F9
:103AB0008A39811126C020916705309168054091AF
:103AC000690550916A056091520570915305809186
:103AD0005405909155050E947A3B181694F48091F4
:103AE0005F0590916005A0916105B0916205892BF9
:103AF0008A2B8B2B19F481E080934E0581E0809313
:103B00004D0581E090914D05911180E08093510524
:103B1000C0925205D0925305E0925405F09255059B
:103B20000130110509F067C1809156059091570544
:103B3000892BD9F410925C0510924D058091A20258
:103B4000882379F082E090E09093570580935605A2
:103B50001092A20220915A0530915B0581E0232B3F
:103B6000E9F080E01BC081E009CF1092A2028091B1
:103B70005C05882349F010924E051092570510926B
:103B8000560510925C05EDCF80915A0590915B052A
:103B9000892BE1F080914D0510924D05209156053D
:103BA000309157052230310509F45EC088F42115A3
:103BB000310509F448C02130310509F4F3C01092F1
:103BC0004E0510924D0510925C0538C081E0E6CF9D
:103BD0002330310509F4B1C02430310581F740911B
:103BE000490550914A0560914B0570914C0541156E
:103BF00051056105710561F0415051096109710973
:103C00004093490550934A0560934B0570934C05CA
:103C10004091490550914A0560914B0570914C05C2
:103C2000452B462B472BD9F4209158053091590547
:103C30002130310509F046C010924E05109257050B
:103C4000109256050CC08091A202882341F082E0B8
:103C500090E090935705809356051092A20210921F
:103C6000470580914E05CEC08823C9F380915F053A
:103C700090916005A0916105B09162051816190632
:103C80001A061B060CF07DC080915A0590915B05C9
:103C9000019709F076C080915F0590916005A09131
:103CA0006105B09162058093490590934A05A09300
:103CB0004B05B0934C0583E090E0909357058093BB
:103CC0005605CDCF4091630550916405609165051F
:103CD00070916605452B462B472BA9F010924E0597
:103CE0008091630590916405A0916505B09166058A
:103CF0008093490590934A05A0934B05B0934C05DA
:103D000081E090E0DACF882399F08091A30290912E
:103D1000A402A091A502B091A602809349059093B8
:103D20004A05A0934B05B0934C0584E090E0C5CFC5
:103D300010924E0582E090E0C0CF809149059091AD
:103D40004A05A0914B05B0914C050097A105B1051E
:103D500059F00197A109B1098093490590934A054B
:103D6000A0934B05B0934C058091490590914A056D
:103D7000A0914B05B0914C05892B8A2B8B2B09F018
:103D80006ECF8091A3029091A402A091A502B09160
:103D9000A602892B8A2B8B2B09F44ECF81E08093CE
:103DA0004E05B3CF4091490550914A0560914B05AE
:103DB00070914C05411551056105710561F0415047
:103DC0005109610971094093490550934A0560936F
:103DD0004B0570934C054091490550914A056091FF
:103DE0004B0570914C05452B462B472B09F037CFDF
:103DF0008111C7CF9FCF80914705882309F431CF28
:103E000080914805CF911F910F91FF90EF90DF9027
:103E1000CF900895109252051092530510925405B8
:103E200010925505109251051092570510925605A3
:103E30001092500510924F05109271051092700566
:103E400010924E0510924D051092490510924A05A8
:103E500010924B0510924C051092480510924705A0
:103E600010926C0510926D0510926E0510926F0500
:103E700010926B0510926705109268051092690503
:103E800010926A0588EE93E0A0E0B0E08093A30270
:103E90009093A402A093A502B093A602109263058A
:103EA00010926405109265051092660510925F05E8
:103EB00010926005109261051092620510925E05E5
:103EC00010925D0581E08093A20210925C05109231
:103ED0005B0510925A05109259051092580590E012
:103EE00080E0089580915A0590915B05892B19F522
:103EF0008091A202882351F080915C05811106C057
:103F000081E08093480580934705089520915C05E2
:103F10003091A20281E090E0332311F090E080E044
:103F200030E082239323892B21F01092480581E011
:103F3000EACF10924705089582E090E0FA0191835C
:103F400080838FEF9FEF0895CF93DF93EA0100976F
:103F500011F00E9443321982188290E080E0DF91D4
:103F6000CF910895DB01009719F48FEF8C9308959A
:103F70002EEF2C93FC013F96EF30F10508F034C092
:103F80008827EA53F04E8F4F0C94A749F21FF01F79
:103F9000EE1FEC1FEA1FE61FE81FE41FE21FE01FF1
:103FA000DD1FD91FD51FDB1FF41F80E311968C93F3
:103FB000089589E2FBCF82E2F9CF11961C92089511
:103FC00083E2F4CF81E2F2CF81E1F0CF87E2EECF5E
:103FD0008AE2ECCF80E1EACF84E2E8CF88E2E6CF64
:103FE00086E2E4CF81E3E2CF80E2E0CF80917E05FC
:103FF00090917F05089590937F0580937E050895A5
:1040000080917D05089590917D05892B80937D0594
:104010000895982F909580917D05892380937D0543
:10402000089580917C05089580917A0590917B0593
:1040300008956115710559F0FB0130E020E070E052
:1040400060E02417350719F06115710511F0CB01F7
:104050000895A081B181A817B90709F4BF012F5FA6
:104060003F4F3696EECF8091800581111CC060D203
:1040700066D290937305809372050E94462A0E942F
:10408000582A90937705809376050E94C62E0E9449
:10409000CD2E909375058093740581E08093800503
:1040A00090E080E0089584EF9FEF08958F929F92B3
:1040B000AF92BF92CF92DF92EF92FF920F931F9336
:1040C000CF93DF9300D000D000D01F92CDB7DEB7E2
:1040D0001A86198618861F821E821D821C821B82E8
:1040E0001A8219828091800507EF1FEF882309F457
:1040F0009CC08E010D5F1F4F9E012B5F3F4FAE0195
:10410000495F5F4FBE01675F7F4F90E080E00E9494
:104110004A308C01009721F00596029708F0DBC029
:1041200029853A852115310509F402C1ED80FE800B
:104130004B815C81B701640F751F8F81988586174D
:10414000970708F4F5C0E20EF31ED7019C91903C4E
:1041500009F07FC04230510508F47BC011968C9164
:1041600040917E0550917F05452B09F49CC0913FFD
:1041700008F071C02CE1290F2D3008F48BC02DE21E
:10418000290F203108F489C0903C21F481508230FD
:1041900008F483C088E3890F8B3008F481C092EB68
:1041A000C92E9FE1D92EECE9FFE16D817E81AE0140
:1041B0004F5F5F4F89859A8519955C01C114D104C1
:1041C000A1F189809A808114910479F18B819C817D
:1041D0008815990508F487C010E000E04B815C81E8
:1041E00070E060E0C7010E94DD4901151105E9F4A6
:1041F00049815A8169857A858D819E81680F791FF1
:10420000C501F6011995E980FA800D811E812F8183
:10421000388549855A856FEF7FEF81E090E00E94F5
:10422000E52F8C01892B09F056C0C8012A960FB6DC
:10423000F894DEBF0FBECDBFDF91CF911F910F91DC
:10424000FF90EF90DF90CF90BF90AF909F908F90B6
:10425000089580E085CF30E020E0220F331FF90180
:10426000EE58FA4F0190F081E02D309709F497CF86
:10427000892F90E01995009709F491CFDC011296EF
:10428000ED91FC9113971496CD90DC90309709F046
:104290008CCF1FC021E030E0E0CF22E030E0DDCF66
:1042A00023E030E0DACFD12CC12CE4EAFFE19F3FDC
:1042B00009F07BCFE0917205F0917305309721F4FE
:1042C000C90104EF1FEF0CC08FEF90E01995009724
:1042D000A9F604EF1FEF89859A85009709F4A5CF09
:1042E0000E944332A2CF0E9414318C0189859A85A5
:1042F0000E94433270E060E0C4010E94AD309887B4
:104300008F830E94E22F9E838D836F817885611554
:10431000710559F0C8010E94A2339A87898706EF78
:104320001FEF892B09F058CF59CF08EF1FEF56CF59
:1043300008EF1FEFD0CF20918005222319F020E055
:104340000C945D2A87EF9FEF089580917E059091F0
:104350007F0508950E94D22E0E942C2EF5D0E2E710
:10436000F5E088E0DF011D928A95E9F7109280055B
:1043700090E080E008950C948B2C21E040E050E028
:10438000BA010C945D2A86E090E0FA019183808363
:1043900090E080E0089547E050E064E273E049CEA9
:1043A000DF92EF92FF920F931F93CF93DF938A01D7
:1043B000EC01C60FD71FE0908405F0908505D980E9
:1043C0000E94FC30D816190678F082E090E0F801DF
:1043D000918380838EEF9FEFDF91CF911F910F919B
:1043E000FF90EF90DF900895EF2841F482E090E095
:1043F000F8019183808384EF9FEFEECF89818093D2
:10440000830590E00196F8019183808390E080E03D
:10441000E3CFCF93DF93EA010E943C2D882321F064
:104420000E9409310E943D2D82E090E099838883AB
:104430008BEF9FEFDF91CF910895CF93DF93EB0147
:1044400086E0FB0111928A95E9F78FEF8883D8DD2A
:104450008983E7DD8A83E8DD9D838C83DF91CF91BB
:104460000895CF93DF93EA010E943F2D811109C087
:1044700082E090E09983888385EF9FEFDF91CF9171
:10448000089590E080E0B7DD81E090E09983888333
:1044900090E080E0F3CF0F931F93CF93DF93EA0177
:1044A0008C01060F171F0E943F2D81110BC082E067
:1044B00090E09983888385EF9FEFDF91CF911F91E3
:1044C0000F910895F8018181823038F082E090E008
:1044D000998388838EEF9FEFF0CF81E090E08BDDB2
:1044E00088E090E09983888390E080E0E6CFCF93E6
:1044F000DF930097D1F4EB01FB01329686E0DF01F8
:104500001D928A95E9F78FEF888385E089831A8267
:104510000E94FC308B830E94FB309D838C8381E062
:104520008E838F83DF91CF910895DF91CF911ACD44
:104530008BEC91E2909382058093810508958091A0
:10454000810590918205089510928205109281054F
:10455000089580918405909185050895411105C0C5
:10456000611571058105910561F060938405709373
:10457000850580938605909387054093880581E0A3
:10458000089580E00895FF920F931F93CF93DF93D8
:104590008A01EC01C60FD71FF9800E94FC30F81683
:1045A000190668F082E090E0F801918380838EEF35
:1045B0009FEFDF91CF911F910F91FF9008956C8134
:1045C0007D818E819F814B81C9DF811108C082E08E
:1045D00090E0F8019183808384EF9FEFEACF898197
:1045E0008093830590E00196F8019183808390E0A9
:1045F00080E0DFCFCF93DF93EA01FC01E60FF71FE6
:1046000064817581868197814381A8DF811109C00A
:1046100082E090E09983888384EF9FEFDF91CF91D0
:10462000089581E090E09983888390E080E0F6CF60
:10463000E4E8F5E04081518162817381480F511DAA
:10464000611D711D40835183628373830895CF93ED
:10465000C09183054C2F50E06091840570918505D1
:1046600001960E94D4498C2FE3DF10928305CF91ED
:104670000895009799F480918405909185052FEF16
:10468000FB012083892B59F02091830530E02F5FB7
:104690003F4F2417350719F4CB01D9CF63CC0895C8
:1046A000009799F480918405909185052FEFFB0187
:1046B0002083892B59F02091830530E02F5F3F4FF5
:1046C0002417350719F4CB01C2CF4CCC089523E150
:1046D000AC01249FC001259F900D1124E0918D0510
:1046E000F0918E05E80FF91F2381348122503109A2
:1046F00081E02230310508F080E008950F931F9388
:10470000CF93DF9300918F0510919005D0E0C0E02A
:1047100080E00C171D0749F491E0811190E0892F8A
:10472000DF91CF911F910F9108958111F5CFCE01A7
:10473000CEDF2196EECFA0918D05B0918E0510971A
:1047400029F120918F053091900582179307F0F49D
:1047500053E1589F9001599F300D1124A20FB31FB0
:10476000ED91FC911197309789F012968C91681712
:1047700068F48BE0689FE00DF11D11248081918128
:10478000892B21F081E09281491708F080E008959B
:104790009C0143E1429FC001439F900D1124E09191
:1047A0008D05F0918E05E80FF91F8385823099F40D
:1047B00081E090E0658176814091A7025091A80246
:1047C0006417750711F490E080E0892B21F081E0F7
:1047D0002230310508F080E00895EF92FF920F93A8
:1047E0001F93CF93DF93EA01FC01E60FF71F0281CD
:1047F0001381E480F5804F2D6E2DC8019CDF81115F
:104800000DC082E090E0998388838EEF9FEFDF9167
:10481000CF911F910F91FF90EF900895C80157DF3E
:10482000882339F082E090E09983888388EF9FEFB6
:10483000EECF1093AE020093AD02E092AF02F09281
:10484000B00281E090E09983888390E080E0DFCF40
:10485000CF92DF92EF92FF920F931F93CF93DF934C
:104860007A01EC01C60FD71FC090AD02D090AE0206
:104870000091AF021091B002412F602FC6015BDFA3
:10488000811110C082E090E0F701918380838AEF6C
:104890009FEFDF91CF911F910F91FF90EF90DF90ED
:1048A000CF900895C60113DF882341F082E090E0A5
:1048B000F7019183808388EF9FEFEBCF4C815D817F
:1048C0006E817F819A8189818F3F41F082E090E003
:1048D000F701918380838EEF9FEFDBCFE3E1EC9DC7
:1048E0009001ED9D300D1124E0918D05F0918E0524
:1048F000E20FF31F0190F081E02D2BE0029FE00D0D
:10490000F11D11240190F081E02D27E0129FE00DB0
:10491000F11D1124808391838B818283438354838F
:10492000658376831F5F1093B00281E090E0F7010A
:104930009183808390E080E0ACCFEF92FF920F9361
:104940001F93CF93DF937A018C01060F171FC0913D
:104950008D05D0918E05209781F021E030E0F8019F
:104960008281938140918F0550919005841795071E
:1049700010F030E020E0232B71F482E090E0F701AA
:10498000918380838EEF9FEFDF91CF911F910F91E5
:10499000FF90EF90089543E1489F9001499F300DAB
:1049A0001124C20FD31F93DE882341F082E090E0F0
:1049B000F7019183808388EF9FEFE6CFF801248190
:1049C000358120383105C8F687818111D6CF4181E4
:1049D000842F90E08F7E009741F082E090E0F70115
:1049E0009183808386EF9FEFCFCF4F833E832D83CC
:1049F000268128871986223010F421E0288721E0BB
:104A000030E0F70131832083BFCF88E090E0FA01E6
:104A10009183808390E080E00895FB018FEF808395
:104A200081E181838FEF9FEF9383828380E890E021
:104A300095838483168217820895FB018FEF80830C
:104A400091E0918382839383848384E3858381E0EF
:104A500090E0978386830895BF92CF92DF92EF9282
:104A6000FF920F931F93CF93DF93DA01FC01E60FC0
:104A7000F71F8181813081F082E090E08D939C93DB
:104A80008FEF9FEFDF91CF911F910F91FF90EF90EC
:104A9000DF90CF90BF900895C281D381B48085818B
:104AA00006811781E0908D05F0908E05E114F104E8
:104AB00039F482E090E08D939C938CEF9FEFE2CFEE
:104AC00020918F0530919005C217D30738F082E00E
:104AD00090E08D939C938EEF9FEFD4CFC230D105A1
:104AE00038F082E090E08D939C9386EF9FEFCACFE1
:104AF0009B2D9D7FB1F78130A1F7B11005C001302A
:104B0000110531F080E004C081E002301105D0F3DE
:104B1000882339F36D01CE01DADD882341F082E08C
:104B200090E0F6019183808388EF9FEFABCF83E124
:104B30008C9FF0018D9FF00D1124EE0DFF1DB386AB
:104B400081E0848716870587108A178681E090E0C8
:104B5000F6019183808390E080E094CF4CE050E0B8
:104B60006EE473E066CA8F929F92BF92CF92DF92FB
:104B7000EF92FF920F931F93CF93DF93EA01FC0113
:104B8000E60FF71F828193810481B580E0918D0546
:104B9000F0918E05309791F482E090E099838883BC
:104BA0008CEF9FEFDF91CF911F910F91FF90EF90CE
:104BB000DF90CF90BF909F908F90089520918F05A8
:104BC000309190058217930738F082E090E0998346
:104BD00088838EEF9FEFE6CF23E1289F6001299F16
:104BE000D00C1124EC0DFD1DE080F180E114F104E6
:104BF00099F28281081748F78BE0089F8001112401
:104C0000E00EF11EF70180819181892B29F6BB20EE
:104C1000E1F2F7E0BF9E40011124C4010E94F4318B
:104C2000F70191838083E0918D05F0918E05EC0D65
:104C3000FD1D0190F081E02DE00FF11F8081918139
:104C4000009739F482E090E0998388838DEF9FEF9D
:104C5000A9CFA40170E060E00E94DD4980918D053C
:104C600090918E05C80ED91EF60180819181080FA2
:104C7000191FF801B28281E090E09983888390E067
:104C800080E090CFAF92BF92CF92DF92FF920F93CE
:104C90001F93CF93DF93EA01FC01E60FF71F828198
:104CA0009381F48000918D0510918E0501151105F9
:104CB00081F482E090E0998388838CEF9FEFDF910D
:104CC000CF911F910F91FF90DF90CF90BF90AF9049
:104CD000089520918F05309190058217930738F041
:104CE00082E090E0998388838EEF9FEFE8CF2FEFEB
:104CF0002F0D2C3FA8F723E1289F6001299FD00C9E
:104D000011240C0D1D1DF80180819181892B89F6DC
:104D1000FBE0FF9E50011124C5010E94F431F8010F
:104D200091838083E0918D05F0918E05EC0DFD1D42
:104D300080819181009739F482E090E099838883A3
:104D40008DEF9FEFBCCFA50170E060E00E94DD49D0
:104D5000E0918D05F0918E05EC0DFD1DF28281E054
:104D600090E09983888390E080E0A9CFCF92DF9292
:104D7000EF92FF920F931F93CF93DF93860F971FAE
:104D8000FC010281138180918D0590918E05892B04
:104D900081F082E090E0FA01918380838CEF9FEFB5
:104DA000DF91CF911F910F91FF90EF90DF90CF9007
:104DB0000895C801B0E0A0E00197A109B1098F3FB3
:104DC0009F4FA105B10540F082E090E0FA01918388
:104DD00080838EEF9FEFE4CF7A0183E1809F6001B3
:104DE000819FD00C1124C6010E94F431EC01009780
:104DF00041F482E090E0F701918380838DEF9FEF93
:104E0000CFCFA60170E060E00E94DD49D0938E050F
:104E1000C0938D051093900500938F0590E080E07E
:104E20002FEF3FEF41E061E070E08017910741F420
:104E300081E090E0F7019183808390E080E0B0CF43
:104E40003A8B298B1B864C877E876D87188A1F8635
:104E500001966396EACFCF92DF92EF92FF920F9383
:104E60001F93CF93DF93EC01D12CC12C10E000E015
:104E7000F12CE12C6A816017110609F0CCF483E073
:104E8000689FB0011124AE014F5E5F4FC7010E94C1
:104E90006F32009721F02FEF3FEF3A8B298BDF9194
:104EA000CF911F910F91FF90EF90DF90CF900895D9
:104EB000E881F981EC0DFD1D438154818D859E852E
:104EC000489F9001499F300D589F300D1124C90112
:104ED00001960115110519F44F8144FD049661E016
:104EE00070E00E94AD30E816F90608F47C010F5F0F
:104EF0001F4F8BE0C80ED11CBDCFF89420918B05BD
:104F000030918C0581E02115310509F080E0232BDB
:104F100009F0789408952F923F924F925F926F928A
:104F20007F928F929F92AF92BF92CF92DF92EF9239
:104F3000FF920F931F93CF93DF933C01660E771E72
:104F4000F301828193814C01B12CA12CC0918D057C
:104F5000D0918E05209769F021E030E060918F05B7
:104F6000709190058617970710F030E020E0232B12
:104F7000D1F482E090E0FA01918380838EEF9FEF7D
:104F8000DF91CF911F910F91FF90EF90DF90CF9025
:104F9000BF90AF909F908F907F906F905F904F9059
:104FA0003F902F9008958092B1029092B202A09209
:104FB000B302B092B40263E1689F9001699F300D23
:104FC0001124C20FD31FF3018181833040F082E0AE
:104FD00090E0FA019183808386EF9FEFD1CF2A0181
:104FE0002B813C81232BF1F4288139819F8191FF12
:104FF0002EC0232B09F46FC0209192059A81422F75
:10500000490F5527551FBA0141E050E0613871053D
:1050100014F050E040E0452B09F45DC02A87920F60
:10502000909392058150823008F481C066DF882316
:1050300009F4D8C0F3018181813009F48DC008F4EE
:105040007BC0823009F4C6C090E080E0ADC0232B65
:1050500009F441C0209191059A81E22FE90FFF27C1
:10506000FF1F41E050E0ED3FF10514F050E040E05B
:10507000452B89F12A87920F90939105D3CFA08178
:10508000B181A20FB31F11966C91060F111D0196ED
:10509000295F3F4F8417950794F38D859E85089F60
:1050A0001001099F300C189F300C1124C114D10439
:1050B000D1F48F8184FF17C00E94FB30F5E02F0EE2
:1050C000311C21E08215930508F420E0A701455F1B
:1050D0005F4F21110EC082E090E0F2019183808346
:1050E00087EF9FEF4DCF0E94FB302FEF221A320A3D
:1050F000E8CF88819981E80EF91EF70114830383B4
:10510000FFEFCF1ADF0A7A018A818C151D0409F09E
:105110000CF48CCFE881F981EE0DFF1D428150E047
:1051200030E020E010E000E090E080E0B3CFF12C30
:10513000E12CD12CC12CE8CF81E090E09C838B83C3
:10514000DDDA882309F480CF81E090E00E94FB1F24
:1051500080E40E94092078CF89899A89019661F0BC
:1051600083E090E09C838B8382E090E00E94FB1FB1
:1051700080E40E94032068CF2D813E818091A702A8
:105180009091A80228173907D1F46091AB02709171
:10519000AC02AE014F5E5F4F8091A9029091AA02CE
:1051A0000E9461330097E1F2789422E030E0F2014E
:1051B00031832083892B99F08DEF9FEFE1CE22E0A0
:1051C00082169104A104B1045CF6CE0144DE188A73
:1051D0001F86E8CF82E090E09C838B8335CF90E000
:1051E00080E0CECE82E090E0F2019183808385EF73
:1051F0009FEFC6CE8F929F92AF92BF92CF92DF92D7
:10520000EF92FF920F931F93CF93DF93EA018C01EC
:10521000060F171FF8018181833098F082E090E03B
:105220009983888386EF9FEFDF91CF911F910F9134
:10523000FF90EF90DF90CF90BF90AF909F908F90B6
:10524000089580918D0590918E05892B61F081E004
:1052500090E020918F0530919005232B11F490E080
:1052600080E0892B39F482E090E0998388838EEF87
:105270009FEFDACF42DE882309F4DEC0F801818196
:10528000813009F494C0E8F0823099F420918F05C0
:1052900030919005E0918D05F0918E0590E080E0D1
:1052A00041E050E02817390709F0BCC027DA811126
:1052B00017C0789481E090E09983888390E080E043
:1052C000B3CF20918F0530919005E0918D05F0913D
:1052D0008E0590E080E041E050E02817390741F466
:1052E00081E090E00E94FB1F80E40E940920E1CF52
:1052F00063817481672B11F0548343830196739605
:10530000ECCFE0918D05F0918E05E00FF11F238128
:10531000348122303105D9F4218932892F3F3F4F22
:10532000B1F4458156812091A7023091A80242171D
:10533000530761F5AF014F5E5F4F6091AB02709113
:10534000AC028091A9029091AA020E9461334FEFB2
:10535000C41AD40AE40AF40A0D5E1F4F40918F0567
:105360005091900570E060E0C416D506E606F70699
:1053700034F5009731F27894892B09F49BCF82E0C1
:1053800090E0998388838DEF9FEF4ECF22E0C21685
:10539000D104E104F104DCF6CF015DDDE0918D057F
:1053A000F0918E05E00FF11F108A1786D0CF10E024
:1053B00000E090E080E0C12CD12C7601CFCF0097A7
:1053C000D1F610E000E0812C912C540183E0E82E0E
:1053D000F12C1AC0E0918D05F0918E05E00FF11FC0
:1053E00083819481029749F4F482E38282E090E021
:1053F0000E94FB1F80E40E9403208FEF881A980A06
:10540000A80AB80A0D5E1F4F80918F0590919005F4
:10541000B0E0A0E088169906AA06BB06DCF290E090
:1054200080E0A9CF638174816230710511F45483E7
:1054300043830196739636CF82E090E09983888308
:1054400085EF9FEFF1CE0097B9F48FEFFB018083DA
:105450002091B1023091B20243E1429FC001439FCB
:10546000900D1124E0918D05F0918E05E80FF91F44
:105470008285FB01818308950C94B21F88E090E03F
:10548000FA019183808390E080E0089510928C056A
:1054900010928B05EDE8F5E086E0DF011D928A951C
:1054A000E9F78EEA95E290938A058093890508953D
:1054B0008091890590918A0508952F923F924F928D
:1054C0005F926F927F928F929F92AF92BF92CF9294
:1054D000DF92EF92FF920F931F93CF93DF93CDB79D
:1054E000DEB760970FB6F894DEBF0FBECDBFF8945D
:1054F000E0918B05F0918C053196F0938C05E0934B
:105500008B057894A0918D05B0918E05BA83A983FF
:10551000109709F4FAC1E0918F05F0919005EF2BF7
:1055200009F4F3C128874B875C876D877E879A874C
:105530008987B88BAF87312C212CF12C512C412C31
:1055400080918F05909190052816390610F4FF2060
:1055500029F1F89480918B0590918C050197909397
:105560008C0580938B057894C20160960FB6F894F1
:10557000DEBF0FBECDBFDF91CF911F910F91FF9086
:10558000EF90DF90CF90BF90AF909F908F907F90E3
:105590006F905F904F903F902F900895B10190E0F1
:1055A00080E087D4682EEF85F889878181FD3DC032
:1055B000838194810397C9F5258136813C832B83B0
:1055C00089859A852817390781F5C101E1D8782E98
:1055D0008823A9F1AF85B8891F968D919C9150972A
:1055E000019621E01D964D915C918417950709F075
:1055F00020E02F83B12CA12CEF85F88982818A15B8
:105600001B0419F014F0FF20E9F0F885FF2309F4DA
:105610006CC1AF85B88950961C921E921F97662068
:1056200021F0B10190E080E046D4FFEF2F1A3F0A4D
:105630002F8538892D5E3F4F388B2F8781CFB1E082
:10564000BF83D8CFBFD49E838D83E885EE23E9F056
:10565000772009F43CC1AF85B8891F968D919C9144
:10566000892B79F0BBE0BA9DC001BB9D900D112440
:10567000AF85B889ED91FC91E80FF91F858196817E
:1056800002D7BFEFAB1ABB0AB7CF81E0772039F062
:10569000EF85F88927853089232B09F080E0F82EE3
:1056A000E12CA114B10439F4AF85B8891796EC90B8
:1056B000E4FAEE24E0F8BBE0BA9D6001BB9DD00C9B
:1056C0001124882309F424C1AF85B889ED91FC9198
:1056D0001197EC0DFD1D438154811D962D913C9138
:1056E000429FC001439F900D529F900D1124E110E5
:1056F0005DC001969087878361E070E08781908527
:105700002CD5EF85F88921893289008111810C0D12
:105710001D1D2F3F320709F44BC0BC01C9010E9477
:10572000A233D80116969C938E931597AF85B889AE
:10573000ED91FC911197EC0DFD1D05811681011570
:10574000110509F4CDC0ED81FE810E0F1F1F1A96C1
:105750008C918A0DD8018C93E1102FC00F5F1F4FE1
:10576000AF85B889ED91FC91EC0DFD1D1287018785
:10577000AF85B889ED91FC91EC0DFD1D8581968179
:10578000892B09F4A4C08091A7029091A8022B81D3
:105790003C812817390709F465C0772011F001858D
:1057A0001285912C812C1A8219824AC00596A2CFAB
:1057B0001BD6F80196838583B9CF8B859C85AD85F3
:1057C000BE85F80181839283A383B4830B5F1F4F4F
:1057D000C7CFE080F180E80CF91CD70113966D91DA
:1057E0007C9114978C918F3F09F473C0E1E0F0E055
:1057F00002C0EE0FFF1F8A95E2F7CF01092E000CC1
:10580000AA0BBB0BFB014081518162817381842310
:105810009523A623B72321E0892B8A2B8B2B09F410
:1058200020E0D8012C93D70111968C91080F111DFF
:10583000E981FA813196FA83E983F7E08F0E911CB2
:10584000AF85B889ED91FC91EC0DFD1D8281298118
:105850003A818217130611F00CF0BBCF772011F0BC
:10586000128701873F81332391F1AF85B889ED918C
:10587000FC91EC0DFD1D61E070E0878190856DD499
:10588000AF85B889ED91FC91EC0DFD1DE780F084AA
:1058900045815681E1E0F0E0662011F0F0E0E0E0C3
:1058A0000D811E819C01B101882799278E1B9F0BBA
:1058B0008CD32C01892B59F0EF85F8898081918157
:1058C000C80ED91ED60115968D919C91DCD5F12C70
:1058D000D8CEF701418150E0C8010E94D449A3CF3E
:1058E00086EF482E55245A94CCCEEF85F8898785CB
:1058F00090890196908B8787258536858217930737
:1059000009F08DCE108A17868ACE512C412C21CEDB
:1059100010E000E02DCF2F923F924F925F926F9256
:105920007F928F929F92AF92BF92CF92DF92EF922F
:10593000FF920F931F93CF93DF9380918D059091EA
:105940008E0510E000E0892BA9F0D7DA0AEF1FEFEF
:10595000882381F020908F0530909005C0918D05AF
:10596000D0918E05D12CC12C10E000E02C143D0408
:10597000A9F47894C801DF91CF911F910F91FF9006
:10598000EF90DF90CF90BF90AF909F908F907F90DF
:105990006F905F904F903F902F900895C6010E94A6
:1059A000C823882309F18B819C810397E9F48F85B3
:1059B0009889892BC9F0B60190E080E07AD221E085
:1059C00030E0882311F030E020E044245524421ACE
:1059D000530AB12CA12C912C812C8A818815190491
:1059E00009F038F4188A1F864FEFC41AD40A639658
:1059F000BDCFE881F981EA0DFB1D85819681892B58
:105A0000A1F161E070E087819085A7D33C01DAD2F3
:105A10008C01E881F981EA0DFB1D81859285258144
:105A20003681200F311FAC01421B530B9A01478175
:105A30005085421B530B70E060E00E94DD49E88115
:105A4000F981EA0DFB1DE780F084458156819301C1
:105A5000B601C201BAD28C01892B39F0E881F981F3
:105A6000EA0DFB1D858196810ED55FEF851A950A9B
:105A70008BE0A80EB11CB1CF40CA789408952F9244
:105A80003F924F925F926F927F929F92AF92BF929E
:105A9000CF92DF92EF92FF920F931F93CF93DF93FA
:105AA00000D000D0CDB7DEB700918D0510918E05E6
:105AB000992493940115110509F43EC0A0908F0517
:105AC000B09090051ADA982E8823B1F110928E05C5
:105AD00010928D051092900510928F0510929105ED
