:1000000006C100000C948D3A0C94B83A0C94E33A73
:100010000C940E3B0C94393B0C94643B0C948F3B3A
:100020000C94BA3B25C1000023C1000021C100008F
:100030001FC100001DC100001BC1000019C100004C
:1000400017C1000015C1000013C1000011C100005C
:100050000FC100000DC100000BC100000C94E53B76
:1000600007C100000C94E13F0C94174001C100004F
:10007000FFC00000FDC00000FBC00000F9C0000090
:10008000F7C00000F5C00000F3C00000F1C00000A0
:100090000C946D400C94A340EBC000000C94F1381C
:1000A000E7C00000E5C00000E3C00000E1C00000C0
:1000B000DFC00000DDC00000DBC00000D9C00000D0
:1000C000D7C00000D5C000000C9460300C94F940FB
:1000D0000C942F41CDC000000C9485410C94BB4181
:1000E000C7C0000000000A0B02090C0D0E08070330
:1000F00004010000000000000000000000000000FB
:1001000000000000000000000000000000000000EF
:1001100012111000000000000000000000000000AC
:100120000000000000000000000001021020200874
:100130000810204010204080020102010804020142
:1001400001020408102040808040201008040201B1
:10015000800402018040201008040201080402010A
:100160000102040810204080010204081020408091
:1001700005050505070508080808020202020A0A23
:100180000808040404040101010101010101030341
:10019000030303030303040707070C0C0C0C0C0CEC
:1001A0000C0C0202020206060606060606060B0BE9
:1001B0000B0B0B0B0B0B000020002300260029006B
:1001C0002C002F003200000100000301060109018C
:1001D00000002200250028002B002E0031003400F2
:1001E00002010000050108010B01000021002400AC
:1001F00027002A002D003000330001010000040117
:1002000007010A015C364040CC405841E4411124CA
:100210001FBECFEFD1E2DEBFCDBF00E00CBF13E0C9
:10022000A0E0B2E0E0E4F5E800E00BBF02C0079018
:100230000D92AA32B107D9F72CE0AAE2B3E001C0CF
:100240001D92AD33B207E1F711E0C7E0D1E000E065
:1002500006C021970109802FFE010E946142C23031
:10026000D10780E00807A9F70E94C3310C949E4291
:10027000C7CECF92DF92EF92FF926B017C01C11447
:10028000D104E104F10469F480910002811109C0F4
:1002900080910202909103020E94CD3581E080930B
:1002A0000002C601880F991F880F991F80509E4F2A
:1002B000FF90EF90DF90CF900895009781F0FC01C0
:1002C0002181211104C040EA56E861E070E0FC01A0
:1002D000828193810E94DC3590E080E0089588E07F
:1002E00090E008954F925F926F927F928F929F92CB
:1002F000AF92BF92CF92DF92EF92FF920F931F9334
:10030000CF93DF930097C9F1280139017A01EC01FD
:10031000402F8A819B810E945A368A819B81DC0111
:10032000ED91FC910084F185E02D1995892B01F167
:100330006701812C912C54018A819B81DC01ED9114
:10034000FC910084F185E02D1995892B91F184149D
:100350009504A604B70469F18A819B81DC01ED91C3
:10036000FC910284F385E02D19958F3F9807C1F425
:1003700084E0F70111928A95E9F788E090E0DF9137
:10038000CF911F910F91FF90EF90DF90CF90BF9092
:10039000AF909F908F907F906F905F904F90089557
:1003A000FFEF8F1A9F0AAF0ABF0AD6018D936D0126
:1003B000C3CF90E080E0E3CF8F929F92AF92BF9245
:1003C000CF92DF92EF920F931F93CF93DF9300971B
:1003D000F1F06A01EC018A819B810E94DF358A81FC
:1003E0009B81DC01ED91FC910280F381E02DA8015D
:1003F000B60119958A819B8160E0E11001C061E03E
:100400000E94E935882389F08250823088F088E0A4
:1004100090E0DF91CF911F910F91EF90DF90CF90FF
:10042000BF90AF909F908F90089590E080E0F1CFC3
:1004300084E090E0EECF0895611102C00C94263E56
:100440006130E1F362E0FACF662319F061E00C94C9
:10045000623E60E0FCCFCF93DF93EC0170E060E0A0
:100460006C177D070CF5072E000C880B990B0E946A
:10047000583320E030E0A9010E94553220E030E0FE
:10048000A9010E94553220E030E040E450E40E948F
:10049000553220E030E040E450E40E9454320E94A3
:1004A00025336F5F7F4FDCCFDF91CF9108950F939E
:1004B0001F93CF93DF93EC018C810E948F3E8C01C0
:1004C0008C859D85C8DF88850E948F3E4881598133
:1004D0006A817B81019781F40130110579F44F5FC6
:1004E0005F4F6F4F7F4F488359836A837B83DF91D0
:1004F000CF911F910F910895012B89F3415051091C
:1005000061097109F0CF8BE293E0D1CF8BE393E0E7
:10051000CECF8BE493E0CBCF8BE593E0C8CF0F93A6
:100520001F93CF93DF93EC0188850E948F3E8C014F
:100530008C859D8590DF8C810E948F3E48815981FA
:100540006A817B81019779F4012B81F44F5F5F4FC2
:100550006F4F7F4F488359836A837B83DF91CF91AD
:100560001F910F9108950130110581F341505109F8
:1005700061097109EFCF8BE293E0D1CF8BE393E078
:10058000CECF8BE493E0CBCF8BE593E0C8CF0F9336
:100590001F93CF93DF93D82FC62F8A01E0912A03B0
:1005A00080E1E89FF0011124E55DFC4F8D2F90E084
:1005B000B0E0A0E084839583A683B783862F90E084
:1005C000B0E0A0E080879187A287B3871082118274
:1005D0001282138281E090E0A0E0B0E084879587EA
:1005E000A687B78760E08D2F0E94263E60E08C2FA3
:1005F0000E94263E80912A03813009F43FC0A8F072
:10060000823009F462C0833009F486C080912A03E5
:1006100091E0980F90932A03F801808390E080E0A6
:10062000DF91CF911F910F91089580E0D23049F072
:1006300081E0D33031F08EEE8D0F8430D8F487E135
:100640008D1B41E050E06BEB72E00E94133A80E0BA
:10065000C23049F081E0C33031F08EEE8C0F84302F
:1006600058F487E18C1B41E050E063E872E00E949F
:10067000133ACCCF8FEFE5CF8FEFF5CF80E0D230BC
:1006800049F081E0D33031F08EEE8D0F8430C8F424
:1006900087E18D1B41E050E06EEB72E00E94133A5F
:1006A00080E0C23049F081E0C33031F08EEE8C0F33
:1006B000843048F487E18C1B41E050E066E872E04A
:1006C000D6CF8FEFE7CF8FEFF7CF80E0D23049F072
:1006D00081E0D33031F08EEE8D0F8430C8F487E1A5
:1006E0008D1B41E050E061EC72E00E94133A80E023
:1006F000C23049F081E0C33031F08EEE8C0F84308F
:1007000048F487E18C1B41E050E069E872E0AFCF2C
:100710008FEFE7CF8FEFF7CF80E0D23049F081E065
:10072000D33031F08EEE8D0F8430C8F487E18D1B0D
:1007300041E050E064EC72E00E94133A80E0C23085
:1007400049F081E0C33031F08EEE8C0F843048F4F4
:1007500087E18C1B41E050E06CE872E088CF8FEFBE
:10076000E7CF8FEFF7CF90E1899FF0011124E55D8E
:10077000FC4F80819181A281B381FB0180839183B1
:10078000A283B38390E080E0089590E1899FF00117
:100790001124E55DFC4F108211821282138290E0D9
:1007A00080E0089590E080E00895CF92DF92EF928C
:1007B000FF92CF93882351F16A017B01CFEFC80FDD
:1007C00020E030E0A901CB01B6010E94B93287FFD9
:1007D00011C0C701B60190580E942A339B01AC0199
:1007E0006C2F70E090E080E0CF91FF90EF90DF9071
:1007F000CF90B2C0C701B6010E9425338C2FCF9194
:10080000FF90EF90DF90CF900C94EC3CCF91FF9055
:10081000EF90DF90CF9008950F931F938B019C0171
:1008200083E036952795179507958A95D1F7055951
:100830001C4F462F477021E030E0F90102C0EE0F57
:10084000FF1F4A95E2F7AF01F80120812423CB0175
:100850000196211102C090E080E01F910F91089550
:100860000F931F938B019C0183E036952795179575
:1008700007958A95D1F7677081E090E001C0880FF5
:100880006A95EAF7F801E559FC4F2081452B31F4D0
:100890008095822380831F910F910895822BFACF38
:1008A0002F923F924F925F926F927F928F929F9280
:1008B000AF92BF92CF92DF92EF92FF920F931F936E
:1008C000CF93DF93D62EC72E782E692E49015A0179
:1008D000280161E08D2D0E94263ECD2DDC2D8E015C
:1008E0000F5F1F4FA8016D2D7C2D872D962DB8DF32
:1008F00020E030E0A901C201B7010E94A934181616
:1009000064F4C201B7010E942A332B01C501B4016E
:100910000E942A33A201CE0123D0C801DF91CF91DA
:100920001F910F91FF90EF90DF90CF90BF90AF900D
:100930009F908F907F906F905F904F903F902F90FF
:100940000895882341F08150682F70E090E080E0A6
:1009500050E040E085CF0895862FB9010C94EC3C1F
:100960009C01FC01EC51FF4FE491E150E231E0F4D5
:10097000F0E08827E154FB4F8F4F0C946142D10483
:10098000D804DB04F2040705D4041C0528052C0553
:10099000430558056D0584059905D404AE05C505C4
:1009A000DA0584B5806884BD60E0822F0C94623ED5
:1009B00084B58062F8CF809180008C7F82608093C4
:1009C000800080918100807E8061682B609381002F
:1009D00050938700409386008091800080688093C8
:1009E0008000E2CF809180008C7F826080938000C5
:1009F00080918100807E8061682B6093810050939C
:100A0000870040938600809180008062E8CF8091CB
:100A100080008C7F82608093800080918100807E46
:100A20008061682B6093810050938700409386001B
:100A3000809180008860D3CF8091B00080688093DF
:100A4000B0008091B100887F682B6093B100ACCF7B
:100A50008091B0008062F3CF809190008C7F8260A3
:100A60008093900080919100807E8061682B6093DC
:100A70009100509397004093960080919000806879
:100A80008093900091CF809190008C7F82608093C2
:100A9000900080919100807E8061682B609391002E
:100AA0005093970040939600809190008062E8CF29
:100AB000809190008C7F8260809390008091910063
:100AC000807E8061682B60939100509397004093E3
:100AD0009600809190008860D3CF8091A0008C7F99
:100AE00082608093A0008091A100807E8061682B4D
:100AF0006093A1005093A7004093A6008091A000AE
:100B000080688093A00050CF8091A0008C7F82608D
:100B10008093A0008091A100807E8061682B60930B
:100B2000A1005093A7004093A6008091A00080628E
:100B3000E8CF8091A0008C7F82608093A00080919C
:100B4000A100807E8061682B6093A1005093A70074
:100B50004093A6008091A0008860D3CF80912001AF
:100B60008C7F82608093200180912101807E806152
:100B7000682B6093210150932701409326018091B7
:100B800020018068809320010FCF809120018C7F0D
:100B900082608093200180912101807E8061682B9A
:100BA00060932101509327014093260180912001F9
:100BB0008062E8CF809120018C7F82608093200149
:100BC00080912101807E8061682B60932101509388
:100BD000270140932601809120018860D3CF90E0C7
:100BE00080E008950F931F93009709F48DC061155D
:100BF000710509F489C000913A0210913B022091DD
:100C00003C0230913D020E3F1F4F2F4F3F4F09F0E6
:100C10006CC04FEF5FEFBA0140933A0250933B0232
:100C200060933C0270933D0240913A0250913B0226
:100C300060913C0270913D02DC011296ED91FC91B5
:100C400080819181A281B38180939C0490939D04C3
:100C5000A0939E04B0939F0484819581A681B7815F
:100C60008093980490939904A0939A04B0939B0462
:100C700080859185A285B385809394049093950493
:100C8000A0939604B093970484859585A685B7852F
:100C90008093900490939104A0939204B093930452
:100CA00010928C0410928D0410928E0410928F0476
:100CB0000E94A41489EC94E19093750380937403CB
:100CC00090937703809376039093790380937803CE
:100CD0000E949313009731F421E030E03093A10497
:100CE0002093A0041F910F91089500913A02109152
:100CF0003B0220913C0230913D02DB010D931D939C
:100D00002D933C93139790CF8FEF9FEFEBCF8F9264
:100D10009F92AF92BF92CF92DF92EF92FF921F937A
:100D2000CF93DF934B015C011091A30482E090E02C
:100D30009093A1048093A00481149104A104B104B0
:100D400041F48091A304811104C08091A204C1E008
:100D50008111C0E0C12CD12C76018091A3048111B6
:100D600006C08091A204811102C0CC23D9F083E097
:100D700090E09093A1048093A004CC2381F1CCE96E
:100D8000DFEF111102C00E942E18CE01DF91CF912A
:100D90001F91FF90EF90DF90CF90BF90AF909F900A
:100DA0008F9008956AE070E080E090E00E94543CEB
:100DB00080E1C80E87E2D81EE11CF11C8FEF881677
:100DC0009806A806B80631F0C1E08C149D04AE0464
:100DD000BF0408F0C0E080E00E94C713BECFD0E09F
:100DE000C0E0CFCFCF92DF92EF92FF920F931F938D
:100DF000CF93DF938F3F910511F008F051C0209100
:100E0000A0043091A1042330310539F02091A004D1
:100E10003091A1042130310531F424E030E03093E9
:100E2000A1042093A0046A017B01EC0183309105A9
:100E3000A8F011E0AE01C701B6010E949213AB0108
:100E4000BC01CE011123F9F0DF91CF911F910F91D9
:100E5000FF90EF90DF90CF900C94571A8C01000F09
:100E6000111F0C581C4FD8018D919C91892B09F3AF
:100E70000E94611A0297E9F6D801ED91FC91CE012A
:100E80001995182FD7CF0E94791A90E080E0DF9152
:100E9000CF911F910F91FF90EF90DF90CF90089529
:100EA0008FEF9FEFF4CF80E00C94C713CF93DF93C5
:100EB00086E090E09093A1048093A0040E94201407
:100EC000EC01E4E7F3E086E0DF011D928A95E9F7A3
:100ED0000E94C6171092A1041092A004CE01DF91C7
:100EE000CF9108958091A204089580918B04089574
:100EF00060933A0270933B0280933C0290933D02D0
:100F000090E080E00895FC0191E08091550481110A
:100F100090E0928308951F93CF93DF93EC0180E0DC
:100F200090E5A3ECB8E48C879D87AE87BF871F82CE
:100F30001E82188211E0188B1D8281E090E0A0E0F3
:100F4000B0E089839A83AB83BC8350E040E060E0EB
:100F500070E0CB018ED99F838E8340EA56E861E032
:100F600070E0488759876A877B87A7D91D83DF91FF
:100F7000CF911F910895CF92EF920F931F93CF932C
:100F8000DF9300D0CDB7DEB7FB0125E029839A833C
:100F90008B83C12CE12C03E010E020E030E0AE01B7
:100FA0004F5F5F4F60E470E08681978105DA0F90B4
:100FB0000F900F90DF91CF911F910F91EF90CF90F5
:100FC0000895FC018081811110C081E080838181BE
:100FD0009281A381B4810197A105B10531F4858186
:100FE000882319F08681978126CA08952F923F920F
:100FF0004F925F926F927F928F929F92AF92BF9229
:10100000CF92DF92EF92FF920F931F93CF93DF93D4
:10101000CDB7DEB76A970FB6F894DEBF0FBECDBF6F
:10102000809155048F5F8A3008F00EC1809355047B
:1010300060912402709125028091260290912702EE
:101040000E9493336093640B7093650B8093660BDF
:101050009093670B0E948F12882309F4F8C01092B6
:10106000640B1092650B1092660B1092670BC09088
:10107000640BD090650BE090660BF090670B20E05E
:1010800030E0A901C701B6010E94B93287FF02C151
:10109000C701B60190580E942A3388279927861BDA
:1010A000970B62E17CE067DFC0902002D0902102C4
:1010B000E0902202F0902302A701960160918A0B32
:1010C00070918B0B80918C0B90918D0B0E94B9329B
:1010D000882341F0C0928A0BD0928B0BE0928C0B4C
:1010E000F0928D0B8091890B81111092890BBE01BA
:1010F0006F5F7F4F80918E0B36DB69817A818B81A8
:101100009C810E94583320912802309129024091FD
:101110002A0250912B020E94AD3420912C02309172
:101120002D0240912E0250912F020E94AD349B015E
:10113000AC012093480B3093490B40934A0B5093DA
:101140004B0B8091300290913102A0913202B0910C
:1011500033028D839E83AF83B887BC01CD010E948B
:1011600054326F87788B898B9A8B60934C0B70937A
:101170004D0B80934E0B90934F0BE0915D04F091DB
:101180005E04C080D180E280F3806090B70B7090E5
:10119000B80B8090B90B9090BA0B9301A401C701D2
:1011A000B6010E94B93218160CF47AC02091BF0B18
:1011B0003091C00B4091C10B5091C20BC701B601D9
:1011C0000E94B93218160CF46BC01092500B10929A
:1011D000510B1092520B1092530B6090C70B7090F2
:1011E000C80B8090C90B9090CA0B1091CF0B009147
:1011F000D00BB090D10BA090D20B9301A401C701EA
:10120000B6010E94B932212F302F4B2D5A2D1816BE
:101210000CF496C0C701B6010E94B93218160CF042
:1012200021C1212F302F4B2D5A2DB301C4010E9413
:10123000B93287FD8BC02090D30B3090D40B4090F7
:10124000D50B5090D60B99C010925504F1CE6091F9
:10125000640B7091650B8091660B9091670B0E94F7
:101260004A128111FCCE6091640B7091650B8091E4
:10127000660B9091670B20E030E040E857E40E9455
:10128000AD336093640B7093650B8093660B909302
:10129000670BEDCEC701B6010E942A33CB0101CF07
:1012A000A090BF0BB090C00B0091C10B1091C20B6E
:1012B0009501A801B301C4010E94B93287FF2FC074
:1012C0009501A801C701B6010E94A93418167CF146
:1012D0002091BB0B3091BC0B4091BD0B5091BE0BCC
:1012E000530184016D817E818F8198850E945432E3
:1012F0002B013C019501A801C701B6010E9454329F
:101300009B01AC01C301B2010E94BD326093500B3E
:101310007093510B8093520B9093530B5ECF9301BC
:10132000A401C701B6010E94B93218168CF22091AF
:10133000C30B3091C40B4091C50B5091C60BD2CF5B
:10134000B301C4010E94B93287FF0BC0212F302F97
:101350004B2D5A2DC701B6010E94A93418160CF462
:101360006ACF2090CB0B3090CC0B4090CD0B50909F
:10137000CE0B162D072DB82CA92C212F302F4B2D3D
:101380005A2DC701B6010E9454324B015C01A201E3
:1013900091016091500B7091510B8091520B909183
:1013A000530B0E945432A50194010E94BD324B019F
:1013B0005C018091080290910902A0910A02B0910B
:1013C0000B0289879A87AB87BC879C01AD0160E0DF
:1013D00070E080E89FE30E94BD32A50194010E9465
:1013E000AD346B8B7C8B8D8B9E8B5090D70B40904C
:1013F000D80B3090D90B2090DA0B1091DF0B609056
:10140000E00B7090E10B0091E20B252D342D432D64
:10141000522DC701B6010E94B932212F362D472D1A
:10142000502F18161CF1C701B6010E94B932812C49
:10143000912C540118160CF04FC0212F362D472D3A
:10144000502F652D742D832D922D0E94B93287FD6A
:1014500015C08090E30B9090E40BA090E50BB0904A
:10146000E60B22C0812C912C5401A3CF652D742D45
:10147000832D922D0E94B93287FF0AC0212F362D6D
:10148000472D502FC701B6010E94A93418160CF33E
:101490008090DB0B9090DC0BA090DD0BB090DE0B0E
:1014A000152D642C732C022D212F362D472D502FF6
:1014B000C701B6010E9454322B013C01A5019401E1
:1014C0006D817E818F8198850E945432A3019201A3
:1014D0000E94BD324B015C0129853A854B855C85B4
:1014E00060910402709105028091060290910702BA
:1014F0000E94BD32A50194010E94AD346F8B788F9C
:10150000898F9A8F20910C0230910D0240910E022A
:1015100050910F026F85788989899A890E94AD342C
:101520002B013C014092540B5092550B6092560B8C
:101530007092570B9091E70B9D83A091E80BA987C0
:10154000B091E90BBD87E091EA0BEE871091EF0BAC
:101550002090F00B3090F10B0091F20B292F3A2FD5
:101560004B2F5E2FC701B6010E94B932212F322DB9
:10157000432D502F1816E4F0C701B6010E94B9326E
:1015800018160CF0CEC1212F322D432D502F6D8116
:1015900079858D859E850E94B93287FD11C0809026
:1015A000F30B9090F40BA090F50BB090F60B1EC0CF
:1015B0006D8179858D859E850E94B93287FF0AC02D
:1015C000212F322D432D502FC701B6010E94A9347F
:1015D00018162CF38090EB0B9090EC0BA090ED0B79
:1015E000B090EE0B1D8129843D840E85212F322D74
:1015F000432D502FC701B6010E9454326B017C016C
:10160000A5019401C301B2010E945432A7019601C1
:101610000E94BD326B017C012091100230911102B9
:1016200040911202509113026F85788989899A89B5
:101630000E94AD344B015C012F89388D498D5A8D44
:101640006B897C898D899E890E9455329B01AC01F2
:10165000C501B4010E945532A70196010E9455327E
:101660006093580B7093590B80935A0B90935B0BBC
:1016700020E030E04EE753E40E94AD3420E030E05B
:1016800040E451E40E94BD326B017C0120E030E077
:10169000A9010E94A93418160CF047C1C092640B2E
:1016A000D092650BE092660BF092670B10E061E060
:1016B00085E00E942402612F87E00E94240264E0FA
:1016C00070E080E090E0A8D88C019093B60B8093F6
:1016D000B50B20E030E04FE753E46091640B70916C
:1016E000650B8091660B9091670B0E94B9321816BA
:1016F00064F480E090E0AFE7B3E48093640B9093F0
:10170000650BA093660BB093670B4091640B5091EF
:10171000650B6091660B7091670BC80146D880918C
:10172000B70B9091B80BA091B90BB091BA0B8D8308
:101730009E83AF83B887C0902B0CD0902C0CE09088
:101740002D0CF0902E0CA7019601BC01CD010E943A
:10175000B93200915D0410915E04811106C1F80157
:1017600080819181A281B3818093B70B9093B80B54
:10177000A093B90BB093BA0BEBEBFBE08091300276
:1017800090913102A0913202B09133028D839E83F9
:10179000AF83B88780839183A283B3838091C70B83
:1017A0009091C80BA091C90BB091CA0B89879A87F9
:1017B000AB87BC879C01AD01C701B6010E94B9325D
:1017C000D8018D909D90AD90BC90811101C1809207
:1017D000C70B9092C80BA092C90BB092CA0BEBEC4E
:1017E000FBE08091500B9091510BA091520BB09166
:1017F000530B80839183A283B3838091D70B909105
:10180000D80BA091D90BB091DA0B89879A87AB8757
:10181000BC879C01AD01C701B6010E94B932D80155
:101820008D909D90AD90BC908111F8C08092D70BA7
:101830009092D80BA092D90BB092DA0BEBEDFBE0B3
:101840008D819E81AF81B88580839183A283B3838C
:101850008091E70B9091E80BA091E90BB091EA0B16
:101860008D839E83AF83B8879C01AD01C701B6010C
:101870000E94B932D8018D909D90AD90BC9081119D
:10188000F3C08092E70B9092E80BA092E90BB09224
:10189000EA0BEBEEFBE08091540B9091550BA0917D
:1018A000560BB091570B80839183A283B383C09072
:1018B0003404D0903504E0903604F0903704BFEF44
:1018C000CB1ADB0AEB0AFB0AC0923404D09235042F
:1018D000E0923604F0923704C701B6010E945633F5
:1018E0009B01AC01609138047091390480913A04F5
:1018F00090913B040E94AD34F80160837183828330
:10190000938380914804882309F4D4C0813009F47A
:10191000D5C081E090914A04992309F4CCC080E0BD
:10192000CAC0C12CD12C760177CE20E030E0A901CD
:10193000C701B6010E94B93287FF0DC0E894F7F8DD
:10194000C092640BD092650BE092660BF092670B2D
:1019500011E060E0ADCE1092640B1092650B109216
:10196000660B1092670B10E0F4CF4090BF0B5090C5
:10197000C00B6090C10B7090C20BD8018D909D90F0
:10198000AD90BC90A3019201C701B6010E94B9328B
:1019900081110BC08092BF0B9092C00BA092C10B23
:1019A000B092C20BE3ECFBE0E9CEA30192016D81A2
:1019B0007E818F8198850E94B93287FFEBCF80921C
:1019C000B70B9092B80BA092B90BB092BA0BD4CED1
:1019D0004090CF0B5090D00B6090D10B7090D20BF9
:1019E000A3019201C701B6010E94B93281110BC057
:1019F0008092CF0B9092D00BA092D10BB092D20BD1
:101A0000E3EDFBE0EECEA301920169857A858B853B
:101A10009C850E94B93287FFEBCFD9CE4090DF0B77
:101A20005090E00B6090E10B7090E20BA3019201EB
:101A3000C701B6010E94B93281110BC08092DF0B41
:101A40009092E00BA092E10BB092E20BE3EEFBE090
:101A5000F7CEA301920169857A858B859C850E94CA
:101A6000B93287FFEBCFE2CE4090EF0B5090F00BF6
:101A70006090F10B7090F20BA3019201C701B601C7
:101A80000E94B93281110BC08092EF0B9092F00B43
:101A9000A092F10BB092F20BE3EFFBE0FCCEA301BE
:101AA00092016D817E818F8198850E94B93287FF76
:101AB000EBCFE7CE81E08093490402C01092490445
:101AC0008091490494E0899FF0011124E55BFB4F6C
:101AD000C082D182E282F38280934A048FEF8093A6
:101AE000490480913C0490913D04A0913E04B09142
:101AF0003F040196A11DB11D80933C0490933D04C9
:101B0000A0933E04B0933F046A960FB6F894DEBFEC
:101B10000FBECDBFDF91CF911F910F91FF90EF903E
:101B2000DF90CF90BF90AF909F908F907F906F90FD
:101B30005F904F903F902F900895CF92DF92EF9259
:101B4000FF920F931F93CF93DF9300D0CDB7DEB7F3
:101B5000C0901402D0901502E0901602F090170287
:101B6000A701960160917F0B7091800B8091810B92
:101B70009091820B0E94B932882341F0C0927F0B72
:101B8000D092800BE092810BF092820B84E08B83E9
:101B9000C12CEE24E39401E010E020E030E0AE013F
:101BA0004D5F5F4F60E470E08091750B9091760B14
:101BB0000E94DC018B8320E030E0811114C0CC2432
:101BC000C394E12C02E010E020E030E0AE014F5F72
:101BD0005F4F60E470E08091750B9091760B0E94EE
:101BE00072012A813981A0913802B09139020E9494
:101BF00069420E94583320E030E040E056E30E9402
:101C0000AD3420913402309135024091360250912A
:101C100037020E94AD3460935C0B70935D0B809330
:101C20005E0B90935F0B8091400490914104A091D2
:101C30004204B09143040196A11DB11D809340045C
:101C400090934104A0934204B09343040F900F90EB
:101C50000F90DF91CF911F910F91FF90EF90DF9048
:101C6000CF9008954F925F926F927F928F929F9242
:101C7000AF92BF92CF92EF92FF920F931F93CF93A9
:101C800084E090E0D0D38CE993E02AE534E030930F
:101C9000A3032093A2032DE534E03093DD032093CA
:101CA000DC0328E334E03093B1032093B003909336
:101CB0000704809306049093A1038093A00381E01E
:101CC00090E090935B0480935A0487E692E09093AF
:101CD000A7038093A6032FE534E030935E0420939E
:101CE0005D0480E090E0A0E8BFEB80935604909301
:101CF0005704A0935804B09359048AE097EDA3E2E7
:101D0000BCE38093380490933904A0933A04B093D1
:101D10003B048AE49CE1AEEEB2ED80932204909302
:101D20002304A0932404B093250489ED9BEEAAEC30
:101D3000B0E28093260490932704A0932804B093E4
:101D400029048AED9DE1A5E2BAEB80932A049093E1
:101D50002B04A0932C04B0932D0487E291ECA7EE02
:101D6000BEEF80932E0490932F04A0933004B09381
:101D7000310480E993E090939F0380939E038AE768
:101D800093E0909391038093900389E792E090937E
:101D90007B0380937A0390937D0380937C039093DD
:101DA0007F0380937E0390938103809380039093BD
:101DB000830380938203909385038093840390939D
:101DC000870380938603909389038093880390937D
:101DD0008B0380938A0390938D0380938C0390935D
:101DE0008F0380938E0382E394E090939503809316
:101DF000940382E294E09093930380939203309350
:101E00009703209396038FEF8093480480934904AF
:101E100010924A0480912B0C90912C0CA0912D0CC7
:101E2000B0912E0C8093B70B9093B80BA093B90B85
:101E3000B093BA0B8093BF0B9093C00BA093C10BD0
:101E4000B093C20B8093C70B9093C80BA093C90BA0
:101E5000B093CA0B8093CF0B9093D00BA093D10B70
:101E6000B093D20B8093D70B9093D80BA093D90B40
:101E7000B093DA0B8093DF0B9093E00BA093E10B10
:101E8000B093E20B8093E70B9093E80BA093E90BE0
:101E9000B093EA0B8093EF0B9093F00BA093F10BB0
:101EA000B093F20B80E090E5A3ECB8E480939B0B39
:101EB00090939C0BA0939D0BB0939E0B1092960B4E
:101EC0001092950B10928F0B1092940B812C912CE9
:101ED000540183948092900B9092910BA092920B5C
:101EE000B092930B1092470B1092460B1092420B3C
:101EF0001092430B1092440B1092450B50E040E0BF
:101F000060E070E0CB010E9439019093960B8093C2
:101F1000950B20EA422E26E8522E66246394712CFB
:101F20004092970B5092980B6092990B70929A0B7B
:101F30004092680B5092690B60926A0B70926B0B27
:101F400040EA56E861E070E00E945D01C1E0C093A4
:101F5000940B81E09CE00E948B0782E19CE00E9450
:101F60008B0710928E0B1092830B80912002909120
:101F70002102A0912202B091230280938A0B9093B8
:101F80008B0BA0938C0BB0938D0B1092880B8092CF
:101F9000840B9092850BA092860BB092870B4EE833
:101FA0005BE063E082E00E94C702C093880B10925E
:101FB000890B80918E0B0E94C5031092A70B809213
:101FC000A80B9092A90BA092AA0BB092AB0B61E068
:101FD00085E00E941C02C093AC0B10929F0B809274
:101FE000A00B9092A10BA092A20BB092A30B61E068
:101FF00087E00E941C02C093A40B1092AF0B1092BA
:10200000B40B8092B00B9092B10BA092B20BB09235
:10201000B30BE12CF12C8701A801970164E070E07B
:1020200080E090E00E9450049093B60B8093B50B33
:10203000C093B40B80E090E5A3ECB8E480937B0BF5
:1020400090937C0BA0937D0BB0937E0B1092760B3C
:102050001092750B10926F0B8091140290911502E3
:10206000A0911602B091170280937F0B9093800B82
:10207000A093810BB093820B1092740B8092700B23
:102080009092710BA092720BB092730B1092470B4F
:102090001092460B1092420B1092430B1092440B7D
:1020A0001092450B50E040E060E070E0CB010E94F0
:1020B00039019093760B8093750B4092770B509279
:1020C000780B6092790B70927A0B4092680B509269
:1020D000690B60926A0B70926B0B40EA56E861E004
:1020E00070E00E945D01C093740B609118027091C2
:1020F000190280911A0290911B020E9493336093FF
:10210000600B7093610B8093620B9093630B07D20B
:10211000882309F481C01092600B1092610B109219
:10212000620B1092630B8090600B9090610BA090FB
:10213000620BB090630B20E030E0A901C501B4014F
:102140000E94B93287FF8AC0C501B40190580E942D
:102150002A3371956195710910926C0B70936D0B18
:1021600060936E0BC12CE12C03E010E020E030E026
:102170004CE65BE060E470E08091950B9091960BEB
:102180000E94DC0160911C0270911D0280911E0270
:1021900090911F020E9493336093600B7093610BC8
:1021A0008093620B9093630BBAD1882309F45BC0D0
:1021B0001092600B1092610B1092620B1092630BE5
:1021C0008090600B9090610BA090620BB090630BBD
:1021D00020E030E0A901C501B4010E94B93287FFB7
:1021E00064C0C501B40190580E942A3388279927FA
:1021F000861B970B61E07CE0CF911F910F91FF90C0
:10220000EF90CF90BF90AF909F908F907F906F9006
:102210005F904F900C94BB076091600B7091610BC5
:102220008091620B9091630B35D1811174CF6091D5
:10223000600B7091610B8091620B9091630B20E0B9
:1022400030E040E857E40E94AD336093600B709338
:10225000610B8093620B9093630B65CFC501B40152
:102260000E942A3379CF6091600B7091610B80914D
:10227000620B9091630B0ED181119ACF6091600B2C
:102280007091610B8091620B9091630B20E030E0C4
:1022900040E857E40E94AD336093600B7093610B8C
:1022A0008093620B9093630B8BCFC501B4010E94A6
:1022B0002A33CB019FCF82E19CE00E94E10780910D
:1022C000830B811114C081E08093830B8091840B78
:1022D0009091850BA091860BB091870B0197A1057A
:1022E000B10529F48091880B81110E94D20380915D
:1022F000A70B811103C081E08093A70B80919F0BF6
:10230000811103C081E080939F0B8091AF0B8111FD
:102310002EC081E08093AF0B8091B00B9091B10BF8
:10232000A091B20BB091B30B0197A105B105F9F4DF
:102330008091B40B8823D9F064E070E080E090E0F5
:102340000E940C049093B60B8093B50B40E050E0D4
:10235000BA010E94D50364E070E080E090E00E9442
:102360000C049093B60B8093B50B0E94A10480914E
:102370006F0B811119C081E080936F0B8091700BFE
:102380009091710BA091720BB091730B0197A10505
:10239000B10551F48091740B882331F08091750B55
:1023A0009091760B0E941B0280918F0B811119C0B6
:1023B00081E080938F0B8091900B9091910BA09175
:1023C000920BB091930B0197A105B10551F4809147
:1023D000940B882331F08091950B9091960B0E947D
:1023E0001B0281E09CE00C94E10760E070E080E873
:1023F0009FE7089560E070E080E89FE7089560E05F
:1024000070E080E89FEF089560E070E080E89FEF63
:10241000089560E070E080EC9FEF089560E070E068
:1024200080EC9FEF0895F5DF60932F0C7093300CD4
:102430008093310C9093320CF1DF6093230C7093F6
:10244000240C8093250C9093260CCFDF60932B0CEB
:1024500070932C0C80932D0C90932E0CCBDF6093FB
:10246000270C7093280C8093290C90932A0CC7DFBB
:102470006093330C7093340C8093350C9093360C2E
:10248000C3DF6093370C7093380C8093390C9093B2
:102490003A0C0895CF92DF92EF92FF92CF936B01A7
:1024A0007C01AC019B0160912B0C70912C0C8091F4
:1024B0002D0C90912E0C0E94B932C1E0882371F04E
:1024C000A70196016091330C7091340C8091350C0A
:1024D0009091360C0E94B9328111C0E08C2FCF91BF
:1024E000FF90EF90DF90CF9008950F931F938B0193
:1024F0009C010027112720783F77011511052048FE
:102500003F4749F4AB01BC016F77772781E0452B4A
:10251000462B472B09F480E01F910F910895E5CFDA
:102520004F925F926F927F928F929F92AF92BF92E3
:10253000CF92DF92EF92FF920F931F93F894409007
:102540007B0450907C0460907D0470907E04C09069
:102550006F04D0907004E0907104F09072044130E8
:10256000510509F0A4C09B01AC01241935094609A5
:10257000570929013A0100917704109178042091BC
:10258000790430917A0448015901840C951CA61CE9
:10259000B71C80169106A206B306A0F4009173043E
:1025A0001091740420917504309176040F5F1F4FD1
:1025B0002F4F3F4F009373041093740420937504BE
:1025C000309376048092770490927804A0927904F4
:1025D000B0927A04009173041091740420917504F0
:1025E0003091760480927F0490928004A0928104BE
:1025F000B092820400938304109384042093850492
:102600003093860460937B0470937C0480937D04F4
:1026100090937E04A0E1B7E2A30192010E9484425C
:102620006C0D7D1D8E1D9F1D60936F047093700453
:10263000809371049093720400913A0210913B02CE
:1026400020913C0230913D020F3F1F4F2F4F3F4FD3
:10265000F1F000913A0210913B0220913C0230913E
:102660003D020E3F1F4F2F4F3F4F89F0C0903A025F
:10267000D0903B02E0903C02F0903D0221E08C14AF
:102680009D04AE04BF0408F420E020938B047894EA
:102690001F910F91FF90EF90DF90CF90BF90AF9080
:1026A0009F908F907F906F905F904F9008954B0117
:1026B0005C0184189508A608B708A3019201261B9F
:1026C000370B480B590B6415750586059705D0F037
:1026D00082169306A406B50640F420E030E0A90176
:1026E00081149104A104B10491F4A0E1B7E20E9425
:1026F0008442A7019601261B370B480B590BCA01D0
:10270000B901C5CF82169306A406B50670F7A0E1FD
:10271000B7E2A50194010E9484426C0D7D1D8E1DBF
:102720009F1DB5CFFDCECF93DF9300D01F92CDB7C5
:10273000DEB71C821B821A821982109287041092C3
:1027400088041092890410928A04BE016F5F7F4F43
:10275000CE0103960E942E3069817A818B819C8103
:102760000E948129009761F4BE016F5F7F4FCE0107
:1027700003960E943A3069817A818B819C812FD5A2
:102780000F900F900F900F90DF91CF910895FF92CF
:102790000F931F93CF93DF93082F60E070E0CB017E
:1027A0000E94543CFF24F3940E946A28EC01892B78
:1027B00089F010E0CE3F8FEFD80769F0002361F178
:1027C00060E070E0CB010E94543C81E090E0892BF6
:1027D00059F322C011E026D5EC01892B21F0CE3F20
:1027E0008FEFD80759F711111EC011E0229609F496
:1027F00010E00E941A28EC01892B21F0CE3F8FEFC8
:10280000D807E1F6111111C011E0CE3F8FEFD807C4
:1028100009F410E001110BC0CE01DF91CF911F919F
:102820000F91FF90089511E0E4CF11E0F3CF60E045
:1028300070E0CB010E94543C1F25812F90E0C7CF50
:10284000CF93DF9380918B04882321F060E070E0C8
:10285000CB014DD636D6D0E0C0E0892B71F06AE0CE
:1028600070E080E090E00E94543C81E090DF29D647
:102870002196C03D27E0D20781F728D60E94D529AE
:102880001092A3041092A20410929C0410929D0432
:1028900010929E0410929F04109298041092990432
:1028A00010929A0410929B04109294041092950432
:1028B0001092960410929704109290041092910432
:1028C000109292041092930410928C0410928D0432
:1028D00010928E0410928F044EEF5FEF6FEF7FEF38
:1028E00040933A0250933B0260933C0270933D0246
:1028F00010928B04EFE7F4E028E0DF011D922A95A7
:10290000E9F710927B0410927C0410927D041092DF
:102910007E04109277041092780410927904109239
:102920007A04109273041092740410927504109239
:10293000760410926F041092700410927104109239
:102940007204DF91CF9108951092AF041092B004F9
:102950001092B1041092B2041092AE048091B704A8
:102960009091B8049093AD048093AC041092AB04A2
:102970001092AA041092A6041092A7041092A80420
:102980001092A9041092B4041092B30490E080E075
:102990000895CF92DF92EF92FF920F931F93CF9300
:1029A0008C01019709F055C02091B7043091B8040B
:1029B0008091AC049091AD044091B7045091B8045B
:1029C0005093AD044093AC042817390781F010925E
:1029D000AB041092AA041092A6041092A7041092BD
:1029E000A8041092A9041092B4041092B304809128
:1029F000B7049091B804019761F58091B304909168
:102A0000B404892B21F480913E02811112C080917F
:102A1000B3049091B4040197E1F48091A6049091DD
:102A2000A704A091A804B091A9040197A105B1053C
:102A300081F41092A6041092A7041092A804109298
:102A4000A90410923E0282E090E09093B404809337
:102A5000B3048091B7049091B804019709F01CC1A8
:102A60008091CD049091CE048017910709F014C194
:102A70008091C9049091CA04A091CB04B091CC0478
:102A8000009709F409C12091C80421110DC040919B
:102A9000C9045091CA046091CB047091CC04452BB9
:102AA000462B472B09F4F8C02091B3043091B404AD
:102AB0002230310509F0F0C02091AA042111ECC0A8
:102AC000FC01C080D180E280F3808091AE04882335
:102AD00009F4D3C08091BA049091BB04892B09F406
:102AE000FEC02091BA043091BB0481E02230310550
:102AF00009F080E02091BA043091BB04C1E021309C
:102B0000310549F02091BA043091BB04C1E0223074
:102B1000310509F0C0E0882309F456C02091C404AF
:102B20003091C5044091C6045091C704C701B60155
:102B30000E94A93487FD14C02091C4043091C504BB
:102B40004091C6045091C7046091AF047091B004E5
:102B50008091B1049091B2040E94B93287FD22C0E5
:102B60002091C4043091C5044091C6045091C7041B
:102B7000C701B6010E94A934181634F52091C40487
:102B80003091C5044091C6045091C7046091AF04D0
:102B90007091B0048091B1049091B2040E94B93256
:102BA000811112C08091BC049091BD04A091BE041B
:102BB000B091BF04892B8A2B8B2B19F481E0809371
:102BC000AB0481E08093AA04CC2309F456C0209181
:102BD000C4043091C5044091C6045091C704C70194
:102BE000B6010E94B93287FF14C02091C40430910D
:102BF000C5044091C6045091C7046091AF04709120
:102C0000B0048091B1049091B2040E94A93487FF6E
:102C100022C02091C4043091C5044091C604509153
:102C2000C704C701B6010E94B932811126C02091A4
:102C3000C4043091C5044091C6045091C70460910A
:102C4000AF047091B0048091B1049091B2040E94DD
:102C5000A934181694F48091BC049091BD04A091FD
:102C6000BE04B091BF04892B8A2B8B2B19F481E011
:102C70008093AB0481E08093AA0481E09091AA0440
:102C8000911180E08093AE04C092AF04D092B00462
:102C9000E092B104F092B2040130110509F067C16D
:102CA0008091B3049091B404892BD9F41092B904A3
:102CB0001092AA0480913E02882379F082E090E08D
:102CC0009093B4048093B30410923E022091B70411
:102CD0003091B80481E0232BE9F080E01BC081E053
:102CE00009CF10923E028091B904882349F01092D6
:102CF000AB041092B4041092B3041092B904EDCF57
:102D00008091B7049091B804892BE1F08091AA04D6
:102D10001092AA042091B3043091B40422303105FA
:102D200009F45EC088F42115310509F448C021304A
:102D3000310509F4F3C01092AB041092AA0410926A
:102D4000B90438C081E0E6CF2330310509F4B1C0C1
:102D50002430310581F74091A6045091A704609179
:102D6000A8047091A904411551056105710561F030
:102D700041505109610971094093A6045093A70479
:102D80006093A8047093A9044091A6045091A704ED
:102D90006091A8047091A904452B462B472BD9F4C8
:102DA0002091B5043091B6042130310509F046C0B8
:102DB0001092AB041092B4041092B3040CC0809132
:102DC0003E02882341F082E090E09093B404809327
:102DD000B30410923E021092A4048091AB04CEC0C2
:102DE0008823C9F38091BC049091BD04A091BE04D6
:102DF000B091BF04181619061A061B060CF07DC008
:102E00008091B7049091B804019709F076C0809141
:102E1000BC049091BD04A091BE04B091BF04809306
:102E2000A6049093A704A093A804B093A90483E0F8
:102E300090E09093B4048093B304CDCF4091C0044C
:102E40005091C1046091C2047091C304452B462B7C
:102E5000472BA9F01092AB048091C0049091C1045B
:102E6000A091C204B091C3048093A6049093A704D8
:102E7000A093A804B093A90481E090E0DACF88235E
:102E800099F080913F0290914002A0914102B0914F
:102E900042028093A6049093A704A093A804B09341
:102EA000A90484E090E0C5CF1092AB0482E090E0EA
:102EB000C0CF8091A6049091A704A091A804B091DE
:102EC000A9040097A105B10559F00197A109B1091D
:102ED0008093A6049093A704A093A804B093A90498
:102EE0008091A6049091A704A091A804B091A90490
:102EF000892B8A2B8B2B09F06ECF80913F0290910A
:102F00004002A0914102B0914202892B8A2B8B2B67
:102F100009F44ECF81E08093AB04B3CF4091A60477
:102F20005091A7046091A8047091A904411551051E
:102F30006105710561F041505109610971094093C2
:102F4000A6045093A7046093A8047093A904409129
:102F5000A6045091A7046091A8047091A904452B80
:102F6000462B472B09F037CF8111C7CF9FCF8091D8
:102F7000A404882309F431CF8091A504CF911F9137
:102F80000F91FF90EF90DF90CF9008951092AF04D3
:102F90001092B0041092B1041092B2041092AE04D8
:102FA0001092B4041092B3041092AD041092AC04C9
:102FB0001092CE041092CD041092AB041092AA0489
:102FC0001092A6041092A7041092A8041092A904CB
:102FD0001092A5041092A4041092C9041092CA047D
:102FE0001092CB041092CC041092C8041092C40426
:102FF0001092C5041092C6041092C70488EE93E0A4
:10300000A0E0B0E080933F0290934002A093410281
:10301000B09342021092C0041092C1041092C204F4
:103020001092C3041092BC041092BD041092BE040E
:103030001092BF041092BB041092BA0481E08093F6
:103040003E021092B9041092B8041092B704109284
:10305000B6041092B50490E080E008958091B70422
:103060009091B804892B19F580913E02882351F084
:103070008091B904811106C081E08093A5048093FA
:10308000A40408952091B90430913E0281E090E0BB
:10309000332311F090E080E030E082239323892BEA
:1030A00021F01092A50481E0EACF1092A4040895C3
:1030B00082E090E0FA01918380838FEF9FEF089583
:1030C000CF93DF93EA01009711F00E94FF2A198243
:1030D000188290E080E0DF91CF910895DB010097A6
:1030E00019F48FEF8C9308952EEF2C93FC013F96EB
:1030F000EF30F10508F034C08827EE57F74E8F4FB8
:103100000C946142AE18AC18AA18A818A618A218F8
:10311000A418A0189E189C1899189518911897181B
:10312000B01880E311968C93089589E2FBCF82E278
:10313000F9CF11961C92089583E2F4CF81E2F2CF89
:1031400081E1F0CF87E2EECF8AE2ECCF80E1EACFF7
:1031500084E2E8CF88E2E6CF86E2E4CF81E3E2CF03
:1031600080E2E0CF8091DB049091DC04089590939D
:10317000DC048093DB0408958091DA040895909133
:10318000DA04892B8093DA040895982F9095809122
:10319000DA0489238093DA0408958091D90408958C
:1031A0008091D7049091D80408956115710559F064
:1031B000FB0130E020E070E060E02417350719F0F3
:1031C0006115710511F0CB010895A081B181A81797
:1031D000B90709F4BF012F5F3F4F3696EECF8091BC
:1031E000DD0481111CC060D266D29093D00480931C
:1031F000CF040E9402230E9414239093D40480934E
:10320000D3040E9482270E9489279093D20480933E
:10321000D10481E08093DD0490E080E0089584EFA4
:103220009FEF08958F929F92AF92BF92CF92DF92BD
:10323000EF92FF920F931F93CF93DF9300D000D0B4
:1032400000D01F92CDB7DEB71A86198618861F8266
:103250001E821D821C821B821A8219828091DD04CB
:1032600007EF1FEF882309F49CC08E010D5F1F4FED
:103270009E012B5F3F4FAE01495F5F4FBE01675F0D
:103280007F4F90E080E00E9406298C01009721F09A
:103290000596029708F0DBC029853A85211531058E
:1032A00009F402C1ED80FE804B815C81B701640F9F
:1032B000751F8F8198858617970708F4F5C0E20E71
:1032C000F31ED7019C91903C09F07FC0423051051C
:1032D00008F47BC011968C914091DB045091DC0482
:1032E000452B09F49CC0913F08F071C02CE1290FD7
:1032F0002D3008F48BC02DE2290F203108F489C04D
:10330000903C21F48150823008F483C088E3890F17
:103310008B3008F481C09EE6C92E98E1D92EE8E5ED
:10332000F8E16D817E81AE014F5F5F4F89859A859F
:1033300019955C01C114D104A1F189809A8081148E
:10334000910479F18B819C818815990508F487C0D7
:1033500010E000E04B815C8170E060E0C7010E94FA
:10336000974201151105E9F449815A8169857A85E9
:103370008D819E81680F791FC501F6011995E9803D
:10338000FA800D811E812F81388549855A856FEF1E
:103390007FEF81E090E00E94A1288C01892B09F049
:1033A00056C0C8012A960FB6F894DEBF0FBECDBF37
:1033B000DF91CF911F910F91FF90EF90DF90CF9011
:1033C000BF90AF909F908F90089580E085CF30E0C0
:1033D00020E0220F331FF901E153FB4F0190F081F0
:1033E000E02D309709F497CF892F90E01995009739
:1033F00009F491CFDC011296ED91FC91139714968C
:10340000CD90DC90309709F08CCF1FC021E030E0E8
:10341000E0CF22E030E0DDCF23E030E0DACFD12C86
:10342000C12CE0E6F8E19F3F09F07BCFE091CF04AB
:10343000F091D004309721F4C90104EF1FEF0CC0C4
:103440008FEF90E019950097A9F604EF1FEF89859B
:103450009A85009709F4A5CF0E94FF2AA2CF0E9467
:10346000D0298C0189859A850E94FF2A70E060E04E
:10347000C4010E94692998878F830E949E289E8399
:103480008D836F8178856115710559F0C8010E949F
:10349000622C9A87898706EF1FEF892B09F058CF96
:1034A00059CF08EF1FEF56CF08EF1FEFD0CF209175
:1034B000DD04222319F020E00C94192387EF9FEFFD
:1034C00008958091DB049091DC0408950E948E277A
:1034D0000E94E826F5D0EFECF4E088E0DF011D92D1
:1034E0008A95E9F71092DD0490E080E008950C944D
:1034F000472521E040E050E0BA010C94192386E012
:1035000090E0FA019183808390E080E0089547E0A5
:1035100050E06CE772E049CEDF92EF92FF920F939A
:103520001F93CF93DF938A01EC01C60FD71FE09062
:10353000E104F090E204D9800E94B829D816190657
:1035400078F082E090E0F801918380838EEF9FEF26
:10355000DF91CF911F910F91FF90EF90DF90089531
:10356000EF2841F482E090E0F8019183808384EFBA
:103570009FEFEECF89818093E00490E00196F801FF
:103580009183808390E080E0E3CFCF93DF93EA01E3
:103590000E94F825882321F00E94C5290E94F92560
:1035A00082E090E0998388838BEF9FEFDF91CF914A
:1035B0000895CF93DF93EB0186E0FB0111928A958A
:1035C000E9F78FEF8883D8DD8983E7DD8A83E8DD3B
:1035D0009D838C83DF91CF910895CF93DF93EA0190
:1035E0000E94FB25811109C082E090E099838883C5
:1035F00085EF9FEFDF91CF91089590E080E0B7DDF8
:1036000081E090E09983888390E080E0F3CF0F938E
:103610001F93CF93DF93EA018C01060F171F0E94BF
:10362000FB2581110BC082E090E09983888385EFB0
:103630009FEFDF91CF911F910F910895F801818144
:10364000823038F082E090E0998388838EEF9FEF9C
:10365000F0CF81E090E08BDD88E090E09983888373
:1036600090E080E0E6CFCF93DF930097D1F4EB01B9
:10367000FB01329686E0DF011D928A95E9F78FEF14
:10368000888385E089831A820E94B8298B830E94EF
:10369000B7299D838C8381E08E838F83DF91CF91C7
:1036A0000895DF91CF911ACD87E89AE19093DF04D6
:1036B0008093DE0408958091DE049091DF040895E4
:1036C0001092DF041092DE0408958091E10490913D
:1036D000E2040895411105C0611571058105910548
:1036E00061F06093E1047093E2048093E3049093AB
:1036F000E4044093E50481E0089580E00895FF929A
:103700000F931F93CF93DF938A01EC01C60FD71F4E
:10371000F9800E94B829F816190668F082E090E056
:10372000F801918380838EEF9FEFDF91CF911F91FE
:103730000F91FF9008956C817D818E819F814B81D7
:10374000C9DF811108C082E090E0F8019183808395
:1037500084EF9FEFEACF89818093E00490E00196A7
:10376000F8019183808390E080E0DFCFCF93DF93F7
:10377000EA01FC01E60FF71F64817581868197815C
:103780004381A8DF811109C082E090E0998388839A
:1037900084EF9FEFDF91CF91089581E090E09983CE
:1037A000888390E080E0F6CFE1EEF4E04081518143
:1037B00062817381480F511D611D711D40835183CA
:1037C000628373830895CF93C091E0044C2F50E03F
:1037D0006091E1047091E20401960E948E428C2F68
:1037E000E3DF1092E004CF910895009799F480915F
:1037F000E1049091E2042FEFFB012083892B59F023
:103800002091E00430E02F5F3F4F2417350719F473
:10381000CB01D9CF63CC0895009799F48091E1044E
:103820009091E2042FEFFB012083892B59F0209126
:10383000E00430E02F5F3F4F2417350719F4CB0128
:10384000C2CF4CCC089523E1AC01249FC001259F39
:10385000900D1124E091EA04F091EB04E80FF91FB8
:10386000238134812250310981E02230310508F072
:1038700080E008950F931F93CF93DF930091EC04A2
:103880001091ED04D0E0C0E080E00C171D0749F472
:1038900091E0811190E0892FDF91CF911F910F91DD
:1038A00008958111F5CFCE01CEDF2196EECFA09104
:1038B000EA04B091EB04109729F12091EC043091C7
:1038C000ED0482179307F0F453E1589F9001599F3C
:1038D000300D1124A20FB31FED91FC911197309779
:1038E00089F012968C91681768F48BE0689FE00D60
:1038F000F11D112480819181892B21F081E0928139
:10390000491708F080E008959C0143E1429FC001FF
:10391000439F900D1124E091EA04F091EB04E80F2D
:10392000F91F8385823099F481E090E0658176818A
:1039300040914302509144026417750711F490E0DE
:1039400080E0892B21F081E02330310508F080E010
:103950000895EF92FF920F931F93CF93DF93EA01A5
:10396000FC01E60FF71F02811381E480F5804F2DE3
:103970006E2DC8019CDF81110DC082E090E099831B
:1039800088838EEF9FEFDF91CF911F910F91FF9072
:10399000EF900895C80157DF882339F082E090E066
:1039A0009983888388EF9FEFEECF10934A020093AC
:1039B0004902E0924B02F0924C0281E090E0998340
:1039C000888390E080E0DFCFCF92DF92EF92FF928A
:1039D0000F931F93CF93DF937A01EC01C60FD71F8C
:1039E000C0904902D0904A0200914B0210914C02C3
:1039F000412F602FC6015BDF811110C082E090E093
:103A0000F701918380838AEF9FEFDF91CF911F9120
:103A10000F91FF90EF90DF90CF900895C60113DFD4
:103A2000882341F082E090E0F7019183808388EF62
:103A30009FEFEBCF4C815D816E817F819A8189817F
:103A40008F3F41F082E090E0F701918380838EEF19
:103A50009FEFDBCFE3E1EC9D9001ED9D300D112454
:103A6000E091EA04F091EB04E20FF31F0190F08182
:103A7000E02D2BE0029FE00DF11D11240190F0815B
:103A8000E02D27E0129FE00DF11D1124808391832A
:103A90008B81828343835483658376831F5F109376
:103AA0004C0281E090E0F7019183808390E080E018
:103AB000ACCFEF92FF920F931F93CF93DF937A01D6
:103AC0008C01060F171FC091EA04D091EB042097D8
:103AD00081F021E030E0F801828193814091EC0493
:103AE0005091ED048417950710F030E020E0232B6F
:103AF00071F482E090E0F701918380838EEF9FEF75
:103B0000DF91CF911F910F91FF90EF90089543E1C6
:103B1000489F9001499F300D1124C20FD31F93DE9F
:103B2000882341F082E090E0F7019183808388EF61
:103B30009FEFE6CFF8012481358120383105C8F6A2
:103B400087818111D6CF4181842F90E08F7E0097AD
:103B500041F082E090E0F7019183808386EF9FEF50
:103B6000CFCF4F833E832D8326812887198622302D
:103B700010F421E0288721E030E0F7013183208331
:103B8000BFCF88E090E0FA019183808390E080E0ED
:103B90000895FB018FEF808381E181838FEF9FEF99
:103BA0009383828380E890E09583848316821782D2
:103BB0000895FB018FEF808391E09183828393834B
:103BC000848384E3858381E090E0978386830895EE
:103BD000BF92CF92DF92EF92FF920F931F93CF93FA
:103BE000DF93DA01FC01E60FF71F8181813081F05C
:103BF00082E090E08D939C938FEF9FEFDF91CF91C8
:103C00001F910F91FF90EF90DF90CF90BF9008959C
:103C1000C281D381B480858106811781E090EA0456
:103C2000F090EB04E114F10439F482E090E08D931C
:103C30009C938CEF9FEFE2CF2091EC043091ED0448
:103C4000C217D30738F082E090E08D939C938EEFFB
:103C50009FEFD4CFC330D10538F082E090E08D9350
:103C60009C9386EF9FEFCACF9B2D9D7FB1F781304C
:103C7000A1F7B11005C00130110531F080E004C09A
:103C800081E002301105D0F3882339F36D01CE01B4
:103C9000DADD882341F082E090E0F60191838083B1
:103CA00088EF9FEFABCF83E18C9FF0018D9FF00DEC
:103CB0001124EE0DFF1DB38681E0848716870587EA
:103CC000108A178681E090E0F6019183808390E06E
:103CD00080E094CF4CE050E066EA72E066CA8F92D2
:103CE0009F92BF92CF92DF92EF92FF920F931F931A
:103CF000CF93DF93EA01FC01E60FF71F82819381E6
:103D00000481B580E091EA04F091EB04309791F4DE
:103D100082E090E0998388838CEF9FEFDF91CF91D1
:103D20001F910F91FF90EF90DF90CF90BF909F90E9
:103D30008F9008952091EC043091ED048217930741
:103D400038F082E090E0998388838EEF9FEFE6CF92
:103D500023E1289F6001299FD00C1124EC0DFD1D4B
:103D6000E080F180E114F10499F28281081748F7AC
:103D70008BE0089F80011124E00EF11EF701808185
:103D80009181892B29F6BB20E1F2F7E0BF9E40012B
:103D90001124C4010E94B02AF70191838083E0912D
:103DA000EA04F091EB04EC0DFD1D0190F081E02D93
:103DB000E00FF11F80819181009739F482E090E05B
:103DC000998388838DEF9FEFA9CFA40170E060E015
:103DD0000E9497428091EA049091EB04C80ED91E8C
:103DE000F60180819181080F191FF801B28281E0EC
:103DF00090E09983888390E080E090CFAF92BF926B
:103E0000CF92DF92FF920F931F93CF93DF93EA013C
:103E1000FC01E60FF71F82819381F4800091EA0490
:103E20001091EB040115110581F482E090E0998373
:103E300088838CEF9FEFDF91CF911F910F91FF90BF
:103E4000DF90CF90BF90AF9008952091EC04309117
:103E5000ED048217930738F082E090E0998388831D
:103E60008EEF9FEFE8CF2FEF2F0D2C3FA8F723E128
:103E7000289F6001299FD00C11240C0D1D1DF801F5
:103E800080819181892B89F6FBE0FF9E50011124EE
:103E9000C5010E94B02AF80191838083E091EA0471
:103EA000F091EB04EC0DFD1D80819181009739F4B8
:103EB00082E090E0998388838DEF9FEFBCCFA501CE
:103EC00070E060E00E949742E091EA04F091EB0418
:103ED000EC0DFD1DF28281E090E09983888390E0F3
:103EE00080E0A9CFCF92DF92EF92FF920F931F93C2
:103EF000CF93DF93860F971FFC010281138180917E
:103F0000EA049091EB04892B81F082E090E0FA01C1
:103F1000918380838CEF9FEFDF91CF911F910F9161
:103F2000FF90EF90DF90CF900895C801B0E0A0E03F
:103F30000197A109B1098F3F9F4FA105B10540F03D
:103F400082E090E0FA01918380838EEF9FEFE4CFCF
:103F50007A0183E1809F6001819FD00C1124C6010A
:103F60000E94B02AEC01009741F482E090E0F70152
:103F7000918380838DEF9FEFCFCFA60170E060E04B
:103F80000E949742D093EB04C093EA041093ED048F
:103F90000093EC0490E080E02FEF3FEF41E061E020
:103FA00070E08017910741F481E090E0F701918380
:103FB000808390E080E0B0CF3A8B298B1B864C87C2
:103FC0007E876D87188A1F8601966396EACFCF9207
:103FD000DF92EF92FF920F931F93CF93DF93EC0149
:103FE000D12CC12C10E000E0F12CE12C6A8160178B
:103FF000110609F0CCF483E0689FB0011124AE01F2
:104000004F5E5F4FC7010E942B2B009721F02FEFCF
:104010003FEF3A8B298BDF91CF911F910F91FF904A
:10402000EF90DF90CF900895E881F981EC0DFD1DB0
:10403000438154818D859E85489F9001499F300D15
:10404000589F300D1124C90101960115110519F46D
:104050004F8144FD049661E070E00E946929E816F2
:10406000F90608F47C010F5F1F4F8BE0C80ED11CCE
:10407000BDCFF8942091E8043091E90481E0211546
:10408000310509F080E0232B09F0789408952F92F0
:104090003F924F925F926F927F928F929F92AF92D8
:1040A000BF92CF92DF92EF92FF920F931F93CF9325
:1040B000DF933C01660E771EF301828193814C01F0
:1040C000B12CA12CC091EA04D091EB04209769F0A7
:1040D00021E030E06091EC047091ED0486179707C1
:1040E00010F030E020E0232BD1F482E090E0FA01E0
:1040F000918380838EEF9FEFDF91CF911F910F917E
:10410000FF90EF90DF90CF90BF90AF909F908F90F7
:104110007F906F905F904F903F902F900895809286
:104120004D0290924E02A0924F02B092500263E173
:10413000689F9001699F300D1124C20FD31FF301B6
:104140008181833040F082E090E0FA0191838083A6
:1041500086EF9FEFD1CF2A012B813C81232BF1F4F5
:10416000288139819F8191FF2EC0232B09F46FC0D4
:104170002091EF049A81422F490F5527551FBA010C
:1041800041E050E06138710514F050E040E0452B0B
:1041900009F45DC02A87920F9093EF04815082301A
:1041A00008F481C066DF882309F4D8C0F301818157
:1041B000813009F48DC008F47BC0823009F4C6C098
:1041C00090E080E0ADC0232B09F441C02091EE04C3
:1041D0009A81E22FE90FFF27FF1F41E050E0ED3FFA
:1041E000F10514F050E040E0452B89F12A87920F49
:1041F0009093EE04D3CFA081B181A20FB31F11968B
:104200006C91060F111D0196295F3F4F841795078A
:1042100094F38D859E85089F1001099F300C189F8F
:10422000300C1124C114D104D1F48F8184FF17C044
:104230000E94B729F5E02F0E311C21E0821593056D
:1042400008F420E0A701455F5F4F21110EC082E016
:1042500090E0F2019183808387EF9FEF4DCF0E9422
:10426000B7292FEF221A320AE8CF88819981E80E08
:10427000F91EF70114830383FFEFCF1ADF0A7A01D7
:104280008A818C151D0409F00CF48CCFE881F9812A
:10429000EE0DFF1D428150E030E020E010E000E034
:1042A00090E080E0B3CFF12CE12CD12CC12CE8CFF1
:1042B00081E090E09C838B83DDDA882309F480CF52
:1042C00081E090E00E94B71880E40E94C51878CF82
:1042D00089899A89019661F083E090E09C838B83C1
:1042E00082E090E00E94B71880E40E94BF1868CF77
:1042F0002D813E8180914302909144022817390715
:10430000D1F46091470270914802AE014F5E5F4F59
:1043100080914502909146020E94212C0097E1F283
:10432000789422E030E0F20131832083892B99F0E8
:104330008DEF9FEFE1CE23E082169104A104B1043A
:104340005CF6CE0144DE188A1F86E8CF82E090E05A
:104350009C838B8335CF90E080E0CECE82E090E0EE
:10436000F2019183808385EF9FEFC6CE8F929F925B
:10437000AF92BF92CF92DF92EF92FF920F931F9373
:10438000CF93DF93EA018C01060F171FF80181819B
:10439000833098F082E090E09983888386EF9FEFE6
:1043A000DF91CF911F910F91FF90EF90DF90CF9011
:1043B000BF90AF909F908F9008958091EA04909164
:1043C000EB04892B61F081E090E02091EC043091C6
:1043D000ED04232B11F490E080E0892B39F482E086
:1043E00090E0998388838EEF9FEFDACF42DE8823B7
:1043F00009F4DEC0F8018181813009F494C0E8F04D
:10440000823099F42091EC043091ED04E091EA04BB
:10441000F091EB0490E080E041E050E0281739078C
:1044200009F0BCC027DA811117C0789481E090E0D0
:104430009983888390E080E0B3CF2091EC043091A1
:10444000ED04E091EA04F091EB0490E080E041E0BB
:1044500050E02817390741F481E090E00E94B71836
:1044600080E40E94C518E1CF63817481672B11F04D
:104470005483438301967396ECCFE091EA04F09164
:10448000EB04E00FF11F2381348122303105D9F490
:10449000218932892F3F3F4FB1F4458156812091C8
:1044A0004302309144024217530761F5AF014F5E5A
:1044B0005F4F609147027091480280914502909150
:1044C00046020E94212C4FEFC41AD40AE40AF40ACF
:1044D0000D5E1F4F4091EC045091ED0470E060E0E0
:1044E000C416D506E606F70634F5009731F278943F
:1044F000892B09F49BCF82E090E0998388838DEF2C
:104500009FEF4ECF23E0C216D104E104F104DCF6A4
:10451000CF015DDDE091EA04F091EB04E00FF11FC3
:10452000108A1786D0CF10E000E090E080E0C12C28
:10453000D12C7601CFCF0097D1F610E000E0812C8E
:10454000912C540183E0E82EF12C1AC0E091EA048A
:10455000F091EB04E00FF11F83819481029749F4FD
:10456000F482E38282E090E00E94B71880E40E9427
:10457000BF188FEF881A980AA80AB80A0D5E1F4F55
:104580008091EC049091ED04B0E0A0E088169906CB
:10459000AA06BB06DCF290E080E0A9CF63817481BB
:1045A0006230710511F4548343830196739636CFBC
:1045B00082E090E09983888385EF9FEFF1CE0097AA
:1045C000B9F48FEFFB01808320914D0230914E02B0
:1045D00043E1429FC001439F900D1124E091EA0402
:1045E000F091EB04E80FF91F8285FB0181830895A8
:1045F0000C946E1888E090E0FA019183808390E03B
:1046000080E008951092E9041092E804EAEEF4E0E4
:1046100086E0DF011D928A95E9F78AE69EE1909394
:10462000E7048093E60408958091E6049091E704FE
:1046300008952F923F924F925F926F927F928F9246
:104640009F92AF92BF92CF92DF92EF92FF920F9321
:104650001F93CF93DF93CDB7DEB760970FB6F89473
:10466000DEBF0FBECDBFF894E091E804F091E904FD
:104670003196F093E904E093E8047894A091EA0479
:10468000B091EB04BA83A983109709F4FAC1E091C1
:10469000EC04F091ED04EF2B09F4F3C128874B876C
:1046A0005C876D877E879A878987B88BAF87312C27
:1046B000212CF12C512C412C8091EC049091ED0493
:1046C0002816390610F4FF2029F1F8948091E804A7
:1046D0009091E90401979093E9048093E804789419
:1046E000C20160960FB6F894DEBF0FBECDBFDF915A
:1046F000CF911F910F91FF90EF90DF90CF90BF90DF
:10470000AF909F908F907F906F905F904F903F9071
:104710002F900895B10190E080E087D4682EEF8556
:10472000F889878181FD3DC0838194810397C9F514
:10473000258136813C832B8389859A852817390703
:1047400081F5C101E1D8782E8823A9F1AF85B88918
:104750001F968D919C915097019621E01D964D9149
:104760005C918417950709F020E02F83B12CA12CD0
:10477000EF85F88982818A151B0419F014F0FF2057
:10478000E9F0F885FF2309F46CC1AF85B88950962C
:104790001C921E921F97662021F0B10190E080E0EC
:1047A00046D4FFEF2F1A3F0A2F8538892D5E3F4FE1
:1047B000388B2F8781CFB1E0BF83D8CFBFD49E8302
:1047C0008D83E885EE23E9F0772009F43CC1AF85BD
:1047D000B8891F968D919C91892B79F0BBE0BA9D89
:1047E000C001BB9D900D1124AF85B889ED91FC915E
:1047F000E80FF91F8581968102D7BFEFAB1ABB0A7C
:10480000B7CF81E0772039F0EF85F88927853089A7
:10481000232B09F080E0F82EE12CA114B10439F427
:10482000AF85B8891796EC90E4FAEE24E0F8BBE087
:10483000BA9D6001BB9DD00C1124882309F424C1CA
:10484000AF85B889ED91FC911197EC0DFD1D438169
:1048500054811D962D913C91429FC001439F900D24
:10486000529F900D1124E1105DC0019690878783BF
:1048700061E070E0878190852CD5EF85F8892189EA
:104880003289008111810C0D1D1D2F3F320709F463
:104890004BC0BC01C9010E94622CD80116969C93A2
:1048A0008E931597AF85B889ED91FC911197EC0D1A
:1048B000FD1D058116810115110509F4CDC0ED819D
:1048C000FE810E0F1F1F1A968C918A0DD8018C93B2
:1048D000E1102FC00F5F1F4FAF85B889ED91FC919C
:1048E000EC0DFD1D12870187AF85B889ED91FC9114
:1048F000EC0DFD1D85819681892B09F4A4C0809162
:104900004302909144022B813C812817390709F416
:1049100065C0772011F001851285912C812C1A82B7
:1049200019824AC00596A2CF1BD6F80196838583CB
:10493000B9CF8B859C85AD85BE85F8018183928337
:10494000A383B4830B5F1F4FC7CFE080F180E80CD7
:10495000F91CD70113966D917C9114978C918F3F20
:1049600009F473C0E1E0F0E002C0EE0FFF1F8A958A
:10497000E2F7CF01092E000CAA0BBB0BFB01408113
:1049800051816281738184239523A623B72321E07B
:10499000892B8A2B8B2B09F420E0D8012C93D7018B
:1049A00011968C91080F111DE981FA813196FA83D5
:1049B000E983F7E08F0E911CAF85B889ED91FC91EA
:1049C000EC0DFD1D828129813A818217130611F0B9
:1049D0000CF0BBCF772011F0128701873F81332382
:1049E00091F1AF85B889ED91FC91EC0DFD1D61E071
:1049F00070E0878190856DD4AF85B889ED91FC9189
:104A0000EC0DFD1DE780F08445815681E1E0F0E08A
:104A1000662011F0F0E0E0E00D811E819C01B10103
:104A2000882799278E1B9F0B8CD32C01892B59F03B
:104A3000EF85F88980819181C80ED91ED60115961F
:104A40008D919C91DCD5F12CD8CEF701418150E0BD
:104A5000C8010E948E42A3CF86EF482E55245A9457
:104A6000CCCEEF85F889878590890196908B8787D2
:104A7000258536858217930709F08DCE108A178613
:104A80008ACE512C412C21CE10E000E02DCF2F9268
:104A90003F924F925F926F927F928F929F92AF92CE
:104AA000BF92CF92DF92EF92FF920F931F93CF931B
:104AB000DF938091EA049091EB0410E000E0892BF1
:104AC000A9F0D7DA0AEF1FEF882381F02090EC04D9
:104AD0003090ED04C091EA04D091EB04D12CC12CAC
:104AE00010E000E02C143D04A9F47894C801DF9193
:104AF000CF911F910F91FF90EF90DF90CF90BF90DB
:104B0000AF909F908F907F906F905F904F903F906D
:104B10002F900895C6010E94841C882309F18B817F
:104B20009C810397E9F48F859889892BC9F0B60198
:104B300090E080E07AD221E030E0882311F030E08C
:104B400020E044245524421A530AB12CA12C912C64
:104B5000812C8A818815190409F038F4188A1F8677
:104B60004FEFC41AD40A6396BDCFE881F981EA0DEC
:104B7000FB1D85819681892BA1F161E070E0878121
:104B80009085A7D33C01DAD28C01E881F981EA0D46
:104B9000FB1D8185928525813681200F311FAC0157
:104BA000421B530B9A0147815085421B530B70E007
:104BB00060E00E949742E881F981EA0DFB1DE780E1
:104BC000F084458156819301B601C201BAD28C01AD
:104BD000892B39F0E881F981EA0DFB1D85819681E9
:104BE0000ED55FEF851A950A8BE0A80EB11CB1CFE8
:104BF00040CA789408952F923F924F925F926F929D
:104C00007F929F92AF92BF92CF92DF92EF92FF92EC
:104C10000F931F93CF93DF9300D000D0CDB7DEB7B3
:104C20000091EA041091EB04992493940115110565
:104C300009F43EC0A090EC04B090ED041ADA982E6E
:104C40008823B1F11092EB041092EA041092ED0463
:104C50001092EC041092EE041092EF048FEF9FEF8D
:104C6000DC0180934D0290934E02A0934F02B093CB
:104C7000500278947ED31E830D83C12CD12C7601F3
:104C8000C501B0E0A0E089839A83AB83BC83222472
:104C90002A94322C89819A81AB81BC81C816D906AD
:104CA000EA06FB06F4F0C801AAD480E40E94C51805
:104CB000892D26960FB6F894DEBF0FBECDBFDF91CB
:104CC000CF911F910F91FF90EF90DF90CF90BF9009
:104CD000AF909F907F906F905F904F903F902F90FC
:104CE0000895AD81BE8115962D913C9116978091C6
:104CF00043029091440228173907D1F451968D91BF
:104D00009C91CED5ED81FE8180819181B12CA12C29
:104D1000412C512C3201892B81F5BFEFCB1ADB0AD4
:104D2000EB0AFB0AED81FE817396FE83ED83B2CF21
:104D3000B3E0CB16D104E104F10424F7ED81FE8148
:104D4000818992898F3F980709F021D5AD81BE8175
:104D500052963C922E925197D5CF8A0D9B1DDC0125
:104D60008D919C91009709F04AD4BFEF4B1A5B0AD2
:104D70006B0A7B0AEBE0AE0EB11CAD81BE818D915A
:104D80009C91119712964C9150E070E060E04416AF
:104D90005506660677060CF332D4BFCFCF93DF9368
:104DA000EA0129DF811109C082E090E099838883BC
:104DB00085EF9FEFDF91CF91089581E090E00E9411
:104DC000B71881E090E09983888390E080E0F2CF8B
:104DD00012DF1092E7041092E604089542E050E0DA
:104DE0006EEE72E00C94D518FF920F931F93CF9341
:104DF000DF938A01EC01C60FD71FF980B9D208975B
:104E0000F816190671F068F082E090E0F8019183DD
:104E100080838EEF9FEFDF91CF911F910F91FF90D5
:104E200008956C817D818E819F814B810E946A1BD8
:104E3000811108C082E090E0F8019183808384EFC3
:104E40009FEFE9CFF9800E94651B4F2D50E0BE0116
:104E5000685F7F4F0E948E4289810E94D41B81E04F
:104E600090E0F8019183808390E080E0D4CFDF92DE
:104E7000EF92FF920F931F93CF93DF938A01EC0180
:104E8000C60FD71F0E94651B7C01D98071D2DD201F
:104E900059F0029721E030E0D816190619F010F009
:104EA00030E020E0232B79F482E090E0F801918358
:104EB00080838EEF9FEFDF91CF911F910F91FF9035
:104EC000EF90DF900895EF2841F482E090E0F80140
:104ED0009183808384EF9FEFEECFF9800E94651B62
:104EE0004F2D50E0BE016E5F7F4F0E948E42898140
:104EF0000E94D41B81E090E0F8019183808390E0D0
:104F000080E0D9CF8EEE96E29093F1048093F00486
:104F100008958091F0049091F10408950895FC01A2
:104F200011821082938382830895DB011D921C926B
:104F3000DC011296ED91FC911397718360831396B7
:104F40007C936E9312970895FC0180819181DB011F
:104F50008D939C93A081B181109741F08D919C918C
:104F600091838083892B11F4F383E2830895FC01FC
:104F700080819181DB018D939C93892B11F4738344
:104F80006283718360830895FC0111821082938390
:104F900082830895CF93DF931F921F92CDB7DEB720
:104FA0001A821982F894BE016F5F7F4F87EF94E0F9
:104FB000CBDF89819A81009709F021D389819A8179
:104FC000892B89F7BE016F5F7F4F8BEF94E0BCDFC9
:104FD00089819A81009709F012D389819A81892B5E
:104FE00089F778940F900F90DF91CF910895CF9328
:104FF000DF931F921F92CDB7DEB71A821982F89401
:10500000BE016F5F7F4F83EF94E09EDF89819A81BD
:10501000009709F0F4D289819A81892B89F77894D5
:105020000F900F90DF91CF91089581E0089590E067
:1050300080E00895EF92FF920F931F93CF93DF9339
:105040001F921F92CDB7DEB71A8219828091F204A7
:1050500007EF1FEF8823A1F1F894BE016F5F7F4F28
:105060008BEF94E071DF789489819A81EE24E39448
:10507000F12C892B51F4F894BE016F5F7F4F87EFBD
:1050800094E062DF7894F12CE12C89819A810EEF13
:105090001FEF0097A9F0FC014281538164E070E0AA
:1050A00011D68C01892B61F0F89469817A81C7014E
:1050B000880F991F880F991F89509B4F58DF78944C
:1050C000C8010F900F90DF91CF911F910F91FF902A
:1050D000EF9008950F931F93CF93DF9300D01F920B
:1050E000CDB7DEB71C821B821A8219828091F2042E
:1050F00007EF1FEF8823C1F0AE014D5F5F4F64E003
:1051000070E0CE01019651D68C01892B69F4E981BA
:10511000FA818B819C8193838283F89469817A815F
:1051200083EF94E002DF7894C8010F900F900F9006
:105130000F90DF91CF911F910F91089556D704964C
:1051400008958F929F92AF92BF92CF92DF92EF928B
:10515000FF920F931F93CF93DF931F921F92CDB7B0
:10516000DEB71A821982BC016F5F7F4F6330710511
:1051700098F0AA24AA94BA2CC5010F900F90DF9141
:10518000CF911F910F91FF90EF90DF90CF90BF9044
:10519000AF909F908F9008954115510551F34801AC
:1051A00059018A016C01CADF8815990511F7E114CC
:1051B000F104F9F28E0D9F1DA816B906D0F2809168
:1051C000F2048823F1F0F894B50164507109970155
:1051D000AE014F5F5F4FC80104967CD65C01892BFE
:1051E00071F489819A81F80193838283C601880FC3
:1051F000991F880F991FB80189509B4F96DE7894AC
:10520000BBCF87EFA82EBB24BA94B6CFAF92BF9284
:10521000CF92DF92EF92FF920F931F93CF93DF9382
:105220001F921F92CDB7DEB71A821982892B09F01F
:1052300047C06115710509F443C04115510509F4D2
:105240003FC02115310509F43BC001151105C1F11D
:105250008091F2048823B9F179016A015B01F89425
:10526000BE016F5F7F4F83EF94E06EDE789489819B
:105270009A81009759F1DC0112966D917C91A801F9
:10528000049641D68C01E981FA81D501ED93FC9316
:10529000828193810496F601918380834FDFD70149
:1052A0008D939C93C8010F900F90DF91CF911F9128
:1052B0000F91FF90EF90DF90CF90BF90AF90089547
:1052C0000FEF1FEFEFCF07EF1FEFECCF0EEF1FEF4A
:1052D000E9CFCF93DF93EC01672B71F48FD68C1756
:1052E0009D0760F082D62496C80FD91F81D68C0FF7
:1052F0009D1FDF91CF9108957ED6F1CF90E080E0A1
:10530000F8CF0F931F93CF93DF932091F2042111D5
:105310002BC08B01EC0187EF94E001DE8BEF94E072
:10532000FEDD83EF94E0FBDD97D00097C1F466D6F5
:1053300070E060E0CEDF41E552E062E070E08BD1EA
:10534000009769F4809151029091520269D6B80198
:10535000CE019ED4009719F421E02093F204DF914E
:10536000CF911F910F91089584EF9FEFF8CF43C61F
:1053700045C6CF93DF9345D6EC01892B11F40ADEA5
:1053800036DECE01DF91CF910895CF93DF9339D6EA
:10539000EC01892B09F4FEDDCE01DF91CF91089558
:1053A00080915102909152020895CF93DF938091A2
:1053B000F204D0E0C0E08823D1F037D6EC01892B8D
:1053C000B1F4E8DD14DE8091510290915202DFD1F8
:1053D000C9D2EC01892B59F487EF94E0D5DD8BEF2E
:1053E00094E0D2DD83EF94E0CFDD1092F204CE01A1
:1053F000DF91CF910895EF92FF920F931F93CF9378
:10540000DF93EC017A018B010F5F1F4F0E9DA0010E
:105410000F9D500D1E9D500D112470E060E00E9404
:10542000974290E080E0F0E0E0E02FEFE816F90628
:1054300039F4DF91CF911F910F91FF90EF90089574
:105440001A8219822883309711F0D283C183019682
:10545000FE01C00FD11FEACFAF92BF92CF92DF9271
:10546000EF92FF920F931F93CF93DF938BEB96E016
:105470007C012CEFE2228AEFC82E82E0D82E90E049
:10548000A92E93E0B92EC4EAD7E08E01D6014D9142
:105490005D916D01F501619171915F01D8011196E6
:1054A000FC92EE9215965C934E93149713965C9330
:1054B0004E93129717967C936E9316979B012F5FCE
:1054C0003F4F249FC001259F900D349F900D1124C4
:1054D00019969C938E931897E114F10411F0C7016B
:1054E0008ADFF80180859185E80EF91E065F1F4F5F
:1054F000F0E0CF16F3E0DF0649F6E1E0F5E087EBF8
:1055000091E0DF019C011D9221503040E1F71092A3
:1055100000051092FF048CEC97E01F8E1E8E1BA2DC
:105520001AA219A218A21DA21CA21FA21EA22A968C
:105530008C179D0791F71092A1071092A007109267
:10554000A3071092A20790E080E0DF91CF911F9116
:105550000F91FF90EF90DF90CF90BF90AF900895A4
:105560000097A1F1F8948132910550F48091A6073B
:105570009091A707892B39F020E090E080E019C0D6
:105580008133910550F48091B0079091B107892B38
:1055900039F021E081E090E00CC081349105A8F45D
:1055A0008091BA079091BB07892B79F022E082E0C5
:1055B00090E0EAE0E89FD001E99FB00D1124AC55DE
:1055C000B84F8D919C91009721F4789490E080E001
:1055D0000895E29FF0011124EC55F84FDC0111967B
:1055E0004D915C91518340834281538141505109D7
:1055F00053834283FC012193CF017894089500974F
:1056000049F1DC018E91873041F4E091A207F091DD
:10561000A3073097F9F0CD0119948730D8F4282FDB
:1056200030E0F8948FEF8C938AE0829FF001839FA3
:10563000F00D1124EC55F84F8081918112969C93C6
:105640008E931197B183A083828193810196938376
:10565000828378940895CF92DF92EF92FF920F9316
:105660001F93CF93DF939C0184E095E08C7F4115DD
:10567000510509F489C02115310509F485C061156A
:10568000710509F481C08A01AB01B9016D5F7F4FDB
:105690006C7F9B012F5F3F4F249F7001259FF00C73
:1056A000349FF00C1124F894E4EAF7E023E030E0B2
:1056B000E901A6A1B7A1C68CD78CCD2809F058C0A6
:1056C000109709F03EC0C090FF04D090000524EB75
:1056D00031E02C193D092E153F0530F47894CFEFB9
:1056E000DFEF86EF9FEF21C02AE02C9FF0012D9F76
:1056F000F00D1124EC55F84F91838083558344833A
:105700005383428377836683F186E086009709F0AE
:1057100072DEEC0CFD1CF0920005E092FF04789420
:10572000CF3FDC07F1F290E080E0F801D183C08345
:10573000DF91CF911F910F91FF90EF90DF90CF906D
:105740000895AE15BF05A0F02AE02C9FF0012D9F13
:10575000F00D1124EC55F84F9183808355834483D9
:1057600053834283778366830097C9F244DED7CFA1
:105770008A0F9B1F2F5F3F4F3A962730310509F064
:1057800097CFCFEFDFEFCBCF8FEF9FEFD1CF9C0144
:105790000397049708F052C0F89486E09AE0482FE7
:1057A00050E024173507BCF191E08AE0829FF001B8
:1057B000839FF00D1124EC55F84F11821082158251
:1057C00014821382128217821682992301F180912A
:1057D000FF0490910005E4EAF7E024AD35AD232BFA
:1057E00069F4DF01AC5BBF4F2D913C9111972115FE
:1057F000310521F0821B930B1D921C923A9727E0F2
:10580000EC37F20751F7909300058093FF047894EA
:1058100090E080E00895949FF001959FF00D112491
:10582000EC55F84F40815181452B31F4408551852D
:10583000452B11F48150B3CF90E0B7CF8FEF9FEF9E
:1058400008954115510549F1009739F16115710528
:1058500021F1F8942091A0073091A107232BB9F4EE
:105860002091A2073091A307232B89F49093A107DD
:105870008093A0077093A3076093A207789427E012
:1058800030E090E080E0FA0131832083089578943D
:105890002FEF3FEF86EF9FEFF6CF8FEF9FEF08954B
:1058A000079769F4F8941092A1071092A00710923C
:1058B000A3071092A207789490E080E008958FEFFC
:1058C0009FEF08956115710519F4F0E0E0E011C053
:1058D0008730910581F4E091A007F091A1073097FE
:1058E000A1F3CB0101961995009779F3FC0187E0AC
:1058F0008193CF0108959C01235031092430310553
:1059000020F72AE0289FD001299FB00D1124AC5523
:10591000B84F2D913C911197232BB9F216962D91EA
:105920003C9117972617370780F2F89412962D911D
:105930003C9113972115310529F0ED91FC911197B8
:10594000309711F47894C1CF4181528111965C93C4
:105950004E932150310913963C932E9312978193C5
:105960007894C7CFE8EBF6E088EEDF011D928A95C8
:10597000E9F7E1E0F5E087EB91E0DF019C011D92A2
:1059800021503040E1F7109200051092FF04E4EA44
:10599000F7E086E4DF011D928A95E9F7E0EAF7E097
:1059A00084E0DF011D928A95E9F790E080E0089598
:1059B000CF93DF93C0915302D0915402CF3FDC07C5
:1059C00059F4E0D3909354028093530297FF09C097
:1059D000D0935402C093530284EF9FEFDF91CF9195
:1059E000089590E080E0FACF8230910528F480930A
:1059F000EA0790E080E008958FEF9FEF08954F92BF
:105A00005F926F927F92AF92BF92CF92DF92EF92AE
:105A1000FF920F931F93CF93DF931F921F92CDB7E7
:105A2000DEB71A821982009709F479C061157105F1
:105A300009F475C0209153023091540207EF1FEF13
:105A40002F3F3F4F09F445C06B015C01412C512CA5
:105A50003201F12CE12C10E000E09E012F5F3F4F5E
:105A6000A6014E195F09B5016E0D7F1D809153028D
:105A700090915402EBD3892B09F04BC089819A8114
:105A8000009741F4E114F10429F42091EA0722235C
:105A900009F442C0E80EF91EEC14FD04D0F480E8CD
:105AA000481684E858068EE16806710420F560E027
:105AB00070E0CB010E94543C2AE0420E511C611C54
:105AC000711C0A3F4FEF140721F0043F8FEF1807B6
:105AD000A1F4C8010F900F90DF91CF911F910F910A
