:1000000005C100000C94682E0C94932E0C94BE2E07
:100010000C94E92E0C94142F0C943F2F0C946A2FFF
:100020000C94952F24C1000022C1000020C10000C3
:100030001EC100001CC100001AC1000018C1000050
:1000400016C1000014C1000012C1000010C1000060
:100050000EC100000CC100000AC100000C94C02FAA
:1000600006C100000C94BC330C94F23300C10000B4
:10007000FEC00000FCC00000FAC00000F8C0000094
:10008000F6C00000F4C00000F2C00000F0C00000A4
:100090000C9448340C947E34EAC00000E8C00000A0
:1000A000E6C00000E4C00000E2C00000E0C00000C4
:1000B000DEC00000DCC00000DAC00000D8C00000D4
:1000C000D6C00000D4C000000C94552A0C94D4343F
:1000D0000C940A35CCC000000C9460350C94963515
:1000E000C6C0000000000A0B02090C0D0E08070331
:1000F00004010000000000000000000000000000FB
:1001000000000000000000000000000000000000EF
:1001100012111000000000000000000000000000AC
:100120000000000000000000000001021020200874
:100130000810204010204080020102010804020142
:1001400001020408102040808040201008040201B1
:10015000800402018040201008040201080402010A
:100160000102040810204080010204081020408091
:1001700005050505070508080808020202020A0A23
:100180000808040404040101010101010101030341
:10019000030303030303040707070C0C0C0C0C0CEC
:1001A0000C0C0202020206060606060606060B0BE9
:1001B0000B0B0B0B0B0B000020002300260029006B
:1001C0002C002F003200000100000301060109018C
:1001D00000002200250028002B002E0031003400F2
:1001E00002010000050108010B01000021002400AC
:1001F00027002A002D003000330001010000040117
:1002000007010A011B34A7343335BF3511241FBE43
:10021000CFEFD1E2DEBFCDBF00E00CBF12E0A0E027
:10022000B2E0EEEDFCE600E00BBF02C007900D92DD
:10023000A63FB107D9F729E0A6EFB2E001C01D92B1
:10024000A937B207E1F711E0C6E0D1E000E006C04F
:1002500021970109802FFE010E943C36C230D10750
:1002600080E00807A9F70E94422B0C946D36C8CE97
:10027000611102C00C9401326130E1F362E0FACF07
:10028000662319F061E00C943D3260E0FCCFCF931F
:10029000DF93EC0170E060E06C177D070CF5072E32
:1002A000000C880B990B0E94D62C20E030E0A901AD
:1002B0000E94D32B20E030E0A9010E94D32B20E044
:1002C00030E040E450E40E94D32B20E030E040E4F2
:1002D00050E40E94D22B0E94A32C6F5F7F4FDCCF93
:1002E000DF91CF9108950F931F93CF93DF93EC018C
:1002F0008C810E946A328C018C859D85C8DF88853F
:100300000E946A32488159816A817B81019781F418
:100310000130110579F44F5F5F4F6F4F7F4F488376
:1003200059836A837B83DF91CF911F910F91089549
:10033000012B89F34150510961097109F0CF87EF11
:1003400092E0D1CF87E093E0CECF87E193E0CBCFAF
:1003500087E293E0C8CF0F931F93CF93DF93EC0115
:1003600088850E946A328C018C859D8590DF8C8106
:100370000E946A32488159816A817B81019779F4B0
:10038000012B81F44F5F5F4F6F4F7F4F488359833D
:100390006A837B83DF91CF911F910F910895013084
:1003A000110581F34150510961097109EFCF87EFC0
:1003B00092E0D1CF87E093E0CECF87E193E0CBCF3F
:1003C00087E293E0C8CF0F931F93CF93DF93D82F8B
:1003D000C62F8A01E091F60280E1E89FF001112426
:1003E000E950FD4F8D2F90E0B0E0A0E0848395832D
:1003F000A683B783862F90E0B0E0A0E08087918746
:10040000A287B387108211821282138281E090E06A
:10041000A0E0B0E084879587A687B78760E08D2F3E
:100420000E94013260E08C2F0E9401328091F6021E
:10043000813009F43FC0A8F0823009F462C08330F3
:1004400009F486C08091F60291E0980F9093F6022D
:10045000F801808390E080E0DF91CF911F910F91B0
:10046000089580E0D23049F081E0D33031F08EEE53
:100470008D0F8430D8F487E18D1B41E050E067EDAB
:1004800071E00E94EE2D80E0C23049F081E0C3307F
:1004900031F08EEE8C0F843058F487E18C1B41E0F4
:1004A00050E06FE971E00E94EE2DCCCF8FEFE5CFE9
:1004B0008FEFF5CF80E0D23049F081E0D33031F0DA
:1004C0008EEE8D0F8430C8F487E18D1B41E050E043
:1004D0006AED71E00E94EE2D80E0C23049F081E0CB
:1004E000C33031F08EEE8C0F843048F487E18C1BE2
:1004F00041E050E062EA71E0D6CF8FEFE7CF8FEFB7
:10050000F7CF80E0D23049F081E0D33031F08EEE89
:100510008D0F8430C8F487E18D1B41E050E06DED14
:1005200071E00E94EE2D80E0C23049F081E0C330DE
:1005300031F08EEE8C0F843048F487E18C1B41E063
:1005400050E065EA71E0AFCF8FEFE7CF8FEFF7CFE5
:1005500080E0D23049F081E0D33031F08EEE8D0F63
:100560008430C8F487E18D1B41E050E060EE71E01B
:100570000E94EE2D80E0C23049F081E0C33031F0BE
:100580008EEE8C0F843048F487E18C1B41E050E004
:1005900068EA71E088CF8FEFE7CF8FEFF7CF90E178
:1005A000899FF0011124E950FD4F80819181A28142
:1005B000B381FB0180839183A283B38390E080E0C9
:1005C000089590E1899FF0011124E950FD4F1082B8
:1005D00011821282138290E080E0089590E080E022
:1005E0000895CF92DF92EF92FF92CF93882351F13B
:1005F0006A017B01CFEFC80F20E030E0A901CB01F9
:10060000B6010E94372C87FF11C0C701B601905870
:100610000E94A82C9B01AC016C2F70E090E080E060
:10062000CF91FF90EF90DF90CF90B2C0C701B6019D
:100630000E94A32C8C2FCF91FF90EF90DF90CF9052
:100640000C94C730CF91FF90EF90DF90CF9008953A
:100650000F931F938B019C0183E036952795179587
:1006600007958A95D1F7095C1C4F462F477021E00A
:1006700030E0F90102C0EE0FFF1F4A95E2F7AF012B
:10068000F80120812423CB010196211102C090E0C2
:1006900080E01F910F9108950F931F938B019C0190
:1006A00083E036952795179507958A95D1F767705A
:1006B00081E090E001C0880F6A95EAF7F801E95CF3
:1006C000FC4F2081452B31F48095822380831F913C
:1006D0000F910895822BFACF2F923F924F925F9203
:1006E0006F927F928F929F92AF92BF92CF92DF9242
:1006F000EF92FF920F931F93CF93DF93D62EC72EC7
:10070000782E692E49015A01280161E08D2D0E9441
:100710000132CD2DDC2D8E010F5F1F4FA8016D2DF5
:100720007C2D872D962DB8DF20E030E0A901C20195
:10073000B7010E94862D181664F4C201B7010E9409
:10074000A82C2B01C501B4010E94A82CA201CE0146
:1007500023D0C801DF91CF911F910F91FF90EF90AF
:10076000DF90CF90BF90AF909F908F907F906F90D1
:100770005F904F903F902F900895882341F08150D3
:10078000682F70E090E080E050E040E085CF089571
:10079000862FB9010C94C7309C01FC01EC51FF4F2E
:1007A000E491E150E231E0F4F0E08827E552FC4FBB
:1007B0008F4F0C943C36ED03F403F7030E0423042F
:1007C000F0033804440448045F0474048904A0045A
:1007D000B504F003CA04E104F60484B5806884BD5E
:1007E00060E0822F0C943D3284B58062F8CF809116
:1007F00080008C7F82608093800080918100807E69
:100800008061682B6093810050938700409386003D
:1008100080918000806880938000E2CF809180008A
:100820008C7F82608093800080918100807E8061D7
:10083000682B6093810050938700409386008091DD
:1008400080008062E8CF809180008C7F82608093FE
:10085000800080918100807E8061682B60938100A0
:100860005093870040938600809180008860D3CFAA
:100870008091B00080688093B0008091B100887F43
:10088000682B6093B100ACCF8091B0008062F3CF51
:10089000809190008C7F8260809390008091910085
:1008A000807E8061682B6093910050939700409305
:1008B00096008091900080688093900091CF809105
:1008C00090008C7F82608093900080919100807E68
:1008D0008061682B6093910050939700409396003D
:1008E000809190008062E8CF809190008C7F826040
:1008F0008093900080919100807E8061682B60934E
:1009000091005093970040939600809190008860EA
:10091000D3CF8091A0008C7F82608093A0008091D3
:10092000A100807E8061682B6093A1005093A70096
:100930004093A6008091A00080688093A00050CFD3
:100940008091A0008C7F82608093A0008091A100A4
:10095000807E8061682B6093A1005093A700409334
:10096000A6008091A0008062E8CF8091A0008C7FDB
:1009700082608093A0008091A100807E8061682BBE
:100980006093A1005093A7004093A6008091A0001F
:100990008860D3CF809120018C7F8260809320017A
:1009A00080912101807E8061682B609321015093AA
:1009B00027014093260180912001806880932001C7
:1009C0000FCF809120018C7F8260809320018091E5
:1009D0002101807E8061682B609321015093270163
:1009E00040932601809120018062E8CF8091200110
:1009F0008C7F82608093200180912101807E8061C4
:100A0000682B609321015093270140932601809128
:100A100020018860D3CF90E080E008950F931F936A
:100A2000009709F489C06115710509F485C000912A
:100A300024021091250220912602309127020E3FB8
:100A40001F4F2F4F3F4F09F068C04FEF5FEFBA01C4
:100A5000409324025093250260932602709327024C
:100A60004091240250912502609126027091270244
:100A7000DC011296ED91FC9180819181A281B3817C
:100A80008093570490935804A0935904B0935A0448
:100A900084819581A681B7818093530490935404F7
:100AA000A0935504B093560480859185A285B385A3
:100AB00080934F0490935004A0935104B093520438
:100AC00084859585A685B78580934B0490934C04C7
:100AD000A0934D04B0934E04109247041092480422
:100AE0001092490410924A040E949E0E83EC9EE0EC
:100AF0009093410380934003909343038093420378
:100B00000E948D0D009731F421E030E030935C04B9
:100B100020935B041F910F9108950091240210917E
:100B200025022091260230912702DB010D931D93AF
:100B30002D933C93139794CF8FEF9FEFEBCF8F9232
:100B40009F92AF92BF92CF92DF92EF92FF921F934C
:100B5000CF93DF934B015C0110915E0482E090E043
:100B600090935C0480935B0481149104A104B1040C
:100B700041F480915E04811104C080915D04C1E064
:100B80008111C0E0C12CD12C760180915E048111CD
:100B900006C080915D04811102C0CC23D9F083E0AE
:100BA00090E090935C0480935B04CC2379F1CCE9D2
:100BB000DFEF111102C00E942812CE01DF91CF9108
:100BC0001F91FF90EF90DF90CF90BF90AF909F90DC
:100BD0008F9008956AE070E080E090E00E942F30EE
:100BE00080E1C80E87E2D81EE11CF11C8FEF881649
:100BF0009806A806B80631F0C1E08C149D04AE0436
:100C0000BF0408F0C0E080E0BCD7BFCFD0E0C0E0B8
:100C1000D0CFCF92DF92EF92FF920F931F93CF939B
:100C2000DF938F3F910511F008F050C020915B04D5
:100C300030915C042330310539F020915B04309110
:100C40005C042130310531F424E030E030935C0461
:100C500020935B046A017B01EC0182309105A0F0D6
:100C600011E0AE01C701B60157D7AB01BC01CE01FF
:100C70001123F9F0DF91CF911F910F91FF90EF9029
:100C8000DF90CF900C9451148C01000F111F005C69
:100C90001C4FD8018D919C91892B11F30E945B14FC
:100CA0000297F1F6D801ED91FC91CE011995182F1C
:100CB000D8CF0E94731490E080E0DF91CF911F9114
:100CC0000F91FF90EF90DF90CF9008958FEF9FEFFF
:100CD000F4CF80E056C7CF93DF9386E090E0909307
:100CE0005C0480935B04A6D7EC01E0E4F3E084E0CD
:100CF000DF011D928A95E9F70E94C01110925C04F1
:100D000010925B04CE01DF91CF91089580915D0434
:100D100008958091460408956093240270932502FB
:100D2000809326029093270290E080E00895E0915E
:100D3000E803F091E90380910F0990911009A091C7
:100D40001109B091120980839183A283B38308951E
:100D50002F923F924F925F926F927F928F929F92CB
:100D6000AF92BF92CF92DF92EF92FF920F931F93B9
:100D7000CF93DF93CDB7DEB761970FB6F894DEBFA0
:100D80000FBECDBF80911D0490911E04813091054E
:100D900009F0F6C060910D0470910E0480910F046B
:100DA000909110046F5F7F4F8F4F9F4F0E94D42C04
:100DB00020911104309112044091130450911404B5
:100DC0000E948A2D60936C0370936D0380936E0371
:100DD00090936F03C0901002D0901102E090120225
:100DE000F0901302A701960160911A0970911B09F6
:100DF00080911C0990911D090E94372C882341F095
:100E0000C0921A09D0921B09E0921C09F0921D09A8
:100E100080911909811110921909BE016F5F7F4FEE
:100E200080911E09BCDB69817A818B819C810E9443
:100E3000D62C209114023091150240911602509147
:100E400017020E948A2D20911802309119024091B8
:100E50001A0250911B020E948A2D1B012C01209224
:100E600003093092040940920509509206098091C5
:100E70001D0490911E04998B888BE0912004F091C1
:100E80002104C080D180E280F380609037097090A7
:100E900038098090390990903A09A7019601B30169
:100EA000C4010E94862D87FD82C0A7019601609132
:100EB0003F097091400980914109909142090E9437
:100EC000862D87FD74C010920709109208091092B0
:100ED000090910920A0940901C0250901D0260906E
:100EE0001E0270901F02209107093091080940915D
:100EF000090950910A09C301B2010E94D22B6C87E3
:100F00007D878E879F87909147099D83A09148098F
:100F1000A987B0914909BA87E0914A09EB872090E7
:100F20004F09309050090091510910915209A701C1
:100F30009601692F7A2F8B2F9E2F0E94862D91016B
:100F4000A80187FD80C0C701B6010E94372C812C03
:100F5000912C540118160CF0A7C09101A8016D81C5
:100F600079858A859B850E94372C87FD74C0809087
:100F7000530990905409A0905509B090560980C02B
:100F8000892B09F027CFE0919C03F0919D030190FC
:100F9000F081E02D80819181A281B381E0912004D4
:100FA000F091210480839183A283B38313CFA09017
:100FB0003F09B09040090091410910914209950103
:100FC000A801B301C4010E94372CA701960187FF35
:100FD0002BC0B501C8010E94372C87FD2BC0209182
:100FE0003B0930913C0940913D0950913E09530124
:100FF0008401C201B1010E94D22B2B013C01950159
:10100000A801C701B6010E94D22B9B01AC01C3010C
:10101000B2010E943B2C60930709709308098093EA
:10102000090990930A0957CFB301C4010E94862D84
:1010300087FDD5CF2091430930914409409145095E
:1010400050914609D6CF6D8179858A859B850E940E
:10105000372C87FF09C09101A801C701B6010E9482
:10106000862D18160CF483CF80904B0990904C0974
:10107000A0904D09B0904E092D8039840A851B85BA
:101080009101A801C701B6010E94D22B6B017C011E
:10109000A5019401C301B2010E94D22BA7019601C0
:1010A0000E943B2C4B015C01C0900402D0900502D1
:1010B000E0900602F0900702888999890197C1F4AF
:1010C000A7019601609100027091010280910202D5
:1010D000909103020E943B2CA30192010E948A2D51
:1010E00060930B0970930C0980930D0990930E097E
:1010F000A701960160E070E080E89FE30E943B2C2E
:10110000A50194010E948A2D20910B0930910C09B0
:1011100040910D0950910E090E94D32B20915B093B
:1011200030915C0940915D0950915E090E94D32B7A
:101130006B017C0120910C0230910D0240910E0256
:1011400050910F026C857D858E859F850E948A2D2A
:101150009B01AC01C701B6010E94D32B20E030E017
:101160004EE753E40E948A2D20E030E040E451E451
:101170000E943B2C6B017C0120E030E0A9010E9421
:10118000862D10E061E0181694F020E030E0A9010F
:10119000C701B6010E94372CE894F7F811E060E02F
:1011A00087FD05C010E060E0C12CD12C760185E000
:1011B00067D8612F87E064D864E070E080E090E059
:1011C00047DA8C01909336098093350920E030E0AE
:1011D0004FE753E4C701B6010E94372C181634F4C8
:1011E000C12CD12C8FE7E82E83E4F82EB701A6019D
:1011F000C801F7D92C853D854E855F856091080231
:101200007091090280910A0290910B020E948A2D2E
:1012100060930F097093100980931109909312093C
:1012200080911D0490911E04019709F018C18091CE
:10123000370990913809A0913909B0913A098D8305
:101240009E83AF83B887C0906709D0906809E0900B
:101250006909F0906A090091200410912104D801D5
:101260008D909D90AD90BC90A70196016D817E817F
:101270008F8198850E94372C81110AC1809237098D
:1012800090923809A0923909B0923A09EBE3F9E05B
:101290008091030990910409A0910509B091060974
:1012A00080839183A283B3838091470990914809F9
:1012B000A0914909B0914A098D839E83AF83B88775
:1012C0009C01AD01C701B6010E94372CD8018D9059
:1012D0009D90AD90BC90811101C180924709909280
:1012E0004809A0924909B0924A09EBE4F9E08091DB
:1012F0001C0290911D02A0911E02B0911F028083DA
:101300009183A283B38340910D0450910E046091A8
:101310000F047091100490E080E07BDC80911D044C
:1013200090911E04019709F09AC0409115045091C4
:101330001604609117047091180481E090E069DC54
:1013400000911D0410911E040130110509F087C0A1
:1013500080906C0390906D03A0906E03B0906F032B
:10136000E0917003F091710340805180628073803E
:10137000E091A003F091A103E080F180E09164038B
:10138000F0916503C080D180E0916203F091630326
:1013900011821082E0919A03F0919B03D182C08266
:1013A000C6DCE0919C03F0919D030190F081E02D5B
:1013B00080829182A282B382F601208131814281B2
:1013C0005381C301B2010E948A2D9B01AC01D70158
:1013D0006D917D918D919C910E94D32BF70160833B
:1013E000718382839383E0916203F091630311839D
:1013F000008380910D0490910E04A0910F04B09190
:1014000010040196A11DB11D80930D0490930E044C
:10141000A0930F04B093100480916C0390916D031E
:10142000A0916E03B0916F03E0912004F09121042C
:1014300080839183A283B3838091150490911604D5
:10144000A0911704B09118040196A11DB11D8093BD
:10145000150490931604A0931704B0931804619692
:101460000FB6F894DEBF0FBECDBFDF91CF911F91B5
:101470000F91FF90EF90DF90CF90BF90AF909F9033
:101480008F907F906F905F904F903F902F90089536
:1014900040903F0950904009609041097090420986
:1014A000A3019201C701B6010E94372C81110BC024
:1014B00080923F0990924009A0924109B09242095E
:1014C000E3E4F9E0E5CEA30192016D817E818F8195
:1014D00098850E94372C87FFEBCFD0CE40904F09E4
:1014E000509050096090510970905209A3019201E7
:1014F000C701B6010E94372C81110BC080924F09A1
:1015000090925009A0925109B0925209E3E5F9E096
:10151000EECEA30192016D817E818F8198850E941C
:10152000372C87FFEBCFD9CE8F929F92AF92BF928D
:10153000DF92EF92FF920F931F93CF93DF9384E09C
:1015400090E0B1D1ECE5F3E08DE194E09783868300
:10155000C0E2D4E0D0939D03C0939C0301E114E06A
:10156000158B048B28EE33E037AF26AF22EE33E045
:101570003093A1032093A00345E054E050939F03D0
:1015800040939E0347E054E05093A3034093A2038B
:1015900044EE53E05093A5034093A40346EE53E07A
:1015A0005093A7034093A603F093C703E093C603A9
:1015B000F583E48341E050E0DC014D935C9383EFDD
:1015C00093E04FEE53E0DC014D935C934BE559E023
:1015D000D9014D935C93918780871092DD0381E55B
:1015E00092E09387828722E234E03983288340E0C7
:1015F00050E060E87FEB4093190450931A04609325
:101600001B0470931C044AE057ED63E27CE3D801AD
:101610004D935D936D937C931397C5EFD3E08AEB65
:101620009BEEA3E6B2E288839983AA83BB838AEE0A
:1016300096E6A4E4BAEB8093F9039093FA03A0939F
:10164000FB03B093FC0382E99FECA0EEBDE980931D
:10165000FD039093FE03A093FF03B093000485E184
:1016600094ECA0E6BEE28093010490930204A09360
:101670000304B0930404A0E5B3E0B383A283E4E4DD
:10168000F3E01196FC93EE9386E592E091838083DC
:1016900093838283958384839783868391878087CE
:1016A000938782878BE094E015969C938E93149792
:1016B0001396DC93CE93129717963C932E9316971E
:1016C0008091670990916809A0916909B0916A09B0
:1016D000C3E1D9E08CA39DA3AEA3BFA38CA79DA714
:1016E000AEA7BFA78CAB9DABAEABBFAB8CAF9DAF76
:1016F000AEAFBFAFE0E0F2E080A191A1A2A1B3A1A3
:1017000080935B0990935C09A0935D09B0935E0997
:101710001B86188280899189A289B3898F839887D3
:10172000A987BA871D82812C912C540183948982C8
:101730009A82AB82BC824EE159E063E082E00E9473
:10174000E301DD24D394DD821E828B850E94E102B9
:101750001C8A8D8A9E8AAF8AB88E61E085E00E94DD
:101760003801D98E1C868D869E86AF86B88A61E048
:1017700087E00E943801D98A1C8E19A28D8E9E8E18
:10178000AF8EB8A2E12CF12C8701A801970164E08B
:1017900070E080E090E00E946C039BA38AA3D9A232
:1017A000DF91CF911F910F91FF90EF90DF90BF904D
:1017B000AF909F908F90089580911309811114C06C
:1017C00081E0809313098091140990911509A091EB
:1017D0001609B09117090197A105B10529F4809167
:1017E000180981110E94EE0280912709811103C01E
:1017F00081E08093270980911F09811103C081E056
:1018000080931F0980912F0981112EC081E0809360
:101810002F098091300990913109A0913209B0913E
:1018200033090197A105B105F9F4809134098823A2
:10183000D9F064E070E080E090E00E94280390938B
:1018400036098093350940E050E0BA010E94F10268
:1018500064E070E080E090E00E94280390933609F5
:10186000809335090C94BD03089560E070E080E832
:101870009FE7089560E070E080E89FE7089560E0EA
:1018800070E080E89FEF089560E070E080E89FEFEF
:10189000089560E070E080EC9FEF089560E070E0F4
:1018A00080EC9FEF0895F5DF60936B0970936C09EE
:1018B00080936D0990936E09F1DF60935F097093D7
:1018C00060098093610990936209CFDF6093670993
:1018D000709368098093690990936A09CBDF6093DC
:1018E0006309709364098093650990936609C7DF63
:1018F00060936F09709370098093710990937209D6
:10190000C3DF609373097093740980937509909392
:10191000760908954F925F926F927F928F929F9275
:10192000AF92BF92CF92DF92EF92FF920F931F93ED
:10193000F8944090360450903704609038047090CA
:101940003904C0902A04D0902B04E0902C04F0902D
:101950002D044130510509F0A4C09B01AC012419AC
:1019600035094609570929013A01009132041091BD
:101970003304209134043091350448015901840C1A
:10198000951CA61CB71C80169106A206B306A0F4EF
:1019900000912E0410912F042091300430913104D5
:1019A0000F5F1F4F2F4F3F4F00932E0410932F04B4
:1019B00020933004309331048092320490923304A7
:1019C000A0923404B092350400912E0410912F049B
:1019D000209130043091310480923A0490923B047B
:1019E000A0923C04B0923D0400933E0410933F0447
:1019F000209340043093410460933604709337047D
:101A00008093380490933904A0E1B7E2A3019201D6
:101A10000E9444366C0D7D1D8E1D9F1D60932A040F
:101A200070932B0480932C0490932D040091240236
:101A30001091250220912602309127020F3F1F4F5F
:101A40002F4F3F4FF1F00091240210912502209179
:101A50002602309127020E3F1F4F2F4F3F4F89F034
:101A6000C0902402D0902502E0902602F090270238
:101A700021E08C149D04AE04BF0408F420E0209300
:101A8000460478941F910F91FF90EF90DF90CF90D4
:101A9000BF90AF909F908F907F906F905F904F908E
:101AA00008954B015C0184189508A608B708A301A6
:101AB0009201261B370B480B590B641575058605DB
:101AC0009705D0F082169306A406B50640F420E0F0
:101AD00030E0A90181149104A104B10491F4A0E1C2
:101AE000B7E20E944436A7019601261B370B480B2C
:101AF000590BCA01B901C5CF82169306A406B506D3
:101B000070F7A0E1B7E2A50194010E9444366C0D84
:101B10007D1D8E1D9F1DB5CFFDCECF93DF9300D0D1
:101B20001F92CDB7DEB71C821B821A8219821092D7
:101B30004204109243041092440410924504BE01E2
:101B40006F5F7F4FCE0103960E94232A69817A81BD
:101B50008B819C810E947B23009761F4BE016F5FA3
:101B60007F4FCE0103960E942F2A69817A818B8153
:101B70009C812FD50F900F900F900F90DF91CF91F8
:101B80000895FF920F931F93CF93DF93082F60E088
:101B900070E0CB010E942F30FF24F3940E94642256
:101BA000EC01892B89F010E0CE3F8FEFD80769F068
:101BB000002361F160E070E0CB010E942F3081E0F2
:101BC00090E0892B59F322C011E026D5EC01892B36
:101BD00021F0CE3F8FEFD80759F711111EC011E049
:101BE000229609F410E00E941422EC01892B21F0C6
:101BF000CE3F8FEFD807E1F6111111C011E0CE3FB3
:101C00008FEFD80709F410E001110BC0CE01DF916E
:101C1000CF911F910F91FF90089511E0E4CF11E053
:101C2000F3CF60E070E0CB010E942F301F25812FA1
:101C300090E0C7CFCF93DF9380914604882321F0B3
:101C400060E070E0CB014DD636D6D0E0C0E0892B05
:101C500071F06AE070E080E090E00E942F3081E057
:101C600090DF29D62196C03D27E0D20781F728D6FC
:101C70000E94CF2310925E0410925D0410925704CC
:101C8000109258041092590410925A04109253045E
:101C900010925404109255041092560410924F045E
:101CA00010925004109251041092520410924B045E
:101CB00010924C0410924D0410924E04109247045E
:101CC000109248041092490410924A044EEF5FEFBC
:101CD0006FEF7FEF4093240250932502609326021A
:101CE0007093270210924604EAE3F4E028E0DF0153
:101CF0001D922A95E9F7109236041092370410923B
:101D00003804109239041092320410923304109265
:101D100034041092350410922E0410922F04109265
:101D200030041092310410922A0410922B04109265
:101D30002C0410922D04DF91CF91089510926A0423
:101D400010926B0410926C0410926D04109269044E
:101D50008091720490917304909368048093670457
:101D6000109266041092650410926104109262044D
:101D7000109263041092640410926F0410926E0427
:101D800090E080E00895CF92DF92EF92FF920F9360
:101D90001F93CF938C01019709F055C020917204D5
:101DA00030917304809167049091680440917204AB
:101DB00050917304509368044093670428173907BF
:101DC00081F01092660410926504109261041092E2
:101DD0006204109263041092640410926F041092D3
:101DE0006E048091720490917304019761F5809163
:101DF0006E0490916F04892B21F480912802811147
:101E000012C080916E0490916F040197E1F480916B
:101E1000610490916204A0916304B09164040197FD
:101E2000A105B10581F41092610410926204109230
:101E30006304109264041092280282E090E0909370
:101E40006F0480936E0480917204909173040197E3
:101E500009F01CC180918804909189048017910732
:101E600009F014C18091840490918504A0918604A6
:101E7000B0918704009709F409C1209183042111CE
:101E80000DC0409184045091850460918604709146
:101E90008704452B462B472B09F4F8C020916E048C
:101EA00030916F042230310509F0F0C020916504B3
:101EB0002111ECC0FC01C080D180E280F3808091D0
:101EC0006904882309F4D3C0809175049091760445
:101ED000892B09F4FEC0209175043091760481E0CD
:101EE0002230310509F080E02091750430917604AC
:101EF000C1E02130310549F020917504309176041C
:101F0000C1E02230310509F0C0E0882309F456C051
:101F100020917F043091800440918104509182048B
:101F2000C701B6010E94862D87FD14C020917F0451
:101F300030918004409181045091820460916A0440
:101F400070916B0480916C0490916D040E94372C09
:101F500087FD22C020917F0430918004409181044C
:101F600050918204C701B6010E94862D181634F5DF
:101F700020917F043091800440918104509182042B
:101F800060916A0470916B0480916C0490916D046F
:101F90000E94372C811112C08091770490917804AF
:101FA000A0917904B0917A04892B8A2B8B2B19F498
:101FB00081E08093660481E080936504CC2309F47A
:101FC00056C020917F04309180044091810450914B
:101FD0008204C701B6010E94372C87FF14C02091EC
:101FE0007F0430918004409181045091820460917B
:101FF0006A0470916B0480916C0490916D040E944E
:10200000862D87FF22C020917F043091800440916B
:10201000810450918204C701B6010E94372C8111BE
:1020200026C020917F04309180044091810450911A
:10203000820460916A0470916B0480916C049091A9
:102040006D040E94862D181694F480917704909167
:102050007804A0917904B0917A04892B8A2B8B2B78
:1020600019F481E08093660481E08093650481E047
:1020700090916504911180E080936904C0926A0494
:10208000D0926B04E0926C04F0926D040130110563
:1020900009F067C180916E0490916F04892BD9F487
:1020A000109274041092650480912802882379F0BC
:1020B00082E090E090936F0480936E041092280267
:1020C000209172043091730481E0232BE9F080E0C9
:1020D0001BC081E009CF10922802809174048823EC
:1020E00049F01092660410926F0410926E041092E0
:1020F0007404EDCF8091720490917304892BE1F008
:10210000809165041092650420916E0430916F04F3
:102110002230310509F45EC088F42115310509F437
:1021200048C02130310509F4F3C0109266041092C2
:1021300065041092740438C081E0E6CF2330310585
:1021400009F4B1C02430310581F740916104509108
:102150006204609163047091640441155105610546
:10216000710561F0415051096109710940936104A1
:10217000509362046093630470936404409161041B
:10218000509162046091630470916404452B462B66
:10219000472BD9F42091700430917104213031051E
:1021A00009F046C01092660410926F0410926E04FB
:1021B0000CC080912802882341F082E090E0909347
:1021C0006F0480936E041092280210925F04809135
:1021D0006604CEC08823C9F3809177049091780477
:1021E000A0917904B0917A04181619061A061B06F4
:1021F0000CF07DC08091720490917304019709F0F6
:1022000076C08091770490917804A0917904B09180
:102210007A048093610490936204A0936304B09362
:10222000640483E090E090936F0480936E04CDCFBC
:1022300040917B0450917C0460917D0470917E04F8
:10224000452B462B472BA9F01092660480917B0406
:1022500090917C04A0917D04B0917E0480936104F0
:1022600090936204A0936304B093640481E090E0CF
:10227000DACF882399F08091290290912A02A091C7
:102280002B02B0912C028093610490936204A0937E
:102290006304B093640484E090E0C5CF10926604B8
:1022A00082E090E0C0CF8091610490916204A0919F
:1022B0006304B09164040097A105B10559F001973A
:1022C000A109B1098093610490936204A09363040F
:1022D000B09364048091610490916204A0916304BE
:1022E000B0916404892B8A2B8B2B09F06ECF8091DF
:1022F000290290912A02A0912B02B0912C02892BE5
:102300008A2B8B2B09F44ECF81E080936604B3CFE8
:10231000409161045091620460916304709164047F
:10232000411551056105710561F04150510961097F
:102330007109409361045093620460936304709345
:10234000640440916104509162046091630470914F
:102350006404452B462B472B09F037CF8111C7CF9B
:102360009FCF80915F04882309F431CF809160046E
:10237000CF911F910F91FF90EF90DF90CF90089534
:1023800010926A0410926B0410926C0410926D0407
:102390001092690410926F0410926E0410926804F7
:1023A00010926704109289041092880410926604B7
:1023B00010926504109261041092620410926304FA
:1023C000109264041092600410925F0410928404CE
:1023D0001092850410928604109287041092830450
:1023E00010927F0410928004109281041092820453
:1023F00088EE93E0A0E0B0E08093290290932A0257
:10240000A0932B02B0932C0210927B0410927C04B8
:1024100010927D0410927E0410927704109278043A
:102420001092790410927A04109276041092750436
:1024300081E0809328021092740410927304109229
:102440007204109271041092700490E080E008957C
:102450008091720490917304892B19F58091280260
:10246000882351F080917404811106C081E080932B
:10247000600480935F0408952091740430912802D1
:1024800081E090E0332311F090E080E030E082239F
:102490009323892B21F01092600481E0EACF1092FF
:1024A0005F04089582E090E0FA01918380838FEFCA
:1024B0009FEF0895CF93DF93EA01009711F00E94F8
:1024C000F8241982188290E080E0DF91CF9108957E
:1024D000DB01009719F48FEF8C9308952EEF2C9366
:1024E000FC013F96EF30F10508F034C08827E4582E
:1024F000FD4E8F4F0C943C36A812A612A412A212C5
:10250000A0129C129E129A129812961293128F1277
:102510008B129112AA1280E311968C93089589E28E
:10252000FBCF82E2F9CF11961C92089583E2F4CF9B
:1025300081E2F2CF81E1F0CF87E2EECF8AE2ECCF09
:1025400080E1EACF84E2E8CF88E2E6CF86E2E4CF1A
:1025500081E3E2CF80E2E0CF8091960490919704EE
:10256000089590939704809396040895809195041C
:10257000089590919504892B809395040895982F40
:102580009095809195048923809395040895809176
:102590009404089580919204909193040895611594
:1025A000710559F0FB0130E020E070E060E0241795
:1025B000350719F06115710511F0CB010895A0815F
:1025C000B181A817B90709F4BF012F5F3F4F3696B5
:1025D000EECF8091980481111CC060D266D2909396
:1025E0008B0480938A040E94FC1C0E940E1D909311
:1025F0008F0480938E040E947C210E9483219093FB
:102600008D0480938C0481E08093980490E080E0B6
:10261000089584EF9FEF08958F929F92AF92BF929B
:10262000CF92DF92EF92FF920F931F93CF93DF939E
:1026300000D000D000D01F92CDB7DEB71A86198621
:1026400018861F821E821D821C821B821A8219829A
:102650008091980407EF1FEF882309F49CC08E0136
:102660000D5F1F4F9E012B5F3F4FAE01495F5F4FD4
:10267000BE01675F7F4F90E080E00E9400238C01E5
:10268000009721F00596029708F0DBC029853A856E
:102690002115310509F402C1ED80FE804B815C817A
:1026A000B701640F751F8F8198858617970708F407
:1026B000F5C0E20EF31ED7019C91903C09F07FC05B
:1026C0004230510508F47BC011968C9140919604DC
:1026D00050919704452B09F49CC0913F08F071C0BC
:1026E0002CE1290F2D3008F48BC02DE2290F203169
:1026F00008F489C0903C21F48150823008F483C0F2
:1027000088E3890F8B3008F481C098E6C92E92E1E6
:10271000D92EE2E5F2E16D817E81AE014F5F5F4F20
:1027200089859A8519955C01C114D104A1F189802C
:102730009A808114910479F18B819C818815990587
:1027400008F487C010E000E04B815C8170E060E03D
:10275000C7010E94663601151105E9F449815A81C5
:1027600069857A858D819E81680F791FC501F60183
:102770001995E980FA800D811E812F813885498560
:102780005A856FEF7FEF81E090E00E949B228C01E1
:10279000892B09F056C0C8012A960FB6F894DEBFFF
:1027A0000FBECDBFDF91CF911F910F91FF90EF90A2
:1027B000DF90CF90BF90AF909F908F90089580E072
:1027C00085CF30E020E0220F331FF901E657FB4FA1
:1027D0000190F081E02D309709F497CF892F90E098
:1027E0001995009709F491CFDC011296ED91FC91B7
:1027F00013971496CD90DC90309709F08CCF1FC0C2
:1028000021E030E0E0CF22E030E0DDCF23E030E037
:10281000DACFD12CC12CEAE5F2E19F3F09F07BCF62
:10282000E0918A04F0918B04309721F4C90104EF00
:102830001FEF0CC08FEF90E019950097A9F604EFF9
:102840001FEF89859A85009709F4A5CF0E94F82487
:10285000A2CF0E94CA238C0189859A850E94F82400
:1028600070E060E0C4010E94632398878F830E9418
:1028700098229E838D836F8178856115710559F04B
:10288000C8010E9457269A87898706EF1FEF892B78
:1028900009F058CF59CF08EF1FEF56CF08EF1FEFC1
:1028A000D0CF20919804222319F020E00C94131D1E
:1028B00087EF9FEF08958091960490919704089573
:1028C0000E9488210E94E220F5D0EAE8F4E088E046
:1028D000DF011D928A95E9F71092980490E080E05C
:1028E00008950C94411F21E040E050E0BA010C949F
:1028F000131D86E090E0FA019183808390E080E0F0
:10290000089547E050E069E572E049CEDF92EF922A
:10291000FF920F931F93CF93DF938A01EC01C60FB1
:10292000D71FE0909C04F0909D04D9800E94B223B0
:10293000D816190678F082E090E0F8019183808340
:102940008EEF9FEFDF91CF911F910F91FF90EF904E
:10295000DF900895EF2841F482E090E0F801918340
:10296000808384EF9FEFEECF898180939B0490E07A
:102970000196F8019183808390E080E0E3CFCF93CC
:10298000DF93EA010E94F21F882321F00E94BF23F7
:102990000E94F31F82E090E0998388838BEF9FEF82
:1029A000DF91CF910895CF93DF93EB0186E0FB0198
:1029B00011928A95E9F78FEF8883D8DD8983E7DD67
:1029C0008A83E8DD9D838C83DF91CF910895CF9337
:1029D000DF93EA010E94F51F811109C082E090E0B7
:1029E0009983888385EF9FEFDF91CF91089590E0E1
:1029F00080E0B7DD81E090E09983888390E080E01B
:102A0000F3CF0F931F93CF93DF93EA018C01060F4F
:102A1000171F0E94F51F81110BC082E090E099837F
:102A2000888385EF9FEFDF91CF911F910F910895DC
:102A3000F8018181823038F082E090E099838883C8
:102A40008EEF9FEFF0CF81E090E08BDD88E090E0AB
:102A50009983888390E080E0E6CFCF93DF9300975F
:102A6000D1F4EB01FB01329686E0DF011D928A95DD
:102A7000E9F78FEF888385E089831A820E94B22369
:102A80008B830E94B1239D838C8381E08E838F830F
:102A9000DF91CF910895DF91CF911ACD81E894E134
:102AA00090939A0480939904089580919904909149
:102AB0009A04089510929A041092990408958091AE
:102AC0009C0490919D040895411105C06115710504
:102AD0008105910561F060939C0470939D0480933F
:102AE0009E0490939F044093A00481E0089580E0A9
:102AF0000895FF920F931F93CF93DF938A01EC0108
:102B0000C60FD71FF9800E94B223F816190668F085
:102B100082E090E0F801918380838EEF9FEFDF9158
:102B2000CF911F910F91FF9008956C817D818E81CF
:102B30009F814B81C9DF811108C082E090E0F801DC
:102B40009183808384EF9FEFEACF898180939B04F8
:102B500090E00196F8019183808390E080E0DFCFE0
:102B6000CF93DF93EA01FC01E60FF71F64817581C3
:102B7000868197814381A8DF811109C082E090E0BE
:102B80009983888384EF9FEFDF91CF91089581E04F
:102B900090E09983888390E080E0F6CFECE9F4E060
:102BA0004081518162817381480F511D611D711DEA
:102BB00040835183628373830895CF93C0919B04B4
:102BC0004C2F50E060919C0470919D0401960E94EE
:102BD0005D368C2FE3DF10929B04CF910895009710
:102BE00099F480919C0490919D042FEFFB01208328
:102BF000892B59F020919B0430E02F5F3F4F241721
:102C0000350719F4CB01D9CF63CC0895009799F417
:102C100080919C0490919D042FEFFB012083892BD0
:102C200059F020919B0430E02F5F3F4F2417350768
:102C300019F4CB01C2CF4CCC089523E1AC01249F01
:102C4000C001259F900D1124E091A504F091A604E8
:102C5000E80FF91F238134812250310981E02230AD
:102C6000310508F080E008950F931F93CF93DF9311
:102C70000091A7041091A804D0E0C0E080E00C17F8
:102C80001D0749F491E0811190E0892FDF91CF91E8
:102C90001F910F9108958111F5CFCE01CEDF2196BE
:102CA000EECFA091A504B091A604109729F1209130
:102CB000A7043091A80482179307F0F453E1589FBA
:102CC0009001599F300D1124A20FB31FED91FC917B
:102CD0001197309789F012968C91681768F48BE001
:102CE000689FE00DF11D112480819181892B21F0D5
:102CF00081E09281491708F080E008959C0143E14A
:102D0000429FC001439F900D1124E091A504F091D2
:102D1000A604E80FF91F8385823099F481E090E0E2
:102D20006581768140912D0250912E0264177507BE
:102D300011F490E080E0892B21F081E02230310510
:102D400008F080E00895EF92FF920F931F93CF93C6
:102D5000DF93EA01FC01E60FF71F02811381E48093
:102D6000F5804F2D6E2DC8019CDF81110DC082E0D2
:102D700090E0998388838EEF9FEFDF91CF911F9131
:102D80000F91FF90EF900895C80157DF882339F025
:102D900082E090E09983888388EF9FEFEECF1093D5
:102DA000340200933302E0923502F092360281E061
:102DB00090E09983888390E080E0DFCFCF92DF922C
:102DC000EF92FF920F931F93CF93DF937A01EC0161
:102DD000C60FD71FC0903302D09034020091350245
:102DE00010913602412F602FC6015BDF811110C0A8
:102DF00082E090E0F701918380838AEF9FEFDF917B
:102E0000CF911F910F91FF90EF90DF90CF90089599
:102E1000C60113DF882341F082E090E0F70191833F
:102E2000808388EF9FEFEBCF4C815D816E817F8146
:102E30009A8189818F3F41F082E090E0F701918390
:102E400080838EEF9FEFDBCFE3E1EC9D9001ED9D62
:102E5000300D1124E091A504F091A604E20FF31FB8
:102E60000190F081E02D2BE0029FE00DF11D112477
:102E70000190F081E02D27E0129FE00DF11D11245B
:102E8000808391838B81828343835483658376839C
:102E90001F5F1093360281E090E0F70191838083F9
:102EA00090E080E0ACCFEF92FF920F931F93CF930F
:102EB000DF937A018C01060F171FC091A504D091F2
:102EC000A604209781F021E030E0F801828193810F
:102ED0004091A7045091A8048417950710F030E0A2
:102EE00020E0232B71F482E090E0F701918380834E
:102EF0008EEF9FEFDF91CF911F910F91FF90EF9099
:102F0000089543E1489F9001499F300D1124C20F5D
:102F1000D31F93DE882341F082E090E0F701918394
:102F2000808388EF9FEFE6CFF80124813581203838
:102F30003105C8F687818111D6CF4181842F90E079
:102F40008F7E009741F082E090E0F70191838083CB
:102F500086EF9FEFCFCF4F833E832D832681288737
:102F60001986223010F421E0288721E030E0F701B3
:102F700031832083BFCF88E090E0FA019183808382
:102F800090E080E00895FB018FEF808381E18183F1
:102F90008FEF9FEF9383828380E890E09583848313
:102FA000168217820895FB018FEF808391E0918351
:102FB00082839383848384E3858381E090E0978395
:102FC00086830895BF92CF92DF92EF92FF920F9384
:102FD0001F93CF93DF93DA01FC01E60FF71F818186
:102FE000813081F082E090E08D939C938FEF9FEF92
:102FF000DF91CF911F910F91FF90EF90DF90CF90D5
:10300000BF900895C281D381B480858106811781E4
:10301000E090A504F090A604E114F10439F482E0F4
:1030200090E08D939C938CEF9FEFE2CF2091A704CB
:103030003091A804C217D30738F082E090E08D9356
:103040009C938EEF9FEFD4CFC230D10538F082E051
:1030500090E08D939C9386EF9FEFCACF9B2D9D7F31
:10306000B1F78130A1F7B11005C00130110531F081
:1030700080E004C081E002301105D0F3882339F3E9
:103080006D01CE01DADD882341F082E090E0F601A7
:103090009183808388EF9FEFABCF83E18C9FF0011A
:1030A0008D9FF00D1124EE0DFF1DB38681E0848706
:1030B00016870587108A178681E090E0F6019183D4
:1030C000808390E080E094CF4CE050E063E872E0D1
:1030D00066CA8F929F92BF92CF92DF92EF92FF9239
:1030E0000F931F93CF93DF93EA01FC01E60FF71FC5
:1030F000828193810481B580E091A504F091A604BA
:10310000309791F482E090E0998388838CEF9FEF71
:10311000DF91CF911F910F91FF90EF90DF90CF90B3
:10312000BF909F908F9008952091A7043091A8049C
:103130008217930738F082E090E0998388838EEFBE
:103140009FEFE6CF23E1289F6001299FD00C112437
:10315000EC0DFD1DE080F180E114F10499F2828113
:10316000081748F78BE0089F80011124E00EF11E3C
:10317000F70180819181892B29F6BB20E1F2F7E0EC
:10318000BF9E40011124C4010E94AA24F70191832B
:103190008083E091A504F091A604EC0DFD1D019043
:1031A000F081E02DE00FF11F80819181009739F4CB
:1031B00082E090E0998388838DEF9FEFA9CFA401EF
:1031C00070E060E00E9466368091A5049091A604AC
:1031D000C80ED91EF60180819181080F191FF801D0
:1031E000B28281E090E09983888390E080E090CF84
:1031F000AF92BF92CF92DF92FF920F931F93CF9324
:10320000DF93EA01FC01E60FF71F82819381F480CE
:103210000091A5041091A6040115110581F482E026
:1032200090E0998388838CEF9FEFDF91CF911F917E
:103230000F91FF90DF90CF90BF90AF9008952091B5
:10324000A7043091A8048217930738F082E090E039
:10325000998388838EEF9FEFE8CF2FEF2F0D2C3FC0
:10326000A8F723E1289F6001299FD00C11240C0DA1
:103270001D1DF80180819181892B89F6FBE0FF9E5D
:1032800050011124C5010E94AA24F8019183808372
:10329000E091A504F091A604EC0DFD1D80819181C3
:1032A000009739F482E090E0998388838DEF9FEF57
:1032B000BCCFA50170E060E00E946636E091A504F5
:1032C000F091A604EC0DFD1DF28281E090E099835F
:1032D000888390E080E0A9CFCF92DF92EF92FF92B7
:1032E0000F931F93CF93DF93860F971FFC010281EB
:1032F00013818091A5049091A604892B81F082E02E
:1033000090E0FA01918380838CEF9FEFDF91CF9162
:103310001F910F91FF90EF90DF90CF900895C8011B
:10332000B0E0A0E00197A109B1098F3F9F4FA1052F
:10333000B10540F082E090E0FA01918380838EEF46
:103340009FEFE4CF7A0183E1809F6001819FD00CE1
:103350001124C6010E94AA24EC01009741F482E0E6
:1033600090E0F701918380838DEF9FEFCFCFA6018F
:1033700070E060E00E946636D093A604C093A50476
:103380001093A8040093A70490E080E02FEF3FEF94
:1033900041E061E070E08017910741F481E090E046
:1033A000F7019183808390E080E0B0CF3A8B298B46
:1033B0001B864C877E876D87188A1F8601966396C9
:1033C000EACFCF92DF92EF92FF920F931F93CF93AA
:1033D000DF93EC01D12CC12C10E000E0F12CE12CAA
:1033E0006A816017110609F0CCF483E0689FB00190
:1033F0001124AE014F5E5F4FC7010E942425009744
:1034000021F02FEF3FEF3A8B298BDF91CF911F9166
:103410000F91FF90EF90DF90CF900895E881F981B0
:10342000EC0DFD1D438154818D859E85489F900143
:10343000499F300D589F300D1124C9010196011587
:10344000110519F44F8144FD049661E070E00E947B
:103450006323E816F90608F47C010F5F1F4F8BE029
:10346000C80ED11CBDCFF8942091A3043091A404C0
:1034700081E02115310509F080E0232B09F07894D3
:1034800008952F923F924F925F926F927F928F9208
:103490009F92AF92BF92CF92DF92EF92FF920F93E3
:1034A0001F93CF93DF933C01660E771EF301828159
:1034B00093814C01B12CA12CC091A504D091A604FC
:1034C000209769F021E030E06091A7047091A80492
:1034D0008617970710F030E020E0232BD1F482E02C
:1034E00090E0FA01918380838EEF9FEFDF91CF917F
:1034F0001F910F91FF90EF90DF90CF90BF90AF9012
:103500009F908F907F906F905F904F903F902F9003
:1035100008958092370290923802A0923902B092B8
:103520003A0263E1689F9001699F300D1124C20F38
:10353000D31FF3018181833040F082E090E0FA01F3
:103540009183808386EF9FEFD1CF2A012B813C812D
:10355000232BF1F4288139819F8191FF2EC0232BE9
:1035600009F46FC02091AA049A81422F490F552770
:10357000551FBA0141E050E06138710514F050E088
:1035800040E0452B09F45DC02A87920F9093AA046E
:103590008150823008F481C066DF882309F4D8C0E6
:1035A000F3018181813009F48DC008F47BC0823041
:1035B00009F4C6C090E080E0ADC0232B09F441C0FF
:1035C0002091A9049A81E22FE90FFF27FF1F41E014
:1035D00050E0ED3FF10514F050E040E0452B89F15B
:1035E0002A87920F9093A904D3CFA081B181A20F13
:1035F000B31F11966C91060F111D0196295F3F4F65
:103600008417950794F38D859E85089F1001099F67
:10361000300C189F300C1124C114D104D1F48F81C7
:1036200084FF17C00E94B123F5E02F0E311C21E06A
:103630008215930508F420E0A701455F5F4F211133
:103640000EC082E090E0F2019183808387EF9FEFCC
:103650004DCF0E94B1232FEF221A320AE8CF888182
:103660009981E80EF91EF70114830383FFEFCF1A47
:10367000DF0A7A018A818C151D0409F00CF48CCFC5
:10368000E881F981EE0DFF1D428150E030E020E03D
:1036900010E000E090E080E0B3CFF12CE12CD12CE1
:1036A000C12CE8CF81E090E09C838B83DDDA882316
:1036B00009F480CF81E090E00E94B11280E40E9482
:1036C000BF1278CF89899A89019661F083E090E0F2
:1036D0009C838B8382E090E00E94B11280E40E9480
:1036E000B91268CF2D813E8180912D0290912E02DA
:1036F00028173907D1F46091310270913202AE017E
:103700004F5E5F4F80912F02909130020E941626EB
:103710000097E1F2789422E030E0F20131832083D7
:10372000892B99F08DEF9FEFE1CE22E08216910474
:10373000A104B1045CF6CE0144DE188A1F86E8CFEE
:1037400082E090E09C838B8335CF90E080E0CECE0A
:1037500082E090E0F2019183808385EF9FEFC6CEF7
:103760008F929F92AF92BF92CF92DF92EF92FF9291
:103770000F931F93CF93DF93EA018C01060F171F5E
:10378000F8018181833098F082E090E0998388830A
:1037900086EF9FEFDF91CF911F910F91FF90EF90F8
:1037A000DF90CF90BF90AF909F908F9008958091C1
:1037B000A5049091A604892B61F081E090E020910E
:1037C000A7043091A804232B11F490E080E0892B0A
:1037D00039F482E090E0998388838EEF9FEFDACF0F
:1037E00042DE882309F4DEC0F8018181813009F4CA
:1037F00094C0E8F0823099F42091A7043091A80495
:10380000E091A504F091A60490E080E041E050E052
:103810002817390709F0BCC027DA811117C078943E
:1038200081E090E09983888390E080E0B3CF20919D
:10383000A7043091A804E091A504F091A60490E0BB
:1038400080E041E050E02817390741F481E090E042
:103850000E94B11280E40E94BF12E1CF63817481A3
:10386000672B11F05483438301967396ECCFE0915C
:10387000A504F091A604E00FF11F238134812230CA
:103880003105D9F4218932892F3F3F4FB1F4458169
:10389000568120912D0230912E024217530761F577
:1038A000AF014F5E5F4F60913102709132028091A3
:1038B0002F02909130020E9416264FEFC41AD40AAC
:1038C000E40AF40A0D5E1F4F4091A7045091A8042A
:1038D00070E060E0C416D506E606F70634F50097FA
:1038E00031F27894892B09F49BCF82E090E09983A0
:1038F00088838DEF9FEF4ECF22E0C216D104E10402
:10390000F104DCF6CF015DDDE091A504F091A604A1
:10391000E00FF11F108A1786D0CF10E000E090E092
:1039200080E0C12CD12C7601CFCF0097D1F610E0EA
:1039300000E0812C912C540183E0E82EF12C1AC078
:10394000E091A504F091A604E00FF11F838194811A
:10395000029749F4F482E38282E090E00E94B1127F
:1039600080E40E94B9128FEF881A980AA80AB80A50
:103970000D5E1F4F8091A7049091A804B0E0A0E0D5
:1039800088169906AA06BB06DCF290E080E0A9CF73
:10399000638174816230710511F45483438301960D
:1039A000739636CF82E090E09983888385EF9FEF0E
:1039B000F1CE0097B9F48FEFFB018083209137029D
:1039C0003091380243E1429FC001439F900D112482
:1039D000E091A504F091A604E80FF91F8285FB0190
:1039E000818308950C94681288E090E0FA01918335
:1039F000808390E080E008951092A4041092A304C4
:103A0000E5EAF4E086E0DF011D928A95E9F784E6B5
:103A100098E19093A2048093A10408958091A10459
:103A20009091A20408952F923F924F925F926F92CD
:103A30007F928F929F92AF92BF92CF92DF92EF923E
:103A4000FF920F931F93CF93DF93CDB7DEB76097AD
:103A50000FB6F894DEBF0FBECDBFF894E091A3047B
:103A6000F091A4043196F093A404E093A304789415
:103A7000A091A504B091A604BA83A983109709F474
:103A8000FAC1E091A704F091A804EF2B09F4F3C167
:103A900028874B875C876D877E879A878987B88B55
:103AA000AF87312C212CF12C512C412C8091A70473
:103AB0009091A8042816390610F4FF2029F1F894F3
:103AC0008091A3049091A40401979093A4048093FF
:103AD000A3047894C20160960FB6F894DEBF0FBEBF
:103AE000CDBFDF91CF911F910F91FF90EF90DF90AD
:103AF000CF90BF90AF909F908F907F906F905F908E
:103B00004F903F902F900895B10190E080E087D4CE
:103B1000682EEF85F889878181FD3DC0838194817E
:103B20000397C9F5258136813C832B8389859A8546
:103B30002817390781F5C101E1D8782E8823A9F12A
:103B4000AF85B8891F968D919C915097019621E081
:103B50001D964D915C918417950709F020E02F8305
:103B6000B12CA12CEF85F88982818A151B0419F0EC
:103B700014F0FF20E9F0F885FF2309F46CC1AF854C
:103B8000B88950961C921E921F97662021F0B101B1
:103B900090E080E046D4FFEF2F1A3F0A2F85388946
:103BA0002D5E3F4F388B2F8781CFB1E0BF83D8CFB9
:103BB000BFD49E838D83E885EE23E9F0772009F456
:103BC0003CC1AF85B8891F968D919C91892B79F066
:103BD000BBE0BA9DC001BB9D900D1124AF85B88993
:103BE000ED91FC91E80FF91F8581968101D7BFEF18
:103BF000AB1ABB0AB7CF81E0772039F0EF85F8899F
:103C000027853089232B09F080E0F82EE12CA114C0
:103C1000B10439F4AF85B8891796EC90E4FAEE2434
:103C2000E0F8BBE0BA9D6001BB9DD00C1124882355
:103C300009F424C1AF85B889ED91FC911197EC0D81
:103C4000FD1D438154811D962D913C91429FC001E1
:103C5000439F900D529F900D1124E1105DC001967D
:103C60009087878361E070E0878190852CD5EF8510
:103C7000F88921893289008111810C0D1D1D2F3F8A
:103C8000320709F44BC0BC01C9010E945726D80174
:103C900016969C938E931597AF85B889ED91FC91FC
:103CA0001197EC0DFD1D058116810115110509F413
:103CB000CDC0ED81FE810E0F1F1F1A968C918A0DCB
:103CC000D8018C93E1102FC00F5F1F4FAF85B889CB
:103CD000ED91FC91EC0DFD1D12870187AF85B88930
:103CE000ED91FC91EC0DFD1D85819681892B09F4E8
:103CF000A4C080912D0290912E022B813C81281727
:103D0000390709F465C0772011F001851285912CDF
:103D1000812C1A8219824AC00596A2CF1BD6F801BF
:103D200096838583B9CF8B859C85AD85BE85F8014B
:103D300081839283A383B4830B5F1F4FC7CFE0803F
:103D4000F180E80CF91CD70113966D917C911497C2
:103D50008C918F3F09F473C0E1E0F0E002C0EE0FF8
:103D6000FF1F8A95E2F7CF01092E000CAA0BBB0BAF
:103D7000FB01408151816281738184239523A623B5
:103D8000B72321E0892B8A2B8B2B09F420E0D80163
:103D90002C93D70111968C91080F111DE981FA819E
:103DA0003196FA83E983F7E08F0E911CAF85B889CD
:103DB000ED91FC91EC0DFD1D828129813A818217E4
:103DC000130611F00CF0BBCF772011F0128701879A
:103DD0003F81332391F1AF85B889ED91FC91EC0DD2
:103DE000FD1D61E070E0878190856DD4AF85B88955
:103DF000ED91FC91EC0DFD1DE780F084458156812D
:103E0000E1E0F0E0662011F0F0E0E0E00D811E81DD
:103E10009C01B101882799278E1B9F0B8CD32C0105
:103E2000892B59F0EF85F88980819181C80ED91EC0
:103E3000D60115968D919C91DBD5F12CD8CEF7014A
:103E4000418150E0C8010E945D36A3CF86EF482E25
:103E500055245A94CCCEEF85F889878590890196B0
:103E6000908B8787258536858217930709F08DCE3D
:103E7000108A17868ACE512C412C21CE10E000E00A
:103E80002DCF2F923F924F925F926F927F928F929F
:103E90009F92AF92BF92CF92DF92EF92FF920F93D9
:103EA0001F93CF93DF938091A5049091A60410E017
:103EB00000E0892BA9F0D7DA0AEF1FEF882381F001
:103EC0002090A7043090A804C091A504D091A60426
:103ED000D12CC12C10E000E02C143D04A9F47894FE
:103EE000C801DF91CF911F910F91FF90EF90DF906C
:103EF000CF90BF90AF909F908F907F906F905F908A
:103F00004F903F902F900895C6010E947E168823FF
:103F100009F18B819C810397E9F48F859889892B1E
:103F2000C9F0B60190E080E07AD221E030E0882349
:103F300011F030E020E044245524421A530AB12CF9
:103F4000A12C912C812C8A818815190409F038F450
:103F5000188A1F864FEFC41AD40A6396BDCFE88132
:103F6000F981EA0DFB1D85819681892BA1F161E024
:103F700070E087819085A7D33C01DAD28C01E8817B
:103F8000F981EA0DFB1D8185928525813681200FFF
:103F9000311FAC01421B530B9A0147815085421BD4
:103FA000530B70E060E00E946636E881F981EA0D0B
:103FB000FB1DE780F084458156819301B601C20163
:103FC000BAD28C01892B39F0E881F981EA0DFB1D09
:103FD000858196810DD55FEF851A950A8BE0A80E35
:103FE000B11CB1CF40CA789408952F923F924F925E
:103FF0005F926F927F929F92AF92BF92CF92DF9229
:10400000EF92FF920F931F93CF93DF9300D000D0D6
:10401000CDB7DEB70091A5041091A604992493941E
:104020000115110509F43EC0A090A704B090A804A2
:104030001ADA982E8823B1F11092A6041092A504E2
:104040001092A8041092A7041092A9041092AA0436
:104050008FEF9FEFDC018093370290933802A0939B
:104060003902B0933A0278947ED31E830D83C12C1B
:10407000D12C7601C501B0E0A0E089839A83AB839F
:10408000BC8322242A94322C89819A81AB81BC8101
:10409000C816D906EA06FB06F4F0C801A9D480E4E4
:1040A0000E94BF12892D26960FB6F894DEBF0FBE70
:1040B000CDBFDF91CF911F910F91FF90EF90DF90D7
:1040C000CF90BF90AF909F907F906F905F904F90F8
:1040D0003F902F900895AD81BE8115962D913C9112
:1040E000169780912D0290912E0228173907D1F44E
:1040F00051968D919C91C9D5ED81FE8180819181F0
:10410000B12CA12C412C512C3201892B81F5BFEF10
:10411000CB1ADB0AEB0AFB0AED81FE817396FE8364
:10412000ED83B2CFB2E0CB16D104E104F10424F761
:10413000ED81FE81818992898F3F980709F020D512
:10414000AD81BE8152963C922E925197D5CF8A0D69
:104150009B1DDC018D919C91009709F049D4BFEF24
:104160004B1A5B0A6B0A7B0AEBE0AE0EB11CAD8109
:10417000BE818D919C91119712964C9150E070E008
:1041800060E044165506660677060CF331D4BFCFBF
:10419000CF93DF93EA0129DF811109C082E090E02B
:1041A0009983888385EF9FEFDF91CF91089581E018
:1041B00090E00E94B11281E090E09983888390E0C2
:1041C00080E0F2CF12DF1092A2041092A1040895B1
:1041D00042E050E06BEC72E00C94CF12FF920F9330
:1041E0001F93CF93DF938A01EC01C60FD71FF9808D
:1041F000B9D20897F816190671F068F082E090E0DD
:10420000F801918380838EEF9FEFDF91CF911F9113
:104210000F91FF9008956C817D818E819F814B81EC
:104220000E946415811108C082E090E0F80191833A
:10423000808384EF9FEFE9CFF9800E945F154F2DB7
:1042400050E0BE01685F7F4F0E945D3689810E9409
:10425000CE1581E090E0F8019183808390E080E0CA
:10426000D4CFDF92EF92FF920F931F93CF93DF9300
:104270008A01EC01C60FD71F0E945F157C01D9800F
:1042800071D2DD2059F0029721E030E0D8161906EE
:1042900019F010F030E020E0232B79F482E090E078
:1042A000F801918380838EEF9FEFDF91CF911F9173
:1042B0000F91FF90EF90DF900895EF2841F482E096
:1042C00090E0F8019183808384EF9FEFEECFF98037
:1042D0000E945F154F2D50E0BE016E5F7F4F0E9420
:1042E0005D3689810E94CE1581E090E0F8019183CE
:1042F000808390E080E0D9CF88EE90E29093AC0488
:104300008093AB0408958091AB049091AC04089520
:104310000895FC0111821082938382830895DB014A
:104320001D921C92DC011296ED91FC911397718302
:10433000608313967C936E9312970895FC0180819D
:104340009181DB018D939C93A081B181109741F005
:104350008D919C9191838083892B11F4F383E28367
:104360000895FC0180819181DB018D939C93892BC1
:1043700011F473836283718360830895FC01118259
:104380001082938382830895CF93DF931F921F92AD
:10439000CDB7DEB71A821982F894BE016F5F7F4FE6
:1043A00082EB94E0CBDF89819A81009709F020D3DA
:1043B00089819A81892B89F7BE016F5F7F4F86EBD8
:1043C00094E0BCDF89819A81009709F011D389813B
:1043D0009A81892B89F778940F900F90DF91CF9174
:1043E0000895CF93DF931F921F92CDB7DEB71A8245
:1043F0001982F894BE016F5F7F4F8EEA94E09EDFD2
:1044000089819A81009709F0F3D289819A81892B59
:1044100089F778940F900F90DF91CF91089581E004
:10442000089590E080E00895EF92FF920F931F931C
:10443000CF93DF931F921F92CDB7DEB71A821982F6
:104440008091AD0407EF1FEF8823A1F1F894BE011E
:104450006F5F7F4F86EB94E071DF789489819A815A
:10446000EE24E394F12C892B51F4F894BE016F5F94
:104470007F4F82EB94E062DF7894F12CE12C89810C
:104480009A810EEF1FEF0097A9F0FC014281538142
:1044900064E070E00CD68C01892B61F0F89469819E
:1044A0007A81C701880F991F880F991F8E549B4FDF
:1044B00058DF7894C8010F900F90DF91CF911F9132
:1044C0000F91FF90EF9008950F931F93CF93DF9379
:1044D00000D01F92CDB7DEB71C821B821A821982D0
:1044E0008091AD0407EF1FEF8823C1F0AE014D5F4F
:1044F0005F4F64E070E0CE0101964CD68C01892BB1
:1045000069F4E981FA818B819C8193838283F89499
:1045100069817A818EEA94E002DF7894C8010F9075
:104520000F900F900F90DF91CF911F910F910895F1
:1045300051D7049608958F929F92AF92BF92CF92D7
:10454000DF92EF92FF920F931F93CF93DF931F920F
:104550001F92CDB7DEB71A821982BC016F5F7F4F01
:104560006330710598F0AA24AA94BA2CC5010F9063
:104570000F90DF91CF911F910F91FF90EF90DF90FF
:10458000CF90BF90AF909F908F90089541155105A7
:1045900051F3480159018A016C01CADF8815990558
:1045A00011F7E114F104F9F28E0D9F1DA816B9065A
:1045B000D0F28091AD048823F1F0F894B5016450F5
:1045C00071099701AE014F5F5F4FC801049677D61E
:1045D0005C01892B71F489819A81F801938382832C
:1045E000C601880F991F880F991FB8018E549B4FE1
:1045F00096DE7894BBCF87EFA82EBB24BA94B6CFB3
:10460000AF92BF92CF92DF92EF92FF920F931F93E0
:10461000CF93DF931F921F92CDB7DEB71A82198214
:10462000892B09F047C06115710509F443C0411594
:10463000510509F43FC02115310509F43BC00115AE
:104640001105C1F18091AD048823B9F179016A01A6
:104650005B01F894BE016F5F7F4F8EEA94E06EDEDF
:10466000789489819A81009759F1DC0112966D91B5
:104670007C91A80104963CD68C01E981FA81D50190
:10468000ED93FC93828193810496F601918380835C
:104690004FDFD7018D939C93C8010F900F90DF914E
:1046A000CF911F910F91FF90EF90DF90CF90BF902F
:1046B000AF9008950FEF1FEFEFCF07EF1FEFECCF95
:1046C0000EEF1FEFE9CFCF93DF93EC01672B71F46F
:1046D0008AD68C179D0760F07DD62496C80FD91F07
:1046E0007CD68C0F9D1FDF91CF91089579D6F1CFA5
:1046F00090E080E0F8CF0F931F93CF93DF9320914A
:10470000AD0421112BC08B01EC0182EB94E001DEA2
:1047100086EB94E0FEDD8EEA94E0FBDD97D0009717
:10472000C1F461D670E060E0CEDF4BE352E062E0BE
:1047300070E08AD1009769F480913B0290913C022D
:1047400064D6B801CE0199D4009719F421E02093E2
:10475000AD04DF91CF911F910F91089584EF9FEFEA
:10476000F8CF3EC640C6CF93DF9340D6EC01892BED
:1047700011F40ADE36DECE01DF91CF910895CF939A
:10478000DF9334D6EC01892B09F4FEDDCE01DF91F5
:10479000CF91089580913B0290913C020895CF9370
:1047A000DF938091AD04D0E0C0E08823D1F032D611
:1047B000EC01892BB1F4E8DD14DE80913B0290918D
:1047C0003C02DED1C4D2EC01892B59F482EB94E097
:1047D000D5DD86EB94E0D2DD8EEA94E0CFDD109259
:1047E000AD04CE01DF91CF910895EF92FF920F9328
:1047F0001F93CF93DF93EC017A018B010F5F1F4F63
:104800000E9DA0010F9D500D1E9D500D112470E0B6
:1048100060E00E94663690E080E0F0E0E0E02FEF9C
:10482000E816F90639F4DF91CF911F910F91FF90AF
:10483000EF9008951A8219822883309711F0D2835D
:10484000C1830196FE01C00FD11FEACFAF92BF9284
:10485000CF92DF92EF92FF920F931F93CF93DF934C
:1048600087ED95E07C012CEFE22287EDC82E82E0F7
:10487000D82E9DEDA92E92E0B92ECEE3D6E08E0182
:10488000D6014D915D916D01F501619171915F01CD
:10489000D8011196FC92EE9215965C934E93149764
:1048A00013965C934E93129717967C936E9316977C
:1048B0009B012F5F3F4F249FC001259F900D349F88
:1048C000900D112419969C938E931897E114F1047E
:1048D00011F0C7018ADFF80180859185E80EF91E85
:1048E000065F1F4FFDEDCF16F2E0DF0649F6ECEB59
:1048F000F4E088E191E0DF019C011D9221503040FD
:10490000E1F71092BB041092BA048CE596E01F8E7A
:104910001E8E1BA21AA219A218A21DA21CA21FA2BF
:104920001EA22A968C179D0791F710923B061092B3
:104930003A0610923D0610923C0690E080E0DF912E
:10494000CF911F910F91FF90EF90DF90CF90BF908C
:10495000AF900895009799F1F8948131910550F442
:104960008091400690914106892B39F020E090E03B
:1049700080E018C08132910550F480914A069091F0
:104980004B06892B31F021E081E090E00BC0C1970C
:10499000A8F48091540690915506892B79F022E075
:1049A00082E090E0EAE0E89FD001E99FB00D112499
:1049B000A25CB94F8D919C91009721F4789490E07E
:1049C00080E00895E29FF0011124E25CF94FDC01E0
:1049D00011964D915C9151834083428153814150A6
:1049E000510953834283FC012193CF0178940895A8
:1049F000009749F1DC018E91863041F4E0913C064C
:104A0000F0913D063097F9F0CD0119948630D8F435
:104A1000282F30E0F8948FEF8C938AE0829FF0018A
:104A2000839FF00D1124E25CF94F808191811296F1
:104A30009C938E931197B183A08382819381019679
:104A40009383828378940895CF92DF92EF92FF92BE
:104A50000F931F93CF93DF939C018FEB94E08C7F98
:104A60004115510509F489C02115310509F485C0A6
:104A70006115710509F481C08A01AB01B9016D5F4F
:104A80007F4F6C7F9B012F5F3F4F249F7001259FBD
:104A9000F00C349FF00C1124F894EEE3F6E023E0E0
:104AA00030E0E901A6A1B7A1C68CD78CCD2809F0CA
:104AB00058C0109709F03EC0C090BA04D090BB0413
:104AC00025E131E02C193D092E153F0530F478948D
:104AD000CFEFDFEF86EF9FEF21C02AE02C9FF001A0
:104AE0002D9FF00D1124E25CF94F91838083558353
:104AF00044835383428377836683F186E0860097FD
:104B000009F073DEEC0CFD1CF092BB04E092BA04D9
:104B10007894CF3FDC07F1F290E080E0F801D18398
:104B2000C083DF91CF911F910F91FF90EF90DF90A5
:104B3000CF900895AE15BF05A0F02AE02C9FF0019C
:104B40002D9FF00D1124E25CF94F918380835583F2
:104B5000448353834283778366830097C9F245DE9B
:104B6000D7CF8A0F9B1F2F5F3F4F3A9626303105D4
:104B700009F097CFCFEFDFEFCBCF8FEF9FEFD1CF04
:104B80009C010397039708F04EC0F89485E09AE0E3
:104B9000482F50E0241735079CF191E08AE0829F6E
:104BA000F001839FF00D1124E25CF94F1182108215
:104BB0001582148213821282178216829923E1F0E1
:104BC0008091BA049091BB04EEE3F6E022A933A9E8
:104BD000232B49F422AD33AD2115310521F0821B81
:104BE000930B13AE12AE3A9726E0E032F20771F75C
:104BF0009093BB048093BA04789490E080E0089589
:104C0000949FF001959FF00D1124E25CF94F4081D3
:104C10005181452B31F440855185452B11F481504C
:104C2000B7CF90E0BBCF8FEF9FEF089541155105AF
:104C300049F1009739F16115710521F1F89420913E
:104C40003A0630913B06232BB9F420913C06309173
:104C50003D06232B89F490933B0680933A0670938C
:104C60003D0660933C06789426E030E090E080E0DA
:104C7000FA0131832083089578942FEF3FEF86EF78
:104C80009FEFF6CF8FEF9FEF0895069769F4F894A2
:104C900010923B0610923A0610923D0610923C0686
:104CA000789490E080E008958FEF9FEF089561156C
:104CB000710519F4F0E0E0E011C08630910581F44F
:104CC000E0913A06F0913B063097A1F3CB010196B3
:104CD0001995009779F3FC0186E08193CF0108953F
:104CE0009C01235031092330310520F72AE0289F09
:104CF000D001299FB00D1124A25CB94F2D913C9198
:104D00001197232BB9F216962D913C9117972617E0
:104D1000370780F2F89412962D913C911397211544
:104D2000310529F0ED91FC911197309711F47894A9
:104D3000C1CF4181528111965C934E93215031092C
:104D400013963C932E93129781937894C7CFE4EDFA
:104D5000F5E086E6DF011D928A95E9F7ECEBF4E0D9
:104D600088E191E0DF019C011D9221503040E1F784
:104D70001092BB041092BA04EEE3F6E08CE3DF017C
:104D80001D928A95E9F7EAE3F6E084E0DF011D92DF
:104D90008A95E9F790E080E00895CF93DF93C09182
:104DA0003D02D0913E02CF3FDC0759F4DFD3909310
:104DB0003E0280933D0297FF09C0D0933E02C0930C
:104DC0003D0284EF9FEFDF91CF91089590E080E066
:104DD000FACF8230910528F480937A0690E080E043
:104DE00008958FEF9FEF08954F925F926F927F9299
:104DF000AF92BF92CF92DF92EF92FF920F931F93E9
:104E0000CF93DF931F921F92CDB7DEB71A8219821C
:104E1000009709F479C06115710509F475C02091F6
:104E20003D0230913E0207EF1FEF2F3F3F4F09F445
:104E300045C06B015C01412C512C3201F12CE12C5D
:104E400010E000E09E012F5F3F4FA6014E195F0961
:104E5000B5016E0D7F1D80913D0290913E02E5D31C
:104E6000892B09F04BC089819A81009741F4E114A4
:104E7000F10429F420917A06222309F442C0E80EB5
:104E8000F91EEC14FD04D0F480E8481684E85806B6
:104E90008EE16806710420F560E070E0CB010E94AD
:104EA0002F302AE0420E511C611C711C0A3F4FEF4B
:104EB000140721F0043F8FEF1807A1F4C8010F90E9
:104EC0000F90DF91CF911F910F91FF90EF90DF90A6
:104ED000CF90BF90AF907F906F905F904F9008956C
:104EE00001EF1FEF81E090E0013F2FEF120711F07B
:104EF00090E080E0892B09F4A5CFE0CF04EF1FEF0D
:104F0000DDCF0AEF1FEFDACF0FEF1FEFD7CF4F92B2
:104F10005F926F927F92AF92BF92CF92DF92EF92A9
:104F2000FF920F931F93CF93DF931F921F92CDB7E2
:104F3000DEB71A821982009709F479C061157105EC
:104F400009F475C020913D0230913E0207EF1FEF3A
:104F50002F3F3F4F09F445C06B015C01412C512CA0
:104F60003201F12CE12C10E000E09E012F5F3F4F59
:104F7000A6014E195F09B5016E0D7F1D80913D029E
:104F800090913E0208D3892B09F04BC089819A8108
:104F9000009741F4E114F10429F420917A062223C8
:104FA00009F442C0E80EF91EEC14FD04D0F480E8C8
:104FB000481686E9580688E96806710420F560E01D
:104FC00070E0CB010E942F302AE0420E511C611C80
:104FD000711C0E3F4FEF140721F0043F8FEF1807AD
:104FE000A1F4C8010F900F90DF91CF911F910F9105
:104FF000FF90EF90DF90CF90BF90AF907F906F9039
:105000005F904F90089502EF1FEF81E090E0023F24
:105010002FEF120711F090E080E0892B09F4A5CF63
:10502000E0CF04EF1FEFDDCF0EEF1FEFDACF0FEF72
:105030001FEFD7CF80913D0290913E028F3F98079E
:1050400049F08CD2892B49F48FEF9FEF90933E0269
:1050500080933D0290E080E0089584EF9FEF0895F3
:10506000FC01680F791F90E080E0E617F70709F46C
:1050700008952191820F911DF8CF20917B06211177
:1050800013C08BDE009791F4109281061092800677
:1050900010927F0610927E0610927D0610927C067A
:1050A00021E020937B06089584EF9FEF0895AF924F
:1050B000BF92CF92DF92EF92FF920F931F93CF9305
:1050C000DF93009709F460C04630510508F45CC0D6
:1050D00020917B06C7EFDFEF222309F449C08C0142
:1050E000060F171FF801C080D180C114D10409F444
:1050F0004EC096012A5F3F4F4217530708F447C03E
:105100007C01809180069091810693838283B60111
:105110006C5F7F4F5801A60EB71EC801A1DFF501D5
:105120009183808364E070E0C8015EDEEC01892B2E
:10513000F9F481E090E04DDEB601C801049654DE3A
:10514000EC01892B91F462E070E0C5014DDEEC01C9
:10515000892B59F4C7014CDC80918006909181061F
:105160000196909381068093800690E080E031DE86
:10517000CE01DF91CF911F910F91FF90EF90DF90C3
:10518000CF90BF90AF900895CFEFDFEFF1CFC9EF91
:10519000DFEFEECF6F927F928F929F92AF92BF928E
:1051A000CF92DF92EF92FF920F931F93CF93DF93F3
:1051B00000D01F92CDB7DEB7009709F47AC0411531
:1051C000510509F476C020917B0607EF1FEF2223DB
:1051D00009F44DC03A017B015C0164E070E0CE014E
:1051E000019695DE8C01892B09F041C009811A8155
:1051F0000115110509F45AC0480186E0880E911C7A
:10520000B701680D791D80913F02909140024FDDFA
:105210006C01009709F450C0A70170E060E00E94A3
:10522000663689819A81AB81BC81EC0CFD1CF7014B
:1052300081939193A193B1937F0181E090E0C9DDC7
:10524000B801C70164DE892B31F562E070E0C70167
:10525000800F911F5CDE8C01892BE9F490E080E0E7
:10526000B8DDF501D182C082F30191828082C8014C
:105270000F900F900F900F90DF91CF911F910F9192
:10528000FF90EF90DF90CF90BF90AF909F908F9066
:105290007F906F90089590E080E09BDDF501118292
:1052A0001082F30111821082C601A2DB09EF1FEF09
:1052B000DECF0FEF1FEFDBCF06EF1FEFD8CF00974A
:1052C000A1F04115510589F02115310571F0F90161
:1052D00036966E177F0748F0DC012D933C93DA0178
:1052E000ED93FC9390E080E008958FEF9FEF089599
:1052F000AF92BF92CF92DF92EF92FF920F931F93E4
:10530000CF93DF93009709F45FC04115510509F46D
:105310005BC06530710508F457C020917B06C7EF6C
:10532000DFEF222391F1DC01CD90DC9011971296F2
:10533000ED91FC9196012A5F3F4FC9EFDFEF2617F1
:10534000370719F5C0917C06D0917D06209749F565
:1053500021E030E030937D0620937C067A018C01B9
:10536000F0937F06E0937E065601B4E0AB0EB11CCD
:10537000B50176DE0A0D1B1DF801208131818217EF
:10538000930729F5D701CD92DC92CE01DF91CF9121
:105390001F910F91FF90EF90DF90CF90BF90AF9053
:1053A000089520917E0630917F062F5F3F4FCCEF0E
:1053B000DFEFE217F30790F2CBEFDFEF2E173F0797
:1053C00068F2D0E0C0E0CACFCFEFDFEFDECFC3EFAF
:1053D000DFEFDBCF84E090E0089582E090E0089575
:1053E0008CEF9FEF089580E290E00895109281067F
:1053F0001092800610927F0610927E0610927D0613
:1054000010927C0690E080E0089590934002809393
:105410003F02089580917B06882391F00BDE009770
:1054200089F4109281061092800610927F061092E5
:105430007E0610927D0610927C0610927B060895DF
:1054400090E080E00895009749F06115710531F012
:10545000FC0111821082FB01118210820895F3CFAA
:1054600040E855E260E070E090E080E000C081300C
:10547000910579F01CF4892B39F00895823091055B
:1054800061F0039771F0089526E08FE896E00C94A0
:105490005C3326E08CE297E0FACF26E089EC97E0D7
:1054A000F6CF26E086E698E0F2CF1F920F920FB675
:1054B0000F9211240BB60F922F933F934F935F934C
:1054C0006F937F938F939F93AF93BF93EF93FF93CC
:1054D0008FE89DEF9093250180932401BAD0FF912E
:1054E000EF91BF91AF919F918F917F916F915F915C
:1054F0004F913F912F910F900BBE0F900FBE0F90C9
:105500001F9018958FE89DEF9093250180932401BB
:10551000A3E7B0E08C918E7F8C93E0E2F1E0808194
:105520008C7F8083E1E2F1E08081877E80838081CF
:105530008460808380818C7F80838C9181608C9358
:105540000895E3E7F0E0808190819E7F90838170F1
:10555000089581E0089510928206089568EE73E040
:1055600080E090E07CD590E080E0089526E040E087
:1055700052EC61E070E08FE896E00E945C338FE8C7
:1055800096E0D0D7892B21F08FE896E0E5D7F7CFCA
:1055900090E080E00895CF92DF92EF92FF920F9318
:1055A0001F93CF93DF936B017A01E901198218826F
:1055B0008FE896E0B7D7892B69F18601CC24C39494
:1055C00082E0D82E80918206811110C08FE896E08B
:1055D000C3D70297B9F7C0928206F801D1928F0122
:1055E00088819981019699838883ECCF88819981FC
:1055F0008E159F0578F48FE896E0AED78F3F980719
:10560000A9F3F80181938F0188819981019699838B
:105610008883ECCF90E080E0DF91CF911F910F91D4
:10562000FF90EF90DF90CF9008950F931F93CF934B
:10563000DF93EA0189018FE896E00E94EC35F801DA
:10564000D183C08390E080E0DF91CF911F910F91D3
:1056500008958091830691E0980F909383068823A4
:1056600049F021E030E03093850620938406809352
:105670008306089578940E94A806F8948091830682
:105680008150F5CF0F931F93CF93DF93109278093A
:10569000109277091AD5E4DEC0915702D0915802D2
:1056A000198218826FEF7FEFCB010E948C0670E0A9
:1056B00060E090E080E00E940B05009709F042C096
:1056C0000E94940AF8947894BE0163547F4F8A81B3
:1056D0009B810E940E05892B71F46FEF7FEFCB0148
:1056E0000E949F050E948606882329F081E0FE0122
:1056F000ED53FF4F8083F89405DF0E9489068823CD
:1057000011F080E00BC00E9486068111FACF81E083
:10571000FE01ED53FF4F90819111F3CF80937709F4
:1057200078940E94AC128C017894CD53DF4F809115
:10573000770981110CC00E94DC0B0E946B06F89463
:1057400090E080E0DF91CF911F910F9108950E942A
:1057500069060E9489068823D9F081E08093780940
:105760009091780981E0911180E080937709809190
:1057700078098111E6DE0130110529F40E94AC128E
:10578000892B09F4E8DE0E94AC128C01E2DECFCF57
:105790000E9486068111E1CF81E098819111DECFD0
:1057A00080E0DCCF5058BB27AA270ED075C166D148
:1057B00030F06BD120F031F49F3F11F41EF45BC147
:1057C0000EF4E095E7FB51C1E92F77D180F3BA17CA
:1057D000620773078407950718F071F49EF58FC16F
:1057E0000EF4E0950B2EBA2FA02D0B01B9019001FC
:1057F0000C01CA01A0011124FF27591B99F0593F40
:1058000050F4503E68F11A16F040A22F232F342F87
:105810004427585FF3CF469537952795A795F040D5
:105820005395C9F77EF41F16BA0B620B730B840BEA
:10583000BAF09150A1F0FF0FBB1F661F771F881FA2
:10584000C2F70EC0BA0F621F731F841F48F48795FA
:1058500077956795B795F7959E3F08F0B3CF9395E9
:10586000880F08F09927EE0F979587950895D9D05E
:1058700008F481E008950CD00FC107D140F0FED0AC
:1058800030F021F45F3F19F0F0C0511139C1F3C07D
:1058900014D198F39923C9F35523B1F3951B550BF4
:1058A000BB27AA2762177307840738F09F5F5F4FF3
:1058B000220F331F441FAA1FA9F333D00E2E3AF034
:1058C000E0E830D091505040E695001CCAF729D04E
:1058D000FE2F27D0660F771F881FBB1F261737079D
:1058E0004807AB07B0E809F0BB0B802DBF01FF27CD
:1058F00093585F4F2AF09E3F510568F0B6C000C133
:105900005F3FECF3983EDCF3869577956795B79506
:10591000F7959F5FC9F7880F911D9695879597F921
:105920000895E1E0660F771F881FBB1F621773079A
:105930008407BA0720F0621B730B840BBA0BEE1FAF
:1059400088F7E095089504D06894B111D9C00895FE
:10595000BCD088F09F5790F0B92F9927B751A0F08D
:10596000D1F0660F771F881F991F1AF0BA95C9F7F3
:1059700012C0B13081F0C3D0B1E00895C0C0672F2C
:10598000782F8827B85F39F0B93FCCF386957795A3
:105990006795B395D9F73EF490958095709561958C
:1059A0007F4F8F4F9F4F0895E89409C097FB3EF4B7
:1059B00090958095709561957F4F8F4F9F4F99235C
:1059C000A9F0F92F96E9BB279395F69587957795DA
:1059D0006795B795F111F8CFFAF4BB0F11F460FF9A
:1059E0001BC06F5F7F4F8F4F9F4F16C0882311F0F2
:1059F00096E911C0772321F09EE8872F762F05C006
:105A0000662371F096E8862F70E060E02AF09A95A0
:105A1000660F771F881FDAF7880F9695879597F995
:105A20000895990F0008550FAA0BE0E8FEEF16162F
:105A30001706E807F907C0F012161306E407F50782
:105A400098F0621B730B840B950B39F40A2661F0F6
:105A5000232B242B252B21F408950A2609F4A14099
:105A6000A6958FEF811D811D089597F99F6780E8A6
:105A700070E060E008959FEF80EC089500240A94A0
:105A80001616170618060906089500240A94121619
:105A90001306140605060895092E0394000C11F44C
:105AA000882352F0BB0F40F4BF2B11F460FF04C0F9
:105AB0006F5F7F4F8F4F9F4F089557FD9058440F52
:105AC000551F59F05F3F71F04795880F97FB991F5D
:105AD00061F09F3F79F0879508951216130614061A
