:1000000008C1000037C1000035C1000033C1000045
:1000100031C100002FC100002DC100002BC1000024
:1000200029C1000027C1000025C1000023C1000034
:1000300021C100001FC100001DC100001BC1000044
:1000400019C1000017C1000015C1000013C1000054
:1000500011C100000FC100000DC100000C94FD3360
:1000600009C100000C94D1370C94073803C100007B
:1000700001C10000FFC00000FDC00000FBC0000087
:10008000F9C00000F7C00000F5C00000F3C0000098
:100090000C945D380C949338EDC000000C94DC3265
:1000A000E9C00000E7C00000E5C00000E3C00000B8
:1000B000E1C00000DFC00000DDC00000DBC00000C8
:1000C000D9C00000D7C000000C94D5290C94E938A1
:1000D0000C941F39CFC000000C9475390C94AB39C7
:1000E000C9C0000005A84CCDB2D44EB93836A9021B
:1000F0000C50B9918688083CA6AAAA2ABE00000026
:10010000803F00000A0B02090C0D0E0807030401D2
:1001100000000000000000000000000000000000DF
:1001200000000000000000000000000000001211AC
:1001300010000000000000000000000000000000AF
:10014000000000000000000001021020200808103C
:100150002040102040800201020108040201010237
:100160000408102040808040201008040201800410
:10017000020180402010080402010804020101026B
:10018000040810204080010204081020408005056A
:100190000505070508080808020202020A0A0808FD
:1001A000040404040101010101010101030303032B
:1001B00003030303040707070C0C0C0C0C0C0C0CBA
:1001C0000202020206060606060606060B0B0B0BCB
:1001D0000B0B0B0B00002200250028002B002E002B
:1001E0003100340002010000050108010B0100008C
:1001F0002100240027002A002D00300033000101D7
:100200000000040107010A0147303038BC38483982
:10021000D43911241FBECFEFD1E2DEBFCDBF00E045
:100220000CBF13E0A0E0B2E0E0E2F5E700E00BBFB6
:1002300002C007900D92AA30B107D9F72AE0AAE0D0
:10024000B3E001C01D92A731B207E1F711E0C9E0A8
:10025000D1E000E006C021970109802FFE010E9435
:10026000513AC430D10780E00807A9F70E94382B23
:100270000C948E3AC5CECF92DF92EF92FF926B0133
:100280007C01C114D104E104F10469F480910002FD
:10029000811109C080910202909103020E94B82F3F
:1002A00081E080930002C601880F991F880F991F73
:1002B00080509E4FFF90EF90DF90CF900895009771
:1002C00081F0FC012181211104C040EA56E861E07F
:1002D00070E0FC01828193810E94C72F90E080E052
:1002E000089588E090E008954F925F926F927F9218
:1002F0008F929F92AF92BF92CF92DF92EF92FF9236
:100300000F931F93CF93DF930097C9F12801390111
:100310007A01EC01402F8A819B810E9445308A81BD
:100320009B81DC01ED91FC910084F185E02D199514
:10033000892B01F16701812C912C54018A819B81C9
:10034000DC01ED91FC910084F185E02D1995892B5C
:1003500091F184149504A604B70469F18A819B8104
:10036000DC01ED91FC910284F385E02D19958F3F1E
:100370009807C1F484E0F70111928A95E9F788E0C3
:1003800090E0DF91CF911F910F91FF90EF90DF9060
:10039000CF90BF90AF909F908F907F906F905F9025
:1003A0004F900895FFEF8F1A9F0AAF0ABF0AD60138
:1003B0008D936D01C3CF90E080E0E3CF8F929F9249
:1003C000AF92BF92CF92DF92EF920F931F93CF9392
:1003D000DF930097F1F06A01EC018A819B810E9412
:1003E000CA2F8A819B81DC01ED91FC910280F3810F
:1003F000E02DA801B60119958A819B8160E0E1108A
:1004000001C061E00E94D42F882389F0825082309D
:1004100088F088E090E0DF91CF911F910F91EF90ED
:10042000DF90CF90BF90AF909F908F90089590E015
:1004300080E0F1CF84E090E0EECF0895CF92DF929C
:10044000EF92FF92CF93882351F16A017B01CFEFA6
:10045000C80F20E030E0A901CB01B6010E942F2C8B
:1004600087FF11C0C701B60190580E94A02C9B01C4
:10047000AC016C2F70E090E080E0CF91FF90EF90A6
:10048000DF90CF90B2C0C701B6010E949B2C8C2F89
:10049000CF91FF90EF90DF90CF900C940435CF91E7
:1004A000FF90EF90DF90CF9008950F931F938B01F3
:1004B0009C0183E036952795179507958A95D1F786
:1004C000065F1C4F462F477021E030E0F90102C063
:1004D000EE0FFF1F4A95E2F7AF01F80120812423B8
:1004E000CB010196211102C090E080E01F910F9195
:1004F00008950F931F938B019C0183E036952795F8
:10050000179507958A95D1F7677081E090E001C053
:10051000880F6A95EAF7F801E65FFC4F2081452BCA
:1005200031F48095822380831F910F910895822B4F
:10053000FACF2F923F924F925F926F927F928F925B
:100540009F92AF92BF92CF92DF92EF92FF920F9362
:100550001F93CF93DF93D62EC72E782E692E490195
:100560005A01280161E08D2D0E943E36CD2DDC2DF3
:100570008E010F5F1F4FA8016D2D7C2D872D962DAD
:10058000B8DF20E030E0A901C201B7010E941F2EB0
:10059000181664F4C201B7010E94A02C2B01C501FA
:1005A000B4010E94A02CA201CE0123D0C801DF918A
:1005B000CF911F910F91FF90EF90DF90CF90BF9060
:1005C000AF909F908F907F906F905F904F903F90F3
:1005D0002F900895882341F08150682F70E090E0BB
:1005E00080E050E040E085CF0895862FB9010C945B
:1005F00004359C01FC01EE5FFE4FE491E150E231D5
:10060000E0F4F0E08827E85FFC4F8F4F0C94513AFC
:100610001A03210324033B0350031D0365037103E5
:1006200075038C03A103B603CD03E2031D03F70397
:100630000E04230484B5806884BD60E0822F0C948E
:100640007A3684B58062F8CF809180008C7F82609A
:100650008093800080918100807E8061682B609310
:1006600081005093870040938600809180008068CD
:1006700080938000E2CF809180008C7F82608093A5
:10068000800080918100807E8061682B6093810072
:100690005093870040938600809180008062E8CF6D
:1006A000809180008C7F82608093800080918100A7
:1006B000807E8061682B6093810050938700409317
:1006C0008600809180008860D3CF8091B0008068E0
:1006D0008093B0008091B100887F682B6093B10057
:1006E000ACCF8091B0008062F3CF809190008C7F7E
:1006F00082608093900080919100807E8061682B61
:1007000060939100509397004093960080919000E1
:1007100080688093900091CF809190008C7F826060
:100720008093900080919100807E8061682B60931F
:1007300091005093970040939600809190008062C2
:10074000E8CF809190008C7F8260809390008091B0
:100750009100807E8061682B609391005093970098
:1007600040939600809190008860D3CF8091A00044
:100770008C7F82608093A0008091A100807E806148
:10078000682B6093A1005093A7004093A60080912E
:10079000A00080688093A00050CF8091A0008C7F43
:1007A00082608093A0008091A100807E8061682B90
:1007B0006093A1005093A7004093A6008091A000F1
:1007C0008062E8CF8091A0008C7F82608093A0003F
:1007D0008091A100807E8061682B6093A10050937E
:1007E000A7004093A6008091A0008860D3CF80919D
:1007F00020018C7F82608093200180912101807E86
:100800008061682B6093210150932701409326015A
:10081000809120018068809320010FCF809120017A
:100820008C7F82608093200180912101807E806195
:10083000682B6093210150932701409326018091FA
:1008400020018062E8CF809120018C7F82608093BC
:10085000200180912101807E8061682B60932101BD
:100860005093270140932601809120018860D3CFC7
:1008700090E080E008950F931F93009709F48DC0D6
:100880006115710509F489C000912A0210912B02AB
:1008900020912C0230912D020E3F1F4F2F4F3F4FC2
:1008A00009F06CC04FEF5FEFBA0140932A025093FA
:1008B0002B0260932C0270932D0240912A025091DA
:1008C0002B0260912C0270912D02DC011296ED91A9
:1008D000FC9180819181A281B381809337049093B0
:1008E0003804A0933904B0933A0484819581A68199
:1008F000B7818093330490933404A0933504B0936C
:10090000360480859185A285B38580932F049093CA
:100910003004A0933104B093320484859585A68574
:10092000B78580932B0490932C04A0932D04B0934F
:100930002E04109227041092280410922904109279
:100940002A040E94200E85E49EE090931403809375
:1009500013039093160380931503909318038093C9
:1009600017030E940F0D009731F421E030E030931F
:100970003C0420933B041F910F91089500912A029B
:1009800010912B0220912C0230912D02DB010D934E
:100990001D932D933C93139790CF8FEF9FEFEBCF49
:1009A0008F929F92AF92BF92CF92DF92EF92FF927F
:1009B0001F93CF93DF934B015C0110913E0482E0C3
:1009C00090E090933C0480933B0481149104A10433
:1009D000B10441F480913E04811104C080913D0432
:1009E000C1E08111C0E0C12CD12C760180913E0480
:1009F000811106C080913D04811102C0CC23D9F041
:100A000083E090E090933C0480933B04CC2381F1FD
:100A1000CCE9DFEF111102C00E94AA11CE01DF91D3
:100A2000CF911F91FF90EF90DF90CF90BF90AF904C
:100A30009F908F9008956AE070E080E090E00E94BF
:100A40006C3480E1C80E87E2D81EE11CF11C8FEFE8
:100A500088169806A806B80631F0C1E08C149D04EB
:100A6000AE04BF0408F0C0E080E00E94430DBECF9A
:100A7000D0E0C0E0CFCFCF92DF92EF92FF920F9302
:100A80001F93CF93DF938F3F910511F008F050C073
:100A900020913B0430913C042330310539F0209102
:100AA0003B0430913C042130310531F424E030E046
:100AB00030933C0420933B046A017B01EC018330BA
:100AC0009105A0F011E0AE01C701B601A7D7AB01B7
:100AD000BC01CE011123F9F0DF91CF911F910F914D
:100AE000FF90EF90DF90CF900C94D3138C01000F08
:100AF000111F0D5E1C4FD8018D919C91892B11F314
:100B00000E94DD130297F1F6D801ED91FC91CE0120
:100B10001995182FD8CF0E94F51390E080E0DF914F
:100B2000CF911F910F91FF90EF90DF90CF9008959C
:100B30008FEF9FEFF4CF80E0A6C7CF93DF9386E0DF
:100B400090E090933C0480933B04F6D7EC01E3E102
:100B5000F3E086E0DF011D928A95E9F70E944211D9
:100B600010923C0410923B04CE01DF91CF91089586
:100B700080913D04089580912604089560932A028F
:100B800070932B0280932C0290932D0290E080E0D2
:100B9000089560E070E080E89FE7089560E070E00D
:100BA00080E89FE7089560E070E080E89FEF089597
:100BB00060E070E080E89FEF089560E070E080EC16
:100BC0009FEF089560E070E080EC9FEF0895F5DFFF
:100BD00060939C0970939D0980939E0990939F094F
:100BE000F1DF60939009709391098093920990933B
:100BF0009309CFDF609398097093990980939A09BC
:100C000090939B09CBDF609394097093950980932F
:100C1000960990939709C7DF6093A0097093A10983
:100C20008093A2099093A309C3DF6093A4097093F2
:100C3000A5098093A6099093A7090895CF92DF9202
:100C4000EF92FF92CF936B017C01AC019B0160910D
:100C500098097091990980919A0990919B090E9435
:100C60002F2CC1E0882371F0A70196016091A009A3
:100C70007091A1098091A2099091A3090E942F2C43
:100C80008111C0E08C2FCF91FF90EF90DF90CF903B
:100C900008950F931F938B019C0100271127207843
:100CA0003F770115110520483F4749F4AB01BC01CE
:100CB0006F77772781E0452B462B472B09F480E09F
:100CC0001F910F910895E5CFFC0191E08091F00311
:100CD000811190E0928308951F93CF93DF93EC01ED
:100CE00080E090E5A3ECB8E48C879D87AE87BF8752
:100CF0001F821E82188211E0188B1D8281E090E015
:100D0000A0E0B0E089839A83AB83BC8350E040E0ED
:100D100060E070E0CB01AFDA9F838E8340EA56E853
:100D200061E070E0488759876A877B87C8DA1D834E
:100D3000DF91CF911F910895CF92EF920F931F9360
:100D4000CF93DF9300D0CDB7DEB7FB0125E0298339
:100D50009A838B83C12CE12C03E010E020E030E08B
:100D6000AE014F5F5F4F60E470E08681978126DBC4
:100D70000F900F900F90DF91CF911F910F91EF90F7
:100D8000CF900895FC018081811110C081E08083A3
:100D900081819281A381B4810197A105B10531F4CC
:100DA0008581882319F08681978147CB08958F929A
:100DB0009F92AF92BF92CF92DF92EF92FF92CF932A
:100DC000DF938091F0038F5F8A3008F003C1809336
:100DD000F0036091100270911102809112029091C3
:100DE00013020E94092D6B017C016DDF8111F5C09A
:100DF000C701B60123DF8111F0C020E030E040E8F8
:100E000057E4C701B6010E94232D6B017C0120E04D
:100E100030E0A9010E942F2C87FFE2C0C701B60174
:100E200090580E94A02C88279927861B970B6FEE5D
:100E300079E082DFE091F803F091F90320911C0240
:100E400030911D0240911E0250911F0260817181FC
:100E5000828193810E94232E2091200230912102D1
:100E600040912202509123020E94CB2B0E94862E99
:100E700020911402309115024091160250911702F0
:100E80000E94232E209118023091190240911A02DB
:100E900050911B020E94CB2B20E030E04EE753E440
:100EA0000E94232E23E333E347EB51E40E94332CCB
:100EB0006B017C0120E030E0A9010E941F2E812CF3
:100EC000912C5401181684F020E030E0A901C701EC
:100ED000B6010E942F2C87FF89C046015701E89474
:100EE000B7F8C12CD12C760168E070E080E090E08A
:100EF000DCDAEC019093DB098093DA0920E030E042
:100F00004FE753E4C501B4010E942F2C181634F4A6
:100F1000812C912C9FE7A92E93E4B92EB501A40151
:100F2000CE018CDA69E070E080E090E0BEDA5C012E
:100F30009093D3098093D20920E030E04FE753E447
:100F4000C701B6010E942F2C181634F4C12CD12CE5
:100F50008FE7E82E83E4F82EB701A601C5016EDA0B
:100F6000C090CF03D090D003E090D103F090D20393
:100F70008FEFC81AD80AE80AF80AC092CF03D092B5
:100F8000D003E092D103F092D203C091F803D09144
:100F9000F903C701B6010E94CC2C9B01AC01609102
:100FA000D3037091D4038091D5039091D6030E940E
:100FB000232E688379838A839B838091E30388232C
:100FC000D9F08130E9F081E09091E5039923A9F00F
:100FD00080E013C01092F003FCCEC12CD12C76011E
:100FE000C701B6010E94A02CCB0121CF812C912CEE
:100FF00054017501640178CF81E08093E40302C05D
:101000001092E4038091E40394E0899FF00111249D
:10101000EA51FC4FC082D182E282F3828093E503E1
:101020008FEF8093E4038091D7039091D803A09130
:10103000D903B091DA030196A11DB11D8093D703A6
:101040009093D803A093D903B093DA03DF91CF91A3
:10105000FF90EF90DF90CF90BF90AF909F908F90D8
:101060000895CF92DF92EF92FF920F931F93CF9349
:10107000DF9300D0CDB7DEB7C0900402D090050258
:10108000E0900602F0900702A70196016091B8096E
:101090007091B9098091BA099091BB090E942F2CD7
:1010A000882341F0C092B809D092B909E092BA09F8
:1010B000F092BB0984E08B83C12CEE24E39401E021
:1010C00010E020E030E0AE014D5F5F4F60E470E083
:1010D0008091AE099091AF0971D98B8320E030E007
:1010E000811113C0CC24C394E12C02E010E020E075
:1010F00030E0AE014F5F5F4F60E470E08091AE0979
:101100009091AF09F1D82A813981A0912802B0913C
:1011100029020E94593A0E94CE2C20E030E040E0A3
:1011200056E30E94232E2091240230912502409103
:101130002602509127020E94232E6093060A709384
:10114000070A8093080A9093090A8091DB03909123
:10115000DC03A091DD03B091DE030196A11DB11D5A
:101160008093DB039093DC03A093DD03B093DE0355
:101170000F900F900F90DF91CF911F910F91FF90E3
:10118000EF90DF90CF9008954F925F926F927F9291
:101190008F929F92AF92BF92CF92DF92EF92FF9287
:1011A0000F931F93CF9384E090E011DD87E393E0EA
:1011B00025EF33E030933E0320933D0328EF33E0E7
:1011C000309378032093770323ED33E030934C037F
:1011D00020934B039093A2038093A10390933C032D
:1011E00080933B0381E090E09093F6038093F503B6
:1011F00087E492E090934203809341032AEF33E027
:101200003093F9032093F80380E090E0A0EAB1E482
:101210008093F1039093F203A093F303B093F4034C
:101220008AE097EDA3E2BCE38093D3039093D403C9
:10123000A093D503B093D60386E397ECA1E2B0E484
:101240008093BD039093BE03A093BF03B093C003EC
:1012500080EB9EE6AEE8B8E68093C1039093C203AC
:10126000A093C303B093C4038AE79CEEACEBBBEF3F
:101270008093C5039093C603A093C703B093C8039C
:1012800088E296EAABE6B4E88093C9039093CA0378
:10129000A093CB03B093CC038BE293E090933A03FB
:1012A0008093390389E193E090932C0380932B037F
:1012B00089E592E090931A038093190390931C039D
:1012C00080931B0390931E0380931D039093200330
:1012D00080931F0390932203809321039093240310
:1012E00080932303909326038093250390932803F0
:1012F0008093270390932A03809329038DEC93E036
:101300009093300380932F038DEB93E090932E0303
:1013100080932D0330933203209331038FEF80931A
:10132000E3038093E4031092E50380E090E5A3ECEF
:10133000B8E48093C8099093C909A093CA09B093EF
:10134000CB091092C3091092C2091092BC091092E5
:10135000C109412C512C320143944092BD09509255
:10136000BE096092BF097092C0091092050A1092DE
:10137000040A1092000A1092010A1092020A1092B6
:10138000030A50E040E060E070E0CB010E943B01C6
:101390009093C3098093C20920EA822E26E8922EF8
:1013A000AA24A394B12C8092C4099092C509A0925A
:1013B000C609B092C70980920E0A90920F0AA092B5
:1013C000100AB092110A40EA56E861E070E00E940B
:1013D0005F01C1E0C093C1098EED99E07DDC8FEE25
:1013E00099E07ADC1092D4091092D9094092D5097B
:1013F0005092D6096092D7097092D809E12CF12C4D
:101400008701A801970168E070E080E090E091D842
:101410009093DB098093DA09C093D9091092CC0923
:101420001092D1094092CD095092CE096092CF0915
:101430007092D009A801970169E070E080E090E027
:1014400078D89093D3098093D209C093D10980E0D2
:1014500090E5A3ECB8E48093B4099093B509A09308
:10146000B609B093B7091092AF091092AE09109265
:10147000A8098091040290910502A0910602B09102
:1014800007028093B8099093B909A093BA09B09361
:10149000BB091092AD094092A9095092AA09609225
:1014A000AB097092AC091092050A1092040A1092CE
:1014B000000A1092010A1092020A1092030A50E0E8
:1014C00040E060E070E0CB010E943B019093AF09E7
:1014D0008093AE098092B0099092B109A092B209AE
:1014E000B092B30980920E0A90920F0AA092100A4D
:1014F000B092110A40EA56E861E070E00E945F0194
:10150000C093AD09609108027091090280910A02AE
:1015100090910B020E94092D60930A0A70930B0AA6
:1015200080930C0A90930D0ACEDB882309F481C0C6
:1015300010920A0A10920B0A10920C0A10920D0ACD
:10154000C0900A0AD0900B0AE0900C0AF0900D0AA5
:1015500020E030E0A901C701B6010E942F2C87FFCF
:101560008AC0C701B60190580E94A02C7195619560
:1015700071091092120A7093130A6093140AC12C15
:10158000E12C03E010E020E030E042E15AE060E4CA
:1015900070E08091C2099091C3090E94DE016091C0
:1015A0000C0270910D0280910E0290910F020E9428
:1015B000092D60930A0A70930B0A80930C0A90938A
:1015C0000D0A81DB882309F45BC010920A0A10928D
:1015D0000B0A10920C0A10920D0AC0900A0AD090C1
:1015E0000B0AE0900C0AF0900D0A20E030E0A9010F
:1015F000C701B6010E942F2C87FF64C0C701B60146
:1016000090580E94A02C88279927861B970B6EED77
:1016100079E0CF911F910F91FF90EF90DF90CF90E5
:10162000BF90AF909F908F907F906F905F904F9002
:1016300083CB60910A0A70910B0A80910C0A9091F9
:101640000D0AFCDA811174CF60910A0A70910B0ABD
:1016500080910C0A90910D0A20E030E040E857E4B8
:101660000E94232D60930A0A70930B0A80930C0A40
:1016700090930D0A65CFC701B6010E94A02C79CFC7
:1016800060910A0A70910B0A80910C0A90910D0AE0
:10169000D5DA81119ACF60910A0A70910B0A809174
:1016A0000C0A90910D0A20E030E040E857E40E94D7
:1016B000232D60930A0A70930B0A80930C0A90936F
:1016C0000D0A8BCFC701B6010E94A02CCB019FCF82
:1016D0008FEE99E057DB8091D40981112EC081E013
:1016E0008093D4098091D5099091D609A091D7090A
:1016F000B091D8090197A105B105F9F48091D909F4
:101700008823D9F068E070E080E090E00E94550204
:101710009093DB098093DA0940E050E0BA010E941F
:101720001E0268E070E080E090E00E945502909315
:10173000DB098093DA090E94EA028091CC098111C9
:101740002EC081E08093CC098091CD099091CE0983
:10175000A091CF09B091D0090197A105B105F9F485
:101760008091D1098823D9F069E070E080E090E0B1
:101770000E9455029093D3098093D20940E050E033
:10178000BA010E941E0269E070E080E090E00E94D1
:1017900055029093D3098093D2090E94EA02809166
:1017A000A809811119C081E08093A8098091A90935
:1017B0009091AA09A091AB09B091AC090197A1053C
:1017C000B10551F48091AD09882331F08091AE09C3
:1017D0009091AF090E941D028091BC09811119C02E
:1017E00081E08093BC098091BD099091BE09A091D0
:1017F000BF09B091C0090197A105B10551F48091CD
:10180000C109882331F08091C2099091C3090E94D7
:101810001D028EED99E0B6CA4F925F926F927F9251
:101820008F929F92AF92BF92CF92DF92EF92FF92F0
:101830000F931F93F89440901604509017046090F3
:10184000180470901904C0900A04D0900B04E09022
:101850000C04F0900D044130510509F0A4C09B0127
:10186000AC01241935094609570929013A010091AB
:1018700012041091130420911404309115044801AE
:101880005901840C951CA61CB71C80169106A20653
:10189000B306A0F400910E0410910F0420911004DF
:1018A000309111040F5F1F4F2F4F3F4F00930E04D5
:1018B00010930F04209310043093110480921204AB
:1018C00090921304A0921404B092150400910E0497
:1018D00010910F04209110043091110480921A0489
:1018E00090921B04A0921C04B0921D0400931E044D
:1018F00010931F0420932004309321046093160456
:10190000709317048093180490931904A0E1B7E230
:10191000A30192010E94743A6C0D7D1D8E1D9F1DC6
:1019200060930A0470930B0480930C0490930D044D
:1019300000912A0210912B0220912C0230912D024D
:101940000F3F1F4F2F4F3F4FF1F000912A02109190
:101950002B0220912C0230912D020E3F1F4F2F4F52
:101960003F4F89F0C0902A02D0902B02E0902C02C9
:10197000F0902D0221E08C149D04AE04BF0408F405
:1019800020E02093260478941F910F91FF90EF9010
:10199000DF90CF90BF90AF909F908F907F906F908F
:1019A0005F904F9008954B015C0184189508A6083C
:1019B000B708A3019201261B370B480B590B64157E
:1019C000750586059705D0F082169306A406B50620
:1019D00040F420E030E0A90181149104A104B10495
:1019E00091F4A0E1B7E20E94743AA7019601261B88
:1019F000370B480B590BCA01B901C5CF82169306A4
:101A0000A406B50670F7A0E1B7E2A50194010E9413
:101A1000743A6C0D7D1D8E1D9F1DB5CFFDCECF93ED
:101A2000DF9300D01F92CDB7DEB71C821B821A82D3
:101A3000198210922204109223041092240410920E
:101A40002504BE016F5F7F4FCE0103960E94A3293C
:101A500069817A818B819C810E94FD22009761F4CB
:101A6000BE016F5F7F4FCE0103960E94AF2969814F
:101A70007A818B819C812FD50F900F900F900F90C2
:101A8000DF91CF910895FF920F931F93CF93DF9330
:101A9000082F60E070E0CB010E946C34FF24F394C7
:101AA0000E94E621EC01892B89F010E0CE3F8FEFF8
:101AB000D80769F0002361F160E070E0CB010E947B
:101AC0006C3481E090E0892B59F322C011E026D5D7
:101AD000EC01892B21F0CE3F8FEFD80759F7111178
:101AE0001EC011E0229609F410E00E949621EC013C
:101AF000892B21F0CE3F8FEFD807E1F6111111C0ED
:101B000011E0CE3F8FEFD80709F410E001110BC0B0
:101B1000CE01DF91CF911F910F91FF90089511E0B9
:101B2000E4CF11E0F3CF60E070E0CB010E946C34B1
:101B30001F25812F90E0C7CFCF93DF93809126049C
:101B4000882321F060E070E0CB014DD636D6D0E09E
:101B5000C0E0892B71F06AE070E080E090E00E94C4
:101B60006C3481E090DF29D62196C03D27E0D20772
:101B700081F728D60E94512310923E0410923D0412
:101B800010923704109238041092390410923A04DB
:101B900010923304109234041092350410923604DB
:101BA00010922F04109230041092310410923204DB
:101BB00010922B0410922C0410922D0410922E04DB
:101BC00010922704109228041092290410922A04DB
:101BD0004EEF5FEF6FEF7FEF40932A0250932B029F
:101BE00060932C0270932D0210922604EAE1F4E037
:101BF00028E0DF011D922A95E9F710921604109251
:101C000017041092180410921904109212041092E2
:101C10001304109214041092150410920E041092E2
:101C20000F04109210041092110410920A041092E2
:101C30000B0410920C0410920D04DF91CF910895C3
:101C400010924A0410924B0410924C0410924D04CE
:101C50001092490480915204909153049093480447
:101C60008093470410924604109245041092410458
:101C700010924204109243041092440410924F04B4
:101C800010924E0490E080E00895CF92DF92EF92A0
:101C9000FF920F931F93CF938C01019709F055C0CA
:101CA000209152043091530480914704909148044C
:101CB0004091520450915304509348044093470478
:101CC0002817390781F010924604109245041092AB
:101CD0004104109242041092430410924404109262
:101CE0004F0410924E048091520490915304019736
:101CF00061F580914E0490914F04892B21F48091DD
:101D00002E02811112C080914E0490914F040197D0
:101D1000E1F48091410490914204A0914304B09178
:101D200044040197A105B10581F410924104109279
:101D30004204109243041092440410922E0282E056
:101D400090E090934F0480934E04809152049091C0
:101D50005304019709F01CC18091680490916904B3
:101D60008017910709F014C1809164049091650473
:101D7000A0916604B0916704009709F409C120910D
:101D8000630421110DC04091640450916504609179
:101D9000660470916704452B462B472B09F4F8C065
:101DA00020914E0430914F042230310509F0F0C0EB
:101DB000209145042111ECC0FC01C080D180E2805B
:101DC000F38080914904882309F4D3C0809155049D
:101DD00090915604892B09F4FEC02091550430914E
:101DE000560481E02230310509F080E0209155044D
:101DF00030915604C1E02130310549F0209155045D
:101E000030915604C1E02230310509F0C0E088234A
:101E100009F456C020915F04309160044091610440
:101E200050916204C701B6010E941F2E87FD14C0A5
:101E300020915F04309160044091610450916204EC
:101E400060914A0470914B0480914C0490914D0430
:101E50000E942F2C87FD22C020915F0430916004E6
:101E60004091610450916204C701B6010E941F2E87
:101E7000181634F520915F0430916004409161049C
:101E80005091620460914A0470914B0480914C041B
:101E900090914D040E942F2C811112C08091570403
:101EA00090915804A0915904B0915A04892B8A2B1F
:101EB0008B2B19F481E08093460481E080934504E4
:101EC000CC2309F456C020915F0430916004409106
:101ED000610450916204C701B6010E942F2C87FF54
:101EE00014C020915F0430916004409161045091CE
:101EF000620460914A0470914B0480914C0490916B
:101F00004D040E941F2E87FF22C020915F04309154
:101F100060044091610450916204C701B6010E94BF
:101F20002F2C811126C020915F04309160044091D4
:101F300061045091620460914A0470914B04809155
:101F40004C0490914D040E941F2E181694F4809119
:101F5000570490915804A0915904B0915A04892BC8
:101F60008A2B8B2B19F481E08093460481E08093C7
:101F7000450481E090914504911180E080934904EB
:101F8000C0924A04D0924B04E0924C04F0924D046B
:101F90000130110509F067C180914E0490914F0402
:101FA000892BD9F4109254041092450480912E028A
:101FB000882379F082E090E090934F0480934E0460
:101FC00010922E02209152043091530481E0232B71
:101FD000E9F080E01BC081E009CF10922E028091D1
:101FE0005404882349F01092460410924F04109232
:101FF0004E0410925404EDCF8091520490915304FA
:10200000892BE1F0809145041092450420914E0403
:1020100030914F042230310509F45EC088F4211557
:10202000310509F448C02130310509F4F3C010929C
:102030004604109245041092540438C081E0E6CF63
:102040002330310509F4B1C02430310581F74091C6
:10205000410450914204609143047091440441153D
:1020600051056105710561F041505109610971091E
:10207000409341045093420460934304709344049A
:102080004091410450914204609143047091440492
:10209000452B462B472BD9F4209150043091510405
:1020A0002130310509F046C01092460410924F04C9
:1020B00010924E040CC080912E02882341F082E0E1
:1020C00090E090934F0480934E0410922E02109251
:1020D0003F0480914604CEC08823C9F38091570401
:1020E00090915804A0915904B0915A0418161906F9
:1020F0001A061B060CF07DC0809152049091530487
:10210000019709F076C08091570490915804A091EE
:102110005904B0915A048093410490934204A093CF
:102120004304B093440483E090E090934F04809381
:102130004E04CDCF40915B0450915C0460915D04EE
:1021400070915E04452B462B472BA9F01092460454
:1021500080915B0490915C04A0915D04B0915E0459
:102160008093410490934204A0934304B0934404A9
:1021700081E090E0DACF882399F080912F0290914E
:102180003002A0913102B0913202809341049093C9
:102190004204A0934304B093440484E090E0C5CF8C
:1021A0001092460482E090E0C0CF8091410490916B
:1021B0004204A0914304B09144040097A105B105E5
:1021C00059F00197A109B109809341049093420409
:1021D000A0934304B093440480914104909142043D
:1021E000A0914304B0914404892B8A2B8B2B09F0D6
:1021F0006ECF80912F0290913002A0913102B09168
:102200003202892B8A2B8B2B09F44ECF81E08093ED
:102210004604B3CF4091410450914204609143047D
:1022200070914404411551056105710561F04150FB
:10223000510961097109409341045093420460932C
:1022400043047093440440914104509142046091CE
:10225000430470914404452B462B472B09F037CF9C
:102260008111C7CF9FCF80913F04882309F431CFDC
:1022700080914004CF911F910F91FF90EF90DF90DC
:10228000CF90089510924A0410924B0410924C047F
:1022900010924D041092490410924F0410924E0473
:1022A0001092480410924704109269041092680436
:1022B0001092460410924504109241041092420478
:1022C00010924304109244041092400410923F0470
:1022D00010926404109265041092660410926704D0
:1022E0001092630410925F041092600410926104D3
:1022F0001092620488EE93E0A0E0B0E080932F0299
:1023000090933002A0933102B093320210925B049A
:1023100010925C0410925D0410925E0410925704B7
:10232000109258041092590410925A0410925604B4
:102330001092550481E080932E0210925404109262
:10234000530410925204109251041092500490E0E1
:1023500080E008958091520490915304892B19F5DF
:1023600080912E02882351F080915404811106C07F
:1023700081E08093400480933F04089520915404A9
:1023800030912E0281E090E0332311F090E080E064
:1023900030E082239323892B21F01092400481E0C6
:1023A000EACF10923F04089582E090E0FA01918311
:1023B00080838FEF9FEF0895CF93DF93EA0100971B
:1023C00011F00E9477241982188290E080E0DF915A
:1023D000CF910895DB01009719F48FEF8C93089546
:1023E0002EEF2C93FC013F96EF30F10508F034C03E
:1023F0008827E250FE4E8F4F0C94513A2A12281231
:102400002612241222121E1220121C121A12181244
:10241000151211120D1213122C1280E311968C93C7
:10242000089589E2FBCF82E2F9CF11961C920895BC
:1024300083E2F4CF81E2F2CF81E1F0CF87E2EECF09
:102440008AE2ECCF80E1EACF84E2E8CF88E2E6CF0F
:1024500086E2E4CF81E3E2CF80E2E0CF80917604B0
:10246000909177040895909377048093760408956B
:1024700080917504089590917504892B809375045B
:102480000895982F90958091750489238093750401
:10249000089580917404089580917204909173045A
:1024A00008956115710559F0FB0130E020E070E0FE
:1024B00060E02417350719F06115710511F0CB01A3
:1024C0000895A081B181A817B90709F4BF012F5F52
:1024D0003F4F3696EECF8091780481111CC060D2B8
:1024E00066D290936B0480936A040E947E1C0E94C3
:1024F000901C90936F0480936E040E94FE200E94B3
:10250000052190936D0480936C0481E0809378049E
:1025100090E080E0089584EF9FEF08958F929F925E
:10252000AF92BF92CF92DF92EF92FF920F931F93E1
:10253000CF93DF9300D000D000D01F92CDB7DEB78D
:102540001A86198618861F821E821D821C821B8293
:102550001A8219828091780407EF1FEF882309F40B
:102560009CC08E010D5F1F4F9E012B5F3F4FAE0140
:10257000495F5F4FBE01675F7F4F90E080E00E9440
:1025800082228C01009721F00596029708F0DBC0AB
:1025900029853A852115310509F402C1ED80FE80B7
:1025A0004B815C81B701640F751F8F8198858617F9
:1025B000970708F4F5C0E20EF31ED7019C91903CFA
:1025C00009F07FC04230510508F47BC011968C9110
:1025D0004091760450917704452B09F49CC0913FBB
:1025E00008F071C02CE1290F2D3008F48BC02DE2CA
:1025F000290F203108F489C0903C21F481508230A9
:1026000008F483C088E3890F8B3008F481C09AEE08
:10261000C92E91E1D92EE4EDF1E16D817E81AE010B
:102620004F5F5F4F89859A8519955C01C114D1046C
:10263000A1F189809A808114910479F18B819C8128
:102640008815990508F487C010E000E04B815C8193
:1026500070E060E0C7010E94873A01151105E9F4B6
:1026600049815A8169857A858D819E81680F791F9C
:10267000C501F6011995E980FA800D811E812F812F
:10268000388549855A856FEF7FEF81E090E00E94A1
:102690001D228C01892B09F056C0C8012A960FB65D
:1026A000F894DEBF0FBECDBFDF91CF911F910F9188
:1026B000FF90EF90DF90CF90BF90AF909F908F9062
:1026C000089580E085CF30E020E0220F331FF9012C
:1026D000E659FB4F0190F081E02D309709F497CF38
:1026E000892F90E01995009709F491CFDC0112969B
:1026F000ED91FC9113971496CD90DC90309709F0F2
:102700008CCF1FC021E030E0E0CF22E030E0DDCF11
:1027100023E030E0DACFD12CC12CECEDF1E19F3F8A
:1027200009F07BCFE0916A04F0916B04309721F4BB
:10273000C90104EF1FEF0CC08FEF90E019950097CF
:10274000A9F604EF1FEF89859A85009709F4A5CFB4
:102750000E947724A2CF0E944C238C0189859A8500
:102760000E94772470E060E0C4010E94E52298870F
:102770008F830E941A229E838D836F8178856115D5
:10278000710559F0C8010E94DA259A87898706EFFA
:102790001FEF892B09F058CF59CF08EF1FEF56CF05
:1027A00008EF1FEFD0CF20917804222319F020E00A
:1027B0000C94951C87EF9FEF08958091760490917B
:1027C000770408950E940A210E946420F5D0EAE669
:1027D000F4E088E0DF011D928A95E9F71092780411
:1027E00090E080E008950C94C31E21E040E050E0AA
:1027F000BA010C94951C86E090E0FA0191838083E5
:1028000090E080E0089547E050E06CE572E049CE4A
:10281000DF92EF92FF920F931F93CF93DF938A0182
:10282000EC01C60FD71FE0907C04F0907D04D980A6
:102830000E943423D816190678F082E090E0F8015F
:10284000918380838EEF9FEFDF91CF911F910F9146
:10285000FF90EF90DF900895EF2841F482E090E040
:10286000F8019183808384EF9FEFEECF898180937D
:102870007B0490E00196F8019183808390E080E0F2
:10288000E3CFCF93DF93EA010E94741F882321F0E6
:102890000E9441230E94751F82E090E09983888303
:1028A0008BEF9FEFDF91CF910895CF93DF93EB01F3
:1028B00086E0FB0111928A95E9F78FEF8883D8DDD6
:1028C0008983E7DD8A83E8DD9D838C83DF91CF9167
:1028D0000895CF93DF93EA010E94771F811109C009
:1028E00082E090E09983888385EF9FEFDF91CF911D
:1028F000089590E080E0B7DD81E090E099838883DF
:1029000090E080E0F3CF0F931F93CF93DF93EA0122
:102910008C01060F171F0E94771F81110BC082E0E8
:1029200090E09983888385EF9FEFDF91CF911F918E
:102930000F910895F8018181823038F082E090E0B3
:10294000998388838EEF9FEFF0CF81E090E08BDD5D
:1029500088E090E09983888390E080E0E6CFCF9391
:10296000DF930097D1F4EB01FB01329686E0DF01A3
:102970001D928A95E9F78FEF888385E089831A8213
:102980000E9434238B830E9433239D838C8381E0B8
:102990008E838F83DF91CF910895DF91CF911ACDF0
:1029A00083E094E190937A04809379040895809170
:1029B000790490917A04089510927A04109279041F
:1029C000089580917C0490917D040895411105C083
:1029D000611571058105910561F060937C04709328
:1029E0007D0480937E0490937F044093800481E073
:1029F000089580E00895FF920F931F93CF93DF9384
:102A00008A01EC01C60FD71FF9800E943423F81603
:102A1000190668F082E090E0F801918380838EEFE0
:102A20009FEFDF91CF911F910F91FF9008956C81DF
:102A30007D818E819F814B81C9DF811108C082E039
:102A400090E0F8019183808384EF9FEFEACF898142
:102A500080937B0490E00196F8019183808390E05D
:102A600080E0DFCFCF93DF93EA01FC01E60FF71F91
:102A700064817581868197814381A8DF811109C0B6
:102A800082E090E09983888384EF9FEFDF91CF917C
:102A9000089581E090E09983888390E080E0F6CF0C
:102AA000ECE7F4E04081518162817381480F511D50
:102AB000611D711D40835183628373830895CF9399
:102AC000C0917B044C2F50E060917C0470917D0498
:102AD00001960E947E3A8C2FE3DF10927B04CF9107
:102AE0000895009799F480917C0490917D042FEFD4
:102AF000FB012083892B59F020917B0430E02F5F6C
:102B00003F4F2417350719F4CB01D9CF63CC089573
:102B1000009799F480917C0490917D042FEFFB0144
:102B20002083892B59F020917B0430E02F5F3F4FA9
:102B30002417350719F4CB01C2CF4CCC089523E1FB
:102B4000AC01249FC001259F900D1124E0918504C4
:102B5000F0918604E80FF91F238134812250310956
:102B600081E02230310508F080E008950F931F9333
:102B7000CF93DF930091870410918804D0E0C0E0E8
:102B800080E00C171D0749F491E0811190E0892F36
:102B9000DF91CF911F910F9108958111F5CFCE0153
:102BA000CEDF2196EECFA0918504B09186041097D8
:102BB00029F1209187043091880482179307F0F45B
:102BC00053E1589F9001599F300D1124A20FB31F5C
:102BD000ED91FC911197309789F012968C916817BE
:102BE00068F48BE0689FE00DF11D112480819181D4
:102BF000892B21F081E09281491708F080E0089547
:102C00009C0143E1429FC001439F900D1124E0913C
:102C10008504F0918604E80FF91F8385823099F4CA
:102C200081E090E0658176814091330250913402D9
:102C30006417750711F490E080E0892B21F081E0A2
:102C40002330310508F080E00895EF92FF920F9352
:102C50001F93CF93DF93EA01FC01E60FF71F028178
:102C60001381E480F5804F2D6E2DC8019CDF81110A
:102C70000DC082E090E0998388838EEF9FEFDF9113
:102C8000CF911F910F91FF90EF900895C80157DFEA
:102C9000882339F082E090E09983888388EF9FEF62
:102CA000EECF10933A0200933902E0923B02F09289
:102CB0003C0281E090E09983888390E080E0DFCF60
:102CC000CF92DF92EF92FF920F931F93CF93DF93F8
:102CD0007A01EC01C60FD71FC0903902D0903A029A
:102CE00000913B0210913C02412F602FC6015BDF37
:102CF000811110C082E090E0F701918380838AEF18
:102D00009FEFDF91CF911F910F91FF90EF90DF9098
:102D1000CF900895C60113DF882341F082E090E050
:102D2000F7019183808388EF9FEFEBCF4C815D812A
:102D30006E817F819A8189818F3F41F082E090E0AE
:102D4000F701918380838EEF9FEFDBCFE3E1EC9D72
:102D50009001ED9D300D1124E0918504F0918604E1
:102D6000E20FF31F0190F081E02D2BE0029FE00DB8
:102D7000F11D11240190F081E02D27E0129FE00D5C
:102D8000F11D1124808391838B818283438354833B
:102D9000658376831F5F10933C0281E090E0F7012A
:102DA0009183808390E080E0ACCFEF92FF920F930D
:102DB0001F93CF93DF937A018C01060F171FC091E9
:102DC0008504D0918604209781F021E030E0F8015D
:102DD00082819381409187045091880484179507DC
:102DE00010F030E020E0232B71F482E090E0F70156
:102DF000918380838EEF9FEFDF91CF911F910F9191
:102E0000FF90EF90089543E1489F9001499F300D56
:102E10001124C20FD31F93DE882341F082E090E09B
:102E2000F7019183808388EF9FEFE6CFF80124813B
:102E3000358120383105C8F687818111D6CF41818F
:102E4000842F90E08F7E009741F082E090E0F701C0
:102E50009183808386EF9FEFCFCF4F833E832D8377
:102E6000268128871986223010F421E0288721E066
:102E700030E0F70131832083BFCF88E090E0FA0192
:102E80009183808390E080E00895FB018FEF808341
:102E900081E181838FEF9FEF9383828380E890E0CD
:102EA00095838483168217820895FB018FEF8083B8
:102EB00091E0918382839383848384E3858381E09B
:102EC00090E0978386830895BF92CF92DF92EF922E
:102ED000FF920F931F93CF93DF93DA01FC01E60F6C
:102EE000F71F8181813081F082E090E08D939C9387
:102EF0008FEF9FEFDF91CF911F910F91FF90EF9098
:102F0000DF90CF90BF900895C281D381B480858136
:102F100006811781E0908504F0908604E114F104A5
:102F200039F482E090E08D939C938CEF9FEFE2CF99
:102F30002091870430918804C217D30738F082E0CB
:102F400090E08D939C938EEF9FEFD4CFC330D1054B
:102F500038F082E090E08D939C9386EF9FEFCACF8C
:102F60009B2D9D7FB1F78130A1F7B11005C00130D5
:102F7000110531F080E004C081E002301105D0F38A
:102F8000882339F36D01CE01DADD882341F082E038
:102F900090E0F6019183808388EF9FEFABCF83E1D0
:102FA0008C9FF0018D9FF00D1124EE0DFF1DB38657
:102FB00081E0848716870587108A178681E090E074
:102FC000F6019183808390E080E094CF4CE050E064
:102FD00066E872E066CA8F929F92BF92CF92DF92AC
:102FE000EF92FF920F931F93CF93DF93EA01FC01BF
:102FF000E60FF71F828193810481B580E0918504FB
:10300000F0918604309791F482E090E09983888370
:103010008CEF9FEFDF91CF911F910F91FF90EF9079
:10302000DF90CF90BF909F908F900895209187045C
:10303000309188048217930738F082E090E09983FA
:1030400088838EEF9FEFE6CF23E1289F6001299FC1
:10305000D00C1124EC0DFD1DE080F180E114F10491
:1030600099F28281081748F78BE0089F80011124AC
:10307000E00EF11EF70180819181892B29F6BB209A
:10308000E1F2F7E0BF9E40011124C4010E9429240F
:10309000F70191838083E0918504F0918604EC0D23
:1030A000FD1D0190F081E02DE00FF11F80819181E5
:1030B000009739F482E090E0998388838DEF9FEF49
:1030C000A9CFA40170E060E00E94873A8091850456
:1030D00090918604C80ED91EF60180819181080F57
:1030E000191FF801B28281E090E09983888390E013
:1030F00080E090CFAF92BF92CF92DF92FF920F937A
:103100001F93CF93DF93EA01FC01E60FF71F828143
:103110009381F480009185041091860401151105B6
:1031200081F482E090E0998388838CEF9FEFDF91B8
:10313000CF911F910F91FF90DF90CF90BF90AF90F4
:10314000089520918704309188048217930738F0FE
:1031500082E090E0998388838EEF9FEFE8CF2FEF96
:103160002F0D2C3FA8F723E1289F6001299FD00C49
:1031700011240C0D1D1DF80180819181892B89F688
:10318000FBE0FF9E50011124C5010E942924F80193
:1031900091838083E0918504F0918604EC0DFD1D00
:1031A00080819181009739F482E090E0998388834F
:1031B0008DEF9FEFBCCFA50170E060E00E94873AE1
:1031C000E0918504F0918604EC0DFD1DF28281E012
:1031D00090E09983888390E080E0A9CFCF92DF923E
:1031E000EF92FF920F931F93CF93DF93860F971F5A
:1031F000FC01028113818091850490918604892BC2
:1032000081F082E090E0FA01918380838CEF9FEF60
:10321000DF91CF911F910F91FF90EF90DF90CF90B2
:103220000895C801B0E0A0E00197A109B1098F3F5E
:103230009F4FA105B10540F082E090E0FA01918333
:1032400080838EEF9FEFE4CF7A0183E1809F60015E
:10325000819FD00C1124C6010E942924EC01009703
:1032600041F482E090E0F701918380838DEF9FEF3E
:10327000CFCFA60170E060E00E94873AD093860429
:10328000C0938504109388040093870490E080E045
:103290002FEF3FEF41E061E070E08017910741F4CC
:1032A00081E090E0F7019183808390E080E0B0CFEF
:1032B0003A8B298B1B864C877E876D87188A1F86E1
:1032C00001966396EACFCF92DF92EF92FF920F932F
:1032D0001F93CF93DF93EC01D12CC12C10E000E0C1
:1032E000F12CE12C6A816017110609F0CCF483E01F
:1032F000689FB0011124AE014F5E5F4FC7010E946D
:10330000A324009721F02FEF3FEF3A8B298BDF9119
:10331000CF911F910F91FF90EF90DF90CF90089584
:10332000E881F981EC0DFD1D438154818D859E85D9
:10333000489F9001499F300D589F300D1124C901BD
:1033400001960115110519F44F8144FD049661E0C1
:1033500070E00E94E522E816F90608F47C010F5F90
:103360001F4F8BE0C80ED11CBDCFF8942091830471
:103370003091840481E02115310509F080E0232B90
:1033800009F0789408952F923F924F925F926F9236
:103390007F928F929F92AF92BF92CF92DF92EF92E5
:1033A000FF920F931F93CF93DF933C01660E771E1E
:1033B000F301828193814C01B12CA12CC091850431
:1033C000D0918604209769F021E030E06091870475
:1033D000709188048617970710F030E020E0232BC7
:1033E000D1F482E090E0FA01918380838EEF9FEF29
:1033F000DF91CF911F910F91FF90EF90DF90CF90D1
:10340000BF90AF909F908F907F906F905F904F9004
:103410003F902F90089580923D0290923E02A0929C
:103420003F02B092400263E1689F9001699F300DB6
:103430001124C20FD31FF3018181833040F082E059
:1034400090E0FA019183808386EF9FEFD1CF2A012C
:103450002B813C81232BF1F4288139819F8191FFBD
:103460002EC0232B09F46FC020918A049A81422F29
:10347000490F5527551FBA0141E050E061387105E9
:1034800014F050E040E0452B09F45DC02A87920F0C
:1034900090938A048150823008F481C066DF8823CB
:1034A00009F4D8C0F3018181813009F48DC008F49A
:1034B0007BC0823009F4C6C090E080E0ADC0232B11
:1034C00009F441C0209189049A81E22FE90FFF2776
:1034D000FF1F41E050E0ED3FF10514F050E040E007
:1034E000452B89F12A87920F90938904D3CFA0812D
:1034F000B181A20FB31F11966C91060F111D019699
:10350000295F3F4F8417950794F38D859E85089F0B
:103510001001099F300C189F300C1124C114D104E4
:10352000D1F48F8184FF17C00E943323F5E02F0E62
:10353000311C21E08215930508F420E0A701455FC6
:103540005F4F21110EC082E090E0F20191838083F1
:1035500087EF9FEF4DCF0E9433232FEF221A320ABD
:10356000E8CF88819981E80EF91EF701148303835F
:10357000FFEFCF1ADF0A7A018A818C151D0409F04A
:103580000CF48CCFE881F981EE0DFF1D428150E0F3
:1035900030E020E010E000E090E080E0B3CFF12CDC
:1035A000E12CD12CC12CE8CF81E090E09C838B836F
:1035B000DDDA882309F480CF81E090E00E943312A5
:1035C00080E40E94411278CF89899A89019661F03E
:1035D00083E090E09C838B8382E090E00E94331232
:1035E00080E40E943B1268CF2D813E81809133029E
:1035F0009091340228173907D1F460913702709105
:103600003802AE014F5E5F4F8091350290913602D5
:103610000E9499250097E1F2789422E030E0F201CF
:1036200031832083892B99F08DEF9FEFE1CE23E04A
:1036300082169104A104B1045CF6CE0144DE188A1E
:103640001F86E8CF82E090E09C838B8335CF90E0AB
:1036500080E0CECE82E090E0F2019183808385EF1E
:103660009FEFC6CE8F929F92AF92BF92CF92DF9282
:10367000EF92FF920F931F93CF93DF93EA018C0198
:10368000060F171FF8018181833098F082E090E0E7
:103690009983888386EF9FEFDF91CF911F910F91E0
:1036A000FF90EF90DF90CF90BF90AF909F908F9062
:1036B00008958091850490918604892B61F081E0C2
:1036C00090E02091870430918804232B11F490E03E
:1036D00080E0892B39F482E090E0998388838EEF33
:1036E0009FEFDACF42DE882309F4DEC0F801818142
:1036F000813009F494C0E8F0823099F42091870475
:1037000030918804E0918504F091860490E080E097
:1037100041E050E02817390709F0BCC027DA8111D1
:1037200017C0789481E090E09983888390E080E0EE
:10373000B3CF2091870430918804E0918504F09103
:10374000860490E080E041E050E02817390741F41A
:1037500081E090E00E94331280E40E944112E1CFA8
:1037600063817481672B11F05483438301967396B0
:10377000ECCFE0918504F0918604E00FF11F2381E6
:10378000348122303105D9F4218932892F3F3F4FCE
:10379000B1F44581568120913302309134024217B1
:1037A000530761F5AF014F5E5F4F60913702709133
:1037B000380280913502909136020E9499254FEF90
:1037C000C41AD40AE40AF40A0D5E1F4F409187041C
:1037D0005091880470E060E0C416D506E606F7064E
:1037E00034F5009731F27894892B09F49BCF82E06D
:1037F00090E0998388838DEF9FEF4ECF23E0C21630
:10380000D104E104F104DCF6CF015DDDE091850433
:10381000F0918604E00FF11F108A1786D0CF10E0D8
:1038200000E090E080E0C12CD12C7601CFCF009752
:10383000D1F610E000E0812C912C540183E0E82EB9
:10384000F12C1AC0E0918504F0918604E00FF11F7D
:1038500083819481029749F4F482E38282E090E0CC
:103860000E94331280E40E943B128FEF881A980A5C
:10387000A80AB80A0D5E1F4F8091870490918804B2
:10388000B0E0A0E088169906AA06BB06DCF290E03C
:1038900080E0A9CF638174816230710511F4548393
:1038A00043830196739636CF82E090E099838883B4
:1038B00085EF9FEFF1CE0097B9F48FEFFB01808386
:1038C00020913D0230913E0243E1429FC001439F5F
:1038D000900D1124E0918504F0918604E80FF91F02
:1038E0008285FB01818308950C94EA1188E090E0C1
:1038F000FA019183808390E080E00895109284041F
:1039000010928304E5E8F4E086E0DF011D928A95D9
:10391000E9F786EE97E190938204809381040895FD
:10392000809181049091820408952F923F924F924A
:103930005F926F927F928F929F92AF92BF92CF923F
:10394000DF92EF92FF920F931F93CF93DF93CDB748
:10395000DEB760970FB6F894DEBF0FBECDBFF89408
:10396000E0918304F09184043196F0938404E09311
:1039700083047894A0918504B0918604BA83A983C6
:10398000109709F4FAC1E0918704F0918804EF2BB5
:1039900009F4F3C128874B875C876D877E879A87F8
:1039A0008987B88BAF87312C212CF12C512C412CDD
:1039B00080918704909188042816390610F4FF201E
:1039C00029F1F89480918304909184040197909355
:1039D0008404809383047894C20160960FB6F894AF
:1039E000DEBF0FBECDBFDF91CF911F910F91FF9032
:1039F000EF90DF90CF90BF90AF909F908F907F908F
:103A00006F905F904F903F902F900895B10190E09C
:103A100080E087D4682EEF85F889878181FD3DC0DD
:103A2000838194810397C9F5258136813C832B835B
:103A300089859A852817390781F5C101E1D8782E43
:103A40008823A9F1AF85B8891F968D919C915097D5
:103A5000019621E01D964D915C918417950709F020
:103A600020E02F83B12CA12CEF85F88982818A1563
:103A70001B0419F014F0FF20E9F0F885FF2309F486
:103A80006CC1AF85B88950961C921E921F97662014
:103A900021F0B10190E080E046D4FFEF2F1A3F0AF9
:103AA0002F8538892D5E3F4F388B2F8781CFB1E02E
:103AB000BF83D8CFBFD49E838D83E885EE23E9F002
:103AC000772009F43CC1AF85B8891F968D919C91F0
:103AD000892B79F0BBE0BA9DC001BB9D900D1124EC
:103AE000AF85B889ED91FC91E80FF91F858196812A
:103AF000FED6BFEFAB1ABB0AB7CF81E0772039F013
:103B0000EF85F88927853089232B09F080E0F82E8E
:103B1000E12CA114B10439F4AF85B8891796EC9063
:103B2000E4FAEE24E0F8BBE0BA9D6001BB9DD00C46
:103B30001124882309F424C1AF85B889ED91FC9143
:103B40001197EC0DFD1D438154811D962D913C91E3
:103B5000429FC001439F900D529F900D1124E11090
:103B60005DC001969087878361E070E087819085D2
:103B70002CD5EF85F88921893289008111810C0DBE
:103B80001D1D2F3F320709F44BC0BC01C9010E9423
:103B9000DA25D80116969C938E931597AF85B88930
:103BA000ED91FC911197EC0DFD1D0581168101151C
:103BB000110509F4CDC0ED81FE810E0F1F1F1A966D
:103BC0008C918A0DD8018C93E1102FC00F5F1F4F8D
:103BD000AF85B889ED91FC91EC0DFD1D1287018731
:103BE000AF85B889ED91FC91EC0DFD1D8581968125
:103BF000892B09F4A4C080913302909134022B8167
:103C00003C812817390709F465C0772011F0018538
:103C10001285912C812C1A8219824AC00596A2CF56
:103C200018D6F80196838583B9CF8B859C85AD85A1
:103C3000BE85F80181839283A383B4830B5F1F4FFA
:103C4000C7CFE080F180E80CF91CD70113966D9185
:103C50007C9114978C918F3F09F473C0E1E0F0E000
:103C600002C0EE0FFF1F8A95E2F7CF01092E000C6C
:103C7000AA0BBB0BFB0140815181628173818423BC
:103C80009523A623B72321E0892B8A2B8B2B09F4BC
:103C900020E0D8012C93D70111968C91080F111DAB
:103CA000E981FA813196FA83E983F7E08F0E911C5E
:103CB000AF85B889ED91FC91EC0DFD1D82812981C4
:103CC0003A818217130611F00CF0BBCF772011F068
:103CD000128701873F81332391F1AF85B889ED9138
:103CE000FC91EC0DFD1D61E070E0878190856DD445
:103CF000AF85B889ED91FC91EC0DFD1DE780F08456
:103D000045815681E1E0F0E0662011F0F0E0E0E06E
:103D10000D811E819C01B101882799278E1B9F0B65
:103D20008CD32C01892B59F0EF85F8898081918102
:103D3000C80ED91ED60115968D919C91D8D5F12C1F
:103D4000D8CEF701418150E0C8010E947E3AA3CF4E
:103D500086EF482E55245A94CCCEEF85F889878576
:103D600090890196908B87872585368582179307E2
:103D700009F08DCE108A17868ACE512C412C21CE87
:103D800010E000E02DCF2F923F924F925F926F9202
:103D90007F928F929F92AF92BF92CF92DF92EF92DB
:103DA000FF920F931F93CF93DF938091850490919F
:103DB000860410E000E0892BA9F0D7DA0AEF1FEFA4
:103DC000882381F02090870430908804C091850476
:103DD000D0918604D12CC12C10E000E02C143D04BD
:103DE000A9F47894C801DF91CF911F910F91FF90B2
:103DF000EF90DF90CF90BF90AF909F908F907F908B
:103E00006F905F904F903F902F900895C6010E9451
:103E10000016882309F18B819C810397E9F48F8533
:103E20009889892BC9F0B60190E080E07AD221E030
:103E300030E0882311F030E020E044245524421A79
:103E4000530AB12CA12C912C812C8A81881519043C
:103E500009F038F4188A1F864FEFC41AD40A639603
:103E6000BDCFE881F981EA0DFB1D85819681892B03
:103E7000A1F161E070E087819085A7D33C01DAD29F
:103E80008C01E881F981EA0DFB1D818592852581F0
:103E90003681200F311FAC01421B530B9A01478121
:103EA0005085421B530B70E060E00E94873AE88126
:103EB000F981EA0DFB1DE780F0844581568193016D
:103EC000B601C201BAD28C01892B39F0E881F9819F
:103ED000EA0DFB1D858196810AD55FEF851A950A4B
:103EE0008BE0A80EB11CB1CF40CA789408952F92F0
:103EF0003F924F925F926F927F929F92AF92BF924A
:103F0000CF92DF92EF92FF920F931F93CF93DF93A5
:103F100000D000D0CDB7DEB70091850410918604A3
:103F2000992493940115110509F43EC0A0908704CB
:103F3000B09088041ADA982E8823B1F11092860482
:103F400010928504109288041092870410928904BC
:103F500010928A048FEF9FEFDC0180933D029093D3
:103F60003E02A0933F02B093400278947ED31E831A
:103F70000D83C12CD12C7601C501B0E0A0E089836E
:103F80009A83AB83BC8322242A94322C89819A8120
:103F9000AB81BC81C816D906EA06FB06F4F0C8015D
:103FA000A6D480E40E944112892D26960FB6F8947B
:103FB000DEBF0FBECDBFDF91CF911F910F91FF905C
:103FC000EF90DF90CF90BF90AF909F907F906F90D9
:103FD0005F904F903F902F900895AD81BE811596D0
:103FE0002D913C91169780913302909134022817BD
:103FF0003907D1F451968D919C91CAD5ED81FE81FE
:1040000080819181B12CA12C412C512C3201892B22
:1040100081F5BFEFCB1ADB0AEB0AFB0AED81FE81CB
:104020007396FE83ED83B2CFB3E0CB16D104E104E7
:10403000F10424F7ED81FE81818992898F3F9807F1
:1040400009F01DD5AD81BE8152963C922E925197BA
:10405000D5CF8A0D9B1DDC018D919C91009709F0B5
:1040600046D4BFEF4B1A5B0A6B0A7B0AEBE0AE0E3D
:10407000B11CAD81BE818D919C91119712964C918E
:1040800050E070E060E044165506660677060CF3D3
:104090002ED4BFCFCF93DF93EA0129DF811109C06E
:1040A00082E090E09983888385EF9FEFDF91CF9145
:1040B000089581E090E00E94331281E090E09983BE
:1040C000888390E080E0F2CF12DF10928204109299
:1040D0008104089542E050E06EEC72E00C945112BD
:1040E000FF920F931F93CF93DF938A01EC01C60FCA
:1040F000D71FF980B9D20897F816190671F068F041
:1041000082E090E0F801918380838EEF9FEFDF9152
:10411000CF911F910F91FF9008956C817D818E81C9
:104120009F814B810E94E614811108C082E090E0DB
:10413000F8019183808384EF9FEFE9CFF9800E949B
:10414000E1144F2D50E0BE01685F7F4F0E947E3A20
:1041500089810E94501581E090E0F801918380836D
:1041600090E080E0D4CFDF92EF92FF920F931F9305
:10417000CF93DF938A01EC01C60FD71F0E94E11491
:104180007C01D98071D2DD2059F0029721E030E026
:10419000D816190619F010F030E020E0232B79F43E
:1041A00082E090E0F801918380838EEF9FEFDF91B2
:1041B000CF911F910F91FF90EF90DF900895EF281E
:1041C00041F482E090E0F8019183808384EF9FEFD7
:1041D000EECFF9800E94E1144F2D50E0BE016E5FDA
:1041E0007F4F0E947E3A89810E94501581E090E0C5
:1041F000F8019183808390E080E0D9CF8AE690E255
:1042000090938C0480938B04089580918B049091FB
:104210008C0408950895FC01118210829383828397
:104220000895DB011D921C92DC011296ED91FC9128
:1042300013977183608313967C936E9312970895FE
:10424000FC0180819181DB018D939C93A081B181E0
:10425000109741F08D919C9191838083892B11F46B
:10426000F383E2830895FC0180819181DB018D93CA
:104270009C93892B11F47383628371836083089507
:10428000FC0111821082938382830895CF93DF9380
:104290001F921F92CDB7DEB71A821982F894BE0121
:1042A0006F5F7F4F82E994E0CBDF89819A8100972D
:1042B00009F01DD389819A81892B89F7BE016F5F2F
:1042C0007F4F86E994E0BCDF89819A81009709F0ED
:1042D0000ED389819A81892B89F778940F900F905A
:1042E000DF91CF910895CF93DF931F921F92CDB7A7
:1042F000DEB71A821982F894BE016F5F7F4F8EE895
:1043000094E09EDF89819A81009709F0F0D289813B
:104310009A81892B89F778940F900F90DF91CF9134
:10432000089581E0089590E080E00895EF92FF9273
:104330000F931F93CF93DF931F921F92CDB7DEB7DA
:104340001A82198280918D0407EF1FEF8823A1F153
:10435000F894BE016F5F7F4F86E994E071DF789437
:1043600089819A81EE24E394F12C892B51F4F894FD
:10437000BE016F5F7F4F82E994E062DF7894F12C99
:10438000E12C89819A810EEF1FEF0097A9F0FC01C3
:104390004281538164E070E00AD68C01892B61F080
:1043A000F89469817A81C701880F991F880F991F36
:1043B0008E569B4F58DF7894C8010F900F90DF9175
:1043C000CF911F910F91FF90EF9008950F931F933E
:1043D000CF93DF9300D01F92CDB7DEB71C821B8234
:1043E0001A82198280918D0407EF1FEF8823C1F094
:1043F000AE014D5F5F4F64E070E0CE0101964AD69A
:104400008C01892B69F4E981FA818B819C819383EA
:104410008283F89469817A818EE894E002DF78944F
:10442000C8010F900F900F900F90DF91CF911F91C7
:104430000F9108954FD7049608958F929F92AF924F
:10444000BF92CF92DF92EF92FF920F931F93CF9381
:10445000DF931F921F92CDB7DEB71A821982BC017B
:104460006F5F7F4F6330710598F0AA24AA94BA2C2D
:10447000C5010F900F90DF91CF911F910F91FF9089
:10448000EF90DF90CF90BF90AF909F908F90089566
:104490004115510551F3480159018A016C01CADFE8
:1044A0008815990511F7E114F104F9F28E0D9F1D9D
:1044B000A816B906D0F280918D048823F1F0F89403
:1044C000B501645071099701AE014F5F5F4FC8019C
:1044D000049675D65C01892B71F489819A81F80163
:1044E00093838283C601880F991F880F991FB80193
:1044F0008E569B4F96DE7894BBCF87EFA82EBB24B9
:10450000BA94B6CFAF92BF92CF92DF92EF92FF9262
:104510000F931F93CF93DF931F921F92CDB7DEB7F8
:104520001A821982892B09F047C06115710509F4B7
:1045300043C04115510509F43FC02115310509F467
:104540003BC001151105C1F180918D048823B9F19B
:1045500079016A015B01F894BE016F5F7F4F8EE8BD
:1045600094E06EDE789489819A81009759F1DC019C
:1045700012966D917C91A80104963AD68C01E9813E
:10458000FA81D501ED93FC93828193810496F60123
:10459000918380834FDFD7018D939C93C8010F9047
:1045A0000F90DF91CF911F910F91FF90EF90DF90CF
:1045B000CF90BF90AF9008950FEF1FEFEFCF07EFB1
:1045C0001FEFECCF0EEF1FEFE9CFCF93DF93EC019E
:1045D000672B71F488D68C179D0760F07BD62496E4
:1045E000C80FD91F7AD68C0F9D1FDF91CF910895E8
:1045F00077D6F1CF90E080E0F8CF0F931F93CF9361
:10460000DF9320918D0421112BC08B01EC0182E9F5
:1046100094E001DE86E994E0FEDD8EE894E0FBDDC7
:1046200097D00097C1F45FD670E060E0CEDF41E440
:1046300052E062E070E087D1009769F48091410216
:104640009091420262D6B801CE0197D4009719F436
:1046500021E020938D04DF91CF911F910F91089558
:1046600084EF9FEFF8CF3CC63EC6CF93DF933ED694
:10467000EC01892B11F40ADE36DECE01DF91CF91F9
:104680000895CF93DF9332D6EC01892B09F4FEDD38
:10469000CE01DF91CF910895809141029091420225
:1046A0000895CF93DF9380918D04D0E0C0E08823FC
:1046B000D1F030D6EC01892BB1F4E8DD14DE809125
:1046C000410290914202DBD1C5D2EC01892B59F411
:1046D00082E994E0D5DD86E994E0D2DD8EE894E0CD
:1046E000CFDD10928D04CE01DF91CF910895EF922E
:1046F000FF920F931F93CF93DF93EC017A018B010D
:104700000F5F1F4F0E9DA0010F9D500D1E9D500D60
:10471000112470E060E00E94873A90E080E0F0E0D1
:10472000E0E02FEFE816F90639F4DF91CF911F9101
:104730000F91FF90EF9008951A8219822883309785
:1047400011F0D283C1830196FE01C00FD11FEACFC1
:10475000AF92BF92CF92DF92EF92FF920F931F938F
:10476000CF93DF9383E995E07C012CEFE2228AED81
:10477000C82E82E0D82E90EEA92E92E0B92EC2EF7C
:10478000D5E08E01D6014D915D916D01F5016191EC
:1047900071915F01D8011196FC92EE9215965C938F
:1047A0004E93149713965C934E93129717967C939F
:1047B0006E9316979B012F5F3F4F249FC001259F4B
:1047C000900D349F900D112419969C938E931897F9
:1047D000E114F10411F0C7018ADFF80180859185A9
:1047E000E80EF91E065F1F4FF0EECF16F2E0DF066F
:1047F00049F6ECE9F4E084EFDF011D928A95E9F7D0
:1048000010929B0410929A048AE196E01F8E1E8EED
:104810001BA21AA219A218A21DA21CA21FA21EA2AC
:104820002A968C179D0791F71092EF051092EE05CE
:104830001092F1051092F00590E080E0DF91CF91A9
:104840001F910F91FF90EF90DF90CF90BF90AF90AE
:104850000895009799F1F8948930910550F480916A
:10486000F4059091F505892B39F020E090E080E087
:1048700018C08132910550F48091FE059091FF059A
:10488000892B31F021E081E090E00BC0C197A8F4C2
:104890008091080690910906892B79F022E082E048
:1048A00090E0EAE0E89FD001E99FB00D1124AE50FE
:1048B000BA4F8D919C91009721F4789490E080E01C
:1048C0000895E29FF0011124EE50FA4FDC01119699
:1048D0004D915C91518340834281538141505109F4
:1048E00053834283FC012193CF017894089500976C
:1048F00049F1DC018E91873041F4E091F005F091AF
:10490000F1053097F9F0CD0119948730D8F4282FAC
:1049100030E0F8948FEF8C938AE0829FF001839FC0
:10492000F00D1124EE50FA4F8081918112969C93E4
:104930008E931197B183A083828193810196938393
:10494000828378940895CF92DF92EF92FF920F9333
:104950001F93CF93DF939C018FE994E08C7F4115E7
:10496000510509F489C02115310509F485C0611587
:10497000710509F481C08A01AB01B9016D5F7F4FF8
:104980006C7F9B012F5F3F4F249F7001259FF00C90
:10499000349FF00C1124F894E2EFF5E023E030E0CE
:1049A000E901A6A1B7A1C68CD78CCD2809F058C0C3
:1049B000109709F03EC0C0909A04D0909B0421EF5C
:1049C00030E02C193D092E153F0530F47894CFEFD7
:1049D000DFEF86EF9FEF21C02AE02C9FF0012D9F93
:1049E000F00D1124EE50FA4F918380835583448358
:1049F0005383428377836683F186E086009709F0CC
:104A000076DEEC0CFD1CF0929B04E0929A04789404
:104A1000CF3FDC07F1F290E080E0F801D183C08362
:104A2000DF91CF911F910F91FF90EF90DF90CF908A
:104A30000895AE15BF05A0F02AE02C9FF0012D9F30
:104A4000F00D1124EE50FA4F9183808355834483F7
:104A500053834283778366830097C9F248DED7CFBA
:104A60008A0F9B1F2F5F3F4F3A962730310509F081
:104A700097CFCFEFDFEFCBCF8FEF9FEFD1CF9C0161
:104A80000397049708F052C0F89486E09AE0482F04
:104A900050E024173507BCF191E08AE0829FF001D5
:104AA000839FF00D1124EE50FA4F1182108215826F
:104AB00014821382128217821682992301F1809147
:104AC0009A0490919B04E2EFF5E024AD35AD232BE1
:104AD00069F4DF01AC5BBF4F2D913C91119721151B
:104AE000310521F0821B930B1D921C923A9725E011
:104AF000EA3CF20751F790939B0480939A047894D0
:104B000090E080E00895949FF001959FF00D1124AE
:104B1000EE50FA4F40815181452B31F4408551854B
:104B2000452B11F48150B3CF90E0B7CF8FEF9FEFBB
:104B300008954115510549F1009739F16115710545
:104B400021F1F8942091EE053091EF05232BB9F473
:104B50002091F0053091F105232B89F49093EF0516
:104B60008093EE057093F1056093F005789427E04B
:104B700030E090E080E0FA0131832083089578945A
:104B80002FEF3FEF86EF9FEFF6CF8FEF9FEF089568
:104B9000079769F4F8941092EF051092EE051092C1
:104BA000F1051092F005789490E080E008958FEF81
:104BB0009FEF08956115710519F4F0E0E0E011C070
:104BC0008730910581F4E091EE05F091EF05309783
:104BD000A1F3CB0101961995009779F3FC0187E0C9
:104BE0008193CF0108959C01235031092430310570
:104BF00020F72AE0289FD001299FB00D1124AE5044
:104C0000BA4F2D913C911197232BB9F216962D9105
:104C10003C9117972617370780F2F89412962D913A
:104C20003C9113972115310529F0ED91FC911197D5
:104C3000309711F47894C1CF4181528111965C93E1
:104C40004E932150310913963C932E9312978193E2
:104C50007894C7CFE0E9F5E08EE5DF011D928A95F3
:104C6000E9F7ECE9F4E084EFDF011D928A95E9F7BA
:104C700010929B0410929A04E2EFF5E086E4DF01C3
:104C80001D928A95E9F7EEEEF5E084E0DF011D92D2
:104C90008A95E9F790E080E00895CF93DF93C09183
:104CA0004302D0914402CF3FDC0759F4E0D3909304
:104CB00044028093430297FF09C0D0934402C093FB
:104CC000430284EF9FEFDF91CF91089590E080E061
:104CD000FACF8230910528F48093380690E080E086
:104CE00008958FEF9FEF08954F925F926F927F929A
:104CF000AF92BF92CF92DF92EF92FF920F931F93EA
:104D0000CF93DF931F921F92CDB7DEB71A8219821D
:104D1000009709F479C06115710509F475C02091F7
:104D200043023091440207EF1FEF2F3F3F4F09F43A
:104D300045C06B015C01412C512C3201F12CE12C5E
:104D400010E000E09E012F5F3F4FA6014E195F0962
:104D5000B5016E0D7F1D8091430290914402EBD30B
:104D6000892B09F04BC089819A81009741F4E114A5
:104D7000F10429F420913806222309F442C0E80EF8
:104D8000F91EEC14FD04D0F480E8481684E85806B7
:104D90008EE16806710420F560E070E0CB010E94AE
:104DA0006C342AE0420E511C611C711C0A3F4FEF0B
:104DB000140721F0043F8FEF1807A1F4C8010F90EA
:104DC0000F90DF91CF911F910F91FF90EF90DF90A7
:104DD000CF90BF90AF907F906F905F904F9008956D
:104DE00001EF1FEF81E090E0013F2FEF120711F07C
:104DF00090E080E0892B09F4A5CFE0CF04EF1FEF0E
:104E0000DDCF0AEF1FEFDACF0FEF1FEFD7CF4F92B3
:104E10005F926F927F92AF92BF92CF92DF92EF92AA
:104E2000FF920F931F93CF93DF931F921F92CDB7E3
:104E3000DEB71A821982009709F479C061157105ED
:104E400009F475C0209143023091440207EF1FEF2F
:104E50002F3F3F4F09F445C06B015C01412C512CA1
:104E60003201F12CE12C10E000E09E012F5F3F4F5A
:104E7000A6014E195F09B5016E0D7F1D8091430299
:104E8000909144020BD3892B09F04BC089819A8100
:104E9000009741F4E114F10429F42091380622230B
:104EA00009F442C0E80EF91EEC14FD04D0F480E8C9
:104EB000481686E9580688E96806710420F560E01E
:104EC00070E0CB010E946C342AE0420E511C611C40
:104ED000711C0E3F4FEF140721F0043F8FEF1807AE
:104EE000A1F4C8010F900F90DF91CF911F910F9106
:104EF000FF90EF90DF90CF90BF90AF907F906F903A
:104F00005F904F90089502EF1FEF81E090E0023F25
:104F10002FEF120711F090E080E0892B09F4A5CF64
:104F2000E0CF04EF1FEFDDCF0EEF1FEFDACF0FEF73
:104F30001FEFD7CF80914302909144028F3F980793
:104F400049F08CD2892B49F48FEF9FEF9093440264
:104F50008093430290E080E0089584EF9FEF0895EE
:104F6000FC01680F791F90E080E0E617F70709F46D
:104F700008952191820F911DF8CF209139062111BA
:104F800013C08BDE009791F410923F0610923E06FC
:104F900010923D0610923C0610923B0610923A0683
:104FA00021E020933906089584EF9FEF0895AF9292
:104FB000BF92CF92DF92EF92FF920F931F93CF9306
:104FC000DF93009709F460C04630510508F45CC0D7
:104FD00020913906C7EFDFEF222309F449C08C0185
:104FE000060F171FF801C080D180C114D10409F445
:104FF0004EC096012A5F3F4F4217530708F447C03F
:105000007C0180913E0690913F0693838283B60196
:105010006C5F7F4F5801A60EB71EC801A1DFF501D6
:105020009183808364E070E0C8015EDEEC01892B2F
:10503000F9F481E090E04DDEB601C801049654DE3B
:10504000EC01892B91F462E070E0C5014DDEEC01CA
:10505000892B59F4C7014BDC80913E0690913F06A5
:10506000019690933F0680933E0690E080E031DE0B
:10507000CE01DF91CF911F910F91FF90EF90DF90C4
:10508000CF90BF90AF900895CFEFDFEFF1CFC9EF92
:10509000DFEFEECF6F927F928F929F92AF92BF928F
:1050A000CF92DF92EF92FF920F931F93CF93DF93F4
:1050B00000D01F92CDB7DEB7009709F47AC0411532
:1050C000510509F476C02091390607EF1FEF22231E
:1050D00009F44DC03A017B015C0164E070E0CE014F
:1050E000019695DE8C01892B09F041C009811A8156
:1050F0000115110509F45AC0480186E0880E911C7B
:10510000B701680D791D809145029091460252DDEC
:105110006C01009709F450C0A70170E060E00E94A4
:10512000873A89819A81AB81BC81EC0CFD1CF70127
:1051300081939193A193B1937F0181E090E0C9DDC8
:10514000B801C70164DE892B31F562E070E0C70168
:10515000800F911F5CDE8C01892BE9F490E080E0E8
:10516000B8DDF501D182C082F30191828082C8014D
:105170000F900F900F900F90DF91CF911F910F9193
:10518000FF90EF90DF90CF90BF90AF909F908F9067
:105190007F906F90089590E080E09BDDF501118293
:1051A0001082F30111821082C601A1DB09EF1FEF0B
:1051B000DECF0FEF1FEFDBCF06EF1FEFD8CF00974B
:1051C000A1F04115510589F02115310571F0F90162
:1051D00036966E177F0748F0DC012D933C93DA0179
:1051E000ED93FC9390E080E008958FEF9FEF08959A
:1051F000AF92BF92CF92DF92EF92FF920F931F93E5
:10520000CF93DF93009709F45FC04115510509F46E
:105210005BC06530710508F457C020913906C7EFAF
:10522000DFEF222391F1DC01CD90DC9011971296F3
:10523000ED91FC9196012A5F3F4FC9EFDFEF2617F2
:10524000370719F5C0913A06D0913B06209749F5EA
:1052500021E030E030933B0620933A067A018C013E
:10526000F0933D06E0933C065601B4E0AB0EB11C52
:10527000B50176DE0A0D1B1DF801208131818217F0
:10528000930729F5D701CD92DC92CE01DF91CF9122
:105290001F910F91FF90EF90DF90CF90BF90AF9054
:1052A000089520913C0630913D062F5F3F4FCCEF93
:1052B000DFEFE217F30790F2CBEFDFEF2E173F0798
:1052C00068F2D0E0C0E0CACFCFEFDFEFDECFC3EFB0
:1052D000DFEFDBCF84E090E0089582E090E0089576
:1052E0008CEF9FEF089580E290E0089510923F06C2
:1052F00010923E0610923D0610923C0610923B061C
:1053000010923A0690E080E00895909346028093D0
:105310004502089580913906882391F00BDE0097AD
:1053200089F410923F0610923E0610923D061092AC
:105330003C0610923B0610923A06109239060895E8
:1053400090E080E00895009749F06115710531F013
:10535000FC0111821082FB01118210820895F3CFAB
:1053600040E855E260E070E090E080E000C081300D
:10537000910579F01CF4892B39F00895823091055C
:1053800061F0039771F0089526E08CE197E00C94AA
:10539000713726E089EB97E0FACF26E086E598E0C2
:1053A000F6CF26E083EF98E0F2CF1F920F920FB670
:1053B0000F9211240BB60F922F933F934F935F934D
:1053C0006F937F938F939F93AF93BF93EF93FF93CD
:1053D0008FE89DEF9093250180932401C0D0FF9129
:1053E000EF91BF91AF919F918F917F916F915F915D
:1053F0004F913F912F910F900BBE0F900FBE0F90CA
:105400001F9018958FE89DEF9093250180932401BC
:10541000A3E7B0E08C918E7F8C93E0E2F1E0808195
:105420008C7F8083E1E2F1E08081877E80838081D0
:105430008460808380818C7F80838C9181608C9359
:105440000895E3E7F0E0808190819E7F90838170F2
:10545000089581E0089510924006089568EE73E083
:1054600080E090E00E946C3490E080E0089526E0B7
:1054700040E052EC61E070E08CE197E00E9471370F
:105480008CE197E00E94A736892B29F08CE197E008
:105490000E94C136F5CF90E080E00895CF92DF9270
:1054A000EF92FF920F931F93CF93DF936B017A01DB
:1054B000E901198218828CE197E00E94A736892BB6
:1054C00079F18601CC24C39482E0D82E80914006E5
:1054D000811111C08CE197E00E94C1360297B1F7AB
:1054E000C0924006F801D1928F018881998101967E
:1054F00099838883EBCF888199818E159F0580F4ED
:105500008CE197E00E94C1368F3F9807A1F3F80124
:1055100081938F0188819981019699838883EBCF4C
:1055200090E080E0DF91CF911F910F91FF90EF907D
:10553000DF90CF9008950F931F93CF93DF93EA01ED
:1055400089018CE197E00E94013AF801D183C08380
:1055500090E080E0DF91CF911F910F910895CF925D
:10556000DF92EF92FF920F931F93CF93DF9300D0C0
:10557000CDB7DEB78091440691E0980F9093440632
:105580008823A1F021E030E03093480620934706BD
:10559000809344060F900F900F90DF91CF911F9151
:1055A0000F91FF90EF90DF90CF900895CE0101967C
:1055B0000E946406789400915A0210915B02F801EF
:1055C000E856FF4FC080D180E280F3800E94D7066A
:1055D000B701A60181E090E00E943B05F89480911C
:1055E00044068150809344068B81882389F0809102
:1055F000430691E0980F90934306882349F021E0F9
:1056000030E0309348062093470680934306C2CF8C
:1056100080914306882309F4BDCF8091450681110E
:10562000B9CF809146068F5F809346067894F80143
:10563000EC55FF4F2081318142815381AAE0B0E0D7
:105640000E94743A6B017C010E943108B701A601E7
:1056500082E090E00E943B05F894809143068150DF
:10566000809343068091460681508093460692CFF0
:105670000F931F93CF93DF931092160A1092150A7F
:105680000E94A2346DDEC0915A02D0915B02198251
:10569000188260ED77E080E090E00E94BE0570E047
:1056A00060E090E080E00E943804009709F042C07A
:1056B0000E94C408F8947894BE0166547F4F8A8192
:1056C0009B810E943B04892B71F46FEF7FEFCB012C
:1056D0000E94D0040E94B805882329F081E0FE01D1
:1056E000E054FF4F8083F8948DDE0E94BB05882331
:1056F00011F080E00BC00E94B8058111FACF81E063
:10570000FE01E054FF4F90819111F3CF8093150A71
:1057100078940E942E128C017894C054DF4F8091AF
:10572000150A81110CC00E94680B0E949D05F89417
:1057300090E080E0DF91CF911F910F9108950E943A
:105740009B050E94BB058823D9F081E08093160A4F
:105750009091160A81E0911180E08093150A809162
:10576000160A81116EDE0130110529F40E942E12F5
:10577000892B09F470DE0E942E128C016ADECFCFD5
:105780000E94B8058111E1CF81E098819111DECFAF
:1057900080E0DCCF5058BB27AA270ED0FFC1F0D144
:1057A00030F0F5D120F031F49F3F11F41EF4E5C143
:1057B0000EF4E095E7FBB2C1E92F01D280F3BA17EE
:1057C000620773078407950718F071F49EF530C2DD
:1057D0000EF4E0950B2EBA2FA02D0B01B90190010C
:1057E0000C01CA01A0011124FF27591B99F0593F50
:1057F00050F4503E68F11A16F040A22F232F342F98
:105800004427585FF3CF469537952795A795F040E5
:105810005395C9F77EF41F16BA0B620B730B840BFA
:10582000BAF09150A1F0FF0FBB1F661F771F881FB2
:10583000C2F70EC0BA0F621F731F841F48F487950A
:1058400077956795B795F7959E3F08F0B3CF9395F9
:10585000880F08F09927EE0F9795879508953AD10C
:1058600008F481E008950CD099C191D140F088D11D
:1058700030F021F45F3F19F051C15111DAC17DC1FF
:105880009ED198F39923C9F35523B1F3951B550B7A
:10589000BB27AA2762177307840738F09F5F5F4F03
:1058A000220F331F441FAA1FA9F333D00E2E3AF044
:1058B000E0E830D091505040E695001CCAF729D05E
:1058C000FE2F27D0660F771F881FBB1F26173707AD
:1058D0004807AB07B0E809F0BB0B802DBF01FF27DD
:1058E00093585F4F2AF09E3F510568F017C1A1C140
:1058F0005F3FECF3983EDCF3869577956795B79517
:10590000F7959F5FC9F7880F911D9695879597F931
:105910000895E1E0660F771F881FBB1F62177307AA
:105920008407BA0720F0621B730B840BBA0BEE1FBF
:1059300088F7E095089504D06894B1117AC108956C
:1059400046D188F09F5790F0B92F9927B751A0F012
:10595000D1F0660F771F881F991F1AF0BA95C9F703
:1059600012C0B13081F064D1B1E0089561C1672FF8
:10597000782F8827B85F39F0B93FCCF386957795B3
:105980006795B395D9F73EF490958095709561959C
:105990007F4F8F4F9F4F0895E89409C097FB3EF4C7
:1059A00090958095709561957F4F8F4F9F4F99236C
:1059B000A9F0F92F96E9BB279395F69587957795EA
:1059C0006795B795F111F8CFFAF4BB0F11F460FFAA
:1059D0001BC06F5F7F4F8F4F9F4F16C0882311F002
:1059E00096E911C0772321F09EE8872F762F05C016
:1059F000662371F096E8862F70E060E02AF09A95B1
:105A0000660F771F881FDAF7880F9695879597F9A5
:105A10000895F7D080F09F3740F491110EF009C13E
:105A200060E070E080E89FEB089526F41B16611D8E
:105A3000711D811D79C093C0A3D018F011F0A7D0BB
:105A400038F49BC0F6C0E92FBAD0B0F35523C9F3A0
:105A5000E7FB6217730784079507A8F199F3E92F0D
:105A6000FF2788232AF03197660F771F881FDAF700
:105A7000952F5527442332F091505040220F331F69
:105A8000441FD2F7BB27E91BF50B621B730B840B7A
:105A9000B109C1F222F4620F731F841FB11D319747
:105AA0002AF0660F771F881FBB1FEFCF9150504021
:105AB0005AF041F0882332F0660F771F881F91500B
:105AC0005040C1F793954BC08695779567959F5F3A
:105AD000D9F7F8CF990F0008550FAA0BE0E8FEEFB1
