:1000000005C100000C94972D0C94C22D0C94ED2D7D
:100010000C94182E0C94432E0C946E2E0C94992E46
:100020000C94C42E24C1000022C1000020C1000095
:100030001EC100001CC100001AC1000018C1000050
:1000400016C1000014C1000012C1000010C1000060
:100050000EC100000CC100000AC100000C94EF2E7C
:1000600006C100000C94EA310C94203200C100005B
:10007000FEC00000FCC00000FAC00000F8C0000094
:10008000F6C00000F4C00000F2C00000F0C00000A4
:100090000C9476320C94AC32EAC00000E8C0000048
:1000A000E6C00000E4C00000E2C00000E0C00000C4
:1000B000DEC00000DCC00000DAC00000D8C00000D4
:1000C000D6C00000D4C000000C942B290C9402333D
:1000D0000C943833CCC000000C948E330C94C43391
:1000E000C6C0000000000A0B02090C0D0E08070331
:1000F00004010000000000000000000000000000FB
:1001000000000000000000000000000000000000EF
:1001100012111000000000000000000000000000AC
:100120000000000000000000000001021020200874
:100130000810204010204080020102010804020142
:1001400001020408102040808040201008040201B1
:10015000800402018040201008040201080402010A
:100160000102040810204080010204081020408091
:1001700005050505070508080808020202020A0A23
:100180000808040404040101010101010101030341
:10019000030303030303040707070C0C0C0C0C0CEC
:1001A0000C0C0202020206060606060606060B0BE9
:1001B0000B0B0B0B0B0B000020002300260029006B
:1001C0002C002F003200000100000301060109018C
:1001D00000002200250028002B002E0031003400F2
:1001E00002010000050108010B01000021002400AC
:1001F00027002A002D003000330001010000040117
:1002000007010A014932D5326133ED3311241FBE93
:10021000CFEFD1E2DEBFCDBF00E00CBF12E0A0E027
:10022000B2E0E8E3FEE600E00BBF02C007900D92EB
:10023000AC3FB107D9F728E0ACEFB2E001C01D92A6
:10024000A036B207E1F711E0C6E0D1E000E006C059
:1002500021970109802FFE010E947336C230D10719
:1002600080E00807A9F70E942D2A0C941A37C8CEFF
:100270008823E1F0823061F0833089F08130B1F47D
:1002800040E052EC61E070E081E090E00C940D29D8
:1002900040E052EC61E070E082E090E0F7CF40E8AF
:1002A00055E260E070E083E090E0F0CF08954F9277
:1002B0005F926F927F928F929F92AF92BF92CF92F6
:1002C000EF92FF920F931F93CF93DF93CDB7DEB7DB
:1002D0002B013A01F02EB40130E02830310511F441
:1002E00024E030E00AE010E0CC2061F091E000E191
:1002F00010E0C91639F0E2E008E010E0CE1611F087
:1003000002E010E0813009F4E8C0B0F0823009F476
:10031000C5C1833009F4A3C2DF91CF911F910F9122
:10032000FF90EF90CF90BF90AF909F908F907F9075
:100330006F905F904F900895F1101BC0269DA00113
:10034000279D500D369D500D1124B2018CE995E08A
:10035000DF91CF911F910F91FF90EF90CF90BF90C1
:10036000AF909F908F907F906F905F904F900C9484
:100370001A348CE995E00E945634E11014C0640CE4
:10038000751C6414750441F2F20161912F01F1E0D2
:10039000A8018CE995E0FF1203C00E942835F1CF37
:1003A0000E942E35EECF81E0E81215C091E0691A67
:1003B000710808F4B1CFF201619171912F01F1E060
:1003C000A8018CE995E0FF1203C00E943E35EECFF4
:1003D0000E944335EBCF82E0E81217C091E0691A22
:1003E000710808F499CFF201419151916191719195
:1003F0002F01F1E098018CE995E0FF1203C00E9403
:100400001C35ECCF0E945335E9CF83E0E81218C0C9
:10041000640C751C6414750409F47ECFF2016191BB
:100420002F01062E000C770BF1E0A8018CE995E076
:10043000FF1203C00E94F634EDCF0E94FC34EACFD5
:1004400084E0E81215C091E0691A710808F464CFDD
:10045000F201619171912F01F1E0A8018CE995E021
:10046000FF1203C00E94F634EECF0E94FC34EBCFA3
:1004700085E0E81217C091E0691A710808F44CCFC2
:10048000F20141915191619171912F01F1E0980137
:100490008CE995E0FF1203C00E94B134ECCF0E94BA
:1004A0000C35E9CF86E0E81237CFB12C91E0691A1C
:1004B000710808F431CFF20141915191619171912C
:1004C0002F01F1E095018CE995E0FF1203C00E9435
:1004D0003F36ECCF0E944036E9CFF1100BC0269D8D
:1004E000A001279D500D369D500D1124B20189E3C6
:1004F00096E02ECF89E396E00E945634E11015C0B5
:10050000640C751C4614570409F406CFF20161917E
:100510002F01F1E0A80189E396E0FF1203C00E94D9
:100520002835F0CF0E942E35EDCF81E0E81215C0BE
:1005300091E0691A710808F4EFCEF20161917191AE
:100540002F01F1E0A80189E396E0FF1203C00E94A9
:100550003E35EECF0E944335EBCF82E0E81217C064
:1005600091E0691A710808F4D7CEF20141915191D6
:10057000619171912F01F1E0980189E396E0FF12FA
:1005800003C00E941C35ECCF0E945335E9CF83E0B5
:10059000E81218C0640C751C6414750409F4BCCE10
:1005A000F20161912F01062E000C770BF1E0A801FA
:1005B00089E396E0FF1203C00E94F634EDCF0E945B
:1005C000FC34EACF84E0E81215C091E0691A7108A2
:1005D00008F4A2CEF201619171912F01F1E0A8011E
:1005E00089E396E0FF1203C00E94F634EECF0E942A
:1005F000FC34EBCF85E0E81217C091E0691A71086E
:1006000008F48ACEF20141915191619171912F01CB
:10061000F1E0980189E396E0FF1203C00E94B13433
:10062000ECCF0E940C35E9CF86E0E81275CEB12CF4
:1006300091E0691A710808F46FCEF201419151916D
:10064000619171912F01F1E0FF1214C0C11006C039
:10065000950189E396E00E943F36EACFCB01BA01CB
:100660000E94312BAB01BC01980189E396E00E9406
:10067000B134DECFC11006C0950189E396E00E9437
:100680004036D6CFCB01BA010E94312BAB01BC0161
:10069000980189E396E00E940C35CACFF1100BC097
:1006A000269DA001279D500D369D500D1124B201AD
:1006B00086ED96E04DCE86ED96E00E945634E11030
:1006C00015C0640C751C4614570409F425CEF201BC
:1006D00061912F01F1E0A80186ED96E0FF1203C0C1
:1006E0000E942835F0CF0E942E35EDCF81E0E81230
:1006F00015C091E0691A710808F40ECEF2016191FB
:1007000071912F01F1E0A80186ED96E0FF1203C080
:100710000E943E35EECF0E944335EBCF82E0E812D7
:1007200017C091E0691A710808F4F6CDF201419101
:100730005191619171912F01F1E0980186ED96E060
:10074000FF1203C00E941C35ECCF0E945335E9CF45
:1007500083E0E81218C0640C751C6414750409F475
:10076000DBCDF20161912F01062E000C770BF1E039
:10077000A80186ED96E0FF1203C00E94F634EDCF8B
:100780000E94FC34EACF84E0E81215C091E0691AB7
:10079000710808F4C1CDF201619171912F01F1E06E
:1007A000A80186ED96E0FF1203C00E94F634EECF5A
:1007B0000E94FC34EBCF85E0E81217C091E0691A83
:1007C000710808F4A9CDF2014191519161917191A3
:1007D0002F01F1E0980186ED96E0FF1203C00E9420
:1007E000B134ECCF0E940C35E9CF86E0E81294CD0D
:1007F000B12C91E0691A710808F48ECDF201419193
:100800005191619171912F01F1E0FF1214C0C1105B
:1008100006C0950186ED96E00E943F36EACFCB01F7
:10082000BA010E94312BAB01BC01980186ED96E024
:100830000E94B134DECFC11006C0950186ED96E06E
:100840000E944036D6CFCB01BA010E94312BAB01BA
:10085000BC01980186ED96E00E940C35CACFF110DC
:100860000BC0269DA001279D500D369D500D1124D3
:10087000B20183E797E06CCD83E797E00E9456349E
:10088000E11015C0640C751C6414750409F444CDA2
:10089000F20161912F01F1E0A80183E797E0FF12D7
:1008A00003C00E942835F0CF0E942E35EDCF81E0A5
:1008B000E81215C091E0691A710808F42DCDF20113
:1008C000619171912F01F1E0A80183E797E0FF1298
:1008D00003C00E943E35EECF0E944335EBCF82E04D
:1008E000E81217C091E0691A710808F415CDF201F9
:1008F00041915191619171912F01F1E0980183E74C
:1009000097E0FF1203C00E941C35ECCF0E945335C4
:10091000E9CF83E0E81218C0640C751C64147504F8
:1009200009F4FACCF20161912F01062E000C770B2D
:10093000F1E0A80183E797E0FF1203C00E94F634BC
:10094000EDCF0E94FC34EACF84E0E81215C091E0BC
:10095000691A710808F4E0CCF201619171912F01DC
:10096000F1E0A80183E797E0FF1203C00E94F6348C
:10097000EECF0E94FC34EBCF85E0E81217C091E087
:10098000691A710808F4C8CCF20141915191619142
:1009900071912F01F1E0980183E797E0FF1203C006
:1009A0000E94B134ECCF0E940C35E9CF86E0E8120A
:1009B000B3CCB12C91E0691A710808F4ADCCF20106
:1009C00041915191619171912F01F1E0FF1214C099
:1009D000C11006C0950183E797E00E943F36EACF39
:1009E000CB01BA010E94312BAB01BC01980183E716
:1009F00097E00E94B134DECFC11006C0950183E7B5
:100A000097E00E944036D6CFCB01BA010E94312B2D
:100A1000AB01BC01980183E797E00E940C35CACF77
:100A200090E080E008950F931F93009709F483C02E
:100A30006115710509F47FC000911C0210911D021F
:100A400020911E0230911F020E3F1F4F2F4F3F4F2C
:100A500009F062C04FEF5FEFBA0140931C02509360
:100A60001D0260931E0270931F0240911C02509160
:100A70001D0260911E0270911F02DC011296ED9121
:100A8000FC9180819181A281B38180936A039093CC
:100A90006B03A0936C03B0936D0384819581A68151
:100AA000B7818093660390936703A0936803B09324
:100AB000690380859185A285B385809362039093B5
:100AC0006303A0936403B093650384859585A6852D
:100AD000B78580935E0390935F03A0936003B09308
:100AE000610310925A0310925B0310925C03109200
:100AF0005D0350D78FEE9CE09093FD028093FC0243
:100B000038D6009731F421E030E030936F03209322
:100B10006E031F910F91089500911C0210911D0208
:100B200020911E0230911F02DB010D931D932D9326
:100B30003C9313979ACF8FEF9FEFEBCF8F929F92BB
:100B4000AF92BF92CF92DF92EF92FF921F93CF931B
:100B5000DF934B015C011091710382E090E0909370
:100B60006F0380936E0381149104A104B10441F4D6
:100B700080917103811104C080917003C1E08111E3
:100B8000C0E0C12CD12C760180917103811106C087
:100B900080917003811102C0CC23D9F083E090E0F2
:100BA00090936F0380936E03CC2379F1CCE9DFEF50
:100BB000111102C00E945310CE01DF91CF911F91FD
:100BC000FF90EF90DF90CF90BF90AF909F908F906D
:100BD00008956AE070E080E090E00E945E2F80E17E
:100BE000C80E87E2D81EE11CF11C8FEF881698060C
:100BF000A806B80631F0C1E08C149D04AE04BF0411
:100C000008F0C0E080E0E9D5BFCFD0E0C0E0D0CFB1
:100C1000CF92DF92EF92FF921F93CF93DF938F3F9C
:100C2000910511F008F04BC020916E0330916F03D5
:100C30002330310539F020916E0330916F0321305C
:100C4000310531F424E030E030936F0320936E03DC
:100C50006A017B01EC01892B99F011E0AE01C7011B
:100C6000B60186D5AB01BC01CE011123E1F0DF91C5
:100C7000CF911F91FF90EF90DF90CF900C947C125A
:100C80008091FC029091FD02892B39F30E9486121B
:100C9000029719F7E091FC02F091FD0290E080E0EC
:100CA0001995182FDBCF0E949E1290E080E0DF9113
:100CB000CF911F91FF90EF90DF90CF9008958FEF2D
:100CC0009FEFF5CF80E089C5CF93DF9386E090E07A
:100CD00090936F0380936E03D9D5EC011092FD02BF
:100CE0001092FC020E94EB0F10926F0310926E03A1
:100CF000CE01DF91CF910895809170030895809186
:100D00005903089560931C0270931D0280931E0284
:100D100090931F0290E080E00895CF92DF92EF92CF
:100D2000FF926B017C019F7720E030E040E859E5BD
:100D30000E942D2B87FF2BC020E030E040E05FE3D6
:100D4000C701B6010E94B52C87FD0EC020E030E03F
:100D500040E05FE3C701B6010E94B62AFF90EF9022
:100D6000DF90CF900C949F2B20E030E040E05FEBD1
:100D7000C701B6010E94B52C181684F420E030E0BB
:100D8000A901C701B6010E94B92C6B017C01C70102
:100D9000B601FF90EF90DF90CF90089520E030E013
:100DA00040E05FE3C701B6010E94B52AFF90EF90D3
:100DB000DF90CF900C941A2B8F929F92AF92BF929C
:100DC000CF92DF92EF92FF920F93CF93DF9300D0F9
:100DD00000D0CDB7DEB7809145088150823008F051
:100DE00089C083E080934508809144088150823017
:100DF00008F082C083E080934408809143088150CA
:100E0000823008F07BC083E08093430880914208E1
:100E10008150823008F074C083E080934208C09013
:100E20000802D0900902E0900A02F0900B0220E044
:100E300030E0A901C701B6010E942D2B87FF62C0D7
:100E4000C701B6010E941A2B69837A838B839C8326
:100E500069817A818B819C8189D3882309F457C069
:100E600019821A821B821C82C980DA80EB80FC8086
:100E700020E030E0A901C701B6010E942D2B87FFB9
:100E80005CC0C701B60190580E94362B90958095A2
:100E9000709561957F4F8F4F9F4F6230710581052F
:100EA000910509F4E2C0633071058105910509F4EB
:100EB000FEC0613071058105910509F047C0809140
:100EC0000C0290910D02A0910E02B0910F0280933E
:100ED000100890931108A0931208B0931308809102
:100EE0004408882379F1833009F4BCC0082E000C33
:100EF000990B2AC080E076CF80E07DCF80E084CF60
:100F000080E08BCFC701B6010E949F2B9DCF6981E6
:100F10007A818B819C81E5D28111A2CF69817A810E
:100F20008B819C8120E030E040E85FE40E94B92B97
:100F300069837A838B839C8397CFC701B6010E9414
:100F4000362BABCF82E090E080934408C09010082D
:100F5000D0901108E0901208F09013082091380802
:100F60003091390840913A0850913B08C701B601C9
:100F70000E942D2B882309F4C0C080900402909019
:100F80000502A0900602B0900702A50194016091AD
:100F90001E0870911F0880912008909121080E94DE
:100FA0002D2B882341F080921E0890921F08A0925A
:100FB0002008B0922108C982DA82EB82FC8281E5A6
:100FC0008D831E82609132087091330880913408BD
:100FD000909135080E94362BC62E60912A08709198
:100FE0002B0880912C0890912D080E94362BE62E1C
:100FF00060912E0870912F088091300890913108EF
:101000000E94362B062F6091260870912708809148
:101010002808909129080E94362BF62E609122080C
:101020007091230880912408909125080E94362B06
:10103000862F9E012B5F3F4F4901AA24A3942F2D99
:1010400041E050E0BE016F5F7F4F31D9809145088C
:10105000882309F44EC0833009F4A7C0082E000C81
:10106000990B49C081E090E06FCF8091140290917C
:101070001502A0911602B091170280931008909368
:101080001108A0931208B093130880914308882395
:1010900031F0833049F0082E000C990B02C082E039
:1010A00090E08093430852CF81E090E0FACF8091A6
:1010B000100290911102A0911202B091130280933C
:1010C000100890931108A0931208B0931308809110
:1010D0004208882331F0833049F0082E000C990B28
:1010E00002C082E090E08093420830CF81E090E03F
:1010F000FACF82E090E0809345086CE378E084E1E9
:1011000098E00E94F7288091100890911108A09112
:101110001208B09113088093380890933908A0936F
:101120003A08B0933B086CE378E084E198E00E94D1
:1011300005296091300370913103809132039091C1
:1011400033036F5F7F4F8F4F9F4F609330037093D8
:10115000310380933203909333030E94622B9B01EF
:10116000AC01609134037091350380913603909106
:1011700037030E94B92C60932C0370932D03809346
:101180002E0390932F0326960FB6F894DEBF0FBE62
:10119000CDBFDF91CF910F91FF90EF90DF90CF9077
:1011A000BF90AF909F908F90089581E090E0A3CF83
:1011B000CF92DF92EF92FF9284E090E05BD180E0EB
:1011C00090E0A0E8BFEB8093380390933903A0939D
:1011D0003A03B0933B038AE097EDA3E2BCE380932C
:1011E000340390933503A0933603B09337038CEF09
:1011F00093E3ACE4B7E480931A0390931B03A093AA
:101200001C03B0931D0380E093EEAFECB9E2809332
:101210001E0390931F03A0932003B093210389E73B
:1012200094EDADE2B7E58093220390932303A0935E
:101230002403B093250389E391ECA5EFBBE98093E8
:10124000260390932703A0932803B09329038AE0F1
:1012500093E090931903809318038EEF92E090939C
:101260000B0380930A038DE492E09093FF02809336
:10127000FE0285E498E0909301038093000390932D
:1012800003038093020383E498E090930503809323
:10129000040382E498E0909307038093060384E4B8
:1012A00098E090930903809308038AE293E0909377
:1012B0000F0380930E038AE193E090930D038093D4
:1012C0000C038CE293E090931103809310038CE362
:1012D00098E00E94E1288091000290910102A09183
:1012E0000202B09103028093380890933908A093CA
:1012F0003A08B0933B0810923C0810923D081092B7
:101300003E0810923F088091180290911902A09116
:101310001A02B0911B028093100890931108A093B9
:101320001208B0931308109218088091040290914B
:101330000502A0910602B091070280931E089093C7
:101340001F08A0932008B093210881E090E0A0E05E
:10135000B0E08093190890931A08A0931B08B093EB
:101360001C0880E090E0A0E8BFE3809322089093FF
:101370002308A0932408B093250880E090E0A0E023
:10138000B1E48093260890932708A0932808B0938F
:10139000290880E090E0A0ECB0E480932A089093C4
:1013A0002B08A0932C08B0932D0880E090E0A0E0DB
:1013B000B0E480932E0890932F08A0933008B09348
:1013C00031081092320810923308109234081092AB
:1013D000350860E070E080E89FE39FDC6B017C01F2
:1013E00020E030E040E853E40E942D2B87FF18C036
:1013F00020E030E0A901C701B6010E94B52C87FDAD
:1014000011C0C701B6010E94362B862F0E943801F9
:1014100081E080931D08FF90EF90DF90CF900895BA
:101420008FEFF4CF80E0F2CF80911808811103C0D4
:1014300081E080931808089560E070E080E89FE7FD
:10144000089560E070E080E89FE7089560E070E054
:1014500080E89FEF089560E070E080E89FEF0895D6
:1014600060E070E080EC9FEF089560E070E080EC59
:101470009FEF0895F5DF60935208709353088093AF
:10148000540890935508F1DF60934608709347081D
:101490008093480890934908CFDF60934E0870937B
:1014A0004F088093500890935108CBDF60934A080F
:1014B00070934B0880934C0890934D08C7DF60935E
:1014C0005608709357088093580890935908C3DFC3
:1014D00060935A0870935B0880935C0890935D0852
:1014E0000895CF92DF92EF92FF92CF936B017C0130
:1014F000AC019B0160914E0870914F08809150089B
:10150000909151080E942D2BC1E0882371F0A70112
:1015100096016091560870915708809158089091F3
:1015200059080E942D2B8111C0E08C2FCF91FF9084
:10153000EF90DF90CF9008950F931F938B019C0144
:101540000027112720783F770115110520483F47D4
:1015500049F4AB01BC016F77772781E0452B462B1F
:10156000472B09F480E01F910F910895E5CF4F922A
:101570005F926F927F928F929F92AF92BF92CF9223
:10158000DF92EF92FF920F931F93F89440904903DC
:1015900050904A0360904B0370904C03C0903D0301
:1015A000D0903E03E0903F03F0904003452B09F0BC
:1015B000A4C09B01AC01241935094609570929012A
:1015C0003A01009145031091460320914703309161
:1015D000480348015901840C951CA61CB71C8016B1
:1015E0009106A206B306A0F40091410310914203B4
:1015F00020914303309144030F5F1F4F2F4F3F4F04
:101600000093410310934203209343033093440318
:101610008092450390924603A0924703B0924803FC
:101620000091410310914203209143033091440300
:1016300080924D0390924E03A0924F03B0925003BC
:101640000093510310935203209353033093540398
:101650006093490370934A0380934B0390934C0328
:10166000A0E1B7E2A30192010E947B366C0D7D1DC3
:101670008E1D9F1D60933D0370933E0380933F0337
:101680009093400300911C0210911D0220911E02B4
:1016900030911F020F3F1F4F2F4F3F4FF1F000912E
:1016A0001C0210911D0220911E0230911F020E3F5C
:1016B0001F4F2F4F3F4F89F0C0901C02D0901D024A
:1016C000E0901E02F0901F0221E08C149D04AE04F5
:1016D000BF0408F420E02093590378941F910F91E0
:1016E000FF90EF90DF90CF90BF90AF909F908F9042
:1016F0007F906F905F904F9008954B015C0184182C
:101700009508A608B708A3019201261B370B480BC2
:10171000590B6415750586059705D0F0821693065A
:10172000A406B50640F420E030E0A901811491043C
:10173000A104B10491F4A0E1B7E20E947B36A701B5
:101740009601261B370B480B590BCA01B901C5CFAF
:1017500082169306A406B50670F7A0E1B7E2A501CC
:1017600094010E947B366C0D7D1D8E1D9F1DB5CF93
:10177000FECECF93DF9300D01F92CDB7DEB71C8291
:101780001B821A82198210925503109256031092EE
:10179000570310925803BE016F5F7F4FCE0103962F
:1017A0000E946F2869817A818B819C810E9495219A
:1017B000009761F4BE016F5F7F4FCE0103960E94D8
:1017C0007B2869817A818B819C812ED50F900F9027
:1017D0000F900F90DF91CF910895FF920F931F9379
:1017E000CF93DF93082F60E070E0CB010E945E2F63
:1017F000FF24F3940E947E20EC01892B89F010E0F5
:10180000CE3F8FEFD80769F0002361F160E070E010
:10181000CB010E945E2F81E090E0892B59F322C01A
:1018200011E025D5EC01892B21F0CE3F8FEFD807B1
:1018300059F711111EC011E0229609F410E00E9420
:101840002E20EC01892B21F0CE3F8FEFD807E1F657
:10185000111111C011E0CE3F8FEFD80709F410E04D
:1018600001110BC0CE01DF91CF911F910F91FF901D
:10187000089511E0E4CF11E0F3CF60E070E0CB0118
:101880000E945E2F1F25812F90E0C7CFCF93DF935B
:1018900080915903882321F060E070E0CB014CD6A1
:1018A00035D6D0E0C0E0892B71F06AE070E080E0CE
:1018B00090E00E945E2F81E090DF28D62196C03D07
:1018C00027E0D20781F727D60E94E9211092710301
:1018D0001092700310926A0310926B0310926C03C3
:1018E00010926D03109266031092670310926803C2
:1018F00010926903109262031092630310926403C2
:101900001092650310925E0310925F0310926003C1
:101910001092610310925A0310925B0310925C03C1
:1019200010925D034EEF5FEF6FEF7FEF40931C026D
:1019300050931D0260931E0270931F021092590370
:10194000EDE4F3E028E0DF011D922A95E9F710921B
:10195000490310924A0310924B0310924C031092C9
:1019600045031092460310924703109248031092C9
:1019700041031092420310924303109244031092C9
:101980003D0310923E0310923F0310924003DF91FB
:10199000CF91089510927D0310927E0310927F03E1
:1019A0001092800310927C038091850390918603AE
:1019B00090937B0380937A031092790310927803BB
:1019C00010927403109275031092760310927703AD
:1019D000109282031092810390E080E00895CF92EC
:1019E000DF92EF92FF920F931F93CF938C01892B7D
:1019F00009F055C0209185033091860380917A03C8
:101A000090917B03409185035091860350937B0313
:101A100040937A032817390781F0109279031092C6
:101A2000780310927403109275031092760310924B
:101A30007703109282031092810380918503909125
:101A40008603019761F58091810390918203892B30
:101A500021F480912002811112C080918103909124
:101A600082030197E1F48091740390917503A09132
:101A70007603B09177030197A105B10581F4109227
:101A800074031092750310927603109277031092EC
:101A9000200282E090E09093820380938103809102
:101AA000850390918603019709F01CC180919B03E7
:101AB00090919C038017910709F014C180919703BE
:101AC00090919803A0919903B0919A03009709F41B
:101AD00009C12091960321110DC0409197035091A7
:101AE00098036091990370919A03452B462B472BDD
:101AF00009F4F8C02091810330918203223031052E
:101B000009F0F0C0209178032111ECC0FC01C080E5
:101B1000D180E280F38080917C03882309F4D3C0D4
:101B20008091880390918903892B09F4FDC020914D
:101B300088033091890381E02230310509F080E08B
:101B40002091880330918903C1E02130310549F0AB
:101B50002091880330918903C1E02230310509F0DA
:101B6000C0E0882309F456C020919203309193037A
:101B70004091940350919503C701B6010E94B52C82
:101B800087FD14C0209192033091930340919403F8
:101B90005091950360917D0370917E0380917F0346
:101BA000909180030E942D2B87FD22C020919203EB
:101BB000309193034091940350919503C701B6016E
:101BC0000E94B52C181634F520919203309193039E
:101BD000409194035091950360917D0370917E0331
:101BE00080917F03909180030E942D2B811112C060
:101BF00080918A0390918B03A0918C03B0918D0307
:101C0000892B8A2B8B2B19F481E08093790381E057
:101C100080937803CC2309F456C02091920330912D
:101C200093034091940350919503C701B6010E941C
:101C30002D2B87FF14C02091920330919303409184
:101C400094035091950360917D0370917E03809180
:101C50007F03909180030E94B52C87FF22C02091C2
:101C60009203309193034091940350919503C701DF
:101C7000B6010E942D2B811126C020919203309134
:101C80009303409194035091950360917D0370916B
:101C90007E0380917F03909180030E94B52C1816DB
:101CA00094F480918A0390918B03A0918C03B0915E
:101CB0008D03892B8A2B8B2B19F481E08093790378
:101CC00081E08093780381E090917803911180E026
:101CD00080937C03C0927D03D0927E03E0927F03C9
:101CE000F0928003012B09F067C1809181039091EC
:101CF0008203892BD9F41092870310927803809184
:101D00002002882379F082E090E090938203809310
:101D1000810310922002209185033091860381E097
:101D2000232BE9F080E01BC081E00ACF1092200253
:101D300080918703882349F01092790310928203DF
:101D40001092810310928703EDCF809185039091CB
:101D50008603892BE1F0809178031092780320911B
:101D60008103309182032230310509F45EC088F48A
:101D70002115310509F448C02130310509F4F3C0BB
:101D800010927903109278031092870338C081E093
:101D9000E6CF2330310509F4B1C02430310581F795
:101DA00040917403509175036091760370917703AD
:101DB000411551056105710561F0415051096109F5
:101DC0007109409374035093750360937603709385
:101DD000770340917403509175036091760370917D
:101DE0007703452B462B472BD9F420918303309161
:101DF00084032130310509F046C010927903109216
:101E00008203109281030CC080912002882341F04C
:101E100082E090E0909382038093810310922002ED
:101E20001092720380917903CEC08823C9F3809108
:101E30008A0390918B03A0918C03B0918D031816A7
:101E400019061A061B060CF07DC08091850390913F
:101E50008603019709F076C080918A0390918B03E5
:101E6000A0918C03B0918D038093740390937503BC
:101E7000A0937603B093770383E090E0909382037E
:101E800080938103CDCF40918E0350918F03609159
:101E9000900370919103452B462B472BA9F010928C
:101EA000790380918E0390918F03A0919003B0915C
:101EB00091038093740390937503A0937603B0937A
:101EC000770381E090E0DACF882399F080912102B6
:101ED00090912202A0912302B09124028093740376
:101EE00090937503A0937603B093770384E090E01A
:101EF000C5CF1092790382E090E0C0CF8091740347
:101F000090917503A0917603B09177030097A10596
:101F1000B10559F00197A109B10980937403909319
:101F20007503A0937603B093770380917403909127
:101F30007503A0917603B0917703892B8A2B8B2BA5
:101F400009F06ECF8091210290912202A09123028C
:101F5000B0912402892B8A2B8B2B09F44ECF81E080
:101F600080937903B3CF40917403509175036091CE
:101F7000760370917703411551056105710561F094
:101F800041505109610971094093740350937503DD
:101F900060937603709377034091740350917503B7
:101FA0006091760370917703452B462B472B09F000
:101FB00037CF8111C7CF9FCF80917203882309F457
:101FC00031CF80917303CF911F910F91FF90EF90CC
:101FD000DF90CF90089510927D0310927E031092AF
:101FE0007F031092800310927C0310928203109260
:101FF000810310927B0310927A0310929C0310923B
:102000009B0310927903109278031092740310923C
:102010007503109276031092770310927303109257
:1020200072031092970310929803109299031092E2
:102030009A031092960310929203109293031092B7
:1020400094031092950388EE93E0A0E0B0E08093B3
:10205000210290932202A0932302B09324021092B3
:102060008E0310928F03109290031092910310929E
:102070008A0310928B0310928C0310928D0310929E
:1020800089031092880381E08093200210928703D5
:10209000109286031092850310928403109283039A
:1020A00090E080E008958091850390918603892BCC
:1020B00019F580912002882351F0809187038111C6
:1020C00006C081E08093730380937203089520918A
:1020D00087033091200281E090E0332311F090E0FB
:1020E00080E030E082239323892B21F01092730348
:1020F00081E0EACF10927203089582E090E0FA0145
:10210000918380838FEF9FEF0895CF93DF93EA0150
:10211000009711F00E9417231982188290E080E046
:10212000DF91CF910895DB01009719F48FEF8C9325
:1021300008952EEF2C93FC013F96EF30F10508F047
:1021400034C08827E955FF4E8F4F0C947336D31057
:10215000D110CF10CD10CB10C710C910C510C310AF
:10216000C110BE10BA10B610BC10D51080E3119685
:102170008C93089589E2FBCF82E2F9CF11961C92ED
:10218000089583E2F4CF81E2F2CF81E1F0CF87E2DC
:10219000EECF8AE2ECCF80E1EACF84E2E8CF88E2BA
:1021A000E6CF86E2E4CF81E3E2CF80E2E0CF809128
:1021B000A9039091AA0308959093AA038093A90379
:1021C00008958091A80308959091A803892B809386
:1021D000A8030895982F90958091A8038923809350
:1021E000A80308958091A70308958091A503909175
:1021F000A60308956115710559F0FB0130E020E058
:1022000070E060E02417350719F06115710511F0D1
:10221000CB010895A081B181A817B90709F4BF01C6
:102220002F5F3F4F3696EECF8091AB0381111CC0DC
:1022300060D266D290939E0380939D030E94171BE9
:102240000E94291B9093A2038093A1030E94961FD2
:102250000E949D1F9093A00380939F0381E0809331
:10226000AB0390E080E0089584EF9FEF08958F9294
:102270009F92AF92BF92CF92DF92EF92FF920F9315
:102280001F93CF93DF9300D000D000D01F92CDB723
:10229000DEB71A86198618861F821E821D821C824E
:1022A0001B821A8219828091AB0307EF1FEF8823EC
:1022B00009F49CC08E010D5F1F4F9E012B5F3F4FA5
:1022C000AE01495F5F4FBE01675F7F4F90E080E0E6
:1022D0000E941A218C01009721F00596029708F0C0
:1022E000DBC029853A852115310509F402C1ED804D
:1022F000FE804B815C81B701640F751F8F819885CB
:102300008617970708F4F5C0E20EF31ED7019C91DB
:10231000903C09F07FC04230510508F47BC0119613
:102320008C914091A9035091AA03452B09F49CC0BC
:10233000913F08F071C02CE1290F2D3008F48BC0BB
:102340002DE2290F203108F489C0903C21F48150FE
:10235000823008F483C088E3890F8B3008F481C091
:1023600093E9C92E90E1D92EEDE7F0E16D817E81F0
:10237000AE014F5F5F4F89859A8519955C01C11445
:10238000D104A1F189809A808114910479F18B8123
:102390009C818815990508F487C010E000E04B8106
:1023A0005C8170E060E0C7010E94133701151105E0
:1023B000E9F449815A8169857A858D819E81680F0A
:1023C000791FC501F6011995E980FA800D811E81FA
:1023D0002F81388549855A856FEF7FEF81E090E046
:1023E0000E94B5208C01892B09F056C0C8012A969D
:1023F0000FB6F894DEBF0FBECDBFDF91CF911F9116
:102400000F91FF90EF90DF90CF90BF90AF909F9093
:102410008F90089580E085CF30E020E0220F331FB9
:10242000F901E356FC4F0190F081E02D309709F45B
:1024300097CF892F90E01995009709F491CFDC018F
:102440001296ED91FC9113971496CD90DC903097F5
:1024500009F08CCF1FC021E030E0E0CF22E030E077
:10246000DDCF23E030E0DACFD12CC12CE5E8F0E17C
:102470009F3F09F07BCFE0919D03F0919E03309741
:1024800021F4C90104EF1FEF0CC08FEF90E0199504
:102490000097A9F604EF1FEF89859A85009709F444
:1024A000A5CF0E941723A2CF0E94E4218C01898529
:1024B0009A850E94172370E060E0C4010E947D218C
:1024C00098878F830E94B2209E838D836F81788549
:1024D0006115710559F0C8010E94A3249A87898764
:1024E00006EF1FEF892B09F058CF59CF08EF1FEFE8
:1024F00056CF08EF1FEFD0CF2091AB03222319F066
:1025000020E00C942E1B87EF9FEF08958091A90384
:102510009091AA0308950E94A21F0E94FC1EF5D06C
:10252000EDE9F3E088E0DF011D928A95E9F710926A
:10253000AB0390E080E008950C945C1D21E040E046
:1025400050E0BA010C942E1B86E090E0FA019183D2
:10255000808390E080E0089547E050E060E572E01D
:1025600049CEDF92EF92FF920F931F93CF93DF93A9
:102570008A01EC01C60FD71FE090AF03F090B003C3
:10258000D9800E94CC21D816190678F082E090E01C
:10259000F801918380838EEF9FEFDF91CF911F91A0
:1025A0000F91FF90EF90DF900895EF2841F482E0C3
:1025B00090E0F8019183808384EF9FEFEECF8981D3
:1025C0008093AE0390E00196F8019183808390E0C0
:1025D00080E0E3CFCF93DF93EA010E940D1E8823B2
:1025E00021F00E94D9210E940E1E82E090E0998382
:1025F00088838BEF9FEFDF91CF910895CF93DF9387
:10260000EB0186E0FB0111928A95E9F78FEF888351
:10261000D8DD8983E7DD8A83E8DD9D838C83DF91C4
:10262000CF910895CF93DF93EA010E94101E81118C
:1026300009C082E090E09983888385EF9FEFDF9166
:10264000CF91089590E080E0B7DD81E090E099833C
:10265000888390E080E0F3CF0F931F93CF93DF93B5
:10266000EA018C01060F171F0E94101E81110BC07A
:1026700082E090E09983888385EF9FEFDF91CF918F
:102680001F910F910895F8018181823038F082E026
:1026900090E0998388838EEF9FEFF0CF81E090E008
:1026A0008BDD88E090E09983888390E080E0E6CF3E
:1026B000CF93DF930097D1F4EB01FB01329686E0D4
:1026C000DF011D928A95E9F78FEF888385E0898382
:1026D0001A820E94CC218B830E94CB219D838C8304
:1026E00081E08E838F83DF91CF910895DF91CF9129
:1026F0001ACD8CEA92E19093AD038093AC030895D8
:102700008091AC039091AD0308951092AD031092A7
:10271000AC0308958091AF039091B00308954111E7
:1027200005C0611571058105910561F06093AF03E6
:102730007093B0038093B1039093B2034093B303BB
:1027400081E0089580E00895FF920F931F93CF9347
:10275000DF938A01EC01C60FD71FF9800E94CC21BC
:10276000F816190668F082E090E0F8019183808302
:102770008EEF9FEFDF91CF911F910F91FF90089502
:102780006C817D818E819F814B81C9DF811108C061
:1027900082E090E0F8019183808384EF9FEFEACF9D
:1027A00089818093AE0390E00196F8019183808344
:1027B00090E080E0DFCFCF93DF93EA01FC01E60FEA
:1027C000F71F64817581868197814381A8DF81111C
:1027D00009C082E090E09983888384EF9FEFDF91C6
:1027E000CF91089581E090E09983888390E080E024
:1027F000F6CFEFEAF3E04081518162817381480FA7
:10280000511D611D711D408351836283738308953F
:10281000CF93C091AE034C2F50E06091AF03709105
:10282000B00301960E940A378C2FE3DF1092AE03AB
:10283000CF910895009799F48091AF039091B003E0
:102840002FEFFB012083892B59F02091AE0330E05C
:102850002F5F3F4F2417350719F4CB01D9CF63CC35
:102860000895009799F48091AF039091B0032FEFF2
:10287000FB012083892B59F02091AE0330E02F5FBC
:102880003F4F2417350719F4CB01C2CF4CCC089524
:1028900023E1AC01249FC001259F900D1124E091FC
:1028A000B803F091B903E80FF91F23813481225056
:1028B000310981E02230310508F080E008950F935E
:1028C0001F93CF93DF930091BA031091BB03D0E025
:1028D000C0E080E00C171D0749F491E0811190E001
:1028E000892FDF91CF911F910F9108958111F5CF1D
:1028F000CE01CEDF2196EECFA091B803B091B903FF
:10290000109729F12091BA033091BB0382179307E6
:10291000F0F453E1589F9001599F300D1124A20FFC
:10292000B31FED91FC911197309789F012968C911D
:10293000681768F48BE0689FE00DF11D1124808119
:102940009181892B21F081E09281491708F080E084
:1029500008959C0143E1429FC001439F900D1124C3
:10296000E091B803F091B903E80FF91F8385823035
:1029700091F481E090E0658176814091250250914B
:1029800026026417750711F490E080E0892B19F096
:1029900081E0232B09F080E00895EF92FF920F93DE
:1029A0001F93CF93DF93EA01FC01E60FF71F02812B
:1029B0001381E480F5804F2D6E2DC8019DDF8111BC
:1029C0000DC082E090E0998388838EEF9FEFDF91C6
:1029D000CF911F910F91FF90EF900895C80158DF9C
:1029E000882339F082E090E09983888388EF9FEF15
:1029F000EECF10932C0200932B02E0922D02F09266
:102A00002E0281E090E09983888390E080E0DFCF20
:102A1000CF92DF92EF92FF920F931F93CF93DF93AA
:102A20007A01EC01C60FD71FC0902B02D0902C0268
:102A300000912D0210912E02412F602FC6015CDF04
:102A4000811110C082E090E0F701918380838AEFCA
:102A50009FEFDF91CF911F910F91FF90EF90DF904B
:102A6000CF900895C60114DF882341F082E090E002
:102A7000F7019183808388EF9FEFEBCF4C815D81DD
:102A80006E817F819A8189818F3F41F082E090E061
:102A9000F701918380838EEF9FEFDBCFE3E1EC9D25
:102AA0009001ED9D300D1124E091B803F091B90330
:102AB000E20FF31F0190F081E02D2BE0029FE00D6B
:102AC000F11D11240190F081E02D27E0129FE00D0F
:102AD000F11D1124808391838B81828343835483EE
:102AE000658376831F5F10932E0281E090E0F701EB
:102AF0009183808390E080E0ACCFEF92FF920F93C0
:102B00001F93CF93DF937A018C01060F171FC0919B
:102B1000B803D091B903209781F021E030E0F801AB
:102B2000828193814091BA035091BB03841795072A
:102B300010F030E020E0232B71F482E090E0F70108
:102B4000918380838EEF9FEFDF91CF911F910F9143
:102B5000FF90EF90089543E1489F9001499F300D09
:102B60001124C20FD31F94DE882341F082E090E04D
:102B7000F7019183808388EF9FEFE6CFF8012481EE
:102B8000358120383105C8F687818111D6CF418142
:102B9000842F90E08F7E009741F082E090E0F70173
:102BA0009183808386EF9FEFCFCF4F833E832D832A
:102BB000268128871986223010F421E0288721E019
:102BC00030E0F70131832083BFCF88E090E0FA0145
:102BD0009183808390E080E00895FB018FEF8083F4
:102BE00081E181838FEF9FEF9383828380E890E080
:102BF00095838483168217820895FB018FEF80836B
:102C000091E0918382839383848384E3858381E04D
:102C100090E0978386830895DF92EF92FF920F935F
:102C20001F93CF93DF93EA01FC01E60FF71F818129
:102C3000813071F082E090E0998388838FEF9FEF7D
:102C4000DF91CF911F910F91FF90EF90DF9008954A
:102C500082819381D4802581E680F7800091B8033A
:102C60001091B9030115110539F482E090E09983C0
:102C700088838CEF9FEFE4CF4091BA035091BB0360
:102C80008417950738F082E090E0998388838EEF6F
:102C90009FEFD6CF892B39F082E090E0998388832B
:102CA00086EF9FEFCDCF8D2D8D7FB1F72130A1F72E
:102CB00081E0D11006C091E0E916F10431F080E026
:102CC00004C0E2E0EE16F104D0F3882329F390E08B
:102CD00080E0DEDD882339F082E090E0998388830C
:102CE00088EF9FEFADCFF801D38681E08487F68629
:102CF000E586108A178681E090E09983888390E0CA
:102D000080E09ECF4CE050E06AE772E073CA8F9299
:102D10009F92BF92CF92DF92EF92FF920F931F93F9
:102D2000CF93DF93EA01FC01E60FF71F82819381C5
:102D30000481B580E091B803F091B903309791F424
:102D400082E090E0998388838CEF9FEFDF91CF91B1
:102D50001F910F91FF90EF90DF90CF90BF909F90C9
:102D60008F9008952091BA033091BB038217930787
:102D700038F082E090E0998388838EEF9FEFE6CF72
:102D800023E1289F6001299FD00C1124EC0DFD1D2B
:102D9000E080F180E114F10499F28281081748F78C
:102DA0008BE0089F80011124E00EF11EF701808165
:102DB0009181892B29F6BB20E1F2F7E0BF9E40010B
:102DC0001124C4010E94C922F70191838083E091FC
:102DD000B803F091B903EC0DFD1D0190F081E02DD9
:102DE000E00FF11F80819181009739F482E090E03B
:102DF000998388838DEF9FEFA9CFA40170E060E0F5
:102E00000E9413378091B8039091B903C80ED91E60
:102E1000F60180819181080F191FF801B28281E0CB
:102E200090E09983888390E080E090CFAF92BF924A
:102E3000CF92DF92FF920F931F93CF93DF93EA011C
:102E4000FC01E60FF71F82819381F4800091B803A3
:102E50001091B9030115110581F482E090E0998386
:102E600088838CEF9FEFDF91CF911F910F91FF909F
:102E7000DF90CF90BF90AF9008952091BA0330912A
:102E8000BB038217930738F082E090E09983888330
:102E90008EEF9FEFE8CF2FEF2F0D2C3FA8F723E108
:102EA000289F6001299FD00C11240C0D1D1DF801D5
:102EB00080819181892B89F6FBE0FF9E50011124CE
:102EC000C5010E94C922F80191838083E091B80373
:102ED000F091B903EC0DFD1D80819181009739F4CB
:102EE00082E090E0998388838DEF9FEFBCCFA501AE
:102EF00070E060E00E941337E091B803F091B903ED
:102F0000EC0DFD1DF28281E090E09983888390E0D2
:102F100080E0A9CFCF92DF92EF92FF920F931F93A1
:102F2000CF93DF93860F971FFC010281138180915D
:102F3000B8039091B903892B81F082E090E0FA0107
:102F4000918380838CEF9FEFDF91CF911F910F9141
:102F5000FF90EF90DF90CF900895C801B0E0A0E01F
:102F60000197A109B1098F3F9F4FA105B10540F01D
:102F700082E090E0FA01918380838EEF9FEFE4CFAF
:102F80007A0183E1809F6001819FD00C1124C601EA
:102F90000E94C922EC01009741F482E090E0F70121
:102FA000918380838DEF9FEFCFCFA60170E060E02B
:102FB0000E941337D093B903C093B8031093BB0397
:102FC0000093BA0390E080E02FEF3FEF41E061E033
:102FD00070E08017910741F481E090E0F701918360
:102FE000808390E080E0B0CF3A8B298B1B864C87A2
:102FF0007E876D87188A1F8601966396EACFCF92E7
:10300000DF92EF92FF920F931F93CF93DF93EC0128
:10301000D12CC12C10E000E0F12CE12C6A8160176A
:10302000110609F0CCF483E0689FB0011124AE01D1
:103030004F5E5F4FC7010E944323009721F02FEF9F
:103040003FEF3A8B298BDF91CF911F910F91FF902A
:10305000EF90DF90CF900895E881F981EC0DFD1D90
:10306000438154818D859E85489F9001499F300DF5
:10307000589F300D1124C90101960115110519F44D
:103080004F8144FD049661E070E00E947D21E816C6
:10309000F90608F47C010F5F1F4F8BE0C80ED11CAE
:1030A000BDCFF8942091B6033091B70381E021158C
:1030B000310509F080E0232B09F0789408952F92D0
:1030C0003F924F925F926F927F928F929F92AF92B8
:1030D000BF92CF92DF92EF92FF920F931F93CF9305
:1030E000DF933C01660E771EF301828193814C01D0
:1030F000B12CA12CC091B803D091B903209769F0ED
:1031000021E030E06091BA037091BB038617970706
:1031100010F030E020E0232BD1F482E090E0FA01BF
:10312000918380838EEF9FEFDF91CF911F910F915D
:10313000FF90EF90DF90CF90BF90AF909F908F90D7
:103140007F906F905F904F903F902F900895809266
:103150002F0290923002A0923102B092320263E1CB
:10316000689F9001699F300D1124C20FD31FF30196
:103170008181833040F082E090E0FA019183808386
:1031800086EF9FEFD1CF2A012B813C81232BF1F4D5
:10319000288139819F8191FF2EC0232B09F46FC0B4
:1031A0002091BD039A81422F490F5527551FBA011F
:1031B00041E050E06138710514F050E040E0452BEB
:1031C00009F45DC02A87920F9093BD03815082302D
:1031D00008F481C066DF882309F4D6C0F301818139
:1031E000813009F48DC008F47BC0823009F4C4C07A
:1031F00090E080E0ADC0232B09F441C02091BC03D6
:103200009A81E22FE90FFF27FF1F41E050E0ED3FD9
:10321000F10514F050E040E0452B89F12A87920F28
:103220009093BC03D3CFA081B181A20FB31F11969D
:103230006C91060F111D0196295F3F4F841795076A
:1032400094F38D859E85089F1001099F300C189F6F
:10325000300C1124C114D104D1F48F8184FF17C024
:103260000E94CB21F5E02F0E311C21E08215930541
:1032700008F420E0A701455F5F4F21110EC082E0F6
:1032800090E0F2019183808387EF9FEF4DCF0E9402
:10329000CB212FEF221A320AE8CF88819981E80EDC
:1032A000F91EF70114830383FFEFCF1ADF0A7A01B7
:1032B0008A818C151D0409F00CF48CCFE881F9810A
:1032C000EE0DFF1D428150E030E020E010E000E014
:1032D00090E080E0B3CFF12CE12CD12CC12CE8CFD1
:1032E00081E090E09C838B83EADA882309F480CF25
:1032F00081E090E00E94DC1080E40E94EA1078CF28
:1033000089899A89019661F083E090E09C838B83A0
:1033100082E090E00E94DC1080E40E94E41068CF1C
:103320002D813E8180912502909126022817390730
:10333000D1F46091290270912A02AE014F5E5F4F75
:1033400080912702909128020E9462240097E1F266
:10335000789422E030E0F20131832083892B89F0D8
:103360008DEF9FEFE1CE89288A288B2869F6CE0160
:1033700046DE188A1F86EACF82E090E09C838B832A
:1033800037CF90E080E0D0CE82E090E0F2019183F0
:10339000808385EF9FEFC8CE8F929F92AF92BF92AE
:1033A000CF92DF92EF92FF920F931F93CF93DF9311
:1033B000EA018C01060F171FF8018181833098F014
:1033C00082E090E09983888386EF9FEFDF91CF9131
:1033D0001F910F91FF90EF90DF90CF90BF90AF9033
:1033E0009F908F9008958091B8039091B903892B95
:1033F00061F081E090E02091BA033091BB03232B70
:1034000011F490E080E0892B39F482E090E0998318
:1034100088838EEF9FEFDACF44DE882309F4DDC086
:10342000F8018181813009F493C0E8F0823099F489
:103430002091BA033091BB03E091B803F091B90336
:1034400090E080E041E050E02817390709F0BBC068
:1034500036DA811117C0789481E090E099838883EF
:1034600090E080E0B3CF2091BA033091BB03E091AC
:10347000B803F091B90390E080E041E050E02817F4
:10348000390741F481E090E00E94DC1080E40E9462
:10349000EA10E1CF63817481672B11F05483438379
:1034A00001967396ECCFE091B803F091B903E00F69
:1034B000F11F2381348122303105D9F421893289E9
:1034C0002F3F3F4FB1F44581568120912502309125
:1034D00026024217530761F5AF014F5E5F4F6091BF
:1034E000290270912A0280912702909128020E945D
:1034F0006224EFEFCE1ADE0AEE0AFE0A0D5E1F4FBF
:103500004091BA035091BB0370E060E0C416D50649
:10351000E606F7062CF5009731F27894892B09F42A
:103520009BCF82E090E0998388838DEF9FEF4ECF11
:10353000C114D104E104F104E1F6CF0160DDE091B2
:10354000B803F091B903E00FF11F108A1786D1CFAD
:1035500010E000E090E080E0C12CD12C7601D0CFCB
:103560000097D9F610E000E0812C912C540183E003
:10357000E82EF12C1AC0E091B803F091B903E00FE6
:10358000F11F83819481029749F4F482E38282E0FF
:1035900090E00E94DC1080E40E94E410FFEF8F1A9C
:1035A0009F0AAF0ABF0A0D5E1F4F8091BA03909128
:1035B000BB03B0E0A0E088169906AA06BB06DCF2C1
:1035C00090E080E0AACF638174816230710511F4CC
:1035D000548343830196739637CF82E090E09983BA
:1035E000888385EF9FEFF2CE0097B9F48FEFFB0150
:1035F000808320912F023091300243E1429FC0012D
:10360000439F900D1124E091B803F091B903E80FA6
:10361000F91F8285FB01818308950C94931088E043
:1036200090E0FA019183808390E080E00895109209
:10363000B7031092B603E8EBF3E086E0DF011D92DA
:103640008A95E9F782E896E19093B5038093B403F5
:1036500008958091B4039091B50308952F923F92FD
:103660004F925F926F927F928F929F92AF92BF9292
:10367000CF92DF92EF92FF920F931F93CF93DF933E
:10368000CDB7DEB760970FB6F894DEBF0FBECDBFE3
:10369000F894E091B603F091B7033196F093B70335
:1036A000E093B6037894A091B803B091B903BA83BC
:1036B000A983109709F4FAC1E091BA03F091BB0312
:1036C000EF2B09F4F3C128874B875C876D877E87D2
:1036D0009A878987B88BAF87312C212CF12C512CFC
:1036E000412C8091BA039091BB032816390610F43F
:1036F000FF2029F1F8948091B6039091B7030197C8
:103700009093B7038093B6037894C20160960FB686
:10371000F894DEBF0FBECDBFDF91CF911F910F9107
:10372000FF90EF90DF90CF90BF90AF909F908F90E1
:103730007F906F905F904F903F902F900895B101D0
:1037400090E080E086D4682EEF85F889878181FD3E
:103750003DC0838194810397C9F5258136813C83DF
:103760002B8389859A852817390781F5C101F1D8FE
:10377000782E8823A9F1AF85B8891F968D919C91E9
:103780005097019621E01D964D915C918417950705
:1037900009F020E02F83B12CA12CEF85F8898281DC
:1037A0008A151B0419F014F0FF20E9F0F885FF23B7
:1037B00009F46CC1AF85B88950961C921E921F9770
:1037C000662021F0B10190E080E045D4FFEF2F1A90
:1037D0003F0A2F8538892D5E3F4F388B2F8781CF49
:1037E000B1E0BF83D8CFBED49E838D83E885EE231E
:1037F000E9F0772009F43CC1AF85B8891F968D9117
:103800009C91892B79F0BBE0BA9DC001BB9D900DC6
:103810001124AF85B889ED91FC91E80FF91F8581DE
:10382000968105D7BFEFAB1ABB0AB7CF81E07720EF
:1038300039F0EF85F88927853089232B09F080E05E
:10384000F82EE12CA114B10439F4AF85B88917968C
:10385000EC90E4FAEE24E0F8BBE0BA9D6001BB9D79
:10386000D00C1124882309F424C1AF85B889ED91C7
:10387000FC911197EC0DFD1D438154811D962D91F6
:103880003C91429FC001439F900D529F900D112487
:10389000E1105DC001969087878361E070E08781C9
:1038A00090852BD5EF85F889218932890081118196
:1038B0000C0D1D1D2F3F320709F44BC0BC01C9017F
:1038C0000E94A324D80116969C938E931597AF85DA
:1038D000B889ED91FC911197EC0DFD1D05811681C4
:1038E0000115110509F4CDC0ED81FE810E0F1F1FDA
:1038F0001A968C918A0DD8018C93E1102FC00F5F1E
:103900001F4FAF85B889ED91FC91EC0DFD1D12871D
:103910000187AF85B889ED91FC91EC0DFD1D858186
:103920009681892B09F4A4C08091250290912602EA
:103930002B813C812817390709F465C0772011F0E5
:1039400001851285912C812C1A8219824AC0059614
:10395000A2CF1FD6F80196838583B9CF8B859C852E
:10396000AD85BE85F80181839283A383B4830B5F09
:103970001F4FC7CFE080F180E80CF91CD7011396E8
:103980006D917C9114978C918F3F09F473C0E1E0A5
:10399000F0E002C0EE0FFF1F8A95E2F7CF01092E7B
:1039A000000CAA0BBB0BFB0140815181628173812A
:1039B00084239523A623B72321E0892B8A2B8B2BE5
:1039C00009F420E0D8012C93D70111968C91080FAF
:1039D000111DE981FA813196FA83E983F7E08F0EB0
:1039E000911CAF85B889ED91FC91EC0DFD1D828194
:1039F00029813A818217130611F00CF0BBCF772092
:103A000011F0128701873F81332391F1AF85B88987
:103A1000ED91FC91EC0DFD1D61E070E087819085DA
:103A20006CD4AF85B889ED91FC91EC0DFD1DE7805C
:103A3000F08445815681E1E0F0E0662011F0F0E08D
:103A4000E0E00D811E819C01B101882799278E1B22
:103A50009F0B8BD32C01892B59F0EF85F88980813E
:103A60009181C80ED91ED60115968D919C91DFD5F6
:103A7000F12CD8CEF701418150E0C8010E940A37ED
:103A8000A3CF86EF482E55245A94CCCEEF85F889E3
:103A9000878590890196908B878725853685821743
:103AA000930709F08DCE108A17868ACE512C412CAF
:103AB00021CE10E000E02DCF2F923F924F925F92E7
:103AC0006F927F928F929F92AF92BF92CF92DF922E
:103AD000EF92FF920F931F93CF93DF938091B803E0
:103AE0009091B90310E000E0892BA9F0DADA0AEF2F
:103AF0001FEF882381F02090BA033090BB03C09160
:103B0000B803D091B903D12CC12C10E000E02C14E3
:103B10003D04A9F47894C801DF91CF911F910F91D2
:103B2000FF90EF90DF90CF90BF90AF909F908F90DD
:103B30007F906F905F904F903F902F900895C601B7
:103B40000E94A914882309F18B819C810397E9F4D1
:103B50008F859889892BC9F0B60190E080E079D2F1
:103B600021E030E0882311F030E020E044245524A7
:103B7000421A530AB12CA12C912C812C8A818815D0
:103B8000190409F038F4188A1F864FEFC41AD40AB2
:103B90006396BDCFE881F981EA0DFB1D8581968191
:103BA000892BA1F161E070E087819085A6D33C016B
:103BB000D9D28C01E881F981EA0DFB1D81859285BE
:103BC00025813681200F311FAC01421B530B9A0116
:103BD00047815085421B530B70E060E00E94133711
:103BE000E881F981EA0DFB1DE780F084458156816B
:103BF0009301B601C201B9D28C01892B39F0E88159
:103C0000F981EA0DFB1D8581968111D55FEF851A3B
:103C1000950A8BE0A80EB11CB1CF43CA78940895E1
:103C20002F923F924F925F926F927F929F92AF92AC
:103C3000BF92CF92DF92EF92FF920F931F93CF9399
:103C4000DF9300D000D0CDB7DEB70091B80310915C
:103C5000B903992493940115110509F43EC0A0906D
:103C6000BA03B090BB031DDA982E8823B1F11092ED
:103C7000B9031092B8031092BB031092BA031092CA
:103C8000BC031092BD038FEF9FEFDC0180932F02E6
:103C900090933002A0933102B093320278947DD396
:103CA0001E830D83C12CD12C7601C501B0E0A0E0AC
:103CB00089839A83AB83BC8322242A94322C898102
:103CC0009A81AB81BC81C816D906EA06FB06F4F0DE
:103CD000C801ADD480E40E94EA10892D26960FB663
:103CE000F894DEBF0FBECDBFDF91CF911F910F9132
:103CF000FF90EF90DF90CF90BF90AF909F907F901C
:103D00006F905F904F903F902F900895AD81BE814E
:103D100015962D913C91169780912502909126023F
:103D200028173907D1F451968D919C91FAD5ED81E0
:103D3000FE8180819181B12CA12C412C512C32012A
:103D4000892B79F5BFEFCB1ADB0AEB0AFB0AED8171
:103D5000FE817396FE83ED83B2CFC114D104E104DA
:103D6000F10429F7ED81FE81818992898F3F9807BF
:103D700009F037D5AD81BE8152963C922E92519773
:103D8000D6CF8A0D9B1DDC018D919C91009709F087
:103D90004ED4BFEF4B1A5B0A6B0A7B0AEBE0AE0E08
:103DA000B11CAD81BE818D919C91119712964C9161
:103DB00050E070E060E044165506660677060CF3A6
:103DC00036D4C0CFCF93DF93EA012ADF811109C037
:103DD00082E090E09983888385EF9FEFDF91CF9118
:103DE000089581E090E00E94DC1081E090E09983EA
:103DF000888390E080E0F2CF13DF1092B503109239
:103E0000B403089542E050E062EC72E00C94FA10C2
:103E1000FF920F931F93CF93DF938A01EC01C60F9C
:103E2000D71FF980B9D20897F816190671F068F013
:103E300082E090E0F801918380838EEF9FEFDF9125
:103E4000CF911F910F91FF9008956C817D818E819C
:103E50009F814B810E948F13811108C082E090E006
:103E6000F8019183808384EF9FEFE9CFF9800E946E
:103E70008A134F2D50E0BE01685F7F4F0E940A37C2
:103E800089810E94F91381E090E0F8019183808399
:103E900090E080E0D4CFDF92EF92FF920F931F93D8
:103EA000CF93DF938A01EC01C60FD71F0E948A13BC
:103EB0007C01D98071D2DD2059F0029721E030E0F9
:103EC000D816190619F010F030E020E0232B79F411
:103ED00082E090E0F801918380838EEF9FEFDF9185
:103EE000CF911F910F91FF90EF90DF900895EF28F1
:103EF00041F482E090E0F8019183808384EF9FEFAA
:103F0000EECFF9800E948A134F2D50E0BE016E5F04
:103F10007F4F0E940A3789810E94F91381E090E067
:103F2000F8019183808390E080E0D9CF82E09FE127
:103F30009093BF038093BE0308958091BE03909138
:103F4000BF0308950895FC01118210829383828338
:103F50000895DB011D921C92DC011296ED91FC91FB
:103F600013977183608313967C936E9312970895D1
:103F7000FC0180819181DB018D939C93A081B181B3
:103F8000109741F08D919C9191838083892B11F43E
:103F9000F383E2830895FC0180819181DB018D939D
:103FA0009C93892B11F473836283718360830895DA
:103FB000FC0111821082938382830895CF93DF9353
:103FC0001F921F92CDB7DEB71A821982F894BE01F4
:103FD0006F5F7F4F85EC93E0CBDF89819A810097FB
:103FE00009F025D389819A81892B89F7BE016F5FFA
:103FF0007F4F89EC93E0BCDF89819A81009709F0BB
:1040000016D389819A81892B89F778940F900F9024
:10401000DF91CF910895CF93DF931F921F92CDB779
:10402000DEB71A821982F894BE016F5F7F4F81EC70
:1040300093E09EDF89819A81009709F0F8D2898107
:104040009A81892B89F778940F900F90DF91CF9107
:10405000089581E0089590E080E00895EF92FF9246
:104060000F931F93CF93DF931F921F92CDB7DEB7AD
:104070001A8219828091C00307EF1FEF8823A1F1F4
:10408000F894BE016F5F7F4F89EC93E071DF789405
:1040900089819A81EE24E394F12C892B51F4F894D0
:1040A000BE016F5F7F4F85EC93E062DF7894F12C67
:1040B000E12C89819A810EEF1FEF0097A9F0FC0196
:1040C0004281538164E070E03ED68C01892B61F01F
:1040D000F89469817A81C701880F991F880F991F09
:1040E0008B539C4F58DF7894C8010F900F90DF914D
:1040F000CF911F910F91FF90EF9008950F931F9311
:10410000CF93DF9300D01F92CDB7DEB71C821B8206
:104110001A8219828091C00307EF1FEF8823C1F034
:10412000AE014D5F5F4F64E070E0CE0101967ED638
:104130008C01892B69F4E981FA818B819C819383BD
:104140008283F89469817A8181EC93E002DF78942C
:10415000C8010F900F900F900F90DF91CF911F919A
:104160000F91089583D7049608958F929F92AF92EE
:10417000BF92CF92DF92EF92FF920F931F93CF9354
:10418000DF931F921F92CDB7DEB71A821982BC014E
:104190006F5F7F4F6330710598F0AA24AA94BA2C00
:1041A000C5010F900F90DF91CF911F910F91FF905C
:1041B000EF90DF90CF90BF90AF909F908F90089539
:1041C0004115510551F3480159018A016C01CADFBB
:1041D0008815990511F7E114F104F9F28E0D9F1D70
:1041E000A816B906D0F28091C0038823F1F0F894A4
:1041F000B501645071099701AE014F5F5F4FC8016F
:104200000496A9D65C01892B71F489819A81F80101
:1042100093838283C601880F991F880F991FB80165
:104220008B539C4F96DE7894BBCF87EFA82EBB2490
:10423000BA94B6CFAF92BF92CF92DF92EF92FF9235
:104240000F931F93CF93DF931F921F92CDB7DEB7CB
:104250001A821982892B09F047C06115710509F48A
:1042600043C04115510509F43FC02115310509F43A
:104270003BC001151105C1F18091C0038823B9F13C
:1042800079016A015B01F894BE016F5F7F4F81EC99
:1042900093E06EDE789489819A81009759F1DC0170
:1042A00012966D917C91A80104966ED68C01E981DD
:1042B000FA81D501ED93FC93828193810496F601F6
:1042C000918380834FDFD7018D939C93C8010F901A
:1042D0000F90DF91CF911F910F91FF90EF90DF90A2
:1042E000CF90BF90AF9008950FEF1FEFEFCF07EF84
:1042F0001FEFECCF0EEF1FEFE9CFCF93DF93EC0171
:10430000672B71F4BCD68C179D0760F0AFD624964E
:10431000C80FD91FAED68C0F9D1FDF91CF91089586
:10432000ABD6F1CF90E080E0F8CF0F931F93CF93FF
:10433000DF932091C00321112BC08B01EC0185EC90
:1043400093E001DE89EC93E0FEDD81EC93E0FBDDA0
:1043500097D00097C1F493D670E060E0CEDF43E3DE
:1043600052E062E070E08FD1009769F480913302EF
:104370009091340296D6B801CE01CBD4009719F4AF
:1043800021E02093C003DF91CF911F910F910895F9
:1043900084EF9FEFF8CF70C672C6CF93DF9372D6CB
:1043A000EC01892B11F40ADE36DECE01DF91CF91CC
:1043B0000895CF93DF9366D6EC01892B09F4FEDDD7
:1043C000CE01DF91CF910895809133029091340214
:1043D0000895CF93DF938091C003D0E0C0E088239D
:1043E000D1F064D6EC01892BB1F4E8DD14DE8091C4
:1043F000330290913402F5D1F6D2EC01892B59F4B5
:1044000085EC93E0D5DD89EC93E0D2DD81EC93E09F
:10441000CFDD1092C003CE01DF91CF910895EF92CE
:10442000FF920F931F93CF93DF93EC017A018B01DF
:104430000F5F1F4F0E9DA0010F9D500D1E9D500D33
:10444000112470E060E00E94133790E080E0F0E01B
:10445000E0E02FEFE816F90639F4DF91CF911F91D4
:104460000F91FF90EF9008951A8219822883309758
:1044700011F0D283C1830196FE01C00FD11FEACF94
:10448000CF92DF92EF92FF920F931F93CF93DF9320
:104490000AEE14E00C7F8EECE82E82E0F82E94ED0C
:1044A000C92E92E0D92EC1E5D5E0D7014D915D919D
:1044B0007D01F601619171916F01198308835D831C
:1044C0004C835B834A837F836E839B012F5F3F4FC7
:1044D000249FC001259F900D349F900D1124998732
:1044E00088870115110511F0C80199DF8885998524
:1044F000080F191F2A96F4EDEF16F2E0FF06A9F651
:10450000EFECF3E088E191E0DF019C011D92215086
:104510003040E1F71092CE031092CD031092700557
:1045200010926F0510927405109273051092720527
:10453000109271051092760510927505109278050B
:104540001092770510927A051092790510927E05E7
:1045500010927D0510927C0510927B0510928005CB
:1045600010927F05109282051092810510924E05DF
:1045700010924D051092500510924F0590E080E08A
:10458000DF91CF911F910F91FF90EF90DF90CF902F
:104590000895009799F1F8948131910550F4809134
:1045A000530590915405892B39F020E090E080E08C
:1045B00018C08132910550F480915D0590915E059F
:1045C000892B31F021E081E090E00BC0C197A8F485
:1045D0008091670590916805892B79F022E082E04F
:1045E00090E0EAE0E89FD001E99FB00D1124AF5AB6
:1045F000BA4F8D919C91009721F4789490E080E0DF
:104600000895E29FF0011124EF5AFA4FDC01119650
:104610004D915C91518340834281538141505109B6
:1046200053834283FC012193CF017894089500972E
:1046300049F1DC018E91853041F4E0914F05F09114
:1046400050053097F9F0CD0119948530D8F4282F12
:1046500030E0F8948FEF8C938AE0829FF001839F83
:10466000F00D1124EF5AFA4F8081918112969C939C
:104670008E931197B183A083828193810196938356
:10468000828378940895CF92DF92EF92FF920F93F6
:104690001F93CF93DF939C0182ED93E08C7F4115B4
:1046A000510509F49BC02115310509F497C0611526
:1046B000710509F493C07A01AB01B9016D5F7F4FB9
:1046C0006C7F9B012F5F3F4F249F8001259F100D22
:1046D000349F100D1124F89420916F0530917005CE
:1046E000232B59F420917705309178052115310558
:1046F00069F12017310708F058C0209179053091F1
:104700007A05232B91F42091770530917805820F5B
:10471000931F20918105309182052115310509F4FF
:1047200041C02017310708F056C07894CFEFDFEF73
:1047300086EF9FEFF701D183C083DF91CF911F9167
:104740000F91FF90EF90DF90CF900895C3E0D0E0FD
:10475000C090CD03D090CE0325E131E02C193D0966
:104760002017310710F32AE02C9FF0012D9FF00D48
:104770001124EF5AFA4F91838083558344835383E6
:1047800042837783668311870087009709F047DEAD
:104790000C0D1D1D1093CE030093CD03789490E073
:1047A00080E0C8CFC4E0D0E0D3CFC3E0D0E02AE0BF
:1047B0002C9FF0012D9FF00D1124EF5AFA4F918399
:1047C0008083558344835383428377836683009732
:1047D00029F325DEE3CFC4E0D0E0E9CF8FEF9FEFF0
:1047E000ACCF9C010397029708F069C0F89484E06D
:1047F0009AE0482F50E0241735070CF44DC091E0A3
:104800008AE0829FF001839FF00D1124EF5AFA4F46
:1048100011821082158214821382128217821682EC
:104820009923B1F18091790590917A05892BA9F4AA
:1048300020918105309182052115310571F080911B
:10484000CD039091CE03821B930B9093CE03809364
:10485000CD03109282051092810580916F05909191
:104860007005892BA9F420917705309178052115E1
:10487000310571F08091CD039091CE03821B930B93
:104880009093CE038093CD03109278051092770514
:10489000789490E080E00895949FF001959FF00D4A
:1048A0001124EF5AFA4F40815181452B31F4408554
:1048B0005185452B11F481509CCF90E0A1CF8FEF13
:1048C0009FEF08954115510549F1009739F16115A0
:1048D000710521F1F89420914D0530914E05232B5F
:1048E000B9F420914F0530915005232B89F4909312
:1048F0004E0580934D057093500560934F05789455
:1049000025E030E090E080E0FA01318320830895D3
:1049100078942FEF3FEF86EF9FEFF6CF8FEF9FEF6B
:104920000895059769F4F89410924E0510924D057C
:104930001092500510924F05789490E080E0089511
:104940008FEF9FEF08956115710519F4F0E0E0E035
:1049500011C08530910581F4E0914D05F0914E052F
:104960003097A1F3CB0101961995009779F3FC01DB
:1049700085E08193CF0108959C01235031092230B5
:10498000310520F72AE0289FD001299FB00D11247E
:10499000AF5ABA4F2D913C911197232BB9F216962D
:1049A0002D913C9117972617370780F2F8941296AD
:1049B0002D913C9113972115310529F0ED91FC9132
:1049C0001197309711F47894C1CF4181528111969B
:1049D0005C934E932150310913963C932E9312977A
:1049E00081937894C7CFE7EEF4E086E6DF011D926D
:1049F0008A95E9F7EFECF3E088E191E0DF019C01B3
:104A00001D9221503040E1F71092CE031092CD0359
:104A1000E1E5F5E082E3DF011D928A95E9F7EDE437
:104A2000F5E084E0DF011D928A95E9F790E080E0EF
:104A30000895CF93DF93C0913502D0913602CF3FD6
:104A4000DC0759F469D4909336028093350297FFBE
:104A500009C0D0933602C093350284EF9FEFDF91F7
:104A6000CF91089590E080E0FACF8230910528F44C
:104A70008093830590E080E008958FEF9FEF089585
:104A80004F925F926F927F92AF92BF92CF92DF92DE
:104A9000EF92FF920F931F93CF93DF931F921F927A
:104AA000CDB7DEB71A821982009709F479C0611573
:104AB000710509F475C0209135023091360207EF77
:104AC0001FEF2F3F3F4F09F445C06B015C01412CA4
:104AD000512C3201F12CE12C10E000E09E012F5FFF
:104AE0003F4FA6014E195F09B5016E0D7F1D8091E4
:104AF0003502909136026ED4892B09F04BC0898122
:104B00009A81009741F4E114F10429F4209183057E
:104B1000222309F442C0E80EF91EEC14FD04D0F47F
:104B200080E8481684E858068EE16806710420F58E
:104B300060E070E0CB010E945E2F2AE0420E511C23
:104B4000611C711C0A3F4FEF140721F0043F8FEFE7
:104B50001807A1F4C8010F900F90DF91CF911F911A
:104B60000F91FF90EF90DF90CF90BF90AF907F902C
:104B70006F905F904F90089501EF1FEF81E090E0FC
:104B8000013F2FEF120711F090E080E0892B09F42C
:104B9000A5CFE0CF04EF1FEFDDCF0AEF1FEFDACF95
:104BA0000FEF1FEFD7CF4F925F926F927F92AF922E
:104BB000BF92CF92DF92EF92FF920F931F93CF930A
:104BC000DF931F921F92CDB7DEB71A82198200972A
:104BD00009F479C06115710509F475C02091350299
:104BE0003091360207EF1FEF2F3F3F4F09F445C0CA
:104BF0006B015C01412C512C3201F12CE12C10E0B5
:104C000000E09E012F5F3F4FA6014E195F09B501DD
:104C10006E0D7F1D809135029091360291D3892BC4
:104C200009F04BC089819A81009741F4E114F104A5
:104C300029F420918305222309F442C0E80EF91ECD
:104C4000EC14FD04D0F480E8481686E9580688E99B
:104C50006806710420F560E070E0CB010E945E2FD1
:104C60002AE0420E511C611C711C0E3F4FEF1407CD
:104C700021F0043F8FEF1807A1F4C8010F900F90A7
:104C8000DF91CF911F910F91FF90EF90DF90CF9028
:104C9000BF90AF907F906F905F904F90089502EF1C
:104CA0001FEF81E090E0023F2FEF120711F090E03C
:104CB00080E0892B09F4A5CFE0CF04EF1FEFDDCF13
:104CC0000EEF1FEFDACF0FEF1FEFD7CF8091350236
:104CD000909136028F3F980749F016D3892B49F4FB
:104CE0008FEF9FEF909336028093350290E080E043
:104CF000089584EF9FEF0895FC01680F791F90E0FD
:104D000080E0E617F70709F408952191820F911DBD
:104D1000F8CF20918405211113C08BDE009791F408
:104D200010928A05109289051092880510928705C5
:104D3000109286051092850521E020938405089540
:104D400084EF9FEF0895AF92BF92CF92DF92EF92E0
:104D5000FF920F931F93CF93DF93009709F460C0E6
:104D60004630510508F45CC020918405C7EFDFEFA1
:104D7000222309F449C08C01060F171FF801C080D7
:104D8000D180C114D10409F44EC096012A5F3F4F6F
:104D90004217530708F447C07C0180918905909120
:104DA0008A0593838283B6016C5F7F4F5801A60EFC
:104DB000B71EC801A1DFF5019183808364E070E034
:104DC000C8015EDEEC01892BF9F481E090E04DDE54
:104DD000B601C801049654DEEC01892B91F462E01F
:104DE00070E0C5014DDEEC01892B59F4C7011FDCD1
:104DF0008091890590918A05019690938A05809308
:104E0000890590E080E031DECE01DF91CF911F91E6
:104E10000F91FF90EF90DF90CF90BF90AF900895EB
:104E2000CFEFDFEFF1CFC9EFDFEFEECF6F927F92E1
:104E30008F929F92AF92BF92CF92DF92EF92FF92AA
:104E40000F931F93CF93DF9300D01F92CDB7DEB7A0
:104E5000009709F47AC04115510509F476C02091F4
:104E6000840507EF1FEF222309F44DC03A017B01AF
:104E70005C0164E070E0CE01019695DE8C01892B27
:104E800009F041C009811A810115110509F45AC0C0
:104E9000480186E0880E911CB701680D791D80914C
:104EA0003702909138024FDD6C01009709F450C031
:104EB000A70170E060E00E94133789819A81AB817D
:104EC000BC81EC0CFD1CF70181939193A193B193EC
:104ED0007F0181E090E0C9DDB801C70164DE892B64
:104EE00031F562E070E0C701800F911F5CDE8C013C
:104EF000892BE9F490E080E0B8DDF501D182C08231
:104F0000F30191828082C8010F900F900F900F9053
:104F1000DF91CF911F910F91FF90EF90DF90CF9095
:104F2000BF90AF909F908F907F906F90089590E08A
:104F300080E09BDDF50111821082F3011182108265
:104F4000C60175DB09EF1FEFDECF0FEF1FEFDBCFE1
:104F500006EF1FEFD8CF0097A1F04115510589F05A
:104F60002115310571F0F90136966E177F0748F06B
:104F7000DC012D933C93DA01ED93FC9390E080E00B
:104F800008958FEF9FEF0895AF92BF92CF92DF9277
:104F9000EF92FF920F931F93CF93DF93009709F443
:104FA0005FC04115510509F45BC06530710508F417
:104FB00057C020918405C7EFDFEF222391F1DC0178
:104FC000CD90DC9011971296ED91FC9196012A5F9D
:104FD0003F4FC9EFDFEF2617370719F5C091850559
:104FE000D0918605209749F521E030E03093860581
:104FF000209385057A018C01F0938805E09387055D
:105000005601B4E0AB0EB11CB50176DE0A0D1B1DD6
:10501000F801208131818217930729F5D701CD92BC
:10502000DC92CE01DF91CF911F910F91FF90EF9015
:10503000DF90CF90BF90AF90089520918705309179
:1050400088052F5F3F4FCCEFDFEFE217F30790F2B9
:10505000CBEFDFEF2E173F0768F2D0E0C0E0CACFFA
:10506000CFEFDFEFDECFC3EFDFEFDBCF84E090E009
:10507000089582E090E008958CEF9FEF089580E21C
:1050800090E0089510928A05109289051092880583
:1050900010928705109286051092850590E080E0B9
:1050A0000895909338028093370208958091840583
:1050B000882391F00BDE009789F410928A051092F4
:1050C0008905109288051092870510928605109226
:1050D000850510928405089590E080E0089500977A
:1050E00049F06115710531F0FC0111821082FB015C
:1050F000118210820895F3CF80913C020E94983073
:10510000019799F480913B020E94983040918B0561
:1051100050918C0560918D0570918E05892B99F4C5
:105120004F5F5F4F6F4F7F4F12C080913B020E94D5
:10513000983040918B0550918C0560918D05709150
:105140008E05892B69F74150510961097109409316
:105150008B0550938C0560938D0570938E05089593
:1051600080913B02E5D7019791F480913C02E0D712
:1051700040918B0550918C0560918D0570918E0545
:10518000892B91F4415051096109710911C0809135
:105190003C02CED740918B0550918C0560918D05D6
:1051A00070918E05892B71F74F5F5F4F6F4F7F4F67
:1051B00040938B0550938C0560938D0570938E05FD
:1051C000089562E080913C0277D762E080913B02D3
:1051D00073D741E050E06CE778E280913A022DD439
:1051E00041E050E060EB78E28091390226C44091C2
:1051F0008B0550918C0560918D0570918E05FC0199
:1052000040835183628373830895089540E052EC94
:1052100061E070E090E080E000C08130910579F0BD
:105220001CF4892B39F008958230910561F00397C1
:1052300071F0089526E08CE995E00C948A3126E01F
:1052400089E396E0FACF26E086ED96E0F6CF26E0F9
:1052500083E797E0F2CF1F920F920FB60F921124BF
:105260000BB60F922F933F934F935F936F937F9360
:105270008F939F93AF93BF93EF93FF938FE89DEF2F
:105280009093250180932401B9D0FF91EF91BF91B4
:10529000AF919F918F917F916F915F914F913F91CE
:1052A0002F910F900BBE0F900FBE0F901F9018956F
:1052B0008FE89DEF9093250180932401A3E7B0E050
:1052C0008C918E7F8C93E0E2F1E080818C7F8083F3
:1052D000E1E2F1E08081877E808380818460808349
:1052E00080818C7F80838C9181608C930895E3E72B
:1052F000F0E0808190819E7F90838170089581E0AD
:10530000089510928F05089568EE73E080E090E0B4
:10531000D5D590E080E0089526E040E052EC61E0D1
:1053200070E08CE995E0F6D78CE995E029D7892BD8
:1053300021F08CE995E03ED7F7CF90E080E008952A
:10534000CF92DF92EF92FF920F931F93CF93DF9351
:105350006B017A01E901198218828CE995E010D776
:10536000892B69F18601CC24C39482E0D82E8091E8
:105370008F05811110C08CE995E01CD70297B9F711
:10538000C0928F05F801D1928F0188819981019691
:1053900099838883ECCF888199818E159F0578F455
:1053A0008CE995E007D78F3F9807A9F3F80181931F
:1053B0008F0188819981019699838883ECCF90E051
:1053C00080E0DF91CF911F910F91FF90EF90DF90E0
:1053D000CF9008950F931F93CF93DF93EA01890134
:1053E0008CE995E00E941A34F801D183C08390E0E3
:1053F00080E0DF91CF911F910F910895CF92DF92BE
:10540000EF92FF928091900591E0980F9093900514
:10541000882369F021E030E03093920520939105D4
:1054200080939005FF90EF90DF90CF90089578944F
:10543000E0914E02F0914F02C28CD38CE48CF58C3B
:105440000E94DC06B701A60190E080E00E940806F9
:10545000F894809190058150E3CF0F931F93CF93E1
:10546000DF9310925F0810925E085ED5CFDEC09188
:105470004E02D0914F02198218826FEF7FEFCB015D
:105480000E94820670E060E090E080E00E941005DB
:10549000009709F03AC00E94D808F8947894BE01A9
:1054A0006E5D7F4F8A819B810E941305892B59F481
:1054B0006FEF7FEFCB010E949E050E947C06882340
:1054C00011F081E08EA3F894F3DE0E947F0688231A
:1054D00011F080E008C00E947C068111FACF81E0C3
:1054E0009EA19111F6CF80935E0878940E94D71008
:1054F0008C01789480915E0881110CC00E94140A7E
:105500000E946406F89490E080E0DF91CF911F91B3
:105510000F9108950E9462060E947F068823D9F0A9
:1055200081E080935F0890915F0881E0911180E0B5
:1055300080935E0880915F088111D9DE01301105EA
:1055400029F40E94D710892B09F4DBDE0E94D710C2
:105550008C01D5DECFCF0E947C068111E1CF81E0A6
:105560009EA19111DECF80E0DCCF5058BB27AA2747
:105570000ED0AAC19BD130F0A0D120F031F49F3FD2
:1055800011F41EF490C10EF4E095E7FB5DC1E92F24
:10559000ACD180F3BA17620773078407950718F038
:1055A00071F49EF5DBC10EF4E0950B2EBA2FA02D01
:1055B0000B01B90190010C01CA01A0011124FF27C0
:1055C000591B99F0593F50F4503E68F11A16F040BB
:1055D000A22F232F342F4427585FF3CF46953795BA
:1055E0002795A795F0405395C9F77EF41F16BA0B7F
:1055F000620B730B840BBAF09150A1F0FF0FBB1F2D
:10560000661F771F881FC2F70EC0BA0F621F731F75
:10561000841F48F4879577956795B795F7959E3FD2
:1056200008F0B3CF9395880F08F09927EE0F979560
:10563000879508957CD180F09F3740F491110EF446
:105640008EC160E070E080E89FE3089526F01B16AD
:10565000611D711D811DFEC018C1D2D008F481E00A
:10566000089504D06894B1117AC1089546D188F0A4
:105670009F5790F0B92F9927B751A0F0D1F0660F3E
:10568000771F881F991F1AF0BA95C9F712C0B13059
:1056900081F064D1B1E0089561C1672F782F882728
:1056A000B85F39F0B93FCCF3869577956795B39598
:1056B000D9F73EF490958095709561957F4F8F4F07
:1056C0009F4F0895E89409C097FB3EF4909580950C
:1056D000709561957F4F8F4F9F4F9923A9F0F92FB8
:1056E00096E9BB279395F695879577956795B79536
:1056F000F111F8CFFAF4BB0F11F460FF1BC06F5F1C
:105700007F4F8F4F9F4F16C0882311F096E911C02D
:10571000772321F09EE8872F762F05C0662371F04E
:1057200096E8862F70E060E02AF09A95660F771F62
:10573000881FDAF7880F9695879597F90895F7D01F
:1057400080F09F3740F491110EF009C160E070E0E5
:1057500080E89FEB089526F41B16611D711D811DC5
:1057600079C093C0A3D018F011F0A7D038F49BC033
:10577000F6C0E92FBAD0B0F35523C9F3E7FB62179F
:10578000730784079507A8F199F3E92FFF2788236A
:105790002AF03197660F771F881FDAF7952F552764
:1057A000442332F091505040220F331F441FD2F750
:1057B000BB27E91BF50B621B730B840BB109C1F20C
:1057C00022F4620F731F841FB11D31972AF0660FF8
:1057D000771F881FBB1FEFCF915050405AF041F008
:1057E000882332F0660F771F881F91505040C1F711
:1057F00093954BC08695779567959F5FD9F7F8CFBE
:10580000990F0008550FAA0BE0E8FEEF16161706D1
:10581000E807F907C0F012161306E407F50798F039
:10582000621B730B840B950B39F40A2661F0232B52
:10583000242B252B21F408950A2609F4A140A695CE
:105840008FEF811D811D089597F99F6780E870E0B3
:1058500060E00895882371F4772321F09850872B16
:10586000762F07C0662311F499270DC09051862B1F
:1058700070E060E02AF09A95660F771F881FDAF7CC
:10588000880F9695879597F908959F3F31F091502D
:1058900020F4879577956795B795880F911D969514
:1058A000879597F908959FEF80EC089500240A9456
:1058B0001616170618060906089500240A941216EB
:1058C0001306140605060895092E0394000C11F41E
:1058D000882352F0BB0F40F4BF2B11F460FF04C0CB
:1058E0006F5F7F4F8F4F9F4F089557FD9058440F24
:1058F000551F59F05F3F71F04795880F97FB991F2F
:1059000061F09F3F79F087950895121613061406EB
:10591000551FF2CF4695F1DF08C016161706180678
:10592000991FF1CF86957105610508940895E5DF0B
:10593000A0F0BEE7B91788F4BB279F3860F41616AD
:10594000B11D672F782F8827985FF7CF86957795B9
:105950006795B11D93959639C8F30895E894BB27D0
:1059600066277727CB0197F908954ADF08F48FEF70
:1059700008950BD0A9CF9ADF28F09FDF18F0952368
:1059800009F062CF90CF1124EACFAFDFA0F3959F4B
:10599000D1F3950F50E0551F629FF001729FBB2716
:1059A000F00DB11D639FAA27F00DB11DAA1F649FC2
:1059B0006627B00DA11D661F829F2227B00DA11D75
:1059C000621F739FB00DA11D621F839FA00D611DFB
:1059D000221F749F3327A00D611D231F849F600D1C
:1059E000211D822F762F6A2F11249F5750408AF055
:1059F000E1F088234AF0EE0FFF1FBB1F661F771FE1
:105A0000881F91505040A9F79E3F510570F01CCF60
:105A1000A6CF5F3FECF3983EDCF3869577956795CC
:105A2000B795F795E7959F5FC1F7FE2B880F911DFE
:105A30009695879597F908950895883008F076C06F
:105A4000E82FF0E0EE0FFF1FE35CFD4F71836083F2
:105A50008150873008F03DC0E82FF0E08827EC5CEB
:105A6000F24D8F4F0C947336712D3B2D432D4F2DDE
:105A70005C2D7D2D8A2D809169008C7F482B409371
:105A80006900E89A089580916900837F440F551F4B
:105A9000440F551F482B40936900E99A089580915F
:105AA00069008F7C74E0440F551F7A95E1F7482B0D
:105AB00040936900EA9A0895809169008F7366E0C7
:105AC000440F551F6A95E1F7482B40936900EB9A04
:105AD000089580916A008C7F482B40936A00EC9A6D
