:1000000014C100000C946A340C9495340C94C034E0
:100010000C94EB340C9416350C9441350C946C35DF
:100020000C94973533C1000031C100002FC100008E
:100030002DC100002BC1000029C1000027C1000014
:1000400025C1000023C1000021C100001FC1000024
:100050001DC100001BC1000019C100000C94C23575
:1000600015C100000C94BE390C94F4390FC1000086
:100070000DC100000BC1000009C1000007C1000054
:1000800005C1000003C1000001C10000FFC0000065
:100090000C944A3A0C94803AF9C00000F7C0000072
:1000A000F5C00000F3C00000F1C00000EFC0000088
:1000B000EDC00000EBC00000E9C00000E7C0000098
:1000C000E5C00000E3C00000E1C000000C94D63A97
:1000D0000C940C3BDBC000000C94623B0C94983BEE
:1000E000D5C0000005A84CCDB2D44EB93836A9020F
:1000F0000C50B9918688083CA6AAAA2ABE00000026
:10010000803F00000A0B02090C0D0E0807030401D2
:1001100000000000000000000000000000000000DF
:1001200000000000000000000000000000001211AC
:1001300010000000000000000000000000000000AF
:10014000000000000000000001021020200808103C
:100150002040102040800201020108040201010237
:100160000408102040808040201008040201800410
:10017000020180402010080402010804020101026B
:10018000040810204080010204081020408005056A
:100190000505070508080808020202020A0A0808FD
:1001A000040404040101010101010101030303032B
:1001B00003030303040707070C0C0C0C0C0C0C0CBA
:1001C0000202020206060606060606060B0B0B0BCB
:1001D0000B0B0B0B000020002300260029002C0035
:1001E0002F00320000010000030106010901000098
:1001F0002200250028002B002E00310034000201CF
:100200000000050108010B01000021002400270067
:100210002A002D0030003300010100000401070115
:100220000A011D3AA93A353BC13B11241FBECFEF4D
:10023000D1E2DEBFCDBF00E00CBF13E0A0E0B2E032
:10024000E2EEF8E700E00BBF02C007900D92A63582
:10025000B107D9F72CE0A6E5B3E001C01D92AE329C
:10026000B207E1F711E0C5E1D1E000E006C0219757
:100270000109802FFE010E943E3CC131D10780E080
:100280000807A9F70E94C2300C946F3CB9CE6111E7
:1002900002C00C9403386130E1F362E0FACF6623C8
:1002A00019F061E00C943F3860E0FCCFCF93DF930E
:1002B000EC0170E060E06C177D070CF5072E000C78
:1002C000880B990B0E94553220E030E0A9010E9472
:1002D000523120E030E0A9010E94523120E030E0AC
:1002E00040E450E40E94523120E030E040E450E429
:1002F0000E9451310E9422326F5F7F4FDCCFDF912D
:10030000CF9108950F931F93CF93DF93EC018C81CE
:100310000E946C388C018C859D85C8DF88850E9481
:100320006C38488159816A817B81019781F4013061
:10033000110579F44F5F5F4F6F4F7F4F48835983AB
:100340006A837B83DF91CF911F910F910895012BD9
:1003500089F34150510961097109F0CF87E593E0B4
:10036000D1CF87E693E0CECF87E793E0CBCF87E886
:1003700093E0C8CF0F931F93CF93DF93EC01888551
:100380000E946C388C018C859D8590DF8C810E9449
:100390006C38488159816A817B81019779F4012BFE
:1003A00081F44F5F5F4F6F4F7F4F488359836A835C
:1003B0007B83DF91CF911F910F910895013011053B
:1003C00081F34150510961097109EFCF87E593E04D
:1003D000D1CF87E693E0CECF87E793E0CBCF87E816
:1003E00093E0C8CF0F931F93CF93DF93D82FC62FDF
:1003F0008A01E091560380E1E89FF0011124E95A57
:10040000FC4F8D2F90E0B0E0A0E084839583A6831D
:10041000B783862F90E0B0E0A0E080879187A28725
:10042000B387108211821282138281E090E0A0E0F3
:10043000B0E084879587A687B78760E08D2F0E94FC
:10044000033860E08C2F0E9403388091560381307E
:1004500009F43FC0A8F0823009F462C0833009F487
:1004600086C08091560391E0980F90935603F8014F
:10047000808390E080E0DF91CF911F910F910895EC
:1004800080E0D23049F081E0D33031F08EEE8D0F34
:100490008430D8F487E18D1B41E050E066EE71E0D6
:1004A0000E94F03380E0C23049F081E0C33031F087
:1004B0008EEE8C0F843058F487E18C1B41E050E0C5
:1004C0006EEA71E00E94F033CCCF8FEFE5CF8FEF73
:1004D000F5CF80E0D23049F081E0D33031F08EEEBC
:1004E0008D0F8430C8F487E18D1B41E050E069EE48
:1004F00071E00E94F03380E0C23049F081E0C33007
:1005000031F08EEE8C0F843048F487E18C1B41E093
:1005100050E061EB71E0D6CF8FEFE7CF8FEFF7CFF1
:1005200080E0D23049F081E0D33031F08EEE8D0F93
:100530008430C8F487E18D1B41E050E06CEE71E03F
:100540000E94F03380E0C23049F081E0C33031F0E6
:100550008EEE8C0F843048F487E18C1B41E050E034
:1005600064EB71E0AFCF8FEFE7CF8FEFF7CF80E095
:10057000D23049F081E0D33031F08EEE8D0F8430EF
:10058000C8F487E18D1B41E050E06FEE71E00E94FE
:10059000F03380E0C23049F081E0C33031F08EEEBC
:1005A0008C0F843048F487E18C1B41E050E067EB0E
:1005B00071E088CF8FEFE7CF8FEFF7CF90E1899F82
:1005C000F0011124E95AFC4F80819181A281B3810D
:1005D000FB0180839183A283B38390E080E0089540
:1005E00090E1899FF0011124E95AFC4F1082118299
:1005F0001282138290E080E0089590E080E00895F8
:10060000CF92DF92EF92FF92CF93882351F16A014C
:100610007B01CFEFC80F20E030E0A901CB01B6018C
:100620000E94B63187FF11C0C701B60190580E94E1
:1006300027329B01AC016C2F70E090E080E0CF91FD
:10064000FF90EF90DF90CF90B2C0C701B6010E943B
:1006500022328C2FCF91FF90EF90DF90CF900C94AF
:10066000C936CF91FF90EF90DF90CF9008950F9310
:100670001F938B019C0183E036952795179507956D
:100680008A95D1F709561C4F462F477021E030E07C
:10069000F90102C0EE0FFF1F4A95E2F7AF01F80122
:1006A00020812423CB010196211102C090E080E03B
:1006B0001F910F9108950F931F938B019C0183E06D
:1006C00036952795179507958A95D1F7677081E03C
:1006D00090E001C0880F6A95EAF7F801E956FC4FEF
:1006E0002081452B31F48095822380831F910F91C7
:1006F0000895822BFACF2F923F924F925F926F9282
:100700007F928F929F92AF92BF92CF92DF92EF92A1
:10071000FF920F931F93CF93DF93D62EC72E782E81
:10072000692E49015A01280161E08D2D0E9403388C
:10073000CD2DDC2D8E010F5F1F4FA8016D2D7C2D5F
:10074000872D962DB8DF20E030E0A901C201B70166
:100750000E940533181664F4C201B7010E942732C3
:100760002B01C501B4010E942732A201CE0123D082
:10077000C801DF91CF911F910F91FF90EF90DF9013
:10078000CF90BF90AF909F908F907F906F905F9031
:100790004F903F902F900895882341F08150682F0B
:1007A00070E090E080E050E040E085CF0895862F33
:1007B000B9010C94C9369C01FC01EE5FFE4FE49137
:1007C000E150E231E0F4F0E08827E651FC4F8F4F32
:1007D0000C943E3CFC03030406041D043204FF0396
:1007E0004704530457046E0483049804AF04C404FC
:1007F000FF03D904F004050584B5806884BD60E07A
:10080000822F0C943F3884B58062F8CF80918000AD
:100810008C7F82608093800080918100807E8061E7
:10082000682B6093810050938700409386008091ED
:100830008000806880938000E2CF809180008C7F70
:1008400082608093800080918100807E8061682B2F
:1008500060938100509387004093860080918000D0
:100860008062E8CF809180008C7F826080938000DE
:1008700080918100807E8061682B6093810050931D
:10088000870040938600809180008860D3CF80915C
:10089000B00080688093B0008091B100887F682BA1
:1008A0006093B100ACCF8091B0008062F3CF8091B3
:1008B00090008C7F82608093900080919100807E78
:1008C0008061682B6093910050939700409396004D
:1008D0008091900080688093900091CF80919000EB
:1008E0008C7F82608093900080919100807E8061F7
:1008F000682B6093910050939700409396008091ED
:1009000090008062E8CF809190008C7F826080931D
:10091000900080919100807E8061682B60939100AF
:100920005093970040939600809190008860D3CFB9
:100930008091A0008C7F82608093A0008091A100B4
:10094000807E8061682B6093A1005093A700409344
:10095000A6008091A00080688093A00050CF809175
:10096000A0008C7F82608093A0008091A100807E97
:100970008061682B6093A1005093A7004093A6006C
:100980008091A0008062E8CF8091A0008C7F82607F
:100990008093A0008091A100807E8061682B60938D
:1009A000A1005093A7004093A6008091A00088600A
:1009B000D3CF809120018C7F826080932001809131
:1009C0002101807E8061682B609321015093270173
:1009D00040932601809120018068809320010FCFF1
:1009E000809120018C7F8260809320018091210181
:1009F000807E8061682B6093210150932701409392
:100A00002601809120018062E8CF809120018C7FB7
:100A100082608093200180912101807E8061682B1B
:100A2000609321015093270140932601809120017A
:100A30008860D3CF90E080E008950F931F930097D4
:100A400009F489C06115710509F485C00091280277
:100A50001091290220912A0230912B020E3F1F4F44
:100A60002F4F3F4F09F068C04FEF5FEFBA0140933F
:100A700028025093290260932A0270932B0240911E
:100A800028025091290260912A0270912B02DC0108
:100A90001296ED91FC9180819181A281B381809326
:100AA000A0049093A104A093A204B093A304848112
:100AB0009581A681B78180939C0490939D04A09317
:100AC0009E04B0939F0480859185A285B385809311
:100AD000980490939904A0939A04B0939B048485FE
:100AE0009585A685B7858093940490939504A093EB
:100AF0009604B0939704109290041092910410926F
:100B00009204109293040E941F1484E494E1909341
:100B1000A1038093A0039093A3038093A2030E9458
:100B20000E13009731F421E030E03093A5042093B8
:100B3000A4041F910F910895009128021091290299
:100B400020912A0230912B02DB010D931D932D93EE
:100B50003C93139794CF8FEF9FEFEBCF8F929F92A1
:100B6000AF92BF92CF92DF92EF92FF921F93CF93FB
:100B7000DF934B015C011091A70482E090E0909319
:100B8000A5048093A40481149104A104B10441F448
:100B90008091A704811104C08091A604C1E0811155
:100BA000C0E0C12CD12C76018091A704811106C030
:100BB0008091A604811102C0CC23D9F083E090E09B
:100BC0009093A5048093A404CC2381F1CCE9DFEFBA
:100BD000111102C00E94A917CE01DF91CF911F9180
:100BE000FF90EF90DF90CF90BF90AF909F908F904D
:100BF00008956AE070E080E090E00E94313680E184
:100C0000C80E87E2D81EE11CF11C8FEF88169806EB
:100C1000A806B80631F0C1E08C149D04AE04BF04F0
:100C200008F0C0E080E00E944213BECFD0E0C0E0F8
:100C3000CFCFCF92DF92EF92FF920F931F93CF937C
:100C4000DF938F3F910511F008F051C02091A4046B
:100C50003091A5042330310539F02091A40430915E
:100C6000A5042130310531F424E030E03093A504AF
:100C70002093A4046A017B01EC0182309105A8F065
:100C800011E0AE01C701B6010E940D13AB01BC011A
:100C9000CE011123F9F0DF91CF911F910F91FF90B9
:100CA000EF90DF90CF900C94D2198C01000F111FA0
:100CB00000561C4FD8018D919C91892B09F30E94FD
:100CC000DC190297E9F6D801ED91FC91CE01199556
:100CD000182FD7CF0E94F41990E080E0DF91CF91D8
:100CE0001F910F91FF90EF90DF90CF9008958FEFBD
:100CF0009FEFF4CF80E00C944213CF93DF9386E014
:100D000090E09093A5048093A4040E949B13EC01AF
:100D1000E0EAF3E084E0DF011D928A95E9F70E94A2
:100D200041171092A5041092A404CE01DF91CF9137
:100D300008958091A604089580918F04089560938A
:100D400028027093290280932A0290932B0290E04C
:100D500080E008952F923F924F925F926F927F9220
:100D60008F929F92AF92BF92CF92DF92EF92FF92BB
:100D70000F931F93CF93DF93CDB7DEB7E2970FB6F4
:100D8000F894DEBF0FBECDBF8091540B9091550BF0
:100D9000A091560BB091570B8093E40A9093E50A0B
:100DA000A093E60AB093E70A8091580B9091590BF3
:100DB000A0915A0BB0915B0B8093E80A9093E90ADB
:100DC000A093EA0AB093EB0A80915C0B90915D0BC3
:100DD000A0915E0BB0915F0B8093EC0A9093ED0AAB
:100DE000A093EE0AB093EF0A8091600B9091610B93
:100DF000A091620BB091630B8093F00A9093F10A7B
:100E0000A093F20AB093F30AE0916904F0916A04A6
:100E100020911C0230911D0240911E0250911F0230
:100E200060817181828193810E9409332091200227
:100E30003091210240912202509123020E945231AE
:100E40000E946C33209114023091150240911602D9
:100E5000509117020E940933209118023091190213
:100E600040911A0250911B020E9452316093F40A81
:100E70007093F50A8093F60A9093F70AC0900002E7
:100E8000D0900102E0900202F0900302A7019601C7
:100E90006091370B7091380B8091390B90913A0B20
:100EA0000E94B631882341F0C092370BD092380BA4
:100EB000E092390BF0923A0B8091360B811110922F
:100EC000360BBE01675F7F4F80913B0B77DB6985F7
:100ED0007A858B859C850E94553220912402309121
:100EE000250240912602509127020E9409331B01DE
:100EF0002C012092F80A3092F90A4092FA0A509294
:100F0000FB0AE0916904F0916A04C080D180E2801C
:100F1000F3806090640B7090650B8090660B9090EE
:100F2000670BA7019601B301C4010E94053387FD39
:100F300003C2A701960160916C0B70916D0B8091BB
:100F40006E0B90916F0B0E94053387FDF5C11092D7
:100F5000FC0A1092FD0A1092FE0A1092FF0A81E02C
:100F60008D8389831E821A821F821B8218861C82AF
:100F700024E83BE038A32F8F5E0135E0A30EB11CBF
:100F800004E81BE0C12CD12C7601BE86AD86D501CC
:100F90009D905D0120E030E0A901F8016481758138
:100FA000868197810E940933D8012D913D914D9101
:100FB0005C910E9452312B013C0120E030E0A901FC
:100FC000F80160857185828593850E9409339B01B4
:100FD000AC01C301B2010E9452312B013C0120E05F
:100FE00030E0A901D8011C966D917D918D919C9165
:100FF0001F970E9409339B01AC01C301B2010E94FB
:1010000052312B013C01692D990C770B880B990B00
:101010000E9455329B01AC01C301B2010E94093309
:101020009B01AC01C701B6010E9452316B017C01EA
:10103000005F1F4FBBE0043C1B0709F0A8CF2091C5
:10104000040C3091050C4091060C5091070C0E9445
:1010500052314B015C01E4E7FBE0F8A7EFA320E18C
:101060003BE03C8F2B8FCE010196988B8F879C8B1A
:101070008B8B388F2F8B8F01C12CD12C760120E0E8
:1010800030E0A901F80160A171A182A193A10E94A1
:101090000933D80150962D913D914D915C91539714
:1010A0000E9452312B013C0120E030E0A901F801FF
:1010B00060A971A982A993A90E9409339B01AC017F
:1010C000C301B2010E9452312B013C01F801E05CE6
:1010D000FF4F20E030E0A90160817181828193811E
:1010E0000E9409339B01AC01C301B2010E9452313D
:1010F000A50194010E94BA31AF89B88D6D937D939B
:101100008D939D93B88FAF8BEB89FC896191FC8B9C
:10111000EB8B062E000C770B880B990B0E94553237
:10112000F80120813181428153810C5F1F4F0E9461
:1011300009339B01AC01C701B6010E9452316B011A
:101140007C012B893C898D859E852817390709F0FC
:1011500096CF20E030E0A9016091F40A7091F50A81
:101160008091F60A9091F70A0E940933A70196012F
:101170000E9452319B01AC016091FC0A7091FD0A02
:101180008091FE0A9091FF0A0E9451312B013C018F
:101190008091100B9091110BA091120BB091130B39
:1011A0008F8B988FA98FBA8F8091140B9091150B0C
:1011B000A091160BB091170B8BA39CA3ADA3BEA35C
:1011C0008091180B9091190BA0911A0BB0911B0BE9
:1011D00089A79AA7ABA7BCA780911C0B90911D0B68
:1011E000A0911E0BB0911F0B8DA79EA7AFA7B8AB08
:1011F00004E61AE044E7242E4BE0342EAF85B8898C
:10120000FD90B88BAF87F10181909190A190B19042
:101210001F01AB8DBC8D6D917D918D919D91BC8F8A
:10122000AB8F6F01B4E0CB1AD108A30192010E94E9
:101230000933A50194010E945231F6016083718344
:10124000828393836F2DFF0C770B880B990B0E9481
:1012500055326B017C01AC019B016F89788D898DC2
:101260009A8D0E940933D8016D937D938D939C9341
:1012700013972BA13CA14DA15EA1C701B6010E940D
:101280000933F801648375838683978329A53AA57A
:101290004BA55CA5C701B6010E940933D801189679
:1012A0006D937D938D939C931B972DA53EA54FA584
:1012B00058A9C701B6010E940933F80164877587F0
:1012C00086879787005F1F4F2F8538898B899C8978
:1012D0002817390709F092CF6091740B7091750B44
:1012E0008091760B9091770B0E940A12C090740B3C
:1012F000D090750BE090760BF090770B160187017C
:1013000081116AC020E030E0A901C701B6010E9446
:10131000B63187FD5DC020E030E0A901C701B6010C
:101320000E940533212C312C00E81FE318160CF421
:1013300053C000E010E050C0A0906C0BB0906D0B5B
:1013400000916E0B10916F0B9501A801B301C401C0
:101350000E94B631A701960187FF2BC0B501C801D5
:101360000E94B63187FD2BC02091680B3091690B2C
:1013700040916A0B50916B0B53018401C201B10182
:101380000E9451312B013C019501A801C701B60112
:101390000E9451319B01AC01C301B2010E94BA31DC
:1013A0006093FC0A7093FD0A8093FE0A9093FF0AF3
:1013B000D6CDB301C4010E94053387FDD5CF20915E
:1013C000700B3091710B4091720B5091730BD6CF13
:1013D000212C312C00E81FEB8091780B9091790B38
:1013E000A0917A0BB0917B0B8F87988BA98BBA8BCE
:1013F000B0588B8B9C8BAD8BBE8B8091F40A9091F7
:10140000F50AA091F60AB091F70A8B8F9C8FAD8FE9
:10141000BE8F80917C0B90917D0BA0917E0BB09143
:101420007F0B8F8B988FA98FBA8F8090800B9090B5
:10143000810BA090820BB090830BA70196016B8962
:101440007C898D899E890E9409332B013C012F895B
:10145000388D498D5A8D6B8D7C8D8D8D9E8D0E9422
:1014600009339B01AC01C301B2010E9452312B012F
:101470003C019101A801C501B4010E9409339B01FF
:10148000AC01C301B2010E9451312AE037ED43E2C1
:101490005CE30E940933A70196010E9452316093D8
:1014A000000B7093010B8093020B9093030B8F85BD
:1014B0009889A989BA898093040B9093050BA0930E
:1014C000060BB093070B8F89988DA98DBA8D8093E9
:1014D000080B9093090BA0930A0BB0930B0B80920F
:1014E0000C0B90920D0BA0920E0BB0920F0B04E61A
:1014F0001AE0312C212CD80150968D919D910D90A0
:10150000BC91A02D8F87988BA98BBA8BD8018D9118
:101510009D910D90BC91A02D8F8B988FA98FBA8F24
:10152000D80190968D919D910D90BC91A02D8BA38B
:101530009CA3ADA3BEA3D801D0968D919D910D9093
:10154000BC91A02D89A79AA7ABA7BCA734E8632EAE
:101550003BE0732E512C412CC201805C9F4FD8017F
:10156000A80FB91FBEA7ADA7F301E20DF31DFAAB9B
:10157000E9ABD30114962D913D914D915C91179754
:101580006F85788989899A890E9409334B015C01AA
:10159000F30120813181428153816F89788D898D5A
:1015A0009A8D0E9409339B01AC01C501B4010E94D0
:1015B00052314B015C01D30118962D913D914D9113
:1015C0005C911B976BA17CA18DA19EA10E94093308
:1015D0009B01AC01C501B4010E9452314B015C0179
:1015E000F301248535854685578569A57AA58BA5A0
:1015F0009CA50E9409339B01AC01C501B4010E9466
:1016000052319B01AC01A9A9BAA96D917D918D912F
:101610009C910E945131EDA5FEA560837183828368
:101620009383F0E16F0E711C20E1420E511C30E4F7
:101630004316510409F090CF0C5F1F4F84E0280E31
:10164000311C90E12916310409F055CFE4EAFAE0A3
:10165000F88BEF8700E21BE024EE3AE084E89BE0A1
:101660004191519161917191DC014D935D936D9325
:101670007D93CD01D8011D928D012E173F0781F773
:101680002AE037ED43E25CE36B897C898D899E8992
:101690000E94093320E030E040E85FE30E945231CD
:1016A0006093640A7093650A8093660A9093670A50
:1016B0006091210B062E000C770B880B990B0E9472
:1016C00055326093680A7093690A80936A0A90930E
:1016D0006B0A6091220B062E000C770B880B990B7E
:1016E0000E94553260936C0A70936D0A80936E0A63
:1016F00090936F0A6091230B062E000C770B880BDA
:10170000990B0E9455326093700A7093710A80930E
:10171000720A9093730AC701B60190582AE037ED18
:1017200043E25CE30E9409334B015C016091240BAE
:10173000062E000C770B880B990B0E9455329B01EB
:10174000AC01C501B4010E9452316093740A7093D8
:10175000750A8093760A9093770A812C912C20E861
:10176000A22E2FE3B22E8092780A9092790AA0924C
:101770007A0AB0927B0A6091260B062E000C770B3A
:10178000880B990B0E94553260937C0A70937D0AF6
:1017900080937E0A90937F0A6091270B062E000C9F
:1017A000770B880B990B0E9455326093800A7093D7
:1017B000810A8093820A9093830A6091280B062EF7
:1017C000000C770B880B990B0E9455322B013C01C2
:1017D0002AE037ED43E25CE36B8D7C8D8D8D9E8D31
:1017E0000E9409339B01AC01C301B2010E94523136
:1017F0006093840A7093850A8093860A9093870A7F
:101800006091290B062E000C770B880B990B0E9418
:1018100055326093880A7093890A80938A0A90935C
:101820008B0A80928C0A90928D0AA0928E0AB092B6
:101830008F0A60912B0B062E000C770B880B990BEF
:101840000E9455326093900A7093910A8093920A95
:101850009093930AC701B601DDD5E090740BF09028
:10186000750B0091760B1091770B882309F4CBC28E
:10187000C701D801BC01CD0190582AE037ED43E201
:101880005CE30E9409336B017C0160912C0B062EF6
:10189000000C770B880B990B0E9455329B01AC0111
:1018A000C701B6010E9452316093940A7093950A61
:1018B0008093960A9093970A60912D0B062E000C48
:1018C000770B880B990B0E9455326093980A70939E
:1018D000990A80939A0A90939B0A60912E0B062E88
:1018E000000C770B880B990B0E94553260939C0A71
:1018F00070939D0A80939E0A90939F0A80E090E0E7
:10190000A0E8BFE38093A00A9093A10AA093A20A43
:10191000B093A30A10E000E0AF8DB8A1CD90DD90A8
:10192000ED90FC90139714968D919D910D90BC9124
:10193000A02D8B8B9C8BAD8BBE8BAF8DB8A11896D9
:101940008D919D910D90BC91A02D8B8F9C8FAD8F13
:10195000BE8FAF8DB8A11C968D919D910D90BC91BD
:10196000A02D8F8B988FA98FBA8F94E6292E9AE09D
:10197000392EF10141905190619071901F019F01AA
:10198000200F311F3CA32BA3248535854685578521
:101990006B897C898D899E890E9409334B015C018A
:1019A000A3019201C701B6010E94093320E030E093
:1019B000A9010E9452319B01AC01C501B4010E94F2
:1019C00052314B015C01D1015C962D913D914D91BD
:1019D0005C915F976B8D7C8D8D8D9E8D0E94093300
:1019E0009B01AC01C501B4010E9452314B015C0165
:1019F000F10124A535A546A557A56F89788D898D58
:101A00009A8D0E9409339B01AC01C501B4010E946B
:101A10005231ABA1BCA1DC966D937D938D939C93C9
:101A2000DF97E4E7FAE0E215F30509F0A2CF2F8D86
:101A300038A1205F3F4F38A32F8F005F1F4F003426
:101A4000110509F069CFAF85B88950968D909D90AA
:101A5000AD90BC905397FD0181919191A191B1916D
:101A6000F88BEF878F8F98A3A9A3BAA3848D958D48
:101A7000A68DB78D8B8B9C8BAD8BBE8B84A595A5CE
:101A8000A6A5B7A58B8F9C8FAD8FBE8FEFA0F8A4B6
:101A9000B0E1EB0EF11C04E61AE068010C5F1F4F89
:101AA000F6012089318942895389C501B4010E9418
:101AB00009332B013C01D6012D913D914D915C9153
:101AC0006F8D78A189A19AA10E9409339B01AC0175
:101AD000C301B2010E9452312B013C01F801248D57
:101AE000358D468D578D6B897C898D899E890E94A5
:101AF00009339B01AC01C301B2010E9452312B0199
:101B00003C01D8019C962D913D914D915C919F9700
:101B10006B8D7C8D8D8D9E8D0E9409339B01AC0158
:101B2000C301B2010E945231F701E05CFF4F2081F6
:101B30003181428153810E945231F7016083718368
:101B400082839383F0E1EF0EF11C2016310609F039
:101B5000A4CFEF85F889E85AFF4F80819181A28157
:101B6000B381EFA1F8A581939193A193B193F8A7C5
:101B7000EFA324EB3AE08F8598892817390709F0FD
:101B800062CF20E030E04EE753E46091F40A7091B8
:101B9000F50A8091F60A9091F70A0E94093320E035
:101BA00030E040E451E40E94BA316B017C0120E056
:101BB00030E0A9010E94053310E061E0181694F0AE
:101BC00020E030E0A901C701B6010E94B631E894D7
:101BD000F7F811E060E087FD05C010E060E0C12C7F
:101BE000D12C760185E00E944F01612F87E00E9491
:101BF0004F0164E070E080E090E00E9437038C01C8
:101C00009093530B8093520B20E030E04FE753E466
:101C1000C701B6010E94B631181634F4C12CD12C7C
:101C20008FE7E82E83E4F82EB701A601C8010E94D1
:101C300000038091000B9091010BA091020BB091D9
:101C4000030B8093540B9093550BA093560BB093BA
:101C5000570B8091040B9091050BA091060BB0914E
:101C6000070B8093580B9093590BA0935A0BB0938A
:101C70005B0B8091080B9091090BA0910A0BB0911E
:101C80000B0B80935C0B90935D0BA0935E0BB0935A
:101C90005F0B80910C0B90910D0BA0910E0BB091EE
:101CA0000F0B8093600B9093610BA093620BB0932A
:101CB000630B8091640B9091650BA091660BB091C2
:101CC000670B8F87988BA98BBA8B40901C0C509018
:101CD0001D0C60901E0C70901F0CA3019201BC01A2
:101CE000CD010E94B631E0916904F0916A0481113E
:101CF000AAC080819181A281B3818093640B90936B
:101D0000650BA093660BB093670BE8E6FBE0809150
:101D1000F80A9091F90AA091FA0AB091FB0A80831F
:101D20009183A283B38340915604509157046091EC
:101D300058047091590490E080E00E941906409187
:101D40005E0450915F04609160047091610481E0D1
:101D500090E00E941906609156047091570480919A
:101D60005804909159046F5F7F4F8F4F9F4F60933E
:101D7000560470935704809358049093590400912B
:101D8000690410916A040E9453329B01AC01609176
:101D90005A0470915B0480915C0490915D040E94F0
:101DA0000933D8016D937D938D939C931397809104
:101DB0005E0490915F04A0916004B091610401966B
:101DC000A11DB11D80935E0490935F04A0936004F5
:101DD000B0936104E2960FB6F894DEBF0FBECDBF9C
:101DE000DF91CF911F910F91FF90EF90DF90CF90F7
:101DF000BF90AF909F908F907F906F905F904F902B
:101E00003F902F90089520E030E0A901B701C8016C
:101E10000E94B63187FD0EC020E030E0A901B70175
:101E2000C8010E940533181654F480E090E0A0E841
:101E3000BFE320CD80E090E0A0E8BFEB1BCD80E0C9
:101E400090E0DC0117CD80906C0B90906D0BA09012
:101E50006E0BB0906F0BC080D180E280F380A50143
:101E60009401C301B2010E94B63181110BC0C0922E
:101E70006C0BD0926D0BE0926E0BF0926F0BE0E763
:101E8000FBE045CFA50194016F85788989899A89FE
:101E90000E94B63187FFEBCFC092640BD092650BE6
:101EA000E092660BF092670B30CFCF92DF92EF9209
:101EB000FF920F931F93CF93DF9384E090E059D26A
:101EC0008EEB93E026E634E03093C5032093C40301
:101ED00029E634E03093FF032093FE032AE534E043
:101EE0003093D3032093D203909329048093280442
:101EF0009093C3038093C20381E090E090936704C2
:101F00008093660485E592E09093C9038093C803AB
:101F10002BE634E030936A042093690480E090E07B
:101F2000A0E8BFEB8093620490936304A0936404E1
:101F3000B09365048AE097EDA3E2BCE380935A0472
:101F400090935B04A0935C04B0935D048AE595ECE8
:101F5000A0E7BBE58093440490934504A093460416
:101F6000B093470487EB94E4A8EEB2EC8093480466
:101F700090934904A0934A04B0934B048AEE97EFE0
:101F8000AAEAB3E580934C0490934D04A0934E04C9
:101F9000B0934F0483EA91E9AFE2BAEA8093500428
:101FA00090935104A0935204B093530482EB93E0B6
:101FB0009093C1038093C00384EA93E09093B303AA
:101FC0008093B20387EB92E09093A5038093A403E0
:101FD0009093A7038093A6039093A9038093A803EB
:101FE0009093AB038093AA039093AD038093AC03CB
:101FF0009093AF038093AE039093B1038093B003AB
:1020000084E594E09093B7038093B60384E494E06E
:102010009093B5038093B4033093B9032093B8032E
:1020200080911C0C90911D0CA0911E0CB0911F0C66
:102030008093640B9093650BA093660BB093670B32
:1020400080936C0B90936D0BA0936E0BB0936F0B02
:102050008091040290910502A0910602B0910702BE
:102060008093540B9093550BA093560BB093570B42
:1020700080E090E0A0E0B0E48093740B9093750B47
:10208000A093760BB093770B409108025091090210
:1020900060910A0270910B024093580B5093590BB8
:1020A00060935A0B70935B0B40E050E060E871E482
:1020B0004093780B5093790B60937A0B70937B0B62
:1020C00040910C0250910D0260910E0270910F022E
:1020D00040935C0B50935D0B60935E0B70935F0BB2
:1020E00040E050E060E670E440937C0B50937D0B41
:1020F00060937E0B70937F0B409110025091110200
:1021000060911202709113024093600B5093610B27
:102110006093620B7093630B8093800B9093810BA1
:10212000A093820BB093830BC7EAD2E004E81BE0D4
:1021300097E6E92E92E0F92E6991062E000C770BB6
:10214000880B990B0E945532F8016193719381932A
:1021500091938F01F70161917191819191917F012B
:102160002AE037ED43E25CE30E940933F80164AFF3
:1021700075AF86AF97AFF2E0C73BDF07E9F68AE0BD
:1021800097EDA3EABCE38093040C9093050CA09315
:10219000060CB093070C10923B0B1092300B809101
:1021A000000290910102A0910202B091030280937B
:1021B000370B9093380BA093390BB0933A0B1092D6
:1021C000350BC12CD12C7601C394C092310BD09227
:1021D000320BE092330BF092340B4BE35BE063E0A5
:1021E00082E00E94F201C1E0C093350B1092360BE1
:1021F00080913B0B0E94F0021092440BC092450B61
:10220000D092460BE092470BF092480B61E085E0DC
:102210000E944701C093490B10923C0BC0923D0BAA
:10222000D0923E0BE0923F0BF092400B61E087E0D2
:102230000E944701C093410B10924C0B1092510B1E
:10224000C0924D0BD0924E0BE0924F0BF092500B80
:10225000E12CF12C8701A801970164E070E080E097
:1022600090E00E947B039093530B8093520BC0939A
:10227000510BDF91CF911F910F91FF90EF90DF9065
:10228000CF9008958091300B811114C081E080932C
:10229000300B8091310B9091320BA091330BB091A8
:1022A000340B0197A105B10529F48091350B8111FB
:1022B0000E94FD028091440B811103C081E0809354
:1022C000440B80913C0B811103C081E080933C0B57
:1022D00080914C0B81112EC081E080934C0B80913A
:1022E0004D0B90914E0BA0914F0BB091500B01975D
:1022F000A105B105F9F48091510B8823D9F064E070
:1023000070E080E090E00E9437039093530B80933D
:10231000520B40E050E0BA010E94000364E070E01C
:1023200080E090E00E9437039093530B8093520B10
:102330000C94CC03089560E070E080E89FE7089576
:1023400060E070E080E89FE7089560E070E080E87A
:102350009FEF089560E070E080E89FEF089560E0EF
:1023600070E080EC9FEF089560E070E080EC9FEFFC
:102370000895F5DF6093200C7093210C8093220C5C
:102380009093230CF1DF6093140C7093150C8093E1
:10239000160C9093170CCFDF60931C0C70931D0CE0
:1023A00080931E0C90931F0CCBDF6093180C7093DE
:1023B000190C80931A0C90931B0CC7DF6093240CAC
:1023C0007093250C8093260C9093270CC3DF6093A9
:1023D000280C7093290C80932A0C90932B0C089551
:1023E0000F931F938B019C010027112720783F77C3
:1023F0000115110520483F4749F4AB01BC016F7737
:10240000772781E0452B462B472B09F480E01F916D
:102410000F910895E5CF4F925F926F927F928F92C6
:102420009F92AF92BF92CF92DF92EF92FF920F9363
:102430001F93F89440907F04509080046090810432
:1024400070908204C0907304D0907404E09075047E
:10245000F09076044130510509F0A4C09B01AC0115
:10246000241935094609570929013A0100917B04CD
:1024700010917C0420917D0430917E044801590123
:10248000840C951CA61CB71C80169106A206B306E8
:10249000A0F4009177041091780420917904309190
:1024A0007A040F5F1F4F2F4F3F4F00937704109315
:1024B00078042093790430937A0480927B0490927C
:1024C0007C04A0927D04B0927E0400917704109168
:1024D00078042091790430917A0480928304909258
:1024E0008404A0928504B09286040093870410931C
:1024F00088042093890430938A0460937F04709346
:1025000080048093810490938204A0E1B7E2A30148
:1025100092010E94463C6C0D7D1D8E1D9F1D609397
:1025200073047093740480937504909376040091FF
:1025300028021091290220912A0230912B020F3F8C
:102540001F4F2F4F3F4FF1F00091280210912902A9
:1025500020912A0230912B020E3F1F4F2F4F3F4FE9
:1025600089F0C0902802D0902902E0902A02F090D1
:102570002B0221E08C149D04AE04BF0408F420E07B
:1025800020938F0478941F910F91FF90EF90DF902C
:10259000CF90BF90AF909F908F907F906F905F9003
:1025A0004F9008954B015C0184189508A608B70860
:1025B000A3019201261B370B480B590B64157505B7
:1025C00086059705D0F082169306A406B50640F45A
:1025D00020E030E0A90181149104A104B10491F438
:1025E000A0E1B7E20E94463CA7019601261B370BEB
:1025F000480B590BCA01B901C5CF82169306A40630
:10260000B50670F7A0E1B7E2A50194010E94463C2F
:102610006C0D7D1D8E1D9F1DB5CFFDCECF93DF931D
:1026200000D01F92CDB7DEB71C821B821A8219829E
:1026300010928B0410928C0410928D0410928E04D0
:10264000BE016F5F7F4FCE0103960E94A12F69816B
:102650007A818B819C810E94FC28009761F4BE01E5
:102660006F5F7F4FCE0103960E94AD2F69817A8103
:102670008B819C812FD50F900F900F900F90DF9141
:10268000CF910895FF920F931F93CF93DF93082F5D
:1026900060E070E0CB010E943136FF24F3940E9489
:1026A000E527EC01892B89F010E0CE3F8FEFD807AA
:1026B00069F0002361F160E070E0CB010E943136E7
:1026C00081E090E0892B59F322C011E026D5EC017E
:1026D000892B21F0CE3F8FEFD80759F711111EC07B
:1026E00011E0229609F410E00E949527EC01892B55
:1026F00021F0CE3F8FEFD807E1F6111111C011E0A4
:10270000CE3F8FEFD80709F410E001110BC0CE01C6
:10271000DF91CF911F910F91FF90089511E0E4CFC9
:1027200011E0F3CF60E070E0CB010E9431361F254D
:10273000812F90E0C7CFCF93DF9380918F048823C0
:1027400021F060E070E0CB014DD636D6D0E0C0E09D
:10275000892B71F06AE070E080E090E00E943136F1
:1027600081E090DF29D62196C03D27E0D20781F78E
:1027700028D60E9450291092A7041092A604109205
:10278000A0041092A1041092A2041092A30410922B
:102790009C0410929D0410929E0410929F0410922B
:1027A00098041092990410929A0410929B0410922B
:1027B000940410929504109296041092970410922B
:1027C00090041092910410929204109293044EEF90
:1027D0005FEF6FEF7FEF40932802509329026093E1
:1027E0002A0270932B0210928F04E3E8F4E028E0B1
:1027F000DF011D922A95E9F710927F041092800460
:10280000109281041092820410927B0410927C0436
:1028100010927D0410927E04109277041092780436
:102820001092790410927A04109273041092740436
:102830001092750410927604DF91CF910895109252
:10284000B3041092B4041092B5041092B60410921E
:10285000B2048091BB049091BC049093B104809326
:10286000B0041092AF041092AE041092AA04109219
:10287000AB041092AC041092AD041092B804109204
:10288000B70490E080E00895CF92DF92EF92FF923C
:102890000F931F93CF938C01019709F055C020919E
:1028A000BB043091BC048091B0049091B10440917C
:1028B000BB045091BC045093B1044093B00428175A
:1028C000390781F01092AF041092AE041092AA045E
:1028D0001092AB041092AC041092AD041092B804A4
:1028E0001092B7048091BB049091BC04019761F5EC
:1028F0008091B7049091B804892B21F480912C0227
:10290000811112C08091B7049091B8040197E1F44D
:102910008091AA049091AB04A091AC04B091AD0455
:102920000197A105B10581F41092AA041092AB049D
:102930001092AC041092AD0410922C0282E090E050
:102940009093B8048093B7048091BB049091BC0429
:10295000019709F01CC18091D1049091D204801795
:10296000910709F014C18091CD049091CE04A091FB
:10297000CF04B091D004009709F409C12091CC0490
:1029800021110DC04091CD045091CE046091CF042F
:102990007091D004452B462B472B09F4F8C02091A9
:1029A000B7043091B8042230310509F0F0C020910D
:1029B000AE042111ECC0FC01C080D180E280F38024
:1029C0008091B204882309F4D3C08091BE04909111
:1029D000BF04892B09F4FEC02091BE043091BF04CE
:1029E00081E02230310509F080E02091BE04309171
:1029F000BF04C1E02130310549F02091BE0430917F
:102A0000BF04C1E02230310509F0C0E0882309F499
:102A100056C02091C8043091C9044091CA04509115
:102A2000CB04C701B6010E94053387FD14C0209175
:102A3000C8043091C9044091CA045091CB046091FC
:102A4000B3047091B4048091B5049091B6040E94CF
:102A5000B63187FD22C02091C8043091C90440914D
:102A6000CA045091CB04C701B6010E940533181661
:102A700034F52091C8043091C9044091CA045091A2
:102A8000CB046091B3047091B4048091B50490912B
:102A9000B6040E94B631811112C08091C004909199
:102AA000C104A091C204B091C304892B8A2B8B2B43
:102AB00019F481E08093AF0481E08093AE04CC23CD
:102AC00009F456C02091C8043091C9044091CA0449
:102AD0005091CB04C701B6010E94B63187FF14C0E4
:102AE0002091C8043091C9044091CA045091CB048C
:102AF0006091B3047091B4048091B5049091B604D0
:102B00000E94053387FF22C02091C8043091C90478
:102B10004091CA045091CB04C701B6010E94B6315E
:102B2000811126C02091C8043091C9044091CA0483
:102B30005091CB046091B3047091B4048091B504BA
:102B40009091B6040E940533181694F48091C00445
:102B50009091C104A091C204B091C304892B8A2B27
:102B60008B2B19F481E08093AF0481E08093AE0455
:102B700081E09091AE04911180E08093B204C09204
:102B8000B304D092B404E092B504F092B6040130DC
:102B9000110509F067C18091B7049091B804892BA1
:102BA000D9F41092BD041092AE0480912C028823B7
:102BB00079F082E090E09093B8048093B70410928B
:102BC0002C022091BB043091BC0481E0232BE9F05E
:102BD00080E01BC081E009CF10922C028091BD04DF
:102BE000882349F01092AF041092B8041092B704F1
:102BF0001092BD04EDCF8091BB049091BC04892B51
:102C0000E1F08091AE041092AE042091B7043091AF
:102C1000B8042230310509F45EC088F4211531056D
:102C200009F448C02130310509F4F3C01092AF0413
:102C30001092AE041092BD0438C081E0E6CF23307C
:102C4000310509F4B1C02430310581F74091AA045F
:102C50005091AB046091AC047091AD0441155105E5
:102C60006105710561F04150510961097109409395
:102C7000AA045093AB046093AC047093AD044091EC
:102C8000AA045091AB046091AC047091AD04452B43
:102C9000462B472BD9F42091B9043091BA04213046
:102CA000310509F046C01092AF041092B80410929A
:102CB000B7040CC080912C02882341F082E090E0A0
:102CC0009093B8048093B70410922C021092A80439
:102CD0008091AF04CEC08823C9F38091C004909145
:102CE000C104A091C204B091C304181619061A06B3
:102CF0001B060CF07DC08091BB049091BC04019731
:102D000009F076C08091C0049091C104A091C204E2
:102D1000B091C3048093AA049093AB04A093AC0435
:102D2000B093AD0483E090E09093B8048093B7042F
:102D3000CDCF4091C4045091C5046091C6047091F8
:102D4000C704452B462B472BA9F01092AF04809166
:102D5000C4049091C504A091C604B091C7048093A7
:102D6000AA049093AB04A093AC04B093AD0481E0AB
:102D700090E0DACF882399F080912D0290912E0275
:102D8000A0912F02B09130028093AA049093AB04DB
:102D9000A093AC04B093AD0484E090E0C5CF109252
:102DA000AF0482E090E0C0CF8091AA049091AB0480
:102DB000A091AC04B091AD040097A105B10559F004
:102DC0000197A109B1098093AA049093AB04A09341
:102DD000AC04B093AD048091AA049091AB04A0918F
:102DE000AC04B091AD04892B8A2B8B2B09F06ECFEC
:102DF00080912D0290912E02A0912F02B09130026D
:102E0000892B8A2B8B2B09F44ECF81E08093AF0462
:102E1000B3CF4091AA045091AB046091AC0470917F
:102E2000AD04411551056105710561F0415051092D
:102E3000610971094093AA045093AB046093AC04F8
:102E40007093AD044091AA045091AB046091AC041E
:102E50007091AD04452B462B472B09F037CF8111DC
:102E6000C7CF9FCF8091A804882309F431CF8091E8
:102E7000A904CF911F910F91FF90EF90DF90CF9019
:102E800008951092B3041092B4041092B5041092F5
:102E9000B6041092B2041092B8041092B7041092C3
:102EA000B1041092B0041092D2041092D104109286
:102EB000AF041092AE041092AA041092AB041092C8
:102EC000AC041092AD041092A9041092A8041092C0
:102ED000CD041092CE041092CF041092D004109220
:102EE000CC041092C8041092C9041092CA04109223
:102EF000CB0488EE93E0A0E0B0E080932D029093A5
:102F00002E02A0932F02B09330021092C4041092AC
:102F1000C5041092C6041092C7041092C004109207
:102F2000C1041092C2041092C3041092BF04109204
:102F3000BE0481E080932C021092BD041092BC0468
:102F40001092BB041092BA041092B90490E080E091
:102F500008958091BB049091BC04892B19F5809150
:102F60002C02882351F08091BD04811106C081E0BC
:102F70008093A9048093A80408952091BD04309102
:102F80002C0281E090E0332311F090E080E030E00B
:102F900082239323892B21F01092A90481E0EACFA8
:102FA0001092A804089582E090E0FA019183808352
:102FB0008FEF9FEF0895CF93DF93EA01009711F011
:102FC0000E94762A1982188290E080E0DF91CF91EA
:102FD0000895DB01009719F48FEF8C9308952EEF7D
:102FE0002C93FC013F96EF30F10508F034C08827A0
:102FF000E350F84E8F4F0C943E3C291827182518A3
:10300000231821181D181F181B1819181718141821
:1030100010180C1812182B1880E311968C93089531
:1030200089E2FBCF82E2F9CF11961C92089583E2E8
:10303000F4CF81E2F2CF81E1F0CF87E2EECF8AE2F6
:10304000ECCF80E1EACF84E2E8CF88E2E6CF86E207
:10305000E4CF81E3E2CF80E2E0CF8091DF04909182
:10306000E00408959093E0048093DF040895809134
:10307000DE0408959091DE04892B8093DE04089588
:10308000982F90958091DE0489238093DE04089523
:103090008091DD0408958091DB049091DC04089513
:1030A0006115710559F0FB0130E020E070E060E04F
:1030B0002417350719F06115710511F0CB0108953A
:1030C000A081B181A817B90709F4BF012F5F3F4F55
:1030D0003696EECF8091E10481111CC060D266D299
:1030E0009093D4048093D3040E947D220E948F2267
:1030F0009093D8048093D7040E94FD260E94042751
:103100009093D6048093D50481E08093E10490E00D
:1031100080E0089584EF9FEF08958F929F92AF9281
:10312000BF92CF92DF92EF92FF920F931F93CF93B4
:10313000DF9300D000D000D01F92CDB7DEB71A8643
:10314000198618861F821E821D821C821B821A828B
:1031500019828091E10407EF1FEF882309F49CC0D6
:103160008E010D5F1F4F9E012B5F3F4FAE01495FE8
:103170005F4FBE01675F7F4F90E080E00E94812833
:103180008C01009721F00596029708F0DBC0298595
:103190003A852115310509F402C1ED80FE804B818D
:1031A0005C81B701640F751F8F819885861797071B
:1031B00008F4F5C0E20EF31ED7019C91903C09F093
:1031C0007FC04230510508F47BC011968C9140912C
:1031D000DF045091E004452B09F49CC0913F08F0B6
:1031E00071C02CE1290F2D3008F48BC02DE2290F7E
:1031F000203108F489C0903C21F48150823008F4D9
:1032000083C088E3890F8B3008F481C099EEC92E02
:1032100097E1D92EE3EDF7E16D817E81AE014F5F3D
:103220005F4F89859A8519955C01C114D104A1F17C
:1032300089809A808114910479F18B819C81881511
:10324000990508F487C010E000E04B815C8170E0D4
:1032500060E0C7010E94683C01151105E9F449814D
:103260005A8169857A858D819E81680F791FC50194
:10327000F6011995E980FA800D811E812F8138852C
:1032800049855A856FEF7FEF81E090E00E941C280E
:103290008C01892B09F056C0C8012A960FB6F89404
:1032A000DEBF0FBECDBFDF91CF911F910F91FF9079
:1032B000EF90DF90CF90BF90AF909F908F90089548
:1032C00080E085CF30E020E0220F331FF901ED527E
:1032D000FB4F0190F081E02D309709F497CF892FB3
:1032E00090E01995009709F491CFDC011296ED91C9
:1032F000FC9113971496CD90DC90309709F08CCF09
:103300001FC021E030E0E0CF22E030E0DDCF23E05D
:1033100030E0DACFD12CC12CEBEDF7E19F3F09F083
:103320007BCFE091D304F091D404309721F4C9010C
:1033300004EF1FEF0CC08FEF90E019950097A9F6EE
:1033400004EF1FEF89859A85009709F4A5CF0E94A5
:10335000762AA2CF0E944B298C0189859A850E94EA
:10336000762A70E060E0C4010E94E42898878F8389
:103370000E9419289E838D836F8178856115710560
:1033800059F0C8010E94D52B9A87898706EF1FEF55
:10339000892B09F058CF59CF08EF1FEF56CF08EF10
:1033A0001FEFD0CF2091E104222319F020E00C94EC
:1033B000942287EF9FEF08958091DF049091E004BD
:1033C00008950E9409270E946326F5D0E3EDF4E0FA
:1033D00088E0DF011D928A95E9F71092E10490E000
:1033E00080E008950C94C22421E040E050E0BA014E
:1033F0000C94942286E090E0FA019183808390E01F
:1034000080E0089547E050E06AEB72E049CEDF9239
:10341000EF92FF920F931F93CF93DF938A01EC01FA
:10342000C60FD71FE090E504F090E604D9800E9413
:103430003329D816190678F082E090E0F8019183DC
:1034400080838EEF9FEFDF91CF911F910F91FF90BF
:10345000EF90DF900895EF2841F482E090E0F801CA
:103460009183808384EF9FEFEECF89818093E40482
:1034700090E00196F8019183808390E080E0E3CFB3
:10348000CF93DF93EA010E947325882321F00E94E5
:1034900040290E94742582E090E0998388838BEF15
:1034A0009FEFDF91CF910895CF93DF93EB0186E0FB
:1034B000FB0111928A95E9F78FEF8883D8DD898324
:1034C000E7DD8A83E8DD9D838C83DF91CF910895CA
:1034D000CF93DF93EA010E947625811109C082E033
:1034E00090E09983888385EF9FEFDF91CF910895D6
:1034F00090E080E0B7DD81E090E09983888390E000
:1035000080E0F3CF0F931F93CF93DF93EA018C01F9
:10351000060F171F0E94762581110BC082E090E0F4
:103520009983888385EF9FEFDF91CF911F910F9152
:103530000895F8018181823038F082E090E099832B
:1035400088838EEF9FEFF0CF81E090E08BDD88E005
:1035500090E09983888390E080E0E6CFCF93DF937B
:103560000097D1F4EB01FB01329686E0DF011D925A
:103570008A95E9F78FEF888385E089831A820E9414
:1035800033298B830E9432299D838C8381E08E8333
:103590008F83DF91CF910895DF91CF911ACD82E093
:1035A0009AE19093E3048093E20408958091E20409
:1035B0009091E30408951092E3041092E2040895B8
:1035C0008091E5049091E6040895411105C06115CC
:1035D00071058105910561F06093E5047093E6043F
:1035E0008093E7049093E8044093E90481E0089510
:1035F00080E00895FF920F931F93CF93DF938A018A
:10360000EC01C60FD71FF9800E943329F81619065E
:1036100068F082E090E0F801918380838EEF9FEF65
:10362000DF91CF911F910F91FF9008956C817D8163
:103630008E819F814B81C9DF811108C082E090E0BB
:10364000F8019183808384EF9FEFEACF8981809393
:10365000E40490E00196F8019183808390E080E09B
:10366000DFCFCF93DF93EA01FC01E60FF71F648100
:103670007581868197814381A8DF811109C082E02D
:1036800090E09983888384EF9FEFDF91CF91089535
:1036900081E090E09983888390E080E0F6CFE5EECA
:1036A000F4E04081518162817381480F511D611D99
:1036B000711D40835183628373830895CF93C091BA
:1036C000E4044C2F50E06091E5047091E60401960B
:1036D0000E945F3C8C2FE3DF1092E404CF910895A9
:1036E000009799F48091E5049091E6042FEFFB0197
:1036F0002083892B59F02091E40430E02F5F3F4F65
:103700002417350719F4CB01D9CF63CC089500975E
:1037100099F48091E5049091E6042FEFFB0120835A
:10372000892B59F02091E40430E02F5F3F4F24179C
:10373000350719F4CB01C2CF4CCC089523E1AC017D
:10374000249FC001259F900D1124E091EE04F0917B
:10375000EF04E80FF91F238134812250310981E001
:103760002230310508F080E008950F931F93CF9326
:10377000DF930091F0041091F104D0E0C0E080E00C
:103780000C171D0749F491E0811190E0892FDF911A
:10379000CF911F910F9108958111F5CFCE01CEDF0A
:1037A0002196EECFA091EE04B091EF04109729F18D
:1037B0002091F0043091F10482179307F0F453E163
:1037C000589F9001599F300D1124A20FB31FED9106
:1037D000FC911197309789F012968C91681768F4D4
:1037E0008BE0689FE00DF11D112480819181892B70
:1037F00021F081E09281491708F080E008959C0152
:1038000043E1429FC001439F900D1124E091EE04DB
:10381000F091EF04E80FF91F8385823099F481E07D
:1038200090E06581768140913102509132026417B7
:10383000750711F490E080E0892B21F081E02230BF
:10384000310508F080E00895EF92FF920F931F93E7
:10385000CF93DF93EA01FC01E60FF71F028113818A
:10386000E480F5804F2D6E2DC8019CDF81110DC0C5
:1038700082E090E0998388838EEF9FEFDF91CF9174
:103880001F910F91FF90EF900895C80157DF882393
:1038900039F082E090E09983888388EF9FEFEECF44
:1038A0001093380200933702E0923902F0923A0204
:1038B00081E090E09983888390E080E0DFCFCF9231
:1038C000DF92EF92FF920F931F93CF93DF937A01D2
:1038D000EC01C60FD71FC0903702D090380200917C
:1038E000390210913A02412F602FC6015BDF81112E
:1038F00010C082E090E0F701918380838AEF9FEF10
:10390000DF91CF911F910F91FF90EF90DF90CF90BB
:103910000895C60113DF882341F082E090E0F701AB
:103920009183808388EF9FEFEBCF4C815D816E8127
:103930007F819A8189818F3F41F082E090E0F70199
:10394000918380838EEF9FEFDBCFE3E1EC9D9001CD
:10395000ED9D300D1124E091EE04F091EF04E20FA3
:10396000F31F0190F081E02D2BE0029FE00DF11D8F
:1039700011240190F081E02D27E0129FE00DF11D50
:103980001124808391838B81828343835483658355
:1039900076831F5F10933A0281E090E0F7019183F4
:1039A000808390E080E0ACCFEF92FF920F931F9363
:1039B000CF93DF937A018C01060F171FC091EE049D
:1039C000D091EF04209781F021E030E0F80182816E
:1039D00093814091F0045091F1048417950710F001
:1039E00030E020E0232B71F482E090E0F701918336
:1039F00080838EEF9FEFDF91CF911F910F91FF900A
:103A0000EF90089543E1489F9001499F300D1124A4
:103A1000C20FD31F93DE882341F082E090E0F701CC
:103A20009183808388EF9FEFE6CFF8012481358171
:103A300020383105C8F687818111D6CF4181842F86
:103A400090E08F7E009741F082E090E0F701918353
:103A5000808386EF9FEFCFCF4F833E832D832681D8
:103A600028871986223010F421E0288721E030E0F1
:103A7000F70131832083BFCF88E090E0FA01918382
:103A8000808390E080E00895FB018FEF808381E1E7
:103A900081838FEF9FEF9383828380E890E095830B
:103AA0008483168217820895FB018FEF808391E053
:103AB000918382839383848384E3858381E090E090
:103AC000978386830895BF92CF92DF92EF92FF9201
:103AD0000F931F93CF93DF93DA01FC01E60FF71FDB
:103AE0008181813081F082E090E08D939C938FEF13
:103AF0009FEFDF91CF911F910F91FF90EF90DF909B
:103B0000CF90BF900895C281D381B4808581068112
:103B10001781E090EE04F090EF04E114F10439F421
:103B200082E090E08D939C938CEF9FEFE2CF209109
:103B3000F0043091F104C217D30738F082E090E02E
:103B40008D939C938EEF9FEFD4CFC230D10538F088
:103B500082E090E08D939C9386EF9FEFCACF9B2DE0
:103B60009D7FB1F78130A1F7B11005C0013011057B
:103B700031F080E004C081E002301105D0F38823E9
:103B800039F36D01CE01DADD882341F082E090E067
:103B9000F6019183808388EF9FEFABCF83E18C9F09
:103BA000F0018D9FF00D1124EE0DFF1DB38681E015
:103BB000848716870587108A178681E090E0F601D2
:103BC0009183808390E080E094CF4CE050E064EEFD
:103BD00072E066CA8F929F92BF92CF92DF92EF926D
:103BE000FF920F931F93CF93DF93EA01FC01E60F3F
:103BF000F71F828193810481B580E091EE04F091FA
:103C0000EF04309791F482E090E0998388838CEF01
:103C10009FEFDF91CF911F910F91FF90EF90DF9079
:103C2000CF90BF909F908F9008952091F004309195
:103C3000F1048217930738F082E090E0998388833B
:103C40008EEF9FEFE6CF23E1289F6001299FD00CE4
:103C50001124EC0DFD1DE080F180E114F10499F2D6
:103C60008281081748F78BE0089F80011124E00E3D
:103C7000F11EF70180819181892B29F6BB20E1F2A9
:103C8000F7E0BF9E40011124C4010E942B2AF701D6
:103C900091838083E091EE04F091EF04EC0DFD1D23
:103CA0000190F081E02DE00FF11F8081918100975C
:103CB00039F482E090E0998388838DEF9FEFA9CF5C
:103CC000A40170E060E00E94683C8091EE04909155
:103CD000EF04C80ED91EF60180819181080F191FCB
:103CE000F801B28281E090E09983888390E080E0DF
:103CF00090CFAF92BF92CF92DF92FF920F931F931C
:103D0000CF93DF93EA01FC01E60FF71F82819381D5
:103D1000F4800091EE041091EF040115110581F477
:103D200082E090E0998388838CEF9FEFDF91CF91C1
:103D30001F910F91FF90DF90CF90BF90AF900895AB
:103D40002091F0043091F1048217930738F082E05B
:103D500090E0998388838EEF9FEFE8CF2FEF2F0DB0
:103D60002C3FA8F723E1289F6001299FD00C112444
:103D70000C0D1D1DF80180819181892B89F6FBE0D6
:103D8000FF9E50011124C5010E942B2AF801918346
:103D90008083E091EE04F091EF04EC0DFD1D808135
:103DA0009181009739F482E090E0998388838DEFC8
:103DB0009FEFBCCFA50170E060E00E94683CE091FD
:103DC000EE04F091EF04EC0DFD1DF28281E090E035
:103DD0009983888390E080E0A9CFCF92DF92EF9221
:103DE000FF920F931F93CF93DF93860F971FFC01D2
:103DF000028113818091EE049091EF04892B81F070
:103E000082E090E0FA01918380838CEF9FEFDF9155
:103E1000CF911F910F91FF90EF90DF90CF90089579
:103E2000C801B0E0A0E00197A109B1098F3F9F4F01
:103E3000A105B10540F082E090E0FA019183808312
:103E40008EEF9FEFE4CF7A0183E1809F6001819F35
:103E5000D00C1124C6010E942B2AEC01009741F4DA
:103E600082E090E0F701918380838DEF9FEFCFCFC9
:103E7000A60170E060E00E94683CD093EF04C0931C
:103E8000EE041093F1040093F00490E080E02FEF33
:103E90003FEF41E061E070E08017910741F481E07D
:103EA00090E0F7019183808390E080E0B0CF3A8B7F
:103EB000298B1B864C877E876D87188A1F86019603
:103EC0006396EACFCF92DF92EF92FF920F931F9308
:103ED000CF93DF93EC01D12CC12C10E000E0F12C4A
:103EE000E12C6A816017110609F0CCF483E0689F29
:103EF000B0011124AE014F5E5F4FC7010E94A22A9C
:103F0000009721F02FEF3FEF3A8B298BDF91CF9174
:103F10001F910F91FF90EF90DF90CF900895E8816F
:103F2000F981EC0DFD1D438154818D859E85489F4F
:103F30009001499F300D589F300D1124C901019601
:103F40000115110519F44F8144FD049661E070E0FC
:103F50000E94E428E816F90608F47C010F5F1F4F61
:103F60008BE0C80ED11CBDCFF8942091EC043091A9
:103F7000ED0481E02115310509F080E0232B09F0E3
:103F8000789408952F923F924F925F926F927F9212
:103F90008F929F92AF92BF92CF92DF92EF92FF9259
:103FA0000F931F93CF93DF933C01660E771EF301AF
:103FB000828193814C01B12CA12CC091EE04D0914F
:103FC000EF04209769F021E030E06091F0047091F7
:103FD000F1048617970710F030E020E0232BD1F48E
:103FE00082E090E0FA01918380838EEF9FEFDF9172
:103FF000CF911F910F91FF90EF90DF90CF90BF90E6
:10400000AF909F908F907F906F905F904F903F9078
:104010002F90089580923B0290923C02A0923D0224
:10402000B0923E0263E1689F9001699F300D1124B8
:10403000C20FD31FF3018181833040F082E090E012
:10404000FA019183808386EF9FEFD1CF2A012B81E4
:104050003C81232BF1F4288139819F8191FF2EC06F
:10406000232B09F46FC02091F3049A81422F490F4A
:104070005527551FBA0141E050E06138710514F031
:1040800050E040E0452B09F45DC02A87920F9093E1
:10409000F3048150823008F481C066DF882309F47C
:1040A000D8C0F3018181813009F48DC008F47BC050
:1040B000823009F4C6C090E080E0ADC0232B09F443
:1040C00041C02091F2049A81E22FE90FFF27FF1FE0
:1040D00041E050E0ED3FF10514F050E040E0452BA9
:1040E00089F12A87920F9093F204D3CFA081B181F6
:1040F000A20FB31F11966C91060F111D0196295F37
:104100003F4F8417950794F38D859E85089F100176
:10411000099F300C189F300C1124C114D104D1F424
:104120008F8184FF17C00E943229F5E02F0E311CC9
:1041300021E08215930508F420E0A701455F5F4F59
:1041400021110EC082E090E0F2019183808387EF1D
:104150009FEF4DCF0E9432292FEF221A320AE8CF6B
:1041600088819981E80EF91EF70114830383FFEF1C
:10417000CF1ADF0A7A018A818C151D0409F00CF42C
:104180008CCFE881F981EE0DFF1D428150E030E0D7
:1041900020E010E000E090E080E0B3CFF12CE12CD3
:1041A000D12CC12CE8CF81E090E09C838B83DDDAB9
:1041B000882309F480CF81E090E00E94321880E4E7
:1041C0000E94401878CF89899A89019661F083E02E
:1041D00090E09C838B8382E090E00E94321880E420
:1041E0000E943A1868CF2D813E81809131029091D2
:1041F000320228173907D1F46091350270913602E6
:10420000AE014F5E5F4F80913302909134020E9465
:10421000942B0097E1F2789422E030E0F2013183B0
:104220002083892B99F08DEF9FEFE1CE22E082165B
:104230009104A104B1045CF6CE0144DE188A1F8605
:10424000E8CF82E090E09C838B8335CF90E080E0E4
:10425000CECE82E090E0F2019183808385EF9FEFE4
:10426000C6CE8F929F92AF92BF92CF92DF92EF9283
:10427000FF920F931F93CF93DF93EA018C01060FF8
:10428000171FF8018181833098F082E090E09983D4
:10429000888386EF9FEFDF91CF911F910F91FF9061
:1042A000EF90DF90CF90BF90AF909F908F90089548
:1042B0008091EE049091EF04892B61F081E090E011
:1042C0002091F0043091F104232B11F490E080E070
:1042D000892B39F482E090E0998388838EEF9FEFF9
:1042E000DACF42DE882309F4DEC0F8018181813013
:1042F00009F494C0E8F0823099F42091F0043091F0
:10430000F104E091EE04F091EF0490E080E041E0F0
:1043100050E02817390709F0BCC027DA811117C00F
:10432000789481E090E09983888390E080E0B3CF37
:104330002091F0043091F104E091EE04F091EF044B
:1043400090E080E041E050E02817390741F481E037
:1043500090E00E94321880E40E944018E1CF63810F
:104360007481672B11F05483438301967396ECCFCD
:10437000E091EE04F091EF04E00FF11F238134810E
:1043800022303105D9F4218932892F3F3F4FB1F4D2
:1043900045815681209131023091320242175307F4
:1043A00061F5AF014F5E5F4F60913502709136024B
:1043B00080913302909134020E94942B4FEFC41AE3
:1043C000D40AE40AF40A0D5E1F4F4091F0045091A4
:1043D000F10470E060E0C416D506E606F70634F591
:1043E000009731F27894892B09F49BCF82E090E01A
:1043F000998388838DEF9FEF4ECF22E0C216D104C0
:10440000E104F104DCF6CF015DDDE091EE04F09112
:10441000EF04E00FF11F108A1786D0CF10E000E004
:1044200090E080E0C12CD12C7601CFCF0097D1F65F
:1044300010E000E0812C912C540183E0E82EF12C57
:104440001AC0E091EE04F091EF04E00FF11F8381B8
:104450009481029749F4F482E38282E090E00E9422
:10446000321880E40E943A188FEF881A980AA80A36
:10447000B80A0D5E1F4F8091F0049091F104B0E0F6
:10448000A0E088169906AA06BB06DCF290E080E060
:10449000A9CF638174816230710511F45483438321
:1044A0000196739636CF82E090E09983888385EFFA
:1044B0009FEFF1CE0097B9F48FEFFB01808320913D
:1044C0003B0230913C0243E1429FC001439F900D6B
:1044D0001124E091EE04F091EF04E80FF91F8285BA
:1044E000FB01818308950C94E91788E090E0FA01BC
:1044F0009183808390E080E008951092ED04109203
:10450000EC04EEEEF4E086E0DF011D928A95E9F717
:1045100085EE9DE19093EB048093EA0408958091E9
:10452000EA049091EB0408952F923F924F925F928C
:104530006F927F928F929F92AF92BF92CF92DF92B3
:10454000EF92FF920F931F93CF93DF93CDB7DEB718
:1045500060970FB6F894DEBF0FBECDBFF894E09120
:10456000EC04F091ED043196F093ED04E093EC044B
:104570007894A091EE04B091EF04BA83A9831097C8
:1045800009F4FAC1E091F004F091F104EF2B09F481
:10459000F3C128874B875C876D877E879A878987D9
:1045A000B88BAF87312C212CF12C512C412C8091D0
:1045B000F0049091F1042816390610F4FF2029F137
:1045C000F8948091EC049091ED0401979093ED04A0
:1045D0008093EC047894C20160960FB6F894DEBF25
:1045E0000FBECDBFDF91CF911F910F91FF90EF9044
:1045F000DF90CF90BF90AF909F908F907F906F9003
:104600005F904F903F902F900895B10190E080E02F
:1046100087D4682EEF85F889878181FD3DC083812D
:1046200094810397C9F5258136813C832B83898545
:104630009A852817390781F5C101E1D8782E88239A
:10464000A9F1AF85B8891F968D919C9150970196DD
:1046500021E01D964D915C918417950709F020E0AB
:104660002F83B12CA12CEF85F88982818A151B0438
:1046700019F014F0FF20E9F0F885FF2309F46CC16C
:10468000AF85B88950961C921E921F97662021F024
:10469000B10190E080E046D4FFEF2F1A3F0A2F854A
:1046A00038892D5E3F4F388B2F8781CFB1E0BF8394
:1046B000D8CFBFD49E838D83E885EE23E9F07720A1
:1046C00009F43CC1AF85B8891F968D919C91892BC7
:1046D00079F0BBE0BA9DC001BB9D900D1124AF8560
:1046E000B889ED91FC91E80FF91F85819681FED67E
:1046F000BFEFAB1ABB0AB7CF81E0772039F0EF8567
:10470000F88927853089232B09F080E0F82EE12CE9
:10471000A114B10439F4AF85B8891796EC90E4FA86
:10472000EE24E0F8BBE0BA9D6001BB9DD00C1124E3
:10473000882309F424C1AF85B889ED91FC911197C4
:10474000EC0DFD1D438154811D962D913C91429F9E
:10475000C001439F900D529F900D1124E1105DC048
:1047600001969087878361E070E0878190852CD5E2
:10477000EF85F88921893289008111810C0D1D1D79
:104780002F3F320709F44BC0BC01C9010E94D52B51
:10479000D80116969C938E931597AF85B889ED91A5
:1047A000FC911197EC0DFD1D058116810115110578
:1047B00009F4CDC0ED81FE810E0F1F1F1A968C915A
:1047C0008A0DD8018C93E1102FC00F5F1F4FAF856A
:1047D000B889ED91FC91EC0DFD1D12870187AF8525
:1047E000B889ED91FC91EC0DFD1D85819681892B99
:1047F00009F4A4C080913102909132022B813C8156
:104800002817390709F465C0772011F00185128552
:10481000912C812C1A8219824AC00596A2CF1BD6F0
:10482000F80196838583B9CF8B859C85AD85BE8540
:10483000F80181839283A383B4830B5F1F4FC7CF9B
:10484000E080F180E80CF91CD70113966D917C9102
:1048500014978C918F3F09F473C0E1E0F0E002C03F
:10486000EE0FFF1F8A95E2F7CF01092E000CAA0B6D
:10487000BB0BFB01408151816281738184239523AD
:10488000A623B72321E0892B8A2B8B2B09F420E068
:10489000D8012C93D70111968C91080F111DE98135
:1048A000FA813196FA83E983F7E08F0E911CAF8588
:1048B000B889ED91FC91EC0DFD1D828129813A8131
:1048C0008217130611F00CF0BBCF772011F012877E
:1048D00001873F81332391F1AF85B889ED91FC9138
:1048E000EC0DFD1D61E070E0878190856DD4AF8592
:1048F000B889ED91FC91EC0DFD1DE780F0844581B8
:104900005681E1E0F0E0662011F0F0E0E0E00D819A
:104910001E819C01B101882799278E1B9F0B8CD388
:104920002C01892B59F0EF85F88980819181C80E7F
:10493000D91ED60115968D919C91D8D5F12CD8CE43
:10494000F701418150E0C8010E945F3CA3CF86EF90
:10495000482E55245A94CCCEEF85F88987859089C6
:104960000196908B8787258536858217930709F0F6
:104970008DCE108A17868ACE512C412C21CE10E084
:1049800000E02DCF2F923F924F925F926F927F92D5
:104990008F929F92AF92BF92CF92DF92EF92FF924F
:1049A0000F931F93CF93DF938091EE049091EF04C8
:1049B00010E000E0892BA9F0D7DA0AEF1FEF882377
:1049C00081F02090F0043090F104C091EE04D09179
:1049D000EF04D12CC12C10E000E02C143D04A9F40C
:1049E0007894C801DF91CF911F910F91FF90EF90C4
:1049F000DF90CF90BF90AF909F908F907F906F90FF
:104A00005F904F903F902F900895C6010E94FF1B2A
:104A1000882309F18B819C810397E9F48F8598891C
:104A2000892BC9F0B60190E080E07AD221E030E035
:104A3000882311F030E020E044245524421A530A20
:104A4000B12CA12C912C812C8A818815190409F094
:104A500038F4188A1F864FEFC41AD40A6396BDCF64
:104A6000E881F981EA0DFB1D85819681892BA1F1F1
:104A700061E070E087819085A7D33C01DAD28C0198
:104A8000E881F981EA0DFB1D8185928525813681BA
:104A9000200F311FAC01421B530B9A0147815085F7
:104AA000421B530B70E060E00E94683CE881F98192
:104AB000EA0DFB1DE780F084458156819301B60124
:104AC000C201BAD28C01892B39F0E881F981EA0D53
:104AD000FB1D858196810AD55FEF851A950A8BE0CB
:104AE000A80EB11CB1CF40CA789408952F923F927E
:104AF0004F925F926F927F929F92AF92BF92CF92AE
:104B0000DF92EF92FF920F931F93CF93DF9300D02A
:104B100000D0CDB7DEB70091EE041091EF049924D8
:104B200093940115110509F43EC0A090F004B090D3
:104B3000F1041ADA982E8823B1F11092EF04109242
:104B4000EE041092F1041092F0041092F20410920C
:104B5000F3048FEF9FEFDC0180933B0290933C02C4
:104B6000A0933D02B0933E0278947ED31E830D83C2
:104B7000C12CD12C7601C501B0E0A0E089839A83D5
:104B8000AB83BC8322242A94322C89819A81AB8105
:104B9000BC81C816D906EA06FB06F4F0C801A6D403
:104BA00080E40E944018892D26960FB6F894DEBF47
:104BB0000FBECDBFDF91CF911F910F91FF90EF906E
:104BC000DF90CF90BF90AF909F907F906F905F905D
:104BD0004F903F902F900895AD81BE8115962D91F5
:104BE0003C91169780913102909132022817390733
:104BF000D1F451968D919C91C6D5ED81FE81808135
:104C00009181B12CA12C412C512C3201892B81F5A1
:104C1000BFEFCB1ADB0AEB0AFB0AED81FE8173962C
:104C2000FE83ED83B2CFB2E0CB16D104E104F104F0
:104C300024F7ED81FE81818992898F3F980709F0E1
:104C40001DD5AD81BE8152963C922E925197D5CF03
:104C50008A0D9B1DDC018D919C91009709F046D433
:104C6000BFEF4B1A5B0A6B0A7B0AEBE0AE0EB11C7E
:104C7000AD81BE818D919C91119712964C9150E01F
:104C800070E060E044165506660677060CF32ED4F5
:104C9000BFCFCF93DF93EA0129DF811109C082E002
:104CA00090E09983888385EF9FEFDF91CF910895FE
:104CB00081E090E00E94321881E090E0998388833F
:104CC00090E080E0F2CF12DF1092EB041092EA0441
:104CD000089542E050E06CE273E00C945018FF92AB
:104CE0000F931F93CF93DF938A01EC01C60FD71F59
:104CF000F980B9D20897F816190671F068F082E0C9
:104D000090E0F801918380838EEF9FEFDF91CF9148
:104D10001F910F91FF9008956C817D818E819F81FD
:104D20004B810E94E51A811108C082E090E0F801F1
:104D30009183808384EF9FEFE9CFF9800E94E01A8E
:104D40004F2D50E0BE01685F7F4F0E945F3C89811C
:104D50000E944F1B81E090E0F8019183808390E0F6
:104D600080E0D4CFDF92EF92FF920F931F93CF9307
:104D7000DF938A01EC01C60FD71F0E94E01A7C0165
:104D8000D98071D2DD2059F0029721E030E0D816A9
:104D9000190619F010F030E020E0232B79F482E0BE
:104DA00090E0F801918380838EEF9FEFDF91CF91A8
:104DB0001F910F91FF90EF90DF900895EF2841F43D
:104DC00082E090E0F8019183808384EF9FEFEECF43
:104DD000F9800E94E01A4F2D50E0BE016E5F7F4FB8
:104DE0000E945F3C89810E944F1B81E090E0F801A6
:104DF0009183808390E080E0D9CF89E696E290931A
:104E0000F5048093F40408958091F4049091F504DE
:104E100008950895FC01118210829383828308957E
:104E2000DB011D921C92DC011296ED91FC9113970F
:104E30007183608313967C936E9312970895FC019F
:104E400080819181DB018D939C93A081B18110972A
:104E500041F08D919C9191838083892B11F4F38390
:104E6000E2830895FC0180819181DB018D939C9305
:104E7000892B11F473836283718360830895FC012D
:104E800011821082938382830895CF93DF931F92C0
:104E90001F92CDB7DEB71A821982F894BE016F5FF8
:104EA0007F4F8BEF94E0CBDF89819A81009709F0E7
:104EB0001DD389819A81892B89F7BE016F5F7F4F4E
:104EC0008FEF94E0BCDF89819A81009709F00ED3BF
:104ED00089819A81892B89F778940F900F90DF91BF
:104EE000CF910895CF93DF931F921F92CDB7DEB776
:104EF0001A821982F894BE016F5F7F4F87EF94E0AA
:104F00009EDF89819A81009709F0F0D289819A8188
:104F1000892B89F778940F900F90DF91CF910895A6
:104F200081E0089590E080E00895EF92FF920F9362
:104F30001F93CF93DF931F921F92CDB7DEB71A82D4
:104F400019828091F60407EF1FEF8823A1F1F894EE
:104F5000BE016F5F7F4F8FEF94E071DF789489819E
:104F60009A81EE24E394F12C892B51F4F894BE013C
:104F70006F5F7F4F8BEF94E062DF7894F12CE12C30
:104F800089819A810EEF1FEF0097A9F0FC01428101
:104F9000538164E070E009D68C01892B61F0F894AC
:104FA00069817A81C701880F991F880F991F8550E1
:104FB0009B4F58DF7894C8010F900F90DF91CF91ED
:104FC0001F910F91FF90EF9008950F931F93CF9330
:104FD000DF9300D01F92CDB7DEB71C821B821A82EE
:104FE00019828091F60407EF1FEF8823C1F0AE010C
:104FF0004D5F5F4F64E070E0CE01019649D68C01B1
:10500000892B69F4E981FA818B819C819383828366
:10501000F89469817A8187EF94E002DF7894C8017F
:105020000F900F900F900F90DF91CF911F910F91E4
:1050300008954ED7049608958F929F92AF92BF9293
:10504000CF92DF92EF92FF920F931F93CF93DF9354
:105050001F921F92CDB7DEB71A821982BC016F5F13
:105060007F4F6330710598F0AA24AA94BA2CC50129
:105070000F900F90DF91CF911F910F91FF90EF90C4
:10508000DF90CF90BF90AF909F908F900895411583
:10509000510551F3480159018A016C01CADF881595
:1050A000990511F7E114F104F9F28E0D9F1DA81670
:1050B000B906D0F28091F6048823F1F0F894B50196
:1050C000645071099701AE014F5F5F4FC8010496AC
:1050D00074D65C01892B71F489819A81F8019383DC
:1050E0008283C601880F991F880F991FB8018550C8
:1050F0009B4F96DE7894BBCF87EFA82EBB24BA9443
:10510000B6CFAF92BF92CF92DF92EF92FF920F9302
:105110001F93CF93DF931F921F92CDB7DEB71A82F2
:105120001982892B09F047C06115710509F443C044
:105130004115510509F43FC02115310509F43BC063
:1051400001151105C1F18091F6048823B9F17901A7
:105150006A015B01F894BE016F5F7F4F87EF94E0B7
:105160006EDE789489819A81009759F1DC0112965C
:105170006D917C91A801049639D68C01E981FA8160
:10518000D501ED93FC93828193810496F60191837E
:1051900080834FDFD7018D939C93C8010F900F90B0
:1051A000DF91CF911F910F91FF90EF90DF90CF9003
:1051B000BF90AF9008950FEF1FEFEFCF07EF1FEFF6
:1051C000ECCF0EEF1FEFE9CFCF93DF93EC01672B0E
:1051D00071F487D68C179D0760F07AD62496C80F95
:1051E000D91F79D68C0F9D1FDF91CF91089576D668
:1051F000F1CF90E080E0F8CF0F931F93CF93DF9330
:105200002091F60421112BC08B01EC018BEF94E06F
:1052100001DE8FEF94E0FEDD87EF94E0FBDD97D0B9
:105220000097C1F45ED670E060E0CEDF4FE352E05D
:1052300062E070E087D1009769F480913F0290911D
:10524000400261D6B801CE0196D4009719F421E04E
:105250002093F604DF91CF911F910F91089584EF71
:105260009FEFF8CF3BC63DC6CF93DF933DD6EC0111
:10527000892B11F40ADE36DECE01DF91CF9108953D
:10528000CF93DF9331D6EC01892B09F4FEDDCE01FB
:10529000DF91CF91089580913F029091400208954F
:1052A000CF93DF938091F604D0E0C0E08823D1F063
:1052B0002FD6EC01892BB1F4E8DD14DE80913F029A
:1052C00090914002DBD1C1D2EC01892B59F48BEFD4
:1052D00094E0D5DD8FEF94E0D2DD87EF94E0CFDD71
:1052E0001092F604CE01DF91CF910895EF92FF92D4
:1052F0000F931F93CF93DF93EC017A018B010F5F24
:105300001F4F0E9DA0010F9D500D1E9D500D11248D
:1053100070E060E00E94683C90E080E0F0E0E0E057
:105320002FEFE816F90639F4DF91CF911F910F9115
:10533000FF90EF9008951A8219822883309711F018
:10534000D283C1830196FE01C00FD11FEACFAF9275
:10535000BF92CF92DF92EF92FF920F931F93CF9362
:10536000DF9380E197E07C012CEFE22288E3C82EF6
:1053700083E0D82E9EE3A92E93E0B92EC7E9D7E0AB
:105380008E01D6014D915D916D01F5016191719193
:105390005F01D8011196FC92EE9215965C934E93A4
:1053A000149713965C934E93129717967C936E9373
:1053B00016979B012F5F3F4F249FC001259F900DA3
:1053C000349F900D112419969C938E931897E11495
:1053D000F10411F0C7018ADFF80180859185E80E9C
:1053E000F91E065F1F4FFEE3CF16F3E0DF0649F616
:1053F000E5E0F5E088E092E0DF019C011D9221509C
:105400003040E1F7109204051092030585EB97E018
:105410001F8E1E8E1BA21AA219A218A21DA21CA2C8
:105420001FA21EA22A968C179D0791F7109294072F
:1054300010929307109296071092950790E080E0E3
:10544000DF91CF911F910F91FF90EF90DF90CF9060
:10545000BF90AF900895009761F1F8948132910563
:1054600050F48091990790919A07892B31F020E0B0
:1054700090E080E011C0C197D8F48091A30790918B
:10548000A407892BC9F48091AD079091AE07892BB1
:1054900079F022E082E090E0EAE0E89FD001E99F25
:1054A000B00D1124A956B84F8D919C91009741F4ED
:1054B000789490E080E0089521E081E090E0ECCFE6
:1054C000E29FF0011124E956F84FDC0111964D914D
:1054D0005C915183408342815381415051095383F0
:1054E0004283FC012193CF0178940895009749F1FC
:1054F000DC018E91863041F4E0919507F09196079A
:105500003097F9F0CD0119948630D8F4282F30E087
:10551000F8948FEF8C938AE0829FF001839FF00DC7
:105520001124E956F84F8081918112969C938E93B5
:105530001197B183A08382819381019693838283A3
:1055400078940895CF92DF92EF92FF920F931F937A
:10555000CF93DF939C0188E095E08C7F4115510546
:1055600009F489C02115310509F485C0611571055B
:1055700009F481C08A01AB01B9016D5F7F4F6C7F77
:105580009B012F5F3F4F249F7001259FF00C349F9C
:10559000F00C1124F894E7E9F7E023E030E0E901AA
:1055A000A6A1B7A1C68CD78CCD2809F058C01097FA
:1055B00009F03EC0C0900305D090040525E032E01C
:1055C0002C193D092E153F0530F47894CFEFDFEF0D
:1055D00086EF9FEF21C02AE02C9FF0012D9FF00D58
:1055E0001124E956F84F9183808355834483538374
:1055F000428377836683F186E086009709F076DE42
:10560000EC0CFD1CF0920405E09203057894CF3F6A
:10561000DC07F1F290E080E0F801D183C083DF91F4
:10562000CF911F910F91FF90EF90DF90CF90089551
:10563000AE15BF05A0F02AE02C9FF0012D9FF00DC4
:105640001124E956F84F9183808355834483538313
:105650004283778366830097C9F248DED7CF8A0FEB
:105660009B1F2F5F3F4F3A962630310509F097CFA9
:10567000CFEFDFEFCBCF8FEF9FEFD1CF9C01039721
:10568000039708F04EC0F89485E09AE0482F50E068
:10569000241735079CF191E08AE0829FF001839FF7
:1056A000F00D1124E956F84F1182108215821482F0
:1056B00013821282178216829923E1F080910305EA
:1056C00090910405E7E9F7E022A933A9232B49F4D7
:1056D00022AD33AD2115310521F0821B930B13AEA2
:1056E00012AE3A9727E0E937F20771F79093040575
:1056F00080930305789490E080E00895949FF001F2
:10570000959FF00D1124E956F84F40815181452BAA
:1057100031F440855185452B11F48150B7CF90E08D
:10572000BBCF8FEF9FEF08954115510549F10097C9
:1057300039F16115710521F1F894209193073091A9
:105740009407232BB9F42091950730919607232BCA
:1057500089F49093940780939307709396076093CE
:105760009507789426E030E090E080E0FA013183FC
:105770002083089578942FEF3FEF86EF9FEFF6CFC9
:105780008FEF9FEF0895069769F4F89410929407AD
:10579000109293071092960710929507789490E0D4
:1057A00080E008958FEF9FEF08956115710519F45A
:1057B000F0E0E0E011C08630910581F4E0919307BC
:1057C000F09194073097A1F3CB01019619950097BA
:1057D00079F3FC0186E08193CF0108959C01235069
:1057E00031092330310520F72AE0289FD001299F75
:1057F000B00D1124A956B84F2D913C911197232B30
:10580000B9F216962D913C9117972617370780F21B
:10581000F89412962D913C9113972115310529F09A
:10582000ED91FC911197309711F47894C1CF41819B
:10583000528111965C934E932150310913963C93FB
:105840002E93129781937894C7CFEDE0F7E086E826
:10585000DF011D928A95E9F7E5E0F5E088E092E046
:10586000DF019C011D9221503040E1F710920405A8
:1058700010920305E7E9F7E08CE3DF011D928A95BA
:10588000E9F7E3E9F7E084E0DF011D928A95E9F7A3
:1058900090E080E00895CF93DF93C0914102D091D2
:1058A0004202CF3FDC0759F4DED39093420280934B
:1058B000410297FF09C0D0934202C093410284EF96
:1058C0009FEFDF91CF91089590E080E0FACF823092
:1058D000910528F48093D30790E080E008958FEF3E
:1058E0009FEF08954F925F926F927F92AF92BF9217
:1058F000CF92DF92EF92FF920F931F93CF93DF939C
:105900001F921F92CDB7DEB71A821982009709F451
:1059100079C06115710509F475C02091410230917B
:10592000420207EF1FEF2F3F3F4F09F445C06B01C5
:105930005C01412C512C3201F12CE12C10E000E0F3
:105940009E012F5F3F4FA6014E195F09B5016E0DF5
:105950007F1D8091410290914202E9D3892B09F089
:105960004BC089819A81009741F4E114F10429F434
:105970002091D307222309F442C0E80EF91EEC144B
:10598000FD04D0F480E8481684E858068EE16806E5
:10599000710420F560E070E0CB010E9431362AE00E
:1059A000420E511C611C711C0A3F4FEF140721F07D
:1059B000043F8FEF1807A1F4C8010F900F90DF91FB
:1059C000CF911F910F91FF90EF90DF90CF90BF90FC
:1059D000AF907F906F905F904F90089501EF1FEF11
:1059E00081E090E0013F2FEF120711F090E080E09E
:1059F000892B09F4A5CFE0CF04EF1FEFDDCF0AEF2D
:105A00001FEFDACF0FEF1FEFD7CF4F925F926F925A
:105A10007F92AF92BF92CF92DF92EF92FF920F935D
:105A20001F93CF93DF931F921F92CDB7DEB71A82D9
:105A30001982009709F479C06115710509F475C0E0
:105A4000209141023091420207EF1FEF2F3F3F4F5D
:105A500009F445C06B015C01412C512C3201F12C41
:105A6000E12C10E000E09E012F5F3F4FA6014E1990
:105A70005F09B5016E0D7F1D809141029091420238
:105A800009D3892B09F04BC089819A81009741F491
:105A9000E114F10429F42091D307222309F442C030
:105AA000E80EF91EEC14FD04D0F480E8481686E9EF
:105AB000580688E96806710420F560E070E0CB01C3
:105AC0000E9431362AE0420E511C611C711C0E3FAF
:105AD0004FEF140721F0043F8FEF1807A1F4C8011E
