:1000000014C100000C94E22B0C940D2C0C94382C91
:100010000C94632C0C948E2C0C94B92C0C94E42C22
:100020000C940F2D33C1000031C100002FC100001E
:100030002DC100002BC1000029C1000027C1000014
:1000400025C1000023C1000021C100001FC1000024
:100050001DC100001BC1000019C100000C943A2D05
:1000600015C100000C9436310C946C310FC10000A6
:100070000DC100000BC1000009C1000007C1000054
:1000800005C1000003C1000001C10000FFC0000065
:100090000C94C2310C94F831F9C00000F7C0000094
:1000A000F5C00000F3C00000F1C00000EFC0000088
:1000B000EDC00000EBC00000E9C00000E7C0000098
:1000C000E5C00000E3C00000E1C000000C944E3227
:1000D0000C948432DBC000000C94DA320C941033A0
:1000E000D5C0000005A84CCDB2D44EB93836A9020F
:1000F0000C50B9918688083CA6AAAA2ABE00000026
:10010000803F00000A0B02090C0D0E0807030401D2
:1001100000000000000000000000000000000000DF
:1001200000000000000000000000000000001211AC
:1001300010000000000000000000000000000000AF
:10014000000000000000000001021020200808103C
:100150002040102040800201020108040201010237
:100160000408102040808040201008040201800410
:10017000020180402010080402010804020101026B
:10018000040810204080010204081020408005056A
:100190000505070508080808020202020A0A0808FD
:1001A000040404040101010101010101030303032B
:1001B00003030303040707070C0C0C0C0C0C0C0CBA
:1001C0000202020206060606060606060B0B0B0BCB
:1001D0000B0B0B0B000020002300260029002C0035
:1001E0002F00320000010000030106010901000098
:1001F0002200250028002B002E00310034000201CF
:100200000000050108010B01000021002400270067
:100210002A002D0030003300010100000401070115
:100220000A0195312132AD32393311241FBECFEF8F
:10023000D1E2DEBFCDBF00E00CBF13E0A0E0B2E032
:10024000E2EDF7E600E00BBF02C007900D92A03090
:10025000B107D9F729E0A0E0B3E001C01D92A032B8
:10026000B207E1F711E0C5E1D1E000E006C0219757
:100270000109802FFE010E94B633C131D10780E011
:100280000807A9F70E9439280C94E733B9CE611109
:1002900002C00C947B2F6130E1F362E0FACF662359
:1002A00019F061E00C94B72F60E0FCCFCF93DF939F
:1002B000EC0170E060E06C177D070CF5072E000C78
:1002C000880B990B0E94CD2920E030E0A9010E9403
:1002D000CA2820E030E0A9010E94CA2820E030E0CE
:1002E00040E450E40E94CA2820E030E040E450E4BA
:1002F0000E94C9280E949A296F5F7F4FDCCFDF914F
:10030000CF9108950F931F93CF93DF93EC018C81CE
:100310000E94E42F8C018C859D85C8DF88850E9412
:10032000E42F488159816A817B81019781F40130F2
:10033000110579F44F5F5F4F6F4F7F4F48835983AB
:100340006A837B83DF91CF911F910F910895012BD9
:1003500089F34150510961097109F0CF81E093E0BF
:10036000D1CF81E193E0CECF81E293E0CBCF81E3A7
:1003700093E0C8CF0F931F93CF93DF93EC01888551
:100380000E94E42F8C018C859D8590DF8C810E94DA
:10039000E42F488159816A817B81019779F4012B8F
:1003A00081F44F5F5F4F6F4F7F4F488359836A835C
:1003B0007B83DF91CF911F910F910895013011053B
:1003C00081F34150510961097109EFCF81E093E058
:1003D000D1CF81E193E0CECF81E293E0CBCF81E337
:1003E00093E0C8CF0F931F93CF93DF93D82FC62FDF
:1003F0008A01E091000380E1E89FF0011124EF5FA2
:10040000FC4F8D2F90E0B0E0A0E084839583A6831D
:10041000B783862F90E0B0E0A0E080879187A28725
:10042000B387108211821282138281E090E0A0E0F3
:10043000B0E084879587A687B78760E08D2F0E94FC
:100440007B2F60E08C2F0E947B2F809100038130F6
:1004500009F43FC0A8F0823009F462C0833009F487
:1004600086C08091000391E0980F90930003F801FB
:10047000808390E080E0DF91CF911F910F910895EC
:1004800080E0D23049F081E0D33031F08EEE8D0F34
:100490008430D8F487E18D1B41E050E066EE71E0D6
:1004A0000E94682B80E0C23049F081E0C33031F017
:1004B0008EEE8C0F843058F487E18C1B41E050E0C5
:1004C0006EEA71E00E94682BCCCF8FEFE5CF8FEF03
:1004D000F5CF80E0D23049F081E0D33031F08EEEBC
:1004E0008D0F8430C8F487E18D1B41E050E069EE48
:1004F00071E00E94682B80E0C23049F081E0C33097
:1005000031F08EEE8C0F843048F487E18C1B41E093
:1005100050E061EB71E0D6CF8FEFE7CF8FEFF7CFF1
:1005200080E0D23049F081E0D33031F08EEE8D0F93
:100530008430C8F487E18D1B41E050E06CEE71E03F
:100540000E94682B80E0C23049F081E0C33031F076
:100550008EEE8C0F843048F487E18C1B41E050E034
:1005600064EB71E0AFCF8FEFE7CF8FEFF7CF80E095
:10057000D23049F081E0D33031F08EEE8D0F8430EF
:10058000C8F487E18D1B41E050E06FEE71E00E94FE
:10059000682B80E0C23049F081E0C33031F08EEE4C
:1005A0008C0F843048F487E18C1B41E050E067EB0E
:1005B00071E088CF8FEFE7CF8FEFF7CF90E1899F82
:1005C000F0011124EF5FFC4F80819181A281B38102
:1005D000FB0180839183A283B38390E080E0089540
:1005E00090E1899FF0011124EF5FFC4F108211828E
:1005F0001282138290E080E0089590E080E00895F8
:10060000CF92DF92EF92FF92CF93882351F16A014C
:100610007B01CFEFC80F20E030E0A901CB01B6018C
:100620000E942E2987FF11C0C701B60190580E9471
:100630009F299B01AC016C2F70E090E080E0CF918E
:10064000FF90EF90DF90CF90B2C0C701B6010E943B
:100650009A298C2FCF91FF90EF90DF90CF900C9440
:10066000412ECF91FF90EF90DF90CF9008950F93A0
:100670001F938B019C0183E036952795179507956D
:100680008A95D1F70F5B1C4F462F477021E030E071
:10069000F90102C0EE0FFF1F4A95E2F7AF01F80122
:1006A00020812423CB010196211102C090E080E03B
:1006B0001F910F9108950F931F938B019C0183E06D
:1006C00036952795179507958A95D1F7677081E03C
:1006D00090E001C0880F6A95EAF7F801EF5BFC4FE4
:1006E0002081452B31F48095822380831F910F91C7
:1006F0000895822BFACF2F923F924F925F926F9282
:100700007F928F929F92AF92BF92CF92DF92EF92A1
:10071000FF920F931F93CF93DF93D62EC72E782E81
:10072000692E49015A01280161E08D2D0E947B2F1D
:10073000CD2DDC2D8E010F5F1F4FA8016D2D7C2D5F
:10074000872D962DB8DF20E030E0A901C201B70166
:100750000E947D2A181664F4C201B7010E949F29E5
:100760002B01C501B4010E949F29A201CE0123D013
:10077000C801DF91CF911F910F91FF90EF90DF9013
:10078000CF90BF90AF909F908F907F906F905F9031
:100790004F903F902F900895882341F08150682F0B
:1007A00070E090E080E050E040E085CF0895862F33
:1007B000B9010C94412E9C01FC01EE5FFE4FE491C7
:1007C000E150E231E0F4F0E08827E651FC4F8F4F32
:1007D0000C94B633FC03030406041D043204FF0327
:1007E0004704530457046E0483049804AF04C404FC
:1007F000FF03D904F004050584B5806884BD60E07A
:10080000822F0C94B72F84B58062F8CF809180003E
:100810008C7F82608093800080918100807E8061E7
:10082000682B6093810050938700409386008091ED
:100830008000806880938000E2CF809180008C7F70
:1008400082608093800080918100807E8061682B2F
:1008500060938100509387004093860080918000D0
:100860008062E8CF809180008C7F826080938000DE
:1008700080918100807E8061682B6093810050931D
:10088000870040938600809180008860D3CF80915C
:10089000B00080688093B0008091B100887F682BA1
:1008A0006093B100ACCF8091B0008062F3CF8091B3
:1008B00090008C7F82608093900080919100807E78
:1008C0008061682B6093910050939700409396004D
:1008D0008091900080688093900091CF80919000EB
:1008E0008C7F82608093900080919100807E8061F7
:1008F000682B6093910050939700409396008091ED
:1009000090008062E8CF809190008C7F826080931D
:10091000900080919100807E8061682B60939100AF
:100920005093970040939600809190008860D3CFB9
:100930008091A0008C7F82608093A0008091A100B4
:10094000807E8061682B6093A1005093A700409344
:10095000A6008091A00080688093A00050CF809175
:10096000A0008C7F82608093A0008091A100807E97
:100970008061682B6093A1005093A7004093A6006C
:100980008091A0008062E8CF8091A0008C7F82607F
:100990008093A0008091A100807E8061682B60938D
:1009A000A1005093A7004093A6008091A00088600A
:1009B000D3CF809120018C7F826080932001809131
:1009C0002101807E8061682B609321015093270173
:1009D00040932601809120018068809320010FCFF1
:1009E000809120018C7F8260809320018091210181
:1009F000807E8061682B6093210150932701409392
:100A00002601809120018062E8CF809120018C7FB7
:100A100082608093200180912101807E8061682B1B
:100A2000609321015093270140932601809120017A
:100A30008860D3CF90E080E008950F931F930097D4
:100A400009F487C06115710509F483C00091210282
:100A50001091220220912302309124020E3F1F4F59
:100A60002F4F3F4F09F066C04FEF5FEFBA01409341
:100A7000210250932202609323027093240240913A
:100A80002102509122026091230270912402DC0124
:100A90001296ED91FC9180819181A281B381809326
:100AA000480490934904A0934A04B0934B04848172
:100AB0009581A681B7818093440490934504A093C7
:100AC0004604B093470480859185A285B3858093C1
:100AD000400490934104A0934204B093430484855E
:100AE0009585A685B78580933C0490933D04A0939B
:100AF0003E04B0933F0410923804109239041092CF
:100B00003A0410923B040FD688EB9BE090934B0382
:100B100080934A0390934D0380934C03F3D4009742
:100B200031F421E030E030934D0420934C041F91C8
:100B30000F91089500912102109122022091230229
:100B400030912402DB010D931D932D933C93139759
:100B500096CF8FEF9FEFEBCF8F929F92AF92BF9286
:100B6000CF92DF92EF92FF921F93CF93DF934B01CF
:100B70005C0110914F0482E090E090934D048093CB
:100B80004C0481149104A104B10441F480914F04F8
:100B9000811104C080914E04C1E08111C0E0C12CDC
:100BA000D12C760180914F04811106C080914E04B2
:100BB000811102C0CC23D9F083E090E090934D04E2
:100BC00080934C04CC2379F1CCE9DFEF111102C002
:100BD0000E941D0FCE01DF91CF911F91FF90EF90EA
:100BE000DF90CF90BF90AF909F908F9008956AE074
:100BF00070E080E090E00E94A92D80E1C80E87E2BD
:100C0000D81EE11CF11C8FEF88169806A806B806BE
:100C100031F0C1E08C149D04AE04BF0408F0C0E0C4
:100C200080E0A4D4BFCFD0E0C0E0D0CFCF92DF929D
:100C3000EF92FF920F931F93CF93DF938F3F910516
:100C400011F008F050C020914C0430914D04233035
:100C5000310539F020914C0430914D04213031059B
:100C600031F424E030E030934D0420934C046A01C9
:100C70007B01EC0182309105A0F011E0AE01C701CB
:100C8000B6013FD4AB01BC01CE011123F9F0DF91D5
:100C9000CF911F910F91FF90EF90DF90CF900C9428
:100CA00046118C01000F111F065B1C4FD8018D915E
:100CB0009C91892B11F30E9450110297F1F6D801F3
:100CC000ED91FC91CE011995182FD8CF0E94681193
:100CD00090E080E0DF91CF911F910F91FF90EF9016
:100CE000DF90CF9008958FEF9FEFF4CF80E03EC468
:100CF000CF93DF9386E090E090934D0480934C0473
:100D00008ED4EC01EAE4F3E084E0DF011D928A95E1
:100D1000E9F70E94B50E10924D0410924C04CE01DA
:100D2000DF91CF91089580914E040895809137040A
:100D3000089560932102709322028093230290937E
:100D4000240290E080E00895CF92DF92EF92FF922C
:100D50000F931F93CF93DF9300D01F92CDB7DEB7D1
:100D600080912002813009F02AC1E0911104F091B4
:100D7000120420910C0230910D0240910E0250910C
:100D80000F0260817181828193810E94812A20916A
:100D900010023091110240911202509113020E94F0
:100DA000CA280E94E42A2091040230910502409151
:100DB0000602509107020E94812A20910802309178
:100DC000090240910A0250910B020E94CA2820E0B9
:100DD00030E04EE753E40E94812A20E030E040E416
:100DE00051E40E9432296B017C0120E030E0A9012E
:100DF0000E947D2A10E061E0181694F020E030E0B7
:100E0000A901C701B6010E942E29E894F7F811E064
:100E100060E087FD05C010E060E0C12CD12C7601B8
:100E200085E03DDA612F87E03ADA64E070E080E047
:100E300090E01DDC8C019093FF088093FE0820E079
:100E400030E04FE753E4C701B6010E942E2918167F
:100E500034F4C12CD12C8FE7E82E83E4F82EB701AF
:100E6000A601C801CDDBC0900002D0900102E09045
:100E70000202F0900302A70196016091E3087091CD
:100E8000E4088091E5089091E6080E942E298823C5
:100E900041F0C092E308D092E408E092E508F092B5
:100EA000E6088091E20881111092E208BE016F5FAE
:100EB0007F4F8091E70882DB69817A818B819C81F9
:100EC0000E94CD29209118023091190240911A02F6
:100ED00050911B020E94812A20911C0230911D0218
:100EE00040911E0250911F020E94812A60930209C4
:100EF0007093030980930409909305094091FE03C0
:100F00005091FF03609100047091010490E080E033
:100F10008DDE4091060450910704609108047091A1
:100F2000090481E090E082DE6091FE037091FF038E
:100F300080910004909101046F5F7F4F8F4F9F4F0E
:100F40006093FE037093FF03809300049093010469
:100F500000911104109112040E94CB299B01AC0155
:100F6000609102047091030480910404909105043F
:100F70000E94812AF8016083718382839383809128
:100F8000060490910704A0910804B0910904019609
:100F9000A11DB11D8093060490930704A09308043B
:100FA000B09309040F900F900F900F90DF91CF91A5
:100FB0001F910F91FF90EF90DF90CF900895609177
:100FC0001402709115028091160290911702FFCEC3
:100FD0008F929F92AF92BF92DF92EF92FF920F9308
:100FE0001F93CF93DF9384E090E052D1E6E6F3E0E5
:100FF0008EE094E097838683C1E1D4E0D093A70389
:10100000C093A60302E014E0158B048BF093D10388
:10101000E093D003F583E48321E030E0DC012D93FD
:101020003C938EE492E09387828723E134E0398316
:10103000288340E050E060E470E440930A04509359
:101040000B0460930C0470930D044FE652E163E8C7
:101050007AE3D8014D935D936D937C931397CCEE17
:10106000D3E082E391E9A1EFBEE488839983AA8368
:10107000BB838FE493EBADE9B5E68093F0039093E7
:10108000F103A093F203B093F3038DEA9AE7A8ED7E
:10109000B3E38093F4039093F503A093F603B09326
:1010A000F70383E594EFA6EEB5EF8093F8039093F2
:1010B000F903A093FA03B093FB03AAE5B3E0B3836B
:1010C000A283EEE4F3E01196FC93EE9380E692E0C7
:1010D000918380839383828395838483978386839C
:1010E00091878087938782878CEF93E015969C93F6
:1010F0008E9314971396DC93CE93129717963C9386
:101100002E931697CCEDD8E01C8A812C912C54019B
:1011100083948D8A9E8AAF8AB88E61E085E0B7D8C5
:10112000DD24D394D98E1C868D869E86AF86B88AA0
:1011300061E087E0ACD8D98A1C8E19A28D8E9E8E74
:10114000AF8EB8A2E12CF12C8701A801970164E0D1
:1011500070E080E090E0CFDA9BA38AA3D9A21B863F
:1011600018828091000290910102A0910202B09138
:1011700003028F839887A987BA871D8289829A8202
:10118000AB82BC8247EE58E063E082E02BD9DD827F
:101190001E828B85DF91CF911F910F91FF90EF9071
:1011A000DF90BF90AF909F908F901ACA8091F00807
:1011B000811103C081E08093F0088091E8088111DB
:1011C00003C081E08093E8088091F80881112AC06B
:1011D00081E08093F8088091F9089091FA08A09135
:1011E000FB08B091FC080197A105B105D9F48091E5
:1011F000FD088823B9F064E070E080E090E037DA21
:101200009093FF088093FE0840E050E0BA01F8D9BF
:1012100064E070E080E090E02ADA9093FF08809329
:10122000FE08BADA8091DC08811113C081E0809356
:10123000DC088091DD089091DE08A091DF08B09174
:10124000E0080197A105B10521F48091E108811121
:10125000D4C9089560E070E080E89FE7089560E0F9
:1012600070E080E89FE7089560E070E080E89FEF1D
:10127000089560E070E080E89FEF089560E070E01E
:1012800080EC9FEF089560E070E080EC9FEF0895A0
:10129000F5DF6093120970931309809314099093FA
:1012A0001509F1DF60930609709307098093080917
:1012B00090930909CFDF60930E0970930F09809313
:1012C000100990931109CBDF60930A0970930B0901
:1012D00080930C0990930D09C7DF609316097093F2
:1012E00017098093180990931909C3DF60931A09AD
:1012F00070931B0980931C0990931D0908954F92C8
:101300005F926F927F928F929F92AF92BF92CF9295
:10131000DF92EF92FF920F931F93F894409027046F
:10132000509028046090290470902A04C0901B04F7
:10133000D0901C04E0901D04F0901E044130510533
:1013400009F0A4C09B01AC012419350946095709CD
:1013500029013A01009123041091240420912504CD
:101360003091260448015901840C951CA61CB71C19
:1013700080169106A206B306A0F400911F041091F6
:10138000200420912104309122040F5F1F4F2F4F22
:101390003F4F00931F0410932004209321043093A7
:1013A00022048092230490922404A0922504B092F7
:1013B000260400911F0410912004209121043091F3
:1013C000220480922B0490922C04A0922D04B092BF
:1013D0002E0400932F041093300420933104309393
:1013E0003204609327047093280480932904909317
:1013F0002A04A8EEB3E0A30192010E94BE336C0D53
:101400007D1D8E1D9F1D60931B0470931C04809393
:101410001D0490931E04009121021091220220913C
:101420002302309124020F3F1F4F2F4F3F4FF1F007
:101430000091210210912202209123023091240276
:101440000E3F1F4F2F4F3F4F89F0C0902102D09089
:101450002202E0902302F090240221E08C149D04EB
:10146000AE04BF0408F420E02093370478941F9161
:101470000F91FF90EF90DF90CF90BF90AF909F9033
:101480008F907F906F905F904F9008954B015C011B
:1014900084189508A608B708A3019201261B370BEC
:1014A000480B590B6415750586059705D0F0821613
:1014B0009306A406B50640F420E030E0A9018114AB
:1014C0009104A104B10491F4A8EEB3E00E94BE33EC
:1014D000A7019601261B370B480B590BCA01B9010E
:1014E000C5CF82169306A406B50670F7A8EEB3E042
:1014F000A50194010E94BE336C0D7D1D8E1D9F1DA4
:10150000B5CFFDCECF93DF9300D01F92CDB7DEB71E
:101510001C821B821A8219821092330410923404A6
:101520001092350410923604BE016F5F7F4FCE01DA
:1015300003960E94182769817A818B819C810E9481
:101540007020009761F4BE016F5F7F4FCE0103965C
:101550000E94242769817A818B819C812FD50F90ED
:101560000F900F900F90DF91CF910895FF920F93FE
:101570001F93CF93DF93082F60E070E0CB010E94B0
:10158000A92DFF24F3940E94591FEC01892B89F0A7
:1015900010E0CE3F8FEFD80769F0002361F160E0E3
:1015A00070E0CB010E94A92D81E090E0892B59F3D6
:1015B00022C011E026D5EC01892B21F0CE3F8FEF20
:1015C000D80759F711111EC011E0229609F410E056
:1015D0000E94091FEC01892B21F0CE3F8FEFD80725
:1015E000E1F6111111C011E0CE3F8FEFD80709F4D9
:1015F00010E001110BC0CE01DF91CF911F910F912F
:10160000FF90089511E0E4CF11E0F3CF60E070E0C7
:10161000CB010E94A92D1F25812F90E0C7CFCF932A
:10162000DF9380913704882321F060E070E0CB01E4
:101630004DD636D6D0E0C0E0892B71F06AE070E07C
:1016400080E090E00E94A92D81E090DF29D62196CC
:10165000C03D27E0D20781F728D60E94C42010920F
:101660004F0410924E0410924804109249041092B4
:101670004A0410924B0410924404109245041092B4
:1016800046041092470410924004109241041092B4
:1016900042041092430410923C0410923D041092B4
:1016A0003E0410923F0410923804109239041092B4
:1016B0003A0410923B044EEF5FEF6FEF7FEF4093E1
:1016C000210250932202609323027093240210920D
:1016D0003704EBE2F4E028E0DF011D922A95E9F7F8
:1016E00010922704109228041092290410922A04C0
:1016F00010922304109224041092250410922604C0
:1017000010921F04109220041092210410922204BF
:1017100010921B0410921C0410921D0410921E04BF
:10172000DF91CF91089510925B0410925C041092A7
:101730005D0410925E0410925A04809163049091AB
:1017400064049093590480935804109257041092A3
:1017500056041092520410925304109254041092A2
:1017600055041092600410925F0490E080E00895A8
:10177000CF92DF92EF92FF920F931F93CF938C0142
:10178000019709F055C02091630430916404809161
:10179000580490915904409163045091640450930B
:1017A0005904409358042817390781F010925704C0
:1017B0001092560410925204109253041092540442
:1017C000109255041092600410925F04809163049B
:1017D00090916404019761F580915F049091600499
:1017E000892B21F480912502811112C080915F0420
:1017F000909160040197E1F4809152049091530418
:10180000A0915404B09155040197A105B10581F44C
:1018100010925204109253041092540410925504E2
:101820001092250282E090E09093600480935F0420
:101830008091630490916404019709F01CC1809128
:10184000790490917A048017910709F014C180916E
:10185000750490917604A0917704B0917804009774
:1018600009F409C12091740421110DC0409175043F
:10187000509176046091770470917804452B462B43
:10188000472B09F4F8C020915F04309160042230A6
:10189000310509F0F0C0209156042111ECC0FC0183
:1018A000C080D180E280F38080915A04882309F4BB
:1018B000D3C08091660490916704892B09F4FEC01F
:1018C000209166043091670481E02230310509F0EF
:1018D00080E02091660430916704C1E02130310539
:1018E00049F02091660430916704C1E0223031054F
:1018F00009F0C0E0882309F456C0209170043091AB
:1019000071044091720450917304C701B6010E94A2
:101910007D2A87FD14C0209170043091710440919C
:1019200072045091730460915B0470915C04809127
:101930005D0490915E040E942E2987FD22C02091B3
:101940007004309171044091720450917304C70186
:10195000B6010E947D2A181634F52091700430914A
:101960007104409172045091730460915B04709112
:101970005C0480915D0490915E040E942E29811187
:1019800012C08091680490916904A0916A04B0919A
:101990006B04892B8A2B8B2B19F481E080935704DD
:1019A00081E080935604CC2309F456C02091700442
:1019B000309171044091720450917304C701B601D3
:1019C0000E942E2987FF14C0209170043091710469
:1019D000409172045091730460915B0470915C04B7
:1019E00080915D0490915E040E947D2A87FF22C051
:1019F00020917004309171044091720450917304ED
:101A0000C701B6010E942E29811126C020917004C1
:101A100030917104409172045091730460915B04A1
:101A200070915C0480915D0490915E040E947D2A17
:101A3000181694F48091680490916904A0916A0446
:101A4000B0916B04892B8A2B8B2B19F481E0809346
:101A5000570481E08093560481E0909156049111DF
:101A600080E080935A04C0925B04D0925C04E092C0
:101A70005D04F0925E040130110509F067C18091A8
:101A80005F0490916004892BD9F410926504109240
:101A9000560480912502882379F082E090E09093AB
:101AA000600480935F0410922502209163043091BA
:101AB000640481E0232BE9F080E01BC081E009CFC2
:101AC0001092250280916504882349F010925704F2
:101AD0001092600410925F0410926504EDCF809123
:101AE000630490916404892BE1F080915604109274
:101AF000560420915F04309160042230310509F4CE
:101B00005EC088F42115310509F448C02130310543
:101B100009F4F3C010925704109256041092650411
:101B200038C081E0E6CF2330310509F4B1C024305C
:101B3000310581F74091520450915304609154044F
:101B400070915504411551056105710561F04150D1
:101B500051096109710940935204509353046093F1
:101B60005404709355044091520450915304609171
:101B7000540470915504452B462B472BD9F42091E2
:101B80006104309162042130310509F046C01092A1
:101B900057041092600410925F040CC080912502DB
:101BA000882341F082E090E09093600480935F048A
:101BB000109225021092500480915704CEC08823C1
:101BC000C9F38091680490916904A0916A04B0916E
:101BD0006B04181619061A061B060CF07DC08091BE
:101BE000630490916404019709F076C080916804C1
:101BF00090916904A0916A04B0916B04809352049F
:101C000090935304A0935404B093550483E090E060
:101C10009093600480935F04CDCF40916C04509109
:101C20006D0460916E0470916F04452B462B472B19
:101C3000A9F01092570480916C0490916D04A091CA
:101C40006E04B0916F048093520490935304A09358
:101C50005404B093550481E090E0DACF882399F0E2
:101C60008091260290912702A0912802B09129022A
:101C70008093520490935304A0935404B09355045A
:101C800084E090E0C5CF1092570482E090E0C0CF8E
:101C90008091520490915304A0915404B091550442
:101CA0000097A105B10559F00197A109B1098093E9
:101CB000520490935304A0935404B093550480911C
:101CC000520490915304A0915404B0915504892B6F
:101CD0008A2B8B2B09F06ECF8091260290912702E0
:101CE000A0912802B0912902892B8A2B8B2B09F411
:101CF0004ECF81E080935704B3CF4091520450916E
:101D000053046091540470915504411551056105C7
:101D1000710561F041505109610971094093520404
:101D200050935304609354047093550440915204AB
:101D3000509153046091540470915504452B462BE7
:101D4000472B09F037CF8111C7CF9FCF8091500427
:101D5000882309F431CF80915104CF911F910F91C5
:101D6000FF90EF90DF90CF90089510925B04109257
:101D70005C0410925D0410925E0410925A0410925A
:101D8000600410925F04109259041092580410924B
:101D90007A0410927904109257041092560410920B
:101DA000520410925304109254041092550410924D
:101DB00051041092500410927504109276041092FF
:101DC00077041092780410927404109270041092A8
:101DD0007104109272041092730488EE93E0A0E0F4
:101DE000B0E08093260290932702A0932802B0933C
:101DF000290210926C0410926D0410926E041092DD
:101E00006F04109268041092690410926A04109290
:101E10006B04109267041092660481E0809325029F
:101E2000109265041092640410926304109262048C
:101E30001092610490E080E0089580916304909195
:101E40006404892B19F580912502882351F0809133
:101E50006504811106C081E0809351048093500491
:101E60000895209165043091250281E090E03323AC
:101E700011F090E080E030E082239323892B21F061
:101E80001092510481E0EACF10925004089582E04C
:101E900090E0FA01918380838FEF9FEF0895CF93B5
:101EA000DF93EA01009711F00E94ED211982188258
:101EB00090E080E0DF91CF910895DB01009719F465
:101EC0008FEF8C9308952EEF2C93FC013F96EF300B
:101ED000F10508F034C08827EF58F04F8F4F0C946D
:101EE000B6339D0F9B0F990F970F950F910F930F7F
:101EF0008F0F8D0F8B0F880F840F800F860F9F0F12
:101F000080E311968C93089589E2FBCF82E2F9CFAA
:101F100011961C92089583E2F4CF81E2F2CF81E121
:101F2000F0CF87E2EECF8AE2ECCF80E1EACF84E225
:101F3000E8CF88E2E6CF86E2E4CF81E3E2CF80E239
:101F4000E0CF80918704909188040895909388044D
:101F50008093870408958091860408959091860463
:101F6000892B809386040895982F909580918604FC
:101F70008923809386040895809185040895809133
:101F800083049091840408956115710559F0FB0153
:101F900030E020E070E060E02417350719F06115AB
:101FA000710511F0CB010895A081B181A817B9077F
:101FB00009F4BF012F5F3F4F3696EECF8091890421
:101FC00081111CC060D266D290937C0480937B0404
:101FD0000E94F1190E94031A9093800480937F0459
:101FE0000E94711E0E94781E90937E0480937D044F
:101FF00081E08093890490E080E0089584EF9FEF72
:1020000008958F929F92AF92BF92CF92DF92EF92FC
:10201000FF920F931F93CF93DF9300D000D000D097
:102020001F92CDB7DEB71A86198618861F821E82C8
:102030001D821C821B821A8219828091890407EFFB
:102040001FEF882309F49CC08E010D5F1F4F9E0176
:102050002B5F3F4FAE01495F5F4FBE01675F7F4F10
:1020600090E080E00E94F51F8C01009721F005961A
:10207000029708F0DBC029853A852115310509F45E
:1020800002C1ED80FE804B815C81B701640F751F3A
:102090008F8198858617970708F4F5C0E20EF31E26
:1020A000D7019C91903C09F07FC04230510508F463
:1020B0007BC011968C914091870450918804452BE8
:1020C00009F49CC0913F08F071C02CE1290F2D301C
:1020D00008F48BC02DE2290F203108F489C0903C10
:1020E00021F48150823008F483C088E3890F8B305B
:1020F00008F481C09DE5C92E9FE0D92EE7E4FFE0FA
:102100006D817E81AE014F5F5F4F89859A851995FC
:102110005C01C114D104A1F189809A8081149104D9
:1021200079F18B819C818815990508F487C010E0AE
:1021300000E04B815C8170E060E0C7010E94E03309
:1021400001151105E9F449815A8169857A858D81E6
:102150009E81680F791FC501F6011995E980FA8003
:102160000D811E812F81388549855A856FEF7FEF5C
:1021700081E090E00E94901F8C01892B09F056C0ED
:10218000C8012A960FB6F894DEBF0FBECDBFDF910F
:10219000CF911F910F91FF90EF90DF90CF90BF9064
:1021A000AF909F908F90089580E085CF30E020E041
:1021B000220F331FF901E558FB4F0190F081E02D0C
:1021C000309709F497CF892F90E01995009709F47B
:1021D00091CFDC011296ED91FC9113971496CD905E
:1021E000DC90309709F08CCF1FC021E030E0E0CFC9
:1021F00022E030E0DDCF23E030E0DACFD12CC12C7B
:10220000EFE4FFE09F3F09F07BCFE0917B04F0918A
:102210007C04309721F4C90104EF1FEF0CC08FEF4D
:1022200090E019950097A9F604EF1FEF89859A852C
:10223000009709F4A5CF0E94ED21A2CF0E94BF20F4
:102240008C0189859A850E94ED2170E060E0C401CF
:102250000E94582098878F830E948D1F9E838D83B4
:102260006F8178856115710559F0C8010E944C2372
:102270009A87898706EF1FEF892B09F058CF59CF2E
:1022800008EF1FEF56CF08EF1FEFD0CF2091890442
:10229000222319F020E00C94081A87EF9FEF08958D
:1022A000809187049091880408950E947D1E0E9469
:1022B000D71DF5D0EBE7F4E088E0DF011D928A95A9
:1022C000E9F71092890490E080E008950C94361CA0
:1022D00021E040E050E0BA010C94081A86E090E05A
:1022E000FA019183808390E080E0089547E050E018
:1022F00063E672E049CEDF92EF92FF920F931F9355
:10230000CF93DF938A01EC01C60FD71FE0908D04B5
:10231000F0908E04D9800E94A720D816190678F074
:1023200082E090E0F801918380838EEF9FEFDF9150
:10233000CF911F910F91FF90EF90DF900895EF28BC
:1023400041F482E090E0F8019183808384EF9FEF75
:10235000EECF898180938C0490E00196F8019183FF
:10236000808390E080E0E3CFCF93DF93EA010E9487
:10237000E71C882321F00E94B4200E94E81C82E020
:1023800090E0998388838BEF9FEFDF91CF91089541
:10239000CF93DF93EB0186E0FB0111928A95E9F779
:1023A0008FEF8883D8DD8983E7DD8A83E8DD9D832D
:1023B0008C83DF91CF910895CF93DF93EA010E9440
:1023C000EA1C811109C082E090E09983888385EF3F
:1023D0009FEFDF91CF91089590E080E0B7DD81E03D
:1023E00090E09983888390E080E0F3CF0F931F9370
:1023F000CF93DF93EA018C01060F171F0E94EA1C9E
:1024000081110BC082E090E09983888385EF9FEF74
:10241000DF91CF911F910F910895F8018181823052
:1024200038F082E090E0998388838EEF9FEFF0CFC1
:1024300081E090E08BDD88E090E09983888390E0F4
:1024400080E0E6CFCF93DF930097D1F4EB01FB015F
:10245000329686E0DF011D928A95E9F78FEF888337
:1024600085E089831A820E94A7208B830E94A62080
:102470009D838C8381E08E838F83DF91CF9108953C
:10248000DF91CF911ACD86E791E190938B048093F1
:102490008A04089580918A0490918B040895109283
:1024A0008B0410928A04089580918D0490918E047B
:1024B0000895411105C0611571058105910561F00F
:1024C00060938D0470938E0480938F049093900496
:1024D0004093910481E0089580E00895FF920F9366
:1024E0001F93CF93DF938A01EC01C60FD71FF980AA
:1024F0000E94A720F816190668F082E090E0F80123
:10250000918380838EEF9FEFDF91CF911F910F9189
:10251000FF9008956C817D818E819F814B81C9DF01
:10252000811108C082E090E0F8019183808384EFFC
:102530009FEFEACF898180938C0490E00196F801A7
:102540009183808390E080E0DFCFCF93DF93EA0137
:10255000FC01E60FF71F64817581868197814381B5
:10256000A8DF811109C082E090E09983888384EF1D
:102570009FEFDF91CF91089581E090E09983888368
:1025800090E080E0F6CFEDE8F4E040815181628197
:102590007381480F511D611D711D408351836283FA
:1025A00073830895CF93C0918C044C2F50E06091B9
:1025B0008D0470918E0401960E94D7338C2FE3DF37
:1025C00010928C04CF910895009799F480918D0416
:1025D00090918E042FEFFB012083892B59F02091DD
:1025E0008C0430E02F5F3F4F2417350719F4CB01DF
:1025F000D9CF63CC0895009799F480918D04909180
:102600008E042FEFFB012083892B59F020918C043D
:1026100030E02F5F3F4F2417350719F4CB01C2CFAD
:102620004CCC089523E1AC01249FC001259F900D5F
:102630001124E0919604F0919704E80FF91F23818B
:1026400034812250310981E02230310508F080E0E8
:1026500008950F931F93CF93DF93009198041091E7
:102660009904D0E0C0E080E00C171D0749F491E028
:10267000811190E0892FDF91CF911F910F910895E3
:102680008111F5CFCE01CEDF2196EECFA091960439
:10269000B0919704109729F12091980430919904F2
:1026A00082179307F0F453E1589F9001599F300D22
:1026B0001124A20FB31FED91FC911197309789F06F
:1026C00012968C91681768F48BE0689FE00DF11DFD
:1026D000112480819181892B21F081E09281491719
:1026E00008F080E008959C0143E1429FC001439FB0
:1026F000900D1124E0919604F0919704E80FF91FD2
:102700008385823099F481E090E065817681409103
:102710002A0250912B026417750711F490E080E0B3
:10272000892B21F081E02230310508F080E0089506
:10273000EF92FF920F931F93CF93DF93EA01FC0177
:10274000E60FF71F02811381E480F5804F2D6E2D77
:10275000C8019CDF81110DC082E090E099838883DD
:102760008EEF9FEFDF91CF911F910F91FF90EF9030
:102770000895C80157DF882339F082E090E09983FB
:10278000888388EF9FEFEECF1093310200933002E1
:10279000E0923202F092330281E090E099838883E4
:1027A00090E080E0DFCFCF92DF92EF92FF920F9325
:1027B0001F93CF93DF937A01EC01C60FD71FC09010
:1027C0003002D09031020091320210913302412F39
:1027D000602FC6015BDF811110C082E090E0F7013D
:1027E000918380838AEF9FEFDF91CF911F910F91AB
:1027F000FF90EF90DF90CF900895C60113DF8823FC
:1028000041F082E090E0F7019183808388EF9FEFB1
:10281000EBCF4C815D816E817F819A8189818F3F71
:1028200041F082E090E0F701918380838EEF9FEF8B
:10283000DBCFE3E1EC9D9001ED9D300D1124E091A3
:102840009604F0919704E20FF31F0190F081E02DC0
:102850002BE0029FE00DF11D11240190F081E02D8D
:1028600027E0129FE00DF11D1124808391838B815D
:10287000828343835483658376831F5F109333027F
:1028800081E090E0F7019183808390E080E0ACCF1D
:10289000EF92FF920F931F93CF93DF937A018C01F6
:1028A000060F171FC0919604D0919704209781F0CE
:1028B00021E030E0F80182819381409198045091A9
:1028C00099048417950710F030E020E0232B71F471
:1028D00082E090E0F701918380838EEF9FEFDF919C
:1028E000CF911F910F91FF90EF90089543E1489F82
:1028F0009001499F300D1124C20FD31F93DE88230E
:1029000041F082E090E0F7019183808388EF9FEFB0
:10291000E6CFF8012481358120383105C8F687815A
:102920008111D6CF4181842F90E08F7E009741F0B6
:1029300082E090E0F7019183808386EF9FEFCFCF15
:102940004F833E832D83268128871986223010F4F9
:1029500021E0288721E030E0F70131832083BFCFD9
:1029600088E090E0FA019183808390E080E0089510
:10297000FB018FEF808381E181838FEF9FEF938352
:10298000828380E890E0958384831682178208957D
:10299000FB018FEF808391E0918382839383848313
:1029A00084E3858381E090E0978386830895BF92D6
:1029B000CF92DF92EF92FF920F931F93CF93DF930B
:1029C000DA01FC01E60FF71F8181813081F082E09E
:1029D00090E08D939C938FEF9FEFDF91CF911F91AC
:1029E0000F91FF90EF90DF90CF90BF900895C2813C
:1029F000D381B480858106811781E0909604F090A0
:102A00009704E114F10439F482E090E08D939C93F3
:102A10008CEF9FEFE2CF2091980430919904C21778
:102A2000D30738F082E090E08D939C938EEF9FEF78
:102A3000D4CFC230D10538F082E090E08D939C93E2
:102A400086EF9FEFCACF9B2D9D7FB1F78130A1F715
:102A5000B11005C00130110531F080E004C081E003
:102A600002301105D0F3882339F36D01CE01DADD90
:102A7000882341F082E090E0F6019183808388EF23
:102A80009FEFABCF83E18C9FF0018D9FF00D112460
:102A9000EE0DFF1DB38681E0848716870587108AB7
:102AA000178681E090E0F6019183808390E080E0DA
:102AB00094CF4CE050E06DE872E066CA8F929F922E
:102AC000BF92CF92DF92EF92FF920F931F93CF931B
:102AD000DF93EA01FC01E60FF71F828193810481F5
:102AE000B580E0919604F0919704309791F482E0DC
:102AF00090E0998388838CEF9FEFDF91CF911F91B6
:102B00000F91FF90EF90DF90CF90BF909F908F90AC
:102B1000089520919804309199048217930738F012
:102B200082E090E0998388838EEF9FEFE6CF23E1E8
:102B3000289F6001299FD00C1124EC0DFD1DE08021
:102B4000F180E114F10499F28281081748F78BE0D3
:102B5000089F80011124E00EF11EF7018081918110
:102B6000892B29F6BB20E1F2F7E0BF9E400111243A
:102B7000C4010E949F21F70191838083E091960414
:102B8000F0919704EC0DFD1D0190F081E02DE00F18
:102B9000F11F80819181009739F482E090E0998360
:102BA00088838DEF9FEFA9CFA40170E060E00E94C1
:102BB000E0338091960490919704C80ED91EF601D7
:102BC00080819181080F191FF801B28281E090E0A5
:102BD0009983888390E080E090CFAF92BF92CF92AC
:102BE000DF92FF920F931F93CF93DF93EA01FC01D3
:102BF000E60FF71F82819381F48000919604109173
:102C000097040115110581F482E090E0998388838F
:102C10008CEF9FEFDF91CF911F910F91FF90DF908D
:102C2000CF90BF90AF90089520919804309199046F
:102C30008217930738F082E090E0998388838EEFC3
:102C40009FEFE8CF2FEF2F0D2C3FA8F723E1289F10
:102C50006001299FD00C11240C0D1D1DF8018081ED
:102C60009181892B89F6FBE0FF9E50011124C5015B
:102C70000E949F21F80191838083E0919604F09156
:102C80009704EC0DFD1D80819181009739F482E05D
:102C900090E0998388838DEF9FEFBCCFA50170E012
:102CA00060E00E94E033E0919604F0919704EC0D0F
:102CB000FD1DF28281E090E09983888390E080E0BE
:102CC000A9CFCF92DF92EF92FF920F931F93CF93F2
:102CD000DF93860F971FFC01028113818091960478
:102CE00090919704892B81F082E090E0FA01918322
:102CF00080838CEF9FEFDF91CF911F910F91FF9019
:102D0000EF90DF90CF900895C801B0E0A0E0019768
:102D1000A109B1098F3F9F4FA105B10540F082E0A5
:102D200090E0FA01918380838EEF9FEFE4CF7A01E8
:102D300083E1809F6001819FD00C1124C6010E9415
:102D40009F21EC01009741F482E090E0F70191832C
:102D500080838DEF9FEFCFCFA60170E060E00E94EF
:102D6000E033D0939704C093960410939904009392
:102D7000980490E080E02FEF3FEF41E061E070E0E9
:102D80008017910741F481E090E0F70191838083FF
:102D900090E080E0B0CF3A8B298B1B864C877E87F2
:102DA0006D87188A1F8601966396EACFCF92DF92CD
:102DB000EF92FF920F931F93CF93DF93EC01D12CEF
:102DC000C12C10E000E0F12CE12C6A8160171106A3
:102DD00009F0CCF483E0689FB0011124AE014F5E8E
:102DE0005F4FC7010E941922009721F02FEF3FEF9C
:102DF0003A8B298BDF91CF911F910F91FF90EF902C
:102E0000DF90CF900895E881F981EC0DFD1D43819D
:102E100054818D859E85489F9001499F300D589F14
:102E2000300D1124C90101960115110519F44F81C6
:102E300044FD049661E070E00E945820E816F9060F
:102E400008F47C010F5F1F4F8BE0C80ED11CBDCF73
:102E5000F894209194043091950481E02115310576
:102E600009F080E0232B09F0789408952F923F9287
:102E70004F925F926F927F928F929F92AF92BF928A
:102E8000CF92DF92EF92FF920F931F93CF93DF9336
:102E90003C01660E771EF301828193814C01B12CB7
:102EA000A12CC0919604D0919704209769F021E05D
:102EB00030E060919804709199048617970710F09C
:102EC00030E020E0232BD1F482E090E0FA019183FE
:102ED00080838EEF9FEFDF91CF911F910F91FF9035
:102EE000EF90DF90CF90BF90AF909F908F907F90AA
:102EF0006F905F904F903F902F9008958092340292
:102F000090923502A0923602B092370263E1689F38
:102F10009001699F300D1124C20FD31FF3018181ED
:102F2000833040F082E090E0FA019183808386EF65
:102F30009FEFD1CF2A012B813C81232BF1F42881F3
:102F400039819F8191FF2EC0232B09F46FC02091FE
:102F50009B049A81422F490F5527551FBA0141E022
:102F600050E06138710514F050E040E0452B09F461
:102F70005DC02A87920F90939B048150823008F4A1
:102F800081C066DF882309F4D8C0F30181818130D4
:102F900009F48DC008F47BC0823009F4C6C090E00B
:102FA00080E0ADC0232B09F441C020919A049A819E
:102FB000E22FE90FFF27FF1F41E050E0ED3FF10551
:102FC00014F050E040E0452B89F12A87920F90934E
:102FD0009A04D3CFA081B181A20FB31F11966C9137
:102FE000060F111D0196295F3F4F8417950794F333
:102FF0008D859E85089F1001099F300C189F300C0D
:103000001124C114D104D1F48F8184FF17C00E9410
:10301000A620F5E02F0E311C21E08215930508F45F
:1030200020E0A701455F5F4F21110EC082E090E0D4
:10303000F2019183808387EF9FEF4DCF0E94A620FE
:103040002FEF221A320AE8CF88819981E80EF91E03
:10305000F70114830383FFEFCF1ADF0A7A018A8115
:103060008C151D0409F00CF48CCFE881F981EE0D6C
:10307000FF1D428150E030E020E010E000E090E0F1
:1030800080E0B3CFF12CE12CD12CC12CE8CF81E032
:1030900090E09C838B83DDDA882309F480CF81E084
:1030A00090E00E94A60F80E40E94B40F78CF898937
:1030B0009A89019661F083E090E09C838B8382E0A3
:1030C00090E00E94A60F80E40E94AE0F68CF2D8191
:1030D0003E8180912A0290912B0228173907D1F462
:1030E00060912E0270912F02AE014F5E5F4F809172
:1030F0002C0290912D020E940B230097E1F278940C
:1031000022E030E0F20131832083892B99F08DEFAA
:103110009FEFE1CE22E082169104A104B1045CF697
:10312000CE0144DE188A1F86E8CF82E090E09C83BF
:103130008B8335CF90E080E0CECE82E090E0F2014C
:103140009183808385EF9FEFC6CE8F929F92AF923F
:10315000BF92CF92DF92EF92FF920F931F93CF9384
:10316000DF93EA018C01060F171FF801818183307C
:1031700098F082E090E09983888386EF9FEFDF915B
:10318000CF911F910F91FF90EF90DF90CF90BF9064
:10319000AF909F908F90089580919604909197049E
:1031A000892B61F081E090E020919804309199049E
:1031B000232B11F490E080E0892B39F482E090E039
:1031C000998388838EEF9FEFDACF42DE882309F45C
:1031D000DEC0F8018181813009F494C0E8F08230CA
:1031E00099F42091980430919904E0919604F0911B
:1031F000970490E080E041E050E02817390709F09B
:10320000BCC027DA811117C0789481E090E09983DF
:10321000888390E080E0B3CF2091980430919904A6
:10322000E0919604F091970490E080E041E050E056
:103230002817390741F481E090E00E94A60F80E44E
:103240000E94B40FE1CF63817481672B11F0548326
:10325000438301967396ECCFE0919604F091970426
:10326000E00FF11F2381348122303105D9F4218907
:1032700032892F3F3F4FB1F44581568120912A0278
:1032800030912B024217530761F5AF014F5E5F4F3C
:1032900060912E0270912F0280912C0290912D024C
:1032A0000E940B234FEFC41AD40AE40AF40A0D5EFD
:1032B0001F4F409198045091990470E060E0C4164B
:1032C000D506E606F70634F5009731F27894892B97
:1032D00009F49BCF82E090E0998388838DEF9FEF84
:1032E0004ECF22E0C216D104E104F104DCF6CF0196
:1032F0005DDDE0919604F0919704E00FF11F108AD4
:103300001786D0CF10E000E090E080E0C12CD12CF7
:103310007601CFCF0097D1F610E000E0812C912C00
:10332000540183E0E82EF12C1AC0E0919604F0914C
:103330009704E00FF11F83819481029749F4F4828E
:10334000E38282E090E00E94A60F80E40E94AE0F2C
:103350008FEF881A980AA80AB80A0D5E1F4F80914D
:10336000980490919904B0E0A0E088169906AA0606
:10337000BB06DCF290E080E0A9CF6381748162300B
:10338000710511F4548343830196739636CF82E01E
:1033900090E09983888385EF9FEFF1CE0097B9F491
:1033A0008FEFFB018083209134023091350243E19D
:1033B000429FC001439F900D1124E0919604F0912B
:1033C0009704E80FF91F8285FB01818308950C940F
:1033D0005D0F88E090E0FA019183808390E080E0C7
:1033E00008951092950410929404E6E9F4E086E0C2
:1033F000DF011D928A95E9F789E595E190939304A1
:10340000809392040895809192049091930408957A
:103410002F923F924F925F926F927F928F929F92E4
:10342000AF92BF92CF92DF92EF92FF920F931F93D2
:10343000CF93DF93CDB7DEB760970FB6F894DEBFBA
:103440000FBECDBFF894E0919404F09195043196AD
:10345000F0939504E09394047894A0919604B0912D
:103460009704BA83A983109709F4FAC1E0919804EC
:10347000F0919904EF2B09F4F3C128874B875C87FF
:103480006D877E879A878987B88BAF87312C212CEF
:10349000F12C512C412C809198049091990428167C
:1034A000390610F4FF2029F1F8948091940490914A
:1034B0009504019790939504809394047894C201A5
:1034C00060960FB6F894DEBF0FBECDBFDF91CF91EF
:1034D0001F910F91FF90EF90DF90CF90BF90AF9032
:1034E0009F908F907F906F905F904F903F902F9024
:1034F0000895B10190E080E087D4682EEF85F889C7
:10350000878181FD3DC0838194810397C9F5258121
:1035100036813C832B8389859A852817390781F565
:10352000C101E1D8782E8823A9F1AF85B8891F960B
:103530008D919C915097019621E01D964D915C9143
:103540008417950709F020E02F83B12CA12CEF857B
:10355000F88982818A151B0419F014F0FF20E9F024
:10356000F885FF2309F46CC1AF85B88950961C9289
:103570001E921F97662021F0B10190E080E046D4B2
:10358000FFEF2F1A3F0A2F8538892D5E3F4F388B6A
:103590002F8781CFB1E0BF83D8CFBFD49E838D83E7
:1035A000E885EE23E9F0772009F43CC1AF85B889BE
:1035B0001F968D919C91892B79F0BBE0BA9DC0013B
:1035C000BB9D900D1124AF85B889ED91FC91E80F5A
:1035D000F91F8581968101D7BFEFAB1ABB0AB7CF20
:1035E00081E0772039F0EF85F88927853089232B12
:1035F00009F080E0F82EE12CA114B10439F4AF8574
:10360000B8891796EC90E4FAEE24E0F8BBE0BA9D96
:103610006001BB9DD00C1124882309F424C1AF851F
:10362000B889ED91FC911197EC0DFD1D43815481FA
:103630001D962D913C91429FC001439F900D529F3A
:10364000900D1124E1105DC001969087878361E0A1
:1036500070E0878190852CD5EF85F88921893289A2
:10366000008111810C0D1D1D2F3F320709F44BC045
:10367000BC01C9010E944C23D80116969C938E93DD
:103680001597AF85B889ED91FC911197EC0DFD1D53
:10369000058116810115110509F4CDC0ED81FE816A
:1036A0000E0F1F1F1A968C918A0DD8018C93E11072
:1036B0002FC00F5F1F4FAF85B889ED91FC91EC0DC6
:1036C000FD1D12870187AF85B889ED91FC91EC0D46
:1036D000FD1D85819681892B09F4A4C080912A0261
:1036E00090912B022B813C812817390709F465C082
:1036F000772011F001851285912C812C1A82198274
:103700004AC00596A2CF1BD6F80196838583B9CF10
:103710008B859C85AD85BE85F80181839283A383CB
:10372000B4830B5F1F4FC7CFE080F180E80CF91C1A
:10373000D70113966D917C9114978C918F3F09F46A
:1037400073C0E1E0F0E002C0EE0FFF1F8A95E2F7E0
:10375000CF01092E000CAA0BBB0BFB01408151814C
:103760006281738184239523A623B72321E0892BCB
:103770008A2B8B2B09F420E0D8012C93D7011196CA
:103780008C91080F111DE981FA813196FA83E98342
:10379000F7E08F0E911CAF85B889ED91FC91EC0D8F
:1037A000FD1D828129813A818217130611F00CF0E8
:1037B000BBCF772011F0128701873F81332391F12E
:1037C000AF85B889ED91FC91EC0DFD1D61E070E0D5
:1037D000878190856DD4AF85B889ED91FC91EC0D12
:1037E000FD1DE780F08445815681E1E0F0E0662030
:1037F00011F0F0E0E0E00D811E819C01B10188270D
:1038000099278E1B9F0B8CD32C01892B59F0EF85A8
:10381000F88980819181C80ED91ED60115968D91A7
:103820009C91DBD5F12CD8CEF701418150E0C80145
:103830000E94D733A3CF86EF482E55245A94CCCE7E
:10384000EF85F889878590890196908B87872585F4
:1038500036858217930709F08DCE108A17868ACE97
:10386000512C412C21CE10E000E02DCF2F923F9221
:103870004F925F926F927F928F929F92AF92BF9280
:10388000CF92DF92EF92FF920F931F93CF93DF932C
:10389000809196049091970410E000E0892BA9F0A4
:1038A000D7DA0AEF1FEF882381F020909804309038
:1038B0009904C0919604D0919704D12CC12C10E0AA
:1038C00000E02C143D04A9F47894C801DF91CF9155
:1038D0001F910F91FF90EF90DF90CF90BF90AF902E
:1038E0009F908F907F906F905F904F903F902F9020
:1038F0000895C6010E947313882309F18B819C816E
:103900000397E9F48F859889892BC9F0B60190E077
:1039100080E07AD221E030E0882311F030E020E02E
:1039200044245524421A530AB12CA12C912C812CE9
:103930008A818815190409F038F4188A1F864FEF18
:10394000C41AD40A6396BDCFE881F981EA0DFB1D44
:1039500085819681892BA1F161E070E08781908556
:10396000A7D33C01DAD28C01E881F981EA0DFB1D75
:103970008185928525813681200F311FAC01421B44
:10398000530B9A0147815085421B530B70E060E056
:103990000E94E033E881F981EA0DFB1DE780F084A5
:1039A000458156819301B601C201BAD28C01892B9F
:1039B00039F0E881F981EA0DFB1D858196810DD5ED
:1039C0005FEF851A950A8BE0A80EB11CB1CF40CAF3
:1039D000789408952F923F924F925F926F927F92C8
:1039E0009F92AF92BF92CF92DF92EF92FF920F938E
:1039F0001F93CF93DF9300D000D0CDB7DEB70091F7
:103A0000960410919704992493940115110509F4D3
:103A10003EC0A0909804B09099041ADA982E88239A
:103A2000B1F110929704109296041092990410929A
:103A3000980410929A0410929B048FEF9FEFDC0180
:103A40008093340290933502A0933602B0933702EC
:103A500078947ED31E830D83C12CD12C7601C501B1
:103A6000B0E0A0E089839A83AB83BC8322242A94AC
:103A7000322C89819A81AB81BC81C816D906EA06AD
:103A8000FB06F4F0C801A9D480E40E94B40F892D8C
:103A900026960FB6F894DEBF0FBECDBFDF91CF9153
:103AA0001F910F91FF90EF90DF90CF90BF90AF905C
:103AB0009F907F906F905F904F903F902F900895D0
:103AC000AD81BE8115962D913C91169780912A0269
:103AD00090912B0228173907D1F451968D919C9122
:103AE000C9D5ED81FE8180819181B12CA12C412C21
:103AF000512C3201892B81F5BFEFCB1ADB0AEB0A7F
:103B0000FB0AED81FE817396FE83ED83B2CFB2E0B6
:103B1000CB16D104E104F10424F7ED81FE81818903
:103B200092898F3F980709F020D5AD81BE815296CA
:103B30003C922E925197D5CF8A0D9B1DDC018D9121
:103B40009C91009709F049D4BFEF4B1A5B0A6B0AAE
:103B50007B0AEBE0AE0EB11CAD81BE818D919C91D4
:103B6000119712964C9150E070E060E044165506B3
:103B7000660677060CF331D4BFCFCF93DF93EA010B
:103B800029DF811109C082E090E09983888385EF65
:103B90009FEFDF91CF91089581E090E00E94A60F02
:103BA00081E090E09983888390E080E0F2CF12DF9B
:103BB0001092930410929204089542E050E065ED53
:103BC00072E00C94C40FFF920F931F93CF93DF9377
:103BD0008A01EC01C60FD71FF980B9D20897F816F1
:103BE000190671F068F082E090E0F801918380831B
:103BF0008EEF9FEFDF91CF911F910F91FF9008956E
:103C00006C817D818E819F814B810E94591281112F
:103C100008C082E090E0F8019183808384EF9FEFF9
:103C2000E9CFF9800E9454124F2D50E0BE01685F29
:103C30007F4F0E94D73389810E94C31281E090E0B8
:103C4000F8019183808390E080E0D4CFDF92EF92FF
:103C5000FF920F931F93CF93DF938A01EC01C60F5E
:103C6000D71F0E9454127C01D98071D2DD2059F0F7
:103C7000029721E030E0D816190619F010F030E074
:103C800020E0232B79F482E090E0F8019183808397
:103C90008EEF9FEFDF91CF911F910F91FF90EF90EB
:103CA000DF900895EF2841F482E090E0F8019183DD
:103CB000808384EF9FEFEECFF9800E9454124F2D46
:103CC00050E0BE016E5F7F4F0E94D73389810E9412
:103CD000C31281E090E0F8019183808390E080E05E
:103CE000D9CF8DED9DE190939D0480939C04089520
:103CF00080919C0490919D0408950895FC01118287
:103D00001082938382830895DB011D921C92DC0153
:103D10001296ED91FC9113977183608313967C93B7
:103D20006E9312970895FC0180819181DB018D9340
:103D30009C93A081B181109741F08D919C919183CA
:103D40008083892B11F4F383E2830895FC01808141
:103D50009181DB018D939C93892B11F47383628392
:103D6000718360830895FC011182108293838283A2
:103D70000895CF93DF931F921F92CDB7DEB71A82BB
:103D80001982F894BE016F5F7F4F83EA94E0CBDF26
:103D900089819A81009709F020D389819A81892BA2
:103DA00089F7BE016F5F7F4F87EA94E0BCDF8981AE
:103DB0009A81009709F011D389819A81892B89F71B
:103DC00078940F900F90DF91CF910895CF93DF9368
:103DD0001F921F92CDB7DEB71A821982F894BE01E6
:103DE0006F5F7F4F8FE994E09EDF89819A81009712
:103DF00009F0F3D289819A81892B89F778940F9001
:103E00000F90DF91CF91089581E0089590E080E0D8
:103E10000895EF92FF920F931F93CF93DF931F921A
:103E20001F92CDB7DEB71A82198280919E0407EFE8
:103E30001FEF8823A1F1F894BE016F5F7F4F87EADF
:103E400094E071DF789489819A81EE24E394F12CD7
:103E5000892B51F4F894BE016F5F7F4F83EA94E0A1
:103E600062DF7894F12CE12C89819A810EEF1FEFAB
:103E70000097A9F0FC014281538164E070E00CD608
:103E80008C01892B61F0F89469817A81C701880FD0
:103E9000991F880F991F8D559B4F58DF7894C80143
:103EA0000F900F90DF91CF911F910F91FF90EF90A6
:103EB00008950F931F93CF93DF9300D01F92CDB738
:103EC000DEB71C821B821A82198280919E0407EF42
:103ED0001FEF8823C1F0AE014D5F5F4F64E070E0DB
:103EE000CE0101964CD68C01892B69F4E981FA81C7
:103EF0008B819C8193838283F89469817A818FE995
:103F000094E002DF7894C8010F900F900F900F900B
:103F1000DF91CF911F910F91089551D70496089585
:103F20008F929F92AF92BF92CF92DF92EF92FF92C9
:103F30000F931F93CF93DF931F921F92CDB7DEB7DE
:103F40001A821982BC016F5F7F4F6330710598F050
:103F5000AA24AA94BA2CC5010F900F90DF91CF919B
:103F60001F910F91FF90EF90DF90CF90BF90AF9097
:103F70009F908F9008954115510551F348015901C3
:103F80008A016C01CADF8815990511F7E114F10463
:103F9000F9F28E0D9F1DA816B906D0F280919E04ED
:103FA0008823F1F0F894B501645071099701AE01CE
:103FB0004F5F5F4FC801049677D65C01892B71F47F
:103FC00089819A81F80193838283C601880F991FA2
:103FD000880F991FB8018D559B4F96DE7894BBCF03
:103FE00087EFA82EBB24BA94B6CFAF92BF92CF92E0
:103FF000DF92EF92FF920F931F93CF93DF931F9265
:104000001F92CDB7DEB71A821982892B09F047C0FB
:104010006115710509F443C04115510509F43FC00C
:104020002115310509F43BC001151105C1F180913D
:104030009E048823B9F179016A015B01F894BE01FD
:104040006F5F7F4F8FE994E06EDE789489819A816B
:10405000009759F1DC0112966D917C91A8010496AC
:104060003CD68C01E981FA81D501ED93FC938281E4
:1040700093810496F601918380834FDFD7018D935E
:104080009C93C8010F900F90DF91CF911F910F91DA
:10409000FF90EF90DF90CF90BF90AF9008950FEF1B
:1040A0001FEFEFCF07EF1FEFECCF0EEF1FEFE9CFC2
:1040B000CF93DF93EC01672B71F48AD68C179D07A1
:1040C00060F07DD62496C80FD91F7CD68C0F9D1F1B
:1040D000DF91CF91089579D6F1CF90E080E0F8CFCD
:1040E0000F931F93CF93DF9320919E0421112BC038
:1040F0008B01EC0183EA94E001DE87EA94E0FEDDC7
:104100008FE994E0FBDD97D00097C1F461D670E0B1
:1041100060E0CEDF48E352E062E070E08AD10097D1
:1041200069F4809138029091390264D6B801CE01C9
:1041300099D4009719F421E020939E04DF91CF9148
:104140001F910F91089584EF9FEFF8CF3EC640C6B0
:10415000CF93DF9340D6EC01892B11F40ADE36DED3
:10416000CE01DF91CF910895CF93DF9334D6EC0148
:10417000892B09F4FEDDCE01DF91CF910895809166
:104180003802909139020895CF93DF9380919E0475
:10419000D0E0C0E08823D1F032D6EC01892BB1F415
:1041A000E8DD14DE8091380290913902DED1C4D26C
:1041B000EC01892B59F483EA94E0D5DD87EA94E099
:1041C000D2DD8FE994E0CFDD10929E04CE01DF9125
:1041D000CF910895EF92FF920F931F93CF93DF93A8
:1041E000EC017A018B010F5F1F4F0E9DA0010F9D07
:1041F000500D1E9D500D112470E060E00E94E033D0
:1042000090E080E0F0E0E0E02FEFE816F90639F406
:10421000DF91CF911F910F91FF90EF9008951A8237
:1042200019822883309711F0D283C1830196FE0151
:10423000C00FD11FEACFAF92BF92CF92DF92EF9221
:10424000FF920F931F93CF93DF9380EB95E07C0158
:104250002CEFE22281EEC82E82E0D82E97EEA92E16
:1042600092E0B92ECFE0D6E08E01D6014D915D915E
:104270006D01F501619171915F01D8011196FC9278
:10428000EE9215965C934E93149713965C934E930F
:10429000129717967C936E9316979B012F5F3F4F53
:1042A000249FC001259F900D349F900D11241996D5
:1042B0009C938E931897E114F10411F0C7018ADFE3
:1042C000F80180859185E80EF91E065F1F4FF7EE15
:1042D000CF16F2E0DF0649F6EDEAF4E080E091E087
:1042E000DF019C011D9221503040E1F71092AC0497
:1042F0001092AB048DE296E01F8E1E8E1BA21AA2B6
:1043000019A218A21DA21CA21FA21EA22A968C17D7
:104310009D0791F710920C0610920B0610920E0654
:1043200010920D0690E080E0DF91CF911F910F91E8
:10433000FF90EF90DF90CF90BF90AF9008950097DF
:1043400099F1F8948930910550F48091110690917B
:104350001206892B39F020E090E080E018C081320D
:10436000910550F480911B0690911C06892B31F029
:1043700021E081E090E00BC0C197A8F48091250670
:1043800090912606892B79F022E082E090E0EAE025
:10439000E89FD001E99FB00D1124A15FB94F8D9125
:1043A0009C91009721F4789490E080E00895E29F3A
:1043B000F0011124E15FF94FDC0111964D915C9100
:1043C0005183408342815381415051095383428339
:1043D000FC012193CF0178940895009749F1DC0105
:1043E0008E91863041F4E0910D06F0910E063097E3
:1043F000F9F0CD0119948630D8F4282F30E0F894E4
:104400008FEF8C938AE0829FF001839FF00D11243F
:10441000E15FF94F8081918112969C938E93119761
:10442000B183A08382819381019693838283789460
:104430000895CF92DF92EF92FF920F931F93CF9345
:10444000DF939C0180EB94E08C7F4115510509F4CA
:1044500089C02115310509F485C06115710509F47C
:1044600081C08A01AB01B9016D5F7F4F6C7F9B01F9
:104470002F5F3F4F249F7001259FF00C349FF00C5D
:104480001124F894EFE0F6E023E030E0E901A6A182
:10449000B7A1C68CD78CCD2809F058C0109709F069
:1044A0003EC0C090AB04D090AC042DEF30E02C198E
:1044B0003D092E153F0530F47894CFEFDFEF86EFFE
:1044C0009FEF21C02AE02C9FF0012D9FF00D1124B9
:1044D000E15FF94F91838083558344835383428303
:1044E00077836683F186E086009709F073DEEC0C33
:1044F000FD1CF092AC04E092AB047894CF3FDC0753
:10450000F1F290E080E0F801D183C083DF91CF9198
:104510001F910F91FF90EF90DF90CF900895AE150F
:10452000BF05A0F02AE02C9FF0012D9FF00D112473
:10453000E15FF94F918380835583448353834283A2
:10454000778366830097C9F245DED7CF8A0F9B1F1A
:104550002F5F3F4F3A962630310509F097CFCFEFC6
:10456000DFEFCBCF8FEF9FEFD1CF9C010397039766
:1045700008F04EC0F89485E09AE0482F50E02417E8
:1045800035079CF191E08AE0829FF001839FF00D56
:104590001124E15FF94F1182108215821482138277
:1045A0001282178216829923E1F08091AB049091D8
:1045B000AC04EFE0F6E022A933A9232B49F422ADA5
:1045C00033AD2115310521F0821B930B13AE12AED2
:1045D0003A9725E0E13FF20771F79093AC0480939E
:1045E000AB04789490E080E00895949FF001959F4B
:1045F000F00D1124E15FF94F40815181452B31F4D9
:1046000040855185452B11F48150B7CF90E0BBCF49
:104610008FEF9FEF08954115510549F1009739F14A
:104620006115710521F1F89420910B0630910C066B
:10463000232BB9F420910D0630910E06232B89F41B
:1046400090930C0680930B0670930E0660930D06F4
:10465000789426E030E090E080E0FA013183208316
:10466000089578942FEF3FEF86EF9FEFF6CF8FEF0F
:104670009FEF0895069769F4F89410920C06109233
:104680000B0610920E0610920D06789490E080E0D2
:1046900008958FEF9FEF08956115710519F4F0E00B
:1046A000E0E011C08630910581F4E0910B06F091B5
:1046B0000C063097A1F3CB0101961995009779F379
:1046C000FC0186E08193CF0108959C0123503109BC
:1046D0002330310520F72AE0289FD001299FB00D13
:1046E0001124A15FB94F2D913C911197232BB9F261
:1046F00016962D913C9117972617370780F2F8945C
:1047000012962D913C9113972115310529F0ED91C9
:10471000FC911197309711F47894C1CF4181528167
:1047200011965C934E932150310913963C932E932E
:10473000129781937894C7CFEDEAF5E08EE5DF011B
:104740001D928A95E9F7EDEAF4E080E091E0DF015F
:104750009C011D9221503040E1F71092AC04109260
:10476000AB04EFE0F6E08CE3DF011D928A95E9F7F8
:10477000EBE0F6E084E0DF011D928A95E9F790E036
:1047800080E00895CF93DF93C0913A02D0913B022D
:10479000CF3FDC0759F4DED390933B0280933A027B
:1047A00097FF09C0D0933B02C0933A0284EF9FEF7A
:1047B000DF91CF91089590E080E0FACF82309105AB
:1047C00028F480934B0690E080E008958FEF9FEFF0
:1047D00008954F925F926F927F92AF92BF92CF9265
:1047E000DF92EF92FF920F931F93CF93DF931F926D
:1047F0001F92CDB7DEB71A821982009709F479C0EB
:104800006115710509F475C020913A0230913B029F
:1048100007EF1FEF2F3F3F4F09F445C06B015C01CD
:10482000412C512C3201F12CE12C10E000E09E01D2
:104830002F5F3F4FA6014E195F09B5016E0D7F1D19
:1048400080913A0290913B02E9D3892B09F04BC049
:1048500089819A81009741F4E114F10429F42091AF
:104860004B06222309F442C0E80EF91EEC14FD04A5
:10487000D0F480E8481684E858068EE16806710492
:1048800020F560E070E0CB010E94A92D2AE0420EE5
:10489000511C611C711C0A3F4FEF140721F0043FAB
:1048A0008FEF1807A1F4C8010F900F90DF91CF91FF
:1048B0001F910F91FF90EF90DF90CF90BF90AF903E
:1048C0007F906F905F904F90089501EF1FEF81E010
:1048D00090E0013F2FEF120711F090E080E0892B6C
:1048E00009F4A5CFE0CF04EF1FEFDDCF0AEF1FEFF4
:1048F000DACF0FEF1FEFD7CF4F925F926F927F9279
:10490000AF92BF92CF92DF92EF92FF920F931F93DD
:10491000CF93DF931F921F92CDB7DEB71A82198211
:10492000009709F479C06115710509F475C02091EB
:104930003A0230913B0207EF1FEF2F3F3F4F09F440
:1049400045C06B015C01412C512C3201F12CE12C52
:1049500010E000E09E012F5F3F4FA6014E195F0956
:10496000B5016E0D7F1D80913A0290913B0209D3F3
:10497000892B09F04BC089819A81009741F4E11499
:10498000F10429F420914B06222309F442C0E80ED9
:10499000F91EEC14FD04D0F480E8481686E95806A8
:1049A00088E96806710420F560E070E0CB010E94A0
:1049B000A92D2AE0420E511C611C711C0E3F4FEFC5
:1049C000140721F0043F8FEF1807A1F4C8010F90DE
:1049D0000F90DF91CF911F910F91FF90EF90DF909B
:1049E000CF90BF90AF907F906F905F904F90089561
:1049F00002EF1FEF81E090E0023F2FEF120711F06E
:104A000090E080E0892B09F4A5CFE0CF04EF1FEF01
:104A1000DDCF0EEF1FEFDACF0FEF1FEFD7CF809173
:104A20003A0290913B028F3F980749F08BD2892B35
:104A300049F48FEF9FEF90933B0280933A0290E00E
:104A400080E0089584EF9FEF0895FC01680F791FBF
:104A500090E080E0E617F70709F408952191820FAE
:104A6000911DF8CF20914C06211113C08BDE0097C9
:104A700091F4109252061092510610925006109224
:104A80004F0610924E0610924D0621E020934C06E0
:104A9000089584EF9FEF0895AF92BF92CF92DF9277
:104AA000EF92FF920F931F93CF93DF93009709F438
:104AB00060C04630510508F45CC020914C06C7EF39
:104AC000DFEF222309F449C08C01060F171FF801FC
:104AD000C080D180C114D10409F44EC096012A5F70
:104AE0003F4F4217530708F447C07C01809151069D
:104AF0009091520693838283B6016C5F7F4F580179
:104B0000A60EB71EC801A1DFF5019183808364E082
:104B100070E0C8015EDEEC01892BF9F481E090E0E1
:104B20004DDEB601C801049654DEEC01892B91F4E8
:104B300062E070E0C5014DDEEC01892B59F4C7013C
:104B40004CDC80915106909152060196909352064A
:104B50008093510690E080E031DECE01DF91CF916D
:104B60001F910F91FF90EF90DF90CF90BF90AF908B
:104B70000895CFEFDFEFF1CFC9EFDFEFEECF6F9208
:104B80007F928F929F92AF92BF92CF92DF92EF92DD
:104B9000FF920F931F93CF93DF9300D01F92CDB757
:104BA000DEB7009709F47AC04115510509F476C0C3
:104BB00020914C0607EF1FEF222309F44DC03A0164
:104BC0007B015C0164E070E0CE01019695DE8C0112
:104BD000892B09F041C009811A810115110509F4D9
:104BE0005AC0480186E0880E911CB701680D791DF6
:104BF00080913C0290913D024FDD6C01009709F4D9
:104C000050C0A70170E060E00E94E03389819A8182
:104C1000AB81BC81EC0CFD1CF70181939193A193B6
:104C2000B1937F0181E090E0C9DDB801C70164DE86
:104C3000892B31F562E070E0C701800F911F5CDEC7
:104C40008C01892BE9F490E080E0B8DDF501D18298
:104C5000C082F30191828082C8010F900F900F9063
:104C60000F90DF91CF911F910F91FF90EF90DF9008
:104C7000CF90BF90AF909F908F907F906F9008954E
:104C800090E080E09BDDF50111821082F30111823A
:104C90001082C601A2DB09EF1FEFDECF0FEF1FEF7F
:104CA000DBCF06EF1FEFD8CF0097A1F041155105DC
:104CB00089F02115310571F0F90136966E177F07DD
:104CC00048F0DC012D933C93DA01ED93FC9390E0E6
:104CD00080E008958FEF9FEF0895AF92BF92CF923B
:104CE000DF92EF92FF920F931F93CF93DF93009782
:104CF00009F45FC04115510509F45BC065307105C9
:104D000008F457C020914C06C7EFDFEF222391F142
:104D1000DC01CD90DC9011971296ED91FC919601FB
:104D20002A5F3F4FC9EFDFEF2617370719F5C0910C
:104D30004D06D0914E06209749F521E030E03093A2
:104D40004E0620934D067A018C01F0935006E093B5
:104D50004F065601B4E0AB0EB11CB50176DE0A0D6C
:104D60001B1DF801208131818217930729F5D70196
:104D7000CD92DC92CE01DF91CF911F910F91FF90E8
:104D8000EF90DF90CF90BF90AF90089520914F06A5
:104D9000309150062F5F3F4FCCEFDFEFE217F30764
:104DA00090F2CBEFDFEF2E173F0768F2D0E0C0E0C4
:104DB000CACFCFEFDFEFDECFC3EFDFEFDBCF84E093
:104DC00090E0089582E090E008958CEF9FEF0895C1
:104DD00080E290E0089510925206109251061092CF
:104DE000500610924F0610924E0610924D0690E01B
:104DF00080E0089590933D0280933C020895809155
:104E00004C06882391F00BDE009789F4109252062D
:104E1000109251061092500610924F0610924E06B4
:104E200010924D0610924C06089590E080E008958F
:104E3000009749F06115710531F0FC011182108273
:104E4000FB01118210820895F3CF40E855E260E043
:104E500070E090E080E000C08130910579F01CF4B2
:104E6000892B39F008958230910561F0039771F034
:104E7000089526E088E696E00C94D63026E085E09A
:104E800097E0FACF26E082EA97E0F6CF26E08FE3BC
:104E900098E0F2CF089580E00895CF92DF92EF92EC
:104EA000FF920F931F9330D660935306709354066E
:104EB0008093550690935606009157061091580618
:104EC0002091590630915A066B017C01C01AD10A13
:104ED000E20AF30A97018601083E134021053105D5
:104EE00008F1609357067093580680935906909383
:104EF0005A06A8D009D6009157061091580620915D
:104F0000590630915A06601B710B820B930B683E59
:104F100073408105910570F081E090E090935E060A
:104F200080935D0681E01F910F91FF90EF90DF90DD
:104F3000CF90089510925E0610925D06F3CF109206
:104F40005B06089568EE73E080E090E002D690E0A2
:104F500080E0089526E040E052EC61E070E088E6F1
:104F600096E00E94D63088E696E00E940C30892BAD
:104F700029F088E696E00E942630F5CF90E080E0A8
:104F80000895CF92DF92EF92FF920F931F93CF93EA
:104F9000DF936B017A01E9011982188288E696E0B5
:104FA0000E940C30892B79F18601CC24C39482E0D5
:104FB000D82E80915B06811111C088E696E00E9490
:104FC00026300297B1F7C0925B06F801D1928F01AB
:104FD00088819981019699838883EBCF8881998113
:104FE0008E159F0580F488E696E00E9426308F3F5C
:104FF0009807A1F3F80181938F0188819981019627
:1050000099838883EBCF90E080E0DF91CF911F916F
:105010000F91FF90EF90DF90CF9008950F931F9323
:10502000CF93DF93EA01890188E696E00E94663318
:10503000F801D183C08390E080E0DF91CF911F9190
:105040000F91089580915C0691E0980F90935C0613
:10505000882349F021E030E030935E0620935D061E
:1050600080935C0608950E94A40680915C0681509E
:10507000F7CF0F931F93CF93DF9310921F091092D6
:105080001E099DD5E2DEC0916102D09162021982B3
:10509000188268EB7BE080E090E00E94990670E067
:1050A00060E090E080E00E941A05009709F041C09E
:1050B0000E94E807F8947894BE016C557F4F8A816E
:1050C0009B810E941D05892B71F46FEF7FEFCB014F
:1050D0000E94AC050E949306882329F081E0FE011E
:1050E000E655FF4F8083F894D5DE0E94960688230C
:1050F00011F080E00BC00E9493068111FACF81E08D
:10510000FE01E655FF4F90819111F3CF80931E0968
:105110000E94A10F8C017894C655DF4F80911E0923
:1051200081110CC00E94D6080E947806F89490E085
:1051300080E0DF91CF911F910F9108950E94760634
:105140000E9496068823D9F081E080931F099091F0
:105150001F0981E0911180E080931E0980911F0951
:10516000811199DE0130110529F40E94A10F892BCC
:1051700009F4E5DE0E94A10F8C018FDECFCF0E94E3
:1051800093068111E1CF81E098819111DECF80E01B
:10519000DCCF5058BB27AA270ED075C166D130F09E
:1051A0006BD120F031F49F3F11F41EF45BC10EF47B
:1051B000E095E7FB51C1E92F77D180F3BA17620779
:1051C00073078407950718F071F49EF58FC10EF4EC
:1051D000E0950B2EBA2FA02D0B01B90190010C0107
:1051E000CA01A0011124FF27591B99F0593F50F41F
:1051F000503E68F11A16F040A22F232F342F442777
:10520000585FF3CF469537952795A795F04053956E
:10521000C9F77EF41F16BA0B620B730B840BBAF03E
:105220009150A1F0FF0FBB1F661F771F881FC2F7A9
:105230000EC0BA0F621F731F841F48F487957795BD
:105240006795B795F7959E3F08F0B3CF9395880F74
:1052500008F09927EE0F979587950895D9D008F40F
:1052600081E008950CD00FC107D140F0FED030F09E
:1052700021F45F3F19F0F0C0511139C1F3C014D1CE
:1052800098F39923C9F35523B1F3951B550BBB270D
:10529000AA2762177307840738F09F5F5F4F220FBA
:1052A000331F441FAA1FA9F333D00E2E3AF0E0E8B3
:1052B00030D091505040E695001CCAF729D0FE2FFF
:1052C00027D0660F771F881FBB1F26173707480791
:1052D000AB07B0E809F0BB0B802DBF01FF27935847
:1052E0005F4F2AF09E3F510568F0B6C000C15F3F96
:1052F000ECF3983EDCF3869577956795B795F7952F
:105300009F5FC9F7880F911D9695879597F9089526
:10531000E1E0660F771F881FBB1F621773078407C2
:10532000BA0720F0621B730B840BBA0BEE1F88F7D1
:10533000E095089504D06894B111D9C00895BCD007
:1053400088F09F5790F0B92F9927B751A0F0D1F06E
:10535000660F771F881F991F1AF0BA95C9F712C0F8
:10536000B13081F0C3D0B1E00895C0C0672F782F6D
:105370008827B85F39F0B93FCCF386957795679564
:10538000B395D9F73EF490958095709561957F4FD0
:105390008F4F9F4F0895E89409C097FB3EF4909576
:1053A0008095709561957F4F8F4F9F4F9923A9F0FE
:1053B000F92F96E9BB279395F6958795779567958D
:1053C000B795F111F8CFFAF4BB0F11F460FF1BC0D1
:1053D0006F5F7F4F8F4F9F4F16C0882311F096E964
:1053E00011C0772321F09EE8872F762F05C0662312
:1053F00071F096E8862F70E060E02AF09A95660FCB
:10540000771F881FDAF7880F9695879597F9089583
:10541000990F0008550FAA0BE0E8FEEF16161706C5
:10542000E807F907C0F012161306E407F50798F02D
:10543000621B730B840B950B39F40A2661F0232B46
:10544000242B252B21F408950A2609F4A140A695C2
:105450008FEF811D811D089597F99F6780E870E0A7
:1054600060E008959FEF80EC089500240A941616DA
:10547000170618060906089500240A941216130642
:10548000140605060895092E0394000C11F48823D0
:1054900052F0BB0F40F4BF2B11F460FF04C06F5FEC
:1054A0007F4F8F4F9F4F089557FD9058440F551FC2
:1054B00059F05F3F71F04795880F97FB991F61F096
:1054C0009F3F79F087950895121613061406551F0D
:1054D000F2CF4695F1DF08C0161617061806991F79
:1054E000F1CF86957105610508940895E894BB276E
:1054F00066277727CB0197F908958ADF08F48FEFA5
:1055000008950BD0C0CFB1DF28F0B6DF18F0952397
:1055100009F0A2CFA7CF1124EACFC6DFA0F3959F51
:10552000D1F3950F50E0551F629FF001729FBB278A
:10553000F00DB11D639FAA27F00DB11DAA1F649F36
:105540006627B00DA11D661F829F2227B00DA11DE9
:10555000621F739FB00DA11D621F839FA00D611D6F
:10556000221F749F3327A00D611D231F849F600D90
:10557000211D822F762F6A2F11249F5750408AF0C9
:10558000E1F088234AF0EE0FFF1FBB1F661F771F55
:10559000881F91505040A9F79E3F510570F05CCF95
:1055A000A6CF5F3FECF3983EDCF386957795679541
:1055B000B795F795E7959F5FC1F7FE2B880F911D73
:1055C0009695879597F908959F9305D00F9007FCBE
:1055D000EE5F28C047CF70DFE8F3E894E0E0BB2738
:1055E0009F57F0F02AED3FE049EC06C0EE0FBB0FED
:1055F000661F771F881F28F0B23A62077307840777
:1056000028F0B25A620B730B840BE3959A9572F7EC
:10561000803830F49A95BB0F661F771F881FD2F72A
:10562000904813C0EF93E0FF06C0A2EA2AED3FE0E6
:1056300049EC5FEBC0DD27DF0F90039401FC90582D
:10564000E4EEF0E00EC09F3F31F0915020F48795DA
:1056500077956795B795880F911D9695879597F9DA
:1056600008959F938F937F936F93FF93EF939B0185
:10567000AC0147DFEF91FF9105D02F913F914F9102
:105680005F913FCFDF93CF931F930F93FF92EF92E2
:10569000DF927B018C01689405C0DA2EEF013DDFBB
:1056A000FE01E894A5912591359145915591AEF370
:1056B000EF0181DDFE019701A801DA9479F7DF900F
:1056C000EF90FF900F911F91CF91DF910895089572
:1056D000883008F076C0E82FF0E0EE0FFF1FE25CA4
:1056E000FD4F718360838150873008F03DC0E82F03
:1056F000F0E08827E158F44D8F4F0C94B633BC2B63
:10570000862B8E2B9A2BA72BC82BD52B809169002B
:105710008C7F482B40936900E89A08958091690036
:10572000837F440F551F440F551F482B409369003A
:10573000E99A0895809169008F7C74E0440F551FA9
:105740007A95E1F7482B40936900EA9A0895809191
:1057500069008F7366E0440F551F6A95E1F7482B87
:1057600040936900EB9A089580916A008C7F482BE2
:1057700040936A00EC9A089580916A00837F440FF9
:10578000551F440F551F482B40936A00ED9A08950A
:1057900080916A008F7C24E0440F551F2A95E1F721
:1057A000482B40936A00EE9A089580916A008F73A7
:1057B00096E0440F551F9A95E1F7482B40936A00F5
:1057C000EF9A08951F920F920FB60F9211240BB605
:1057D0000F922F933F934F935F936F937F938F938A
:1057E0009F93AF93BF93EF93FF93E0914202F091A9
:1057F00043021995FF91EF91BF91AF919F918F91C6
:105800007F916F915F914F913F912F910F900BBEC0
:105810000F900FBE0F901F9018951F920F920FB60A
:105820000F9211240BB60F922F933F934F935F93D8
:105830006F937F938F939F93AF93BF93EF93FF9358
:10584000E0914402F09145021995FF91EF91BF91CB
:10585000AF919F918F917F916F915F914F913F9108
:105860002F910F900BBE0F900FBE0F901F901895A9
:105870001F920F920FB60F9211240BB60F922F9317
:105880003F934F935F936F937F938F939F93AF93C8
:10589000BF93EF93FF93E0914602F0914702199571
:1058A000FF91EF91BF91AF919F918F917F916F91F8
:1058B0005F914F913F912F910F900BBE0F900FBEB4
:1058C0000F901F9018951F920F920FB60F921124F0
:1058D0000BB60F922F933F934F935F936F937F93EA
:1058E0008F939F93AF93BF93EF93FF93E091480201
:1058F000F09149021995FF91EF91BF91AF919F915E
:105900008F917F916F915F914F913F912F910F9068
:105910000BBE0F900FBE0F901F9018951F920F9205
:105920000FB60F9211240BB60F922F933F934F9304
:105930005F936F937F938F939F93AF93BF93EF93F7
:10594000FF93E0913E02F0913F021995FF91EF9194
:10595000BF91AF919F918F917F916F915F914F9187
:105960003F912F910F900BBE0F900FBE0F901F9085
:1059700018951F920F920FB60F9211240BB60F922B
:105980002F933F934F935F936F937F938F939F9347
:10599000AF93BF93EF93FF93E0914002F0914102E8
:1059A0001995FF91EF91BF91AF919F918F917F9149
:1059B0006F915F914F913F912F910F900BBE0F9080
:1059C0000FBE0F901F9018951F920F920FB60F9257
:1059D00011240BB60F922F933F934F935F936F93C6
:1059E0007F938F939F93AF93BF93EF93FF93E09138
:1059F0004A02F0914B021995FF91EF91BF91AF913F
:105A00009F918F917F916F915F914F913F912F91D6
:105A10000F900BBE0F900FBE0F901F9018951F9206
:105A20000F920FB60F9211240BB60F922F933F9344
:105A30004F935F936F937F938F939F93AF93BF9396
:105A4000EF93FF93E0914C02F0914D021995FF9175
:105A5000EF91BF91AF919F918F917F916F915F91E6
:105A60004F913F912F910F900BBE0F900FBE0F9053
:105A70001F9018951F920F920FB60F9211242F931B
:105A80003F938F939F93AF93BF93809160069091C4
:105A90006106A0916206B091630630915F0623E033
:105AA000230F2D3758F50196A11DB11D20935F06D8
:105AB0008093600690936106A0936206B09363069C
:105AC0008091640690916506A0916606B091670684
:105AD0000196A11DB11D8093640690936506A09365
