:1000000006C100000C944B390C9476390C94A1393C
:100010000C94CC390C94F7390C94223A0C944D3A48
:100020000C94783A25C1000023C1000021C10000D2
:100030001FC100001DC100001BC1000019C100004C
:1000400017C1000015C1000013C1000011C100005C
:100050000FC100000DC100000BC100000C94A33AB9
:1000600007C100000C949F3E0C94D53E01C10000D6
:10007000FFC00000FDC00000FBC00000F9C0000090
:10008000F7C00000F5C00000F3C00000F1C00000A0
:100090000C942B3F0C94613FEBC000000C94AF37E5
:1000A000E7C00000E5C00000E3C00000E1C00000C0
:1000B000DFC00000DDC00000DBC00000D9C00000D0
:1000C000D7C00000D5C00000D3C000000C94B73FDB
:1000D0000C94ED3FCDC000000C9443400C9479404B
:1000E000C7C0000000000A0B02090C0D0E08070330
:1000F00004010000000000000000000000000000FB
:1001000000000000000000000000000000000000EF
:1001100012111000000000000000000000000000AC
:100120000000000000000000000001021020200874
:100130000810204010204080020102010804020142
:1001400001020408102040808040201008040201B1
:10015000800402018040201008040201080402010A
:100160000102040810204080010204081020408091
:1001700005050505070508080808020202020A0A23
:100180000808040404040101010101010101030341
:10019000030303030303040707070C0C0C0C0C0CEC
:1001A0000C0C0202020206060606060606060B0BE9
:1001B0000B0B0B0B0B0B000020002300260029006B
:1001C0002C002F003200000100000301060109018C
:1001D00000002200250028002B002E0031003400F2
:1001E00002010000050108010B01000021002400AC
:1001F00027002A002D003000330001010000040117
:1002000007010A011A35FE3E8A3F1640A24011241A
:100210001FBECFEFD1E2DEBFCDBF00E00CBF13E0C9
:10022000A0E0B2E0ECEBF2E800E00BBF02C0079008
:100230000D92A232B107D9F72CE0A2E2B3E001C0DF
:100240001D92A533B207E1F711E0C7E0D1E000E06D
:1002500006C021970109802FFE010E941F41C23074
:10026000D10780E00807A9F70E9482300C945C4116
:10027000C7CECF92DF92EF92FF926B017C01C11447
:10028000D104E104F10469F480910002811109C0F4
:1002900080910202909103020E948B3481E080934E
:1002A0000002C601880F991F880F991F80509E4F2A
:1002B000FF90EF90DF90CF900895009781F0FC01C0
:1002C0002181211104C040EA56E861E070E0FC01A0
:1002D000828193810E949A3490E080E0089588E0C2
:1002E00090E008954F925F926F927F928F929F92CB
:1002F000AF92BF92CF92DF92EF92FF920F931F9334
:10030000CF93DF930097C9F1280139017A01EC01FD
:10031000402F8A819B810E9418358A819B81DC0154
:10032000ED91FC910084F185E02D1995892B01F167
:100330006701812C912C54018A819B81DC01ED9114
:10034000FC910084F185E02D1995892B91F184149D
:100350009504A604B70469F18A819B81DC01ED91C3
:10036000FC910284F385E02D19958F3F9807C1F425
:1003700084E0F70111928A95E9F788E090E0DF9137
:10038000CF911F910F91FF90EF90DF90CF90BF9092
:10039000AF909F908F907F906F905F904F90089557
:1003A000FFEF8F1A9F0AAF0ABF0AD6018D936D0126
:1003B000C3CF90E080E0E3CF8F929F92AF92BF9245
:1003C000CF92DF92EF920F931F93CF93DF9300971B
:1003D000F1F06A01EC018A819B810E949D348A813F
:1003E0009B81DC01ED91FC910280F381E02DA8015D
:1003F000B60119958A819B8160E0E11001C061E03E
:100400000E94A734882389F08250823088F088E0E7
:1004100090E0DF91CF911F910F91EF90DF90CF90FF
:10042000BF90AF909F908F90089590E080E0F1CFC3
:1004300084E090E0EECF0895611102C00C94E43C9A
:100440006130E1F362E0FACF662319F061E00C94C9
:10045000203D60E0FCCFCF93DF93EC0170E060E0E3
:100460006C177D070CF5072E000C880B990B0E946A
:10047000163220E030E0A9010E94133120E030E084
:10048000A9010E94133120E030E040E450E40E94D2
:10049000133120E030E040E450E40E9412310E9429
:1004A000E3316F5F7F4FDCCFDF91CF9108950F93E2
:1004B0001F93CF93DF93EC018C810E944D3D8C0103
:1004C0008C859D85C8DF88850E944D3D4881598176
:1004D0006A817B81019781F40130110579F44F5FC6
:1004E0005F4F6F4F7F4F488359836A837B83DF91D0
:1004F000CF911F910F910895012B89F3415051091C
:1005000061097109F0CF83E293E0D1CF83E393E0F7
:10051000CECF83E493E0CBCF83E593E0C8CF0F93B6
:100520001F93CF93DF93EC0188850E944D3D8C0192
:100530008C859D8590DF8C810E944D3D488159813D
:100540006A817B81019779F4012B81F44F5F5F4FC2
:100550006F4F7F4F488359836A837B83DF91CF91AD
:100560001F910F9108950130110581F341505109F8
:1005700061097109EFCF83E293E0D1CF83E393E088
:10058000CECF83E493E0CBCF83E593E0C8CF0F9346
:100590001F93CF93DF93D82FC62F8A01E0912203B8
:1005A00080E1E89FF0011124ED5DFC4F8D2F90E07C
:1005B000B0E0A0E084839583A683B783862F90E084
:1005C000B0E0A0E080879187A287B3871082118274
:1005D0001282138281E090E0A0E0B0E084879587EA
:1005E000A687B78760E08D2F0E94E43C60E08C2FE7
:1005F0000E94E43C80912203813009F43FC0A8F0BE
:10060000823009F462C0833009F486C080912203ED
:1006100091E0980F90932203F801808390E080E0AE
:10062000DF91CF911F910F91089580E0D23049F072
:1006300081E0D33031F08EEE8D0F8430D8F487E135
:100640008D1B41E050E06BEB72E00E94D13880E0FE
:10065000C23049F081E0C33031F08EEE8C0F84302F
:1006600058F487E18C1B41E050E063E872E00E949F
:10067000D138CCCF8FEFE5CF8FEFF5CF80E0D23000
:1006800049F081E0D33031F08EEE8D0F8430C8F424
:1006900087E18D1B41E050E06EEB72E00E94D138A3
:1006A00080E0C23049F081E0C33031F08EEE8C0F33
:1006B000843048F487E18C1B41E050E066E872E04A
:1006C000D6CF8FEFE7CF8FEFF7CF80E0D23049F072
:1006D00081E0D33031F08EEE8D0F8430C8F487E1A5
:1006E0008D1B41E050E061EC72E00E94D13880E067
:1006F000C23049F081E0C33031F08EEE8C0F84308F
:1007000048F487E18C1B41E050E069E872E0AFCF2C
:100710008FEFE7CF8FEFF7CF80E0D23049F081E065
:10072000D33031F08EEE8D0F8430C8F487E18D1B0D
:1007300041E050E064EC72E00E94D13880E0C230C9
:1007400049F081E0C33031F08EEE8C0F843048F4F4
:1007500087E18C1B41E050E06CE872E088CF8FEFBE
:10076000E7CF8FEFF7CF90E1899FF0011124ED5D86
:10077000FC4F80819181A281B381FB0180839183B1
:10078000A283B38390E080E0089590E1899FF00117
:100790001124ED5DFC4F108211821282138290E0D1
:1007A00080E0089590E080E00895CF92DF92EF928C
:1007B000FF92CF93882351F16A017B01CFEFC80FDD
:1007C00020E030E0A901CB01B6010E94773187FF1C
:1007D00011C0C701B60190580E94E8319B01AC01DD
:1007E0006C2F70E090E080E0CF91FF90EF90DF9071
:1007F000CF90B2C0C701B6010E94E3318C2FCF91D8
:10080000FF90EF90DF90CF900C94AA3BCF91FF9098
:10081000EF90DF90CF9008950F931F938B019C0171
:1008200083E036952795179507958A95D1F70D5949
:100830001C4F462F477021E030E0F90102C0EE0F57
:10084000FF1F4A95E2F7AF01F80120812423CB0175
:100850000196211102C090E080E01F910F91089550
:100860000F931F938B019C0183E036952795179575
:1008700007958A95D1F7677081E090E001C0880FF5
:100880006A95EAF7F801ED59FC4F2081452B31F4C8
:100890008095822380831F910F910895822BFACF38
:1008A0002F923F924F925F926F927F928F929F9280
:1008B000AF92BF92CF92DF92EF92FF920F931F936E
:1008C000CF93DF93D62EC72E782E692E49015A0179
:1008D000280161E08D2D0E94E43CCD2DDC2D8E01A0
:1008E0000F5F1F4FA8016D2D7C2D872D962DB8DF32
:1008F00020E030E0A901C201B7010E946733181659
:1009000064F4C201B7010E94E8312B01C501B401B2
:100910000E94E831A201CE0123D0C801DF91CF911E
:100920001F910F91FF90EF90DF90CF90BF90AF900D
:100930009F908F907F906F905F904F903F902F90FF
:100940000895882341F08150682F70E090E080E0A6
:1009500050E040E085CF0895862FB9010C94AA3B62
:100960009C01FC01EC51FF4FE491E150E231E0F4D5
:10097000F0E08827E154FB4F8F4F0C941F41D104C6
:10098000D804DB04F2040705D4041C0528052C0553
:10099000430558056D0584059905D404AE05C505C4
:1009A000DA0584B5806884BD60E0822F0C94203D18
:1009B00084B58062F8CF809180008C7F82608093C4
:1009C000800080918100807E8061682B609381002F
:1009D00050938700409386008091800080688093C8
:1009E0008000E2CF809180008C7F826080938000C5
:1009F00080918100807E8061682B6093810050939C
:100A0000870040938600809180008062E8CF8091CB
:100A100080008C7F82608093800080918100807E46
:100A20008061682B6093810050938700409386001B
:100A3000809180008860D3CF8091B00080688093DF
:100A4000B0008091B100887F682B6093B100ACCF7B
:100A50008091B0008062F3CF809190008C7F8260A3
:100A60008093900080919100807E8061682B6093DC
:100A70009100509397004093960080919000806879
:100A80008093900091CF809190008C7F82608093C2
:100A9000900080919100807E8061682B609391002E
:100AA0005093970040939600809190008062E8CF29
:100AB000809190008C7F8260809390008091910063
:100AC000807E8061682B60939100509397004093E3
:100AD0009600809190008860D3CF8091A0008C7F99
:100AE00082608093A0008091A100807E8061682B4D
:100AF0006093A1005093A7004093A6008091A000AE
:100B000080688093A00050CF8091A0008C7F82608D
:100B10008093A0008091A100807E8061682B60930B
:100B2000A1005093A7004093A6008091A00080628E
:100B3000E8CF8091A0008C7F82608093A00080919C
:100B4000A100807E8061682B6093A1005093A70074
:100B50004093A6008091A0008860D3CF80912001AF
:100B60008C7F82608093200180912101807E806152
:100B7000682B6093210150932701409326018091B7
:100B800020018068809320010FCF809120018C7F0D
:100B900082608093200180912101807E8061682B9A
:100BA00060932101509327014093260180912001F9
:100BB0008062E8CF809120018C7F82608093200149
:100BC00080912101807E8061682B60932101509388
:100BD000270140932601809120018860D3CF90E0C7
:100BE00080E008950F931F93009709F48DC061155D
:100BF000710509F489C000913E0210913F022091D5
:100C00004002309141020E3F1F4F2F4F3F4F09F0DE
:100C10006CC04FEF5FEFBA0140933E0250933F022A
:100C2000609340027093410240913E0250913F0216
:100C30006091400270914102DC011296ED91FC91AD
:100C400080819181A281B3818093AD049093AE04A1
:100C5000A093AF04B093B00484819581A681B7813D
:100C60008093A9049093AA04A093AB04B093AC041E
:100C700080859185A285B3858093A5049093A60471
:100C8000A093A704B093A80484859585A685B7850D
:100C90008093A1049093A204A093A304B093A4040E
:100CA00010929D0410929E0410929F041092A00432
:100CB0000E94D41389EF93E190936D0380936C03AA
:100CC00090936F0380936E039093710380937003EE
:100CD0000E94C312009731F421E030E03093B20457
:100CE0002093B1041F910F91089500913E0210913D
:100CF0003F022091400230914102DB010D931D9390
:100D00002D933C93139790CF8FEF9FEFEBCF8F9264
:100D10009F92AF92BF92CF92DF92EF92FF921F937A
:100D2000CF93DF934B015C011091B40482E090E01B
:100D30009093B2048093B10481149104A104B1048E
:100D400041F48091B404811104C08091B304C1E0E6
:100D50008111C0E0C12CD12C76018091B4048111A5
:100D600006C08091B304811102C0CC23D9F083E086
:100D700090E09093B2048093B104CC2381F1CCE94C
:100D8000DFEF111102C00E945E17CE01DF91CF91FB
:100D90001F91FF90EF90DF90CF90BF90AF909F900A
:100DA0008F9008956AE070E080E090E00E94123B2E
:100DB00080E1C80E87E2D81EE11CF11C8FEF881677
:100DC0009806A806B80631F0C1E08C149D04AE0464
:100DD000BF0408F0C0E080E00E94F712BECFD0E070
:100DE000C0E0CFCFCF92DF92EF92FF920F931F938D
:100DF000CF93DF938F3F910511F008F051C0209100
:100E0000B1043091B2042330310539F02091B1049E
:100E10003091B2042130310531F424E030E03093D8
:100E2000B2042093B1046A017B01EC018330910587
:100E3000A8F011E0AE01C701B6010E94C212AB01D9
:100E4000BC01CE011123F9F0DF91CF911F910F91D9
:100E5000FF90EF90DF90CF900C9487198C01000FDA
:100E6000111F04591C4FD8018D919C91892B09F3B6
:100E70000E9491190297E9F6D801ED91FC91CE01FB
:100E80001995182FD7CF0E94A91990E080E0DF9123
:100E9000CF911F910F91FF90EF90DF90CF90089529
:100EA0008FEF9FEFF4CF80E00C94F712CF93DF9396
:100EB00086E090E09093B2048093B1040E945013B6
:100EC000EC01ECE6F3E086E0DF011D928A95E9F79C
:100ED0000E94F6161092B2041092B104CE01DF9176
:100EE000CF9108958091B304089580919C04089552
:100EF00060933E0270933F028093400290934102C0
:100F000090E080E008951F93CF93DF93EC0180E0A1
:100F100090E5A3ECB8E48C879D87AE87BF871F82DE
:100F20001E82188211E0188B1D8281E090E0A0E003
:100F3000B0E089839A83AB83BC8350E040E060E0FB
:100F400070E0CB0196D99F838E8340EA56E861E03A
:100F500070E0488759876A877B87AFD91D83DF9107
:100F6000CF911F910895CF92EF920F931F93CF933C
:100F7000DF9300D0CDB7DEB7FB0125E029839A834C
:100F80008B83C12CE12C03E010E020E030E0AE01C7
:100F90004F5F5F4F60E470E0868197810DDA0F90BC
:100FA0000F900F90DF91CF911F910F91EF90CF9005
:100FB0000895FC018081811110C081E080838181CE
:100FC0009281A381B4810197A105B10531F4858196
:100FD000882319F0868197812ECA0895E091200414
:100FE000F09121048091040C9091050CA091060CC5
:100FF000B091070C80839183A283B38308952F92CD
:101000003F924F925F926F927F928F929F92AF9298
:10101000BF92CF92DF92EF92FF920F931F93CF93E5
:10102000DF9300D000D000D01F921F92CDB7DEB763
:1010300080916B0490916C048130910509F058C047
:101040006091450470914604809147049091480452
:101050006F5F7F4F8F4F9F4F0E9414322091490442
:1010600030914A0440914B0450914C040E946B33E0
:101070006093A4037093A5038093A6039093A703A2
:1010800080916504811149C060912402709125020C
:1010900080912602909127020E9451326B017C01BF
:1010A0000E94BF11811177C0C701B6010E947A1159
:1010B000811171C020E030E040E857E4C701B6017B
:1010C0000E946B326B017C0120E030E0A9010E949C
:1010D000773187FF63C0C701B60190580E94E8319D
:1010E00088279927861B970B69ED7BE03CDF15C0AD
:1010F000892B99F4E091D403F091D5030190F0810C
:10110000E02D80819181A281B381E0916E04F09104
:101110006F0480839183A283B383E0916E04F09186
:101120006F04C080D180E280F38060909E0B70904D
:101130009F0B8090A00B9090A10B1091A60B00919B
:10114000A70BB090A80BA090A90BA7019601B30123
:10115000C4010E946733212F302F4B2D5A2D87FD5C
:1011600023C0C701B6010E94773118160CF0A5C341
:10117000212F302F4B2D5A2DB301C4010E947731FE
:1011800087FD18C02091AA0B3091AB0B4091AC0B9E
:101190005091AD0B25C0C12CD12C7601C701B601F1
:1011A0000E94E831CB01A0CFB301C4010E94773186
:1011B00087FF0AC0212F302F4B2D5A2DC701B601B2
:1011C0000E9467331816F4F22091A20B3091A30B02
:1011D0004091A40B5091A50B162D072DB82CA92CCE
:1011E000609128027091290280912A0290912B022D
:1011F0000E9412312B013C01212F302F4B2D5A2DF3
:10120000C701B6010E9412319B01AC01C301B201BA
:101210000E947B312B013C0180916B0490916C0406
:10122000019709F073C08091650481116FC020910E
:1012300008023091090240910A0250910B0260911C
:1012400004027091050280910602909107020E94AB
:101250007B31209128023091290240912A0250913D
:101260002B020E946B336093F00B7093F10B809311
:10127000F20B9093F30B8090200290902102A090AB
:101280002202B0902302A50194016091710B70912C
:10129000720B8091730B9091740B0E9477318823AD
:1012A00041F08092710B9092720BA092730BB092EE
:1012B000740B8091700B81111092700BBE016F5FE7
:1012C0007F4F8091750B4FDA69817A818B819C8188
:1012D0000E94163220913002309131024091320248
:1012E000509133020E946B332091340230913502C9
:1012F00040913602509137020E946B336093F40B99
:101300007093F50B8093F60B9093F70B2090AE0B38
:101310003090AF0B8090B00B9090B10B1091B60B4A
:101320000091B70BB090B80BA090B90BA701960134
:10133000B101C4010E946733212F302F4B2D5A2D4C
:1013400087FDBFC2C701B6010E94773118160CF4A1
:1013500080C31092F80B1092F90B1092FA0B1092B6
:10136000FB0B2091F80B3091F90B4091FA0B509147
:10137000FB0B609128027091290280912A029091C2
:101380002B020E9412316B017C01C092FC0BD092A7
:10139000FD0BE092FE0BF092FF0B209108023091C2
:1013A000090240910A0250910B0260E070E080E86F
:1013B0009FE30E947B31A30192010E946B33209135
:1013C000F00B3091F10B4091F20B5091F30B0E9416
:1013D00013312091170C3091180C4091190C509139
:1013E0001A0C0E9413314B015C01209110023091C4
:1013F00011024091120250911302C701B6010E94DE
:101400006B339B01AC01C501B4010E9413316093A1
:10141000000C7093010C8093020C9093030C20E05D
:1014200030E04EE753E40E946B3320E030E040E4CC
:1014300051E40E947B316B017C0120E030E0A90186
:101440000E94673310E061E0181694F020E030E06D
:10145000A901C701B6010E947731E894F7F811E0BD
:1014600060E087FD05C010E060E0C12CD12C760162
:1014700085E00E942402612F87E00E94240264E03C
:1014800070E080E090E0C8D98C0190939D0B809330
:101490009C0B20E030E04FE753E4C701B6010E9407
:1014A0007731181634F4C12CD12C8FE7E82E83E461
:1014B000F82EB701A601C80178D900916B041091EC
:1014C0006C042091FC0B3091FD0B4091FE0B509170
:1014D000FF0B60910C0270910D0280910E029091B1
:1014E0000F020E946B336093040C7093050C809381
:1014F000060C9093070C0130110509F06FC0809124
:10150000660481116BC0C0901402D0901502E09067
:101510001602F0901702A70196016091660B709178
:10152000670B8091680B9091690B0E94773188233B
:1015300041F0C092660BD092670BE092680BF0927C
:10154000690B84E08F83C12CEE24E39401E010E06A
:1015500020E030E0AE01495F5F4F60E470E08091D1
:101560005C0B90915D0B0E94DC018F8320E030E0EA
:10157000811114C0CC24C394E12C02E010E020E0DF
:1015800030E0AE014B5F5F4F60E470E080915C0B38
:1015900090915D0B0E9472012E813D81A0913C02D1
:1015A000B0913D020E9427410E94163220E030E0B7
:1015B00040E056E30E946B332091380230913902AB
:1015C00040913A0250913B020E946B336093080CA9
:1015D0007093090C80930A0C90930B0C80916B0410
:1015E00090916C04019709F018C280919E0B909124
:1015F0009F0BA091A00BB091A10B88879987AA8718
:10160000BB87C090230CD090240CE090250CF09068
:10161000260C00916E0410916F04D8018D909D905E
:10162000AD90BC90A7019601688579858A859B85D8
:101630000E947731811189C180929E0B90929F0BFD
:10164000A092A00BB092A10BE2EAFBE080912802ED
:1016500090912902A0912A02B0912B02808391835C
:10166000A283B3838091AE0B9091AF0BA091B00B8E
:10167000B091B10B88879987AA87BB879C01AD0180
:10168000C701B6010E947731D8018D909D90AD9031
:10169000BC90811180C18092AE0B9092AF0BA09252
:1016A000B00BB092B10BE2EBFBE08091F40B9091A8
:1016B000F50BA091F60BB091F70B80839183A28379
:1016C000B383409145045091460460914704709162
:1016D000480490E080E086DB80916B0490916C047C
:1016E000019779F48091650481110BC040914D04FC
:1016F00050914E0460914F047091500481E090E04D
:1017000071DB80916B0490916C04019709F085C1A5
:1017100080916604811118C02091510430915204C7
:101720004091530450915404A4E6B0E00E94424119
:10173000AB01BC0182E090E055DB80916B0490919D
:101740006C04019709F069C14090A4035090A5036F
:101750006090A6037090A703E091A803F091A903FD
:1017600080809180A280B380E091D803F091D9036A
:1017700000811181E0919C03F0919D03E080F18054
:10178000E0919A03F0919B0311821082E091D203C1
:10179000F091D303F182E08221DCE091D403F09157
:1017A000D5030190F081E02D4082518262827382E4
:1017B000F7012081318142815381C501B4010E942A
:1017C0006B339B01AC01D8016D917D918D919C9102
:1017D0000E941331F8016083718382839383E091C7
:1017E0009A03F0919B0381E090E091838083409184
:1017F00045045091460460914704709148044F5F3E
:101800005F4F6F4F7F4F4093450450934604609362
:101810004704709348048091A4039091A503A0917C
:10182000A603B091A703E0916E04F0916F0480834A
:101830009183A283B38380914D0490914E04A09133
:101840004F04B09150040196A11DB11D80934D0429
:1018500090934E04A0934F04B093500420916B04D6
:1018600030916C048091660421303105B1F481110E
:1018700014C00091510410915204209153043091EE
:1018800054040F5F1F4F2F4F3F4F0093510410938D
:101890005204209353043093540490915904992393
:1018A00009F49FC0913009F4A0C091E020915B043D
:1018B000222309F497C090E095C0412C512C3201AD
:1018C000ABCCB101C4010E94773187FF0BC0212F3F
:1018D000302F4B2D5A2DC701B6010E9467331816C1
:1018E0000CF4C1C02091B20B3091B30B4091B40BFA
:1018F0005091B50B122D032DB82CA92C6091F40B2F
:101900007091F50B8091F60B9091F70B0E941231BC
:10191000688779878A879B87212F302F4B2D5A2DF7
:10192000C701B6010E9412319B01AC01688579851F
:101930008A859B850E947B316093F80B7093F90B2D
:101940008093FA0B9093FB0B0CCD4090A60B50901C
:10195000A70B6090A80B7090A90BA3019201C7017F
:10196000B6010E94773181110BC08092A60B909234
:10197000A70BA092A80BB092A90BEAEAFBE066CEF7
:10198000A3019201688579858A859B850E947731BC
:1019900087FFEBCF51CE4090B60B5090B70B6090C5
:1019A000B80B7090B90BA3019201C701B6010E9458
:1019B000773181110BC08092B60B9092B70BA09239
:1019C000B80BB092B90BEAEBFBE06FCEA30192012A
:1019D000688579858A859B850E94773187FFEBCF63
:1019E0005ACE91E090935A0402C010925A049091FA
:1019F0005A0424E0929FF0011124E45AFB4F4083E3
:101A000051836283738390935B049FEF90935A0496
:101A10008F5F8436D8F4809366042B960FB6F894C3
:101A2000DEBF0FBECDBFDF91CF911F910F91FF9011
:101A3000EF90DF90CF90BF90AF909F908F907F906E
:101A40006F905F904F903F902F9008951092660492
:101A5000E4CF212F302F4B2D5A2DB101C4010E940C
:101A6000773187FD34CF2091BA0B3091BB0B409179
:101A7000BC0B5091BD0B42CF4F925F926F927F9201
:101A80008F929F92AF92BF92CF92EF92FF920F935D
:101A90001F93CF9384E090E0F6D384E993E02BE6A4
:101AA00034E030939B0320939A032EE634E0309386
:101AB000D5032093D40329E434E03093A903209381
:101AC000A80320E234E03093D3032093D2032AE129
:101AD00034E03093D9032093D8032DE334E03093DE
:101AE000D7032093D6032FE334E03093DB03209316
:101AF000DA032CE134E03093DD032093DC032EE1A4
:101B000034E03093DF032093DE039093FF03809350
:101B1000FE03909399038093980381E090E0909363
:101B20006C0480936B0487E294E090932C04809380
:101B30002B0487E19CE090931B0480931A048BE2B2
:101B400094E090939D0380939C03109215048BE680
:101B500092E090939F0380939E0320E734E03093BC
:101B60006F0420936E0480E090E0A0E8BFEB8093C8
:101B7000670490936804A0936904B0936A048FE6A5
:101B800092E1A3E8BAE38093490490934A04A093B6
:101B90004B04B0934C0489E199EEA7E1B7EA809336
:101BA0002D0490932E04A0932F04B093300487E764
:101BB00099E0A7E6BAE58093310490933204A093AC
:101BC0003304B09334048AE996E0ABE6B7E080933F
:101BD000350490933604A0933704B093380487EA11
:101BE00091E9A7E9B2EA8093390490933A04A0936B
:101BF0003B04B0933C0488E893E090939703809370
:101C0000960382E793E0909389038093880380E7AB
:101C100092E0909373038093720390937503809383
:101C20007403909377038093760390937903809362
:101C3000780390937B0380937A0390937D03809342
:101C40007C0390937F0380937E0390938103809322
:101C50008003909383038093820390938503809302
:101C60008403909387038093860383E494E09093A6
:101C70008D0380938C038DE294E090938B0380938B
:101C80008A0330938F0320938E038FEF8093590440
:101C900080935A0410925B048091230C9091240C41
:101CA000A091250CB091260C80939E0B90939F0BD6
:101CB000A093A00BB093A10B8093A60B9093A70BBE
:101CC000A093A80BB093A90B40912C0250912D0228
:101CD00060912E0270912F024093170C5093180CB4
:101CE0006093190C70931A0C8093AE0B9093AF0B0A
:101CF000A093B00BB093B10B8093B60B9093B70B3E
:101D0000A093B80BB093B90B80E090E5A3ECB8E4D6
:101D10008093820B9093830BA093840BB093850BDD
:101D200010927D0B10927C0B1092760B10927B0B15
:101D3000812C912C540183948092770B9092780B94
:101D4000A092790BB0927A0B1092EF0B1092EE0BDF
:101D50001092EA0B1092EB0B1092EC0B1092ED0B21
:101D600050E040E060E070E0CB010E9439019093C8
:101D70007D0B80937C0B20EA422E26E8522E6624AF
:101D80006394712C40927E0B50927F0B6092800B7B
:101D90007092810B4092100C5092110C6092120CB8
:101DA0007092130C40EA56E861E070E00E945D0119
:101DB000C1E0C0937B0B88EC9BE0A5D889ED9BE04C
:101DC000A2D81092750B10926A0B8091200290910C
:101DD0002102A0912202B09123028093710B909373
:101DE000720BA093730BB093740B10926F0B8092D5
:101DF0006B0B90926C0BA0926D0BB0926E0B45E743
:101E00005BE063E082E00E94C702C0936F0B109218
:101E1000700B8091750B0E94C50310928E0B8092FF
:101E20008F0B9092900BA092910BB092920B61E06D
:101E300085E00E941C02C093930B1092860B809247
:101E4000870B9092880BA092890BB0928A0B61E06D
:101E500087E00E941C02C0938B0B1092960B10928D
:101E60009B0B8092970B9092980BA092990BB0923B
:101E70009A0BE12CF12C8701A801970164E070E036
:101E800080E090E00E94500490939D0B80939C0B07
:101E9000C0939B0B80E090E5A3ECB8E48093620BC9
:101EA0009093630BA093640BB093650B10925D0B42
:101EB00010925C0B1092560B8091140290911502B7
:101EC000A0911602B09117028093660B9093670B56
:101ED000A093680BB093690B10925B0B8092570B29
:101EE0009092580BA092590BB0925A0B1092EF0B94
:101EF0001092EE0B1092EA0B1092EB0B1092EC0B7F
:101F00001092ED0B50E040E060E070E0CB010E94E9
:101F1000390190935D0B80935C0B40925E0B509265
:101F20005F0B6092600B7092610B4092100C5092AC
:101F3000110C6092120C7092130C40EA56E861E0AA
:101F400070E00E945D01C0935B0B6091180270917C
:101F5000190280911A0290911B020E9451326093E3
:101F60000C0C70930D0C80930E0C90930F0C07D2F9
:101F7000882309F481C010920C0C10920D0C109261
:101F80000E0C10920F0C80900C0C90900D0CA090E9
:101F90000E0CB0900F0C20E030E0A901C501B40197
:101FA0000E94773187FF8AC0C501B40190580E9412
:101FB000E8317195619571091092140C7093150CAC
:101FC0006093160CC12CE12C03E010E020E030E01F
:101FD00044E15CE060E470E080917C0B90917D0BCB
:101FE0000E94DC0160911C0270911D0280911E0212
:101FF00090911F020E94513260930C0C70930D0C53
:1020000080930E0C90930F0CBAD1882309F45BC017
:1020100010920C0C10920D0C10920E0C10920F0CD2
:1020200080900C0C90900D0CA0900E0CB0900F0CAA
:1020300020E030E0A901C501B4010E94773187FF9B
:1020400064C0C501B40190580E94E83188279927DF
:10205000861B970B68EC7BE0CF911F910F91FF904F
:10206000EF90CF90BF90AF909F908F907F906F90A8
:102070005F904F900C94B30760910C0C70910D0C15
:1020800080910E0C90910F0C35D1811174CF60911D
:102090000C0C70910D0C80910E0C90910F0C20E0A7
:1020A00030E040E857E40E946B3260930C0C709370
:1020B0000D0C80930E0C90930F0C65CFC501B401ED
:1020C0000E94E83179CF60910C0C70910D0C8091D9
:1020D0000E0C90910F0C0ED181119ACF60910C0CC7
:1020E00070910D0C80910E0C90910F0C20E030E05F
:1020F00040E857E40E946B3260930C0C70930D0C17
:1021000080930E0C90930F0C8BCFC501B4010E94ED
:10211000E831CB019FCF89ED9BE00E94D9078091E8
:102120006A0B811114C081E080936A0B80916B0B64
:1021300090916C0BA0916D0BB0916E0B0197A10566
:10214000B10529F480916F0B81110E94D203809117
:102150008E0B811103C081E080938E0B8091860BE2
:10216000811103C081E08093860B8091960B8111D1
:102170002EC081E08093960B8091970B9091980BE5
:10218000A091990BB0919A0B0197A105B105F9F4B3
:1021900080919B0B8823D9F064E070E080E090E0B0
:1021A0000E940C0490939D0B80939C0B40E050E0A8
:1021B000BA010E94D50364E070E080E090E00E94E4
:1021C0000C0490939D0B80939C0B0E94A104809122
:1021D000560B811119C081E08093560B8091570BEB
:1021E0009091580BA091590BB0915A0B0197A105F2
:1021F000B10551F480915B0B882331F080915C0B29
:1022000090915D0B0E941B028091760B811119C089
:1022100081E08093760B8091770B9091780BA09161
:10222000790BB0917A0B0197A105B10551F480911A
:102230007B0B882331F080917C0B90917D0B0E9469
:102240001B0288EC9BE00C94D90760E070E080E80A
:102250009FE7089560E070E080E89FE7089560E000
:1022600070E080E89FEF089560E070E080E89FEF05
:10227000089560E070E080EC9FEF089560E070E00A
:1022800080EC9FEF0895F5DF6093270C7093280C86
:102290008093290C90932A0CF1DF60931B0C7093B0
:1022A0001C0C80931D0C90931E0CCFDF6093230CAD
:1022B0007093240C8093250C9093260CCBDF6093B5
:1022C0001F0C7093200C8093210C9093220CC7DF7D
:1022D00060932B0C70932C0C80932D0C90932E0CF0
:1022E000C3DF60932F0C7093300C8093310C90936C
:1022F000320C0895CF92DF92EF92FF92CF936B0151
:102300007C01AC019B016091230C7091240C8091A5
:10231000250C9091260C0E947731C1E0882371F042
:10232000A701960160912B0C70912C0C80912D0CC3
:1023300090912E0C0E9477318111C0E08C2FCF91AB
:10234000FF90EF90DF90CF9008950F931F938B0134
:102350009C010027112720783F770115110520489F
:102360003F4749F4AB01BC016F77772781E0452BEC
:10237000462B472B09F480E01F910F910895E5CF7C
:102380004F925F926F927F928F929F92AF92BF9285
:10239000CF92DF92EF92FF920F931F93F8944090A9
:1023A0008C0450908D0460908E0470908F04C090C7
:1023B0008004D0908104E0908204F0908304413046
:1023C000510509F0A4C09B01AC0124193509460947
:1023D000570929013A01009188041091890420913C
:1023E0008A0430918B0448015901840C951CA61C69
:1023F000B71C80169106A206B306A0F400918404CF
:102400001091850420918604309187040F5F1F4F3F
:102410002F4F3F4F0093840410938504209386042C
:10242000309387048092880490928904A0928A0451
:10243000B0928B040091840410918504209186044D
:10244000309187048092900490929104A09292041B
:10245000B0929304009394041093950420939604EF
:102460003093970460938C0470938D0480938E0452
:1024700090938F04A8EEB3E0A30192010E94424121
:102480006C0D7D1D8E1D9F1D6093800470938104D3
:10249000809382049093830400913E0210913F0246
:1024A00020914002309141020F3F1F4F2F4F3F4F6D
:1024B000F1F000913E0210913F02209140023091D4
:1024C00041020E3F1F4F2F4F3F4F89F0C0903E02F9
:1024D000D0903F02E0904002F090410221E08C1445
:1024E0009D04AE04BF0408F420E020939C0478947B
:1024F0001F910F91FF90EF90DF90CF90BF90AF9022
:102500009F908F907F906F905F904F9008954B01B8
:102510005C0184189508A608B708A3019201261B40
:10252000370B480B590B6415750586059705D0F0D8
:1025300082169306A406B50640F420E030E0A90117
:1025400081149104A104B10491F4A8EEB3E00E94B7
:102550004241A7019601261B370B480B590BCA01B4
:10256000B901C5CF82169306A406B50670F7A8EE8A
:10257000B3E0A50194010E9442416C0D7D1D8E1DAA
:102580009F1DB5CFFDCECF93DF9300D01F92CDB767
:10259000DEB71C821B821A82198210929804109254
:1025A000990410929A0410929B04BE016F5F7F4FB2
:1025B000CE0103960E945E2F69817A818B819C8176
:1025C0000E94B128009761F4BE016F5F7F4FCE017A
:1025D00003960E946A2F69817A818B819C812FD515
:1025E0000F900F900F900F90DF91CF910895FF9271
:1025F0000F931F93CF93DF93082F60E070E0CB0120
:102600000E94123BFF24F3940E949A27EC01892B2D
:1026100089F010E0CE3F8FEFD80769F0002361F119
:1026200060E070E0CB010E94123B81E090E0892BDA
:1026300059F322C011E026D5EC01892B21F0CE3FC1
:102640008FEFD80759F711111EC011E0229609F437
:1026500010E00E944A27EC01892B21F0CE3F8FEF3A
:10266000D807E1F6111111C011E0CE3F8FEFD80766
:1026700009F410E001110BC0CE01DF91CF911F9141
:102680000F91FF90089511E0E4CF11E0F3CF60E0E7
:1026900070E0CB010E94123B1F25812F90E0C7CF35
:1026A000CF93DF9380919C04882321F060E070E059
:1026B000CB014DD636D6D0E0C0E0892B71F06AE070
:1026C00070E080E090E00E94123B81E090DF29D62C
:1026D0002196C03D27E0D20781F728D60E94052920
:1026E0001092B4041092B3041092AD041092AE0490
:1026F0001092AF041092B0041092A9041092AA0490
:102700001092AB041092AC041092A5041092A6048F
:102710001092A7041092A8041092A1041092A2048F
:102720001092A3041092A40410929D0410929E048F
:1027300010929F041092A0044EEF5FEF6FEF7FEFB7
:1027400040933E0250933F026093400270934102D7
:1027500010929C04E0E9F4E028E0DF011D922A9544
:10276000E9F710928C0410928D0410928E0410924E
:102770008F04109288041092890410928A04109297
:102780008B04109284041092850410928604109297
:102790008704109280041092810410928204109297
:1027A0008304DF91CF9108951092C0041092C10468
:1027B0001092C2041092C3041092BF048091C80406
:1027C0009091C9049093BE048093BD041092BC0400
:1027D0001092BB041092B7041092B8041092B9047E
:1027E0001092BA041092C5041092C40490E080E0E4
:1027F0000895CF92DF92EF92FF920F931F93CF93A2
:102800008C01019709F055C02091C8043091C9048A
:102810008091BD049091BE044091C8045091C904B8
:102820005093BE044093BD042817390781F01092DD
:10283000BC041092BB041092B7041092B80410921A
:10284000B9041092BA041092C5041092C404809185
:10285000C8049091C904019761F58091C4049091D6
:10286000C504892B21F480914202811112C080910C
:10287000C4049091C5040197E1F48091B70490914C
:10288000B804A091B904B091BA040197A105B105AB
:1028900081F41092B7041092B8041092B904109207
:1028A000BA041092420282E090E09093C5048093B3
:1028B000C4048091C8049091C904019709F01CC117
:1028C0008091DE049091DF048017910709F014C114
:1028D0008091DA049091DB04A091DC04B091DD04D6
:1028E000009709F409C12091D90421110DC040912C
:1028F000DA045091DB046091DC047091DD04452B17
:10290000462B472B09F4F8C02091C4043091C5042C
:102910002230310509F0F0C02091BB042111ECC038
:10292000FC01C080D180E280F3808091BF048823C5
:1029300009F4D3C08091CB049091CC04892B09F485
:10294000FEC02091CB043091CC0481E022303105CF
:1029500009F080E02091CB043091CC04C1E021301B
:10296000310549F02091CB043091CC04C1E02230F4
:10297000310509F0C0E0882309F456C02091D50440
:102980003091D6044091D7045091D804C701B601C4
:102990000E94673387FD14C02091D5043091D6047E
:1029A0004091D7045091D8046091C0047091C10443
:1029B0008091C2049091C3040E94773187FD22C0A8
:1029C0002091D5043091D6044091D7045091D80479
:1029D000C701B6010E946733181634F52091D5045B
:1029E0003091D6044091D7045091D8046091C0042E
:1029F0007091C1048091C2049091C3040E94773108
:102A0000811112C08091CD049091CE04A091CF0489
:102A1000B091D004892B8A2B8B2B19F481E0809301
:102A2000BC0481E08093BB04CC2309F456C0209100
:102A3000D5043091D6044091D7045091D804C701F1
:102A4000B6010E94773187FF14C02091D5043091E0
:102A5000D6044091D7045091D8046091C00470917D
:102A6000C1048091C2049091C3040E94673387FF20
:102A700022C02091D5043091D6044091D7045091C2
:102A8000D804C701B6010E947731811126C0209178
:102A9000D5043091D6044091D7045091D804609168
:102AA000C0047091C1048091C2049091C3040E943B
:102AB0006733181694F48091CD049091CE04A091C0
:102AC000CF04B091D004892B8A2B8B2B19F481E091
:102AD0008093BC0481E08093BB0481E09091BB04AF
:102AE000911180E08093BF04C092C004D092C104D1
:102AF000E092C204F092C3040130110509F067C1ED
:102B00008091C4049091C504892BD9F41092CA0411
:102B10001092BB0480914202882379F082E090E019
:102B20009093C5048093C404109242022091C8047B
:102B30003091C90481E0232BE9F080E01BC081E0E3
:102B400009CF109242028091CA04882349F0109262
:102B5000BC041092C5041092C4041092CA04EDCFB4
:102B60008091C8049091C904892BE1F08091BB0445
:102B70001092BB042091C4043091C5042230310569
:102B800009F45EC088F42115310509F448C02130EC
:102B9000310509F4F3C01092BC041092BB041092EA
:102BA000CA0438C081E0E6CF2330310509F4B1C052
:102BB0002430310581F74091B7045091B8046091F9
:102BC000B9047091BA04411551056105710561F0B0
:102BD00041505109610971094093B7045093B804F9
:102BE0006093B9047093BA044091B7045091B8044B
:102BF0006091B9047091BA04452B462B472BD9F448
:102C00002091C6043091C7042130310509F046C037
:102C10001092BC041092C5041092C4040CC08091A0
:102C20004202882341F082E090E09093C5048093B3
:102C3000C404109242021092B5048091BC04CEC02C
:102C40008823C9F38091CD049091CE04A091CF0444
:102C5000B091D004181619061A061B060CF07DC098
:102C60008091C8049091C904019709F076C08091C1
:102C7000CD049091CE04A091CF04B091D004809364
:102C8000B7049093B804A093B904B093BA0483E056
:102C900090E09093C5048093C404CDCF4091D104BB
:102CA0005091D2046091D3047091D404452B462BEB
:102CB000472BA9F01092BC048091D1049091D204CA
:102CC000A091D304B091D4048093B7049093B80436
:102CD000A093B904B093BA0481E090E0DACF8823DE
:102CE00099F08091430290914402A0914502B091E5
:102CF00046028093B7049093B804A093B904B093AC
:102D0000BA0484E090E0C5CF1092BC0482E090E069
:102D1000C0CF8091B7049091B804A091B904B0914C
:102D2000BA040097A105B10559F00197A109B109AD
:102D30008093B7049093B804A093B904B093BA04F5
:102D40008091B7049091B804A091B904B091BA04ED
:102D5000892B8A2B8B2B09F06ECF809143029091A7
:102D60004402A0914502B0914602892B8A2B8B2BFD
:102D700009F44ECF81E08093BC04B3CF4091B704F7
:102D80005091B8046091B9047091BA04411551058D
:102D90006105710561F04150510961097109409364
:102DA000B7045093B8046093B9047093BA04409187
:102DB000B7045091B8046091B9047091BA04452BDE
:102DC000462B472B09F037CF8111C7CF9FCF80917A
:102DD000B504882309F431CF8091B604CF911F91B7
:102DE0000F91FF90EF90DF90CF9008951092C00464
:102DF0001092C1041092C2041092C3041092BF0436
:102E00001092C5041092C4041092BE041092BD0426
:102E10001092DF041092DE041092BC041092BB04E6
:102E20001092B7041092B8041092B9041092BA0428
:102E30001092B6041092B5041092DA041092DB04DA
:102E40001092DC041092DD041092D9041092D50483
:102E50001092D6041092D7041092D80488EE93E012
:102E6000A0E0B0E08093430290934402A093450217
:102E7000B09346021092D1041092D2041092D3045F
:102E80001092D4041092CD041092CE041092CF046C
:102E90001092D0041092CC041092CB0481E0809365
:102EA00042021092CA041092C9041092C8041092EF
:102EB000C7041092C60490E080E008958091C80491
:102EC0009091C904892B19F580914202882351F011
:102ED0008091CA04811106C081E08093B60480937A
:102EE000B50408952091CA043091420281E090E037
:102EF000332311F090E080E030E082239323892B8C
:102F000021F01092B60481E0EACF1092B504089542
:102F100082E090E0FA01918380838FEF9FEF089524
:102F2000CF93DF93EA01009711F00E942F2A1982B4
:102F3000188290E080E0DF91CF910895DB01009747
:102F400019F48FEF8C9308952EEF2C93FC013F968C
:102F5000EF30F10508F034C08827EE54F84E8F4F5B
:102F60000C941F41DE17DC17DA17D817D617D217C3
:102F7000D417D017CE17CC17C917C517C117C71745
:102F8000E01780E311968C93089589E2FBCF82E2EB
:102F9000F9CF11961C92089583E2F4CF81E2F2CF2B
:102FA00081E1F0CF87E2EECF8AE2ECCF80E1EACF99
:102FB00084E2E8CF88E2E6CF86E2E4CF81E3E2CFA5
:102FC00080E2E0CF8091EC049091ED04089590931D
:102FD000ED048093EC0408958091EB0408959091A2
:102FE000EB04892B8093EB040895982F90958091A2
:102FF000EB0489238093EB0408958091EA040895FB
:103000008091E8049091E90408956115710559F0E3
:10301000FB0130E020E070E060E02417350719F094
:103020006115710511F0CB010895A081B181A81738
:10303000B90709F4BF012F5F3F4F3696EECF80915D
:10304000EE0481111CC060D266D29093E10480939B
:10305000E0040E9432220E9444229093E50480936F
:10306000E4040E94B2260E94B9269093E304809360
:10307000E20481E08093EE0490E080E0089584EF24
:103080009FEF08958F929F92AF92BF92CF92DF925F
:10309000EF92FF920F931F93CF93DF9300D000D056
:1030A00000D01F92CDB7DEB71A86198618861F8208
:1030B0001E821D821C821B821A8219828091EE045C
:1030C00007EF1FEF882309F49CC08E010D5F1F4F8F
:1030D0009E012B5F3F4FAE01495F5F4FBE01675FAF
:1030E0007F4F90E080E00E9436288C01009721F00D
:1030F0000596029708F0DBC029853A852115310530
:1031000009F402C1ED80FE804B815C81B701640F40
:10311000751F8F8198858617970708F4F5C0E20E12
:10312000F31ED7019C91903C09F07FC042305105BD
:1031300008F47BC011968C914091EC045091ED0401
:10314000452B09F49CC0913F08F071C02CE1290F78
:103150002D3008F48BC02DE2290F203108F489C0EE
:10316000903C21F48150823008F483C088E3890FB9
:103170008B3008F481C09EE9C92E97E1D92EE8E88A
:10318000F7E16D817E81AE014F5F5F4F89859A8542
:1031900019955C01C114D104A1F189809A80811430
:1031A000910479F18B819C818815990508F487C079
:1031B00010E000E04B815C8170E060E0C7010E949C
:1031C000554101151105E9F449815A8169857A85CE
:1031D0008D819E81680F791FC501F6011995E980DF
:1031E000FA800D811E812F81388549855A856FEFC0
:1031F0007FEF81E090E00E94D1278C01892B09F0BC
:1032000056C0C8012A960FB6F894DEBF0FBECDBFD8
:10321000DF91CF911F910F91FF90EF90DF90CF90B2
:10322000BF90AF909F908F90089580E085CF30E061
:1032300020E0220F331FF901E052FB4F0190F08193
:10324000E02D309709F497CF892F90E019950097DA
:1032500009F491CFDC011296ED91FC91139714962D
:10326000CD90DC90309709F08CCF1FC021E030E08A
:10327000E0CF22E030E0DDCF23E030E0DACFD12C28
:10328000C12CE0E9F7E19F3F09F07BCFE091E0043A
:10329000F091E104309721F4C90104EF1FEF0CC055
:1032A0008FEF90E019950097A9F604EF1FEF89853D
:1032B0009A85009709F4A5CF0E942F2AA2CF0E94D9
:1032C00000298C0189859A850E942F2A70E060E090
:1032D000C4010E94992898878F830E94CE279E83DD
:1032E0008D836F8178856115710559F0C8010E9441
:1032F000922B9A87898706EF1FEF892B09F058CF09
:1033000059CF08EF1FEF56CF08EF1FEFD0CF209116
:10331000EE04222319F020E00C94492287EF9FEF5E
:1033200008958091EC049091ED0408950E94BE26CA
:103330000E941826F5D0E0EEF4E088E0DF011D924F
:103340008A95E9F71092EE0490E080E008950C94DD
:10335000772421E040E050E0BA010C94492286E055
:1033600090E0FA019183808390E080E0089547E047
:1033700050E063E772E049CEDF92EF92FF920F9345
:103380001F93CF93DF938A01EC01C60FD71FE09004
:10339000F204F090F304D9800E94E828D8161906A8
:1033A00078F082E090E0F801918380838EEF9FEFC8
:1033B000DF91CF911F910F91FF90EF90DF900895D3
:1033C000EF2841F482E090E0F8019183808384EF5C
:1033D0009FEFEECF89818093F10490E00196F80190
:1033E0009183808390E080E0E3CFCF93DF93EA0185
:1033F0000E942825882321F00E94F5280E94292573
:1034000082E090E0998388838BEF9FEFDF91CF91EB
:103410000895CF93DF93EB0186E0FB0111928A952B
:10342000E9F78FEF8883D8DD8983E7DD8A83E8DDDC
:103430009D838C83DF91CF910895CF93DF93EA0131
:103440000E942B25811109C082E090E09983888336
:1034500085EF9FEFDF91CF91089590E080E0B7DD99
:1034600081E090E09983888390E080E0F3CF0F9330
:103470001F93CF93DF93EA018C01060F171F0E9461
:103480002B2581110BC082E090E09983888385EF22
:103490009FEFDF91CF911F910F910895F8018181E6
:1034A000823038F082E090E0998388838EEF9FEF3E
:1034B000F0CF81E090E08BDD88E090E09983888315
:1034C00090E080E0E6CFCF93DF930097D1F4EB015B
:1034D000FB01329686E0DF011D928A95E9F78FEFB6
:1034E000888385E089831A820E94E8288B830E9462
:1034F000E7289D838C8381E08E838F83DF91CF913A
:103500000895DF91CF911ACD87EB99E19093F00464
:103510008093EF0408958091EF049091F004089552
:103520001092F0041092EF0408958091F2049091AB
:10353000F3040895411105C06115710581059105D8
:1035400061F06093F2047093F3048093F404909319
:10355000F5044093F60481E0089580E00895FF9219
:103560000F931F93CF93DF938A01EC01C60FD71FF0
:10357000F9800E94E828F816190668F082E090E0C9
:10358000F801918380838EEF9FEFDF91CF911F91A0
:103590000F91FF9008956C817D818E819F814B8179
:1035A000C9DF811108C082E090E0F8019183808337
:1035B00084EF9FEFEACF89818093F10490E0019638
:1035C000F8019183808390E080E0DFCFCF93DF9399
:1035D000EA01FC01E60FF71F6481758186819781FE
:1035E0004381A8DF811109C082E090E0998388833C
:1035F00084EF9FEFDF91CF91089581E090E0998370
:10360000888390E080E0F6CFE2EFF4E040815181E2
:1036100062817381480F511D611D711D408351836B
:10362000628373830895CF93C091F1044C2F50E0CF
:103630006091F2047091F30401960E944C418C2F2A
:10364000E3DF1092F104CF910895009799F48091EF
:10365000F2049091F3042FEFFB012083892B59F0A2
:103660002091F10430E02F5F3F4F2417350719F404
:10367000CB01D9CF63CC0895009799F48091F204DF
:103680009091F3042FEFFB012083892B59F02091B7
:10369000F10430E02F5F3F4F2417350719F4CB01B9
:1036A000C2CF4CCC089523E1AC01249FC001259FDB
:1036B000900D1124E091FB04F091FC04E80FF91F38
:1036C000238134812250310981E02230310508F014
:1036D00080E008950F931F93CF93DF930091FD0433
:1036E0001091FE04D0E0C0E080E00C171D0749F403
:1036F00091E0811190E0892FDF91CF911F910F917F
:1037000008958111F5CFCE01CEDF2196EECFA091A5
:10371000FB04B091FC04109729F12091FD04309135
:10372000FE0482179307F0F453E1589F9001599FCC
:10373000300D1124A20FB31FED91FC91119730971A
:1037400089F012968C91681768F48BE0689FE00D01
:10375000F11D112480819181892B21F081E09281DA
:10376000491708F080E008959C0143E1429FC001A1
:10377000439F900D1124E091FB04F091FC04E80FAD
:10378000F91F8385823099F481E090E0658176812C
:1037900040914702509148026417750711F490E078
:1037A00080E0892B21F081E02330310508F080E0B2
:1037B0000895EF92FF920F931F93CF93DF93EA0147
:1037C000FC01E60FF71F02811381E480F5804F2D85
:1037D0006E2DC8019CDF81110DC082E090E09983BD
:1037E00088838EEF9FEFDF91CF911F910F91FF9014
:1037F000EF900895C80157DF882339F082E090E008
:103800009983888388EF9FEFEECF10934E02009349
:103810004D02E0924F02F092500281E090E09983D5
:10382000888390E080E0DFCFCF92DF92EF92FF922B
:103830000F931F93CF93DF937A01EC01C60FD71F2D
:10384000C0904D02D0904E0200914F021091500254
:10385000412F602FC6015BDF811110C082E090E034
:10386000F701918380838AEF9FEFDF91CF911F91C2
:103870000F91FF90EF90DF90CF900895C60113DF76
:10388000882341F082E090E0F7019183808388EF04
:103890009FEFEBCF4C815D816E817F819A81898121
:1038A0008F3F41F082E090E0F701918380838EEFBB
:1038B0009FEFDBCFE3E1EC9D9001ED9D300D1124F6
:1038C000E091FB04F091FC04E20FF31F0190F08102
:1038D000E02D2BE0029FE00DF11D11240190F081FD
:1038E000E02D27E0129FE00DF11D112480839183CC
:1038F0008B81828343835483658376831F5F109318
:10390000500281E090E0F7019183808390E080E0B5
:10391000ACCFEF92FF920F931F93CF93DF937A0177
:103920008C01060F171FC091FB04D091FC04209757
:1039300081F021E030E0F801828193814091FD0423
:103940005091FE048417950710F030E020E0232BFF
:1039500071F482E090E0F701918380838EEF9FEF16
:10396000DF91CF911F910F91FF90EF90089543E168
:10397000489F9001499F300D1124C20FD31F93DE41
:10398000882341F082E090E0F7019183808388EF03
:103990009FEFE6CFF8012481358120383105C8F644
:1039A00087818111D6CF4181842F90E08F7E00974F
:1039B00041F082E090E0F7019183808386EF9FEFF2
:1039C000CFCF4F833E832D832681288719862230CF
:1039D00010F421E0288721E030E0F70131832083D3
:1039E000BFCF88E090E0FA019183808390E080E08F
:1039F0000895FB018FEF808381E181838FEF9FEF3B
:103A00009383828380E890E0958384831682178273
:103A10000895FB018FEF808391E0918382839383EC
:103A2000848384E3858381E090E09783868308958F
:103A3000BF92CF92DF92EF92FF920F931F93CF939B
:103A4000DF93DA01FC01E60FF71F8181813081F0FD
:103A500082E090E08D939C938FEF9FEFDF91CF9169
:103A60001F910F91FF90EF90DF90CF90BF9008953E
:103A7000C281D381B480858106811781E090FB04E7
:103A8000F090FC04E114F10439F482E090E08D93AD
:103A90009C938CEF9FEFE2CF2091FD043091FE04C8
:103AA000C217D30738F082E090E08D939C938EEF9D
:103AB0009FEFD4CFC330D10538F082E090E08D93F2
:103AC0009C9386EF9FEFCACF9B2D9D7FB1F78130EE
:103AD000A1F7B11005C00130110531F080E004C03C
:103AE00081E002301105D0F3882339F36D01CE0156
:103AF000DADD882341F082E090E0F6019183808353
:103B000088EF9FEFABCF83E18C9FF0018D9FF00D8D
:103B10001124EE0DFF1DB38681E08487168705878B
:103B2000108A178681E090E0F6019183808390E00F
:103B300080E094CF4CE050E06DE972E066CA8F926D
:103B40009F92BF92CF92DF92EF92FF920F931F93BB
:103B5000CF93DF93EA01FC01E60FF71F8281938187
:103B60000481B580E091FB04F091FC04309791F45E
:103B700082E090E0998388838CEF9FEFDF91CF9173
:103B80001F910F91FF90EF90DF90CF90BF909F908B
:103B90008F9008952091FD043091FE0482179307C1
:103BA00038F082E090E0998388838EEF9FEFE6CF34
:103BB00023E1289F6001299FD00C1124EC0DFD1DED
:103BC000E080F180E114F10499F28281081748F74E
:103BD0008BE0089F80011124E00EF11EF701808127
:103BE0009181892B29F6BB20E1F2F7E0BF9E4001CD
:103BF0001124C4010E94E029F70191838083E091A0
:103C0000FB04F091FC04EC0DFD1D0190F081E02D12
:103C1000E00FF11F80819181009739F482E090E0FC
:103C2000998388838DEF9FEFA9CFA40170E060E0B6
:103C30000E9455418091FB049091FC04C80ED91E4E
:103C4000F60180819181080F191FF801B28281E08D
:103C500090E09983888390E080E090CFAF92BF920C
:103C6000CF92DF92FF920F931F93CF93DF93EA01DE
:103C7000FC01E60FF71F82819381F4800091FB0421
:103C80001091FC040115110581F482E090E0998304
:103C900088838CEF9FEFDF91CF911F910F91FF9061
:103CA000DF90CF90BF90AF9008952091FD043091A8
:103CB000FE048217930738F082E090E099838883AE
:103CC0008EEF9FEFE8CF2FEF2F0D2C3FA8F723E1CA
:103CD000289F6001299FD00C11240C0D1D1DF80197
:103CE00080819181892B89F6FBE0FF9E5001112490
:103CF000C5010E94E029F80191838083E091FB04D3
:103D0000F091FC04EC0DFD1D80819181009739F448
:103D100082E090E0998388838DEF9FEFBCCFA5016F
:103D200070E060E00E945541E091FB04F091FC04DA
:103D3000EC0DFD1DF28281E090E09983888390E094
:103D400080E0A9CFCF92DF92EF92FF920F931F9363
:103D5000CF93DF93860F971FFC010281138180911F
:103D6000FB049091FC04892B81F082E090E0FA0141
:103D7000918380838CEF9FEFDF91CF911F910F9103
:103D8000FF90EF90DF90CF900895C801B0E0A0E0E1
:103D90000197A109B1098F3F9F4FA105B10540F0DF
:103DA00082E090E0FA01918380838EEF9FEFE4CF71
:103DB0007A0183E1809F6001819FD00C1124C601AC
:103DC0000E94E029EC01009741F482E090E0F701C5
:103DD000918380838DEF9FEFCFCFA60170E060E0ED
:103DE0000E945541D093FC04C093FB041093FE0441
:103DF0000093FD0490E080E02FEF3FEF41E061E0B1
:103E000070E08017910741F481E090E0F701918321
:103E1000808390E080E0B0CF3A8B298B1B864C8763
:103E20007E876D87188A1F8601966396EACFCF92A8
:103E3000DF92EF92FF920F931F93CF93DF93EC01EA
:103E4000D12CC12C10E000E0F12CE12C6A8160172C
:103E5000110609F0CCF483E0689FB0011124AE0193
:103E60004F5E5F4FC7010E945B2A009721F02FEF42
:103E70003FEF3A8B298BDF91CF911F910F91FF90EC
:103E8000EF90DF90CF900895E881F981EC0DFD1D52
:103E9000438154818D859E85489F9001499F300DB7
:103EA000589F300D1124C90101960115110519F40F
:103EB0004F8144FD049661E070E00E949928E81665
:103EC000F90608F47C010F5F1F4F8BE0C80ED11C70
:103ED000BDCFF8942091F9043091FA0481E02115C6
:103EE000310509F080E0232B09F0789408952F9292
:103EF0003F924F925F926F927F928F929F92AF927A
:103F0000BF92CF92DF92EF92FF920F931F93CF93C6
:103F1000DF933C01660E771EF301828193814C0191
:103F2000B12CA12CC091FB04D091FC04209769F026
:103F300021E030E06091FD047091FE048617970740
:103F400010F030E020E0232BD1F482E090E0FA0181
:103F5000918380838EEF9FEFDF91CF911F910F911F
:103F6000FF90EF90DF90CF90BF90AF909F908F9099
:103F70007F906F905F904F903F902F900895809228
:103F8000510290925202A0925302B092540263E105
:103F9000689F9001699F300D1124C20FD31FF30158
:103FA0008181833040F082E090E0FA019183808348
:103FB00086EF9FEFD1CF2A012B813C81232BF1F497
:103FC000288139819F8191FF2EC0232B09F46FC076
:103FD000209100059A81422F490F5527551FBA019C
:103FE00041E050E06138710514F050E040E0452BAD
:103FF00009F45DC02A87920F9093000581508230AA
:1040000008F481C066DF882309F4D8C0F3018181F8
:10401000813009F48DC008F47BC0823009F4C6C039
:1040200090E080E0ADC0232B09F441C02091FF0453
:104030009A81E22FE90FFF27FF1F41E050E0ED3F9B
:10404000F10514F050E040E0452B89F12A87920FEA
:104050009093FF04D3CFA081B181A20FB31F11961B
:104060006C91060F111D0196295F3F4F841795072C
:1040700094F38D859E85089F1001099F300C189F31
:10408000300C1124C114D104D1F48F8184FF17C0E6
:104090000E94E728F5E02F0E311C21E082159305E0
:1040A00008F420E0A701455F5F4F21110EC082E0B8
:1040B00090E0F2019183808387EF9FEF4DCF0E94C4
:1040C000E7282FEF221A320AE8CF88819981E80E7B
:1040D000F91EF70114830383FFEFCF1ADF0A7A0179
:1040E0008A818C151D0409F00CF48CCFE881F981CC
:1040F000EE0DFF1D428150E030E020E010E000E0D6
:1041000090E080E0B3CFF12CE12CD12CC12CE8CF92
:1041100081E090E09C838B83DDDA882309F480CFF3
:1041200081E090E00E94E71780E40E94F51778CFC5
:1041300089899A89019661F083E090E09C838B8362
:1041400082E090E00E94E71780E40E94EF1768CFBA
:104150002D813E81809147029091480228173907AE
:10416000D1F460914B0270914C02AE014F5E5F4FF3
:104170008091490290914A020E94512B0097E1F2EE
:10418000789422E030E0F20131832083892B99F08A
:104190008DEF9FEFE1CE23E082169104A104B104DC
:1041A0005CF6CE0144DE188A1F86E8CF82E090E0FC
:1041B0009C838B8335CF90E080E0CECE82E090E090
:1041C000F2019183808385EF9FEFC6CE8F929F92FD
:1041D000AF92BF92CF92DF92EF92FF920F931F9315
:1041E000CF93DF93EA018C01060F171FF80181813D
:1041F000833098F082E090E09983888386EF9FEF88
:10420000DF91CF911F910F91FF90EF90DF90CF90B2
:10421000BF90AF909F908F9008958091FB049091F4
:10422000FC04892B61F081E090E02091FD04309145
:10423000FE04232B11F490E080E0892B39F482E016
:1042400090E0998388838EEF9FEFDACF42DE882358
:1042500009F4DEC0F8018181813009F494C0E8F0EE
:10426000823099F42091FD043091FE04E091FB042A
:10427000F091FC0490E080E041E050E0281739071D
:1042800009F0BCC027DA811117C0789481E090E072
:104290009983888390E080E0B3CF2091FD04309132
:1042A000FE04E091FB04F091FC0490E080E041E02A
:1042B00050E02817390741F481E090E00E94E717A9
:1042C00080E40E94F517E1CF63817481672B11F0C0
:1042D0005483438301967396ECCFE091FB04F091F5
:1042E000FC04E00FF11F2381348122303105D9F421
:1042F000218932892F3F3F4FB1F44581568120916A
:104300004702309148024217530761F5AF014F5EF3
:104310005F4F60914B0270914C02809149029091E5
:104320004A020E94512B4FEFC41AD40AE40AF40A3D
:104330000D5E1F4F4091FD045091FE0470E060E05F
:10434000C416D506E606F70634F5009731F27894E0
:10435000892B09F49BCF82E090E0998388838DEFCD
:104360009FEF4ECF23E0C216D104E104F104DCF646
:10437000CF015DDDE091FB04F091FC04E00FF11F43
:10438000108A1786D0CF10E000E090E080E0C12CCA
:10439000D12C7601CFCF0097D1F610E000E0812C30
:1043A000912C540183E0E82EF12C1AC0E091FB041B
:1043B000F091FC04E00FF11F83819481029749F48E
:1043C000F482E38282E090E00E94E71780E40E949A
:1043D000EF178FEF881A980AA80AB80A0D5E1F4FC8
:1043E0008091FD049091FE04B0E0A0E0881699064B
:1043F000AA06BB06DCF290E080E0A9CF638174815D
:104400006230710511F4548343830196739636CF5D
:1044100082E090E09983888385EF9FEFF1CE00974B
:10442000B9F48FEFFB018083209151023091520249
:1044300043E1429FC001439F900D1124E091FB0492
:10444000F091FC04E80FF91F8285FB018183089538
:104450000C949E1788E090E0FA019183808390E0AD
:1044600080E008951092FA041092F904EBEFF4E062
:1044700086E0DF011D928A95E9F78AE99DE1909334
:10448000F8048093F70408958091F7049091F8045C
:1044900008952F923F924F925F926F927F928F92E8
:1044A0009F92AF92BF92CF92DF92EF92FF920F93C3
:1044B0001F93CF93DF93CDB7DEB760970FB6F89415
:1044C000DEBF0FBECDBFF894E091F904F091FA047D
:1044D0003196F093FA04E093F9047894A091FB04E8
:1044E000B091FC04BA83A983109709F4FAC1E09152
:1044F000FD04F091FE04EF2B09F4F3C128874B87EC
:104500005C876D877E879A878987B88BAF87312CC8
:10451000212CF12C512C412C8091FD049091FE0412
:104520002816390610F4FF2029F1F8948091F90437
:104530009091FA0401979093FA048093F904789487
:10454000C20160960FB6F894DEBF0FBECDBFDF91FB
:10455000CF911F910F91FF90EF90DF90CF90BF9080
:10456000AF909F908F907F906F905F904F903F9013
:104570002F900895B10190E080E087D4682EEF85F8
:10458000F889878181FD3DC0838194810397C9F5B6
:10459000258136813C832B8389859A8528173907A5
:1045A00081F5C101E1D8782E8823A9F1AF85B889BA
:1045B0001F968D919C915097019621E01D964D91EB
:1045C0005C918417950709F020E02F83B12CA12C72
:1045D000EF85F88982818A151B0419F014F0FF20F9
:1045E000E9F0F885FF2309F46CC1AF85B8895096CE
:1045F0001C921E921F97662021F0B10190E080E08E
:1046000046D4FFEF2F1A3F0A2F8538892D5E3F4F82
:10461000388B2F8781CFB1E0BF83D8CFBFD49E83A3
:104620008D83E885EE23E9F0772009F43CC1AF855E
:10463000B8891F968D919C91892B79F0BBE0BA9D2A
:10464000C001BB9D900D1124AF85B889ED91FC91FF
:10465000E80FF91F8581968102D7BFEFAB1ABB0A1D
:10466000B7CF81E0772039F0EF85F8892785308949
:10467000232B09F080E0F82EE12CA114B10439F4C9
:10468000AF85B8891796EC90E4FAEE24E0F8BBE029
:10469000BA9D6001BB9DD00C1124882309F424C16C
:1046A000AF85B889ED91FC911197EC0DFD1D43810B
:1046B00054811D962D913C91429FC001439F900DC6
:1046C000529F900D1124E1105DC001969087878361
:1046D00061E070E0878190852CD5EF85F88921898C
:1046E0003289008111810C0D1D1D2F3F320709F405
:1046F0004BC0BC01C9010E94922BD80116969C9315
:104700008E931597AF85B889ED91FC911197EC0DBB
:10471000FD1D058116810115110509F4CDC0ED813E
:10472000FE810E0F1F1F1A968C918A0DD8018C9353
:10473000E1102FC00F5F1F4FAF85B889ED91FC913D
:10474000EC0DFD1D12870187AF85B889ED91FC91B5
:10475000EC0DFD1D85819681892B09F4A4C0809103
:104760004702909148022B813C812817390709F4B0
:1047700065C0772011F001851285912C812C1A8259
:1047800019824AC00596A2CF1BD6F801968385836D
:10479000B9CF8B859C85AD85BE85F80181839283D9
:1047A000A383B4830B5F1F4FC7CFE080F180E80C79
:1047B000F91CD70113966D917C9114978C918F3FC2
:1047C00009F473C0E1E0F0E002C0EE0FFF1F8A952C
:1047D000E2F7CF01092E000CAA0BBB0BFB014081B5
:1047E00051816281738184239523A623B72321E01D
:1047F000892B8A2B8B2B09F420E0D8012C93D7012D
:1048000011968C91080F111DE981FA813196FA8376
:10481000E983F7E08F0E911CAF85B889ED91FC918B
:10482000EC0DFD1D828129813A818217130611F05A
:104830000CF0BBCF772011F0128701873F81332323
:1048400091F1AF85B889ED91FC91EC0DFD1D61E012
:1048500070E0878190856DD4AF85B889ED91FC912A
:10486000EC0DFD1DE780F08445815681E1E0F0E02C
:10487000662011F0F0E0E0E00D811E819C01B101A5
:10488000882799278E1B9F0B8CD32C01892B59F0DD
:10489000EF85F88980819181C80ED91ED6011596C1
:1048A0008D919C91DCD5F12CD8CEF701418150E05F
:1048B000C8010E944C41A3CF86EF482E55245A943C
:1048C000CCCEEF85F889878590890196908B878774
:1048D000258536858217930709F08DCE108A1786B5
:1048E0008ACE512C412C21CE10E000E02DCF2F920A
:1048F0003F924F925F926F927F928F929F92AF9270
:10490000BF92CF92DF92EF92FF920F931F93CF93BC
:10491000DF938091FB049091FC0410E000E0892B70
:10492000A9F0D7DA0AEF1FEF882381F02090FD0469
:104930003090FE04C091FB04D091FC04D12CC12C1A
:1049400010E000E02C143D04A9F47894C801DF9134
:10495000CF911F910F91FF90EF90DF90CF90BF907C
:10496000AF909F908F907F906F905F904F903F900F
:104970002F900895C6010E94B41B882309F18B81F2
:104980009C810397E9F48F859889892BC9F0B6013A
:1049900090E080E07AD221E030E0882311F030E02E
:1049A00020E044245524421A530AB12CA12C912C06
:1049B000812C8A818815190409F038F4188A1F8619
:1049C0004FEFC41AD40A6396BDCFE881F981EA0D8E
:1049D000FB1D85819681892BA1F161E070E08781C3
:1049E0009085A7D33C01DAD28C01E881F981EA0DE8
:1049F000FB1D8185928525813681200F311FAC01F9
:104A0000421B530B9A0147815085421B530B70E0A8
:104A100060E00E945541E881F981EA0DFB1DE780C5
:104A2000F084458156819301B601C201BAD28C014E
:104A3000892B39F0E881F981EA0DFB1D858196818A
:104A40000ED55FEF851A950A8BE0A80EB11CB1CF89
:104A500040CA789408952F923F924F925F926F923E
:104A60007F929F92AF92BF92CF92DF92EF92FF928E
:104A70000F931F93CF93DF9300D000D0CDB7DEB755
:104A80000091FB041091FC049924939401151105E5
:104A900009F43EC0A090FD04B090FE041ADA982EEE
:104AA0008823B1F11092FC041092FB041092FE04D2
:104AB0001092FD041092FF04109200058FEF9FEFFB
:104AC000DC018093510290935202A0935302B09361
:104AD000540278947ED31E830D83C12CD12C760191
:104AE000C501B0E0A0E089839A83AB83BC83222414
:104AF0002A94322C89819A81AB81BC81C816D9064F
:104B0000EA06FB06F4F0C801AAD480E40E94F51777
:104B1000892D26960FB6F894DEBF0FBECDBFDF916C
:104B2000CF911F910F91FF90EF90DF90CF90BF90AA
:104B3000AF909F907F906F905F904F903F902F909D
:104B40000895AD81BE8115962D913C911697809167
:104B500047029091480228173907D1F451968D9158
:104B60009C91CED5ED81FE8180819181B12CA12CCB
:104B7000412C512C3201892B81F5BFEFCB1ADB0A76
:104B8000EB0AFB0AED81FE817396FE83ED83B2CFC3
:104B9000B3E0CB16D104E104F10424F7ED81FE81EA
:104BA000818992898F3F980709F021D5AD81BE8117
:104BB00052963C922E925197D5CF8A0D9B1DDC01C7
:104BC0008D919C91009709F04AD4BFEF4B1A5B0A74
:104BD0006B0A7B0AEBE0AE0EB11CAD81BE818D91FC
:104BE0009C91119712964C9150E070E060E0441651
:104BF0005506660677060CF332D4BFCFCF93DF930A
:104C0000EA0129DF811109C082E090E0998388835D
:104C100085EF9FEFDF91CF91089581E090E00E94B2
:104C2000E71781E090E09983888390E080E0F2CFFD
:104C300012DF1092F8041092F704089542E050E059
:104C400065EE72E00C940518FF920F931F93CF93BB
:104C5000DF938A01EC01C60FD71FF980B9D20897FC
:104C6000F816190671F068F082E090E0F80191837F
:104C700080838EEF9FEFDF91CF911F910F91FF9077
:104C800008956C817D818E819F814B810E949A1A4B
:104C9000811108C082E090E0F8019183808384EF65
:104CA0009FEFE9CFF9800E94951A4F2D50E0BE0189
:104CB000685F7F4F0E944C4189810E94041B81E004
:104CC00090E0F8019183808390E080E0D4CFDF9280
:104CD000EF92FF920F931F93CF93DF938A01EC0122
:104CE000C60FD71F0E94951A7C01D98071D2DD2092
:104CF00059F0029721E030E0D816190619F010F0AB
:104D000030E020E0232B79F482E090E0F8019183F9
:104D100080838EEF9FEFDF91CF911F910F91FF90D6
:104D2000EF90DF900895EF2841F482E090E0F801E1
:104D30009183808384EF9FEFEECFF9800E94951AD4
:104D40004F2D50E0BE016E5F7F4F0E944C41898124
:104D50000E94041B81E090E0F8019183808390E041
:104D600080E0D9CF8EE196E2909302058093010511
:104D70000895809101059091020508950895FC0120
:104D800011821082938382830895DB011D921C920D
:104D9000DC011296ED91FC91139771836083139659
:104DA0007C936E9312970895FC0180819181DB01C1
:104DB0008D939C93A081B181109741F08D919C912E
:104DC00091838083892B11F4F383E2830895FC019E
:104DD00080819181DB018D939C93892B11F47383E6
:104DE0006283718360830895FC0111821082938332
:104DF00082830895CF93DF931F921F92CDB7DEB7C2
:104E00001A821982F894BE016F5F7F4F88E095E0A7
:104E1000CBDF89819A81009709F021D389819A811A
:104E2000892B89F7BE016F5F7F4F8CE095E0BCDF77
:104E300089819A81009709F012D389819A81892BFF
:104E400089F778940F900F90DF91CF910895CF93C9
:104E5000DF931F921F92CDB7DEB71A821982F894A2
:104E6000BE016F5F7F4F84E095E09EDF89819A816C
:104E7000009709F0F4D289819A81892B89F7789477
:104E80000F900F90DF91CF91089581E0089590E009
:104E900080E00895EF92FF920F931F93CF93DF93DB
:104EA0001F921F92CDB7DEB71A8219828091030537
:104EB00007EF1FEF8823A1F1F894BE016F5F7F4FCA
:104EC0008CE095E071DF789489819A81EE24E394F7
:104ED000F12C892B51F4F894BE016F5F7F4F88E06D
:104EE00095E062DF7894F12CE12C89819A810EEFB4
:104EF0001FEF0097A9F0FC014281538164E070E04C
:104F000011D68C01892B61F0F89469817A81C701EF
:104F1000880F991F880F991F885F9A4F58DF7894E0
:104F2000C8010F900F90DF91CF911F910F91FF90CB
:104F3000EF9008950F931F93CF93DF9300D01F92AC
:104F4000CDB7DEB71C821B821A82198280910305BD
:104F500007EF1FEF8823C1F0AE014D5F5F4F64E0A4
:104F600070E0CE01019651D68C01892B69F4E9815C
:104F7000FA818B819C8193838283F89469817A8101
:104F800084E095E002DF7894C8010F900F900F90B5
:104F90000F90DF91CF911F910F91089556D70496EE
:104FA00008958F929F92AF92BF92CF92DF92EF922D
:104FB000FF920F931F93CF93DF931F921F92CDB752
:104FC000DEB71A821982BC016F5F7F4F63307105B3
:104FD00098F0AA24AA94BA2CC5010F900F90DF91E3
:104FE000CF911F910F91FF90EF90DF90CF90BF90E6
:104FF000AF909F908F9008954115510551F348014E
:1050000059018A016C01CADF8815990511F7E1146D
:10501000F104F9F28E0D9F1DA816B906D0F2809109
:1050200003058823F1F0F894B501645071099701E4
:10503000AE014F5F5F4FC80104967CD65C01892B9F
:1050400071F489819A81F80193838283C601880F64
:10505000991F880F991FB801885F9A4F96DE789440
:10506000BBCF87EFA82EBB24BA94B6CFAF92BF9226
:10507000CF92DF92EF92FF920F931F93CF93DF9324
:105080001F921F92CDB7DEB71A821982892B09F0C1
:1050900047C06115710509F443C04115510509F474
:1050A0003FC02115310509F43BC001151105C1F1BF
:1050B000809103058823B9F179016A015B01F894B5
:1050C000BE016F5F7F4F84E095E06EDE789489814A
:1050D0009A81009759F1DC0112966D917C91A8019B
:1050E000049641D68C01E981FA81D501ED93FC93B8
:1050F000828193810496F601918380834FDFD701EB
:105100008D939C93C8010F900F90DF91CF911F91C9
:105110000F91FF90EF90DF90CF90BF90AF900895E8
:105120000FEF1FEFEFCF07EF1FEFECCF0EEF1FEFEB
:10513000E9CFCF93DF93EC01672B71F48FD68C17F7
:105140009D0760F082D62496C80FD91F81D68C0F98
:105150009D1FDF91CF9108957ED6F1CF90E080E042
:10516000F8CF0F931F93CF93DF9320910305211165
:105170002BC08B01EC0188E095E001DE8CE095E02E
:10518000FEDD84E095E0FBDD97D00097C1F466D6A4
:1051900070E060E0CEDF45E552E062E070E08BD188
:1051A000009769F4809155029091560269D6B80132
:1051B000CE019ED4009719F421E020930305DF91DE
:1051C000CF911F910F91089584EF9FEFF8CF43C6C1
:1051D00045C6CF93DF9345D6EC01892B11F40ADE47
:1051E00036DECE01DF91CF910895CF93DF9339D68C
:1051F000EC01892B09F4FEDDCE01DF91CF910895FA
:1052000080915502909156020895CF93DF9380913B
:105210000305D0E0C0E08823D1F037D6EC01892B1C
:10522000B1F4E8DD14DE8091550290915602DFD191
:10523000C9D2EC01892B59F488E095E0D5DD8CE0EA
:1052400095E0D2DD84E095E0CFDD10920305CE013C
:10525000DF91CF910895EF92FF920F931F93CF9319
:10526000DF93EC017A018B010F5F1F4F0E9DA001B0
:105270000F9D500D1E9D500D112470E060E00E94A6
:10528000554190E080E0F0E0E0E02FEFE816F9060D
:1052900039F4DF91CF911F910F91FF90EF90089516
:1052A0001A8219822883309711F0D283C183019624
:1052B000FE01C00FD11FEACFAF92BF92CF92DF9213
:1052C000EF92FF920F931F93CF93DF938CEC96E0B6
:1052D0007C012CEFE22281EFC82E82E0D82E97EFDE
:1052E000A92E92E0B92EC5EBD7E08E01D6014D91E3
:1052F0005D916D01F501619171915F01D801119688
:10530000FC92EE9215965C934E93149713965C93D1
:105310004E93129717967C936E9316979B012F5F6F
:105320003F4F249FC001259F900D349F900D112465
:1053300019969C938E931897E114F10411F0C7010C
:105340008ADFF80180859185E80EF91E065F1F4F00
:10535000F7EFCF16F2E0DF0649F6E2E1F5E087EB82
:1053600091E0DF019C011D9221503040E1F7109245
:105370001105109210058DED97E01F8E1E8E1BA259
:105380001AA219A218A21DA21CA21FA21EA22A962E
:105390008C179D0791F71092B2071092B1071092E7
:1053A000B4071092B30790E080E0DF91CF911F9196
:1053B0000F91FF90EF90DF90CF90BF90AF90089546
:1053C0000097A1F1F8948132910550F48091B707CC
:1053D0009091B807892B39F020E090E080E019C067
:1053E0008133910550F48091C1079091C207892BB8
:1053F00039F021E081E090E00CC081349105A8F4FF
:105400008091CB079091CC07892B79F022E082E044
:1054100090E0EAE0E89FD001E99FB00D1124AB5481
:10542000B84F8D919C91009721F4789490E080E0A2
:105430000895E29FF0011124EB54F84FDC0111961E
:105440004D915C9151834083428153814150510978
:1054500053834283FC012193CF01789408950097F0
:1054600049F1DC018E91873041F4E091B307F0916E
:10547000B4073097F9F0CD0119948730D8F4282F6C
:1054800030E0F8948FEF8C938AE0829FF001839F45
:10549000F00D1124EB54F84F8081918112969C936A
:1054A0008E931197B183A083828193810196938318
:1054B000828378940895CF92DF92EF92FF920F93B8
:1054C0001F93CF93DF939C0185E195E08C7F41157D
:1054D000510509F489C02115310509F485C061150C
:1054E000710509F481C08A01AB01B9016D5F7F4F7D
:1054F0006C7F9B012F5F3F4F249F7001259FF00C15
:10550000349FF00C1124F894E5EBF7E023E030E051
:10551000E901A6A1B7A1C68CD78CCD2809F058C047
:10552000109709F03EC0C0901005D090110524EBF3
:1055300031E02C193D092E153F0530F47894CFEF5A
:10554000DFEF86EF9FEF21C02AE02C9FF0012D9F17
:10555000F00D1124EB54F84F9183808355834483DD
:105560005383428377836683F186E086009709F050
:1055700072DEEC0CFD1CF0921105E092100578949F
:10558000CF3FDC07F1F290E080E0F801D183C083E7
:10559000DF91CF911F910F91FF90EF90DF90CF900F
:1055A0000895AE15BF05A0F02AE02C9FF0012D9FB5
:1055B000F00D1124EB54F84F91838083558344837D
:1055C00053834283778366830097C9F244DED7CF43
:1055D0008A0F9B1F2F5F3F4F3A962730310509F006
:1055E00097CFCFEFDFEFCBCF8FEF9FEFD1CF9C01E6
:1055F0000397049708F052C0F89486E09AE0482F89
:1056000050E024173507BCF191E08AE0829FF00159
:10561000839FF00D1124EB54F84F118210821582F4
:1056200014821382128217821682992301F18091CB
:10563000100590911105E5EBF7E024AD35AD232B76
:1056400069F4DF01AC5BBF4F2D913C91119721159F
:10565000310521F0821B930B1D921C923A9727E093
:10566000ED38F20751F79093110580931005789467
:1056700090E080E00895949FF001959FF00D112433
:10568000EB54F84F40815181452B31F440855185D1
:10569000452B11F48150B3CF90E0B7CF8FEF9FEF40
:1056A00008954115510549F1009739F161157105CA
:1056B00021F1F8942091B1073091B207232BB9F46E
:1056C0002091B3073091B407232B89F49093B2074C
:1056D0008093B1077093B4076093B307789427E081
:1056E00030E090E080E0FA013183208308957894DF
:1056F0002FEF3FEF86EF9FEFF6CF8FEF9FEF0895ED
:10570000079769F4F8941092B2071092B1071092BB
:10571000B4071092B307789490E080E008958FEF7B
:105720009FEF08956115710519F4F0E0E0E011C0F4
:105730008730910581F4E091B107F091B20730977D
:10574000A1F3CB0101961995009779F3FC0187E04D
:105750008193CF0108959C012350310924303105F4
:1057600020F72AE0289FD001299FB00D1124AB54C7
:10577000B84F2D913C911197232BB9F216962D918C
:105780003C9117972617370780F2F89412962D91BF
:105790003C9113972115310529F0ED91FC9111975A
:1057A000309711F47894C1CF4181528111965C9366
:1057B0004E932150310913963C932E931297819367
:1057C0007894C7CFE9ECF6E088EEDF011D928A9568
:1057D000E9F7E2E1F5E087EB91E0DF019C011D9242
:1057E00021503040E1F71092110510921005E5EBC1
:1057F000F7E086E4DF011D928A95E9F7E1EBF7E037
:1058000084E0DF011D928A95E9F790E080E0089539
:10581000CF93DF93C0915702D0915802CF3FDC075E
:1058200059F4E1D3909358028093570297FF09C02F
:10583000D0935802C093570284EF9FEFDF91CF912E
:10584000089590E080E0FACF8230910528F48093AB
:10585000FB0790E080E008958FEF9FEF08954F924F
:105860005F926F927F92AF92BF92CF92DF92EF9250
:10587000FF920F931F93CF93DF931F921F92CDB789
:10588000DEB71A821982009709F479C06115710593
:1058900009F475C0209157023091580207EF1FEFAD
:1058A0002F3F3F4F09F445C06B015C01412C512C47
:1058B0003201F12CE12C10E000E09E012F5F3F4F00
:1058C000A6014E195F09B5016E0D7F1D809157022B
:1058D00090915802ECD3892B09F04BC089819A81B1
:1058E000009741F4E114F10429F42091FB072223ED
:1058F00009F442C0E80EF91EEC14FD04D0F480E86F
:10590000481684E858068EE16806710420F560E0C8
:1059100070E0CB010E94123B2AE0420E511C611C38
:10592000711C0A3F4FEF140721F0043F8FEF180757
:10593000A1F4C8010F900F90DF91CF911F910F91AB
:10594000FF90EF90DF90CF90BF90AF907F906F90DF
:105950005F904F90089501EF1FEF81E090E0013FCD
:105960002FEF120711F090E080E0892B09F4A5CF0A
:10597000E0CF04EF1FEFDDCF0AEF1FEFDACF0FEF1D
:105980001FEFD7CF4F925F926F927F92AF92BF92ED
:10599000CF92DF92EF92FF920F931F93CF93DF93FB
:1059A0001F921F92CDB7DEB71A821982009709F4B1
:1059B00079C06115710509F475C0209157023091C5
:1059C000580207EF1FEF2F3F3F4F09F445C06B010F
:1059D0005C01412C512C3201F12CE12C10E000E053
:1059E0009E012F5F3F4FA6014E195F09B5016E0D55
:1059F0007F1D80915702909158020CD3892B09F09A
:105A00004BC089819A81009741F4E114F10429F493
:105A10002091FB07222309F442C0E80EF91EEC1482
:105A2000FD04D0F480E8481686E9580688E968063F
:105A3000710420F560E070E0CB010E94123B2AE087
:105A4000420E511C611C711C0E3F4FEF140721F0D8
:105A5000043F8FEF1807A1F4C8010F900F90DF915A
:105A6000CF911F910F91FF90EF90DF90CF90BF905B
:105A7000AF907F906F905F904F90089502EF1FEF6F
:105A800081E090E0023F2FEF120711F090E080E0FC
:105A9000892B09F4A5CFE0CF04EF1FEFDDCF0EEF88
:105AA0001FEFDACF0FEF1FEFD7CF80915702909102
:105AB00058028F3F980749F08DD2892B49F48FEF18
:105AC0009FEF909358028093570290E080E00895F2
:105AD00084EF9FEF0895FC01680F791F90E080E04C
