:1000000015C100000C9465420C9490420C94BB42C4
:100010000C94E6420C9411430C943C430C946743BB
:100020000C94924334C1000032C1000030C1000082
:100030002EC100002CC100002AC1000028C1000010
:1000400026C1000024C1000022C1000020C1000020
:100050001EC100001CC100001AC100000C94BD4369
:1000600016C100000C94B9470C94EF4710C1000072
:100070000EC100000CC100000AC1000008C1000050
:1000800006C1000004C1000002C1000000C1000060
:100090000C9445480C947B48FAC000000C94C9406D
:1000A000F6C00000F4C00000F2C00000F0C0000084
:1000B000EEC00000ECC00000EAC00000E8C0000094
:1000C000E6C00000E4C000000C9432380C94D14823
:1000D0000C940749DCC000000C945D490C949349D2
:1000E000D6C0000005A84CCDB2D44EB93836A9020E
:1000F0000C50B9918688083CA6AAAA2ABE00000026
:10010000803F00000A0B02090C0D0E0807030401D2
:1001100000000000000000000000000000000000DF
:1001200000000000000000000000000000001211AC
:1001300010000000000000000000000000000000AF
:10014000000000000000000001021020200808103C
:100150002040102040800201020108040201010237
:100160000408102040808040201008040201800410
:10017000020180402010080402010804020101026B
:10018000040810204080010204081020408005056A
:100190000505070508080808020202020A0A0808FD
:1001A000040404040101010101010101030303032B
:1001B00003030303040707070C0C0C0C0C0C0C0CBA
:1001C0000202020206060606060606060B0B0B0BCB
:1001D0000B0B0B0B000020002300260029002C0035
:1001E0002F00320000010000030106010901000098
:1001F0002200250028002B002E00310034000201CF
:100200000000050108010B01000021002400270067
:100210002A002D0030003300010100000401070115
:100220000A01343E1848A4483049BC4911241FBE75
:10023000CFEFD1E2DEBFCDBF00E00CBF13E0A0E006
:10024000B2E0E0EFF4E900E00BBF02C007900D92CE
:10025000A63DB107D9F72EE0A6EDB3E001C01D928F
:10026000A83CB207E1F711E0C6E1D1E000E006C02A
:1002700021970109802FFE010E94394AC131D1071F
:1002800080E00807A9F70E9425390C94764AB8CE79
:10029000CF92DF92EF92FF926B017C01C114D104E7
:1002A000E104F10469F480910002811109C0809198
:1002B0000202909103020E94A53D81E0809300021A
:1002C000C601880F991F880F991F80509E4FFF907D
:1002D000EF90DF90CF900895009781F0FC0121818D
:1002E000211104C040EA56E861E070E0FC0182811F
:1002F00093810E94B43D90E080E0089588E090E012
:1003000008954F925F926F927F928F929F92AF92D9
:10031000BF92CF92DF92EF92FF920F931F93CF93F2
:10032000DF930097C9F1280139017A01EC01402FD0
:100330008A819B810E94323E8A819B81DC01ED9102
:10034000FC910084F185E02D1995892B01F167015D
:10035000812C912C54018A819B81DC01ED91FC91CF
:100360000084F185E02D1995892B91F18414950471
:10037000A604B70469F18A819B81DC01ED91FC91AF
:100380000284F385E02D19958F3F9807C1F484E02E
:10039000F70111928A95E9F788E090E0DF91CF911B
:1003A0001F910F91FF90EF90DF90CF90BF90AF9093
:1003B0009F908F907F906F905F904F900895FFEF88
:1003C0008F1A9F0AAF0ABF0AD6018D936D01C3CF62
:1003D00090E080E0E3CF8F929F92AF92BF92CF9256
:1003E000DF92EF920F931F93CF93DF930097F1F07B
:1003F0006A01EC018A819B810E94B73D8A819B81C1
:10040000DC01ED91FC910280F381E02DA801B601A1
:1004100019958A819B8160E0E11001C061E00E9432
:10042000C13D882389F08250823088F088E090E0D6
:10043000DF91CF911F910F91EF90DF90CF90BF9000
:10044000AF909F908F90089590E080E0F1CF84E08E
:1004500090E0EECF0895611102C00C94FE4561302A
:10046000E1F362E0FACF662319F061E00C943A46BA
:1004700060E0FCCFCF93DF93EC0170E060E06C179D
:100480007D070CF5072E000C880B990B0E94BB3AD8
:1004900020E030E0A9010E94B83920E030E0A90155
:1004A0000E94B83920E030E040E450E40E94B839BE
:1004B00020E030E040E450E40E94B7390E94883ADE
:1004C0006F5F7F4FDCCFDF91CF9108950F931F9324
:1004D000CF93DF93EC018C810E9467468C018C8561
:1004E0009D85C8DF88850E946746488159816A8159
:1004F0007B81019781F40130110579F44F5F5F4FE3
:100500006F4F7F4F488359836A837B83DF91CF91FD
:100510001F910F910895012B89F3415051096109F1
:100520007109F0CF87ED93E0D1CF87EE93E0CECF86
:1005300087EF93E0CBCF87E094E0C8CF0F931F9372
:10054000CF93DF93EC0188850E9467468C018C85F0
:100550009D8590DF8C810E946746488159816A8120
:100560007B81019779F4012B81F44F5F5F4F6F4FCF
:100570007F4F488359836A837B83DF91CF911F919B
:100580000F9108950130110581F34150510961091E
:100590007109EFCF87ED93E0D1CF87EE93E0CECF17
:1005A00087EF93E0CBCF87E094E0C8CF0F931F9302
:1005B000CF93DF93D82FC62F8A01E091D60380E135
:1005C000E89FF0011124E952FC4F8D2F90E0B0E03C
:1005D000A0E084839583A683B783862F90E0B0E064
:1005E000A0E080879187A287B38710821182128250
:1005F000138281E090E0A0E0B0E084879587A68731
:10060000B78760E08D2F0E94FE4560E08C2F0E942E
:10061000FE458091D603813009F43FC0A8F08230B6
:1006200009F462C0833009F486C08091D60391E05A
:10063000980F9093D603F801808390E080E0DF91DB
:10064000CF911F910F91089580E0D23049F081E061
:10065000D33031F08EEE8D0F8430D8F487E18D1BCE
:1006600041E050E06AEC72E00E94EB4180E0C23071
:1006700049F081E0C33031F08EEE8C0F843058F4B5
:1006800087E18C1B41E050E062E972E00E94EB419F
:10069000CCCF8FEFE5CF8FEFF5CF80E0D23049F0B0
:1006A00081E0D33031F08EEE8D0F8430C8F487E1D5
:1006B0008D1B41E050E06DEC72E00E94EB4180E068
:1006C000C23049F081E0C33031F08EEE8C0F8430BF
:1006D00048F487E18C1B41E050E065E972E0D6CF39
:1006E0008FEFE7CF8FEFF7CF80E0D23049F081E096
:1006F000D33031F08EEE8D0F8430C8F487E18D1B3E
:1007000041E050E060ED72E00E94EB4180E0C230D9
:1007100049F081E0C33031F08EEE8C0F843048F424
:1007200087E18C1B41E050E068E972E0AFCF8FEFCA
:10073000E7CF8FEFF7CF80E0D23049F081E0D330C0
:1007400031F08EEE8D0F8430C8F487E18D1B41E0CF
:1007500050E063ED72E00E94EB4180E0C23049F06E
:1007600081E0C33031F08EEE8C0F843048F487E1A5
:100770008C1B41E050E06BE972E088CF8FEFE7CF50
:100780008FEFF7CF90E1899FF0011124E952FC4FE0
:1007900080819181A281B381FB0180839183A283B7
:1007A000B38390E080E0089590E1899FF0011124E7
:1007B000E952FC4F108211821282138290E080E095
:1007C000089590E080E00895CF92DF92EF92FF923B
:1007D000CF93882351F16A017B01CFEFC80F20E04E
:1007E00030E0A901CB01B6010E941C3A87FF11C07D
:1007F000C701B60190580E948D3A9B01AC016C2F45
:1008000070E090E080E0CF91FF90EF90DF90CF908C
:10081000B2C0C701B6010E94883A8C2FCF91FF90D9
:10082000EF90DF90CF900C94C444CF91FF90EF9065
:10083000DF90CF9008950F931F938B019C0183E06D
:1008400036952795179507958A95D1F7095E1B4F21
:10085000462F477021E030E0F90102C0EE0FFF1F84
:100860004A95E2F7AF01F80120812423CB010196DC
:10087000211102C090E080E01F910F9108950F9325
:100880001F938B019C0183E036952795179507955B
:100890008A95D1F7677081E090E001C0880F6A9572
:1008A000EAF7F801E95EFB4F2081452B31F4809592
:1008B000822380831F910F910895822BFACF2F926C
:1008C0003F924F925F926F927F928F929F92AF92E0
:1008D000BF92CF92DF92EF92FF920F931F93CF932D
:1008E000DF93D62EC72E782E692E49015A01280192
:1008F00061E08D2D0E94FE45CD2DDC2D8E010F5F18
:100900001F4FA8016D2D7C2D872D962DB8DF20E07F
:1009100030E0A901C201B7010E940C3C181664F432
:10092000C201B7010E948D3A2B01C501B4010E949A
:100930008D3AA201CE0123D0C801DF91CF911F9142
:100940000F91FF90EF90DF90CF90BF90AF909F906E
:100950008F907F906F905F904F903F902F90089571
:10096000882341F08150682F70E090E080E050E0F3
:1009700040E085CF0895862FB9010C94C4449C01B2
:10098000FC01EE5FFE4FE491E150E231E0F4F0E073
:100990008827E253FB4F8F4F0C94394AE004E70459
:1009A000EA0401051605E3042B0537053B0552054E
:1009B00067057C059305A805E304BD05D405E90595
:1009C00084B5806884BD60E0822F0C943A4684B57B
:1009D0008062F8CF809180008C7F8260809380005D
:1009E00080918100807E8061682B609381005093AC
:1009F000870040938600809180008068809380000B
:100A0000E2CF809180008C7F826080938000809113
:100A10008100807E8061682B609381005093870005
:100A200040938600809180008062E8CF80918000B2
:100A30008C7F82608093800080918100807E8061C5
:100A4000682B6093810050938700409386008091CB
:100A500080008860D3CF8091B00080688093B00020
:100A60008091B100887F682B6093B100ACCF8091FA
:100A7000B0008062F3CF809190008C7F8260809381
:100A8000900080919100807E8061682B609391003E
:100A900050939700409396008091900080688093D7
:100AA000900091CF809190008C7F82608093900025
:100AB00080919100807E8061682B609391005093BB
:100AC000970040939600809190008062E8CF8091DB
:100AD00090008C7F82608093900080919100807E56
:100AE0008061682B6093910050939700409396002B
:100AF000809190008860D3CF8091A0008C7F82602D
:100B00008093A0008091A100807E8061682B60931B
:100B1000A1005093A7004093A6008091A000806898
:100B20008093A00050CF8091A0008C7F8260809342
:100B3000A0008091A100807E8061682B6093A1005D
:100B40005093A7004093A6008091A0008062E8CF58
:100B50008091A0008C7F82608093A0008091A10092
:100B6000807E8061682B6093A1005093A700409322
:100B7000A6008091A0008860D3CF809120018C7F57
:100B800082608093200180912101807E8061682BAA
:100B90006093210150932701409326018091200109
:100BA0008068809320010FCF809120018C7F82602C
:100BB0008093200180912101807E8061682B609369
:100BC00021015093270140932601809120018062EA
:100BD000E8CF809120018C7F8260809320018091FA
:100BE0002101807E8061682B609321015093270151
:100BF00040932601809120018860D3CF90E080E06F
:100C000008950F931F93009709F489C0611571052A
:100C100009F485C00091A2021091A3022091A402C0
:100C20003091A5020E3F1F4F2F4F3F4F09F068C074
:100C30004FEF5FEFBA014093A2025093A30260937B
:100C4000A4027093A5024091A2025091A302609168
:100C5000A4027091A502DC011296ED91FC918081B5
:100C60009181A281B3818093450590934605A0931D
:100C70004705B093480584819581A681B78180930B
:100C8000410590934205A0934305B09344058085A8
:100C90009185A285B38580933D0590933E05A093F1
:100CA0003F05B093400584859585A685B7858093DB
:100CB000390590933A05A0933B05B0933C051092FB
:100CC00035051092360510923705109238050E94AE
:100CD0007A1C8FE99CE190932104809320049093E7
:100CE0002304809322040E94691B009731F421E0C1
:100CF00030E030934A05209349051F910F910895E4
:100D00000091A2021091A3022091A4023091A502A9
:100D1000DB010D931D932D933C93139794CF8FEF8D
:100D20009FEFEBCF8F929F92AF92BF92CF92DF92C5
:100D3000EF92FF921F93CF93DF934B015C011091D1
:100D40004C0582E090E090934A0580934905811418
:100D50009104A104B10441F480914C05811104C0B7
:100D600080914B05C1E08111C0E0C12CD12C7601EE
:100D700080914C05811106C080914B05811102C004
:100D8000CC23D9F083E090E090934A058093490505
:100D9000CC2381F1CCE9DFEF111102C00E940420C5
:100DA000CE01DF91CF911F91FF90EF90DF90CF9018
:100DB000BF90AF909F908F9008956AE070E080E0C0
:100DC00090E00E942C4480E1C80E87E2D81EE11C0E
:100DD000F11C8FEF88169806A806B80631F0C1E01E
:100DE0008C149D04AE04BF0408F0C0E080E00E94B3
:100DF0009D1BBECFD0E0C0E0CFCFCF92DF92EF926D
:100E0000FF920F931F93CF93DF938F3F910511F0C4
:100E100008F051C02091490530914A052330310531
:100E200039F02091490530914A052130310531F4DE
:100E300024E030E030934A05209349056A017B01A4
:100E4000EC0182309105A8F011E0AE01C701B601B6
:100E50000E94681BAB01BC01CE011123F9F0DF91A8
:100E6000CF911F910F91FF90EF90DF90CF900C9456
:100E70002D228C01000F111F005E1B4FD8018D9198
:100E80009C91892B09F30E9437220297E9F6D80139
:100E9000ED91FC91CE011995182FD7CF0E944F22CA
:100EA00090E080E0DF91CF911F910F91FF90EF9044
:100EB000DF90CF9008958FEF9FEFF4CF80E00C94F8
:100EC0009D1BCF93DF9386E090E090934A0580933B
:100ED00049050E94F61BEC01E0E2F4E084E0DF014A
:100EE0001D928A95E9F70E949C1F10924A05109264
:100EF0004905CE01DF91CF91089580914B0508956A
:100F00008091340508956093A2027093A3028093A8
:100F1000A4029093A50290E080E008951F93CF93E0
:100F2000DF93EC0180E090E5A3ECB8E48C879D872B
:100F3000AE87BF871F821E82188211E0188B1D8228
:100F400081E090E0A0E0B0E089839A83AB83BC832A
:100F500050E040E060E070E0CB019AD99F838E833F
:100F600040EA56E861E070E0488759876A877B87E6
:100F7000B3D91D83DF91CF911F910895CF92EF9246
:100F80000F931F93CF93DF9300D0CDB7DEB7FB0154
:100F900025E029839A838B83C12CE12C03E010E0A8
:100FA00020E030E0AE014F5F5F4F60E470E086818B
:100FB000978111DA0F900F900F90DF91CF911F91D1
:100FC0000F91EF90CF900895FC018081811110C0A6
:100FD00081E0808381819281A381B4810197A10501
:100FE000B10531F48581882319F08681978132CA51
:100FF00008952F923F924F925F926F927F928F92BD
:101000009F92AF92BF92CF92DF92EF92FF920F9397
:101010001F93CF93DF93CDB7DEB7ED970FB6F8945C
:10102000DEBF0FBECDBF8091F50C8150823010F431
:101030000C94271480E08093F50CC0901402D0909B
:101040001502E0901602F0901702A7019601609138
:10105000360C7091370C8091380C9091390C0E94AD
:101060001C3A882341F0C092360CD092370CE092A3
:10107000380CF092390C8091350C81111092350C9E
:10108000BE01675F7F4F80913A0C7CDB69857A8572
:101090008B859C850E94BB3A209184023091850209
:1010A00040918602509187020E94103C688B798B98
:1010B0008A8B9B8B6093570E7093580E8093590EBA
:1010C00090935A0E00910A0510910B05D801CD900E
:1010D000DD90ED90FC90C0926B0ED0926C0EE09281
:1010E0006D0EF0926E0E8090CB0C9090CC0CA09078
:1010F000CD0CB090CE0CA5019401C701B6010E94A1
:101100001C3A181614F40C942A142091D30C309124
:10111000D40C4091D50C5091D60CC701B6010E9459
:101120001C3A181614F40C942A1410925F0E1092A4
:10113000600E1092610E1092620EF80120813181D2
:10114000428153816091900270919102809192024C
:10115000909193020E94103C20919402309195024C
:1011600040919602509197020E94B8390E94733CB8
:10117000209188023091890240918A0250918B021D
:101180000E94103C20918C0230918D0240918E0281
:1011900050918F020E94B8396093630E7093640E71
:1011A0008093650E9093660E6091A30C7091A40CD1
:1011B0008091A50C9091A60C60936F0E7093700EA9
:1011C0008093710E9093720E0E94651A81111FC058
:1011D000C0906F0ED090700EE090710EF090720E75
:1011E00020E030E0A901C701B6010E941C3A87FD4A
:1011F00002C00C94871480E090E0A0E8BFEB8093DD
:101200006F0E9093700EA093710EB093720E80913A
:10121000A70C9091A80CA091A90CB091AA0C888B56
:10122000998BAA8BBB8B4C015D01B7FAB094B7F8D0
:10123000B094C090A30CD090A40CE090A50CF090BA
:10124000A60C8091630E9091640EA091650EB091F2
:10125000660E888F998FAA8FBB8F8091AB0C90916F
:10126000AC0CA091AD0CB091AE0C88A399A3AAA32D
:10127000BBA38091AF0C9091B00CA091B10CB09138
:10128000B20C8C8B9D8BAE8BBF8BA7019601C501D9
:10129000B4010E94103C2B013C0128A139A14AA1B4
:1012A0005BA1688D798D8A8D9B8D0E94103C9B017E
:1012B000AC01C301B2010E94B8392B013C0120915D
:1012C0006F0E3091700E4091710E5091720E6C89BC
:1012D0007D898E899F890E94103C9B01AC01C301CE
:1012E000B2010E94B7392AE037ED43E25CE30E9485
:1012F000103CA70196010E94B8396093D90D7093F4
:10130000DA0D8093DB0D9093DC0D88899989AA8989
:10131000BB898093DD0D9093DE0DA093DF0DB0931C
:10132000E00D88A199A1AAA1BBA18093E10D9093A2
:10133000E20DA093E30DB093E40D8C899D89AE89F5
:10134000BF898093E50D9093E60DA093E70DB093D0
:10135000E80DE9E5FDE080E4DF011D928A95E9F7FB
:10136000C0926F0ED092700EE092710EF092720EDB
:101370002AE037ED43E25CE3C501B4010E94103C72
:1013800020E030E040E85FE30E94B8396093190D37
:1013900070931A0D80931B0D90931C0D10921D0DD0
:1013A00010921E0D10921F0D1092200D1092210D03
:1013B0001092220D1092230D1092240D1092250DE3
:1013C0001092260D1092270D1092280DC701B6011C
:1013D00090582AE037ED43E25CE30E94103C20E0A5
:1013E00030E0A9010E94B8396093290D70932A0D4D
:1013F00080932B0D90932C0D812C912C50E8A52ED1
:101400005FE3B52E80922D0D90922E0DA0922F0DA0
:10141000B092300D1092310D1092320D1092330DAA
:101420001092340D1092350D1092360D1092370D2A
:101430001092380D2AE037ED43E25CE3688D798D38
:101440008A8D9B8D0E94103C20E030E0A9010E9413
:10145000B8396093390D70933A0D80933B0D90939A
:101460003C0D10923D0D10923E0D10923F0D1092CA
:10147000400D8092410D9092420DA092430DB0928A
:10148000440D1092450D1092460D1092470D10928A
:10149000480DC701B6010E94651A81111FC0C09096
:1014A0006F0ED090700EE090710EF090720E20E0F2
:1014B00030E0A901C701B6010E941C3A87FD02C0B5
:1014C0000C949B1480E090E0A0E8BFEB80936F0E3B
:1014D0009093700EA093710EB093720E60916F0E88
:1014E0007091700E8091710E9091720E90582AE05A
:1014F00037ED43E25CE30E94103C2091890D30916E
:101500008A0D40918B0D50918C0D0E94B8396093DB
:10151000490D70934A0D80934B0D90934C0D809123
:101520008D0D90918E0DA0918F0DB091900D8093A7
:101530004D0D90934E0DA0934F0DB093500D809193
:10154000910D9091920DA091930DB091940D809377
:10155000510D9093520DA093530DB093540D80E014
:1015600090E0A0E8BFE38093550D9093560DA093B3
:10157000570DB093580DE9E1FDE0F9A3E8A322EE81
:1015800032E03DA32CA3CE0105969D8B8C8BDE0112
:101590001196B98FA88FE6EEF2E0FD8FEC8F29E966
:1015A0003DE0398B288BB9ABA8AB99A788A749E157
:1015B000C42E4DE0D42ED6018D909D90AD90BC9060
:1015C000139750968D919D910D90BC91A02D8CA755
:1015D0009DA7AEA7BFA7D60190968D919D910D9026
:1015E000BC91A02D8CAB9DABAEABBFABD601D09662
:1015F0008D919D910D90BC91A02D88AF99AFAAAF10
:10160000BBAF03E61CE0F12CE12C170130E8230E00
:10161000311C2C0C3D1CD8012D913D914D915C91BC
:10162000C501B4010E94103C20E030E0A9010E94F5
:10163000B8392B013C01F80124813581468157815D
:101640006CA57DA58EA59FA50E94103C9B01AC01B9
:10165000C301B2010E94B8392B013C01D801189690
:101660002D913D914D915C911B976CA97DA98EA9FF
:101670009FA90E94103C9B01AC01C301B2010E94D2
:10168000B8392B013C01F8012485358546855785FD
:1016900068AD79AD8AAD9BAD0E94103C9B01AC0159
:1016A000C301B2010E94B839D1016D937D938D932E
:1016B0009C931397005F1F4FB0E1EB0EF11CE0E429
:1016C000EE16F10409F0A1CFA889B98950964D9082
:1016D0005D906D907C905397FD0181919191A191C6
:1016E000B191F98BE88B8CA79DA7AEA7BFA7848D7E
:1016F000958DA68DB78D8CAB9DABAEABBFAB84A5E6
:1017000095A5A6A5B7A588AF99AFAAAFBBAF39E19C
:10171000232E3DE0332E10E000E07101B4E02B0EEB
:10172000311CC801805C9F4FF601E80FF91FFDAF27
:10173000ECAFD70150962D913D914D915C9153970F
:10174000C301B2010E94103C4B015C01F7012081F2
:101750003181428153816CA57DA58EA59FA50E94F4
:10176000103C9B01AC01C501B4010E94B8394B018A
:101770005C01D1015C962D913D914D915C915F97FB
:101780006CA97DA98EA99FA90E94103C9B01AC0168
:10179000C501B4010E94B8394B015C01F10124A5D7
:1017A00035A546A557A568AD79AD8AAD9BAD0E941C
:1017B000103C9B01AC01C501B4010E94B839EC8D0D
:1017C000FD8DE00FF11F20813181428153810E9404
:1017D000B839ACADBDAD6D937D938D939C9313974C
:1017E000005F1F4F0034110509F097CFECA1FDA158
:1017F0008191FDA3ECA3A8A5B9A58D93B9A7A8A72E
:10180000E8A9F9A98193F9ABE8ABF4E0CF0ED11CBC
:101810002C8D3D8D2C5F3F4F3D8F2C8F39E2C316B1
:101820003DE0D30609F0C7CE10926F0E1092700EF5
:101830001092710E1092720E6A81062E000C770BB8
:10184000880B990B0E94BB3A6C8F7D8F8E8F9F8F78
:101850006981062E000C770B880B990B0E94BB3A0E
:101860004B015C016B81062E000C770B880B990BEA
:101870000E94BB3A6CA37DA38EA39FA36C81062E0E
:10188000000C770B880B990B0E94BB3A68A779A7CD
:101890008AA79BA729E9222E2DE0322EE9E5FDE05B
:1018A000F98BE88B412C512C3201AC89BD891D91FB
:1018B000BD8BAC8BE889F9892481358146815781BC
:1018C0006C8D7D8D8E8D9F8D0E94103C6B017C01F7
:1018D000A889B9892D913D914D915C91C501B401C3
:1018E0000E94103C9B01AC01C701B6010E94B839AF
:1018F0006B017C01E889F989208531854285538512
:101900006CA17DA18EA19FA10E94103C9B01AC0106
:10191000C701B6010E94B8396B017C01A889B98959
:101920001C962D913D914D915C911F9768A579A5CD
:101930008AA59BA50E94103C9B01AC01C701B60182
:101940000E94B8396B017C01612F110F770B880B56
:10195000990B0E94BB3A9B01AC01C701B6010E94E2
:10196000103C9B01AC01C301B2010E94B8392B01AC
:101970003C01E889F9897096F98BE88B2E163F06B1
:1019800009F093CF40926F0E5092700E6092710EDC
:101990007092720E1092670E1092680E1092690E7D
:1019A00010926A0E6E81062E000C770B880B990B35
:1019B0000E94BB3A6C8F7D8F8E8F9F8F6D81062E1C
:1019C000000C770B880B990B0E94BB3A6CA37DA38C
:1019D0008EA39FA36F81062E000C770B880B990BAB
:1019E0000E94BB3A68A779A78AA79BA76885062E9D
:1019F000000C770B880B990B0E94BB3A68AB79AB54
:101A00008AAB9BAB288D398D2C5F3F4F3DA72CA710
:101A1000888D998D9D8B8C8B99E5292E9DE0392E93
:101A2000C12CD12C7601810194E0290E311CD10109
:101A3000A453BF4FBDABACABF801208931894289BB
:101A400053896C8D7D8D8E8D9F8D0E94103C4B0136
:101A50005C01D8012D913D914D915C916CA17DA1CE
:101A60008EA19FA10E94103C9B01AC01C501B40155
:101A70000E94B8394B015C01F101248D358D468DF2
:101A8000578D68A579A58AA59BA50E94103C9B014E
:101A9000AC01C501B4010E94B8394B015C01D10110
:101AA0009C962D913D914D915C919F9768A979A944
:101AB0008AA99BA90E94103C9B01AC01C501B401FD
:101AC0000E94B8394B015C012AE037ED43E25CE348
:101AD000C301B2010E94B8399B01AC01C501B40138
:101AE0000E94203AECA9FDA96083718382839383CD
:101AF000AC89BD896D91BD8BAC8B00581F4F062EF4
:101B0000000C770B880B990B0E94BB3AF8012081DF
:101B10003181428153810E94103C9B01AC01C7017D
:101B2000B6010E94B8396B017C012CA53DA58C89BA
:101B30009D892817390709F076CFC092670ED09299
:101B4000680EE092690EF0926A0E20E030E0A90182
:101B50006091630E7091640E8091650E9091660E97
:101B60000E94103CA70196010E94B8399B01AC016C
:101B700060915F0E7091600E8091610E9091620E87
:101B80000E94B7394B015C0180926F0E9092700EEB
:101B9000A092710EB092720E4090290E50902A0EB3
:101BA00060902B0E70902C0E80912D0E90912E0E29
:101BB000A0912F0EB091300E8C8F9D8FAE8FBF8F66
:101BC0008091310E9091320EA091330EB091340E6F
:101BD0008CA39DA3AEA3BFA38091350E9091360E2A
:101BE000A091370EB091380E88A799A7AAA7BBA7D6
:101BF00089ED282E8DE0382E09E11DE0A88DB98DE4
:101C0000FD90B98FA88FF101E05BFF4F20813181FA
:101C100042815381C501B4010E94103C9B01AC017B
:101C2000F10160817181828193810E94B839D10173
:101C30006D937D938D939D931D016F2DFF0C770BFD
:101C4000880B990B0E94BB3A6B017C01AC019B0194
:101C5000C301B2010E94103CF8016083718382834A
:101C600093832C8D3D8D4E8D5F8DC701B6010E94F3
:101C7000103CD80114966D937D938D939C93179788
:101C80002CA13DA14EA15FA1C701B6010E94103C4D
:101C9000F801608771878287938728A539A54AA5AF
:101CA0005BA5C701B6010E94103CD8011C966D933C
:101CB0007D938D939C931F97005F1F4FEC89FD8947
:101CC000288D398DE217F30709F098CFF12CE12C1C
:101CD000A8A1B9A150968D909D90AD90BC905397BE
:101CE000FD0181919191A191B191F9A3E8A3888F10
:101CF000998FAA8FBB8F848D958DA68DB78D8C8B78
:101D00009D8BAE8BBF8B84A595A5A6A5B7A58C8F03
:101D10009D8FAE8FBF8F09E51DE06801CE0CDF1CE3
:101D2000160130E9230E311CD80114962D913D91F6
:101D30004D915C911797C501B4010E94103C2B0195
:101D40003C01F8012081318142815381688D798D78
:101D50008A8D9B8D0E94103C9B01AC01C301B20196
:101D60000E94B8392B013C01D80118962D913D9164
:101D70004D915C911B976C897D898E899F890E940A
:101D8000103C9B01AC01C301B2010E94B8392B0188
:101D90003C01F80124853585468557856C8D7D8D00
:101DA0008E8D9F8D0E94103C9B01AC01C301B2013E
:101DB0000E94B8399B01AC01D6016D917D918D9146
:101DC0009C910E94B739F101608371838283938370
:101DD000005F1F4F288939892017310709F09DCFEF
:101DE00034E0E30EF11C80E1E816F10409F070CF55
:101DF0008091DD0D9091DE0DA091DF0DB091E00D91
:101E000080937B0E90937C0EA0937D0EB0937E0EFC
:101E1000C0900802D0900902E0900A02F0900B02F4
:101E2000A701960160912B0C70912C0C80912D0CC8
:101E300090912E0C0E941C3A882341F0C0922B0CEA
:101E4000D0922C0CE0922D0CF0922E0C84E08F8717
:101E5000C12CEE24E39401E010E020E030E0AE017C
:101E6000415F5F4F60E470E08091210C9091220C03
:101E70000E94EB018F8720E030E0811114C0CC2458
:101E8000C394E12C02E010E020E030E0AE01435FBB
:101E90005F4F60E470E08091210C9091220C0E94D1
:101EA00081012E853D85A091A002B091A1020E94E2
:101EB000414A0E94BB3A20E030E040E056E30E94F5
:101EC000103C209198023091990240919A025091D1
:101ED0009B020E94103C688B798B8A8B9B8B609352
:101EE0005B0E70935C0E80935D0E90935E0EC090BF
:101EF0006B0ED0906C0EE0906D0EF0906E0E809098
:101F0000040290900502A0900602B090070211E032
:101F1000A5019401C701B6010E940C3C87FD10E0A9
:101F20001093F60C8091630E9091640EA091650E53
:101F3000B091660E88AB99ABAAABBBABA50194017F
:101F4000C701B6010E940C3C87FDE4C18091B30C2F
:101F50009091B40CA091B50CB091B60C8CA39DA33C
:101F6000AEA3BFA39C01AD01688979898A899B8949
:101F70000E94103C4B015C0180915F0E9091600EBD
:101F8000A091610EB091620E888F998FAA8FBB8F3E
:101F90008091B70C9091B80CA091B90CB091BA0C8B
:101FA0008C8B9D8BAE8BBF8B9C01AD01688D798D29
:101FB0008A8D9B8D0E94103CA50194010E94B83926
:101FC0006B017C01C0926B0ED0926C0EE0926D0E94
:101FD000F0926E0E8091BF0C9091C00CA091C10C3C
:101FE000B091C20C88A799A7AAA7BBA79C01AD0175
:101FF000688D798D8A8D9B8D0E94103C6CA77DA782
:102000008EA79FA78091BB0C9091BC0CA091BD0C9A
:10201000B091BE0C8C8F9D8FAE8FBF8F9C01AD0198
:10202000688979898A899B890E94103C2CA53DA5E5
:102030004EA55FA50E94B83968A379A38AA39BA384
:102040006093670E7093680E8093690E90936A0E8A
:10205000A7019601688979898A899B890E94103C29
:102060002B013C0128A139A14AA15BA1688D798D82
:102070008A8D9B8D0E94103C9B01AC01C301B20173
:102080000E94B83920E030E040E85FE30E94B839B0
:102090002B013C012C8D3D8D4E8D5F8D688D798D92
:1020A0008A8D9B8D0E94103CA50194010E94B83935
:1020B000A30192010E94203A4B015C018092730EB1
:1020C0009092740EA092750EB092760E2C893D8976
:1020D0004E895F89688979898A899B890E94103C29
:1020E0002CA53DA54EA55FA50E94B839A30192017C
:1020F0000E94203A2B013C01A5019401C701B601C1
:102100000E94103C9B01AC016CA17DA18EA19FA1FE
:102110000E94B7396CA37DA38EA39FA36093410E49
:102120007093420E8093430E9093440EA30192014C
:10213000C701B6010E94103C9B01AC016C897D89EE
:102140008E899F890E94B7396C8B7D8B8E8B9F8B7C
:102150006093450E7093460E8093470E9093480E01
:10216000A501940168A179A18AA19BA10E94103CBC
:102170009B01AC016C8D7D8D8E8D9F8D0E94B7393A
:102180006C8F7D8F8E8F9F8F6093490E70934A0E58
:1021900080934B0E90934C0EA301920168A179A1FC
:1021A0008AA19BA10E94103C9B01AC0168A579A566
:1021B0008AA59BA50E94B73968A379A38AA39BA38C
:1021C00060934D0E70934E0E80934F0E9093500E71
:1021D0008090C30C9090C40CA090C50CB090C60C1D
:1021E0004090C70C5090C80C6090C90C7090CA0CFD
:1021F000A5019401688979898A899B890E94103C8C
:102200006B017C01A3019201688D798D8A8D9B8D74
:102210000E94103C9B01AC01C701B6010E94B83975
:102220009B01AC0168A979A98AA99BA90E94B73929
:102230006B017C01C0926F0ED092700EE092710E15
:10224000F092720E2CA13DA14EA15FA168897989FF
:102250008A899B890E94103C6CA37DA38EA39FA3B7
:102260002C8D3D8D4E8D5F8D688D798D8A8D9B8DEA
:102270000E94103C9B01AC016CA17DA18EA19FA18D
:102280000E94B839A70196010E94103CA501940153
:102290000E94B8396093390E70933A0E80933B0ECA
:1022A00090933C0E2C893D894E895F896889798994
:1022B0008A899B890E94103C4B015C0128A139A1AD
:1022C0004AA15BA1688D798D8A8D9B8D0E94103CFF
:1022D0009B01AC01C501B4010E94B839A701960168
:1022E0000E94103CA30192010E94B83960933D0EF8
:1022F00070933E0E80933F0E9093400E8091F50CAC
:10230000882309F430C3833009F029C381E090E0C9
:102310008093F50CC090390ED0903A0EE0903B0EB1
:10232000F0903C0EC0927F0ED092800EE092810E13
:10233000F092820E80903D0E90903E0EA0903F0E47
:10234000B090400E8092830E9092840EA092850EE3
:10235000B092860E2091E10D3091E20D4091E30D97
:102360005091E40D2093870E3093880E4093890E90
:1023700050938A0E8091E50D9091E60DA091E70DA6
:10238000B091E80D888B998BAA8BBB8B80938B0EB9
:1023900090938C0EA0938D0EB0938E0EC092930EE0
:1023A000D092940EE092950EF092960E8092970E37
:1023B0009092980EA092990EB0929A0EC701B60113
:1023C0000E94103C9B01AC01C501B4010E94203A5F
:1023D0002B013C014092A30E5092A40E6092A50ED8
:1023E0007092A60EAC019B01688979898A899B89C4
:1023F0000E94103C60939B0E70939C0E80939D0EE8
:1024000090939E0E20917B0E30917C0E40917D0E1C
:1024100050917E0EC701B6010E94103CA3019201AB
:102420000E94103C2B013C01A5019401C501B4019F
:102430000E94103C9B01AC01C301B2010E94B7395C
:10244000A70196010E94203A60939F0E7093A00E00
:102450008093A10E9093A20E8091D90D9091DA0DE8
:10246000A091DB0DB091DC0D80938F0E9093900EB8
:10247000A093910EB093920E20E030E04EE753E42B
:1024800068A979A98AA99BA90E94103C20E030E0A4
:1024900040E451E40E94203A6B017C0120E030E0EE
:1024A000A9010E940C3C18160CF060C2C0925F0E8D
:1024B000D092600EE092610EF092620E10E061E048
:1024C00085E00E943302612F87E00E94330264E0BE
:1024D00070E080E090E00E941B048C019093620CFD
:1024E0008093610C20E030E04FE753E460915F0E91
:1024F0007091600E8091610E9091620E0E941C3A64
:10250000181664F480E090E0AFE7B3E480935F0EC8
:102510009093600EA093610EB093620E40915F0E97
:102520005091600E6091610E7091620EC8010E9420
:10253000E40360919C0270919D0280919E029091B3
:102540009F020E94F63A60936B0E70936C0E80931C
:102550006D0E90936E0EB9D7882309F427C210929E
:102560006B0E10926C0E10926D0E10926E0EC0904B
:102570006B0ED0906C0EE0906D0EF0906E0E20E021
:1025800030E0A901C701B6010E941C3A87FF30C2A2
:10259000C701B60190580E948D3A88279927861B5B
:1025A000970B68E07DE00E94BE0780E4E9EEFDE065
:1025B000A3E6BCE001900D928A95E1F78091D90DD8
:1025C0009091DA0DA091DB0DB091DC0D8093A30CFE
:1025D0009093A40CA093A50CB093A60C8091DD0D54
:1025E0009091DE0DA091DF0DB091E00D8093A70CCE
:1025F0009093A80CA093A90CB093AA0C8091E10D24
:102600009091E20DA091E30DB091E40D8093AB0C9D
:102610009093AC0CA093AD0CB093AE0C8091E50DF3
:102620009091E60DA091E70DB091E80D8093AF0C6D
:102630009093B00CA093B10CB093B20C8091CB0CE2
:102640009091CC0CA091CD0CB091CE0C888B998B35
:10265000AA8BBB8B4090B60E5090B70E6090B80E10
:102660007090B90EA3019201BC01CD010E941C3AE9
:10267000E0910A05F0910B058111C0C18081918123
:10268000A281B3818093CB0C9093CC0CA093CD0C02
:10269000B093CE0CEFECFCE08091570E9091580E69
:1026A000A091590EB0915A0E80839183A283B38377
:1026B0008091F60C882309F460C08091410E9091BE
:1026C000420EA091430EB091440E8093B30C9093B0
:1026D000B40CA093B50CB093B60C8091450E9091BC
:1026E000460EA091470EB091480E8093B70C909380
:1026F000B80CA093B90CB093BA0C8091490E90918C
:102700004A0EA0914B0EB0914C0E8093BB0C90934F
:10271000BC0CA093BD0CB093BE0C80914D0E90915B
:102720004E0EA0914F0EB091500E8093BF0C90931F
:10273000C00CA093C10CB093C20C8091390E909143
:102740003A0EA0913B0EB0913C0E8093C30C909337
:10275000C40CA093C50CB093C60C80913D0E909113
:102760003E0EA0913F0EB091400E8093C70C909307
:10277000C80CA093C90CB093CA0C4091E8045091C6
:10278000E9046091EA047091EB0490E080E00E941B
:10279000FD064091F0045091F1046091F2047091B3
:1027A000F30481E090E00E94FD06C090E804D09020
:1027B000E904E090EA04F090EB049FEFC91AD90A0B
:1027C000E90AF90AC092E804D092E904E092EA0426
:1027D000F092EB0400910A0510910B05C701B601B8
:1027E0000E94B93A9B01AC016091EC047091ED0438
:1027F0008091EE049091EF040E94103CD8016D93FB
:102800007D938D939C9313978091F0049091F104A4
:10281000A091F204B091F3040196A11DB11D809323
:10282000F0049093F104A093F204B093F304809128
:10283000F804882309F414C1813009F415C181E03A
:102840009091FA04992309F40CC180E00AC183E055
:102850000C941B0880925F0E9092600EA092610E05
:10286000B092620E4090D30C5090D40C6090D50C76
:102870007090D60CA3019201C501B4010E941C3ACC
:1028800087FF3AC0A3019201C701B6010E940C3C28
:102890001816D4F540925F0E5092600E6092610E51
:1028A0007092620EE7EDFCE020813181428153811C
:1028B000688979898A899B890E94B7394B015C01B3
:1028C00020915F0E3091600E4091610E5091620E2A
:1028D000C701B6010E94B7399B01AC01C501B40123
:1028E0000E94203A60935F0E7093600E8093610E99
:1028F0009093620E0C949D08A5019401C701B60146
:102900000E941C3A181634F6EFECFCE0CDCF20E024
:1029100030E0A901C701B6010E940C3C181634F43E
:1029200080E090E0A0E8BFE30C94FF0880E090E036
:10293000DC010C94FF0820E030E0A901C701B601DA
:102940000E940C3C181634F480E090E0A0E8BFE34D
:102950000C94660A80E090E0DC010C94660A082E74
:10296000000C990BD5CC82E090E0D2CC20E030E096
:10297000A901C701B6010E941C3A87FF0DC0E89467
:10298000F7F8C0925F0ED092600EE092610EF09266
:10299000620E11E060E094CD10925F0E1092600E16
:1029A0001092610E1092620E10E0F4CF60916B0EE7
:1029B00070916C0E80916D0E90916E0E41D58111CB
:1029C000CECD60916B0E70916C0E80916D0E9091DA
:1029D0006E0E20E030E040E857E40E94103B609328
:1029E0006B0E70936C0E80936D0E90936E0EBFCD38
:1029F000C701B6010E948D3ACB01D3CD8090D30C94
:102A00009090D40CA090D50CB090D60CC080D18002
:102A1000E280F380A5019401C301B2010E941C3A37
:102A200081110BC0C092D30CD092D40CE092D50C83
:102A3000F092D60CE7EDFCE02FCEA5019401688959
:102A400079898A899B890E941C3A87FFEBCFC092C3
:102A5000CB0CD092CC0CE092CD0CF092CE0C1ACED6
:102A600081E08093F90402C01092F9048091F90486
:102A7000B4E08B9FF0011124E550FB4FC082D1825E
:102A8000E282F3828093FA048FEF8093F904ED964B
:102A90000FB6F894DEBF0FBECDBFDF91CF911F916F
:102AA0000F91FF90EF90DF90CF90BF90AF909F90ED
:102AB0008F907F906F905F904F903F902F900895F0
:102AC0004F925F926F927F928F929F92AF92BF923E
:102AD000CF92DF92EF92FF920F931F93CF9384E0F8
:102AE00090E077D480E594E027E035E03093570418
:102AF000209356042AE035E030939104209390040B
:102B00002CEE34E030936504209364049093BB046E
:102B10008093BA04909355048093540481E090E02C
:102B200090930805809307058FEC92E090935B04E7
:102B300080935A042CE035E030930B0520930A056E
:102B400080E090E0A8E4B2E480930305909304054C
:102B5000A0930505B09306058AE097EDA3E2BCE3D8
:102B60008093EC049093ED04A093EE04B093EF04F3
:102B70008CE090E6ADE8BFE38093D6049093D70451
:102B8000A093D804B093D90486EF95E0A5E7B3EA03
:102B90008093DA049093DB04A093DC04B093DD040B
:102BA0008FE690EDABEABBE18093DE049093DF0407
:102BB000A093E004B093E10480EE95E0A3EBBAE8C3
:102BC0008093E2049093E304A093E404B093E504BB
:102BD00084E494E0909353048093520484E294E05C
:102BE000909345048093440481EE92E090932504F1
:102BF00080932404909327048093260490932904BF
:102C00008093280490932B0480932A0490932D049E
:102C100080932C0490932F0480932E04909331047E
:102C2000809330049093330480933204909335045E
:102C3000809334049093370480933604909339043E
:102C40008093380490933B0480933A0445EF5CE012
:102C500050933D0440933C0450933F0440933E0402
:102C600090934104809340049093430480934204E2
:102C700086EE94E0909349048093480486ED94E0B6
:102C8000909347048093460430934B0420934A0466
:102C90008FEF8093F8048093F9041092FA0480E493
:102CA000E4E3F2E0A3E6BCE001900D928A95E1F73F
:102CB0008091B60E9091B70EA091B80EB091B90E5A
:102CC0008093CB0C9093CC0CA093CD0CB093CE0CF6
:102CD0008093D30C9093D40CA093D50CB093D60CC6
:102CE0008091740290917502A0917602B091770262
:102CF0008093A30C9093A40CA093A50CB093A60C66
:102D000080911C0290911D02A0911E02B0911F02A1
:102D10008093B30C9093B40CA093B50CB093B60C05
:102D20008091780290917902A0917A02B0917B0211
:102D30008093A70C9093A80CA093A90CB093AA0C15
:102D40008091200290912102A0912202B091230251
:102D50008093B70C9093B80CA093B90CB093BA0CB5
:102D600080917C0290917D02A0917E02B0917F02C1
:102D70008093AB0C9093AC0CA093AD0CB093AE0CC5
:102D80008091240290912502A0912602B091270201
:102D90008093BB0C9093BC0CA093BD0CB093BE0C65
:102DA0008091800290918102A0918202B091830271
:102DB0008093AF0C9093B00CA093B10CB093B20C75
:102DC0008091280290912902A0912A02B0912B02B1
:102DD0008093BF0C9093C00CA093C10CB093C20C15
:102DE00080912C0290912D02A0912E02B0912F0281
:102DF0008093C30C9093C40CA093C50CB093C60CE5
:102E00008091180290911902A0911A02B0911B02B0
:102E10008093390E90933A0EA0933B0EB0933C0EE4
:102E20004091300250913102609132027091330230
:102E30004093C70C5093C80C6093C90C7093CA0C94
:102E400080933D0E90933E0EA0933F0EB093400EA4
:102E5000412C80E5582E83EC682E88E4782E409231
:102E6000470C5092480C6092490C70924A0C109298
:102E7000420C1092410C10923B0C1092400CC12C51
:102E8000D12C7601C394C0923C0CD0923D0CE092C0
:102E90003E0CF0923F0C1092560E1092550E10926E
:102EA000510E1092520E1092530E1092540E50E08A
:102EB00040E060E070E0CB010E9448019093420C3A
:102EC0008093410C20EA822E26E8922EAA24A39415
:102ED000B12C8092430C9092440CA092450CB0927D
:102EE000460C8092A70E9092A80EA092A90EB092C6
:102EF000AA0E40EA56E861E070E00E946C01C1E071
:102F0000C093400C87EF9CE00E948E0710923A0C11
:102F100010922F0C8091140290911502A09116022C
:102F2000B09117028093360C9093370CA093380C15
:102F3000B093390C1092340CC092300CD092310CFA
:102F4000E092320CF092330C4AE35CE063E082E002
:102F50000E94D602C093340C1092350C80913A0C2A
:102F60000E94D4034092270C5092280C6092290CA6
:102F700070922A0C1092220C1092210C10921B0CB1
:102F80008091080290910902A0910A02B0910B026F
:102F900080932B0C90932C0CA0932D0CB0932E0CA3
:102FA0001092200CC0921C0CD0921D0CE0921E0CB2
:102FB000F0921F0C1092560E1092550E1092510E58
:102FC0001092520E1092530E1092540E50E040E0A8
:102FD00060E070E0CB010E9448019093220C809346
:102FE000210C8092230C9092240CA092250CB0927C
:102FF000260C8092A70E9092A80EA092A90EB092D5
:10300000AA0E40EA56E861E070E00E946C01C093AD
:10301000200C1092530CC092540CD092550CE0929C
:10302000560CF092570C61E085E00E942B02C09391
:10303000580C10924B0CC0924C0CD0924D0CE0925C
:103040004E0CF0924F0C61E087E00E942B02C0937F
:10305000500C10925B0C1092600CC0925C0CD092E1
:103060005D0CE0925E0CF0925F0CE12CF12C87017C
:10307000A801970164E070E080E090E00E945F04A6
:103080009093620C8093610CC093600C88E09DE08B
:103090000E948E0760910C0270910D0280910E02C9
:1030A00090910F020E94F63A6093770E7093780E1B
:1030B0008093790E90937A0E08D2882309F482C007
:1030C0001092770E1092780E1092790E10927A0E5E
:1030D000C090770ED090780EE090790EF0907A0E36
:1030E00020E030E0A901C701B6010E941C3A87FF29
:1030F0008BC0C701B60190580E948D3A71956195B9
:1031000071091092AB0E7093AC0E6093AD0EC12C92
:10311000E12C03E010E020E030E04BEA5EE060E408
:1031200070E08091410C9091420C0E94EB01609103
:1031300010027091110280911202909113020E946C
:10314000F63A6093770E7093780E8093790E909391
:103150007A0EBBD1882309F45CC01092770E1092CE
:10316000780E1092790E10927A0EC090770ED09051
:10317000780EE090790EF0907A0E20E030E0A90110
:10318000C701B6010E941C3A87FF65C0C701B6019E
:1031900090580E948D3A88279927861B970B67EFD6
:1031A0007CE0CF911F910F91FF90EF90DF90CF9037
:1031B000BF90AF909F908F907F906F905F904F9057
:1031C0000C94BE076091770E7091780E8091790E05
:1031D00090917A0E35D1811173CF6091770E7091F5
:1031E000780E8091790E90917A0E20E030E040E8E0
:1031F00057E40E94103B6093770E7093780E809393
:10320000790E90937A0E64CFC701B6010E948D3A71
:1032100078CF6091770E7091780E8091790E9091B1
:103220007A0E0ED1811199CF6091770E7091780E40
:103230008091790E90917A0E20E030E040E857E4DA
:103240000E94103B6093770E7093780E8093790EF6
:1032500090937A0E8ACFC701B6010E948D3ACB01B6
:103260009ECF80912F0C811114C081E080932F0C90
:103270008091300C9091310CA091320CB091330CB4
:103280000197A105B10529F48091340C81110E94A8
:10329000E10380911B0C811119C081E080931B0C0C
:1032A00080911C0C90911D0CA0911E0CB0911F0CD4
:1032B0000197A105B10551F48091200C882331F0CC
:1032C0008091210C9091220C0E942A028091530C33
:1032D000811103C081E08093530C80914B0C8111CC
:1032E00003C081E080934B0C80915B0C81112EC058
:1032F00081E080935B0C80915C0C90915D0CA091BF
:103300005E0CB0915F0C0197A105B105F9F48091B5
:10331000600C8823D9F064E070E080E090E00E94C7
:103320001B049093620C8093610C40E050E0BA0162
:103330000E94E40364E070E080E090E00E941B04DF
:103340009093620C8093610C0E94B00488E09DE031
:103350000E94E40780913B0C811119C081E08093A9
:103360003B0C80913C0C90913D0CA0913E0CB09197
:103370003F0C0197A105B10551F48091400C8823C1
:1033800031F08091410C9091420C0E942A0287EF0B
:103390009CE00C94E40760E070E080E89FE708950B
:1033A00060E070E080E89FE7089560E070E080E80A
:1033B0009FEF089560E070E080E89FEF089560E07F
:1033C00070E080EC9FEF089560E070E080EC9FEF8C
:1033D0000895F5DF6093BA0E7093BB0E8093BC0E18
:1033E0009093BD0EF1DF6093AE0E7093AF0E80939D
:1033F000B00E9093B10ECFDF6093B60E7093B70E00
:103400008093B80E9093B90ECBDF6093B20E709399
:10341000B30E8093B40E9093B50EC7DF6093BE0ECB
:103420007093BF0E8093C00E9093C10EC3DF609364
:10343000C20E7093C30E8093C40E9093C50E089570
:10344000CF92DF92EF92FF92CF936B017C01AC01A0
:103450009B016091B60E7091B70E8091B80E90915D
:10346000B90E0E941C3AC1E0882371F0A7019601B1
:103470006091BE0E7091BF0E8091C00E9091C10EF2
:103480000E941C3A8111C0E08C2FCF91FF90EF90E9
:10349000DF90CF9008950F931F938B019C0100271D
:1034A000112720783F770115110520483F4749F43F
:1034B000AB01BC016F77772781E0452B462B472B6B
:1034C00009F480E01F910F910895E5CF4F925F922C
:1034D0006F927F928F929F92AF92BF92CF92DF9224
:1034E000EF92FF920F931F93F89440902405509011
:1034F00025056090260570902705C0901805D0908E
:103500001905E0901A05F0901B054130510509F0AE
:10351000A4C09B01AC0124193509460957092901AA
:103520003A0100912005109121052091220530914A
:10353000230548015901840C951CA61CB71C801654
:103540009106A206B306A0F400911C0510911D057A
:1035500020911E0530911F050F5F1F4F2F4F3F4FCA
:1035600000931C0510931D0520931E0530931F0525
:103570008092200590922105A0922205B092230509
:1035800000911C0510911D0520911E0530911F050D
:103590008092280590922905A0922A05B0922B05C9
:1035A00000932C0510932D0520932E0530932F05A5
:1035B0006093240570932505809326059093270535
:1035C000A0E1B7E2A30192010E945C4A6C0D7D1D4F
:1035D0008E1D9F1D609318057093190580931A0521
:1035E00090931B050091A2021091A3022091A402C6
:1035F0003091A5020F3F1F4F2F4F3F4FF1F0009129
:10360000A2021091A3022091A4023091A5020E3FC4
:103610001F4F2F4F3F4F89F0C090A202D090A302BE
:10362000E090A402F090A50221E08C149D04AE0469
:10363000BF0408F420E02093340578941F910F9183
:10364000FF90EF90DF90CF90BF90AF909F908F90C2
:103650007F906F905F904F9008954B015C018418AC
:103660009508A608B708A3019201261B370B480B43
:10367000590B6415750586059705D0F082169306DB
:10368000A406B50640F420E030E0A90181149104BD
:10369000A104B10491F4A0E1B7E20E945C4AA70141
:1036A0009601261B370B480B590BCA01B901C5CF30
:1036B00082169306A406B50670F7A0E1B7E2A5014D
:1036C00094010E945C4A6C0D7D1D8E1D9F1DB5CF1F
:1036D000FDCECF93DF9300D01F92CDB7DEB71C8213
:1036E0001B821A82198210923005109231051092B5
:1036F000320510923305BE016F5F7F4FCE010396F6
:103700000E94003869817A818B819C810E945731A7
:10371000009761F4BE016F5F7F4FCE0103960E9458
:103720000C3869817A818B819C812FD50F900F9005
:103730000F900F90DF91CF910895FF920F931F93F9
:10374000CF93DF93082F60E070E0CB010E942C4400
:10375000FF24F3940E944030EC01892B89F010E0A3
:10376000CE3F8FEFD80769F0002361F160E070E091
:10377000CB010E942C4481E090E0892B59F322C0B8
:1037800011E026D5EC01892B21F0CE3F8FEFD80731
:1037900059F711111EC011E0229609F410E00E94A1
:1037A000F02FEC01892B21F0CE3F8FEFD807E1F607
:1037B000111111C011E0CE3F8FEFD80709F410E0CE
:1037C00001110BC0CE01DF91CF911F910F91FF909E
:1037D000089511E0E4CF11E0F3CF60E070E0CB0199
:1037E0000E942C441F25812F90E0C7CFCF93DF93F9
:1037F00080913405882321F060E070E0CB014DD644
:1038000036D6D0E0C0E0892B71F06AE070E080E04D
:1038100090E00E942C4481E090DF29D62196C03DA3
:1038200027E0D20781F728D60E94AB3110924C05D1
:1038300010924B05109245051092460510924705CF
:1038400010924805109241051092420510924305CE
:103850001092440510923D0510923E0510923F05CE
:10386000109240051092390510923A0510923B05CE
:1038700010923C05109235051092360510923705CE
:10388000109238054EEF5FEF6FEF7FEF4093A2028B
:103890005093A3026093A4027093A5021092340582
:1038A000E8E2F5E028E0DF011D922A95E9F71092A1
:1038B00024051092250510922605109227051092D6
:1038C00020051092210510922205109223051092D6
:1038D0001C0510921D0510921E0510921F051092D6
:1038E00018051092190510921A0510921B05DF9108
:1038F000CF910895109258051092590510925A05CB
:1039000010925B05109257058091600590916105BA
:1039100090935605809355051092540510925305C7
:1039200010924F05109250051092510510925205B9
:1039300010925D0510925C0590E080E00895CF92B2
:10394000DF92EF92FF920F931F93CF938C01019719
:1039500009F055C0209160053091610580915505B1
:103960009091560540916005509161055093560520
:10397000409355052817390781F01092540510928D
:10398000530510924F051092500510925105109258
:10399000520510925D0510925C0580916005909132
:1039A0006105019761F580915C0590915D05892B1A
:1039B00021F48091A602811112C080915C05909142
:1039C0005D050197E1F480914F0590915005A0911C
:1039D0005105B09152050197A105B10581F41092EE
:1039E0004F051092500510925105109252051092F9
:1039F000A60282E090E090935D0580935C05809143
:103A0000600590916105019709F01CC180917605D0
:103A1000909177058017910709F014C18091720584
:103A200090917305A0917405B0917505009709F404
:103A300009C12091710521110DC04091720550916D
:103A400073056091740570917505452B462B472BC6
:103A500009F4F8C020915C0530915D0522303105F4
:103A600009F0F0C0209153052111ECC0FC01C08089
:103A7000D180E280F38080915705882309F4D3C078
:103A80008091630590916405892B09F4FEC0209113
:103A900063053091640581E02230310509F080E052
:103AA0002091630530916405C1E02130310549F072
:103AB0002091630530916405C1E02230310509F0A1
:103AC000C0E0882309F456C020916D0530916E0541
:103AD00040916F0550917005C701B6010E940C3CE2
:103AE00087FD14C020916D0530916E0540916F05E2
:103AF00050917005609158057091590580915A0553
:103B000090915B050E941C3A87FD22C020916D05B3
:103B100030916E0540916F0550917005C701B60157
:103B20000E940C3C181634F520916D0530916E05FD
:103B300040916F055091700560915805709159053D
:103B400080915A0590915B050E941C3A811112C028
:103B50008091650590916605A0916705B091680513
:103B6000892B8A2B8B2B19F481E08093540581E0FB
:103B700080935305CC2309F456C020916D053091F4
:103B80006E0540916F0550917005C701B6010E9406
:103B90001C3A87FF14C020916D0530916E0540914D
:103BA0006F0550917005609158057091590580918D
:103BB0005A0590915B050E940C3C87FF22C0209122
:103BC0006D0530916E0540916F0550917005C701EC
:103BD000B6010E941C3A811126C020916D053091DA
:103BE0006E0540916F055091700560915805709178
:103BF000590580915A0590915B050E940C3C18165E
:103C000094F48091650590916605A0916705B09147
:103C10006805892B8A2B8B2B19F481E0809354053E
:103C200081E08093530581E090915305911180E0EC
:103C300080935705C0925805D0925905E0925A05D5
:103C4000F0925B050130110509F067C180915C05B8
:103C500090915D05892BD9F410926205109253055D
:103C60008091A602882379F082E090E090935D0530
:103C700080935C051092A602209160053091610549
:103C800081E0232BE9F080E01BC081E009CF109296
:103C9000A60280916205882349F010925405109283
:103CA0005D0510925C0510926205EDCF8091600574
:103CB00090916105892BE1F0809153051092530595
:103CC00020915C0530915D052230310509F45EC01C
:103CD00088F42115310509F448C02130310509F473
:103CE000F3C010925405109253051092620538C02B
:103CF00081E0E6CF2330310509F4B1C0243031052D
:103D000081F740914F055091500560915105709198
:103D10005205411551056105710561F04150510988
:103D20006109710940934F05509350056093510507
:103D30007093520540914F05509150056091510587
:103D400070915205452B462B472BD9F420915E05E7
:103D500030915F052130310509F046C010925405BD
:103D600010925D0510925C050CC08091A60288231C
:103D700041F082E090E090935D0580935C051092A5
:103D8000A60210924D0580915405CEC08823C9F338
:103D90008091650590916605A0916705B0916805D1
:103DA000181619061A061B060CF07DC080916005D6
:103DB00090916105019709F076C080916505909119
:103DC0006605A0916705B091680580934F059093B3
:103DD0005005A0935105B093520583E090E0909375
:103DE0005D0580935C05CDCF4091690550916A05D2
:103DF00060916B0570916C05452B462B472BA9F004
:103E0000109254058091690590916A05A0916B0507
:103E1000B0916C0580934F0590935005A093510588
:103E2000B093520581E090E0DACF882399F0809139
:103E3000A7029091A802A091A902B091AA02809332
:103E40004F0590935005A0935105B093520584E01F
:103E500090E0C5CF1092540582E090E0C0CF8091F1
:103E60004F0590915005A0915105B09152050097D2
:103E7000A105B10559F00197A109B10980934F053A
:103E800090935005A0935105B093520580914F0532
:103E900090915005A0915105B0915205892B8A2B24
:103EA0008B2B09F06ECF8091A7029091A802A09170
:103EB000A902B091AA02892B8A2B8B2B09F44ECF31
:103EC00081E080935405B3CF40914F055091500548
:103ED00060915105709152054115510561057105BB
:103EE00061F0415051096109710940934F055093A8
:103EF0005005609351057093520540914F055091C4
:103F000050056091510570915205452B462B472B6A
:103F100009F037CF8111C7CF9FCF80914D058823FE
:103F200009F431CF80914E05CF911F910F91FF90F1
:103F3000EF90DF90CF900895109258051092590598
:103F400010925A0510925B051092570510925D056C
:103F500010925C0510925605109255051092770547
:103F600010927605109254051092530510924F0549
:103F700010925005109251051092520510924E0564
:103F800010924D05109272051092730510927405EF
:103F9000109275051092710510926D0510926E05C4
:103FA00010926F051092700588EE93E0A0E0B0E0EB
:103FB0008093A7029093A802A093A902B093AA02AB
:103FC0001092690510926A0510926B0510926C05AB
:103FD00010926505109266051092670510926805AB
:103FE000109264051092630581E08093A6021092FE
:103FF0006205109261051092600510925F051092A3
:104000005E0590E080E008958091600590916105E3
:10401000892B19F58091A602882351F080916205C1
:10402000811106C081E080934E0580934D0508956F
:10403000209162053091A60281E090E0332311F0D7
:1040400090E080E030E082239323892B21F01092CE
:104050004E0581E0EACF10924D05089582E090E090
:10406000FA01918380838FEF9FEF0895CF93DF93C1
:10407000EA01009711F00E94D5321982188290E06F
:1040800080E0DF91CF910895DB01009719F48FEF65
:104090008C9308952EEF2C93FC013F96EF30F105A1
:1040A00008F034C08827E85AFF4D8F4F0C94394AE6
:1040B0008420822080207E207C2078207A20762018
:1040C000742072206F206B2067206D20862080E393
:1040D00011968C93089589E2FBCF82E2F9CF119675
:1040E0001C92089583E2F4CF81E2F2CF81E1F0CF18
:1040F00087E2EECF8AE2ECCF80E1EACF84E2E8CF3C
:1041000088E2E6CF86E2E4CF81E3E2CF80E2E0CF4F
:1041100080918405909185050895909385058093FD
:104120008405089580918305089590918305892BD6
:10413000809383050895982F909580918305892316
:10414000809383050895809182050895809180056C
:104150009091810508956115710559F0FB0130E0DA
:1041600020E070E060E02417350719F06115710553
:1041700011F0CB010895A081B181A817B90709F406
:10418000BF012F5F3F4F3696EECF8091860581119C
:104190001CC060D266D290937905809378050E9406
:1041A000D82A0E94EA2A90937D0580937C050E947C
:1041B000582F0E945F2F90937B0580937A0581E0B2
:1041C0008093860590E080E0089584EF9FEF089546
:1041D0008F929F92AF92BF92CF92DF92EF92FF9217
:1041E0000F931F93CF93DF9300D000D000D01F9286
:1041F000CDB7DEB71A86198618861F821E821D82E9
:104200001C821B821A8219828091860507EF1FEF9C
:10421000882309F49CC08E010D5F1F4F9E012B5F08
:104220003F4FAE01495F5F4FBE01675F7F4F90E038
:1042300080E00E94DC308C01009721F00596029707
:1042400008F0DBC029853A852115310509F402C142
:10425000ED80FE804B815C81B701640F751F8F81FB
:1042600098858617970708F4F5C0E20EF31ED7016C
:104270009C91903C09F07FC04230510508F47BC00E
:1042800011968C914091840550918505452B09F438
:104290009CC0913F08F071C02CE1290F2D3008F42B
:1042A0008BC02DE2290F203108F489C0903C21F405
:1042B0008150823008F483C088E3890F8B3008F482
:1042C00081C094E4C92E90E2D92EEEE2F0E26D8135
:1042D0007E81AE014F5F5F4F89859A8519955C019C
:1042E000C114D104A1F189809A808114910479F1DB
:1042F0008B819C818815990508F487C010E000E047
:104300004B815C8170E060E0C7010E946F4A01153B
:104310001105E9F449815A8169857A858D819E81EB
:10432000680F791FC501F6011995E980FA800D81A2
:104330001E812F81388549855A856FEF7FEF81E097
:1043400090E00E9477308C01892B09F056C0C8019B
:104350002A960FB6F894DEBF0FBECDBFDF91CF9186
:104360001F910F91FF90EF90DF90CF90BF90AF9093
:104370009F908F90089580E085CF30E020E0220F5D
:10438000331FF901E858FA4F0190F081E02D309782
:1043900009F497CF892F90E01995009709F491CFF0
:1043A000DC011296ED91FC9113971496CD90DC9060
:1043B000309709F08CCF1FC021E030E0E0CF22E041
:1043C00030E0DDCF23E030E0DACFD12CC12CE6E3C2
:1043D000F0E29F3F09F07BCFE0917805F0917905FD
:1043E000309721F4C90104EF1FEF0CC08FEF90E06C
:1043F00019950097A9F604EF1FEF89859A85009714
:1044000009F4A5CF0E94D532A2CF0E94A6318C011B
:1044100089859A850E94D53270E060E0C4010E94CF
:104420003F3198878F830E9474309E838D836F8184
:1044300078856115710559F0C8010E9434349A8756
:10444000898706EF1FEF892B09F058CF59CF08EF66
:104450001FEF56CF08EF1FEFD0CF20918605222304
:1044600019F020E00C94EF2A87EF9FEF08958091D8
:1044700084059091850508950E94642F0E94BE2EA8
:10448000F5D0E8E7F5E088E0DF011D928A95E9F7CD
:104490001092860590E080E008950C941D2D21E097
:1044A00040E050E0BA010C94EF2A86E090E0FA0177
:1044B0009183808390E080E0089547E050E068E2D7
:1044C00073E049CEDF92EF92FF920F931F93CF9349
:1044D000DF938A01EC01C60FD71FE0908A05F090A8
:1044E0008B05D9800E948E31D816190678F082E0AB
:1044F00090E0F801918380838EEF9FEFDF91CF9161
:104500001F910F91FF90EF90DF900895EF2841F4F5
:1045100082E090E0F8019183808384EF9FEFEECFFB
:1045200089818093890590E00196F80191838083C9
:1045300090E080E0E3CFCF93DF93EA010E94CE2D9D
:10454000882321F00E949B310E94CF2D82E090E0D1
:10455000998388838BEF9FEFDF91CF910895CF935D
:10456000DF93EB0186E0FB0111928A95E9F78FEF6B
:104570008883D8DD8983E7DD8A83E8DD9D838C83AA
:10458000DF91CF910895CF93DF93EA010E94D12D5F
:10459000811109C082E090E09983888385EF9FEFC5
:1045A000DF91CF91089590E080E0B7DD81E090E069
:1045B0009983888390E080E0F3CF0F931F93CF938C
:1045C000DF93EA018C01060F171F0E94D12D811184
:1045D0000BC082E090E09983888385EF9FEFDF91A5
:1045E000CF911F910F910895F8018181823038F0A9
:1045F00082E090E0998388838EEF9FEFF0CF81E097
:1046000090E08BDD88E090E09983888390E080E003
:10461000E6CFCF93DF930097D1F4EB01FB01329605
:1046200086E0DF011D928A95E9F78FEF888385E0A8
:1046300089831A820E948E318B830E948D319D83E3
:104640008C8381E08E838F83DF91CF910895DF91FA
:10465000CF911ACD8DE592E29093880580938705DE
:104660000895809187059091880508951092880596
:1046700010928705089580918A0590918B05089581
:10468000411105C0611571058105910561F06093C7
:104690008A0570938B0580938C0590938D054093CC
:1046A0008E0581E0089580E00895FF920F931F9397
:1046B000CF93DF938A01EC01C60FD71FF9800E94C8
:1046C0008E31F816190668F082E090E0F8019183C7
:1046D00080838EEF9FEFDF91CF911F910F91FF901D
:1046E00008956C817D818E819F814B81C9DF81110D
:1046F00008C082E090E0F8019183808384EF9FEF0F
:10470000EACF89818093890590E00196F801918331
:10471000808390E080E0DFCFCF93DF93EA01FC015C
:10472000E60FF71F64817581868197814381A8DF39
:10473000811109C082E090E09983888384EF9FEF24
:10474000DF91CF91089581E090E09983888390E094
:1047500080E0F6CFEAE8F5E0408151816281738123
:10476000480F511D611D711D408351836283738306
:104770000895CF93C09189054C2F50E060918A0530
:1047800070918B0501960E94664A8C2FE3DF109290
:104790008905CF910895009799F480918A059091A9
:1047A0008B052FEFFB012083892B59F02091890580
:1047B00030E02F5F3F4F2417350719F4CB01D9CFD5
:1047C00063CC0895009799F480918A0590918B05A8
:1047D0002FEFFB012083892B59F02091890530E0D0
:1047E0002F5F3F4F2417350719F4CB01C2CF4CCCB4
:1047F000089523E1AC01249FC001259F900D112451
:10480000E0919305F0919405E80FF91F238134811D
:104810002250310981E02230310508F080E008950E
:104820000F931F93CF93DF930091950510919605F9
:10483000D0E0C0E080E00C171D0749F491E0811141
:1048400090E0892FDF91CF911F910F9108958111F1
:10485000F5CFCE01CEDF2196EECFA0919305B0919A
:104860009405109729F120919505309196058217AE
:104870009307F0F453E1589F9001599F300D112494
:10488000A20FB31FED91FC911197309789F012960A
:104890008C91681768F48BE0689FE00DF11D11247E
:1048A00080819181892B21F081E09281491708F064
:1048B00080E008959C0143E1429FC001439F900D19
:1048C0001124E0919305F0919405E80FF91F838579
:1048D000823099F481E090E0658176814091AB026D
:1048E0005091AC026417750711F490E080E0892BB9
:1048F00021F081E02230310508F080E00895EF9248
:10490000FF920F931F93CF93DF93EA01FC01E60F11
:10491000F71F02811381E480F5804F2D6E2DC801B1
:104920009CDF81110DC082E090E0998388838EEF37
:104930009FEFDF91CF911F910F91FF90EF9008951E
:10494000C80157DF882339F082E090E0998388839B
:1049500088EF9FEFEECF1093B2020093B102E09286
:10496000B302F092B40281E090E09983888390E0F2
:1049700080E0DFCFCF92DF92EF92FF920F931F93F1
:10498000CF93DF937A01EC01C60FD71FC090B1021D
:10499000D090B2020091B3021091B402412F602F67
:1049A000C6015BDF811110C082E090E0F7019183C6
:1049B00080838AEF9FEFDF91CF911F910F91FF903E
:1049C000EF90DF90CF900895C60113DF882341F068
:1049D00082E090E0F7019183808388EF9FEFEBCF37
:1049E0004C815D816E817F819A8189818F3F41F009
:1049F00082E090E0F701918380838EEF9FEFDBCF21
:104A0000E3E1EC9D9001ED9D300D1124E0919305C3
:104A1000F0919405E20FF31F0190F081E02D2BE05F
:104A2000029FE00DF11D11240190F081E02D27E09F
:104A3000129FE00DF11D1124808391838B8182836D
:104A400043835483658376831F5F1093B40281E0B0
:104A500090E0F7019183808390E080E0ACCFEF920B
:104A6000FF920F931F93CF93DF937A018C01060F70
:104A7000171FC0919305D0919405209781F021E0F4
:104A800030E0F8018281938140919505509196051F
:104A90008417950710F030E020E0232B71F482E0BA
:104AA00090E0F701918380838EEF9FEFDF91CF91AC
:104AB0001F910F91FF90EF90089543E1489F90015F
:104AC000499F300D1124C20FD31F93DE882341F07C
:104AD00082E090E0F7019183808388EF9FEFE6CF3B
:104AE000F8012481358120383105C8F6878181118C
:104AF000D6CF4181842F90E08F7E009741F082E0F5
:104B000090E0F7019183808386EF9FEFCFCF4F83B3
:104B10003E832D83268128871986223010F421E0D8
:104B2000288721E030E0F70131832083BFCF88E080
:104B300090E0FA019183808390E080E00895FB018A
:104B40008FEF808381E181838FEF9FEF9383828357
:104B500080E890E095838483168217820895FB0194
:104B60008FEF808391E0918382839383848384E3B6
:104B7000858381E090E0978386830895BF92CF92EA
:104B8000DF92EF92FF920F931F93CF93DF93DA019F
:104B9000FC01E60FF71F8181813081F082E090E017
:104BA0008D939C938FEF9FEFDF91CF911F910F918A
:104BB000FF90EF90DF90CF90BF900895C281D38196
:104BC000B480858106811781E0909305F09094056B
:104BD000E114F10439F482E090E08D939C938CEF22
:104BE0009FEFE2CF2091950530919605C217D3072C
:104BF00038F082E090E08D939C938EEF9FEFD4CFBE
:104C0000C230D10538F082E090E08D939C9386EF1E
:104C10009FEFCACF9B2D9D7FB1F78130A1F7B110D7
:104C200005C00130110531F080E004C081E00230A0
:104C30001105D0F3882339F36D01CE01DADD882325
:104C400041F082E090E0F6019183808388EF9FEF4E
:104C5000ABCF83E18C9FF0018D9FF00D1124EE0D01
:104C6000FF1DB38681E0848716870587108A178623
:104C700081E090E0F6019183808390E080E094CF22
:104C80004CE050E062E573E066CA8F929F92BF925B
:104C9000CF92DF92EF92FF920F931F93CF93DF9308
:104CA000EA01FC01E60FF71F828193810481B58040
:104CB000E0919305F0919405309791F482E090E0B3
:104CC000998388838CEF9FEFDF91CF911F910F9194
:104CD000FF90EF90DF90CF90BF909F908F900895BE
:104CE00020919505309196058217930738F082E060
:104CF00090E0998388838EEF9FEFE6CF23E1289F92
:104D00006001299FD00C1124EC0DFD1DE080F18085
:104D1000E114F10499F28281081748F78BE0089FAB
:104D200080011124E00EF11EF70180819181892B11
:104D300029F6BB20E1F2F7E0BF9E40011124C40137
:104D40000E948632F70191838083E0919305F09170
:104D50009405EC0DFD1D0190F081E02DE00FF11F99
:104D600080819181009739F482E090E09983888373
:104D70008DEF9FEFA9CFA40170E060E00E946F4A21
:104D80008091930590919405C80ED91EF6018081FB
:104D90009181080F191FF801B28281E090E0998398
:104DA000888390E080E090CFAF92BF92CF92DF9265
:104DB000FF920F931F93CF93DF93EA01FC01E60F5D
:104DC000F71F82819381F4800091930510919405DF
:104DD0000115110581F482E090E0998388838CEFBE
:104DE0009FEFDF91CF911F910F91FF90DF90CF90B8
:104DF000BF90AF9008952091950530919605821748
:104E0000930738F082E090E0998388838EEF9FEFDC
:104E1000E8CF2FEF2F0D2C3FA8F723E1289F60014B
:104E2000299FD00C11240C0D1D1DF801808191814A
:104E3000892B89F6FBE0FF9E50011124C5010E94D9
:104E40008632F80191838083E0919305F091940577
:104E5000EC0DFD1D80819181009739F482E090E096
:104E6000998388838DEF9FEFBCCFA50170E060E050
:104E70000E946F4AE0919305F0919405EC0DFD1DA1
:104E8000F28281E090E09983888390E080E0A9CF6E
:104E9000CF92DF92EF92FF920F931F93CF93DF9306
:104EA000860F971FFC0102811381809193059091D9
:104EB0009405892B81F082E090E0FA019183808350
:104EC0008CEF9FEFDF91CF911F910F91FF90EF90AB
:104ED000DF90CF900895C801B0E0A0E00197A1094C
:104EE000B1098F3F9F4FA105B10540F082E090E0EE
:104EF000FA01918380838EEF9FEFE4CF7A0183E103
:104F0000809F6001819FD00C1124C6010E948632CF
:104F1000EC01009741F482E090E0F70191838083F7
:104F20008DEF9FEFCFCFA60170E060E00E946F4A47
:104F3000D0939405C093930510939605009395051F
:104F400090E080E02FEF3FEF41E061E070E08017FC
:104F5000910741F481E090E0F7019183808390E034
:104F600080E0B0CF3A8B298B1B864C877E876D877C
:104F7000188A1F8601966396EACFCF92DF92EF924E
:104F8000FF920F931F93CF93DF93EC01D12CC12C91
:104F900010E000E0F12CE12C6A816017110609F0A5
:104FA000CCF483E0689FB0011124AE014F5E5F4FE7
:104FB000C7010E940133009721F02FEF3FEF3A8B9A
:104FC000298BDF91CF911F910F91FF90EF90DF9090
:104FD000CF900895E881F981EC0DFD1D4381548146
:104FE0008D859E85489F9001499F300D589F300DBB
:104FF0001124C90101960115110519F44F8144FDD1
:10500000049661E070E00E943F31E816F90608F46A
:105010007C010F5F1F4F8BE0C80ED11CBDCFF894F1
:10502000209191053091920581E02115310509F01B
:1050300080E0232B09F0789408952F923F924F92AD
:105040005F926F927F928F929F92AF92BF92CF9218
:10505000DF92EF92FF920F931F93CF93DF933C0168
:10506000660E771EF301828193814C01B12CA12C35
:10507000C0919305D0919405209769F021E030E02C
:1050800060919505709196058617970710F030E0AE
:1050900020E0232BD1F482E090E0FA019183808319
:1050A0008EEF9FEFDF91CF911F910F91FF90EF90C7
:1050B000DF90CF90BF90AF909F908F907F906F9038
:1050C0005F904F903F902F9008958092B5029092FC
:1050D000B602A092B702B092B80263E1689F900155
:1050E000699F300D1124C20FD31FF30181818330DA
:1050F00040F082E090E0FA019183808386EF9FEF99
:10510000D1CF2A012B813C81232BF1F428813981D5
:105110009F8191FF2EC0232B09F46FC02091980529
:105120009A81422F490F5527551FBA0141E050E09F
:105130006138710514F050E040E0452B09F45DC082
:105140002A87920F909398058150823008F481C08D
:1051500066DF882309F4D8C0F3018181813009F426
:105160008DC008F47BC0823009F4C6C090E080E0B6
:10517000ADC0232B09F441C0209197059A81E22FFD
:10518000E90FFF27FF1F41E050E0ED3FF10514F06C
:1051900050E040E0452B89F12A87920F90939705C4
:1051A000D3CFA081B181A20FB31F11966C91060FCE
:1051B000111D0196295F3F4F8417950794F38D8544
:1051C0009E85089F1001099F300C189F300C1124F8
:1051D000C114D104D1F48F8184FF17C00E948D3196
:1051E000F5E02F0E311C21E08215930508F420E034
:1051F000A701455F5F4F21110EC082E090E0F201F0
:105200009183808387EF9FEF4DCF0E948D312FEFE9
:10521000221A320AE8CF88819981E80EF91EF70137
:1052200014830383FFEFCF1ADF0A7A018A818C157A
:105230001D0409F00CF48CCFE881F981EE0DFF1DFF
:10524000428150E030E020E010E000E090E080E0BB
:10525000B3CFF12CE12CD12CC12CE8CF81E090E030
:105260009C838B83DDDA882309F480CF81E090E092
:105270000E948D2080E40E949B2078CF89899A89A2
:10528000019661F083E090E09C838B8382E090E064
:105290000E948D2080E40E94952068CF2D813E8160
:1052A0008091AB029091AC0228173907D1F460913C
:1052B000AF027091B002AE014F5E5F4F8091AD02C0
:1052C0009091AE020E94F3330097E1F2789422E0CD
:1052D00030E0F20131832083892B99F08DEF9FEF2D
:1052E000E1CE22E082169104A104B1045CF6CE0165
:1052F00044DE188A1F86E8CF82E090E09C838B838F
:1053000035CF90E080E0CECE82E090E0F201918354
:10531000808385EF9FEFC6CE8F929F92AF92BF9210
:10532000CF92DF92EF92FF920F931F93CF93DF9371
:10533000EA018C01060F171FF8018181833098F074
:1053400082E090E09983888386EF9FEFDF91CF9191
:105350001F910F91FF90EF90DF90CF90BF90AF9093
:105360009F908F9008958091930590919405892B3B
:1053700061F081E090E02091950530919605232B16
:1053800011F490E080E0892B39F482E090E0998379
:1053900088838EEF9FEFDACF42DE882309F4DEC0E8
:1053A000F8018181813009F494C0E8F0823099F4E9
:1053B0002091950530919605E0919305F091940523
:1053C00090E080E041E050E02817390709F0BCC0C8
:1053D00027DA811117C0789481E090E0998388835F
:1053E00090E080E0B3CF2091950530919605E09153
:1053F0009305F091940590E080E041E050E028179B
:10540000390741F481E090E00E948D2080E40E9401
:105410009B20E1CF63817481672B11F05483438318
:1054200001967396ECCFE0919305F0919405E00F0F
:10543000F11F2381348122303105D9F42189328949
:105440002F3F3F4FB1F4458156812091AB023091FF
:10545000AC024217530761F5AF014F5E5F4F609199
:10546000AF027091B0028091AD029091AE020E94A5
:10547000F3334FEFC41AD40AE40AF40A0D5E1F4F47
:10548000409195055091960570E060E0C416D506F0
:10549000E606F70634F5009731F27894892B09F483
:1054A0009BCF82E090E0998388838DEF9FEF4ECF72
:1054B00022E0C216D104E104F104DCF6CF015DDD87
:1054C000E0919305F0919405E00FF11F108A178683
:1054D000D0CF10E000E090E080E0C12CD12C76012C
:1054E000CFCF0097D1F610E000E0812C912C540131
:1054F00083E0E82EF12C1AC0E0919305F091940519
:10550000E00FF11F83819481029749F4F482E382D2
:1055100082E090E00E948D2080E40E9495208FEF31
:10552000881A980AA80AB80A0D5E1F4F809195053F
:1055300090919605B0E0A0E088169906AA06BB06F1
:10554000DCF290E080E0A9CF638174816230710564
:1055500011F4548343830196739636CF82E090E032
:105560009983888385EF9FEFF1CE0097B9F48FEF91
:10557000FB0180832091B5023091B60243E1429F46
:10558000C001439F900D1124E0919305F091940583
:10559000E80FF91F8285FB01818308950C94442054
:1055A00088E090E0FA019183808390E080E00895A4
:1055B0001092920510929105E3E9F5E086E0DF0193
:1055C0001D928A95E9F780E496E290939005809386
:1055D0008F05089580918F059091900508952F92E1
:1055E0003F924F925F926F927F928F929F92AF9273
:1055F000BF92CF92DF92EF92FF920F931F93CF93C0
:10560000DF93CDB7DEB760970FB6F894DEBF0FBE5D
:10561000CDBFF894E0919105F09192053196F09309
:105620009205E09391057894A0919305B09194052B
:10563000BA83A983109709F4FAC1E0919505F09116
:105640009605EF2B09F4F3C128874B875C876D879C
:105650007E879A878987B88BAF87312C212CF12CD4
:10566000512C412C8091950590919605281639066C
:1056700010F4FF2029F1F894809191059091920502
:10568000019790939205809391057894C20160965A
:105690000FB6F894DEBF0FBECDBFDF91CF911F9143
:1056A0000F91FF90EF90DF90CF90BF90AF909F90C1
:1056B0008F907F906F905F904F903F902F900895C4
:1056C000B10190E080E087D4682EEF85F88987816A
:1056D00081FD3DC0838194810397C9F52581368181
:1056E0003C832B8389859A852817390781F5C10169
:1056F000E1D8782E8823A9F1AF85B8891F968D91BE
:105700009C915097019621E01D964D915C918417D4
:10571000950709F020E02F83B12CA12CEF85F889A3
:1057200082818A151B0419F014F0FF20E9F0F88536
:10573000FF2309F46CC1AF85B88950961C921E9264
:105740001F97662021F0B10190E080E046D4FFEF82
:105750002F1A3F0A2F8538892D5E3F4F388B2F87B0
:1057600081CFB1E0BF83D8CFBFD49E838D83E8853E
:10577000EE23E9F0772009F43CC1AF85B8891F9684
:105780008D919C91892B79F0BBE0BA9DC001BB9DA6
:10579000900D1124AF85B889ED91FC91E80FF91FA8
:1057A0008581968102D7BFEFAB1ABB0AB7CF81E0E4
:1057B000772039F0EF85F88927853089232B09F088
:1057C00080E0F82EE12CA114B10439F4AF85B8893A
:1057D0001796EC90E4FAEE24E0F8BBE0BA9D600185
:1057E000BB9DD00C1124882309F424C1AF85B8894E
:1057F000ED91FC911197EC0DFD1D438154811D9697
:105800002D913C91429FC001439F900D529F900D5E
:105810001124E1105DC001969087878361E070E0FC
:10582000878190852CD5EF85F8892189328900817F
:1058300011810C0D1D1D2F3F320709F44BC0BC0117
:10584000C9010E943434D80116969C938E93159703
:10585000AF85B889ED91FC911197EC0DFD1D058187
:1058600016810115110509F4CDC0ED81FE810E0FE1
:105870001F1F1A968C918A0DD8018C93E1102FC0AE
:105880000F5F1F4FAF85B889ED91FC91EC0DFD1DA9
:1058900012870187AF85B889ED91FC91EC0DFD1D54
:1058A00085819681892B09F4A4C08091AB029091E7
:1058B000AC022B813C812817390709F465C0772099
:1058C00011F001851285912C812C1A8219824AC00F
:1058D0000596A2CF1BD6F80196838583B9CF8B8519
:1058E0009C85AD85BE85F80181839283A383B483B3
:1058F0000B5F1F4FC7CFE080F180E80CF91CD70188
:1059000013966D917C9114978C918F3F09F473C01D
:10591000E1E0F0E002C0EE0FFF1F8A95E2F7CF0151
:10592000092E000CAA0BBB0BFB0140815181628147
:10593000738184239523A623B72321E0892B8A2B07
:105940008B2B09F420E0D8012C93D70111968C9170
:10595000080F111DE981FA813196FA83E983F7E096
:105960008F0E911CAF85B889ED91FC91EC0DFD1D5A
:10597000828129813A818217130611F00CF0BBCF86
:10598000772011F0128701873F81332391F1AF8592
:10599000B889ED91FC91EC0DFD1D61E070E087810F
:1059A00090856DD4AF85B889ED91FC91EC0DFD1D0E
:1059B000E780F08445815681E1E0F0E0662011F057
:1059C000F0E0E0E00D811E819C01B101882799275C
:1059D0008E1B9F0B8CD32C01892B59F0EF85F889F6
:1059E00080819181C80ED91ED60115968D919C910A
:1059F000DCD5F12CD8CEF701418150E0C8010E94DE
:105A0000664AA3CF86EF482E55245A94CCCEEF8514
:105A1000F889878590890196908B878725853685BB
:105A20008217930709F08DCE108A17868ACE512CE3
:105A3000412C21CE10E000E02DCF2F923F924F92CB
:105A40005F926F927F928F929F92AF92BF92CF920E
:105A5000DF92EF92FF920F931F93CF93DF9380918A
:105A600093059091940510E000E0892BA9F0D7DA16
:105A70000AEF1FEF882381F020909505309096055E
:105A8000C0919305D0919405D12CC12C10E000E079
:105A90002C143D04A9F47894C801DF91CF911F9193
:105AA0000F91FF90EF90DF90CF90BF90AF909F90BD
:105AB0008F907F906F905F904F903F902F900895C0
:105AC000C6010E945A24882309F18B819C81039787
:105AD000E9F48F859889892BC9F0B60190E080E0C0
