:1000000005C100000C94462F0C94712F0C949C2F6A
:100010000C94C72F0C94F22F0C941D300C94483084
:100020000C94733024C1000022C1000020C10000E4
:100030001EC100001CC100001AC1000018C1000050
:1000400016C1000014C1000012C1000010C1000060
:100050000EC100000CC100000AC100000C949E30CB
:1000600006C100000C949A340C94D03400C10000F6
:10007000FEC00000FCC00000FAC00000F8C0000094
:10008000F6C00000F4C00000F2C00000F0C00000A4
:100090000C9426350C945C35EAC00000E8C00000E2
:1000A000E6C00000E4C00000E2C00000E0C00000C4
:1000B000DEC00000DCC00000DAC00000D8C00000D4
:1000C000D6C00000D4C00000D2C000000C94B235ED
:1000D0000C94E835CCC000000C943E360C94743679
:1000E000C6C0000000000A0B02090C0D0E08070331
:1000F00004010000000000000000000000000000FB
:1001000000000000000000000000000000000000EF
:1001100012111000000000000000000000000000AC
:100120000000000000000000000001021020200874
:100130000810204010204080020102010804020142
:1001400001020408102040808040201008040201B1
:10015000800402018040201008040201080402010A
:100160000102040810204080010204081020408091
:1001700005050505070508080808020202020A0A23
:100180000808040404040101010101010101030341
:10019000030303030303040707070C0C0C0C0C0CEC
:1001A0000C0C0202020206060606060606060B0BE9
:1001B0000B0B0B0B0B0B000020002300260029006B
:1001C0002C002F003200000100000301060109018C
:1001D00000002200250028002B002E0031003400F2
:1001E00002010000050108010B01000021002400AC
:1001F00027002A002D003000330001010000040117
:1002000007010A01F934853511369D3611241FBEC8
:10021000CFEFD1E2DEBFCDBF00E00CBF12E0A0E027
:10022000B2E0EAE9FEE600E00BBF02C007900D92E3
:10023000AE3FB107D9F729E0AEEFB2E001C01D92A1
:10024000A43DB207E1F711E0C6E0D1E000E006C04E
:1002500021970109802FFE010E941A37C230D10771
:1002600080E00807A9F70E94202C0C944B37C8CED9
:10027000611102C00C94DF326130E1F362E0FACF29
:10028000662319F061E00C941B3360E0FCCFCF9340
:10029000DF93EC0170E060E06C177D070CF5072E32
:1002A000000C880B990B0E94B42D20E030E0A901CE
:1002B0000E94B12C20E030E0A9010E94B12C20E086
:1002C00030E040E450E40E94B12C20E030E040E413
:1002D00050E40E94B02C0E94812D6F5F7F4FDCCFD5
:1002E000DF91CF9108950F931F93CF93DF93EC018C
:1002F0008C810E9448338C018C859D85C8DF888560
:100300000E944833488159816A817B81019781F439
:100310000130110579F44F5F5F4F6F4F7F4F488376
:1003200059836A837B83DF91CF911F910F91089549
:10033000012B89F34150510961097109F0CF8FEF09
:1003400092E0D1CF8FE093E0CECF8FE193E0CBCF9F
:100350008FE293E0C8CF0F931F93CF93DF93EC010D
:1003600088850E9448338C018C859D8590DF8C8127
:100370000E944833488159816A817B81019779F4D1
:10038000012B81F44F5F5F4F6F4F7F4F488359833D
:100390006A837B83DF91CF911F910F910895013084
:1003A000110581F34150510961097109EFCF8FEFB8
:1003B00092E0D1CF8FE093E0CECF8FE193E0CBCF2F
:1003C0008FE293E0C8CF0F931F93CF93DF93D82F83
:1003D000C62F8A01E091FE0280E1E89FF00111241E
:1003E000E150FD4F8D2F90E0B0E0A0E08483958335
:1003F000A683B783862F90E0B0E0A0E08087918746
:10040000A287B387108211821282138281E090E06A
:10041000A0E0B0E084879587A687B78760E08D2F3E
:100420000E94DF3260E08C2F0E94DF328091FE025A
:10043000813009F43FC0A8F0823009F462C08330F3
:1004400009F486C08091FE0291E0980F9093FE021D
:10045000F801808390E080E0DF91CF911F910F91B0
:10046000089580E0D23049F081E0D33031F08EEE53
:100470008D0F8430D8F487E18D1B41E050E067EDAB
:1004800071E00E94CC2E80E0C23049F081E0C330A0
:1004900031F08EEE8C0F843058F487E18C1B41E0F4
:1004A00050E06FE971E00E94CC2ECCCF8FEFE5CF0A
:1004B0008FEFF5CF80E0D23049F081E0D33031F0DA
:1004C0008EEE8D0F8430C8F487E18D1B41E050E043
:1004D0006AED71E00E94CC2E80E0C23049F081E0EC
:1004E000C33031F08EEE8C0F843048F487E18C1BE2
:1004F00041E050E062EA71E0D6CF8FEFE7CF8FEFB7
:10050000F7CF80E0D23049F081E0D33031F08EEE89
:100510008D0F8430C8F487E18D1B41E050E06DED14
:1005200071E00E94CC2E80E0C23049F081E0C330FF
:1005300031F08EEE8C0F843048F487E18C1B41E063
:1005400050E065EA71E0AFCF8FEFE7CF8FEFF7CFE5
:1005500080E0D23049F081E0D33031F08EEE8D0F63
:100560008430C8F487E18D1B41E050E060EE71E01B
:100570000E94CC2E80E0C23049F081E0C33031F0DF
:100580008EEE8C0F843048F487E18C1B41E050E004
:1005900068EA71E088CF8FEFE7CF8FEFF7CF90E178
:1005A000899FF0011124E150FD4F80819181A2814A
:1005B000B381FB0180839183A283B38390E080E0C9
:1005C000089590E1899FF0011124E150FD4F1082C0
:1005D00011821282138290E080E0089590E080E022
:1005E0000895CF92DF92EF92FF92CF93882351F13B
:1005F0006A017B01CFEFC80F20E030E0A901CB01F9
:10060000B6010E94152D87FF11C0C701B601905891
:100610000E94862D9B01AC016C2F70E090E080E081
:10062000CF91FF90EF90DF90CF90B2C0C701B6019D
:100630000E94812D8C2FCF91FF90EF90DF90CF9073
:100640000C94A531CF91FF90EF90DF90CF9008955B
:100650000F931F938B019C0183E036952795179587
:1006600007958A95D1F7015C1C4F462F477021E012
:1006700030E0F90102C0EE0FFF1F4A95E2F7AF012B
:10068000F80120812423CB010196211102C090E0C2
:1006900080E01F910F9108950F931F938B019C0190
:1006A00083E036952795179507958A95D1F767705A
:1006B00081E090E001C0880F6A95EAF7F801E15CFB
:1006C000FC4F2081452B31F48095822380831F913C
:1006D0000F910895822BFACF2F923F924F925F9203
:1006E0006F927F928F929F92AF92BF92CF92DF9242
:1006F000EF92FF920F931F93CF93DF93D62EC72EC7
:10070000782E692E49015A01280161E08D2D0E9441
:10071000DF32CD2DDC2D8E010F5F1F4FA8016D2D17
:100720007C2D872D962DB8DF20E030E0A901C20195
:10073000B7010E94642E181664F4C201B7010E942A
:10074000862D2B01C501B4010E94862DA201CE0188
:1007500023D0C801DF91CF911F910F91FF90EF90AF
:10076000DF90CF90BF90AF909F908F907F906F90D1
:100770005F904F903F902F900895882341F08150D3
:10078000682F70E090E080E050E040E085CF089571
:10079000862FB9010C94A5319C01FC01EC51FF4F4F
:1007A000E491E150E231E0F4F0E08827E552FC4FBB
:1007B0008F4F0C941A37ED03F403F7030E04230450
:1007C000F0033804440448045F0474048904A0045A
:1007D000B504F003CA04E104F60484B5806884BD5E
:1007E00060E0822F0C941B3384B58062F8CF809137
:1007F00080008C7F82608093800080918100807E69
:100800008061682B6093810050938700409386003D
:1008100080918000806880938000E2CF809180008A
:100820008C7F82608093800080918100807E8061D7
:10083000682B6093810050938700409386008091DD
:1008400080008062E8CF809180008C7F82608093FE
:10085000800080918100807E8061682B60938100A0
:100860005093870040938600809180008860D3CFAA
:100870008091B00080688093B0008091B100887F43
:10088000682B6093B100ACCF8091B0008062F3CF51
:10089000809190008C7F8260809390008091910085
:1008A000807E8061682B6093910050939700409305
:1008B00096008091900080688093900091CF809105
:1008C00090008C7F82608093900080919100807E68
:1008D0008061682B6093910050939700409396003D
:1008E000809190008062E8CF809190008C7F826040
:1008F0008093900080919100807E8061682B60934E
:1009000091005093970040939600809190008860EA
:10091000D3CF8091A0008C7F82608093A0008091D3
:10092000A100807E8061682B6093A1005093A70096
:100930004093A6008091A00080688093A00050CFD3
:100940008091A0008C7F82608093A0008091A100A4
:10095000807E8061682B6093A1005093A700409334
:10096000A6008091A0008062E8CF8091A0008C7FDB
:1009700082608093A0008091A100807E8061682BBE
:100980006093A1005093A7004093A6008091A0001F
:100990008860D3CF809120018C7F8260809320017A
:1009A00080912101807E8061682B609321015093AA
:1009B00027014093260180912001806880932001C7
:1009C0000FCF809120018C7F8260809320018091E5
:1009D0002101807E8061682B609321015093270163
:1009E00040932601809120018062E8CF8091200110
:1009F0008C7F82608093200180912101807E8061C4
:100A0000682B609321015093270140932601809128
:100A100020018860D3CF90E080E008950F931F936A
:100A2000009709F489C06115710509F485C000912A
:100A300020021091210220912202309123020E3FC8
:100A40001F4F2F4F3F4F09F068C04FEF5FEFBA01C4
:100A5000409320025093210260932202709323025C
:100A60004091200250912102609122027091230254
:100A7000DC011296ED91FC9180819181A281B3817C
:100A80008093460490934704A0934804B09349048C
:100A900084819581A681B781809342049093430419
:100AA000A0934404B093450480859185A285B385C5
:100AB00080933E0490933F04A0934004B09341047C
:100AC00084859585A685B78580933A0490933B04E9
:100AD000A0933C04B0933D04109236041092370466
:100AE00010923804109239040E94820F87EA9FE026
:100AF000909349038093480390934B0380934A0358
:100B00000E94710E009731F421E030E030934B04E5
:100B100020934A041F910F91089500912002109193
:100B200021022091220230912302DB010D931D93BB
:100B30002D933C93139794CF8FEF9FEFEBCF8F9232
:100B40009F92AF92BF92CF92DF92EF92FF921F934C
:100B5000CF93DF934B015C0110914D0482E090E054
:100B600090934B0480934A0481149104A104B1042E
:100B700041F480914D04811104C080914C04C1E086
:100B80008111C0E0C12CD12C760180914D048111DE
:100B900006C080914C04811102C0CC23D9F083E0BF
:100BA00090E090934B0480934A04CC2381F1CCE9EC
:100BB000DFEF111102C00E940C13CE01DF91CF9123
:100BC0001F91FF90EF90DF90CF90BF90AF909F90DC
:100BD0008F9008956AE070E080E090E00E940D310F
:100BE00080E1C80E87E2D81EE11CF11C8FEF881649
:100BF0009806A806B80631F0C1E08C149D04AE0436
:100C0000BF0408F0C0E080E00E94A50EBECFD0E097
:100C1000C0E0CFCFCF92DF92EF92FF920F931F935E
:100C2000CF93DF938F3F910511F008F051C02091D1
:100C30004A0430914B042330310539F020914A04A5
:100C400030914B042130310531F424E030E0309311
:100C50004B0420934A046A017B01EC018230910528
:100C6000A8F011E0AE01C701B6010E94700EAB0101
:100C7000BC01CE011123F9F0DF91CF911F910F91AB
:100C8000FF90EF90DF90CF900C9435158C01000F02
:100C9000111F085B1C4FD8018D919C91892B09F382
:100CA0000E943F150297E9F6D801ED91FC91CE0123
:100CB0001995182FD7CF0E94571590E080E0DF914B
:100CC000CF911F910F91FF90EF90DF90CF900895FB
:100CD0008FEF9FEFF4CF80E00C94A50ECF93DF93BE
:100CE00086E090E090934B0480934A040E94FE0EAD
:100CF000EC01E8E4F3E084E0DF011D928A95E9F776
:100D00000E94A41210924B0410924A04CE01DF916B
:100D1000CF91089580914C040895809135040895F1
:100D20006093200270932102809322029093230209
:100D300090E080E008952F923F924F925F926F92E1
:100D40007F928F929F92AF92BF92CF92DF92EF925B
:100D5000FF920F931F93CF93DF93CDB7DEB76A97C0
:100D60000FB6F894DEBF0FBECDBFC0901002D0907A
:100D70001102E0901202F0901302A7019601609117
:100D800041097091420980914309909144090E9460
:100D9000152D882341F0C0924109D0924209E0927A
:100DA0004309F09244098091400981111092400951
:100DB000BE016F5F7F4F80914509F1DB69817A81C8
:100DC0008B819C810E94B42D2091140230911502D8
:100DD00040911602509117020E94682E209118022D
:100DE0003091190240911A0250911B020E94682E04
:100DF0009B01AC012093A6093093A7094093A80951
:100E00005093A90980911C0290911D02A0911E028D
:100E1000B0911F028D839E83AF83B887BC01CD0143
:100E20000E94B02C6F87788B898B9A8B6093AA096C
:100E30007093AB098093AC099093AD09E0910F04D6
:100E4000F0911004C080D180E280F38060905E0950
:100E500070905F098090600990906109A7019601E8
:100E6000B301C4010E94642E87FD4CC0A701960106
:100E7000609166097091670980916809909169098C
:100E80000E94642E87FD3EC01092AE091092AF09F9
:100E90001092B0091092B10960906E0970906F09BC
:100EA00080907009909071091091760900917709EE
:100EB000B0907809A0907909A7019601B301C40107
:100EC0000E94642E212F302F4B2D5A2D87FD68C094
:100ED000C701B6010E94152D18160CF0F3C0212F82
:100EE000302F4B2D5A2DB301C4010E94152D87FDC3
:100EF0005DC020907A0930907B0940907C09509029
:100F00007D096BC0A0906609B090670900916809DF
:100F1000109169099501A801B301C4010E94152D22
:100F2000A701960187FF2DC0B501C8010E94152DAC
:100F300087FD2DC0209162093091630940916409B9
:100F400050916509530184016D817E818F8198855F
:100F50000E94B02C2B013C019501A801C701B601EC
:100F60000E94B02C9B01AC01C301B2010E94192D5B
:100F70006093AE097093AF098093B0099093B10963
:100F80008BCFB301C4010E94642E87FDD3CF209183
:100F90006A0930916B0940916C0950916D09D4CF69
:100FA000B301C4010E94152D87FF0BC0212F302FE4
:100FB0004B2D5A2DC701B6010E94642E18160CF451
:100FC00098CF209072093090730940907409509026
:100FD0007509162D072DB82CA92C212F302F4B2D3C
:100FE0005A2DC701B6010E94B02C4B015C01A20131
:100FF00091016091AE097091AF098091B009909113
:10100000B1090E94B02CA50194010E94192D4B0139
:101010005C018091040290910502A0910602B091BA
:10102000070289879A87AB87BC879C01AD0160E086
:1010300070E080E89FE30E94192DA50194010E94B1
:10104000682E6B8B7C8B8D8B9E8B50907E09409095
:101050007F09309080092090810910918609609065
:1010600087097090880900918909A7019601652D6B
:10107000742D832D922D0E94642E212F362D472D05
:10108000502F87FD23C0C701B6010E94152D812C6A
:10109000912C540118160CF04FC0212F362D472DDE
:1010A000502F652D742D832D922D0E94152D87FDB7
:1010B00015C080908A0990908B09A0908C09B090FF
:1010C0008D0922C0812C912C5401A3CF652D742D44
:1010D000832D922D0E94152D87FF0AC0212F362DBA
:1010E000472D502FC701B6010E94642E18160CF32D
:1010F0008090820990908309A0908409B09085091E
:10110000152D642C732C022D212F362D472D502F99
:10111000C701B6010E94B02C2B013C01A50194012E
:101120006D817E818F8198850E94B02CA3019201F0
:101130000E94192D4B015C0129853A854B855C8500
:10114000609100027091010280910202909103026D
:101150000E94192DA50194010E94682E6F8B788F33
:10116000898F9A8F209108023091090240910A02DA
:1011700050910B026F85788989899A890E94682E1F
:101180002B013C014092B2095092B3096092B4091C
:101190007092B50990918E099D83A0918F09A987BE
:1011A000B0919009BD87E0919109EE871091960961
:1011B000209097093090980900919909A70196010C
:1011C000692F7A2F8B2F9E2F0E94642E212F322D74
:1011D000432D502F87FD1CC0C701B6010E94152D5D
:1011E00018160CF0F8C1212F322D432D502F6D8190
:1011F00079858D859E850E94152D87FD11C0809073
:101200009A0990909B09A0909C09B0909D091EC0DE
:101210006D8179858D859E850E94152D87FF0AC079
:10122000212F322D432D502FC701B6010E94642E6D
:1012300018162CF38090920990909309A09094092D
:10124000B09095091D8129843D840E85212F322D72
:10125000432D502FC701B6010E94B02C6B017C01B9
:10126000A5019401C301B2010E94B02CA70196010F
:101270000E94192D6B017C0120910C0230910D020E
:1012800040910E0250910F026F85788989899A8961
:101290000E94682E4B015C012F89388D498D5A8D33
:1012A0006B897C898D899E890E94B12C9B01AC0140
:1012B000C501B4010E94B12CA70196010E94B12C76
:1012C0006093B6097093B7098093B8099093B909F0
:1012D00020E030E04EE753E40E94682E20E030E04A
:1012E00040E451E40E94192D6B017C0120E030E0C4
:1012F000A9010E94642E10E061E0181694F020E02D
:1013000030E0A901C701B6010E94152DE894F7F855
:1013100011E060E087FD05C010E060E0C12CD12C39
:10132000760185E00E944001612F87E00E94400124
:1013300064E070E080E090E08BD98C0190935D09CF
:1013400080935C0920E030E04FE753E4C701B60129
:101350000E94152D181634F4C12CD12C8FE7E82EDD
:1013600083E4F82EB701A601C8013BD980915E093C
:1013700090915F09A0916009B09161098D839E836E
:10138000AF83B887C090C209D090C309E090C40968
:10139000F090C509A7019601BC01CD010E94152D51
:1013A00000910F0410911004811119C1F80180817E
:1013B0009181A281B38180935E0990935F09A0938C
:1013C0006009B0936109E2E6F9E080911C02909116
:1013D0001D02A0911E02B0911F028D839E83AF83D8
:1013E000B88780839183A283B38380916E099091A3
:1013F0006F09A0917009B091710989879A87AB87AD
:10140000BC879C01AD01C701B6010E94152DD80112
:101410008D909D90AD90BC90811114C180926E0909
:1014200090926F09A0927009B0927109E2E7F9E019
:101430008091AE099091AF09A091B009B091B10926
:1014400080839183A283B38380917E0990917F09E9
:10145000A0918009B091810989879A87AB87BC8761
:101460009C01AD01C701B6010E94152DD8018D90D8
:101470009D90AD90BC9081110BC180927E0990929D
:101480007F09A0928009B0928109E2E8F9E08D819C
:101490009E81AF81B88580839183A283B38380913D
:1014A0008E0990918F09A0919009B09191098D8337
:1014B0009E83AF83B8879C01AD01C701B6010E942E
:1014C000152DD8018D909D90AD90BC90811106C1D5
:1014D00080928E0990928F09A0929009B092910902
:1014E000E2E9F9E08091B2099091B309A091B409C1
:1014F000B091B50980839183A283B3834091FC03AB
:101500005091FD036091FE037091FF0390E080E035
:1015100081DB4091040450910504609106047091B0
:10152000070481E090E076DB6091FC037091FD039D
:101530008091FE039091FF036F5F7F4F8F4F9F4F0E
:101540006093FC037093FD038093FE039093FF036D
:1015500000910F04109110040E94B22D9B01AC0168
:101560006091000470910104809102049091030441
:101570000E94682EF8016083718382839383809137
:10158000040490910504A0910604B091070401960B
:10159000A11DB11D8093040490930504A09306043B
:1015A000B09307046A960FB6F894DEBF0FBECDBFA6
:1015B000DF91CF911F910F91FF90EF90DF90CF902F
:1015C000BF90AF909F908F907F906F905F904F9063
:1015D0003F902F900895C12CD12C76014DCE409094
:1015E0006609509067096090680970906909D80190
:1015F0008D909D90AD90BC90A3019201C701B60162
:101600000E94152D81110BC0809266099092670986
:10161000A0926809B0926909EAE6F9E0D6CEA30182
:1016200092016D817E818F8198850E94152D87FFA3
:10163000EBCF80925E0990925F09A0926009B09210
:101640006109C1CE40907609509077096090780981
:1016500070907909A3019201C701B6010E94152D6E
:1016600081110BC08092760990927709A092780937
:10167000B0927909EAE7F9E0DBCEA301920169852E
:101680007A858B859C850E94152D87FFEBCFC6CE72
:101690004090860950908709609088097090890968
:1016A000A3019201C701B6010E94152D81110BC043
:1016B0008092860990928709A0928809B092890940
:1016C000EAE8F9E0E4CEA301920169857A858B8589
:1016D0009C850E94152D87FFEBCFCFCE40909609B9
:1016E000509097096090980970909909A301920110
:1016F000C701B6010E94152D81110BC08092960979
:1017000090929709A0929809B0929909EAE9F9E0B4
:10171000E9CEA30192016D817E818F8198850E941F
:10172000152D87FFEBCFD4CE8F929F92AF92BF92B1
:10173000DF92EF92FF920F931F93CF93DF9384E09A
:1017400090E095D1E4E6F3E08CE094E09783868323
:10175000CFE0D4E0D093A503C093A40300E014E04D
:10176000158B048BF093CF03E093CE03F583E483D2
:1017700021E030E0DC012D933C938DE492E09387EF
:10178000828721E134E03983288340E050E060EF34
:1017900071E4409308045093090460930A04709321
:1017A0000B044FE652E163E87AE3D8014D935D9371
:1017B0006D937C931397CAEED3E08EE890E3A4EB8D
:1017C000B3E688839983AA83BB8384EF99E4ABE46F
:1017D000B8E68093EE039093EF03A093F003B093E9
:1017E000F1038BE49AEAAFE5B1E18093F2039093C1
:1017F000F303A093F403B093F5038FE391E4AEE910
:10180000B2ED8093F6039093F703A093F803B0939F
:10181000F903A8E5B3E0B383A283ECE4F3E0119607
:10182000FC93EE938FE592E0918380839383828390
:101830009583848397838683918780879387828724
:101840008AEF93E015969C938E9314971396DC93EE
:10185000CE93129717963C932E9316978091C209B8
:101860009091C309A091C409B091C509CAE3D9E018
:101870008CA39DA3AEA3BFA38CA79DA7AEA7BFA714
:101880008CAB9DABAEABBFAB8CAF9DAFAEAFBFAFC4
:1018900080937E0990937F09A0938009B09381097A
:1018A0008093860990938709A0938809B09389094A
:1018B00080938E0990938F09A0939009B09391091A
:1018C0008093960990939709A0939809B0939909EA
:1018D0001B8618828091100290911102A091120231
:1018E000B09113028F839887A987BA871D82812CB4
:1018F000912C5401839489829A82AB82BC8245E404
:1019000059E063E082E00E94E301DD24D394DD82AC
:101910001E828B850E94E1021C8A8D8A9E8AAF8A74
:10192000B88E61E085E00E943801D98E1C868D86D4
:101930009E86AF86B88A61E087E00E943801D98A26
:101940001C8E19A28D8E9E8EAF8EB8A2E12CF12C2A
:101950008701A801970164E070E080E090E00E94B8
:101960006C039BA38AA3D9A2DF91CF911F910F9102
:10197000FF90EF90DF90BF90AF909F908F90089571
:1019800080913A09811114C081E080933A098091D5
:101990003B0990913C09A0913D09B0913E09019706
:1019A000A105B10529F480913F0981110E94EE0241
:1019B00080914E09811103C081E080934E0980918E
:1019C0004609811103C081E0809346098091560940
:1019D00081112EC081E08093560980915709909122
:1019E0005809A0915909B0915A090197A105B1056B
:1019F000F9F480915B098823D9F064E070E080E01D
:101A000090E00E94280390935D0980935C0940E078
:101A100050E0BA010E94F10264E070E080E090E0E2
:101A20000E94280390935D0980935C090C94BD0388
:101A3000089560E070E080E89FE7089560E070E05E
:101A400080E89FE7089560E070E080E89FEF0895E8
:101A500060E070E080E89FEF089560E070E080EC67
:101A60009FEF089560E070E080EC9FEF0895F5DF50
:101A70006093C6097093C7098093C8099093C909F8
:101A8000F1DF6093BA097093BB098093BC0990930E
:101A9000BD09CFDF6093C2097093C3098093C40965
:101AA0009093C509CBDF6093BE097093BF09809303
:101AB000C0099093C109C7DF6093CA097093CB092D
:101AC0008093CC099093CD09C3DF6093CE097093C6
:101AD000CF098093D0099093D10908954F925F92D6
:101AE0006F927F928F929F92AF92BF92CF92DF922E
:101AF000EF92FF920F931F93F8944090250450901B
:101B000026046090270470902804C0901904D09097
:101B10001A04E0901B04F0901C044130510509F0B8
:101B2000A4C09B01AC0124193509460957092901B4
:101B30003A01009121041091220420912304309154
:101B4000240448015901840C951CA61CB71C80165E
:101B50009106A206B306A0F400911D0410911E0484
:101B600020911F04309120040F5F1F4F2F4F3F4FD4
:101B700000931D0410931E0420931F04309320042F
:101B80008092210490922204A0922304B092240413
:101B900000911D0410911E0420911F043091200417
:101BA0008092290490922A04A0922B04B0922C04D3
:101BB00000932D0410932E0420932F0430933004AF
:101BC000609325047093260480932704909328043F
:101BD000A8EEB3E0A30192010E9422376C0D7D1D97
:101BE0008E1D9F1D6093190470931A0480931B042B
:101BF00090931C0400912002109121022091220256
:101C0000309123020F3F1F4F2F4F3F4FF1F00091B4
:101C100020021091210220912202309123020E3FD6
:101C20001F4F2F4F3F4F89F0C0902002D0902102CC
:101C3000E0902202F090230221E08C149D04AE0477
:101C4000BF0408F420E02093350478941F910F918D
:101C5000FF90EF90DF90CF90BF90AF909F908F90CC
:101C60007F906F905F904F9008954B015C018418B6
:101C70009508A608B708A3019201261B370B480B4D
:101C8000590B6415750586059705D0F082169306E5
:101C9000A406B50640F420E030E0A90181149104C7
:101CA000A104B10491F4A8EEB3E00E942237A70189
:101CB0009601261B370B480B590BCA01B901C5CF3A
:101CC00082169306A406B50670F7A8EEB3E0A50148
:101CD00094010E9422376C0D7D1D8E1D9F1DB5CF76
:101CE000FDCECF93DF9300D01F92CDB7DEB71C821D
:101CF0001B821A82198210923104109232041092BF
:101D0000330410923404BE016F5F7F4FCE010396FF
:101D10000E94042B69817A818B819C810E945F24BF
:101D2000009761F4BE016F5F7F4FCE0103960E9462
:101D3000102B69817A818B819C812FD50F900F9018
:101D40000F900F90DF91CF910895FF920F931F9303
:101D5000CF93DF93082F60E070E0CB010E940D313C
:101D6000FF24F3940E944823EC01892B89F010E0B2
:101D7000CE3F8FEFD80769F0002361F160E070E09B
:101D8000CB010E940D3181E090E0892B59F322C0F4
:101D900011E026D5EC01892B21F0CE3F8FEFD8073B
:101DA00059F711111EC011E0229609F410E00E94AB
:101DB000F822EC01892B21F0CE3F8FEFD807E1F616
:101DC000111111C011E0CE3F8FEFD80709F410E0D8
:101DD00001110BC0CE01DF91CF911F910F91FF90A8
:101DE000089511E0E4CF11E0F3CF60E070E0CB01A3
:101DF0000E940D311F25812F90E0C7CFCF93DF9335
:101E000080913504882321F060E070E0CB014DD64D
:101E100036D6D0E0C0E0892B71F06AE070E080E057
:101E200090E00E940D3181E090DF29D62196C03DDF
:101E300027E0D20781F728D60E94B32410924D04E0
:101E400010924C04109246041092470410924804D9
:101E500010924904109242041092430410924404D8
:101E60001092450410923E0410923F0410924004D8
:101E70001092410410923A0410923B0410923C04D8
:101E800010923D04109236041092370410923804D8
:101E9000109239044EEF5FEF6FEF7FEF4093200217
:101EA0005093210260932202709323021092350412
:101EB000E9E2F4E028E0DF011D922A95E9F71092AB
:101EC00025041092260410922704109228041092E0
:101ED00021041092220410922304109224041092E0
:101EE0001D0410921E0410921F04109220041092E0
:101EF000190410921A0410921B0410921C04DF9112
:101F0000CF9108951092590410925A0410925B04D4
:101F100010925C04109258048091610490916204C4
:101F200090935704809356041092550410925404D1
:101F300010925004109251041092520410925304C3
:101F400010925E0410925D0490E080E00895CF92BC
:101F5000DF92EF92FF920F931F93CF938C01019723
:101F600009F055C0209161043091620480915604BB
:101F7000909157044091610450916204509357042A
:101F8000409356042817390781F010925504109297
:101F90005404109250041092510410925204109262
:101FA000530410925E0410925D048091610490913C
:101FB0006204019761F580915D0490915E04892B24
:101FC00021F480912402811112C080915D049091CE
:101FD0005E040197E1F48091500490915104A09126
:101FE0005204B09153040197A105B10581F41092F8
:101FF0005004109251041092520410925304109203
:10200000240282E090E090935E0480935D048091CE
:10201000610490916204019709F01CC180917704DA
:10202000909178048017910709F014C1809173048E
:1020300090917404A0917504B0917604009709F40E
:1020400009C12091720421110DC040917304509177
:1020500074046091750470917604452B462B472BD0
:1020600009F4F8C020915D0430915E0422303105FE
:1020700009F0F0C0209154042111ECC0FC01C08093
:10208000D180E280F38080915804882309F4D3C082
:102090008091640490916504892B09F4FEC020911D
:1020A00064043091650481E02230310509F080E05C
:1020B0002091640430916504C1E02130310549F07C
:1020C0002091640430916504C1E02230310509F0AB
:1020D000C0E0882309F456C020916E0430916F044B
:1020E0004091700450917104C701B6010E94642EA2
:1020F00087FD14C020916E0430916F0440917004EC
:10210000509171046091590470915A0480915B045C
:1021100090915C040E94152D87FD22C020916E04D1
:1021200030916F044091700450917104C701B60161
:102130000E94642E181634F520916E0430916F04BD
:1021400040917004509171046091590470915A0447
:1021500080915B0490915C040E94152D811112C046
:102160008091660490916704A0916804B09169041D
:10217000892B8A2B8B2B19F481E08093550481E005
:1021800080935404CC2309F456C020916E043091FE
:102190006F044091700450917104C701B6010E9410
:1021A000152D87FF14C020916E0430916F0440916B
:1021B0007004509171046091590470915A04809197
:1021C0005B0490915C040E94642E87FF22C02091E2
:1021D0006E0430916F044091700450917104C701F6
:1021E000B6010E94152D811126C020916E043091F8
:1021F0006F04409170045091710460915904709182
:102200005A0480915B0490915C040E94642E18161D
:1022100094F48091660490916704A0916804B09151
:102220006904892B8A2B8B2B19F481E08093550448
:1022300081E08093540481E090915404911180E0F6
:1022400080935804C0925904D0925A04E0925B04DF
:10225000F0925C040130110509F067C180915D04C2
:1022600090915E04892BD9F4109263041092540467
:1022700080912402882379F082E090E090935E04BC
:1022800080935D04109224022091610430916204D5
:1022900081E0232BE9F080E01BC081E009CF1092A0
:1022A000240280916304882349F01092550410920F
:1022B0005E0410925D0410926304EDCF809161047E
:1022C00090916204892BE1F080915404109254049F
:1022D00020915D0430915E042230310509F45EC026
:1022E00088F42115310509F448C02130310509F47D
:1022F000F3C010925504109254041092630438C035
:1023000081E0E6CF2330310509F4B1C02430310536
:1023100081F74091500450915104609152047091A2
:102320005304411551056105710561F04150510992
:102330006109710940935004509351046093520411
:102340007093530440915004509151046091520491
:1023500070915304452B462B472BD9F420915F04F1
:10236000309160042130310509F046C010925504C7
:1023700010925E0410925D040CC0809124028823A8
:1023800041F082E090E090935E0480935D041092AF
:10239000240210924E0480915504CEC08823C9F3C4
:1023A0008091660490916704A0916804B0916904DB
:1023B000181619061A061B060CF07DC080916104E0
:1023C00090916204019709F076C080916604909123
:1023D0006704A0916804B0916904809350049093BD
:1023E0005104A0935204B093530483E090E090937F
:1023F0005E0480935D04CDCF40916A0450916B04DC
:1024000060916C0470916D04452B462B472BA9F00D
:102410001092550480916A0490916B04A0916C0411
:10242000B0916D048093500490935104A093520492
:10243000B093530481E090E0DACF882399F0809143
:10244000250290912602A0912702B0912802809344
:10245000500490935104A0935204B093530484E029
:1024600090E0C5CF1092550482E090E0C0CF8091FB
:10247000500490915104A0915204B09153040097DC
:10248000A105B10559F00197A109B1098093500444
:1024900090935104A0935204B0935304809150043C
:1024A00090915104A0915204B0915304892B8A2B2E
:1024B0008B2B09F06ECF8091250290912602A0917E
:1024C0002702B0912802892B8A2B8B2B09F44ECF3F
:1024D00081E080935504B3CF409150045091510452
:1024E00060915204709153044115510561057105C5
:1024F00061F04150510961097109409350045093B2
:1025000051046093520470935304409150045091CD
:1025100051046091520470915304452B462B472B74
:1025200009F037CF8111C7CF9FCF80914E04882308
:1025300009F431CF80914F04CF911F910F91FF90FB
:10254000EF90DF90CF9008951092590410925A04A2
:1025500010925B0410925C041092580410925E0476
:1025600010925D0410925704109256041092780451
:102570001092770410925504109254041092500453
:1025800010925104109252041092530410924F046E
:1025900010924E04109273041092740410927504F9
:1025A000109276041092720410926E0410926F04CE
:1025B000109270041092710488EE93E0A0E0B0E0F5
:1025C0008093250290932602A0932702B0932802BD
:1025D00010926A0410926B0410926C0410926D04B5
:1025E00010926604109267041092680410926904B5
:1025F000109265041092640481E08093240210928A
:1026000063041092620410926104109260041092AC
:102610005F0490E080E008958091610490916204ED
:10262000892B19F580912402882351F0809163044D
:10263000811106C081E080934F0480934E04089579
:10264000209163043091240281E090E0332311F063
:1026500090E080E030E082239323892B21F01092D8
:102660004F0481E0EACF10924E04089582E090E09A
:10267000FA01918380838FEF9FEF0895CF93DF93CB
:10268000EA01009711F00E94D9251982188290E082
:1026900080E0DF91CF910895DB01009719F48FEF6F
:1026A0008C9308952EEF2C93FC013F96EF30F105AB
:1026B00008F034C08827E05AFC4E8F4F0C941A372C
:1026C0008C138A13881386138413801382137E134A
:1026D0007C137A13771373136F1375138E1380E3C0
:1026E00011968C93089589E2FBCF82E2F9CF11967F
:1026F0001C92089583E2F4CF81E2F2CF81E1F0CF22
:1027000087E2EECF8AE2ECCF80E1EACF84E2E8CF45
:1027100088E2E6CF86E2E4CF81E3E2CF80E2E0CF59
:102720008091850490918604089590938604809307
:102730008504089580918404089590918404892BE0
:10274000809384040895982F909580918404892320
:102750008093840408958091830408958091810476
:102760009091820408956115710559F0FB0130E0E4
:1027700020E070E060E02417350719F0611571055D
:1027800011F0CB010895A081B181A817B90709F410
:10279000BF012F5F3F4F3696EECF809187048111A6
:1027A0001CC060D266D290937A04809379040E9410
:1027B000E01D0E94F21D90937E0480937D040E9490
:1027C00060220E94672290937C0480937B0481E0C6
:1027D0008093870490E080E0089584EF9FEF089550
:1027E0008F929F92AF92BF92CF92DF92EF92FF9221
:1027F0000F931F93CF93DF9300D000D000D01F9290
:10280000CDB7DEB71A86198618861F821E821D82F2
:102810001C821B821A8219828091870407EF1FEFA6
:10282000882309F49CC08E010D5F1F4F9E012B5F12
:102830003F4FAE01495F5F4FBE01675F7F4F90E042
:1028400080E00E94E4238C01009721F00596029716
:1028500008F0DBC029853A852115310509F402C14C
:10286000ED80FE804B815C81B701640F751F8F8105
:1028700098858617970708F4F5C0E20EF31ED70176
:102880009C91903C09F07FC04230510508F47BC018
:1028900011968C914091850450918604452B09F442
:1028A0009CC0913F08F071C02CE1290F2D3008F435
:1028B0008BC02DE2290F203108F489C0903C21F40F
:1028C0008150823008F483C088E3890F8B3008F48C
:1028D00081C09CE4C92E93E1D92EE6E3F3E16D813A
:1028E0007E81AE014F5F5F4F89859A8519955C01A6
:1028F000C114D104A1F189809A808114910479F1E5
:102900008B819C818815990508F487C010E000E050
:102910004B815C8170E060E0C7010E944437011583
:102920001105E9F449815A8169857A858D819E81F5
:10293000680F791FC501F6011995E980FA800D81AC
:102940001E812F81388549855A856FEF7FEF81E0A1
:1029500090E00E947F238C01892B09F056C0C801AA
:102960002A960FB6F894DEBF0FBECDBFDF91CF9190
:102970001F910F91FF90EF90DF90CF90BF90AF909D
:102980009F908F90089580E085CF30E020E0220F67
:10299000331FF901E758FB4F0190F081E02D30978C
:1029A00009F497CF892F90E01995009709F491CFFA
:1029B000DC011296ED91FC9113971496CD90DC906A
:1029C000309709F08CCF1FC021E030E0E0CF22E04B
:1029D00030E0DDCF23E030E0DACFD12CC12CEEE3C4
:1029E000F3E19F3F09F07BCFE0917904F0917A0405
:1029F000309721F4C90104EF1FEF0CC08FEF90E076
:102A000019950097A9F604EF1FEF89859A8500971D
:102A100009F4A5CF0E94D925A2CF0E94AE248C0133
:102A200089859A850E94D92570E060E0C4010E94E2
:102A3000472498878F830E947C239E838D836F8198
:102A400078856115710559F0C8010E9438279A8769
:102A5000898706EF1FEF892B09F058CF59CF08EF70
:102A60001FEF56CF08EF1FEFD0CF2091870422230E
:102A700019F020E00C94F71D87EF9FEF08958091E7
:102A800085049091860408950E946C220E94C621BC
:102A9000F5D0E9E7F4E088E0DF011D928A95E9F7D7
:102AA0001092870490E080E008950C94252021E0A6
:102AB00040E050E0BA010C94F71D86E090E0FA0186
:102AC0009183808390E080E0089547E050E062E6E3
:102AD00072E049CEDF92EF92FF920F931F93CF9354
:102AE000DF938A01EC01C60FD71FE0908B04F090B2
:102AF0008C04D9800E949624D816190678F082E0BA
:102B000090E0F801918380838EEF9FEFDF91CF916A
:102B10001F910F91FF90EF90DF900895EF2841F4FF
:102B200082E090E0F8019183808384EF9FEFEECF05
:102B3000898180938A0490E00196F80191838083D3
:102B400090E080E0E3CFCF93DF93EA010E94D620AC
:102B5000882321F00E94A3240E94D72082E090E0E5
:102B6000998388838BEF9FEFDF91CF910895CF9367
:102B7000DF93EB0186E0FB0111928A95E9F78FEF75
:102B80008883D8DD8983E7DD8A83E8DD9D838C83B4
:102B9000DF91CF910895CF93DF93EA010E94D9206E
:102BA000811109C082E090E09983888385EF9FEFCF
:102BB000DF91CF91089590E080E0B7DD81E090E073
:102BC0009983888390E080E0F3CF0F931F93CF9396
:102BD000DF93EA018C01060F171F0E94D920811193
:102BE0000BC082E090E09983888385EF9FEFDF91AF
:102BF000CF911F910F910895F8018181823038F0B3
:102C000082E090E0998388838EEF9FEFF0CF81E0A0
:102C100090E08BDD88E090E09983888390E080E00D
:102C2000E6CFCF93DF930097D1F4EB01FB0132960F
:102C300086E0DF011D928A95E9F78FEF888385E0B2
:102C400089831A820E9496248B830E9495249D83F7
:102C50008C8381E08E838F83DF91CF910895DF9104
:102C6000CF911ACD85E695E19093890480938804ED
:102C700008958091880490918904089510928904A0
:102C800010928804089580918B0490918C0408958B
:102C9000411105C0611571058105910561F06093D1
:102CA0008B0470938C0480938D0490938E044093D6
:102CB0008F0481E0089580E00895FF920F931F93A1
:102CC000CF93DF938A01EC01C60FD71FF9800E94D2
:102CD0009624F816190668F082E090E0F8019183D6
:102CE00080838EEF9FEFDF91CF911F910F91FF9027
:102CF00008956C817D818E819F814B81C9DF811117
:102D000008C082E090E0F8019183808384EF9FEF18
:102D1000EACF898180938A0490E00196F80191833B
:102D2000808390E080E0DFCFCF93DF93EA01FC0166
:102D3000E60FF71F64817581868197814381A8DF43
:102D4000811109C082E090E09983888384EF9FEF2E
:102D5000DF91CF91089581E090E09983888390E09E
:102D600080E0F6CFEBE8F4E040815181628173812D
:102D7000480F511D611D711D408351836283738310
:102D80000895CF93C0918A044C2F50E060918B043A
:102D900070918C0401960E943B378C2FE3DF1092D8
:102DA0008A04CF910895009799F480918B049091B3
:102DB0008C042FEFFB012083892B59F020918A048A
:102DC00030E02F5F3F4F2417350719F4CB01D9CFDF
:102DD00063CC0895009799F480918B0490918C04B2
:102DE0002FEFFB012083892B59F020918A0430E0DA
:102DF0002F5F3F4F2417350719F4CB01C2CF4CCCBE
:102E0000089523E1AC01249FC001259F900D11245A
:102E1000E0919404F0919504E80FF91F2381348127
:102E20002250310981E02230310508F080E0089518
:102E30000F931F93CF93DF93009196041091970403
:102E4000D0E0C0E080E00C171D0749F491E081114B
:102E500090E0892FDF91CF911F910F9108958111FB
:102E6000F5CFCE01CEDF2196EECFA0919404B091A4
:102E70009504109729F120919604309197048217B8
:102E80009307F0F453E1589F9001599F300D11249E
:102E9000A20FB31FED91FC911197309789F0129614
:102EA0008C91681768F48BE0689FE00DF11D112488
:102EB00080819181892B21F081E09281491708F06E
:102EC00080E008959C0143E1429FC001439F900D23
:102ED0001124E0919404F0919504E80FF91F838583
:102EE000823099F481E090E06581768140912902F9
:102EF00050912A026417750711F490E080E0892B45
:102F000021F081E02230310508F080E00895EF9251
:102F1000FF920F931F93CF93DF93EA01FC01E60F1B
:102F2000F71F02811381E480F5804F2D6E2DC801BB
:102F30009CDF81110DC082E090E0998388838EEF41
:102F40009FEFDF91CF911F910F91FF90EF90089528
:102F5000C80157DF882339F082E090E099838883A5
:102F600088EF9FEFEECF1093300200932F02E09294
:102F70003102F092320281E090E09983888390E000
:102F800080E0DFCFCF92DF92EF92FF920F931F93FB
:102F9000CF93DF937A01EC01C60FD71FC0902F02A9
:102FA000D09030020091310210913202412F602FF7
:102FB000C6015BDF811110C082E090E0F7019183D0
:102FC00080838AEF9FEFDF91CF911F910F91FF9048
:102FD000EF90DF90CF900895C60113DF882341F072
:102FE00082E090E0F7019183808388EF9FEFEBCF41
:102FF0004C815D816E817F819A8189818F3F41F013
:1030000082E090E0F701918380838EEF9FEFDBCF2A
:10301000E3E1EC9D9001ED9D300D1124E0919404CD
:10302000F0919504E20FF31F0190F081E02D2BE069
:10303000029FE00DF11D11240190F081E02D27E0A9
:10304000129FE00DF11D1124808391838B81828377
:1030500043835483658376831F5F1093320281E03C
:1030600090E0F7019183808390E080E0ACCFEF9215
:10307000FF920F931F93CF93DF937A018C01060F7A
:10308000171FC0919404D0919504209781F021E0FE
:1030900030E0F80182819381409196045091970429
:1030A0008417950710F030E020E0232B71F482E0C4
:1030B00090E0F701918380838EEF9FEFDF91CF91B6
:1030C0001F910F91FF90EF90089543E1489F900169
:1030D000499F300D1124C20FD31F93DE882341F086
:1030E00082E090E0F7019183808388EF9FEFE6CF45
:1030F000F8012481358120383105C8F68781811196
:10310000D6CF4181842F90E08F7E009741F082E0FE
:1031100090E0F7019183808386EF9FEFCFCF4F83BD
:103120003E832D83268128871986223010F421E0E2
:10313000288721E030E0F70131832083BFCF88E08A
:1031400090E0FA019183808390E080E00895FB0194
:103150008FEF808381E181838FEF9FEF9383828361
:1031600080E890E095838483168217820895FB019E
:103170008FEF808391E0918382839383848384E3C0
:10318000858381E090E0978386830895BF92CF92F4
:10319000DF92EF92FF920F931F93CF93DF93DA01A9
:1031A000FC01E60FF71F8181813081F082E090E021
:1031B0008D939C938FEF9FEFDF91CF911F910F9194
:1031C000FF90EF90DF90CF90BF900895C281D381A0
:1031D000B480858106811781E0909404F090950475
:1031E000E114F10439F482E090E08D939C938CEF2C
:1031F0009FEFE2CF2091960430919704C217D30736
:1032000038F082E090E08D939C938EEF9FEFD4CFC7
:10321000C230D10538F082E090E08D939C9386EF28
:103220009FEFCACF9B2D9D7FB1F78130A1F7B110E1
:1032300005C00130110531F080E004C081E00230AA
:103240001105D0F3882339F36D01CE01DADD88232F
:1032500041F082E090E0F6019183808388EF9FEF58
:10326000ABCF83E18C9FF0018D9FF00D1124EE0D0B
:10327000FF1DB38681E0848716870587108A17862D
:1032800081E090E0F6019183808390E080E094CF2C
:103290004CE050E06CE872E066CA8F929F92BF9259
:1032A000CF92DF92EF92FF920F931F93CF93DF9312
:1032B000EA01FC01E60FF71F828193810481B5804A
:1032C000E0919404F0919504309791F482E090E0BD
:1032D000998388838CEF9FEFDF91CF911F910F919E
:1032E000FF90EF90DF90CF90BF909F908F900895C8
:1032F00020919604309197048217930738F082E06A
:1033000090E0998388838EEF9FEFE6CF23E1289F9B
:103310006001299FD00C1124EC0DFD1DE080F1808F
:10332000E114F10499F28281081748F78BE0089FB5
:1033300080011124E00EF11EF70180819181892B1B
:1033400029F6BB20E1F2F7E0BF9E40011124C40141
:103350000E948E25F70191838083E0919404F0917F
:103360009504EC0DFD1D0190F081E02DE00FF11FA3
:1033700080819181009739F482E090E0998388837D
:103380008DEF9FEFA9CFA40170E060E00E94443769
:103390008091940490919504C80ED91EF601808105
:1033A0009181080F191FF801B28281E090E09983A2
:1033B000888390E080E090CFAF92BF92CF92DF926F
:1033C000FF920F931F93CF93DF93EA01FC01E60F67
:1033D000F71F82819381F4800091940410919504E9
:1033E0000115110581F482E090E0998388838CEFC8
:1033F0009FEFDF91CF911F910F91FF90DF90CF90C2
:10340000BF90AF9008952091960430919704821751
:10341000930738F082E090E0998388838EEF9FEFE6
:10342000E8CF2FEF2F0D2C3FA8F723E1289F600155
:10343000299FD00C11240C0D1D1DF8018081918154
:10344000892B89F6FBE0FF9E50011124C5010E94E3
:103450008E25F80191838083E0919404F091950486
:10346000EC0DFD1D80819181009739F482E090E0A0
:10347000998388838DEF9FEFBCCFA50170E060E05A
:103480000E944437E0919404F0919504EC0DFD1DE9
:10349000F28281E090E09983888390E080E0A9CF78
:1034A000CF92DF92EF92FF920F931F93CF93DF9310
:1034B000860F971FFC0102811381809194049091E3
:1034C0009504892B81F082E090E0FA01918380835A
:1034D0008CEF9FEFDF91CF911F910F91FF90EF90B5
:1034E000DF90CF900895C801B0E0A0E00197A10956
:1034F000B1098F3F9F4FA105B10540F082E090E0F8
:10350000FA01918380838EEF9FEFE4CF7A0183E10C
:10351000809F6001819FD00C1124C6010E948E25DE
:10352000EC01009741F482E090E0F7019183808301
:103530008DEF9FEFCFCFA60170E060E00E9444378F
:10354000D0939504C0939404109397040093960429
:1035500090E080E02FEF3FEF41E061E070E0801706
:10356000910741F481E090E0F7019183808390E03E
:1035700080E0B0CF3A8B298B1B864C877E876D8786
:10358000188A1F8601966396EACFCF92DF92EF9258
:10359000FF920F931F93CF93DF93EC01D12CC12C9B
:1035A00010E000E0F12CE12C6A816017110609F0AF
:1035B000CCF483E0689FB0011124AE014F5E5F4FF1
:1035C000C7010E940526009721F02FEF3FEF3A8BAD
:1035D000298BDF91CF911F910F91FF90EF90DF909A
:1035E000CF900895E881F981EC0DFD1D4381548150
:1035F0008D859E85489F9001499F300D589F300DC5
:103600001124C90101960115110519F44F8144FDDA
:10361000049661E070E00E944724E816F90608F479
:103620007C010F5F1F4F8BE0C80ED11CBDCFF894FB
:10363000209192043091930481E02115310509F025
:1036400080E0232B09F0789408952F923F924F92B7
:103650005F926F927F928F929F92AF92BF92CF9222
:10366000DF92EF92FF920F931F93CF93DF933C0172
:10367000660E771EF301828193814C01B12CA12C3F
:10368000C0919404D0919504209769F021E030E036
:1036900060919604709197048617970710F030E0B8
:1036A00020E0232BD1F482E090E0FA019183808323
:1036B0008EEF9FEFDF91CF911F910F91FF90EF90D1
:1036C000DF90CF90BF90AF909F908F907F906F9042
:1036D0005F904F903F902F90089580923302909288
:1036E0003402A0923502B092360263E1689F9001E5
:1036F000699F300D1124C20FD31FF30181818330E4
:1037000040F082E090E0FA019183808386EF9FEFA2
:10371000D1CF2A012B813C81232BF1F428813981DF
:103720009F8191FF2EC0232B09F46FC02091990433
:103730009A81422F490F5527551FBA0141E050E0A9
:103740006138710514F050E040E0452B09F45DC08C
:103750002A87920F909399048150823008F481C097
:1037600066DF882309F4D8C0F3018181813009F430
:103770008DC008F47BC0823009F4C6C090E080E0C0
:10378000ADC0232B09F441C0209198049A81E22F07
:10379000E90FFF27FF1F41E050E0ED3FF10514F076
:1037A00050E040E0452B89F12A87920F90939804CE
:1037B000D3CFA081B181A20FB31F11966C91060FD8
:1037C000111D0196295F3F4F8417950794F38D854E
:1037D0009E85089F1001099F300C189F300C112402
:1037E000C114D104D1F48F8184FF17C00E949524A5
:1037F000F5E02F0E311C21E08215930508F420E03E
:10380000A701455F5F4F21110EC082E090E0F201F9
:103810009183808387EF9FEF4DCF0E9495242FEFF8
:10382000221A320AE8CF88819981E80EF91EF70141
:1038300014830383FFEFCF1ADF0A7A018A818C1584
:103840001D0409F00CF48CCFE881F981EE0DFF1D09
:10385000428150E030E020E010E000E090E080E0C5
:10386000B3CFF12CE12CD12CC12CE8CF81E090E03A
:103870009C838B83DDDA882309F480CF81E090E09C
:103880000E94951380E40E94A31378CF89899A89B6
:10389000019661F083E090E09C838B8382E090E06E
:1038A0000E94951380E40E949D1368CF2D813E8174
:1038B0008091290290912A0228173907D1F460914A
:1038C0002D0270912E02AE014F5E5F4F80912B0250
:1038D00090912C020E94F7260097E1F2789422E062
:1038E00030E0F20131832083892B99F08DEF9FEF37
:1038F000E1CE22E082169104A104B1045CF6CE016F
:1039000044DE188A1F86E8CF82E090E09C838B8398
:1039100035CF90E080E0CECE82E090E0F20191835E
:10392000808385EF9FEFC6CE8F929F92AF92BF921A
:10393000CF92DF92EF92FF920F931F93CF93DF937B
:10394000EA018C01060F171FF8018181833098F07E
:1039500082E090E09983888386EF9FEFDF91CF919B
:103960001F910F91FF90EF90DF90CF90BF90AF909D
:103970009F908F9008958091940490919504892B45
:1039800061F081E090E02091960430919704232B20
:1039900011F490E080E0892B39F482E090E0998383
:1039A00088838EEF9FEFDACF42DE882309F4DEC0F2
:1039B000F8018181813009F494C0E8F0823099F4F3
:1039C0002091960430919704E0919404F09195042D
:1039D00090E080E041E050E02817390709F0BCC0D2
:1039E00027DA811117C0789481E090E09983888369
:1039F00090E080E0B3CF2091960430919704E0915D
:103A00009404F091950490E080E041E050E02817A4
:103A1000390741F481E090E00E94951380E40E9410
:103A2000A313E1CF63817481672B11F05483438327
:103A300001967396ECCFE0919404F0919504E00F19
:103A4000F11F2381348122303105D9F42189328953
:103A50002F3F3F4FB1F4458156812091290230918B
:103A60002A024217530761F5AF014F5E5F4F609125
:103A70002D0270912E0280912B0290912C020E94B7
:103A8000F7264FEFC41AD40AE40AF40A0D5E1F4F5A
:103A9000409196045091970470E060E0C416D506FA
:103AA000E606F70634F5009731F27894892B09F48D
:103AB0009BCF82E090E0998388838DEF9FEF4ECF7C
:103AC00022E0C216D104E104F104DCF6CF015DDD91
:103AD000E0919404F0919504E00FF11F108A17868D
:103AE000D0CF10E000E090E080E0C12CD12C760136
:103AF000CFCF0097D1F610E000E0812C912C54013B
:103B000083E0E82EF12C1AC0E0919404F091950422
:103B1000E00FF11F83819481029749F4F482E382DC
:103B200082E090E00E94951380E40E949D138FEF45
:103B3000881A980AA80AB80A0D5E1F4F8091960449
:103B400090919704B0E0A0E088169906AA06BB06FB
:103B5000DCF290E080E0A9CF63817481623071056E
:103B600011F4548343830196739636CF82E090E03C
:103B70009983888385EF9FEFF1CE0097B9F48FEF9B
:103B8000FB018083209133023091340243E1429F54
:103B9000C001439F900D1124E0919404F09195048D
:103BA000E80FF91F8285FB01818308950C944C1363
:103BB00088E090E0FA019183808390E080E00895AE
:103BC0001092930410929204E4E9F4E086E0DF019D
:103BD0001D928A95E9F788E499E190939104809386
:103BE00090040895809190049091910408952F92EB
:103BF0003F924F925F926F927F928F929F92AF927D
:103C0000BF92CF92DF92EF92FF920F931F93CF93C9
:103C1000DF93CDB7DEB760970FB6F894DEBF0FBE67
:103C2000CDBFF894E0919204F09193043196F09313
:103C30009304E09392047894A0919404B091950435
:103C4000BA83A983109709F4FAC1E0919604F09120
:103C50009704EF2B09F4F3C128874B875C876D87A6
:103C60007E879A878987B88BAF87312C212CF12CDE
:103C7000512C412C80919604909197042816390676
:103C800010F4FF2029F1F89480919204909193040C
:103C9000019790939304809392047894C201609664
:103CA0000FB6F894DEBF0FBECDBFDF91CF911F914D
:103CB0000F91FF90EF90DF90CF90BF90AF909F90CB
:103CC0008F907F906F905F904F903F902F900895CE
:103CD000B10190E080E087D4682EEF85F889878174
:103CE00081FD3DC0838194810397C9F5258136818B
:103CF0003C832B8389859A852817390781F5C10173
:103D0000E1D8782E8823A9F1AF85B8891F968D91C7
:103D10009C915097019621E01D964D915C918417DE
:103D2000950709F020E02F83B12CA12CEF85F889AD
:103D300082818A151B0419F014F0FF20E9F0F88540
:103D4000FF2309F46CC1AF85B88950961C921E926E
:103D50001F97662021F0B10190E080E046D4FFEF8C
:103D60002F1A3F0A2F8538892D5E3F4F388B2F87BA
:103D700081CFB1E0BF83D8CFBFD49E838D83E88548
:103D8000EE23E9F0772009F43CC1AF85B8891F968E
:103D90008D919C91892B79F0BBE0BA9DC001BB9DB0
:103DA000900D1124AF85B889ED91FC91E80FF91FB2
:103DB00085819681FED6BFEFAB1ABB0AB7CF81E0F3
:103DC000772039F0EF85F88927853089232B09F092
:103DD00080E0F82EE12CA114B10439F4AF85B88944
:103DE0001796EC90E4FAEE24E0F8BBE0BA9D60018F
:103DF000BB9DD00C1124882309F424C1AF85B88958
:103E0000ED91FC911197EC0DFD1D438154811D96A0
:103E10002D913C91429FC001439F900D529F900D68
:103E20001124E1105DC001969087878361E070E006
:103E3000878190852CD5EF85F88921893289008189
:103E400011810C0D1D1D2F3F320709F44BC0BC0121
:103E5000C9010E943827D80116969C938E93159716
:103E6000AF85B889ED91FC911197EC0DFD1D058191
:103E700016810115110509F4CDC0ED81FE810E0FEB
:103E80001F1F1A968C918A0DD8018C93E1102FC0B8
:103E90000F5F1F4FAF85B889ED91FC91EC0DFD1DB3
:103EA00012870187AF85B889ED91FC91EC0DFD1D5E
:103EB00085819681892B09F4A4C080912902909173
:103EC0002A022B813C812817390709F465C0772025
:103ED00011F001851285912C812C1A8219824AC019
:103EE0000596A2CF1BD6F80196838583B9CF8B8523
:103EF0009C85AD85BE85F80181839283A383B483BD
:103F00000B5F1F4FC7CFE080F180E80CF91CD70191
:103F100013966D917C9114978C918F3F09F473C027
:103F2000E1E0F0E002C0EE0FFF1F8A95E2F7CF015B
:103F3000092E000CAA0BBB0BFB0140815181628151
:103F4000738184239523A623B72321E0892B8A2B11
:103F50008B2B09F420E0D8012C93D70111968C917A
:103F6000080F111DE981FA813196FA83E983F7E0A0
:103F70008F0E911CAF85B889ED91FC91EC0DFD1D64
:103F8000828129813A818217130611F00CF0BBCF90
:103F9000772011F0128701873F81332391F1AF859C
:103FA000B889ED91FC91EC0DFD1D61E070E0878119
:103FB00090856DD4AF85B889ED91FC91EC0DFD1D18
:103FC000E780F08445815681E1E0F0E0662011F061
:103FD000F0E0E0E00D811E819C01B1018827992766
:103FE0008E1B9F0B8CD32C01892B59F0EF85F88900
:103FF00080819181C80ED91ED60115968D919C9114
:10400000D8D5F12CD8CEF701418150E0C8010E94EB
:104010003B37A3CF86EF482E55245A94CCCEEF855C
:10402000F889878590890196908B878725853685C5
:104030008217930709F08DCE108A17868ACE512CED
:10404000412C21CE10E000E02DCF2F923F924F92D5
:104050005F926F927F928F929F92AF92BF92CF9218
:10406000DF92EF92FF920F931F93CF93DF93809194
:1040700094049091950410E000E0892BA9F0D7DA20
:104080000AEF1FEF882381F0209096043090970468
:10409000C0919404D0919504D12CC12C10E000E083
:1040A0002C143D04A9F47894C801DF91CF911F919D
:1040B0000F91FF90EF90DF90CF90BF90AF909F90C7
:1040C0008F907F906F905F904F903F902F900895CA
:1040D000C6010E946217882309F18B819C81039796
:1040E000E9F48F859889892BC9F0B60190E080E0CA
:1040F0007AD221E030E0882311F030E020E044243F
:104100005524421A530AB12CA12C912C812C8A815E
:104110008815190409F038F4188A1F864FEFC41A5D
:10412000D40A6396BDCFE881F981EA0DFB1D858134
:104130009681892BA1F161E070E087819085A7D3FA
:104140003C01DAD28C01E881F981EA0DFB1D818501
:10415000928525813681200F311FAC01421B530B04
:104160009A0147815085421B530B70E060E00E942A
:104170004437E881F981EA0DFB1DE780F084458131
:1041800056819301B601C201BAD28C01892B39F054
:10419000E881F981EA0DFB1D858196810AD55FEFE3
:1041A000851A950A8BE0A80EB11CB1CF40CA78944D
:1041B00008952F923F924F925F926F927F929F92BB
:1041C000AF92BF92CF92DF92EF92FF920F931F9325
:1041D000CF93DF9300D000D0CDB7DEB70091940429
:1041E00010919504992493940115110509F43EC08A
:1041F000A0909604B09097041ADA982E8823B1F113
:1042000010929504109294041092970410929604C0
:1042100010929804109299048FEF9FEFDC01809325
:10422000330290933402A0933502B093360278940F
:104230007ED31E830D83C12CD12C7601C501B0E045
:10424000A0E089839A83AB83BC8322242A94322CF6
:1042500089819A81AB81BC81C816D906EA06FB0622
:10426000F4F0C801A6D480E40E94A313892D2696F9
:104270000FB6F894DEBF0FBECDBFDF91CF911F9177
:104280000F91FF90EF90DF90CF90BF90AF909F90F5
:104290007F906F905F904F903F902F900895AD81E9
:1042A000BE8115962D913C9116978091290290918F
:1042B0002A0228173907D1F451968D919C91C6D5C1
:1042C000ED81FE8180819181B12CA12C412C512C5A
:1042D0003201892B81F5BFEFCB1ADB0AEB0AFB0A0F
:1042E000ED81FE817396FE83ED83B2CFB2E0CB16F3
:1042F000D104E104F10424F7ED81FE8181899289E2
:104300008F3F980709F01DD5AD81BE8152963C9232
:104310002E925197D5CF8A0D9B1DDC018D919C91DA
:10432000009709F046D4BFEF4B1A5B0A6B0A7B0A71
:10433000EBE0AE0EB11CAD81BE818D919C911197C9
:1043400012964C9150E070E060E044165506660607
:1043500077060CF32ED4BFCFCF93DF93EA0129DF8A
:10436000811109C082E090E09983888385EF9FEFF7
:10437000DF91CF91089581E090E00E94951381E054
:1043800090E09983888390E080E0F2CF12DF109272
:10439000910410929004089542E050E064ED72E0C0
:1043A0000C94B313FF920F931F93CF93DF938A0163
:1043B000EC01C60FD71FF980B9D20897F816190675
:1043C00071F068F082E090E0F801918380838EEFD5
:1043D0009FEFDF91CF911F910F91FF9008956C8116
:1043E0007D818E819F814B810E944816811108C07A
:1043F00082E090E0F8019183808384EF9FEFE9CF22
:10440000F9800E9443164F2D50E0BE01685F7F4F38
:104410000E943B3789810E94B21681E090E0F8014A
:104420009183808390E080E0D4CFDF92EF92FF927F
:104430000F931F93CF93DF938A01EC01C60FD71F11
:104440000E9443167C01D98071D2DD2059F0029779
:1044500021E030E0D816190619F010F030E020E025
:10446000232B79F482E090E0F801918380838EEF32
:104470009FEFDF91CF911F910F91FF90EF90DF9011
:104480000895EF2841F482E090E0F8019183808361
:1044900084EF9FEFEECFF9800E9443164F2D50E03E
:1044A000BE016E5F7F4F0E943B3789810E94B2162A
:1044B00081E090E0F8019183808390E080E0D9CFA3
:1044C0008CEC91E290939B0480939A0408958091E0
:1044D0009A0490919B0408950895FC011182108222
:1044E000938382830895DB011D921C92DC01129656
:1044F000ED91FC9113977183608313967C936E9377
:1045000012970895FC0180819181DB018D939C932A
:10451000A081B181109741F08D919C91918380830E
:10452000892B11F4F383E2830895FC01808191814A
:10453000DB018D939C93892B11F4738362837183C8
:1045400060830895FC011182108293838283089511
:10455000CF93DF931F921F92CDB7DEB71A821982D5
:10456000F894BE016F5F7F4F81EA94E0CBDF8981D1
:104570009A81009709F01DD389819A81892B89F747
:10458000BE016F5F7F4F85EA94E0BCDF89819A812D
:10459000009709F00ED389819A81892B89F7789445
:1045A0000F900F90DF91CF910895CF93DF931F92DB
:1045B0001F92CDB7DEB71A821982F894BE016F5FE1
:1045C0007F4F8DE994E09EDF89819A81009709F001
:1045D000F0D289819A81892B89F778940F900F9076
:1045E000DF91CF91089581E0089590E080E00895F3
:1045F000EF92FF920F931F93CF93DF931F921F921F
:10460000CDB7DEB71A82198280919C0407EF1FEFA5
:104610008823A1F1F894BE016F5F7F4F85EA94E093
:1046200071DF789489819A81EE24E394F12C892BAF
:1046300051F4F894BE016F5F7F4F81EA94E062DF2E
:104640007894F12CE12C89819A810EEF1FEF00976D
:10465000A9F0FC014281538164E070E009D68C012D
:10466000892B61F0F89469817A81C701880F991FBD
:10467000880F991F8F559B4F58DF7894C8010F9072
:104680000F90DF91CF911F910F91FF90EF900895C0
:104690000F931F93CF93DF9300D01F92CDB7DEB758
:1046A0001C821B821A82198280919C0407EF1FEFE3
:1046B0008823C1F0AE014D5F5F4F64E070E0CE0132
:1046C000019649D68C01892B69F4E981FA818B81A5
:1046D0009C8193838283F89469817A818DE994E047
:1046E00002DF7894C8010F900F900F900F90DF9128
:1046F000CF911F910F9108954ED7049608958F92F0
:104700009F92AF92BF92CF92DF92EF92FF920F9360
:104710001F93CF93DF931F921F92CDB7DEB71A82FC
:104720001982BC016F5F7F4F6330710598F0AA2436
:10473000AA94BA2CC5010F900F90DF91CF911F91D1
:104740000F91FF90EF90DF90CF90BF90AF909F9030
:104750008F9008954115510551F3480159018A017F
:104760006C01CADF8815990511F7E114F104F9F21B
:104770008E0D9F1DA816B906D0F280919C04882347
:10478000F1F0F894B501645071099701AE014F5FE3
:104790005F4FC801049674D65C01892B71F489813E
:1047A0009A81F80193838283C601880F991F880F2D
:1047B000991FB8018F559B4F96DE7894BBCF87EF3A
:1047C000A82EBB24BA94B6CFAF92BF92CF92DF92FD
:1047D000EF92FF920F931F93CF93DF931F921F923D
:1047E000CDB7DEB71A821982892B09F047C061154F
:1047F000710509F443C04115510509F43FC0211565
:10480000310509F43BC001151105C1F180919C04EB
:104810008823B9F179016A015B01F894BE016F5FE9
:104820007F4F8DE994E06EDE789489819A810097BC
:1048300059F1DC0112966D917C91A801049639D64C
:104840008C01E981FA81D501ED93FC9382819381FA
:104850000496F601918380834FDFD7018D939C935B
:10486000C8010F900F90DF91CF911F910F91FF9092
:10487000EF90DF90CF90BF90AF9008950FEF1FEFB4
:10488000EFCF07EF1FEFECCF0EEF1FEFE9CFCF9386
:10489000DF93EC01672B71F487D68C179D0760F0CE
:1048A0007AD62496C80FD91F79D68C0F9D1FDF9119
:1048B000CF91089576D6F1CF90E080E0F8CF0F93B6
:1048C0001F93CF93DF9320919C0421112BC08B0168
:1048D000EC0181EA94E001DE85EA94E0FEDD8DE9F9
:1048E00094E0FBDD97D00097C1F45ED670E060E005
:1048F000CEDF47E352E062E070E087D1009769F4D1
:10490000809137029091380261D6B801CE0196D4D9
:10491000009719F421E020939C04DF91CF911F911F
:104920000F91089584EF9FEFF8CF3BC63DC6CF931C
:10493000DF933DD6EC01892B11F40ADE36DECE0181
:10494000DF91CF910895CF93DF9331D6EC01892B7E
:1049500009F4FEDDCE01DF91CF91089580913702F9
:10496000909138020895CF93DF9380919C04D0E01A
:10497000C0E08823D1F02FD6EC01892BB1F4E8DD1B
:1049800014DE8091370290913802DBD1C1D2EC0164
:10499000892B59F481EA94E0D5DD85EA94E0D2DDF3
:1049A0008DE994E0CFDD10929C04CE01DF91CF9190
:1049B0000895EF92FF920F931F93CF93DF93EC0133
:1049C0007A018B010F5F1F4F0E9DA0010F9D500DAF
:1049D0001E9D500D112470E060E00E94443790E06D
:1049E00080E0F0E0E0E02FEFE816F90639F4DF911F
:1049F000CF911F910F91FF90EF9008951A82198225
:104A00002883309711F0D283C1830196FE01C00F35
:104A1000D11FEACFAF92BF92CF92DF92EF92FF9277
:104A20000F931F93CF93DF9386EF95E07C012CEFDC
:104A3000E22280EEC82E82E0D82E96EEA92E92E0D9
:104A4000B92ECDE6D6E08E01D6014D915D916D0176
:104A5000F501619171915F01D8011196FC92EE927E
:104A600015965C934E93149713965C934E931297FE
:104A700017967C936E9316979B012F5F3F4F249F51
:104A8000C001259F900D349F900D112419969C9381
:104A90008E931897E114F10411F0C7018ADFF80131
:104AA00080859185E80EF91E065F1F4FF6EECF1642
:104AB000F2E0DF0649F6EBEAF4E088E491E0DF019A
:104AC0009C011D9221503040E1F71092AA041092EF
:104AD000A9048BE896E01F8E1E8E1BA21AA219A2B3
:104AE00018A21DA21CA21FA21EA22A968C179D0707
:104AF00091F710926A061092690610926C06109255
:104B00006B0690E080E0DF91CF911F910F91FF90B5
:104B1000EF90DF90CF90BF90AF900895009761F134
:104B2000F8948132910580F480916F06909170061F
:104B3000892B29F58091790690917A06892B31F09D
:104B400021E081E090E00BC0C197A8F4809183063A
:104B500090918406892B79F022E082E090E0EAE0EF
:104B6000E89FD001E99FB00D1124A359B94F8D9151
:104B70009C91009741F4789490E080E0089520E0C3
:104B800090E080E0ECCFE29FF0011124E359F94F6F
:104B9000DC0111964D915C91518340834281538198
:104BA0004150510953834283FC012193CF017894F2
:104BB0000895009749F1DC018E91863041F4E0912F
:104BC0006B06F0916C063097F9F0CD0119948630A0
:104BD000D8F4282F30E0F8948FEF8C938AE0829FEE
:104BE000F001839FF00D1124E359F94F80819181E9
:104BF00012969C938E931197B183A08382819381A7
:104C000001969383828378940895CF92DF92EF92F6
:104C1000FF920F931F93CF93DF939C018EEA94E052
:104C20008C7F4115510509F489C02115310509F41E
:104C300085C06115710509F481C08A01AB01B90114
:104C40006D5F7F4F6C7F9B012F5F3F4F249F7001F3
:104C5000259FF00C349FF00C1124F894EDE6F6E05B
:104C600023E030E0E901A6A1B7A1C68CD78CCD28FE
:104C700009F058C0109709F03EC0C090A904D09028
:104C8000AA0425E431E02C193D092E153F0530F426
:104C90007894CFEFDFEF86EF9FEF21C02AE02C9FC3
:104CA000F0012D9FF00D1124E359F94F918380837A
:104CB000558344835383428377836683F186E086FA
:104CC000009709F076DEEC0CFD1CF092AA04E0924D
:104CD000A9047894CF3FDC07F1F290E080E0F8017E
:104CE000D183C083DF91CF911F910F91FF90EF90FF
:104CF000DF90CF900895AE15BF05A0F02AE02C9F5D
:104D0000F0012D9FF00D1124E359F94F9183808319
:104D10005583448353834283778366830097C9F224
:104D200048DED7CF8A0F9B1F2F5F3F4F3A96263022
:104D3000310509F097CFCFEFDFEFCBCF8FEF9FEFAC
:104D4000D1CF9C010397039708F04EC0F89485E0FB
:104D50009AE0482F50E0241735079CF191E08AE053
:104D6000829FF001839FF00D1124E359F94F1182C6
:104D7000108215821482138212821782168299235E
:104D8000E1F08091A9049091AA04EDE6F6E022A951
:104D900033A9232B49F422AD33AD2115310521F080
:104DA000821B930B13AE12AE3A9726E0EF34F20754
:104DB00071F79093AA048093A904789490E080E01E
:104DC0000895949FF001959FF00D1124E359F94F38
:104DD00040815181452B31F440855185452B11F49B
:104DE0008150B7CF90E0BBCF8FEF9FEF0895411573
:104DF000510549F1009739F16115710521F1F894D8
:104E00002091690630916A06232BB9F420916B0634
:104E100030916C06232B89F490936A06809369067F
:104E200070936C0660936B06789426E030E090E017
:104E300080E0FA0131832083089578942FEF3FEFCB
:104E400086EF9FEFF6CF8FEF9FEF0895069769F4F7
:104E5000F89410926A061092690610926C061092ED
:104E60006B06789490E080E008958FEF9FEF0895AF
:104E70006115710519F4F0E0E0E011C0863091058C
:104E800081F4E0916906F0916A063097A1F3CB01B5
:104E900001961995009779F3FC0186E08193CF0183
:104EA00008959C01235031092330310520F72AE071
:104EB000289FD001299FB00D1124A359B94F2D91DE
:104EC0003C911197232BB9F216962D913C9117978F
:104ED0002617370780F2F89412962D913C9113977C
:104EE0002115310529F0ED91FC911197309711F4BE
:104EF0007894C1CF4181528111965C934E93215099
:104F0000310913963C932E93129781937894C7CFCF
:104F1000E3EFF5E086E7DF011D928A95E9F7EBEA1A
:104F2000F4E088E491E0DF019C011D9221503040C3
:104F3000E1F71092AA041092A904EDE6F6E08CE3E2
:104F4000DF011D928A95E9F7E9E6F6E084E0DF01EA
:104F50001D928A95E9F790E080E00895CF93DF9362
:104F6000C0913902D0913A02CF3FDC0759F4DED329
:104F700090933A028093390297FF09C0D0933A0286
:104F8000C093390284EF9FEFDF91CF91089590E0B5
:104F900080E0FACF8230910528F48093A90690E052
:104FA00080E008958FEF9FEF08954F925F926F9288
:104FB0007F92AF92BF92CF92DF92EF92FF920F93C8
:104FC0001F93CF93DF931F921F92CDB7DEB71A8244
:104FD0001982009709F479C06115710509F475C04B
:104FE0002091390230913A0207EF1FEF2F3F3F4FD8
:104FF00009F445C06B015C01412C512C3201F12CAC
:10500000E12C10E000E09E012F5F3F4FA6014E19FA
:105010005F09B5016E0D7F1D8091390290913A02B2
:10502000E4D3892B09F04BC089819A81009741F420
:10503000E114F10429F42091A906222309F442C0C5
:10504000E80EF91EEC14FD04D0F480E8481684E85C
:1050500058068EE16806710420F560E070E0CB012F
:105060000E940D312AE0420E511C611C711C0A3F46
:105070004FEF140721F0043F8FEF1807A1F4C80188
:105080000F900F90DF91CF911F910F91FF90EF90B4
:10509000DF90CF90BF90AF907F906F905F904F90D8
:1050A000089501EF1FEF81E090E0013F2FEF12071D
:1050B00011F090E080E0892B09F4A5CFE0CF04EF58
:1050C0001FEFDDCF0AEF1FEFDACF0FEF1FEFD7CFC4
:1050D0004F925F926F927F92AF92BF92CF92DF9288
:1050E000EF92FF920F931F93CF93DF931F921F9224
:1050F000CDB7DEB71A821982009709F479C061151D
:10510000710509F475C02091390230913A0207EF18
:105110001FEF2F3F3F4F09F445C06B015C01412C4D
:10512000512C3201F12CE12C10E000E09E012F5FA8
:105130003F4FA6014E195F09B5016E0D7F1D80918D
:10514000390290913A0207D3892B09F04BC089812B
:105150009A81009741F4E114F10429F42091A90601
:10516000222309F442C0E80EF91EEC14FD04D0F429
:1051700080E8481686E9580688E96806710420F533
:1051800060E070E0CB010E940D312AE0420E511C1C
:10519000611C711C0E3F4FEF140721F0043F8FEF8D
:1051A0001807A1F4C8010F900F90DF91CF911F91C4
:1051B0000F91FF90EF90DF90CF90BF90AF907F90D6
:1051C0006F905F904F90089502EF1FEF81E090E0A5
:1051D000023F2FEF120711F090E080E0892B09F4D5
:1051E000A5CFE0CF04EF1FEFDDCF0EEF1FEFDACF3B
:1051F0000FEF1FEFD7CF8091390290913A028F3F86
:10520000980749F08BD2892B49F48FEF9FEF909349
:105210003A028093390290E080E0089584EF9FEF96
:105220000895FC01680F791F90E080E0E617F7070A
:1052300009F408952191820F911DF8CF2091AA06BB
:10524000211113C08BDE009791F41092B0061092DA
:10525000AF061092AE061092AD061092AC061092F8
:10526000AB0621E02093AA06089584EF9FEF0895EE
:10527000AF92BF92CF92DF92EF92FF920F931F9364
:10528000CF93DF93009709F460C04630510508F4CE
:105290005CC02091AA06C7EFDFEF222309F449C0C2
:1052A0008C01060F171FF801C080D180C114D104F2
:1052B00009F44EC096012A5F3F4F4217530708F486
:1052C00047C07C018091AF069091B00693838283A2
:1052D000B6016C5F7F4F5801A60EB71EC801A1DF53
:1052E000F5019183808364E070E0C8015EDEEC012B
:1052F000892BF9F481E090E04DDEB601C8010496F7
:1053000054DEEC01892B91F462E070E0C5014DDEC2
:10531000EC01892B59F4C7014CDC8091AF069091C8
:10532000B00601969093B0068093AF0690E080E0BF
:1053300031DECE01DF91CF911F910F91FF90EF9061
:10534000DF90CF90BF90AF900895CFEFDFEFF1CF18
:10535000C9EFDFEFEECF6F927F928F929F92AF9265
:10536000BF92CF92DF92EF92FF920F931F93CF9352
:10537000DF9300D01F92CDB7DEB7009709F47AC053
:105380004115510509F476C02091AA0607EF1FEFD9
:10539000222309F44DC03A017B015C0164E070E016
:1053A000CE01019695DE8C01892B09F041C009815F
:1053B0001A810115110509F45AC0480186E0880ECA
:1053C000911CB701680D791D80913B0290913C02C0
:1053D0004FDD6C01009709F450C0A70170E060E058
:1053E0000E94443789819A81AB81BC81EC0CFD1C01
:1053F000F70181939193A193B1937F0181E090E0B4
:10540000C9DDB801C70164DE892B31F562E070E0C7
:10541000C701800F911F5CDE8C01892BE9F490E0BD
:1054200080E0B8DDF501D182C082F30191828082F3
:10543000C8010F900F900F900F90DF91CF911F91A7
:105440000F91FF90EF90DF90CF90BF90AF909F9023
:105450008F907F906F90089590E080E09BDDF50144
:1054600011821082F30111821082C601A2DB09EFC2
:105470001FEFDECF0FEF1FEFDBCF06EF1FEFD8CF11
:105480000097A1F04115510589F02115310571F002
:10549000F90136966E177F0748F0DC012D933C9397
:1054A000DA01ED93FC9390E080E008958FEF9FEF99
:1054B0000895AF92BF92CF92DF92EF92FF920F9337
:1054C0001F93CF93DF93009709F45FC041155105F7
:1054D00009F45BC06530710508F457C02091AA0635
:1054E000C7EFDFEF222391F1DC01CD90DC90119723
:1054F0001296ED91FC9196012A5F3F4FC9EFDFEFC5
:105500002617370719F5C091AB06D091AC06209746
:1055100049F521E030E03093AC062093AB067A01E8
:105520008C01F093AE06E093AD065601B4E0AB0EED
:10553000B11CB50176DE0A0D1B1DF80120813181F9
:105540008217930729F5D701CD92DC92CE01DF9126
:10555000CF911F910F91FF90EF90DF90CF90BF9070
:10556000AF9008952091AD063091AE062F5F3F4F6A
:10557000CCEFDFEFE217F30790F2CBEFDFEF2E1760
:105580003F0768F2D0E0C0E0CACFCFEFDFEFDECF59
:10559000C3EFDFEFDBCF84E090E0089582E090E09E
:1055A00008958CEF9FEF089580E290E008951092A7
:1055B000B0061092AF061092AE061092AD06109291
:1055C000AC061092AB0690E080E0089590933C0208
:1055D00080933B0208958091AA06882391F00BDE08
:1055E000009789F41092B0061092AF061092AE06A2
:1055F0001092AD061092AC061092AB061092AA065D
:10560000089590E080E00895009749F061157105D4
:1056100031F0FC0111821082FB0111821082089589
:10562000F3CF40E855E260E070E090E080E000C039
:105630008130910579F01CF4892B39F0089582307E
:10564000910561F0039771F0089526E086EC96E0ED
:105650000C943A3426E083E697E0FACF26E080E027
:1056600098E0F6CF26E08DE998E0F2CF089580E04B
:105670000895CF92DF92EF92FF920F931F93A8D5D8
:105680006093B1067093B2068093B3069093B4060C
:105690000091B5061091B6062091B7063091B80674
:1056A0006B017C01C01AD10AE20AF30A9701860154
:1056B000083E13402105310508F16093B50670934B
:1056C000B6068093B7069093B806A3D081D5009113
:1056D000B5061091B6062091B7063091B806601B4A
:1056E000710B820B930B683E73408105910570F03E
:1056F00081E090E09093BC068093BB0681E01F910F
:105700000F91FF90EF90DF90CF9008951092BC061C
:105710001092BB06F3CF1092B906089568EE73E0BD
:1057200080E090E07AD590E080E0089526E040E0C7
:1057300052EC61E070E086EC96E00E943A3486EC30
:1057400096E0CED7892B21F086EC96E0E3D7F7CF11
:1057500090E080E00895CF92DF92EF92FF920F9356
:105760001F93CF93DF936B017A01E90119821882AD
:1057700086EC96E0B5D7892B69F18601CC24C394D9
:1057800082E0D82E8091B906811110C086EC96E097
:10579000C1D70297B9F7C092B906F801D1928F012B
:1057A00088819981019699838883ECCF888199813A
:1057B0008E159F0578F486EC96E0ACD78F3F98075E
:1057C000A9F3F80181938F018881998101969983CA
:1057D0008883ECCF90E080E0DF91CF911F910F9113
:1057E000FF90EF90DF90CF9008950F931F93CF938A
:1057F000DF93EA01890186EC96E00E94CA36F8013F
:10580000D183C08390E080E0DF91CF911F910F9111
:1058100008958091BA0691E0980F9093BA06882374
:1058200049F021E030E03093BC062093BB06809322
:10583000BA0608950E949B068091BA068150F7CF60
:105840000F931F93CF93DF931092D3091092D20935
:105850001AD5E7DEC0916002D091610219821882E8
:1058600060E375E780E090E00E94900670E060E001
:1058700090E080E00E940B05009709F041C00E9473
:10588000940BF8947894BE016C557F4F8A819B816C
:105890000E940E05892B71F46FEF7FEFCB010E9400
:1058A0009F050E948A06882329F081E0FE01E655C3
:1058B000FF4F8083F894DADE0E948D06882311F072
:1058C00080E00BC00E948A068111FACF81E0FE01C0
:1058D000E655FF4F90819111F3CF8093D2090E943A
:1058E00090138C017894C655DF4F8091D2098111B5
:1058F0000CC00E94C00C0E946E06F89490E080E0FC
:10590000DF91CF911F910F9108950E946B060E9425
:105910008D068823D9F081E08093D3099091D30933
:1059200081E0911180E08093D2098091D3098111A7
:105930009EDE0130110529F40E949013892B09F491
:10594000EADE0E9490138C0194DECFCF0E948A067B
:105950008111E1CF81E098819111DECF80E0DCCF31
:105960005058BB27AA270ED075C166D130F06BD135
:1059700020F031F49F3F11F41EF45BC10EF4E0956A
:10598000E7FB51C1E92F77D180F3BA17620773079C
:105990008407950718F071F49EF58FC10EF4E09519
:1059A0000B2EBA2FA02D0B01B90190010C01CA01D9
:1059B000A0011124FF27591B99F0593F50F4503E84
:1059C00068F11A16F040A22F232F342F4427585F76
:1059D000F3CF469537952795A795F0405395C9F78E
:1059E0007EF41F16BA0B620B730B840BBAF0915046
:1059F000A1F0FF0FBB1F661F771F881FC2F70EC0E5
:105A0000BA0F621F731F841F48F4879577956795B7
:105A1000B795F7959E3F08F0B3CF9395880F08F0A0
:105A20009927EE0F979587950895D9D008F481E0CE
:105A300008950CD00FC107D140F0FED030F021F412
:105A40005F3F19F0F0C0511139C1F3C014D198F380
:105A50009923C9F35523B1F3951B550BBB27AA27EF
:105A600062177307840738F09F5F5F4F220F331F61
:105A7000441FAA1FA9F333D00E2E3AF0E0E830D02D
:105A800091505040E695001CCAF729D0FE2F27D030
:105A9000660F771F881FBB1F261737074807AB07FE
:105AA000B0E809F0BB0B802DBF01FF2793585F4F73
:105AB0002AF09E3F510568F0B6C000C15F3FECF38D
:105AC000983EDCF3869577956795B795F7959F5F38
:105AD000C9F7880F911D9695879597F90895E1E08C
