:1000000005C100000C94612F0C948C2F0C94B72F19
:100010000C94E22F0C940D300C9438300C94633017
:100020000C948E3024C1000022C1000020C10000C9
:100030001EC100001CC100001AC1000018C1000050
:1000400016C1000014C1000012C1000010C1000060
:100050000EC100000CC100000AC100000C94B930B0
:1000600006C100000C94B4330C94EA3300C10000C4
:10007000FEC00000FCC00000FAC00000F8C0000094
:10008000F6C00000F4C00000F2C00000F0C00000A4
:100090000C9440340C947634EAC00000E8C00000B0
:1000A000E6C00000E4C00000E2C00000E0C00000C4
:1000B000DEC00000DCC00000DAC00000D8C00000D4
:1000C000D6C00000D4C000000C94F52A0C94CC34A7
:1000D0000C940235CCC000000C9458350C948E352D
:1000E000C6C0000000000A0B02090C0D0E08070331
:1000F00004010000000000000000000000000000FB
:1001000000000000000000000000000000000000EF
:1001100012111000000000000000000000000000AC
:100120000000000000000000000001021020200874
:100130000810204010204080020102010804020142
:1001400001020408102040808040201008040201B1
:10015000800402018040201008040201080402010A
:100160000102040810204080010204081020408091
:1001700005050505070508080808020202020A0A23
:100180000808040404040101010101010101030341
:10019000030303030303040707070C0C0C0C0C0CEC
:1001A0000C0C0202020206060606060606060B0BE9
:1001B0000B0B0B0B0B0B000020002300260029006B
:1001C0002C002F003200000100000301060109018C
:1001D00000002200250028002B002E0031003400F2
:1001E00002010000050108010B01000021002400AC
:1001F00027002A002D003000330001010000040117
:1002000007010A0113349F342B35B73511241FBE63
:10021000CFEFD1E2DEBFCDBF00E00CBF13E0A0E026
:10022000B2E0ECECF1E700E00BBF02C007900D92EA
:10023000A830B107D9F729E0A8E0B3E001C01D92CA
:10024000A330B207E1F711E0C6E0D1E000E006C05C
:1002500021970109802FFE010E943D38C230D1074D
:1002600080E00807A9F70E94F72B0C94E438C8CE69
:100270008823E1F0823061F0833089F08130B1F47D
:1002800040E052EC61E070E081E090E00C94D72A0D
:1002900040E052EC61E070E082E090E0F7CF40E8AF
:1002A00055E260E070E083E090E0F0CF08954F9277
:1002B0005F926F927F928F929F92AF92BF92CF92F6
:1002C000EF92FF920F931F93CF93DF93CDB7DEB7DB
:1002D0002B013A01F02EB40130E02830310511F441
:1002E00024E030E00AE010E0CC2061F091E000E191
:1002F00010E0C91639F0E2E008E010E0CE1611F087
:1003000002E010E0813009F4E8C0B0F0823009F476
:10031000C5C1833009F4A3C2DF91CF911F910F9122
:10032000FF90EF90CF90BF90AF909F908F907F9075
:100330006F905F904F900895F1101BC0269DA00113
:10034000279D500D369D500D1124B20187E296E095
:10035000DF91CF911F910F91FF90EF90CF90BF90C1
:10036000AF909F908F907F906F905F904F900C9484
:10037000E43587E296E00E942036E11014C0640C58
:10038000751C6414750441F2F20161912F01F1E0D2
:10039000A80187E296E0FF1203C00E94F236F1CF77
:1003A0000E94F836EECF81E0E81215C091E0691A9C
:1003B000710808F4B1CFF201619171912F01F1E060
:1003C000A80187E296E0FF1203C00E940837EECF33
:1003D0000E940D37EBCF82E0E81217C091E0691A56
:1003E000710808F499CFF201419151916191719195
:1003F0002F01F1E0980187E296E0FF1203C00E940E
:10040000E636ECCF0E941D37E9CF83E0E81218C032
:10041000640C751C6414750409F47ECFF2016191BB
:100420002F01062E000C770BF1E0A80187E296E081
:10043000FF1203C00E94C036EDCF0E94C636EACF3D
:1004400084E0E81215C091E0691A710808F464CFDD
:10045000F201619171912F01F1E0A80187E296E02C
:10046000FF1203C00E94C036EECF0E94C636EBCF0B
:1004700085E0E81217C091E0691A710808F44CCFC2
:10048000F20141915191619171912F01F1E0980137
:1004900087E296E0FF1203C00E947B36ECCF0E94F9
:1004A000D636E9CF86E0E81237CFB12C91E0691A51
:1004B000710808F431CFF20141915191619171912C
:1004C0002F01F1E0950187E296E0FF1203C00E9440
:1004D0000938ECCF0E940A38E9CFF1100BC0269DF5
:1004E000A001279D500D369D500D1124B20184ECC2
:1004F00096E02ECF84EC96E00E942036E11015C0E5
:10050000640C751C4614570409F406CFF20161917E
:100510002F01F1E0A80184EC96E0FF1203C00E94D5
:10052000F236F0CF0E94F836EDCF81E0E81215C028
:1005300091E0691A710808F4EFCEF20161917191AE
:100540002F01F1E0A80184EC96E0FF1203C00E94A5
:100550000837EECF0E940D37EBCF82E0E81217C0CC
:1005600091E0691A710808F4D7CEF20141915191D6
:10057000619171912F01F1E0980184EC96E0FF12F6
:1005800003C00E94E636ECCF0E941D37E9CF83E01E
:10059000E81218C0640C751C6414750409F4BCCE10
:1005A000F20161912F01062E000C770BF1E0A801FA
:1005B00084EC96E0FF1203C00E94C036EDCF0E948B
:1005C000C636EACF84E0E81215C091E0691A7108D6
:1005D00008F4A2CEF201619171912F01F1E0A8011E
:1005E00084EC96E0FF1203C00E94C036EECF0E945A
:1005F000C636EBCF85E0E81217C091E0691A7108A2
:1006000008F48ACEF20141915191619171912F01CB
:10061000F1E0980184EC96E0FF1203C00E947B3663
:10062000ECCF0E94D636E9CF86E0E81275CEB12C29
:1006300091E0691A710808F46FCEF201419151916D
:10064000619171912F01F1E0FF1214C0C11006C039
:10065000950184EC96E00E940938EACFCB01BA01FB
:100660000E94FB2CAB01BC01980184EC96E00E9437
:100670007B36DECFC11006C0950184EC96E00E9467
:100680000A38D6CFCB01BA010E94FB2CAB01BC01CA
:10069000980184EC96E00E94D636CACFF1100BC0C8
:1006A000269DA001279D500D369D500D1124B201AD
:1006B00081E697E04DCE81E697E00E942036E1107A
:1006C00015C0640C751C4614570409F425CEF201BC
:1006D00061912F01F1E0A80181E697E0FF1203C0CC
:1006E0000E94F236F0CF0E94F836EDCF81E0E8129A
:1006F00015C091E0691A710808F40ECEF2016191FB
:1007000071912F01F1E0A80181E697E0FF1203C08B
:100710000E940837EECF0E940D37EBCF82E0E8123F
:1007200017C091E0691A710808F4F6CDF201419101
:100730005191619171912F01F1E0980181E697E06B
:10074000FF1203C00E94E636ECCF0E941D37E9CFAE
:1007500083E0E81218C0640C751C6414750409F475
:10076000DBCDF20161912F01062E000C770BF1E039
:10077000A80181E697E0FF1203C00E94C036EDCFCA
:100780000E94C636EACF84E0E81215C091E0691AEB
:10079000710808F4C1CDF201619171912F01F1E06E
:1007A000A80181E697E0FF1203C00E94C036EECF99
:1007B0000E94C636EBCF85E0E81217C091E0691AB7
:1007C000710808F4A9CDF2014191519161917191A3
:1007D0002F01F1E0980181E697E0FF1203C00E942B
:1007E0007B36ECCF0E94D636E9CF86E0E81294CD76
:1007F000B12C91E0691A710808F48ECDF201419193
:100800005191619171912F01F1E0FF1214C0C1105B
:1008100006C0950181E697E00E940938EACFCB0136
:10082000BA010E94FB2CAB01BC01980181E697E064
:100830000E947B36DECFC11006C0950181E697E0AD
:100840000E940A38D6CFCB01BA010E94FB2CAB0123
:10085000BC01980181E697E00E94D636CACFF1101C
:100860000BC0269DA001279D500D369D500D1124D3
:10087000B2018EEF97E06CCD8EEF97E00E942036AC
:10088000E11015C0640C751C6414750409F444CDA2
:10089000F20161912F01F1E0A8018EEF97E0FF12C4
:1008A00003C00E94F236F0CF0E94F836EDCF81E00F
:1008B000E81215C091E0691A710808F42DCDF20113
:1008C000619171912F01F1E0A8018EEF97E0FF1285
:1008D00003C00E940837EECF0E940D37EBCF82E0B5
:1008E000E81217C091E0691A710808F415CDF201F9
:1008F00041915191619171912F01F1E098018EEF39
:1009000097E0FF1203C00E94E636ECCF0E941D372D
:10091000E9CF83E0E81218C0640C751C64147504F8
:1009200009F4FACCF20161912F01062E000C770B2D
:10093000F1E0A8018EEF97E0FF1203C00E94C036DD
:10094000EDCF0E94C636EACF84E0E81215C091E0F0
:10095000691A710808F4E0CCF201619171912F01DC
:10096000F1E0A8018EEF97E0FF1203C00E94C036AD
:10097000EECF0E94C636EBCF85E0E81217C091E0BB
:10098000691A710808F4C8CCF20141915191619142
:1009900071912F01F1E098018EEF97E0FF1203C0F3
:1009A0000E947B36ECCF0E94D636E9CF86E0E81273
:1009B000B3CCB12C91E0691A710808F4ADCCF20106
:1009C00041915191619171912F01F1E0FF1214C099
:1009D000C11006C095018EEF97E00E940938EACF5A
:1009E000CB01BA010E94FB2CAB01BC0198018EEF38
:1009F00097E00E947B36DECFC11006C095018EEFD6
:100A000097E00E940A38D6CFCB01BA010E94FB2C96
:100A1000AB01BC0198018EEF97E00E94D636CACF99
:100A2000CF93DF93EC0170E060E06C177D070CF56D
:100A3000072E000C880B990B0E942E2D20E030E031
:100A4000A9010E94802C20E030E0A9010E94802CA6
:100A500020E030E040E450E40E94802C20E030E0D0
:100A600040E450E40E947F2C0E94FB2C6F5F7F4F7C
:100A7000DCCFDF91CF9108950F931F93CF93DF9336
:100A8000EC018C810E9462328C018C859D85C8DFCF
:100A900088850E946232488159816A817B810197F1
:100AA00081F40130110579F44F5F5F4F6F4F7F4F35
:100AB000488359836A837B83DF91CF911F910F9184
:100AC0000895012B89F34150510961097109F0CF53
:100AD00089E093E0D1CF89E193E0CECF89E293E042
:100AE000CBCF89E393E0C8CF0F931F93CF93DF93CE
:100AF000EC0188850E9462328C018C859D8590DF97
:100B00008C810E946232488159816A817B81019780
:100B100079F4012B81F44F5F5F4F6F4F7F4F488314
:100B200059836A837B83DF91CF911F910F91089541
:100B30000130110581F34150510961097109EFCF6D
:100B400089E093E0D1CF89E193E0CECF89E293E0D1
:100B5000CBCF89E393E0C8CF0F931F93CF93DF935D
:100B6000D82FC62F8A01E091080380E1E89FF001A9
:100B70001124E75FFC4F8D2F90E0B0E0A0E084836C
:100B80009583A683B783862F90E0B0E0A0E08087AE
:100B90009187A287B387108211821282138281E02B
:100BA00090E0A0E0B0E084879587A687B78760E0F3
:100BB0008D2F0E94263260E08C2F0E942632809179
:100BC0000803813009F43FC0A8F0823009F462C004
:100BD000833009F486C08091080391E0980F9093C8
:100BE0000803F801808390E080E0DF91CF911F91AE
:100BF0000F91089580E0D23049F081E0D33031F098
:100C00008EEE8D0F8430D8F487E18D1B41E050E0EB
:100C100060EA75E00E94E72E80E0C23049F081E092
:100C2000C33031F08EEE8C0F843058F487E18C1B8A
:100C300041E050E068E675E00E94E72ECCCF8FEFF0
:100C4000E5CF8FEFF5CF80E0D23049F081E0D330AF
:100C500031F08EEE8D0F8430C8F487E18D1B41E0BA
:100C600050E063EA75E00E94E72E80E0C23049F070
:100C700081E0C33031F08EEE8C0F843048F487E190
:100C80008C1B41E050E06BE675E0D6CF8FEFE7CFED
:100C90008FEFF7CF80E0D23049F081E0D33031F0F0
:100CA0008EEE8D0F8430C8F487E18D1B41E050E05B
:100CB00066EA75E00E94E72E80E0C23049F081E0EC
:100CC000C33031F08EEE8C0F843048F487E18C1BFA
:100CD00041E050E06EE675E0AFCF8FEFE7CF8FEFEA
:100CE000F7CF80E0D23049F081E0D33031F08EEEA2
:100CF0008D0F8430C8F487E18D1B41E050E069EA34
:100D000075E00E94E72E80E0C23049F081E0C330F8
:100D100031F08EEE8C0F843048F487E18C1B41E07B
:100D200050E061E775E088CF8FEFE7CF8FEFF7CF27
:100D300090E1899FF0011124E75FFC4F8081918150
:100D4000A281B381FB0180839183A283B38390E06E
:100D500080E0089590E1899FF0011124E75FFC4F46
:100D6000108211821282138290E080E0089590E058
:100D700080E0089590E080E008950F931F9300971E
:100D800009F483C06115710509F47FC000912C023C
:100D900010912D0220912E0230912F020E3F1F4FF5
:100DA0002F4F3F4F09F062C04FEF5FEFBA01409302
:100DB0002C0250932D0260932E0270932F024091CB
:100DC0002C0250912D0260912E0270912F02DC01B5
:100DD0001296ED91FC9180819181A281B3818093E3
:100DE000B9039093BA03A093BB03B093BC0384816F
:100DF0009581A681B7818093B5039093B603A093A4
:100E0000B703B093B80380859185A285B38580939D
:100E1000B1039093B203A093B303B093B40384855A
:100E20009585A685B7858093AD039093AE03A09377
:100E3000AF03B093B0031092A9031092AA031092CB
:100E4000AB031092AC03FDD786E49FE090934A0376
:100E500080934903E5D6009731F421E030E03093E8
:100E6000BE032093BD031F910F91089500912C02A2
:100E700010912D0220912E0230912F02DB010D9353
:100E80001D932D933C9313979ACF8FEF9FEFEBCF4A
:100E90008F929F92AF92BF92CF92DF92EF92FF928A
:100EA0001F93CF93DF934B015C011091C00382E04D
:100EB00090E09093BE038093BD0381149104A1043C
:100EC000B10441F48091C003811104C08091BF033B
:100ED000C1E08111C0E0C12CD12C76018091C0030A
:100EE000811106C08091BF03811102C0CC23D9F0CB
:100EF00083E090E09093BE038093BD03CC2379F10F
:100F0000CCE9DFEF111102C00E94AA12CE01DF91DD
:100F1000CF911F91FF90EF90DF90CF90BF90AF9057
:100F20009F908F9008956AE070E080E090E00E94CA
:100F3000283180E1C80E87E2D81EE11CF11C8FEF3A
:100F400088169806A806B80631F0C1E08C149D04F6
:100F5000AE04BF0408F0C0E080E096D6BFCFD0E07A
:100F6000C0E0D0CFCF92DF92EF92FF921F93CF934A
:100F7000DF938F3F910511F008F04BC02091BD0326
:100F80003091BE032330310539F02091BD033091FB
:100F9000BE032130310531F424E030E03093BE034C
:100FA0002093BD036A017B01EC01892B99F011E0CC
:100FB000AE01C701B60133D6AB01BC01CE0111238E
:100FC000E1F0DF91CF911F91FF90EF90DF90CF90F4
:100FD0000C94D3148091490390914A03892B39F3DF
:100FE0000E94DD14029719F7E0914903F0914A033A
:100FF00090E080E01995182FDBCF0E94F51490E067
:1010000080E0DF91CF911F91FF90EF90DF90CF9024
:1010100008958FEF9FEFF5CF80E036C6CF93DF9333
:1010200086E090E09093BE038093BD0386D6EC01EA
:1010300010924A03109249030E9442121092BE037A
:101040001092BD03CE01DF91CF9108958091BF032F
:1010500008958091A803089560932C0270932D0247
:1010600080932E0290932F0290E080E00895CF921B
:10107000DF92EF92FF926B017C019F7720E030E0DE
:1010800040E859E50E94F72C87FF2BC020E030E0B4
:1010900040E05FE3C701B6010E947F2E87FD0EC0CE
:1010A00020E030E040E05FE3C701B6010E94802C01
:1010B000FF90EF90DF90CF900C94692D20E030E00E
:1010C00040E05FEBC701B6010E947F2E181684F442
:1010D00020E030E0A901C701B6010E94832E6B0118
:1010E0007C01C701B601FF90EF90DF90CF9008958B
:1010F00020E030E040E05FE3C701B6010E947F2CB2
:10110000FF90EF90DF90CF900C94E42C8F929F9201
:10111000AF92BF92CF92DF92EF92FF920F93CF9355
:10112000DF9300D000D0CDB7DEB78091E8088150C2
:10113000823008F089C083E08093E8088091E70856
:101140008150823008F082C083E08093E70880916C
:10115000E6088150823008F07BC083E08093E60887
:101160008091E5088150823008F074C083E080935C
:10117000E508C0901002D0901102E0901202F090A9
:10118000130220E030E0A901C701B6010E94F72C4C
:1011900087FF62C0C701B6010E94E42C69837A838D
:1011A0008B839C8369817A818B819C8136D488234F
:1011B00009F457C019821A821B821C82C980DA8006
:1011C000EB80FC8020E030E0A901C701B6010E945D
:1011D000F72C87FF5CC0C701B60190580E94002D14
:1011E00090958095709561957F4F8F4F9F4F62309E
:1011F00071058105910509F4E3C06330710581052E
:10120000910509F4FFC0613071058105910509F070
:1012100047C08091140290911502A0911602B091DE
:10122000170280939B0890939C08A0939D08B0930D
:101230009E088091E708882379F1833009F4BDC0C6
:10124000082E000C990B2AC080E076CF80E07DCF7D
:1012500080E084CF80E08BCFC701B6010E94692D6A
:101260009DCF69817A818B819C8192D38111A2CF9C
:1012700069817A818B819C8120E030E040E85FE4E5
:101280000E94832D69837A838B839C8397CFC701C8
:10129000B6010E94002DABCF82E090E08093E7087A
:1012A000C0909B08D0909C08E0909D08F0909E080C
:1012B0002091D7083091D8084091D9085091DA0888
:1012C000C701B6010E94F72C882309F4C1C08090A1
:1012D000080290900902A0900A02B0900B02A501AA
:1012E00094016091B1087091B2088091B308909117
:1012F000B4080E94F72C882341F08092B1089092A4
:10130000B208A092B308B092B408C982DA82EB8224
:10131000FC8281E58D831E826091C5087091C608AC
:101320008091C7089091C8080E94002DC62E609138
:10133000BD087091BE088091BF089091C0080E94BE
:10134000002DE62E6091C1087091C2088091C308FB
:101350009091C4080E94002D062F6091B9087091E9
:10136000BA088091BB089091BC080E94002DF62E0F
:101370006091B5087091B6088091B7089091B8084F
:101380000E94002D862F9E012B5F3F4F4901AA240A
:10139000A3942F2D41E050E0BE016F5F7F4F0E946C
:1013A00057018091E808882309F44EC0833009F47E
:1013B00005C1082E000C990B49C081E090E06ECF6A
:1013C00080911C0290911D02A0911E02B0911F02FB
:1013D00080939B0890939C08A0939D08B0939E08CF
:1013E0008091E608882331F0833049F0082E000C04
:1013F000990B02C082E090E08093E60851CF81E033
:1014000090E0FACF8091180290911902A0911A02EF
:10141000B0911B0280939B0890939C08A0939D0819
:10142000B0939E088091E508882331F0833049F01D
:10143000082E000C990B02C082E090E08093E50832
:101440002FCF81E090E0FACF82E090E08093E8082F
:10145000C0900C02D0900D02E0900E02F0900F02AE
:10146000A70196016091D2087091D3088091D408A9
:101470009091D5080E94F72C882341F0C092D208A1
:10148000D092D308E092D408F092D5088091D10888
:1014900081111092D10867EA78E08091D60848DC83
:1014A0006091A7087091A8088091A9089091AA0856
:1014B0000E942E2D20912402309125024091260277
:1014C000509127020E94832E60939F087093A0087A
:1014D0008093A1089093A2082091280230912902BC
:1014E00040912A0250912B020E94832E6B017C01B5
:1014F0002091DB083091DC084091DD085091DE0836
:101500000E947F2C6093A3087093A4088093A50881
:101510009093A60880919B0890919C08A0919D08AB
:10152000B0919E088093D7089093D808A093D908CB
:10153000B093DA08C092DB08D092DC08E092DD08B4
:10154000F092DE0860917F037091800380918103A7
:10155000909182036F5F7F4F8F4F9F4F60937F0308
:101560007093800380938103909382030E942C2DBB
:101570009B01AC016091830370918403809185038A
:10158000909186030E94832E60937B0370937C036B
:1015900080937D0390937E0326960FB6F894DEBF6A
:1015A0000FBECDBFDF91CF910F91FF90EF90DF90F5
:1015B000CF90BF90AF909F908F90089581E090E082
:1015C00045CFCF92DF92EF92FF92CF9384E090E0ED
:1015D000A8D180E090E0A0E8BFEB809387039093D0
:1015E0008803A0938903B0938A038AE097EDA3E26E
:1015F000BCE38093830390938403A0938503B0930B
:10160000860388E197ECAEE3BFE68093690390938D
:101610006A03A0936B03B0936C038CE39DE0ABE58E
:10162000B4EA80936D0390936E03A0936F03B0931D
:10163000700389EE94E8AFECB9E180937103909365
:101640007203A0937303B09374038CE79FE2A4EF3B
:10165000B8E18093750390937603A0937703B093DA
:10166000780389E593E090936803809367038BE4A4
:1016700093E090935A038093590389E592E0909305
:101680004C0380934B0328EE38E030934E032093B5
:101690004D033093500320934F0390935203809354
:1016A000510386EE98E0909354038093530385EEA4
:1016B00098E0909356038093550387EE98E09093BB
:1016C00058038093570389E793E090935E038093D8
:1016D0005D0389E693E090935C0380935B038BE763
:1016E00093E09093600380935F0380910402909154
:1016F0000502A0910602B09107028093D70890934B
:10170000D808A093D908B093DA088091000290918C
:101710000102A0910202B09103028093DB08909332
:10172000DC08A093DD08B093DE0880912002909140
:101730002102A0912202B091230280939B089093F2
:101740009C08A0939D08B0939E081092AB088091CE
:10175000080290910902A0910A02B0910B028093B5
:10176000B1089093B208A093B308B093B40881E095
:1017700090E0A0E0B0E08093AC089093AD08A09317
:10178000AE08B093AF0880E090E0A0E8BFE380939C
:10179000B5089093B608A093B708B093B80880E056
:1017A00090E0A0E0B1E48093B9089093BA08A093C8
:1017B000BB08B093BC0880E090E0A0ECB0E480935C
:1017C000BD089093BE08A093BF08B093C00880E006
:1017D00090E0A0E0B0E48093C1089093C208A09389
:1017E000C308B093C4081092C5081092C60810929E
:1017F000C7081092C80860E070E080E89FE337DC1B
:101800006B017C0120E030E040E853E40E94F72CBB
:1018100087FF46C020E030E0A901C701B6010E9461
:101820007F2E87FD3FC0C701B6010E94002D862F85
:101830000E943801C1E0C093B0081092D6081092FF
:10184000CB0880910C0290910D02A0910E02B091F4
:101850000F028093D2089093D308A093D408B0933A
:10186000D5081092D00881E090E0A0E0B0E080932D
:10187000CC089093CD08A093CE08B093CF0846ED46
:1018800058E063E082E068D9C093D0081092D10894
:101890008091D608CF91FF90EF90DF90CF905ACAF9
:1018A0008FEFC6CF80E0C4CF8091AB08811103C019
:1018B00081E08093AB088091CB08811113C081E057
:1018C0008093CB088091CC089091CD08A091CE0850
:1018D000B091CF080197A105B10521F48091D008FE
:1018E000811145CA089560E070E080E89FE708959F
:1018F00060E070E080E89FE7089560E070E080E8D5
:101900009FEF089560E070E080E89FEF089560E049
:1019100070E080EC9FEF089560E070E080EC9FEF56
:101920000895F5DF6093F5087093F6088093F70843
:101930009093F808F1DF6093E9087093EA088093C8
:10194000EB089093EC08CFDF6093F1087093F208F6
:101950008093F3089093F408CBDF6093ED087093C5
:10196000EE088093EF089093F008C7DF6093F908C2
:101970007093FA088093FB089093FC08C3DF609390
:10198000FD087093FE088093FF0890930009089566
:10199000CF92DF92EF92FF92CF936B017C01AC016B
:1019A0009B016091F1087091F2088091F308909189
:1019B000F4080E94F72CC1E0882371F0A70196017A
:1019C0006091F9087091FA088091FB089091FC08E9
:1019D0000E94F72C8111C0E08C2FCF91FF90EF90E7
:1019E000DF90CF9008950F931F938B019C010027E8
:1019F000112720783F770115110520483F4749F40A
:101A0000AB01BC016F77772781E0452B462B472B35
:101A100009F480E01F910F910895E5CF4F925F92F6
:101A20006F927F928F929F92AF92BF92CF92DF92EE
:101A3000EF92FF920F931F93F89440909803509069
:101A4000990360909A0370909B03C0908C03D09090
:101A50008D03E0908E03F0908F03452B09F0A4C016
:101A60009B01AC01241935094609570929013A019E
:101A70000091940310919503209196033091970360
:101A800048015901840C951CA61CB71C80169106B0
:101A9000A206B306A0F40091900310919103209147
:101AA0009203309193030F5F1F4F2F4F3F4F0093CF
:101AB00090031093910320939203309393038092A9
:101AC000940390929503A0929603B092970300918D
:101AD000900310919103209192033091930380928F
:101AE0009C0390929D03A0929E03B0929F0300934B
:101AF000A0031093A1032093A2033093A303609348
:101B000098037093990380939A0390939B03A0E1A9
:101B1000B7E2A30192010E9445386C0D7D1D8E1D18
:101B20009F1D60938C0370938D0380938E0390931D
:101B30008F0300912C0210912D0220912E023091E2
:101B40002F020F3F1F4F2F4F3F4FF1F000912C02FC
:101B500010912D0220912E0230912F020E3F1F4F27
:101B60002F4F3F4F89F0C0902C02D0902D02E09073
:101B70002E02F0902F0221E08C149D04AE04BF04CD
:101B800008F420E02093A80378941F910F91FF9010
:101B9000EF90DF90CF90BF90AF909F908F907F900D
:101BA0006F905F904F9008954B015C0184189508E9
:101BB000A608B708A3019201261B370B480B590B47
:101BC0006415750586059705D0F082169306A40660
:101BD000B50640F420E030E0A90181149104A1048D
:101BE000B10491F4A0E1B7E20E944538A701960143
:101BF000261B370B480B590BCA01B901C5CF8216FA
:101C00009306A406B50670F7A0E1B7E2A50194011A
:101C10000E9445386C0D7D1D8E1D9F1DB5CFFECEDB
:101C2000CF93DF9300D01F92CDB7DEB71C821B820B
:101C30001A8219821092A4031092A5031092A6038F
:101C40001092A703BE016F5F7F4FCE0103960E94E3
:101C5000C32A69817A818B819C810E94EC23009741
:101C600061F4BE016F5F7F4FCE0103960E94CF2AC1
:101C700069817A818B819C812ED50F900F900F9076
:101C80000F90DF91CF910895FF920F931F93CF9301
:101C9000DF93082F60E070E0CB010E942831FF2421
:101CA000F3940E94D522EC01892B89F010E0CE3FFD
:101CB0008FEFD80769F0002361F160E070E0CB019D
:101CC0000E94283181E090E0892B59F322C011E075
:101CD00025D5EC01892B21F0CE3F8FEFD80759F79E
:101CE00011111EC011E0229609F410E00E94852215
:101CF000EC01892B21F0CE3F8FEFD807E1F61111CF
:101D000011C011E0CE3F8FEFD80709F410E00111A8
:101D10000BC0CE01DF91CF911F910F91FF900895DD
:101D200011E0E4CF11E0F3CF60E070E0CB010E945E
:101D300028311F25812F90E0C7CFCF93DF9380916B
:101D4000A803882321F060E070E0CB014CD635D6A3
:101D5000D0E0C0E0892B71F06AE070E080E090E0B4
:101D60000E94283181E090DF28D62196C03D27E0EF
:101D7000D20781F727D60E9440241092C003109208
:101D8000BF031092B9031092BA031092BB031092D2
:101D9000BC031092B5031092B6031092B7031092D1
:101DA000B8031092B1031092B2031092B3031092D1
:101DB000B4031092AD031092AE031092AF031092D1
:101DC000B0031092A9031092AA031092AB031092D1
:101DD000AC034EEF5FEF6FEF7FEF40932C02509319
:101DE0002D0260932E0270932F021092A803ECE94B
:101DF000F3E028E0DF011D922A95E9F7109298039D
:101E00001092990310929A0310929B0310929403DC
:101E100010929503109296031092970310929003DC
:101E200010929103109292031092930310928C03DC
:101E300010928D0310928E0310928F03DF91CF9139
:101E400008951092CC031092CD031092CE031092FD
:101E5000CF031092CB038091D4039091D50390933C
:101E6000CA038093C9031092C8031092C70310924B
:101E7000C3031092C4031092C5031092C6031092BC
:101E8000D1031092D00390E080E00895CF92DF92CA
:101E9000EF92FF920F931F93CF938C01892B09F040
:101EA00055C02091D4033091D5038091C9039091FE
:101EB000CA034091D4035091D5035093CA03409371
:101EC000C9032817390781F01092C8031092C7037D
:101ED0001092C3031092C4031092C5031092C6035C
:101EE0001092D1031092D0038091D4039091D50326
:101EF000019761F58091D0039091D103892B21F452
:101F000080913002811112C08091D0039091D10351
:101F10000197E1F48091C3039091C403A091C5039C
:101F2000B091C6030197A105B10581F41092C303D6
:101F30001092C4031092C5031092C603109230028F
:101F400082E090E09093D1038093D0038091D403FA
:101F50009091D503019709F01CC18091EA039091FB
:101F6000EB038017910709F014C18091E60390916B
:101F7000E703A091E803B091E903009709F409C1D0
:101F80002091E50321110DC04091E6035091E70334
:101F90006091E8037091E903452B462B472B09F428
:101FA000F8C02091D0033091D1032230310509F0DF
:101FB000F0C02091C7032111ECC0FC01C080D1808A
:101FC000E280F3808091CB03882309F4D3C0809111
:101FD000D7039091D803892B09F4FDC02091D70332
:101FE0003091D80381E02230310509F080E0209162
:101FF000D7033091D803C1E02130310549F0209159
:10200000D7033091D803C1E02230310509F0C0E098
:10201000882309F456C02091E1033091E2034091F6
:10202000E3035091E403C701B6010E947F2E87FDB0
:1020300014C02091E1033091E2034091E3035091F9
:10204000E4036091CC037091CD038091CE03909115
:10205000CF030E94F72C87FD22C02091E10330912D
:10206000E2034091E3035091E403C701B6010E94EB
:102070007F2E181634F52091E1033091E203409150
:10208000E3035091E4036091CC037091CD03809100
:10209000CE039091CF030E94F72C811112C0809142
:1020A000D9039091DA03A091DB03B091DC03892B73
:1020B0008A2B8B2B19F481E08093C80381E08093F5
:1020C000C703CC2309F456C02091E1033091E20309
:1020D0004091E3035091E403C701B6010E94F72C3D
:1020E00087FF14C02091E1033091E2034091E303A4
:1020F0005091E4036091CC037091CD038091CE03A5
:102100009091CF030E947F2E87FF22C02091E10390
:102110003091E2034091E3035091E403C701B6011B
:102120000E94F72C811126C02091E1033091E20337
:102130004091E3035091E4036091CC037091CD038F
:102140008091CE039091CF030E947F2E181694F4B5
:102150008091D9039091DA03A091DB03B091DC0365
:10216000892B8A2B8B2B19F481E08093C80381E0A3
:102170008093C70381E09091C703911180E0809321
:10218000CB03C092CC03D092CD03E092CE03F09269
:10219000CF03012B09F067C18091D0039091D10347
:1021A000892BD9F41092D6031092C7038091300284
:1021B000882379F082E090E09093D1038093D0035C
:1021C000109230022091D4033091D50381E0232B6B
:1021D000E9F080E01BC081E00ACF109230028091CC
:1021E000D603882349F01092C8031092D1031092AD
:1021F000D0031092D603EDCF8091D4039091D503F4
:10220000892BE1F08091C7031092C7032091D0037E
:102210003091D1032230310509F45EC088F42115D4
:10222000310509F448C02130310509F4F3C010929A
:10223000C8031092C7031092D60338C081E0E6CFDE
:102240002330310509F4B1C02430310581F74091C4
:10225000C3035091C4036091C5037091C603411537
:1022600051056105710561F041505109610971091C
:102270004093C3035093C4036093C5037093C60394
:102280004091C3035091C4036091C5037091C6038C
:10229000452B462B472BD9F42091D2033091D30301
:1022A0002130310509F046C01092C8031092D103C5
:1022B0001092D0030CC080913002882341F082E05C
:1022C00090E09093D1038093D0031092300210924B
:1022D000C1038091C803CEC08823C9F38091D9037C
:1022E0009091DA03A091DB03B091DC031816190674
:1022F0001A061B060CF07DC08091D4039091D50383
:10230000019709F076C08091D9039091DA03A091EA
:10231000DB03B091DC038093C3039093C403A093C9
:10232000C503B093C60383E090E09093D1038093FC
:10233000D003CDCF4091DD035091DE036091DF03E8
:102340007091E003452B462B472BA9F01092C80350
:102350008091DD039091DE03A091DF03B091E00353
:102360008093C3039093C403A093C503B093C603A3
:1023700081E090E0DACF882399F08091310290914A
:102380003202A0913302B09134028093C303909340
:10239000C403A093C503B093C60384E090E0C5CF07
:1023A0001092C80382E090E0C0CF8091C303909167
:1023B000C403A091C503B091C6030097A105B10560
:1023C00059F00197A109B1098093C3039093C40305
:1023D000A093C503B093C6038091C3039091C40337
:1023E000A091C503B091C603892B8A2B8B2B09F0D2
:1023F0006ECF8091310290913202A0913302B09160
:102400003402892B8A2B8B2B09F44ECF81E08093E9
:10241000C803B3CF4091C3035091C4036091C50377
:102420007091C603411551056105710561F0415078
:102430005109610971094093C3035093C403609328
:10244000C5037093C6034091C3035091C4036091C8
:10245000C5037091C603452B462B472B09F037CF98
:102460008111C7CF9FCF8091C103882309F431CF59
:102470008091C203CF911F910F91FF90EF90DF9059
:10248000CF9008951092CC031092CD031092CE03FA
:102490001092CF031092CB031092D1031092D0036D
:1024A0001092CA031092C9031092EB031092EA0330
:1024B0001092C8031092C7031092C3031092C40372
:1024C0001092C5031092C6031092C2031092C1036A
:1024D0001092E6031092E7031092E8031092E903CA
:1024E0001092E5031092E1031092E2031092E303CD
:1024F0001092E40388EE93E0A0E0B0E08093310214
:1025000090933202A0933302B09334021092DD0311
:102510001092DE031092DF031092E0031092D903B1
:102520001092DA031092DB031092DC031092D803AE
:102530001092D70381E0809330021092D60310925C
:10254000D5031092D4031092D3031092D20390E0DB
:1025500080E008958091D4039091D503892B19F5DB
:1025600080913002882351F08091D603811106C0FA
:1025700081E08093C2038093C10308952091D60324
:102580003091300281E090E0332311F090E080E060
:1025900030E082239323892B21F01092C20381E043
:1025A000EACF1092C103089582E090E0FA0191838E
:1025B00080838FEF9FEF0895CF93DF93EA01009719
:1025C00011F00E946B251982188290E080E0DF9163
:1025D000CF910895DB01009719F48FEF8C93089544
:1025E0002EEF2C93FC013F96EF30F10508F034C03C
:1025F0008827E250FD4E8F4F0C943D382A13281344
:102600002613241322131E1320131C131A1318133A
:10261000151311130D1313132C1380E311968C93C0
:10262000089589E2FBCF82E2F9CF11961C920895BA
:1026300083E2F4CF81E2F2CF81E1F0CF87E2EECF07
:102640008AE2ECCF80E1EACF84E2E8CF88E2E6CF0D
:1026500086E2E4CF81E3E2CF80E2E0CF8091F8032D
:102660009091F90308959093F9038093F8030895E6
:102670008091F70308959091F703892B8093F703D6
:102680000895982F90958091F70389238093F703FD
:1026900008958091F60308958091F4039091F503D5
:1026A00008956115710559F0FB0130E020E070E0FC
:1026B00060E02417350719F06115710511F0CB01A1
:1026C0000895A081B181A817B90709F4BF012F5F50
:1026D0003F4F3696EECF8091FA0381111CC060D235
:1026E00066D29093ED038093EC030E946E1D0E94CE
:1026F000801D9093F1038093F0030E94ED210E94CE
:10270000F4219093EF038093EE0381E08093FA032A
:1027100090E080E0089584EF9FEF08958F929F925C
:10272000AF92BF92CF92DF92EF92FF920F931F93DF
:10273000CF93DF9300D000D000D01F92CDB7DEB78B
:102740001A86198618861F821E821D821C821B8291
:102750001A8219828091FA0307EF1FEF882309F488
:102760009CC08E010D5F1F4F9E012B5F3F4FAE013E
:10277000495F5F4FBE01675F7F4F90E080E00E943E
:1027800071238C01009721F00596029708F0DBC0B9
:1027900029853A852115310509F402C1ED80FE80B5
:1027A0004B815C81B701640F751F8F8198858617F7
:1027B000970708F4F5C0E20EF31ED7019C91903CF8
:1027C00009F07FC04230510508F47BC011968C910E
:1027D0004091F8035091F903452B09F49CC0913FB7
:1027E00008F071C02CE1290F2D3008F48BC02DE2C8
:1027F000290F203108F489C0903C21F481508230A7
:1028000008F483C088E3890F8B3008F481C09AEE06
:10281000C92E92E1D92EE4EDF2E16D817E81AE0107
:102820004F5F5F4F89859A8519955C01C114D1046A
:10283000A1F189809A808114910479F18B819C8126
:102840008815990508F487C010E000E04B815C8191
:1028500070E060E0C7010E94DD3801151105E9F460
:1028600049815A8169857A858D819E81680F791F9A
:10287000C501F6011995E980FA800D811E812F812D
:10288000388549855A856FEF7FEF81E090E00E949F
:102890000C238C01892B09F056C0C8012A960FB66B
:1028A000F894DEBF0FBECDBFDF91CF911F910F9186
:1028B000FF90EF90DF90CF90BF90AF909F908F9060
:1028C000089580E085CF30E020E0220F331FF9012A
:1028D000E451FC4F0190F081E02D309709F497CF3F
:1028E000892F90E01995009709F491CFDC01129699
:1028F000ED91FC9113971496CD90DC90309709F0F0
:102900008CCF1FC021E030E0E0CF22E030E0DDCF0F
:1029100023E030E0DACFD12CC12CECEDF2E19F3F87
:1029200009F07BCFE091EC03F091ED03309721F4B7
:10293000C90104EF1FEF0CC08FEF90E019950097CD
:10294000A9F604EF1FEF89859A85009709F4A5CFB2
:102950000E946B25A2CF0E943B248C0189859A8519
:102960000E946B2570E060E0C4010E94D423988728
:102970008F830E9409239E838D836F8178856115E3
:10298000710559F0C8010E94F7269A87898706EFDA
:102990001FEF892B09F058CF59CF08EF1FEF56CF03
:1029A00008EF1FEFD0CF2091FA03222319F020E087
:1029B0000C94851D87EF9FEF08958091F803909107
:1029C000F90308950E94F9210E945321F5D0ECEEFD
:1029D000F3E088E0DF011D928A95E9F71092FA038F
:1029E00090E080E008950C94B31F21E040E050E0B7
:1029F000BA010C94851D86E090E0FA0191838083F2
:102A000090E080E0089547E050E06CE572E049CE48
:102A1000DF92EF92FF920F931F93CF93DF938A0180
:102A2000EC01C60FD71FE090FE03F090FF03D980A2
:102A30000E942324D816190678F082E090E0F8016D
:102A4000918380838EEF9FEFDF91CF911F910F9144
:102A5000FF90EF90DF900895EF2841F482E090E03E
:102A6000F8019183808384EF9FEFEECF898180937B
:102A7000FD0390E00196F8019183808390E080E06F
:102A8000E3CFCF93DF93EA010E946420882321F0F3
:102A90000E9430240E94652082E090E09983888320
:102AA0008BEF9FEFDF91CF910895CF93DF93EB01F1
:102AB00086E0FB0111928A95E9F78FEF8883D8DDD4
:102AC0008983E7DD8A83E8DD9D838C83DF91CF9165
:102AD0000895CF93DF93EA010E946720811109C016
:102AE00082E090E09983888385EF9FEFDF91CF911B
:102AF000089590E080E0B7DD81E090E099838883DD
:102B000090E080E0F3CF0F931F93CF93DF93EA0120
:102B10008C01060F171F0E94672081110BC082E0F5
:102B200090E09983888385EF9FEFDF91CF911F918C
:102B30000F910895F8018181823038F082E090E0B1
:102B4000998388838EEF9FEFF0CF81E090E08BDD5B
:102B500088E090E09983888390E080E0E6CFCF938F
:102B6000DF930097D1F4EB01FB01329686E0DF01A1
:102B70001D928A95E9F78FEF888385E089831A8211
:102B80000E9423248B830E9422249D838C8381E0D6
:102B90008E838F83DF91CF910895DF91CF911ACDEE
:102BA00083E095E19093FC038093FB03089580916B
:102BB000FB039091FC0308951092FC031092FB0319
:102BC00008958091FE039091FF030895411105C07F
:102BD000611571058105910561F06093FE037093A5
:102BE000FF0380930004909301044093020481E06A
:102BF000089580E00895FF920F931F93CF93DF9382
:102C00008A01EC01C60FD71FF9800E942324F81611
:102C1000190668F082E090E0F801918380838EEFDE
:102C20009FEFDF91CF911F910F91FF9008956C81DD
:102C30007D818E819F814B81C9DF811108C082E037
:102C400090E0F8019183808384EF9FEFEACF898140
:102C50008093FD0390E00196F8019183808390E0DA
:102C600080E0DFCFCF93DF93EA01FC01E60FF71F8F
:102C700064817581868197814381A8DF811109C0B4
:102C800082E090E09983888384EF9FEFDF91CF917A
:102C9000089581E090E09983888390E080E0F6CF0A
:102CA000EEEFF3E04081518162817381480F511D45
:102CB000611D711D40835183628373830895CF9397
:102CC000C091FD034C2F50E06091FE037091FF0313
:102CD00001960E94D4388C2FE3DF1092FD03CF9130
:102CE0000895009799F48091FE039091FF032FEFD0
:102CF000FB012083892B59F02091FD0330E02F5FE9
:102D00003F4F2417350719F4CB01D9CF63CC089571
:102D1000009799F48091FE039091FF032FEFFB0140
:102D20002083892B59F02091FD0330E02F5F3F4F26
:102D30002417350719F4CB01C2CF4CCC089523E1F9
:102D4000AC01249FC001259F900D1124E091070440
:102D5000F0910804E80FF91F2381348122503109D2
:102D600081E02230310508F080E008950F931F9331
:102D7000CF93DF930091090410910A04D0E0C0E0E2
:102D800080E00C171D0749F491E0811190E0892F34
:102D9000DF91CF911F910F9108958111F5CFCE0151
:102DA000CEDF2196EECFA0910704B09108041097D2
:102DB00029F12091090430910A0482179307F0F455
:102DC00053E1589F9001599F300D1124A20FB31F5A
:102DD000ED91FC911197309789F012968C916817BC
:102DE00068F48BE0689FE00DF11D112480819181D2
:102DF000892B21F081E09281491708F080E0089545
:102E00009C0143E1429FC001439F900D1124E0913A
:102E10000704F0910804E80FF91F8385823091F4CC
:102E200081E090E0658176814091350250913602D3
:102E30006417750711F490E080E0892B19F081E0A8
:102E4000232B09F080E00895EF92FF920F931F93D8
:102E5000CF93DF93EA01FC01E60FF71F0281138194
:102E6000E480F5804F2D6E2DC8019DDF81110DC0CE
:102E700082E090E0998388838EEF9FEFDF91CF917E
:102E80001F910F91FF90EF900895C80158DF88239C
:102E900039F082E090E09983888388EF9FEFEECF4E
:102EA00010933C0200933B02E0923D02F0923E02FE
:102EB00081E090E09983888390E080E0DFCFCF923B
:102EC000DF92EF92FF920F931F93CF93DF937A01DC
:102ED000EC01C60FD71FC0903B02D0903C0200917E
:102EE0003D0210913E02412F602FC6015CDF81112F
:102EF00010C082E090E0F701918380838AEF9FEF1A
:102F0000DF91CF911F910F91FF90EF90DF90CF90C5
:102F10000895C60114DF882341F082E090E0F701B4
:102F20009183808388EF9FEFEBCF4C815D816E8131
:102F30007F819A8189818F3F41F082E090E0F701A3
:102F4000918380838EEF9FEFDBCFE3E1EC9D9001D7
:102F5000ED9D300D1124E0910704F0910804E20F7B
:102F6000F31F0190F081E02D2BE0029FE00DF11D99
:102F700011240190F081E02D27E0129FE00DF11D5A
:102F80001124808391838B8182834383548365835F
:102F900076831F5F10933E0281E090E0F7019183FA
:102FA000808390E080E0ACCFEF92FF920F931F936D
:102FB000CF93DF937A018C01060F171FC09107048E
:102FC000D0910804209781F021E030E0F80182815F
:102FD00093814091090450910A048417950710F0D9
:102FE00030E020E0232B71F482E090E0F701918340
:102FF00080838EEF9FEFDF91CF911F910F91FF9014
:10300000EF90089543E1489F9001499F300D1124AE
:10301000C20FD31F94DE882341F082E090E0F701D5
:103020009183808388EF9FEFE6CFF801248135817B
:1030300020383105C8F687818111D6CF4181842F90
:1030400090E08F7E009741F082E090E0F70191835D
:10305000808386EF9FEFCFCF4F833E832D832681E2
:1030600028871986223010F421E0288721E030E0FB
:10307000F70131832083BFCF88E090E0FA0191838C
:10308000808390E080E00895FB018FEF808381E1F1
:1030900081838FEF9FEF9383828380E890E0958315
:1030A0008483168217820895FB018FEF808391E05D
:1030B000918382839383848384E3858381E090E09A
:1030C000978386830895DF92EF92FF920F931F9369
:1030D000CF93DF93EA01FC01E60FF71F8181813076
:1030E00071F082E090E0998388838FEF9FEFDF910A
:1030F000CF911F910F91FF90EF90DF900895828103
:103100009381D4802581E680F78000910704109197
:1031100008040115110539F482E090E09983888351
:103120008CEF9FEFE4CF4091090450910A0484177B
:10313000950738F082E090E0998388838EEF9FEFC7
:10314000D6CF892B39F082E090E09983888386EF8F
:103150009FEFCDCF8D2D8D7FB1F72130A1F781E08D
:10316000D11006C091E0E916F10431F080E004C00E
:10317000E2E0EE16F104D0F3882329F390E080E03A
:10318000DEDD882339F082E090E09983888388EF40
:103190009FEFADCFF801D38681E08487F686E58680
:1031A000108A178681E090E09983888390E080E020
:1031B0009ECF4CE050E066E872E073CA8F929F9217
:1031C000BF92CF92DF92EF92FF920F931F93CF9314
:1031D000DF93EA01FC01E60FF71F828193810481EE
:1031E000B580E0910704F0910804309791F482E0F3
:1031F00090E0998388838CEF9FEFDF91CF911F91AF
:103200000F91FF90EF90DF90CF90BF909F908F90A5
:1032100008952091090430910A048217930738F029
:1032200082E090E0998388838EEF9FEFE6CF23E1E1
:10323000289F6001299FD00C1124EC0DFD1DE0801A
:10324000F180E114F10499F28281081748F78BE0CC
:10325000089F80011124E00EF11EF7018081918109
:10326000892B29F6BB20E1F2F7E0BF9E4001112433
:10327000C4010E942025F70191838083E091070417
:10328000F0910804EC0DFD1D0190F081E02DE00FA0
:10329000F11F80819181009739F482E090E0998359
:1032A00088838DEF9FEFA9CFA40170E060E00E94BA
:1032B000DD388091070490910804C80ED91EF601EC
:1032C00080819181080F191FF801B28281E090E09E
:1032D0009983888390E080E090CFAF92BF92CF92A5
:1032E000DF92FF920F931F93CF93DF93EA01FC01CC
:1032F000E60FF71F82819381F480009107041091FB
:1033000008040115110581F482E090E09983888317
:103310008CEF9FEFDF91CF911F910F91FF90DF9086
:10332000CF90BF90AF9008952091090430910A0486
:103330008217930738F082E090E0998388838EEFBC
:103340009FEFE8CF2FEF2F0D2C3FA8F723E1289F09
:103350006001299FD00C11240C0D1D1DF8018081E6
:103360009181892B89F6FBE0FF9E50011124C50154
:103370000E942025F80191838083E0910704F09159
:103380000804EC0DFD1D80819181009739F482E0E5
:1033900090E0998388838DEF9FEFBCCFA50170E00B
:1033A00060E00E94DD38E0910704F0910804EC0D24
:1033B000FD1DF28281E090E09983888390E080E0B7
:1033C000A9CFCF92DF92EF92FF920F931F93CF93EB
:1033D000DF93860F971FFC01028113818091070400
:1033E00090910804892B81F082E090E0FA019183AA
:1033F00080838CEF9FEFDF91CF911F910F91FF9012
:10340000EF90DF90CF900895C801B0E0A0E0019761
:10341000A109B1098F3F9F4FA105B10540F082E09E
:1034200090E0FA01918380838EEF9FEFE4CF7A01E1
:1034300083E1809F6001819FD00C1124C6010E940E
:103440002025EC01009741F482E090E0F7019183A0
:1034500080838DEF9FEFCFCFA60170E060E00E94E8
:10346000DD38D0930804C093070410930A04009336
:10347000090490E080E02FEF3FEF41E061E070E071
:103480008017910741F481E090E0F70191838083F8
:1034900090E080E0B0CF3A8B298B1B864C877E87EB
:1034A0006D87188A1F8601966396EACFCF92DF92C6
:1034B000EF92FF920F931F93CF93DF93EC01D12CE8
:1034C000C12C10E000E0F12CE12C6A81601711069C
:1034D00009F0CCF483E0689FB0011124AE014F5E87
:1034E0005F4FC7010E949725009721F02FEF3FEF14
:1034F0003A8B298BDF91CF911F910F91FF90EF9025
:10350000DF90CF900895E881F981EC0DFD1D438196
:1035100054818D859E85489F9001499F300D589F0D
:10352000300D1124C90101960115110519F44F81BF
:1035300044FD049661E070E00E94D423E816F90689
:1035400008F47C010F5F1F4F8BE0C80ED11CBDCF6C
:10355000F894209105043091060481E0211531058D
:1035600009F080E0232B09F0789408952F923F9280
:103570004F925F926F927F928F929F92AF92BF9283
:10358000CF92DF92EF92FF920F931F93CF93DF932F
:103590003C01660E771EF301828193814C01B12CB0
:1035A000A12CC0910704D0910804209769F021E074
:1035B00030E06091090470910A048617970710F0B3
:1035C00030E020E0232BD1F482E090E0FA019183F7
:1035D00080838EEF9FEFDF91CF911F910F91FF902E
:1035E000EF90DF90CF90BF90AF909F908F907F90A3
:1035F0006F905F904F903F902F90089580923F0280
:1036000090924002A0924102B092420263E1689F10
:103610009001699F300D1124C20FD31FF3018181E6
:10362000833040F082E090E0FA019183808386EF5E
:103630009FEFD1CF2A012B813C81232BF1F42881EC
:1036400039819F8191FF2EC0232B09F46FC02091F7
:103650000C049A81422F490F5527551FBA0141E0AA
:1036600050E06138710514F050E040E0452B09F45A
:103670005DC02A87920F90930C048150823008F429
:1036800081C066DF882309F4D6C0F30181818130CF
:1036900009F48DC008F47BC0823009F4C4C090E006
:1036A00080E0ADC0232B09F441C020910B049A8126
:1036B000E22FE90FFF27FF1F41E050E0ED3FF1054A
:1036C00014F050E040E0452B89F12A87920F909347
:1036D0000B04D3CFA081B181A20FB31F11966C91BF
:1036E000060F111D0196295F3F4F8417950794F32C
:1036F0008D859E85089F1001099F300C189F300C06
:103700001124C114D104D1F48F8184FF17C00E9409
:103710002224F5E02F0E311C21E08215930508F4D8
:1037200020E0A701455F5F4F21110EC082E090E0CD
:10373000F2019183808387EF9FEF4DCF0E94222477
:103740002FEF221A320AE8CF88819981E80EF91EFC
:10375000F70114830383FFEFCF1ADF0A7A018A810E
:103760008C151D0409F00CF48CCFE881F981EE0D65
:10377000FF1D428150E030E020E010E000E090E0EA
:1037800080E0B3CFF12CE12CD12CC12CE8CF81E02B
:1037900090E09C838B83EADA882309F480CF81E070
:1037A00090E00E94331380E40E94411378CF89890E
:1037B0009A89019661F083E090E09C838B8382E09C
:1037C00090E00E94331380E40E943B1368CF2D8168
:1037D0003E81809135029091360228173907D1F445
:1037E0006091390270913A02AE014F5E5F4F809155
:1037F0003702909138020E94B6260097E1F2789441
:1038000022E030E0F20131832083892B89F08DEFB3
:103810009FEFE1CE89288A288B2869F6CE0146DE03
:10382000188A1F86EACF82E090E09C838B8337CF93
:1038300090E080E0D0CE82E090E0F201918380833E
:1038400085EF9FEFC8CE8F929F92AF92BF92CF929B
:10385000DF92EF92FF920F931F93CF93DF93EA01D2
:103860008C01060F171FF8018181833098F082E0E8
:1038700090E09983888386EF9FEFDF91CF911F912E
:103880000F91FF90EF90DF90CF90BF90AF909F90FF
:103890008F9008958091070490910804892B61F01E
:1038A00081E090E02091090430910A04232B11F467
:1038B00090E080E0892B39F482E090E0998388835E
:1038C0008EEF9FEFDACF44DE882309F4DDC0F801E4
:1038D0008181813009F493C0E8F0823099F420911D
:1038E000090430910A04E0910704F091080490E083
:1038F00080E041E050E02817390709F0BBC036DA14
:10390000811117C0789481E090E09983888390E0DA
:1039100080E0B3CF2091090430910A04E0910704BC
:10392000F091080490E080E041E050E0281739076A
:1039300041F481E090E00E94331380E40E9441133F
:10394000E1CF63817481672B11F054834383019627
:103950007396ECCFE0910704F0910804E00FF11F9B
:103960002381348122303105D9F4218932892F3FD6
:103970003F4FB1F445815681209135023091360296
:103980004217530761F5AF014F5E5F4F60913902F7
:1039900070913A0280913702909138020E94B626C7
:1039A000EFEFCE1ADE0AEE0AFE0A0D5E1F4F4091BF
:1039B000090450910A0470E060E0C416D506E606DA
:1039C000F7062CF5009731F27894892B09F49BCFF8
:1039D00082E090E0998388838DEF9FEF4ECFC114F2
:1039E000D104E104F104E1F6CF0160DDE0910704C8
:1039F000F0910804E00FF11F108A1786D1CF10E074
:103A000000E090E080E0C12CD12C7601D0CF00976F
:103A1000D9F610E000E0812C912C540183E0E82ECF
:103A2000F12C1AC0E0910704F0910804E00FF11F97
:103A300083819481029749F4F482E38282E090E0EA
:103A40000E94331380E40E943B13FFEF8F1A9F0AFA
:103A5000AF0ABF0A0D5E1F4F8091090490910A04BE
:103A6000B0E0A0E088169906AA06BB06DCF290E05A
:103A700080E0AACF638174816230710511F45483B0
:103A800043830196739637CF82E090E099838883D1
:103A900085EF9FEFF2CE0097B9F48FEFFB018083A3
:103AA00020913F023091400243E1429FC001439F79
:103AB000900D1124E0910704F0910804E80FF91F1C
:103AC0008285FB01818308950C94EA1288E090E0DE
:103AD000FA019183808390E080E0089510920604BB
:103AE00010920504E7E0F4E086E0DF011D928A957C
:103AF000E9F789ED98E19093040480930304089515
:103B0000809103049091040408952F923F924F9264
:103B10005F926F927F928F929F92AF92BF92CF925D
:103B2000DF92EF92FF920F931F93CF93DF93CDB766
:103B3000DEB760970FB6F894DEBF0FBECDBFF89426
:103B4000E0910504F09106043196F0930604E093A9
:103B500005047894A0910704B0910804BA83A9835E
:103B6000109709F4FAC1E0910904F0910A04EF2BCF
:103B700009F4F3C128874B875C876D877E879A8716
:103B80008987B88BAF87312C212CF12C512C412CFB
:103B90008091090490910A042816390610F4FF2038
:103BA00029F1F8948091050490910604019790936F
:103BB0000604809305047894C20160960FB6F894C9
:103BC000DEBF0FBECDBFDF91CF911F910F91FF9050
:103BD000EF90DF90CF90BF90AF909F908F907F90AD
:103BE0006F905F904F903F902F900895B10190E0BB
:103BF00080E086D4682EEF85F889878181FD3DC0FD
:103C0000838194810397C9F5258136813C832B8379
:103C100089859A852817390781F5C101F1D8782E51
:103C20008823A9F1AF85B8891F968D919C915097F3
:103C3000019621E01D964D915C918417950709F03E
:103C400020E02F83B12CA12CEF85F88982818A1581
:103C50001B0419F014F0FF20E9F0F885FF2309F4A4
:103C60006CC1AF85B88950961C921E921F97662032
:103C700021F0B10190E080E045D4FFEF2F1A3F0A18
:103C80002F8538892D5E3F4F388B2F8781CFB1E04C
:103C9000BF83D8CFBED49E838D83E885EE23E9F021
:103CA000772009F43CC1AF85B8891F968D919C910E
:103CB000892B79F0BBE0BA9DC001BB9D900D11240A
:103CC000AF85B889ED91FC91E80FF91F8581968148
:103CD00002D7BFEFAB1ABB0AB7CF81E0772039F02C
:103CE000EF85F88927853089232B09F080E0F82EAD
:103CF000E12CA114B10439F4AF85B8891796EC9082
:103D0000E4FAEE24E0F8BBE0BA9D6001BB9DD00C64
:103D10001124882309F424C1AF85B889ED91FC9161
:103D20001197EC0DFD1D438154811D962D913C9101
:103D3000429FC001439F900D529F900D1124E110AE
:103D40005DC001969087878361E070E087819085F0
:103D50002BD5EF85F88921893289008111810C0DDD
:103D60001D1D2F3F320709F44BC0BC01C9010E9441
:103D7000F726D80116969C938E931597AF85B88930
:103D8000ED91FC911197EC0DFD1D0581168101153A
:103D9000110509F4CDC0ED81FE810E0F1F1F1A968B
:103DA0008C918A0DD8018C93E1102FC00F5F1F4FAB
:103DB000AF85B889ED91FC91EC0DFD1D128701874F
:103DC000AF85B889ED91FC91EC0DFD1D8581968143
:103DD000892B09F4A4C080913502909136022B8181
:103DE0003C812817390709F465C0772011F0018557
:103DF0001285912C812C1A8219824AC00596A2CF75
:103E00001FD6F80196838583B9CF8B859C85AD85B8
:103E1000BE85F80181839283A383B4830B5F1F4F18
:103E2000C7CFE080F180E80CF91CD70113966D91A3
:103E30007C9114978C918F3F09F473C0E1E0F0E01E
:103E400002C0EE0FFF1F8A95E2F7CF01092E000C8A
:103E5000AA0BBB0BFB0140815181628173818423DA
:103E60009523A623B72321E0892B8A2B8B2B09F4DA
:103E700020E0D8012C93D70111968C91080F111DC9
:103E8000E981FA813196FA83E983F7E08F0E911C7C
:103E9000AF85B889ED91FC91EC0DFD1D82812981E2
:103EA0003A818217130611F00CF0BBCF772011F086
:103EB000128701873F81332391F1AF85B889ED9156
:103EC000FC91EC0DFD1D61E070E0878190856CD464
:103ED000AF85B889ED91FC91EC0DFD1DE780F08474
:103EE00045815681E1E0F0E0662011F0F0E0E0E08D
:103EF0000D811E819C01B101882799278E1B9F0B84
:103F00008BD32C01892B59F0EF85F8898081918121
:103F1000C80ED91ED60115968D919C91DCD5F12C39
:103F2000D8CEF701418150E0C8010E94D438A3CF18
:103F300086EF482E55245A94CCCEEF85F889878594
:103F400090890196908B8787258536858217930700
:103F500009F08DCE108A17868ACE512C412C21CEA5
:103F600010E000E02DCF2F923F924F925F926F9220
:103F70007F928F929F92AF92BF92CF92DF92EF92F9
:103F8000FF920F931F93CF93DF938091070490913B
:103F9000080410E000E0892BA9F0DADA0AEF1FEF3D
:103FA000882381F02090090430900A04C09107040E
:103FB000D0910804D12CC12C10E000E02C143D0459
:103FC000A9F47894C801DF91CF911F910F91FF90D0
:103FD000EF90DF90CF90BF90AF909F908F907F90A9
:103FE0006F905F904F903F902F900895C6010E9470
:103FF0000017882309F18B819C810397E9F48F8551
:104000009889892BC9F0B60190E080E079D221E04F
:1040100030E0882311F030E020E044245524421A97
:10402000530AB12CA12C912C812C8A81881519045A
:1040300009F038F4188A1F864FEFC41AD40A639621
:10404000BDCFE881F981EA0DFB1D85819681892B21
:10405000A1F161E070E087819085A6D33C01D9D2BF
:104060008C01E881F981EA0DFB1D8185928525810E
:104070003681200F311FAC01421B530B9A0147813F
:104080005085421B530B70E060E00E94DD38E881F0
:10409000F981EA0DFB1DE780F0844581568193018B
:1040A000B601C201B9D28C01892B39F0E881F981BE
:1040B000EA0DFB1D858196810ED55FEF851A950A65
:1040C0008BE0A80EB11CB1CF43CA789408952F920B
:1040D0003F924F925F926F927F929F92AF92BF9268
:1040E000CF92DF92EF92FF920F931F93CF93DF93C4
:1040F00000D000D0CDB7DEB70091070410910804BE
:10410000992493940115110509F43EC0A090090467
:10411000B0900A041DDA982E8823B1F11092080499
:104120001092070410920A041092090410920B04D2
:1041300010920C048FEF9FEFDC0180933F0290936D
:104140004002A0934102B093420278947DD31E8333
:104150000D83C12CD12C7601C501B0E0A0E089838C
:104160009A83AB83BC8322242A94322C89819A813E
:10417000AB81BC81C816D906EA06FB06F4F0C8017B
:10418000AAD480E40E944113892D26960FB6F89494
:10419000DEBF0FBECDBFDF91CF911F910F91FF907A
:1041A000EF90DF90CF90BF90AF909F907F906F90F7
:1041B0005F904F903F902F900895AD81BE811596EE
:1041C0002D913C91169780913502909136022817D7
:1041D0003907D1F451968D919C91F7D5ED81FE81EF
:1041E00080819181B12CA12C412C512C3201892B41
:1041F00079F5BFEFCB1ADB0AEB0AFB0AED81FE81F2
:104200007396FE83ED83B2CFC114D104E104F104AF
:1042100029F7ED81FE81818992898F3F980709F006
:1042200034D5AD81BE8152963C922E925197D6CF15
:104230008A0D9B1DDC018D919C91009709F04BD458
:10424000BFEF4B1A5B0A6B0A7B0AEBE0AE0EB11CA8
:10425000AD81BE818D919C91119712964C9150E049
:1042600070E060E044165506660677060CF333D41A
:10427000C0CFCF93DF93EA012ADF811109C082E02A
:1042800090E09983888385EF9FEFDF91CF91089528
:1042900081E090E00E94331381E090E0998388836D
:1042A00090E080E0F2CF13DF109204041092030438
:1042B000089542E050E06EEC72E00C945113FF92CE
:1042C0000F931F93CF93DF938A01EC01C60FD71F83
:1042D000F980B9D20897F816190671F068F082E0F3
:1042E00090E0F801918380838EEF9FEFDF91CF9173
:1042F0001F910F91FF9008956C817D818E819F8128
:104300004B810E94E615811108C082E090E0F8011F
:104310009183808384EF9FEFE9CFF9800E94E115BC
:104320004F2D50E0BE01685F7F4F0E94D4388981D5
:104330000E94501681E090E0F8019183808390E024
:1043400080E0D4CFDF92EF92FF920F931F93CF9331
:10435000DF938A01EC01C60FD71F0E94E1157C0193
:10436000D98071D2DD2059F0029721E030E0D816D3
:10437000190619F010F030E020E0232B79F482E0E8
:1043800090E0F801918380838EEF9FEFDF91CF91D2
:104390001F910F91FF90EF90DF900895EF2841F467
:1043A00082E090E0F8019183808384EF9FEFEECF6D
:1043B000F9800E94E1154F2D50E0BE016E5F7F4FE6
:1043C0000E94D43889810E94501681E090E0F80163
:1043D0009183808390E080E0D9CF89E591E290934A
:1043E0000E0480930D04089580910D0490910E04A5
:1043F00008950895FC0111821082938382830895A9
:10440000DB011D921C92DC011296ED91FC91139739
:104410007183608313967C936E9312970895FC01C9
:1044200080819181DB018D939C93A081B181109754
:1044300041F08D919C9191838083892B11F4F383BA
:10444000E2830895FC0180819181DB018D939C932F
:10445000892B11F473836283718360830895FC0157
:1044600011821082938382830895CF93DF931F92EA
:104470001F92CDB7DEB71A821982F894BE016F5F22
:104480007F4F84E194E0CBDF89819A81009709F026
:1044900022D389819A81892B89F7BE016F5F7F4F73
:1044A00088E194E0BCDF89819A81009709F013D3F9
:1044B00089819A81892B89F778940F900F90DF91E9
:1044C000CF910895CF93DF931F921F92CDB7DEB7A0
:1044D0001A821982F894BE016F5F7F4F80E194E0E9
:1044E0009EDF89819A81009709F0F5D289819A81AE
:1044F000892B89F778940F900F90DF91CF910895D1
:1045000081E0089590E080E00895EF92FF920F938C
:104510001F93CF93DF931F921F92CDB7DEB71A82FE
:10452000198280910F0407EF1FEF8823A1F1F894FF
:10453000BE016F5F7F4F88E194E071DF78948981DD
:104540009A81EE24E394F12C892B51F4F894BE0166
:104550006F5F7F4F84E194E062DF7894F12CE12C6F
:1045600089819A810EEF1FEF0097A9F0FC0142812B
:10457000538164E070E03BD68C01892B61F0F894A4
:1045800069817A81C701880F991F880F991F8C5EF6
:104590009B4F58DF7894C8010F900F90DF91CF9117
:1045A0001F910F91FF90EF9008950F931F93CF935A
:1045B000DF9300D01F92CDB7DEB71C821B821A8218
:1045C000198280910F0407EF1FEF8823C1F0AE011D
:1045D0004D5F5F4F64E070E0CE0101967BD68C01A9
:1045E000892B69F4E981FA818B819C819383828391
:1045F000F89469817A8180E194E002DF7894C801BF
:104600000F900F900F900F90DF91CF911F910F910E
:10461000089580D7049608958F929F92AF92BF928B
:10462000CF92DF92EF92FF920F931F93CF93DF937E
:104630001F921F92CDB7DEB71A821982BC016F5F3D
:104640007F4F6330710598F0AA24AA94BA2CC50153
:104650000F900F90DF91CF911F910F91FF90EF90EE
:10466000DF90CF90BF90AF909F908F9008954115AD
:10467000510551F3480159018A016C01CADF8815BF
:10468000990511F7E114F104F9F28E0D9F1DA8169A
:10469000B906D0F280910F048823F1F0F894B501A7
:1046A000645071099701AE014F5F5F4FC8010496D6
:1046B000A6D65C01892B71F489819A81F8019383D4
:1046C0008283C601880F991F880F991FB8018C5EDD
:1046D0009B4F96DE7894BBCF87EFA82EBB24BA946D
:1046E000B6CFAF92BF92CF92DF92EF92FF920F932D
:1046F0001F93CF93DF931F921F92CDB7DEB71A821D
:104700001982892B09F047C06115710509F443C06E
:104710004115510509F43FC02115310509F43BC08D
:1047200001151105C1F180910F048823B9F17901B8
:104730006A015B01F894BE016F5F7F4F80E194E0F6
:104740006EDE789489819A81009759F1DC01129686
:104750006D917C91A80104966BD68C01E981FA8158
:10476000D501ED93FC93828193810496F6019183A8
:1047700080834FDFD7018D939C93C8010F900F90DA
:10478000DF91CF911F910F91FF90EF90DF90CF902D
:10479000BF90AF9008950FEF1FEFEFCF07EF1FEF20
:1047A000ECCF0EEF1FEFE9CFCF93DF93EC01672B38
:1047B00071F4B9D68C179D0760F0ACD62496C80F5B
:1047C000D91FABD68C0F9D1FDF91CF910895A8D62E
:1047D000F1CF90E080E0F8CF0F931F93CF93DF935A
:1047E00020910F0421112BC08B01EC0184E194E096
:1047F00001DE88E194E0FEDD80E194E0FBDD97D00E
:104800000097C1F490D670E060E0CEDF43E452E060
:1048100062E070E08CD1009769F48091430290913E
:10482000440293D6B801CE01C8D4009719F421E010
:1048300020930F04DF91CF911F910F91089584EF82
:104840009FEFF8CF6DC66FC6CF93DF936FD6EC01A5
:10485000892B11F40ADE36DECE01DF91CF91089567
:10486000CF93DF9363D6EC01892B09F4FEDDCE01F3
:10487000DF91CF9108958091430290914402089571
:10488000CF93DF9380910F04D0E0C0E08823D1F074
:1048900061D6EC01892BB1F4E8DD14DE809143028E
:1048A00090914402F2D1F3D2EC01892B59F484E1C6
:1048B00094E0D5DD88E194E0D2DD80E194E0CFDDC5
:1048C00010920F04CE01DF91CF910895EF92FF92E5
:1048D0000F931F93CF93DF93EC017A018B010F5F4E
:1048E0001F4F0E9DA0010F9D500D1E9D500D1124B8
:1048F00070E060E00E94DD3890E080E0F0E0E0E011
:104900002FEFE816F90639F4DF91CF911F910F913F
:10491000FF90EF9008951A8219822883309711F042
:10492000D283C1830196FE01C00FD11FEACFCF927F
:10493000DF92EF92FF920F931F93CF93DF9309E6DD
:1049400015E00C7F8AEDE82E82E0F82E90EEC92E5D
:1049500092E0D92EC0EED5E0D7014D915D917D0159
:10496000F601619171916F01198308835D834C8316
:104970005B834A837F836E839B012F5F3F4F249F1E
:10498000C001259F900D349F900D11249987888731
:104990000115110511F0C80199DF88859985080F67
:1049A000191F2A96F0EEEF16F2E0FF06A9F6EEE1E7
:1049B000F4E088E491E0DF019C011D922150304039
:1049C000E1F710921D0410921C041092FF05109242
:1049D000FE05109203061092020610920106109234
:1049E0000006109205061092040610920706109217
:1049F0000606109209061092080610920D061092F3
:104A00000C0610920B0610920A0610920F061092D6
:104A10000E0610921106109210061092DD051092EB
:104A2000DC051092DF051092DE0590E080E0DF915A
:104A3000CF911F910F91FF90EF90DF90CF9008954D
:104A4000009761F1F8948132910580F48091E2053C
:104A50009091E305892B29F58091EC059091ED0566
:104A6000892B31F021E081E090E00BC0C197A8F4E0
:104A70008091F6059091F705892B79F022E082E08C
:104A800090E0EAE0E89FD001E99FB00D1124A05228
:104A9000BA4F8D919C91009741F4789490E080E01A
:104AA000089520E090E080E0ECCFE29FF001112437
:104AB000E052FA4FDC0111964D915C915183408395
:104AC000428153814150510953834283FC01219318
:104AD000CF0178940895009749F1DC018E918530DB
:104AE00041F4E091DE05F091DF053097F9F0CD015A
:104AF00019948530D8F4282F30E0F8948FEF8C93F8
:104B00008AE0829FF001839FF00D1124E052FA4F5A
:104B10008081918112969C938E931197B183A0838B
:104B20008281938101969383828378940895CF92B2
:104B3000DF92EF92FF920F931F93CF93DF939C012D
:104B400081E294E08C7F4115510509F49BC0211549
:104B5000310509F497C06115710509F493C07A0114
:104B6000AB01B9016D5F7F4F6C7F9B012F5F3F4FA2
:104B7000249F8001259F100D349F100D1124F8945F
:104B80002091FE053091FF05232B59F42091060654
:104B9000309107062115310569F12017310708F01A
:104BA00058C02091080630910906232B91F42091DA
:104BB000060630910706820F931F20911006309150
:104BC00011062115310509F441C02017310708F0FD
:104BD00056C07894CFEFDFEF86EF9FEFF701D183D8
:104BE000C083DF91CF911F910F91FF90EF90DF90E5
:104BF000CF900895C3E0D0E0C0901C04D0901D0475
:104C000025E431E02C193D092017310710F32AE083
:104C10002C9FF0012D9FF00D1124E052FA4F91834B
:104C200080835583448353834283778366831187CC
:104C30000087009709F04ADE0C0D1D1D10931D041E
:104C400000931C04789490E080E0C8CFC4E0D0E0EA
:104C5000D3CFC3E0D0E02AE02C9FF0012D9FF00DD0
:104C60001124E052FA4F9183808355834483538308
:104C7000428377836683009729F328DEE3CFC4E07D
:104C8000D0E0E9CF8FEF9FEFACCF9C010397029765
:104C900008F069C0F89484E09AE0482F50E02417A7
:104CA00035070CF44DC091E08AE0829FF001839FAC
:104CB000F00D1124E052FA4F1182108215821482F5
:104CC00013821282178216829923B1F1809108060D
:104CD00090910906892BA9F42091100630911106B4
:104CE0002115310571F080911C0490911D04821BE7
:104CF000930B90931D0480931C0410921106109244
:104D000010068091FE059091FF05892BA9F4209152
:104D10000606309107062115310571F080911C04BB
:104D200090911D04821B930B90931D0480931C048F
:104D30001092070610920606789490E080E008959D
:104D4000949FF001959FF00D1124E052FA4F40819D
:104D50005181452B31F440855185452B11F481500B
:104D60009CCF90E0A1CF8FEF9FEF089541155105A3
:104D700049F1009739F16115710521F1F8942091FD
:104D8000DC053091DD05232BB9F42091DE0530914F
:104D9000DF05232B89F49093DD058093DC05709368
:104DA000DF056093DE05789425E030E090E080E058
:104DB000FA0131832083089578942FEF3FEF86EF37
:104DC0009FEFF6CF8FEF9FEF0895059769F4F89462
:104DD0001092DD051092DC051092DF051092DE05C1
:104DE000789490E080E008958FEF9FEF089561152B
:104DF000710519F4F0E0E0E011C08530910581F40F
:104E0000E091DC05F091DD053097A1F3CB0101962F
:104E10001995009779F3FC0185E08193CF010895FE
:104E20009C01235031092230310520F72AE0289FC8
:104E3000D001299FB00D1124A052BA4F2D913C9161
:104E40001197232BB9F216962D913C91179726179F
:104E5000370780F2F89412962D913C911397211503
:104E6000310529F0ED91FC911197309711F4789468
:104E7000C1CF4181528111965C934E9321503109EB
:104E800013963C932E93129781937894C7CFE6E6BE
:104E9000F5E086E7DF011D928A95E9F7EEE1F4E09F
:104EA00088E491E0DF019C011D9221503040E1F740
:104EB00010921D0410921C04E0EEF5E082E3DF0185
:104EC0001D928A95E9F7ECEDF5E084E0DF011D9293
:104ED0008A95E9F790E080E00895CF93DF93C09141
:104EE0004502D0914602CF3FDC0759F4DFD39093BF
:104EF00046028093450297FF09C0D0934602C093B3
:104F0000450284EF9FEFDF91CF91089590E080E01C
:104F1000FACF8230910528F48093120690E080E069
:104F200008958FEF9FEF08954F925F926F927F9257
:104F3000AF92BF92CF92DF92EF92FF920F931F93A7
:104F4000CF93DF931F921F92CDB7DEB71A821982DB
:104F5000009709F479C06115710509F475C02091B5
:104F600045023091460207EF1FEF2F3F3F4F09F4F4
:104F700045C06B015C01412C512C3201F12CE12C1C
:104F800010E000E09E012F5F3F4FA6014E195F0920
:104F9000B5016E0D7F1D8091450290914602E4D3CC
:104FA000892B09F04BC089819A81009741F4E11463
:104FB000F10429F420911206222309F442C0E80EDC
:104FC000F91EEC14FD04D0F480E8481684E8580675
:104FD0008EE16806710420F560E070E0CB010E946C
:104FE00028312AE0420E511C611C711C0A3F4FEF10
:104FF000140721F0043F8FEF1807A1F4C8010F90A8
:105000000F90DF91CF911F910F91FF90EF90DF9064
:10501000CF90BF90AF907F906F905F904F9008952A
:1050200001EF1FEF81E090E0013F2FEF120711F039
:1050300090E080E0892B09F4A5CFE0CF04EF1FEFCB
:10504000DDCF0AEF1FEFDACF0FEF1FEFD7CF4F9271
:105050005F926F927F92AF92BF92CF92DF92EF9268
:10506000FF920F931F93CF93DF931F921F92CDB7A1
:10507000DEB71A821982009709F479C061157105AB
:1050800009F475C0209145023091460207EF1FEFE9
:105090002F3F3F4F09F445C06B015C01412C512C5F
:1050A0003201F12CE12C10E000E09E012F5F3F4F18
:1050B000A6014E195F09B5016E0D7F1D8091450255
:1050C0009091460207D3892B09F04BC089819A81C0
:1050D000009741F4E114F10429F4209112062223EF
:1050E00009F442C0E80EF91EEC14FD04D0F480E887
:1050F000481686E9580688E96806710420F560E0DC
:1051000070E0CB010E9428312AE0420E511C611C44
:10511000711C0E3F4FEF140721F0043F8FEF18076B
:10512000A1F4C8010F900F90DF91CF911F910F91C3
:10513000FF90EF90DF90CF90BF90AF907F906F90F7
:105140005F904F90089502EF1FEF81E090E0023FE3
:105150002FEF120711F090E080E0892B09F4A5CF22
:10516000E0CF04EF1FEFDDCF0EEF1FEFDACF0FEF31
:105170001FEFD7CF80914502909146028F3F98074D
:1051800049F08CD2892B49F48FEF9FEF9093460220
:105190008093450290E080E0089584EF9FEF0895AA
:1051A000FC01680F791F90E080E0E617F70709F42B
:1051B00008952191820F911DF8CF2091130621119E
:1051C00013C08BDE009791F4109219061092180606
:1051D00010921706109216061092150610921406D9
:1051E00021E020931306089584EF9FEF0895AF9276
:1051F000BF92CF92DF92EF92FF920F931F93CF93C4
:10520000DF93009709F460C04630510508F45CC094
:1052100020911306C7EFDFEF222309F449C08C0168
:10522000060F171FF801C080D180C114D10409F402
:105230004EC096012A5F3F4F4217530708F447C0FC
:105240007C01809118069091190693838283B601A0
:105250006C5F7F4F5801A60EB71EC801A1DFF50194
:105260009183808364E070E0C8015EDEEC01892BED
:10527000F9F481E090E04DDEB601C801049654DEF9
:10528000EC01892B91F462E070E0C5014DDEEC0188
:10529000892B59F4C7011FDC8091180690911906DB
:1052A0000196909319068093180690E080E031DE15
:1052B000CE01DF91CF911F910F91FF90EF90DF9082
:1052C000CF90BF90AF900895CFEFDFEFF1CFC9EF50
:1052D000DFEFEECF6F927F928F929F92AF92BF924D
:1052E000CF92DF92EF92FF920F931F93CF93DF93B2
:1052F00000D01F92CDB7DEB7009709F47AC04115F0
:10530000510509F476C02091130607EF1FEF222301
:1053100009F44DC03A017B015C0164E070E0CE010C
:10532000019695DE8C01892B09F041C009811A8113
:105330000115110509F45AC0480186E0880E911C38
:10534000B701680D791D80914702909148024FDDA9
:105350006C01009709F450C0A70170E060E00E9462
:10536000DD3889819A81AB81BC81EC0CFD1CF70191
:1053700081939193A193B1937F0181E090E0C9DD86
:10538000B801C70164DE892B31F562E070E0C70126
:10539000800F911F5CDE8C01892BE9F490E080E0A6
:1053A000B8DDF501D182C082F30191828082C8010B
:1053B0000F900F900F900F90DF91CF911F910F9151
:1053C000FF90EF90DF90CF90BF90AF909F908F9025
:1053D0007F906F90089590E080E09BDDF501118251
:1053E0001082F30111821082C60175DB09EF1FEFF5
:1053F000DECF0FEF1FEFDBCF06EF1FEFD8CF009709
:10540000A1F04115510589F02115310571F0F9011F
:1054100036966E177F0748F0DC012D933C93DA0136
:10542000ED93FC9390E080E008958FEF9FEF089557
:10543000AF92BF92CF92DF92EF92FF920F931F93A2
:10544000CF93DF93009709F45FC04115510509F42C
:105450005BC06530710508F457C020911306C7EF93
:10546000DFEF222391F1DC01CD90DC9011971296B1
:10547000ED91FC9196012A5F3F4FC9EFDFEF2617B0
:10548000370719F5C0911406D0911506209749F5F4
:1054900021E030E030931506209314067A018C0148
:1054A000F0931706E09316065601B4E0AB0EB11C5C
:1054B000B50176DE0A0D1B1DF801208131818217AE
:1054C000930729F5D701CD92DC92CE01DF91CF91E0
:1054D0001F910F91FF90EF90DF90CF90BF90AF9012
:1054E000089520911606309117062F5F3F4FCCEF9D
:1054F000DFEFE217F30790F2CBEFDFEF2E173F0756
:1055000068F2D0E0C0E0CACFCFEFDFEFDECFC3EF6D
:10551000DFEFDBCF84E090E0089582E090E0089533
:105520008CEF9FEF089580E290E0089510921906A5
:105530001092180610921706109216061092150671
:105540001092140690E080E00895909348028093B2
:105550004702089580911306882391F00BDE00978F
:1055600089F41092190610921806109217061092DC
:10557000160610921506109214061092130608953E
:1055800090E080E00895009749F06115710531F0D1
:10559000FC0111821082FB01118210820895F3CF69
:1055A00040E052EC61E070E090E080E000C08130CB
:1055B000910579F01CF4892B39F00895823091051A
:1055C00061F0039771F0089526E087E296E00C946D
:1055D000543326E084EC96E0FACF26E081E697E0AB
:1055E000F6CF26E08EEF97E0F2CF1F920F920FB624
:1055F0000F9211240BB60F922F933F934F935F930B
:105600006F937F938F939F93AF93BF93EF93FF938A
:105610008FE89DEF9093250180932401B9D0FF91ED
:10562000EF91BF91AF919F918F917F916F915F911A
:105630004F913F912F910F900BBE0F900FBE0F9087
:105640001F9018958FE89DEF90932501809324017A
:10565000A3E7B0E08C918E7F8C93E0E2F1E0808153
:105660008C7F8083E1E2F1E08081877E808380818E
:105670008460808380818C7F80838C9181608C9317
:105680000895E3E7F0E0808190819E7F90838170B0
:10569000089581E0089510921A06089568EE73E067
:1056A00080E090E0D5D590E080E0089526E040E0ED
:1056B00052EC61E070E087E296E0F6D787E296E090
:1056C00029D7892B21F087E296E03ED7F7CF90E0EB
:1056D00080E00895CF92DF92EF92FF920F931F9395
:1056E000CF93DF936B017A01E9011982188287E277
:1056F00096E010D7892B69F18601CC24C39482E00F
:10570000D82E80911A06811110C087E296E01CD72E
:105710000297B9F7C0921A06F801D1928F018881D9
:105720009981019699838883ECCF888199818E1520
:105730009F0578F487E296E007D78F3F9807A9F393
:10574000F80181938F0188819981019699838883DB
:10575000ECCF90E080E0DF91CF911F910F91FF900F
:10576000EF90DF90CF9008950F931F93CF93DF9327
:10577000EA01890187E296E00E94E435F801D183CD
:10578000C08390E080E0DF91CF911F910F91089549
:10579000CF92DF92EF92FF9280911B0691E0980FDB
:1057A00090931B06882369F021E030E030931D06BA
:1057B00020931C0680931B06FF90EF90DF90CF9004
:1057C00008957894E0915A02F0915B02C28CD38CD8
:1057D000E48CF58C0E948608B701A60190E080E079
:1057E0000E94B207F89480911B068150E3CF0F937B
:1057F0001F93CF93DF9310920209109201095ED597
:10580000CFDEC0915A02D0915B02198218826FEFED
:105810007FEFCB010E942C0870E060E090E080E018
:105820000E94BA06009709F03AC00E94E10AF89473
:105830007894BE016E5D7F4F8A819B810E94BD0678
:10584000892B59F46FEF7FEFCB010E9448070E942C
:105850002608882311F081E08EA3F894F3DE0E94DD
:105860002908882311F080E008C00E9426088111D1
:10587000FACF81E09EA19111F6CF8093010978942F
:105880000E942E138C0178948091010981110CC023
:105890000E94540C0E940E08F89490E080E0DF9182
:1058A000CF911F910F9108950E940C080E94290822
:1058B0008823D9F081E0809302099091020981E068
:1058C000911180E080930109809102098111D9DE54
:1058D0000130110529F40E942E13892B09F4DBDE17
:1058E0000E942E138C01D5DECFCF0E942608811195
:1058F000E1CF81E09EA19111DECF80E0DCCF505856
:10590000BB27AA270ED0AAC19BD130F0A0D120F08E
:1059100031F49F3F11F41EF490C10EF4E095E7FBC3
:105920005DC1E92FACD180F3BA1762077307840712
:10593000950718F071F49EF5DBC10EF4E0950B2E7F
:10594000BA2FA02D0B01B90190010C01CA01A001D1
:105950001124FF27591B99F0593F50F4503E68F12C
:105960001A16F040A22F232F342F4427585FF3CF6D
:10597000469537952795A795F0405395C9F77EF43E
:105980001F16BA0B620B730B840BBAF09150A1F087
:10599000FF0FBB1F661F771F881FC2F70EC0BA0F0D
:1059A000621F731F841F48F4879577956795B79595
:1059B000F7959E3F08F0B3CF9395880F08F099278D
:1059C000EE0F9795879508957CD180F09F3740F42E
:1059D00091110EF48EC160E070E080E89FE30895BD
:1059E00026F01B16611D711D811DFEC018C1D2D08D
:1059F00008F481E0089504D06894B1117AC1089543
:105A000046D188F09F5790F0B92F9927B751A0F051
:105A1000D1F0660F771F881F991F1AF0BA95C9F742
:105A200012C0B13081F064D1B1E0089561C1672F37
:105A3000782F8827B85F39F0B93FCCF386957795F2
:105A40006795B395D9F73EF49095809570956195DB
:105A50007F4F8F4F9F4F0895E89409C097FB3EF406
:105A600090958095709561957F4F8F4F9F4F9923AB
:105A7000A9F0F92F96E9BB279395F6958795779529
:105A80006795B795F111F8CFFAF4BB0F11F460FFE9
:105A90001BC06F5F7F4F8F4F9F4F16C0882311F041
:105AA00096E911C0772321F09EE8872F762F05C055
:105AB000662371F096E8862F70E060E02AF09A95F0
:105AC000660F771F881FDAF7880F9695879597F9E5
:105AD0000895F7D080F09F3740F491110EF009C17E
